{
	"contracts/Cyberorcs.sol": {
		"Cyberorcs": {
			"abi": [
				{
					"inputs": [
						{
							"internalType": "string",
							"name": "name_",
							"type": "string"
						},
						{
							"internalType": "string",
							"name": "symbol_",
							"type": "string"
						},
						{
							"internalType": "uint256",
							"name": "maxSupply_",
							"type": "uint256"
						},
						{
							"internalType": "address",
							"name": "treasury",
							"type": "address"
						}
					],
					"stateMutability": "nonpayable",
					"type": "constructor"
				},
				{
					"anonymous": false,
					"inputs": [
						{
							"indexed": true,
							"internalType": "address",
							"name": "owner",
							"type": "address"
						},
						{
							"indexed": true,
							"internalType": "address",
							"name": "spender",
							"type": "address"
						},
						{
							"indexed": false,
							"internalType": "uint256",
							"name": "value",
							"type": "uint256"
						}
					],
					"name": "Approval",
					"type": "event"
				},
				{
					"anonymous": false,
					"inputs": [
						{
							"indexed": true,
							"internalType": "address",
							"name": "from",
							"type": "address"
						},
						{
							"indexed": true,
							"internalType": "address",
							"name": "to",
							"type": "address"
						},
						{
							"indexed": false,
							"internalType": "uint256",
							"name": "value",
							"type": "uint256"
						}
					],
					"name": "Transfer",
					"type": "event"
				},
				{
					"inputs": [],
					"name": "MAX_SUPPLY",
					"outputs": [
						{
							"internalType": "uint256",
							"name": "",
							"type": "uint256"
						}
					],
					"stateMutability": "view",
					"type": "function"
				},
				{
					"inputs": [
						{
							"internalType": "address",
							"name": "owner",
							"type": "address"
						},
						{
							"internalType": "address",
							"name": "spender",
							"type": "address"
						}
					],
					"name": "allowance",
					"outputs": [
						{
							"internalType": "uint256",
							"name": "",
							"type": "uint256"
						}
					],
					"stateMutability": "view",
					"type": "function"
				},
				{
					"inputs": [
						{
							"internalType": "address",
							"name": "spender",
							"type": "address"
						},
						{
							"internalType": "uint256",
							"name": "value",
							"type": "uint256"
						}
					],
					"name": "approve",
					"outputs": [
						{
							"internalType": "bool",
							"name": "",
							"type": "bool"
						}
					],
					"stateMutability": "nonpayable",
					"type": "function"
				},
				{
					"inputs": [
						{
							"internalType": "address",
							"name": "owner",
							"type": "address"
						}
					],
					"name": "balanceOf",
					"outputs": [
						{
							"internalType": "uint256",
							"name": "",
							"type": "uint256"
						}
					],
					"stateMutability": "view",
					"type": "function"
				},
				{
					"inputs": [
						{
							"internalType": "uint256",
							"name": "amount",
							"type": "uint256"
						}
					],
					"name": "burn",
					"outputs": [
						{
							"internalType": "bool",
							"name": "",
							"type": "bool"
						}
					],
					"stateMutability": "nonpayable",
					"type": "function"
				},
				{
					"inputs": [],
					"name": "decimals",
					"outputs": [
						{
							"internalType": "uint8",
							"name": "",
							"type": "uint8"
						}
					],
					"stateMutability": "pure",
					"type": "function"
				},
				{
					"inputs": [
						{
							"internalType": "address",
							"name": "to",
							"type": "address"
						},
						{
							"internalType": "uint256",
							"name": "amount",
							"type": "uint256"
						}
					],
					"name": "mint",
					"outputs": [
						{
							"internalType": "bool",
							"name": "",
							"type": "bool"
						}
					],
					"stateMutability": "nonpayable",
					"type": "function"
				},
				{
					"inputs": [],
					"name": "minter",
					"outputs": [
						{
							"internalType": "address",
							"name": "",
							"type": "address"
						}
					],
					"stateMutability": "view",
					"type": "function"
				},
				{
					"inputs": [],
					"name": "name",
					"outputs": [
						{
							"internalType": "string",
							"name": "",
							"type": "string"
						}
					],
					"stateMutability": "view",
					"type": "function"
				},
				{
					"inputs": [],
					"name": "symbol",
					"outputs": [
						{
							"internalType": "string",
							"name": "",
							"type": "string"
						}
					],
					"stateMutability": "view",
					"type": "function"
				},
				{
					"inputs": [],
					"name": "totalSupply",
					"outputs": [
						{
							"internalType": "uint256",
							"name": "",
							"type": "uint256"
						}
					],
					"stateMutability": "view",
					"type": "function"
				},
				{
					"inputs": [],
					"name": "totalSupplyView",
					"outputs": [
						{
							"internalType": "uint256",
							"name": "",
							"type": "uint256"
						}
					],
					"stateMutability": "view",
					"type": "function"
				},
				{
					"inputs": [
						{
							"internalType": "address",
							"name": "to",
							"type": "address"
						},
						{
							"internalType": "uint256",
							"name": "amount",
							"type": "uint256"
						}
					],
					"name": "transfer",
					"outputs": [
						{
							"internalType": "bool",
							"name": "",
							"type": "bool"
						}
					],
					"stateMutability": "nonpayable",
					"type": "function"
				},
				{
					"inputs": [
						{
							"internalType": "address",
							"name": "from",
							"type": "address"
						},
						{
							"internalType": "address",
							"name": "to",
							"type": "address"
						},
						{
							"internalType": "uint256",
							"name": "value",
							"type": "uint256"
						}
					],
					"name": "transferFrom",
					"outputs": [
						{
							"internalType": "bool",
							"name": "",
							"type": "bool"
						}
					],
					"stateMutability": "nonpayable",
					"type": "function"
				}
			],
			"devdoc": {
				"kind": "dev",
				"methods": {},
				"version": 1
			},
			"evm": {
				"assembly": "    /* \"contracts/Cyberorcs.sol\":116:4092  contract Cyberorcs is ICyberorcs {... */\n  mstore(0x40, 0xa0)\n    /* \"contracts/Cyberorcs.sol\":557:1196  constructor(string memory name_, string memory symbol_, uint256 maxSupply_, address treasury) {... */\n  callvalue\n  dup1\n  iszero\n  tag_1\n  jumpi\n  revert(0x00, 0x00)\ntag_1:\n  pop\n  mload(0x40)\n  sub(codesize, bytecodeSize)\n  dup1\n  bytecodeSize\n  dup4\n  codecopy\n  dup2\n  dup2\n  add\n  0x40\n  mstore\n  dup2\n  add\n  swap1\n  tag_2\n  swap2\n  swap1\n  tag_3\n  jump\t// in\ntag_2:\n    /* \"contracts/Cyberorcs.sol\":690:691  0 */\n  0x00\n    /* \"contracts/Cyberorcs.sol\":670:692  treasury != address(0) */\n  0xffffffffffffffffffffffffffffffffffffffff\n  and\n    /* \"contracts/Cyberorcs.sol\":670:678  treasury */\n  dup2\n    /* \"contracts/Cyberorcs.sol\":670:692  treasury != address(0) */\n  0xffffffffffffffffffffffffffffffffffffffff\n  and\n  sub\n    /* \"contracts/Cyberorcs.sol\":662:710  require(treasury != address(0), \"Zero treasury\") */\n  tag_6\n  jumpi\n  mload(0x40)\n  0x08c379a000000000000000000000000000000000000000000000000000000000\n  dup2\n  mstore\n  0x04\n  add\n  tag_7\n  swap1\n  tag_8\n  jump\t// in\ntag_7:\n  mload(0x40)\n  dup1\n  swap2\n  sub\n  swap1\n  revert\ntag_6:\n    /* \"contracts/Cyberorcs.sol\":728:733  name_ */\n  dup4\n    /* \"contracts/Cyberorcs.sol\":721:725  NAME */\n  0x00\n    /* \"contracts/Cyberorcs.sol\":721:733  NAME = name_ */\n  swap1\n  dup2\n  tag_9\n  swap2\n  swap1\n  tag_10\n  jump\t// in\ntag_9:\n  pop\n    /* \"contracts/Cyberorcs.sol\":753:760  symbol_ */\n  dup3\n    /* \"contracts/Cyberorcs.sol\":744:750  SYMBOL */\n  0x01\n    /* \"contracts/Cyberorcs.sol\":744:760  SYMBOL = symbol_ */\n  swap1\n  dup2\n  tag_11\n  swap2\n  swap1\n  tag_10\n  jump\t// in\ntag_11:\n  pop\n    /* \"contracts/Cyberorcs.sol\":784:794  maxSupply_ */\n  dup2\n    /* \"contracts/Cyberorcs.sol\":771:794  MAX_SUPPLY = maxSupply_ */\n  0x80\n  dup2\n  dup2\n  mstore\n  pop\n  pop\n    /* \"contracts/Cyberorcs.sol\":816:826  msg.sender */\n  caller\n    /* \"contracts/Cyberorcs.sol\":807:813  minter */\n  0x03\n  0x00\n    /* \"contracts/Cyberorcs.sol\":807:826  minter = msg.sender */\n  0x0100\n  exp\n  dup2\n  sload\n  dup2\n  0xffffffffffffffffffffffffffffffffffffffff\n  mul\n  not\n  and\n  swap1\n  dup4\n  0xffffffffffffffffffffffffffffffffffffffff\n  and\n  mul\n  or\n  swap1\n  sstore\n  pop\n    /* \"contracts/Cyberorcs.sol\":1001:1020  uint256 initialMint */\n  0x00\n    /* \"contracts/Cyberorcs.sol\":1036:1037  2 */\n  0x02\n    /* \"contracts/Cyberorcs.sol\":1023:1033  maxSupply_ */\n  dup4\n    /* \"contracts/Cyberorcs.sol\":1023:1037  maxSupply_ / 2 */\n  tag_12\n  swap2\n  swap1\n  tag_13\n  jump\t// in\ntag_12:\n    /* \"contracts/Cyberorcs.sol\":1001:1037  uint256 initialMint = maxSupply_ / 2 */\n  swap1\n  pop\n    /* \"contracts/Cyberorcs.sol\":1080:1091  initialMint */\n  dup1\n    /* \"contracts/Cyberorcs.sol\":1059:1067  _balance */\n  0x04\n    /* \"contracts/Cyberorcs.sol\":1059:1077  _balance[treasury] */\n  0x00\n    /* \"contracts/Cyberorcs.sol\":1068:1076  treasury */\n  dup5\n    /* \"contracts/Cyberorcs.sol\":1059:1077  _balance[treasury] */\n  0xffffffffffffffffffffffffffffffffffffffff\n  and\n  0xffffffffffffffffffffffffffffffffffffffff\n  and\n  dup2\n  mstore\n  0x20\n  add\n  swap1\n  dup2\n  mstore\n  0x20\n  add\n  0x00\n  keccak256\n    /* \"contracts/Cyberorcs.sol\":1059:1091  _balance[treasury] = initialMint */\n  dup2\n  swap1\n  sstore\n  pop\n    /* \"contracts/Cyberorcs.sol\":1116:1127  initialMint */\n  dup1\n    /* \"contracts/Cyberorcs.sol\":1102:1113  totalSupply */\n  0x02\n    /* \"contracts/Cyberorcs.sol\":1102:1127  totalSupply = initialMint */\n  dup2\n  swap1\n  sstore\n  pop\n    /* \"contracts/Cyberorcs.sol\":1166:1174  treasury */\n  dup2\n    /* \"contracts/Cyberorcs.sol\":1145:1188  Transfer(address(0), treasury, initialMint) */\n  0xffffffffffffffffffffffffffffffffffffffff\n  and\n    /* \"contracts/Cyberorcs.sol\":1162:1163  0 */\n  0x00\n    /* \"contracts/Cyberorcs.sol\":1145:1188  Transfer(address(0), treasury, initialMint) */\n  0xffffffffffffffffffffffffffffffffffffffff\n  and\n  0xddf252ad1be2c89b69c2b068fc378daa952ba7f163c4a11628f55a4df523b3ef\n    /* \"contracts/Cyberorcs.sol\":1176:1187  initialMint */\n  dup4\n    /* \"contracts/Cyberorcs.sol\":1145:1188  Transfer(address(0), treasury, initialMint) */\n  mload(0x40)\n  tag_14\n  swap2\n  swap1\n  tag_15\n  jump\t// in\ntag_14:\n  mload(0x40)\n  dup1\n  swap2\n  sub\n  swap1\n  log3\n    /* \"contracts/Cyberorcs.sol\":651:1196  {... */\n  pop\n    /* \"contracts/Cyberorcs.sol\":557:1196  constructor(string memory name_, string memory symbol_, uint256 maxSupply_, address treasury) {... */\n  pop\n  pop\n  pop\n  pop\n    /* \"contracts/Cyberorcs.sol\":116:4092  contract Cyberorcs is ICyberorcs {... */\n  jump(tag_16)\n    /* \"#utility.yul\":7:82   */\ntag_17:\n    /* \"#utility.yul\":40:46   */\n  0x00\n    /* \"#utility.yul\":73:75   */\n  0x40\n    /* \"#utility.yul\":67:76   */\n  mload\n    /* \"#utility.yul\":57:76   */\n  swap1\n  pop\n    /* \"#utility.yul\":7:82   */\n  swap1\n  jump\t// out\n    /* \"#utility.yul\":88:205   */\ntag_18:\n    /* \"#utility.yul\":197:198   */\n  0x00\n    /* \"#utility.yul\":194:195   */\n  0x00\n    /* \"#utility.yul\":187:199   */\n  revert\n    /* \"#utility.yul\":211:328   */\ntag_19:\n    /* \"#utility.yul\":320:321   */\n  0x00\n    /* \"#utility.yul\":317:318   */\n  0x00\n    /* \"#utility.yul\":310:322   */\n  revert\n    /* \"#utility.yul\":334:451   */\ntag_20:\n    /* \"#utility.yul\":443:444   */\n  0x00\n    /* \"#utility.yul\":440:441   */\n  0x00\n    /* \"#utility.yul\":433:445   */\n  revert\n    /* \"#utility.yul\":457:574   */\ntag_21:\n    /* \"#utility.yul\":566:567   */\n  0x00\n    /* \"#utility.yul\":563:564   */\n  0x00\n    /* \"#utility.yul\":556:568   */\n  revert\n    /* \"#utility.yul\":580:682   */\ntag_22:\n    /* \"#utility.yul\":621:627   */\n  0x00\n    /* \"#utility.yul\":672:674   */\n  0x1f\n    /* \"#utility.yul\":668:675   */\n  not\n    /* \"#utility.yul\":663:665   */\n  0x1f\n    /* \"#utility.yul\":656:661   */\n  dup4\n    /* \"#utility.yul\":652:666   */\n  add\n    /* \"#utility.yul\":648:676   */\n  and\n    /* \"#utility.yul\":638:676   */\n  swap1\n  pop\n    /* \"#utility.yul\":580:682   */\n  swap2\n  swap1\n  pop\n  jump\t// out\n    /* \"#utility.yul\":688:868   */\ntag_23:\n    /* \"#utility.yul\":736:813   */\n  0x4e487b7100000000000000000000000000000000000000000000000000000000\n    /* \"#utility.yul\":733:734   */\n  0x00\n    /* \"#utility.yul\":726:814   */\n  mstore\n    /* \"#utility.yul\":833:837   */\n  0x41\n    /* \"#utility.yul\":830:831   */\n  0x04\n    /* \"#utility.yul\":823:838   */\n  mstore\n    /* \"#utility.yul\":857:861   */\n  0x24\n    /* \"#utility.yul\":854:855   */\n  0x00\n    /* \"#utility.yul\":847:862   */\n  revert\n    /* \"#utility.yul\":874:1155   */\ntag_24:\n    /* \"#utility.yul\":957:984   */\n  tag_70\n    /* \"#utility.yul\":979:983   */\n  dup3\n    /* \"#utility.yul\":957:984   */\n  tag_22\n  jump\t// in\ntag_70:\n    /* \"#utility.yul\":949:955   */\n  dup2\n    /* \"#utility.yul\":945:985   */\n  add\n    /* \"#utility.yul\":1087:1093   */\n  dup2\n    /* \"#utility.yul\":1075:1085   */\n  dup2\n    /* \"#utility.yul\":1072:1094   */\n  lt\n    /* \"#utility.yul\":1051:1069   */\n  0xffffffffffffffff\n    /* \"#utility.yul\":1039:1049   */\n  dup3\n    /* \"#utility.yul\":1036:1070   */\n  gt\n    /* \"#utility.yul\":1033:1095   */\n  or\n    /* \"#utility.yul\":1030:1118   */\n  iszero\n  tag_71\n  jumpi\n    /* \"#utility.yul\":1098:1116   */\n  tag_72\n  tag_23\n  jump\t// in\ntag_72:\n    /* \"#utility.yul\":1030:1118   */\ntag_71:\n    /* \"#utility.yul\":1138:1148   */\n  dup1\n    /* \"#utility.yul\":1134:1136   */\n  0x40\n    /* \"#utility.yul\":1127:1149   */\n  mstore\n    /* \"#utility.yul\":917:1155   */\n  pop\n    /* \"#utility.yul\":874:1155   */\n  pop\n  pop\n  jump\t// out\n    /* \"#utility.yul\":1161:1290   */\ntag_25:\n    /* \"#utility.yul\":1195:1201   */\n  0x00\n    /* \"#utility.yul\":1222:1242   */\n  tag_74\n  tag_17\n  jump\t// in\ntag_74:\n    /* \"#utility.yul\":1212:1242   */\n  swap1\n  pop\n    /* \"#utility.yul\":1251:1284   */\n  tag_75\n    /* \"#utility.yul\":1279:1283   */\n  dup3\n    /* \"#utility.yul\":1271:1277   */\n  dup3\n    /* \"#utility.yul\":1251:1284   */\n  tag_24\n  jump\t// in\ntag_75:\n    /* \"#utility.yul\":1161:1290   */\n  swap2\n  swap1\n  pop\n  jump\t// out\n    /* \"#utility.yul\":1296:1604   */\ntag_26:\n    /* \"#utility.yul\":1358:1362   */\n  0x00\n    /* \"#utility.yul\":1448:1466   */\n  0xffffffffffffffff\n    /* \"#utility.yul\":1440:1446   */\n  dup3\n    /* \"#utility.yul\":1437:1467   */\n  gt\n    /* \"#utility.yul\":1434:1490   */\n  iszero\n  tag_77\n  jumpi\n    /* \"#utility.yul\":1470:1488   */\n  tag_78\n  tag_23\n  jump\t// in\ntag_78:\n    /* \"#utility.yul\":1434:1490   */\ntag_77:\n    /* \"#utility.yul\":1508:1537   */\n  tag_79\n    /* \"#utility.yul\":1530:1536   */\n  dup3\n    /* \"#utility.yul\":1508:1537   */\n  tag_22\n  jump\t// in\ntag_79:\n    /* \"#utility.yul\":1500:1537   */\n  swap1\n  pop\n    /* \"#utility.yul\":1592:1596   */\n  0x20\n    /* \"#utility.yul\":1586:1590   */\n  dup2\n    /* \"#utility.yul\":1582:1597   */\n  add\n    /* \"#utility.yul\":1574:1597   */\n  swap1\n  pop\n    /* \"#utility.yul\":1296:1604   */\n  swap2\n  swap1\n  pop\n  jump\t// out\n    /* \"#utility.yul\":1610:1749   */\ntag_27:\n    /* \"#utility.yul\":1699:1705   */\n  dup3\n    /* \"#utility.yul\":1694:1697   */\n  dup2\n    /* \"#utility.yul\":1689:1692   */\n  dup4\n    /* \"#utility.yul\":1683:1706   */\n  mcopy\n    /* \"#utility.yul\":1740:1741   */\n  0x00\n    /* \"#utility.yul\":1731:1737   */\n  dup4\n    /* \"#utility.yul\":1726:1729   */\n  dup4\n    /* \"#utility.yul\":1722:1738   */\n  add\n    /* \"#utility.yul\":1715:1742   */\n  mstore\n    /* \"#utility.yul\":1610:1749   */\n  pop\n  pop\n  pop\n  jump\t// out\n    /* \"#utility.yul\":1755:2189   */\ntag_28:\n    /* \"#utility.yul\":1844:1849   */\n  0x00\n    /* \"#utility.yul\":1869:1935   */\n  tag_82\n    /* \"#utility.yul\":1885:1934   */\n  tag_83\n    /* \"#utility.yul\":1927:1933   */\n  dup5\n    /* \"#utility.yul\":1885:1934   */\n  tag_26\n  jump\t// in\ntag_83:\n    /* \"#utility.yul\":1869:1935   */\n  tag_25\n  jump\t// in\ntag_82:\n    /* \"#utility.yul\":1860:1935   */\n  swap1\n  pop\n    /* \"#utility.yul\":1958:1964   */\n  dup3\n    /* \"#utility.yul\":1951:1956   */\n  dup2\n    /* \"#utility.yul\":1944:1965   */\n  mstore\n    /* \"#utility.yul\":1996:2000   */\n  0x20\n    /* \"#utility.yul\":1989:1994   */\n  dup2\n    /* \"#utility.yul\":1985:2001   */\n  add\n    /* \"#utility.yul\":2034:2037   */\n  dup5\n    /* \"#utility.yul\":2025:2031   */\n  dup5\n    /* \"#utility.yul\":2020:2023   */\n  dup5\n    /* \"#utility.yul\":2016:2032   */\n  add\n    /* \"#utility.yul\":2013:2038   */\n  gt\n    /* \"#utility.yul\":2010:2122   */\n  iszero\n  tag_84\n  jumpi\n    /* \"#utility.yul\":2041:2120   */\n  tag_85\n  tag_21\n  jump\t// in\ntag_85:\n    /* \"#utility.yul\":2010:2122   */\ntag_84:\n    /* \"#utility.yul\":2131:2183   */\n  tag_86\n    /* \"#utility.yul\":2176:2182   */\n  dup5\n    /* \"#utility.yul\":2171:2174   */\n  dup3\n    /* \"#utility.yul\":2166:2169   */\n  dup6\n    /* \"#utility.yul\":2131:2183   */\n  tag_27\n  jump\t// in\ntag_86:\n    /* \"#utility.yul\":1850:2189   */\n  pop\n    /* \"#utility.yul\":1755:2189   */\n  swap4\n  swap3\n  pop\n  pop\n  pop\n  jump\t// out\n    /* \"#utility.yul\":2209:2564   */\ntag_29:\n    /* \"#utility.yul\":2276:2281   */\n  0x00\n    /* \"#utility.yul\":2325:2328   */\n  dup3\n    /* \"#utility.yul\":2318:2322   */\n  0x1f\n    /* \"#utility.yul\":2310:2316   */\n  dup4\n    /* \"#utility.yul\":2306:2323   */\n  add\n    /* \"#utility.yul\":2302:2329   */\n  slt\n    /* \"#utility.yul\":2292:2414   */\n  tag_88\n  jumpi\n    /* \"#utility.yul\":2333:2412   */\n  tag_89\n  tag_20\n  jump\t// in\ntag_89:\n    /* \"#utility.yul\":2292:2414   */\ntag_88:\n    /* \"#utility.yul\":2443:2449   */\n  dup2\n    /* \"#utility.yul\":2437:2450   */\n  mload\n    /* \"#utility.yul\":2468:2558   */\n  tag_90\n    /* \"#utility.yul\":2554:2557   */\n  dup5\n    /* \"#utility.yul\":2546:2552   */\n  dup3\n    /* \"#utility.yul\":2539:2543   */\n  0x20\n    /* \"#utility.yul\":2531:2537   */\n  dup7\n    /* \"#utility.yul\":2527:2544   */\n  add\n    /* \"#utility.yul\":2468:2558   */\n  tag_28\n  jump\t// in\ntag_90:\n    /* \"#utility.yul\":2459:2558   */\n  swap2\n  pop\n    /* \"#utility.yul\":2282:2564   */\n  pop\n    /* \"#utility.yul\":2209:2564   */\n  swap3\n  swap2\n  pop\n  pop\n  jump\t// out\n    /* \"#utility.yul\":2570:2647   */\ntag_30:\n    /* \"#utility.yul\":2607:2614   */\n  0x00\n    /* \"#utility.yul\":2636:2641   */\n  dup2\n    /* \"#utility.yul\":2625:2641   */\n  swap1\n  pop\n    /* \"#utility.yul\":2570:2647   */\n  swap2\n  swap1\n  pop\n  jump\t// out\n    /* \"#utility.yul\":2653:2775   */\ntag_31:\n    /* \"#utility.yul\":2726:2750   */\n  tag_93\n    /* \"#utility.yul\":2744:2749   */\n  dup2\n    /* \"#utility.yul\":2726:2750   */\n  tag_30\n  jump\t// in\ntag_93:\n    /* \"#utility.yul\":2719:2724   */\n  dup2\n    /* \"#utility.yul\":2716:2751   */\n  eq\n    /* \"#utility.yul\":2706:2769   */\n  tag_94\n  jumpi\n    /* \"#utility.yul\":2765:2766   */\n  0x00\n    /* \"#utility.yul\":2762:2763   */\n  0x00\n    /* \"#utility.yul\":2755:2767   */\n  revert\n    /* \"#utility.yul\":2706:2769   */\ntag_94:\n    /* \"#utility.yul\":2653:2775   */\n  pop\n  jump\t// out\n    /* \"#utility.yul\":2781:2924   */\ntag_32:\n    /* \"#utility.yul\":2838:2843   */\n  0x00\n    /* \"#utility.yul\":2869:2875   */\n  dup2\n    /* \"#utility.yul\":2863:2876   */\n  mload\n    /* \"#utility.yul\":2854:2876   */\n  swap1\n  pop\n    /* \"#utility.yul\":2885:2918   */\n  tag_96\n    /* \"#utility.yul\":2912:2917   */\n  dup2\n    /* \"#utility.yul\":2885:2918   */\n  tag_31\n  jump\t// in\ntag_96:\n    /* \"#utility.yul\":2781:2924   */\n  swap3\n  swap2\n  pop\n  pop\n  jump\t// out\n    /* \"#utility.yul\":2930:3056   */\ntag_33:\n    /* \"#utility.yul\":2967:2974   */\n  0x00\n    /* \"#utility.yul\":3007:3049   */\n  0xffffffffffffffffffffffffffffffffffffffff\n    /* \"#utility.yul\":3000:3005   */\n  dup3\n    /* \"#utility.yul\":2996:3050   */\n  and\n    /* \"#utility.yul\":2985:3050   */\n  swap1\n  pop\n    /* \"#utility.yul\":2930:3056   */\n  swap2\n  swap1\n  pop\n  jump\t// out\n    /* \"#utility.yul\":3062:3158   */\ntag_34:\n    /* \"#utility.yul\":3099:3106   */\n  0x00\n    /* \"#utility.yul\":3128:3152   */\n  tag_99\n    /* \"#utility.yul\":3146:3151   */\n  dup3\n    /* \"#utility.yul\":3128:3152   */\n  tag_33\n  jump\t// in\ntag_99:\n    /* \"#utility.yul\":3117:3152   */\n  swap1\n  pop\n    /* \"#utility.yul\":3062:3158   */\n  swap2\n  swap1\n  pop\n  jump\t// out\n    /* \"#utility.yul\":3164:3286   */\ntag_35:\n    /* \"#utility.yul\":3237:3261   */\n  tag_101\n    /* \"#utility.yul\":3255:3260   */\n  dup2\n    /* \"#utility.yul\":3237:3261   */\n  tag_34\n  jump\t// in\ntag_101:\n    /* \"#utility.yul\":3230:3235   */\n  dup2\n    /* \"#utility.yul\":3227:3262   */\n  eq\n    /* \"#utility.yul\":3217:3280   */\n  tag_102\n  jumpi\n    /* \"#utility.yul\":3276:3277   */\n  0x00\n    /* \"#utility.yul\":3273:3274   */\n  0x00\n    /* \"#utility.yul\":3266:3278   */\n  revert\n    /* \"#utility.yul\":3217:3280   */\ntag_102:\n    /* \"#utility.yul\":3164:3286   */\n  pop\n  jump\t// out\n    /* \"#utility.yul\":3292:3435   */\ntag_36:\n    /* \"#utility.yul\":3349:3354   */\n  0x00\n    /* \"#utility.yul\":3380:3386   */\n  dup2\n    /* \"#utility.yul\":3374:3387   */\n  mload\n    /* \"#utility.yul\":3365:3387   */\n  swap1\n  pop\n    /* \"#utility.yul\":3396:3429   */\n  tag_104\n    /* \"#utility.yul\":3423:3428   */\n  dup2\n    /* \"#utility.yul\":3396:3429   */\n  tag_35\n  jump\t// in\ntag_104:\n    /* \"#utility.yul\":3292:3435   */\n  swap3\n  swap2\n  pop\n  pop\n  jump\t// out\n    /* \"#utility.yul\":3441:4607   */\ntag_3:\n    /* \"#utility.yul\":3558:3564   */\n  0x00\n    /* \"#utility.yul\":3566:3572   */\n  0x00\n    /* \"#utility.yul\":3574:3580   */\n  0x00\n    /* \"#utility.yul\":3582:3588   */\n  0x00\n    /* \"#utility.yul\":3631:3634   */\n  0x80\n    /* \"#utility.yul\":3619:3628   */\n  dup6\n    /* \"#utility.yul\":3610:3617   */\n  dup8\n    /* \"#utility.yul\":3606:3629   */\n  sub\n    /* \"#utility.yul\":3602:3635   */\n  slt\n    /* \"#utility.yul\":3599:3719   */\n  iszero\n  tag_106\n  jumpi\n    /* \"#utility.yul\":3638:3717   */\n  tag_107\n  tag_18\n  jump\t// in\ntag_107:\n    /* \"#utility.yul\":3599:3719   */\ntag_106:\n    /* \"#utility.yul\":3779:3780   */\n  0x00\n    /* \"#utility.yul\":3768:3777   */\n  dup6\n    /* \"#utility.yul\":3764:3781   */\n  add\n    /* \"#utility.yul\":3758:3782   */\n  mload\n    /* \"#utility.yul\":3809:3827   */\n  0xffffffffffffffff\n    /* \"#utility.yul\":3801:3807   */\n  dup2\n    /* \"#utility.yul\":3798:3828   */\n  gt\n    /* \"#utility.yul\":3795:3912   */\n  iszero\n  tag_108\n  jumpi\n    /* \"#utility.yul\":3831:3910   */\n  tag_109\n  tag_19\n  jump\t// in\ntag_109:\n    /* \"#utility.yul\":3795:3912   */\ntag_108:\n    /* \"#utility.yul\":3936:4010   */\n  tag_110\n    /* \"#utility.yul\":4002:4009   */\n  dup8\n    /* \"#utility.yul\":3993:3999   */\n  dup3\n    /* \"#utility.yul\":3982:3991   */\n  dup9\n    /* \"#utility.yul\":3978:4000   */\n  add\n    /* \"#utility.yul\":3936:4010   */\n  tag_29\n  jump\t// in\ntag_110:\n    /* \"#utility.yul\":3926:4010   */\n  swap5\n  pop\n    /* \"#utility.yul\":3729:4020   */\n  pop\n    /* \"#utility.yul\":4080:4082   */\n  0x20\n    /* \"#utility.yul\":4069:4078   */\n  dup6\n    /* \"#utility.yul\":4065:4083   */\n  add\n    /* \"#utility.yul\":4059:4084   */\n  mload\n    /* \"#utility.yul\":4111:4129   */\n  0xffffffffffffffff\n    /* \"#utility.yul\":4103:4109   */\n  dup2\n    /* \"#utility.yul\":4100:4130   */\n  gt\n    /* \"#utility.yul\":4097:4214   */\n  iszero\n  tag_111\n  jumpi\n    /* \"#utility.yul\":4133:4212   */\n  tag_112\n  tag_19\n  jump\t// in\ntag_112:\n    /* \"#utility.yul\":4097:4214   */\ntag_111:\n    /* \"#utility.yul\":4238:4312   */\n  tag_113\n    /* \"#utility.yul\":4304:4311   */\n  dup8\n    /* \"#utility.yul\":4295:4301   */\n  dup3\n    /* \"#utility.yul\":4284:4293   */\n  dup9\n    /* \"#utility.yul\":4280:4302   */\n  add\n    /* \"#utility.yul\":4238:4312   */\n  tag_29\n  jump\t// in\ntag_113:\n    /* \"#utility.yul\":4228:4312   */\n  swap4\n  pop\n    /* \"#utility.yul\":4030:4322   */\n  pop\n    /* \"#utility.yul\":4361:4363   */\n  0x40\n    /* \"#utility.yul\":4387:4451   */\n  tag_114\n    /* \"#utility.yul\":4443:4450   */\n  dup8\n    /* \"#utility.yul\":4434:4440   */\n  dup3\n    /* \"#utility.yul\":4423:4432   */\n  dup9\n    /* \"#utility.yul\":4419:4441   */\n  add\n    /* \"#utility.yul\":4387:4451   */\n  tag_32\n  jump\t// in\ntag_114:\n    /* \"#utility.yul\":4377:4451   */\n  swap3\n  pop\n    /* \"#utility.yul\":4332:4461   */\n  pop\n    /* \"#utility.yul\":4500:4502   */\n  0x60\n    /* \"#utility.yul\":4526:4590   */\n  tag_115\n    /* \"#utility.yul\":4582:4589   */\n  dup8\n    /* \"#utility.yul\":4573:4579   */\n  dup3\n    /* \"#utility.yul\":4562:4571   */\n  dup9\n    /* \"#utility.yul\":4558:4580   */\n  add\n    /* \"#utility.yul\":4526:4590   */\n  tag_36\n  jump\t// in\ntag_115:\n    /* \"#utility.yul\":4516:4590   */\n  swap2\n  pop\n    /* \"#utility.yul\":4471:4600   */\n  pop\n    /* \"#utility.yul\":3441:4607   */\n  swap3\n  swap6\n  swap2\n  swap5\n  pop\n  swap3\n  pop\n  jump\t// out\n    /* \"#utility.yul\":4613:4782   */\ntag_37:\n    /* \"#utility.yul\":4697:4708   */\n  0x00\n    /* \"#utility.yul\":4731:4737   */\n  dup3\n    /* \"#utility.yul\":4726:4729   */\n  dup3\n    /* \"#utility.yul\":4719:4738   */\n  mstore\n    /* \"#utility.yul\":4771:4775   */\n  0x20\n    /* \"#utility.yul\":4766:4769   */\n  dup3\n    /* \"#utility.yul\":4762:4776   */\n  add\n    /* \"#utility.yul\":4747:4776   */\n  swap1\n  pop\n    /* \"#utility.yul\":4613:4782   */\n  swap3\n  swap2\n  pop\n  pop\n  jump\t// out\n    /* \"#utility.yul\":4788:4951   */\ntag_38:\n    /* \"#utility.yul\":4928:4943   */\n  0x5a65726f20747265617375727900000000000000000000000000000000000000\n    /* \"#utility.yul\":4924:4925   */\n  0x00\n    /* \"#utility.yul\":4916:4922   */\n  dup3\n    /* \"#utility.yul\":4912:4926   */\n  add\n    /* \"#utility.yul\":4905:4944   */\n  mstore\n    /* \"#utility.yul\":4788:4951   */\n  pop\n  jump\t// out\n    /* \"#utility.yul\":4957:5323   */\ntag_39:\n    /* \"#utility.yul\":5099:5102   */\n  0x00\n    /* \"#utility.yul\":5120:5187   */\n  tag_119\n    /* \"#utility.yul\":5184:5186   */\n  0x0d\n    /* \"#utility.yul\":5179:5182   */\n  dup4\n    /* \"#utility.yul\":5120:5187   */\n  tag_37\n  jump\t// in\ntag_119:\n    /* \"#utility.yul\":5113:5187   */\n  swap2\n  pop\n    /* \"#utility.yul\":5196:5289   */\n  tag_120\n    /* \"#utility.yul\":5285:5288   */\n  dup3\n    /* \"#utility.yul\":5196:5289   */\n  tag_38\n  jump\t// in\ntag_120:\n    /* \"#utility.yul\":5314:5316   */\n  0x20\n    /* \"#utility.yul\":5309:5312   */\n  dup3\n    /* \"#utility.yul\":5305:5317   */\n  add\n    /* \"#utility.yul\":5298:5317   */\n  swap1\n  pop\n    /* \"#utility.yul\":4957:5323   */\n  swap2\n  swap1\n  pop\n  jump\t// out\n    /* \"#utility.yul\":5329:5748   */\ntag_8:\n    /* \"#utility.yul\":5495:5499   */\n  0x00\n    /* \"#utility.yul\":5533:5535   */\n  0x20\n    /* \"#utility.yul\":5522:5531   */\n  dup3\n    /* \"#utility.yul\":5518:5536   */\n  add\n    /* \"#utility.yul\":5510:5536   */\n  swap1\n  pop\n    /* \"#utility.yul\":5582:5591   */\n  dup2\n    /* \"#utility.yul\":5576:5580   */\n  dup2\n    /* \"#utility.yul\":5572:5592   */\n  sub\n    /* \"#utility.yul\":5568:5569   */\n  0x00\n    /* \"#utility.yul\":5557:5566   */\n  dup4\n    /* \"#utility.yul\":5553:5570   */\n  add\n    /* \"#utility.yul\":5546:5593   */\n  mstore\n    /* \"#utility.yul\":5610:5741   */\n  tag_122\n    /* \"#utility.yul\":5736:5740   */\n  dup2\n    /* \"#utility.yul\":5610:5741   */\n  tag_39\n  jump\t// in\ntag_122:\n    /* \"#utility.yul\":5602:5741   */\n  swap1\n  pop\n    /* \"#utility.yul\":5329:5748   */\n  swap2\n  swap1\n  pop\n  jump\t// out\n    /* \"#utility.yul\":5754:5853   */\ntag_40:\n    /* \"#utility.yul\":5806:5812   */\n  0x00\n    /* \"#utility.yul\":5840:5845   */\n  dup2\n    /* \"#utility.yul\":5834:5846   */\n  mload\n    /* \"#utility.yul\":5824:5846   */\n  swap1\n  pop\n    /* \"#utility.yul\":5754:5853   */\n  swap2\n  swap1\n  pop\n  jump\t// out\n    /* \"#utility.yul\":5859:6039   */\ntag_41:\n    /* \"#utility.yul\":5907:5984   */\n  0x4e487b7100000000000000000000000000000000000000000000000000000000\n    /* \"#utility.yul\":5904:5905   */\n  0x00\n    /* \"#utility.yul\":5897:5985   */\n  mstore\n    /* \"#utility.yul\":6004:6008   */\n  0x22\n    /* \"#utility.yul\":6001:6002   */\n  0x04\n    /* \"#utility.yul\":5994:6009   */\n  mstore\n    /* \"#utility.yul\":6028:6032   */\n  0x24\n    /* \"#utility.yul\":6025:6026   */\n  0x00\n    /* \"#utility.yul\":6018:6033   */\n  revert\n    /* \"#utility.yul\":6045:6365   */\ntag_42:\n    /* \"#utility.yul\":6089:6095   */\n  0x00\n    /* \"#utility.yul\":6126:6127   */\n  0x02\n    /* \"#utility.yul\":6120:6124   */\n  dup3\n    /* \"#utility.yul\":6116:6128   */\n  div\n    /* \"#utility.yul\":6106:6128   */\n  swap1\n  pop\n    /* \"#utility.yul\":6173:6174   */\n  0x01\n    /* \"#utility.yul\":6167:6171   */\n  dup3\n    /* \"#utility.yul\":6163:6175   */\n  and\n    /* \"#utility.yul\":6194:6212   */\n  dup1\n    /* \"#utility.yul\":6184:6265   */\n  tag_126\n  jumpi\n    /* \"#utility.yul\":6250:6254   */\n  0x7f\n    /* \"#utility.yul\":6242:6248   */\n  dup3\n    /* \"#utility.yul\":6238:6255   */\n  and\n    /* \"#utility.yul\":6228:6255   */\n  swap2\n  pop\n    /* \"#utility.yul\":6184:6265   */\ntag_126:\n    /* \"#utility.yul\":6312:6314   */\n  0x20\n    /* \"#utility.yul\":6304:6310   */\n  dup3\n    /* \"#utility.yul\":6301:6315   */\n  lt\n    /* \"#utility.yul\":6281:6299   */\n  dup2\n    /* \"#utility.yul\":6278:6316   */\n  sub\n    /* \"#utility.yul\":6275:6359   */\n  tag_127\n  jumpi\n    /* \"#utility.yul\":6331:6349   */\n  tag_128\n  tag_41\n  jump\t// in\ntag_128:\n    /* \"#utility.yul\":6275:6359   */\ntag_127:\n    /* \"#utility.yul\":6096:6365   */\n  pop\n    /* \"#utility.yul\":6045:6365   */\n  swap2\n  swap1\n  pop\n  jump\t// out\n    /* \"#utility.yul\":6371:6512   */\ntag_43:\n    /* \"#utility.yul\":6420:6424   */\n  0x00\n    /* \"#utility.yul\":6443:6446   */\n  dup2\n    /* \"#utility.yul\":6435:6446   */\n  swap1\n  pop\n    /* \"#utility.yul\":6466:6469   */\n  dup2\n    /* \"#utility.yul\":6463:6464   */\n  0x00\n    /* \"#utility.yul\":6456:6470   */\n  mstore\n    /* \"#utility.yul\":6500:6504   */\n  0x20\n    /* \"#utility.yul\":6497:6498   */\n  0x00\n    /* \"#utility.yul\":6487:6505   */\n  keccak256\n    /* \"#utility.yul\":6479:6505   */\n  swap1\n  pop\n    /* \"#utility.yul\":6371:6512   */\n  swap2\n  swap1\n  pop\n  jump\t// out\n    /* \"#utility.yul\":6518:6611   */\ntag_44:\n    /* \"#utility.yul\":6555:6561   */\n  0x00\n    /* \"#utility.yul\":6602:6604   */\n  0x20\n    /* \"#utility.yul\":6597:6599   */\n  0x1f\n    /* \"#utility.yul\":6590:6595   */\n  dup4\n    /* \"#utility.yul\":6586:6600   */\n  add\n    /* \"#utility.yul\":6582:6605   */\n  div\n    /* \"#utility.yul\":6572:6605   */\n  swap1\n  pop\n    /* \"#utility.yul\":6518:6611   */\n  swap2\n  swap1\n  pop\n  jump\t// out\n    /* \"#utility.yul\":6617:6724   */\ntag_45:\n    /* \"#utility.yul\":6661:6669   */\n  0x00\n    /* \"#utility.yul\":6711:6716   */\n  dup3\n    /* \"#utility.yul\":6705:6709   */\n  dup3\n    /* \"#utility.yul\":6701:6717   */\n  shl\n    /* \"#utility.yul\":6680:6717   */\n  swap1\n  pop\n    /* \"#utility.yul\":6617:6724   */\n  swap3\n  swap2\n  pop\n  pop\n  jump\t// out\n    /* \"#utility.yul\":6730:7123   */\ntag_46:\n    /* \"#utility.yul\":6799:6805   */\n  0x00\n    /* \"#utility.yul\":6849:6850   */\n  0x08\n    /* \"#utility.yul\":6837:6847   */\n  dup4\n    /* \"#utility.yul\":6833:6851   */\n  mul\n    /* \"#utility.yul\":6872:6969   */\n  tag_133\n    /* \"#utility.yul\":6902:6968   */\n  0xffffffffffffffffffffffffffffffffffffffffffffffffffffffffffffffff\n    /* \"#utility.yul\":6891:6900   */\n  dup3\n    /* \"#utility.yul\":6872:6969   */\n  tag_45\n  jump\t// in\ntag_133:\n    /* \"#utility.yul\":6990:7029   */\n  tag_134\n    /* \"#utility.yul\":7020:7028   */\n  dup7\n    /* \"#utility.yul\":7009:7018   */\n  dup4\n    /* \"#utility.yul\":6990:7029   */\n  tag_45\n  jump\t// in\ntag_134:\n    /* \"#utility.yul\":6978:7029   */\n  swap6\n  pop\n    /* \"#utility.yul\":7062:7066   */\n  dup1\n    /* \"#utility.yul\":7058:7067   */\n  not\n    /* \"#utility.yul\":7051:7056   */\n  dup5\n    /* \"#utility.yul\":7047:7068   */\n  and\n    /* \"#utility.yul\":7038:7068   */\n  swap4\n  pop\n    /* \"#utility.yul\":7111:7115   */\n  dup1\n    /* \"#utility.yul\":7101:7109   */\n  dup7\n    /* \"#utility.yul\":7097:7116   */\n  and\n    /* \"#utility.yul\":7090:7095   */\n  dup5\n    /* \"#utility.yul\":7087:7117   */\n  or\n    /* \"#utility.yul\":7077:7117   */\n  swap3\n  pop\n    /* \"#utility.yul\":6806:7123   */\n  pop\n  pop\n    /* \"#utility.yul\":6730:7123   */\n  swap4\n  swap3\n  pop\n  pop\n  pop\n  jump\t// out\n    /* \"#utility.yul\":7129:7189   */\ntag_47:\n    /* \"#utility.yul\":7157:7160   */\n  0x00\n    /* \"#utility.yul\":7178:7183   */\n  dup2\n    /* \"#utility.yul\":7171:7183   */\n  swap1\n  pop\n    /* \"#utility.yul\":7129:7189   */\n  swap2\n  swap1\n  pop\n  jump\t// out\n    /* \"#utility.yul\":7195:7337   */\ntag_48:\n    /* \"#utility.yul\":7245:7254   */\n  0x00\n    /* \"#utility.yul\":7278:7331   */\n  tag_137\n    /* \"#utility.yul\":7296:7330   */\n  tag_138\n    /* \"#utility.yul\":7305:7329   */\n  tag_139\n    /* \"#utility.yul\":7323:7328   */\n  dup5\n    /* \"#utility.yul\":7305:7329   */\n  tag_30\n  jump\t// in\ntag_139:\n    /* \"#utility.yul\":7296:7330   */\n  tag_47\n  jump\t// in\ntag_138:\n    /* \"#utility.yul\":7278:7331   */\n  tag_30\n  jump\t// in\ntag_137:\n    /* \"#utility.yul\":7265:7331   */\n  swap1\n  pop\n    /* \"#utility.yul\":7195:7337   */\n  swap2\n  swap1\n  pop\n  jump\t// out\n    /* \"#utility.yul\":7343:7418   */\ntag_49:\n    /* \"#utility.yul\":7386:7389   */\n  0x00\n    /* \"#utility.yul\":7407:7412   */\n  dup2\n    /* \"#utility.yul\":7400:7412   */\n  swap1\n  pop\n    /* \"#utility.yul\":7343:7418   */\n  swap2\n  swap1\n  pop\n  jump\t// out\n    /* \"#utility.yul\":7424:7693   */\ntag_50:\n    /* \"#utility.yul\":7534:7573   */\n  tag_142\n    /* \"#utility.yul\":7565:7572   */\n  dup4\n    /* \"#utility.yul\":7534:7573   */\n  tag_48\n  jump\t// in\ntag_142:\n    /* \"#utility.yul\":7595:7686   */\n  tag_143\n    /* \"#utility.yul\":7644:7685   */\n  tag_144\n    /* \"#utility.yul\":7668:7684   */\n  dup3\n    /* \"#utility.yul\":7644:7685   */\n  tag_49\n  jump\t// in\ntag_144:\n    /* \"#utility.yul\":7636:7642   */\n  dup5\n    /* \"#utility.yul\":7629:7633   */\n  dup5\n    /* \"#utility.yul\":7623:7634   */\n  sload\n    /* \"#utility.yul\":7595:7686   */\n  tag_46\n  jump\t// in\ntag_143:\n    /* \"#utility.yul\":7589:7593   */\n  dup3\n    /* \"#utility.yul\":7582:7687   */\n  sstore\n    /* \"#utility.yul\":7500:7693   */\n  pop\n    /* \"#utility.yul\":7424:7693   */\n  pop\n  pop\n  pop\n  jump\t// out\n    /* \"#utility.yul\":7699:7772   */\ntag_51:\n    /* \"#utility.yul\":7744:7747   */\n  0x00\n    /* \"#utility.yul\":7765:7766   */\n  0x00\n    /* \"#utility.yul\":7758:7766   */\n  swap1\n  pop\n    /* \"#utility.yul\":7699:7772   */\n  swap1\n  jump\t// out\n    /* \"#utility.yul\":7778:7967   */\ntag_52:\n    /* \"#utility.yul\":7855:7887   */\n  tag_147\n  tag_51\n  jump\t// in\ntag_147:\n    /* \"#utility.yul\":7896:7961   */\n  tag_148\n    /* \"#utility.yul\":7954:7960   */\n  dup2\n    /* \"#utility.yul\":7946:7952   */\n  dup5\n    /* \"#utility.yul\":7940:7944   */\n  dup5\n    /* \"#utility.yul\":7896:7961   */\n  tag_50\n  jump\t// in\ntag_148:\n    /* \"#utility.yul\":7831:7967   */\n  pop\n    /* \"#utility.yul\":7778:7967   */\n  pop\n  pop\n  jump\t// out\n    /* \"#utility.yul\":7973:8159   */\ntag_53:\n    /* \"#utility.yul\":8033:8153   */\ntag_150:\n    /* \"#utility.yul\":8050:8053   */\n  dup2\n    /* \"#utility.yul\":8043:8048   */\n  dup2\n    /* \"#utility.yul\":8040:8054   */\n  lt\n    /* \"#utility.yul\":8033:8153   */\n  iszero\n  tag_152\n  jumpi\n    /* \"#utility.yul\":8104:8143   */\n  tag_153\n    /* \"#utility.yul\":8141:8142   */\n  0x00\n    /* \"#utility.yul\":8134:8139   */\n  dup3\n    /* \"#utility.yul\":8104:8143   */\n  tag_52\n  jump\t// in\ntag_153:\n    /* \"#utility.yul\":8077:8078   */\n  0x01\n    /* \"#utility.yul\":8070:8075   */\n  dup2\n    /* \"#utility.yul\":8066:8079   */\n  add\n    /* \"#utility.yul\":8057:8079   */\n  swap1\n  pop\n    /* \"#utility.yul\":8033:8153   */\n  jump(tag_150)\ntag_152:\n    /* \"#utility.yul\":7973:8159   */\n  pop\n  pop\n  jump\t// out\n    /* \"#utility.yul\":8165:8708   */\ntag_54:\n    /* \"#utility.yul\":8266:8268   */\n  0x1f\n    /* \"#utility.yul\":8261:8264   */\n  dup3\n    /* \"#utility.yul\":8258:8269   */\n  gt\n    /* \"#utility.yul\":8255:8701   */\n  iszero\n  tag_155\n  jumpi\n    /* \"#utility.yul\":8300:8338   */\n  tag_156\n    /* \"#utility.yul\":8332:8337   */\n  dup2\n    /* \"#utility.yul\":8300:8338   */\n  tag_43\n  jump\t// in\ntag_156:\n    /* \"#utility.yul\":8384:8413   */\n  tag_157\n    /* \"#utility.yul\":8402:8412   */\n  dup5\n    /* \"#utility.yul\":8384:8413   */\n  tag_44\n  jump\t// in\ntag_157:\n    /* \"#utility.yul\":8374:8382   */\n  dup2\n    /* \"#utility.yul\":8370:8414   */\n  add\n    /* \"#utility.yul\":8567:8569   */\n  0x20\n    /* \"#utility.yul\":8555:8565   */\n  dup6\n    /* \"#utility.yul\":8552:8570   */\n  lt\n    /* \"#utility.yul\":8549:8598   */\n  iszero\n  tag_158\n  jumpi\n    /* \"#utility.yul\":8588:8596   */\n  dup2\n    /* \"#utility.yul\":8573:8596   */\n  swap1\n  pop\n    /* \"#utility.yul\":8549:8598   */\ntag_158:\n    /* \"#utility.yul\":8611:8691   */\n  tag_159\n    /* \"#utility.yul\":8667:8689   */\n  tag_160\n    /* \"#utility.yul\":8685:8688   */\n  dup6\n    /* \"#utility.yul\":8667:8689   */\n  tag_44\n  jump\t// in\ntag_160:\n    /* \"#utility.yul\":8657:8665   */\n  dup4\n    /* \"#utility.yul\":8653:8690   */\n  add\n    /* \"#utility.yul\":8640:8651   */\n  dup3\n    /* \"#utility.yul\":8611:8691   */\n  tag_53\n  jump\t// in\ntag_159:\n    /* \"#utility.yul\":8270:8701   */\n  pop\n  pop\n    /* \"#utility.yul\":8255:8701   */\ntag_155:\n    /* \"#utility.yul\":8165:8708   */\n  pop\n  pop\n  pop\n  jump\t// out\n    /* \"#utility.yul\":8714:8831   */\ntag_55:\n    /* \"#utility.yul\":8768:8776   */\n  0x00\n    /* \"#utility.yul\":8818:8823   */\n  dup3\n    /* \"#utility.yul\":8812:8816   */\n  dup3\n    /* \"#utility.yul\":8808:8824   */\n  shr\n    /* \"#utility.yul\":8787:8824   */\n  swap1\n  pop\n    /* \"#utility.yul\":8714:8831   */\n  swap3\n  swap2\n  pop\n  pop\n  jump\t// out\n    /* \"#utility.yul\":8837:9006   */\ntag_56:\n    /* \"#utility.yul\":8881:8887   */\n  0x00\n    /* \"#utility.yul\":8914:8965   */\n  tag_163\n    /* \"#utility.yul\":8962:8963   */\n  0x00\n    /* \"#utility.yul\":8958:8964   */\n  not\n    /* \"#utility.yul\":8950:8955   */\n  dup5\n    /* \"#utility.yul\":8947:8948   */\n  0x08\n    /* \"#utility.yul\":8943:8956   */\n  mul\n    /* \"#utility.yul\":8914:8965   */\n  tag_55\n  jump\t// in\ntag_163:\n    /* \"#utility.yul\":8910:8966   */\n  not\n    /* \"#utility.yul\":8995:8999   */\n  dup1\n    /* \"#utility.yul\":8989:8993   */\n  dup4\n    /* \"#utility.yul\":8985:9000   */\n  and\n    /* \"#utility.yul\":8975:9000   */\n  swap2\n  pop\n    /* \"#utility.yul\":8888:9006   */\n  pop\n    /* \"#utility.yul\":8837:9006   */\n  swap3\n  swap2\n  pop\n  pop\n  jump\t// out\n    /* \"#utility.yul\":9011:9306   */\ntag_57:\n    /* \"#utility.yul\":9087:9091   */\n  0x00\n    /* \"#utility.yul\":9233:9262   */\n  tag_165\n    /* \"#utility.yul\":9258:9261   */\n  dup4\n    /* \"#utility.yul\":9252:9256   */\n  dup4\n    /* \"#utility.yul\":9233:9262   */\n  tag_56\n  jump\t// in\ntag_165:\n    /* \"#utility.yul\":9225:9262   */\n  swap2\n  pop\n    /* \"#utility.yul\":9295:9298   */\n  dup3\n    /* \"#utility.yul\":9292:9293   */\n  0x02\n    /* \"#utility.yul\":9288:9299   */\n  mul\n    /* \"#utility.yul\":9282:9286   */\n  dup3\n    /* \"#utility.yul\":9279:9300   */\n  or\n    /* \"#utility.yul\":9271:9300   */\n  swap1\n  pop\n    /* \"#utility.yul\":9011:9306   */\n  swap3\n  swap2\n  pop\n  pop\n  jump\t// out\n    /* \"#utility.yul\":9311:10706   */\ntag_10:\n    /* \"#utility.yul\":9428:9465   */\n  tag_167\n    /* \"#utility.yul\":9461:9464   */\n  dup3\n    /* \"#utility.yul\":9428:9465   */\n  tag_40\n  jump\t// in\ntag_167:\n    /* \"#utility.yul\":9530:9548   */\n  0xffffffffffffffff\n    /* \"#utility.yul\":9522:9528   */\n  dup2\n    /* \"#utility.yul\":9519:9549   */\n  gt\n    /* \"#utility.yul\":9516:9572   */\n  iszero\n  tag_168\n  jumpi\n    /* \"#utility.yul\":9552:9570   */\n  tag_169\n  tag_23\n  jump\t// in\ntag_169:\n    /* \"#utility.yul\":9516:9572   */\ntag_168:\n    /* \"#utility.yul\":9596:9634   */\n  tag_170\n    /* \"#utility.yul\":9628:9632   */\n  dup3\n    /* \"#utility.yul\":9622:9633   */\n  sload\n    /* \"#utility.yul\":9596:9634   */\n  tag_42\n  jump\t// in\ntag_170:\n    /* \"#utility.yul\":9681:9748   */\n  tag_171\n    /* \"#utility.yul\":9741:9747   */\n  dup3\n    /* \"#utility.yul\":9733:9739   */\n  dup3\n    /* \"#utility.yul\":9727:9731   */\n  dup6\n    /* \"#utility.yul\":9681:9748   */\n  tag_54\n  jump\t// in\ntag_171:\n    /* \"#utility.yul\":9775:9776   */\n  0x00\n    /* \"#utility.yul\":9799:9803   */\n  0x20\n    /* \"#utility.yul\":9786:9803   */\n  swap1\n  pop\n    /* \"#utility.yul\":9831:9833   */\n  0x1f\n    /* \"#utility.yul\":9823:9829   */\n  dup4\n    /* \"#utility.yul\":9820:9834   */\n  gt\n    /* \"#utility.yul\":9848:9849   */\n  0x01\n    /* \"#utility.yul\":9843:10461   */\n  dup2\n  eq\n  tag_173\n  jumpi\n    /* \"#utility.yul\":10505:10506   */\n  0x00\n    /* \"#utility.yul\":10522:10528   */\n  dup5\n    /* \"#utility.yul\":10519:10596   */\n  iszero\n  tag_174\n  jumpi\n    /* \"#utility.yul\":10571:10580   */\n  dup3\n    /* \"#utility.yul\":10566:10569   */\n  dup8\n    /* \"#utility.yul\":10562:10581   */\n  add\n    /* \"#utility.yul\":10556:10582   */\n  mload\n    /* \"#utility.yul\":10547:10582   */\n  swap1\n  pop\n    /* \"#utility.yul\":10519:10596   */\ntag_174:\n    /* \"#utility.yul\":10622:10689   */\n  tag_175\n    /* \"#utility.yul\":10682:10688   */\n  dup6\n    /* \"#utility.yul\":10675:10680   */\n  dup3\n    /* \"#utility.yul\":10622:10689   */\n  tag_57\n  jump\t// in\ntag_175:\n    /* \"#utility.yul\":10616:10620   */\n  dup7\n    /* \"#utility.yul\":10609:10690   */\n  sstore\n    /* \"#utility.yul\":10478:10700   */\n  pop\n    /* \"#utility.yul\":9813:10700   */\n  jump(tag_172)\n    /* \"#utility.yul\":9843:10461   */\ntag_173:\n    /* \"#utility.yul\":9895:9899   */\n  0x1f\n    /* \"#utility.yul\":9891:9900   */\n  not\n    /* \"#utility.yul\":9883:9889   */\n  dup5\n    /* \"#utility.yul\":9879:9901   */\n  and\n    /* \"#utility.yul\":9929:9966   */\n  tag_176\n    /* \"#utility.yul\":9961:9965   */\n  dup7\n    /* \"#utility.yul\":9929:9966   */\n  tag_43\n  jump\t// in\ntag_176:\n    /* \"#utility.yul\":9988:9989   */\n  0x00\n    /* \"#utility.yul\":10002:10210   */\ntag_177:\n    /* \"#utility.yul\":10016:10023   */\n  dup3\n    /* \"#utility.yul\":10013:10014   */\n  dup2\n    /* \"#utility.yul\":10010:10024   */\n  lt\n    /* \"#utility.yul\":10002:10210   */\n  iszero\n  tag_179\n  jumpi\n    /* \"#utility.yul\":10095:10104   */\n  dup5\n    /* \"#utility.yul\":10090:10093   */\n  dup10\n    /* \"#utility.yul\":10086:10105   */\n  add\n    /* \"#utility.yul\":10080:10106   */\n  mload\n    /* \"#utility.yul\":10072:10078   */\n  dup3\n    /* \"#utility.yul\":10065:10107   */\n  sstore\n    /* \"#utility.yul\":10146:10147   */\n  0x01\n    /* \"#utility.yul\":10138:10144   */\n  dup3\n    /* \"#utility.yul\":10134:10148   */\n  add\n    /* \"#utility.yul\":10124:10148   */\n  swap2\n  pop\n    /* \"#utility.yul\":10193:10195   */\n  0x20\n    /* \"#utility.yul\":10182:10191   */\n  dup6\n    /* \"#utility.yul\":10178:10196   */\n  add\n    /* \"#utility.yul\":10165:10196   */\n  swap5\n  pop\n    /* \"#utility.yul\":10039:10043   */\n  0x20\n    /* \"#utility.yul\":10036:10037   */\n  dup2\n    /* \"#utility.yul\":10032:10044   */\n  add\n    /* \"#utility.yul\":10027:10044   */\n  swap1\n  pop\n    /* \"#utility.yul\":10002:10210   */\n  jump(tag_177)\ntag_179:\n    /* \"#utility.yul\":10238:10244   */\n  dup7\n    /* \"#utility.yul\":10229:10236   */\n  dup4\n    /* \"#utility.yul\":10226:10245   */\n  lt\n    /* \"#utility.yul\":10223:10402   */\n  iszero\n  tag_180\n  jumpi\n    /* \"#utility.yul\":10296:10305   */\n  dup5\n    /* \"#utility.yul\":10291:10294   */\n  dup10\n    /* \"#utility.yul\":10287:10306   */\n  add\n    /* \"#utility.yul\":10281:10307   */\n  mload\n    /* \"#utility.yul\":10339:10387   */\n  tag_181\n    /* \"#utility.yul\":10381:10385   */\n  0x1f\n    /* \"#utility.yul\":10373:10379   */\n  dup10\n    /* \"#utility.yul\":10369:10386   */\n  and\n    /* \"#utility.yul\":10358:10367   */\n  dup3\n    /* \"#utility.yul\":10339:10387   */\n  tag_56\n  jump\t// in\ntag_181:\n    /* \"#utility.yul\":10331:10337   */\n  dup4\n    /* \"#utility.yul\":10324:10388   */\n  sstore\n    /* \"#utility.yul\":10246:10402   */\n  pop\n    /* \"#utility.yul\":10223:10402   */\ntag_180:\n    /* \"#utility.yul\":10448:10449   */\n  0x01\n    /* \"#utility.yul\":10444:10445   */\n  0x02\n    /* \"#utility.yul\":10436:10442   */\n  dup9\n    /* \"#utility.yul\":10432:10446   */\n  mul\n    /* \"#utility.yul\":10428:10450   */\n  add\n    /* \"#utility.yul\":10422:10426   */\n  dup9\n    /* \"#utility.yul\":10415:10451   */\n  sstore\n    /* \"#utility.yul\":9850:10461   */\n  pop\n  pop\n  pop\n    /* \"#utility.yul\":9813:10700   */\ntag_172:\n  pop\n    /* \"#utility.yul\":9403:10706   */\n  pop\n  pop\n  pop\n    /* \"#utility.yul\":9311:10706   */\n  pop\n  pop\n  jump\t// out\n    /* \"#utility.yul\":10712:10892   */\ntag_58:\n    /* \"#utility.yul\":10760:10837   */\n  0x4e487b7100000000000000000000000000000000000000000000000000000000\n    /* \"#utility.yul\":10757:10758   */\n  0x00\n    /* \"#utility.yul\":10750:10838   */\n  mstore\n    /* \"#utility.yul\":10857:10861   */\n  0x12\n    /* \"#utility.yul\":10854:10855   */\n  0x04\n    /* \"#utility.yul\":10847:10862   */\n  mstore\n    /* \"#utility.yul\":10881:10885   */\n  0x24\n    /* \"#utility.yul\":10878:10879   */\n  0x00\n    /* \"#utility.yul\":10871:10886   */\n  revert\n    /* \"#utility.yul\":11084:11269   */\ntag_13:\n    /* \"#utility.yul\":11124:11125   */\n  0x00\n    /* \"#utility.yul\":11141:11161   */\n  tag_185\n    /* \"#utility.yul\":11159:11160   */\n  dup3\n    /* \"#utility.yul\":11141:11161   */\n  tag_30\n  jump\t// in\ntag_185:\n    /* \"#utility.yul\":11136:11161   */\n  swap2\n  pop\n    /* \"#utility.yul\":11175:11195   */\n  tag_186\n    /* \"#utility.yul\":11193:11194   */\n  dup4\n    /* \"#utility.yul\":11175:11195   */\n  tag_30\n  jump\t// in\ntag_186:\n    /* \"#utility.yul\":11170:11195   */\n  swap3\n  pop\n    /* \"#utility.yul\":11214:11215   */\n  dup3\n    /* \"#utility.yul\":11204:11239   */\n  tag_187\n  jumpi\n    /* \"#utility.yul\":11219:11237   */\n  tag_188\n  tag_58\n  jump\t// in\ntag_188:\n    /* \"#utility.yul\":11204:11239   */\ntag_187:\n    /* \"#utility.yul\":11261:11262   */\n  dup3\n    /* \"#utility.yul\":11258:11259   */\n  dup3\n    /* \"#utility.yul\":11254:11263   */\n  div\n    /* \"#utility.yul\":11249:11263   */\n  swap1\n  pop\n    /* \"#utility.yul\":11084:11269   */\n  swap3\n  swap2\n  pop\n  pop\n  jump\t// out\n    /* \"#utility.yul\":11275:11393   */\ntag_60:\n    /* \"#utility.yul\":11362:11386   */\n  tag_190\n    /* \"#utility.yul\":11380:11385   */\n  dup2\n    /* \"#utility.yul\":11362:11386   */\n  tag_30\n  jump\t// in\ntag_190:\n    /* \"#utility.yul\":11357:11360   */\n  dup3\n    /* \"#utility.yul\":11350:11387   */\n  mstore\n    /* \"#utility.yul\":11275:11393   */\n  pop\n  pop\n  jump\t// out\n    /* \"#utility.yul\":11399:11621   */\ntag_15:\n    /* \"#utility.yul\":11492:11496   */\n  0x00\n    /* \"#utility.yul\":11530:11532   */\n  0x20\n    /* \"#utility.yul\":11519:11528   */\n  dup3\n    /* \"#utility.yul\":11515:11533   */\n  add\n    /* \"#utility.yul\":11507:11533   */\n  swap1\n  pop\n    /* \"#utility.yul\":11543:11614   */\n  tag_192\n    /* \"#utility.yul\":11611:11612   */\n  0x00\n    /* \"#utility.yul\":11600:11609   */\n  dup4\n    /* \"#utility.yul\":11596:11613   */\n  add\n    /* \"#utility.yul\":11587:11593   */\n  dup5\n    /* \"#utility.yul\":11543:11614   */\n  tag_60\n  jump\t// in\ntag_192:\n    /* \"#utility.yul\":11399:11621   */\n  swap3\n  swap2\n  pop\n  pop\n  jump\t// out\n    /* \"contracts/Cyberorcs.sol\":116:4092  contract Cyberorcs is ICyberorcs {... */\ntag_16:\n  mload(0x80)\n  codecopy(0x00, dataOffset(sub_0), dataSize(sub_0))\n  0x00\n  assignImmutable(\"0x789bcdf275fa270780a52ae3b79bb1ce0fda7e0aaad87b57b74bb99ac290714a\")\n  return(0x00, dataSize(sub_0))\nstop\n\nsub_0: assembly {\n        /* \"contracts/Cyberorcs.sol\":116:4092  contract Cyberorcs is ICyberorcs {... */\n      mstore(0x40, 0x80)\n      callvalue\n      dup1\n      iszero\n      tag_1\n      jumpi\n      revert(0x00, 0x00)\n    tag_1:\n      pop\n      jumpi(tag_2, lt(calldatasize, 0x04))\n      shr(0xe0, calldataload(0x00))\n      dup1\n      0x40c10f19\n      gt\n      tag_17\n      jumpi\n      dup1\n      0x7898cd18\n      gt\n      tag_18\n      jumpi\n      dup1\n      0x7898cd18\n      eq\n      tag_13\n      jumpi\n      dup1\n      0x95d89b41\n      eq\n      tag_14\n      jumpi\n      dup1\n      0xa9059cbb\n      eq\n      tag_15\n      jumpi\n      dup1\n      0xdd62ed3e\n      eq\n      tag_16\n      jumpi\n      jump(tag_2)\n    tag_18:\n      dup1\n      0x40c10f19\n      eq\n      tag_10\n      jumpi\n      dup1\n      0x42966c68\n      eq\n      tag_11\n      jumpi\n      dup1\n      0x70a08231\n      eq\n      tag_12\n      jumpi\n      jump(tag_2)\n    tag_17:\n      dup1\n      0x18160ddd\n      gt\n      tag_19\n      jumpi\n      dup1\n      0x18160ddd\n      eq\n      tag_6\n      jumpi\n      dup1\n      0x23b872dd\n      eq\n      tag_7\n      jumpi\n      dup1\n      0x313ce567\n      eq\n      tag_8\n      jumpi\n      dup1\n      0x32cb6b0c\n      eq\n      tag_9\n      jumpi\n      jump(tag_2)\n    tag_19:\n      dup1\n      0x06fdde03\n      eq\n      tag_3\n      jumpi\n      dup1\n      0x07546172\n      eq\n      tag_4\n      jumpi\n      dup1\n      0x095ea7b3\n      eq\n      tag_5\n      jumpi\n    tag_2:\n      revert(0x00, 0x00)\n        /* \"contracts/Cyberorcs.sol\":1265:1347  function name() public view returns (string memory) {... */\n    tag_3:\n      tag_20\n      tag_21\n      jump\t// in\n    tag_20:\n      mload(0x40)\n      tag_22\n      swap2\n      swap1\n      tag_23\n      jump\t// in\n    tag_22:\n      mload(0x40)\n      dup1\n      swap2\n      sub\n      swap1\n      return\n        /* \"contracts/Cyberorcs.sol\":368:389  address public minter */\n    tag_4:\n      tag_24\n      tag_25\n      jump\t// in\n    tag_24:\n      mload(0x40)\n      tag_26\n      swap2\n      swap1\n      tag_27\n      jump\t// in\n    tag_26:\n      mload(0x40)\n      dup1\n      swap2\n      sub\n      swap1\n      return\n        /* \"contracts/Cyberorcs.sol\":2631:2906  function approve(address spender, uint256 value) public returns (bool) {... */\n    tag_5:\n      tag_28\n      0x04\n      dup1\n      calldatasize\n      sub\n      dup2\n      add\n      swap1\n      tag_29\n      swap2\n      swap1\n      tag_30\n      jump\t// in\n    tag_29:\n      tag_31\n      jump\t// in\n    tag_28:\n      mload(0x40)\n      tag_32\n      swap2\n      swap1\n      tag_33\n      jump\t// in\n    tag_32:\n      mload(0x40)\n      dup1\n      swap2\n      sub\n      swap1\n      return\n        /* \"contracts/Cyberorcs.sol\":335:361  uint256 public totalSupply */\n    tag_6:\n      tag_34\n      tag_35\n      jump\t// in\n    tag_34:\n      mload(0x40)\n      tag_36\n      swap2\n      swap1\n      tag_37\n      jump\t// in\n    tag_36:\n      mload(0x40)\n      dup1\n      swap2\n      sub\n      swap1\n      return\n        /* \"contracts/Cyberorcs.sol\":2219:2623  function transferFrom(address from, address to, uint256 value) public returns (bool) {... */\n    tag_7:\n      tag_38\n      0x04\n      dup1\n      calldatasize\n      sub\n      dup2\n      add\n      swap1\n      tag_39\n      swap2\n      swap1\n      tag_40\n      jump\t// in\n    tag_39:\n      tag_41\n      jump\t// in\n    tag_38:\n      mload(0x40)\n      tag_42\n      swap2\n      swap1\n      tag_33\n      jump\t// in\n    tag_42:\n      mload(0x40)\n      dup1\n      swap2\n      sub\n      swap1\n      return\n        /* \"contracts/Cyberorcs.sol\":1449:1531  function decimals() public pure returns (uint8) {... */\n    tag_8:\n      tag_43\n      tag_44\n      jump\t// in\n    tag_43:\n      mload(0x40)\n      tag_45\n      swap2\n      swap1\n      tag_46\n      jump\t// in\n    tag_45:\n      mload(0x40)\n      dup1\n      swap2\n      sub\n      swap1\n      return\n        /* \"contracts/Cyberorcs.sol\":293:328  uint256 public immutable MAX_SUPPLY */\n    tag_9:\n      tag_47\n      tag_48\n      jump\t// in\n    tag_47:\n      mload(0x40)\n      tag_49\n      swap2\n      swap1\n      tag_37\n      jump\t// in\n    tag_49:\n      mload(0x40)\n      dup1\n      swap2\n      sub\n      swap1\n      return\n        /* \"contracts/Cyberorcs.sol\":2972:3397  function mint(address to, uint256 amount) public returns (bool) {... */\n    tag_10:\n      tag_50\n      0x04\n      dup1\n      calldatasize\n      sub\n      dup2\n      add\n      swap1\n      tag_51\n      swap2\n      swap1\n      tag_30\n      jump\t// in\n    tag_51:\n      tag_52\n      jump\t// in\n    tag_50:\n      mload(0x40)\n      tag_53\n      swap2\n      swap1\n      tag_33\n      jump\t// in\n    tag_53:\n      mload(0x40)\n      dup1\n      swap2\n      sub\n      swap1\n      return\n        /* \"contracts/Cyberorcs.sol\":3405:3698  function burn(uint256 amount) public returns (bool) {... */\n    tag_11:\n      tag_54\n      0x04\n      dup1\n      calldatasize\n      sub\n      dup2\n      add\n      swap1\n      tag_55\n      swap2\n      swap1\n      tag_56\n      jump\t// in\n    tag_55:\n      tag_57\n      jump\t// in\n    tag_54:\n      mload(0x40)\n      tag_58\n      swap2\n      swap1\n      tag_33\n      jump\t// in\n    tag_58:\n      mload(0x40)\n      dup1\n      swap2\n      sub\n      swap1\n      return\n        /* \"contracts/Cyberorcs.sol\":1702:1807  function balanceOf(address owner) public view returns (uint256) {... */\n    tag_12:\n      tag_59\n      0x04\n      dup1\n      calldatasize\n      sub\n      dup2\n      add\n      swap1\n      tag_60\n      swap2\n      swap1\n      tag_61\n      jump\t// in\n    tag_60:\n      tag_62\n      jump\t// in\n    tag_59:\n      mload(0x40)\n      tag_63\n      swap2\n      swap1\n      tag_37\n      jump\t// in\n    tag_63:\n      mload(0x40)\n      dup1\n      swap2\n      sub\n      swap1\n      return\n        /* \"contracts/Cyberorcs.sol\":1539:1633  function totalSupplyView() public view returns (uint256) {... */\n    tag_13:\n      tag_64\n      tag_65\n      jump\t// in\n    tag_64:\n      mload(0x40)\n      tag_66\n      swap2\n      swap1\n      tag_37\n      jump\t// in\n    tag_66:\n      mload(0x40)\n      dup1\n      swap2\n      sub\n      swap1\n      return\n        /* \"contracts/Cyberorcs.sol\":1355:1441  function symbol() public view returns (string memory) {... */\n    tag_14:\n      tag_67\n      tag_68\n      jump\t// in\n    tag_67:\n      mload(0x40)\n      tag_69\n      swap2\n      swap1\n      tag_23\n      jump\t// in\n    tag_69:\n      mload(0x40)\n      dup1\n      swap2\n      sub\n      swap1\n      return\n        /* \"contracts/Cyberorcs.sol\":2017:2211  function transfer(address to, uint256 amount) public returns (bool) {... */\n    tag_15:\n      tag_70\n      0x04\n      dup1\n      calldatasize\n      sub\n      dup2\n      add\n      swap1\n      tag_71\n      swap2\n      swap1\n      tag_30\n      jump\t// in\n    tag_71:\n      tag_72\n      jump\t// in\n    tag_70:\n      mload(0x40)\n      tag_73\n      swap2\n      swap1\n      tag_33\n      jump\t// in\n    tag_73:\n      mload(0x40)\n      dup1\n      swap2\n      sub\n      swap1\n      return\n        /* \"contracts/Cyberorcs.sol\":1815:1948  function allowance(address owner, address spender) public view returns (uint256) {... */\n    tag_16:\n      tag_74\n      0x04\n      dup1\n      calldatasize\n      sub\n      dup2\n      add\n      swap1\n      tag_75\n      swap2\n      swap1\n      tag_76\n      jump\t// in\n    tag_75:\n      tag_77\n      jump\t// in\n    tag_74:\n      mload(0x40)\n      tag_78\n      swap2\n      swap1\n      tag_37\n      jump\t// in\n    tag_78:\n      mload(0x40)\n      dup1\n      swap2\n      sub\n      swap1\n      return\n        /* \"contracts/Cyberorcs.sol\":1265:1347  function name() public view returns (string memory) {... */\n    tag_21:\n        /* \"contracts/Cyberorcs.sol\":1302:1315  string memory */\n      0x60\n        /* \"contracts/Cyberorcs.sol\":1335:1339  NAME */\n      0x00\n        /* \"contracts/Cyberorcs.sol\":1328:1339  return NAME */\n      dup1\n      sload\n      tag_80\n      swap1\n      tag_81\n      jump\t// in\n    tag_80:\n      dup1\n      0x1f\n      add\n      0x20\n      dup1\n      swap2\n      div\n      mul\n      0x20\n      add\n      mload(0x40)\n      swap1\n      dup2\n      add\n      0x40\n      mstore\n      dup1\n      swap3\n      swap2\n      swap1\n      dup2\n      dup2\n      mstore\n      0x20\n      add\n      dup3\n      dup1\n      sload\n      tag_82\n      swap1\n      tag_81\n      jump\t// in\n    tag_82:\n      dup1\n      iszero\n      tag_83\n      jumpi\n      dup1\n      0x1f\n      lt\n      tag_84\n      jumpi\n      0x0100\n      dup1\n      dup4\n      sload\n      div\n      mul\n      dup4\n      mstore\n      swap2\n      0x20\n      add\n      swap2\n      jump(tag_83)\n    tag_84:\n      dup3\n      add\n      swap2\n      swap1\n      0x00\n      mstore\n      keccak256(0x00, 0x20)\n      swap1\n    tag_85:\n      dup2\n      sload\n      dup2\n      mstore\n      swap1\n      0x01\n      add\n      swap1\n      0x20\n      add\n      dup1\n      dup4\n      gt\n      tag_85\n      jumpi\n      dup3\n      swap1\n      sub\n      0x1f\n      and\n      dup3\n      add\n      swap2\n    tag_83:\n      pop\n      pop\n      pop\n      pop\n      pop\n      swap1\n      pop\n        /* \"contracts/Cyberorcs.sol\":1265:1347  function name() public view returns (string memory) {... */\n      swap1\n      jump\t// out\n        /* \"contracts/Cyberorcs.sol\":368:389  address public minter */\n    tag_25:\n      0x03\n      0x00\n      swap1\n      sload\n      swap1\n      0x0100\n      exp\n      swap1\n      div\n      0xffffffffffffffffffffffffffffffffffffffff\n      and\n      dup2\n      jump\t// out\n        /* \"contracts/Cyberorcs.sol\":2631:2906  function approve(address spender, uint256 value) public returns (bool) {... */\n    tag_31:\n        /* \"contracts/Cyberorcs.sol\":2696:2700  bool */\n      0x00\n        /* \"contracts/Cyberorcs.sol\":2740:2741  0 */\n      0x00\n        /* \"contracts/Cyberorcs.sol\":2721:2742  spender != address(0) */\n      0xffffffffffffffffffffffffffffffffffffffff\n      and\n        /* \"contracts/Cyberorcs.sol\":2721:2728  spender */\n      dup4\n        /* \"contracts/Cyberorcs.sol\":2721:2742  spender != address(0) */\n      0xffffffffffffffffffffffffffffffffffffffff\n      and\n      sub\n        /* \"contracts/Cyberorcs.sol\":2713:2770  require(spender != address(0), \"CyberOrcs: Zero Address\") */\n      tag_87\n      jumpi\n      mload(0x40)\n      0x08c379a000000000000000000000000000000000000000000000000000000000\n      dup2\n      mstore\n      0x04\n      add\n      tag_88\n      swap1\n      tag_89\n      jump\t// in\n    tag_88:\n      mload(0x40)\n      dup1\n      swap2\n      sub\n      swap1\n      revert\n    tag_87:\n        /* \"contracts/Cyberorcs.sol\":2815:2820  value */\n      dup2\n        /* \"contracts/Cyberorcs.sol\":2781:2791  _allowance */\n      0x05\n        /* \"contracts/Cyberorcs.sol\":2781:2803  _allowance[msg.sender] */\n      0x00\n        /* \"contracts/Cyberorcs.sol\":2792:2802  msg.sender */\n      caller\n        /* \"contracts/Cyberorcs.sol\":2781:2803  _allowance[msg.sender] */\n      0xffffffffffffffffffffffffffffffffffffffff\n      and\n      0xffffffffffffffffffffffffffffffffffffffff\n      and\n      dup2\n      mstore\n      0x20\n      add\n      swap1\n      dup2\n      mstore\n      0x20\n      add\n      0x00\n      keccak256\n        /* \"contracts/Cyberorcs.sol\":2781:2812  _allowance[msg.sender][spender] */\n      0x00\n        /* \"contracts/Cyberorcs.sol\":2804:2811  spender */\n      dup6\n        /* \"contracts/Cyberorcs.sol\":2781:2812  _allowance[msg.sender][spender] */\n      0xffffffffffffffffffffffffffffffffffffffff\n      and\n      0xffffffffffffffffffffffffffffffffffffffff\n      and\n      dup2\n      mstore\n      0x20\n      add\n      swap1\n      dup2\n      mstore\n      0x20\n      add\n      0x00\n      keccak256\n        /* \"contracts/Cyberorcs.sol\":2781:2820  _allowance[msg.sender][spender] = value */\n      dup2\n      swap1\n      sstore\n      pop\n        /* \"contracts/Cyberorcs.sol\":2859:2866  spender */\n      dup3\n        /* \"contracts/Cyberorcs.sol\":2838:2874  Approval(msg.sender, spender, value) */\n      0xffffffffffffffffffffffffffffffffffffffff\n      and\n        /* \"contracts/Cyberorcs.sol\":2847:2857  msg.sender */\n      caller\n        /* \"contracts/Cyberorcs.sol\":2838:2874  Approval(msg.sender, spender, value) */\n      0xffffffffffffffffffffffffffffffffffffffff\n      and\n      0x8c5be1e5ebec7d5bd14f71427d1e84f3dd0314c0f7b2291e5b200ac8c7c3b925\n        /* \"contracts/Cyberorcs.sol\":2868:2873  value */\n      dup5\n        /* \"contracts/Cyberorcs.sol\":2838:2874  Approval(msg.sender, spender, value) */\n      mload(0x40)\n      tag_90\n      swap2\n      swap1\n      tag_37\n      jump\t// in\n    tag_90:\n      mload(0x40)\n      dup1\n      swap2\n      sub\n      swap1\n      log3\n        /* \"contracts/Cyberorcs.sol\":2894:2898  true */\n      0x01\n        /* \"contracts/Cyberorcs.sol\":2887:2898  return true */\n      swap1\n      pop\n        /* \"contracts/Cyberorcs.sol\":2631:2906  function approve(address spender, uint256 value) public returns (bool) {... */\n      swap3\n      swap2\n      pop\n      pop\n      jump\t// out\n        /* \"contracts/Cyberorcs.sol\":335:361  uint256 public totalSupply */\n    tag_35:\n      sload(0x02)\n      dup2\n      jump\t// out\n        /* \"contracts/Cyberorcs.sol\":2219:2623  function transferFrom(address from, address to, uint256 value) public returns (bool) {... */\n    tag_41:\n        /* \"contracts/Cyberorcs.sol\":2298:2302  bool */\n      0x00\n        /* \"contracts/Cyberorcs.sol\":2315:2339  uint256 currentAllowance */\n      0x00\n        /* \"contracts/Cyberorcs.sol\":2342:2352  _allowance */\n      0x05\n        /* \"contracts/Cyberorcs.sol\":2342:2358  _allowance[from] */\n      0x00\n        /* \"contracts/Cyberorcs.sol\":2353:2357  from */\n      dup7\n        /* \"contracts/Cyberorcs.sol\":2342:2358  _allowance[from] */\n      0xffffffffffffffffffffffffffffffffffffffff\n      and\n      0xffffffffffffffffffffffffffffffffffffffff\n      and\n      dup2\n      mstore\n      0x20\n      add\n      swap1\n      dup2\n      mstore\n      0x20\n      add\n      0x00\n      keccak256\n        /* \"contracts/Cyberorcs.sol\":2342:2370  _allowance[from][msg.sender] */\n      0x00\n        /* \"contracts/Cyberorcs.sol\":2359:2369  msg.sender */\n      caller\n        /* \"contracts/Cyberorcs.sol\":2342:2370  _allowance[from][msg.sender] */\n      0xffffffffffffffffffffffffffffffffffffffff\n      and\n      0xffffffffffffffffffffffffffffffffffffffff\n      and\n      dup2\n      mstore\n      0x20\n      add\n      swap1\n      dup2\n      mstore\n      0x20\n      add\n      0x00\n      keccak256\n      sload\n        /* \"contracts/Cyberorcs.sol\":2315:2370  uint256 currentAllowance = _allowance[from][msg.sender] */\n      swap1\n      pop\n        /* \"contracts/Cyberorcs.sol\":2409:2414  value */\n      dup3\n        /* \"contracts/Cyberorcs.sol\":2389:2405  currentAllowance */\n      dup2\n        /* \"contracts/Cyberorcs.sol\":2389:2414  currentAllowance >= value */\n      lt\n      iszero\n        /* \"contracts/Cyberorcs.sol\":2381:2443  require(currentAllowance >= value, \"Cyberorcs: Low Allowance\") */\n      tag_92\n      jumpi\n      mload(0x40)\n      0x08c379a000000000000000000000000000000000000000000000000000000000\n      dup2\n      mstore\n      0x04\n      add\n      tag_93\n      swap1\n      tag_94\n      jump\t// in\n    tag_93:\n      mload(0x40)\n      dup1\n      swap2\n      sub\n      swap1\n      revert\n    tag_92:\n        /* \"contracts/Cyberorcs.sol\":2504:2509  value */\n      dup3\n        /* \"contracts/Cyberorcs.sol\":2485:2501  currentAllowance */\n      dup2\n        /* \"contracts/Cyberorcs.sol\":2485:2509  currentAllowance - value */\n      tag_95\n      swap2\n      swap1\n      tag_96\n      jump\t// in\n    tag_95:\n        /* \"contracts/Cyberorcs.sol\":2454:2464  _allowance */\n      0x05\n        /* \"contracts/Cyberorcs.sol\":2454:2470  _allowance[from] */\n      0x00\n        /* \"contracts/Cyberorcs.sol\":2465:2469  from */\n      dup8\n        /* \"contracts/Cyberorcs.sol\":2454:2470  _allowance[from] */\n      0xffffffffffffffffffffffffffffffffffffffff\n      and\n      0xffffffffffffffffffffffffffffffffffffffff\n      and\n      dup2\n      mstore\n      0x20\n      add\n      swap1\n      dup2\n      mstore\n      0x20\n      add\n      0x00\n      keccak256\n        /* \"contracts/Cyberorcs.sol\":2454:2482  _allowance[from][msg.sender] */\n      0x00\n        /* \"contracts/Cyberorcs.sol\":2471:2481  msg.sender */\n      caller\n        /* \"contracts/Cyberorcs.sol\":2454:2482  _allowance[from][msg.sender] */\n      0xffffffffffffffffffffffffffffffffffffffff\n      and\n      0xffffffffffffffffffffffffffffffffffffffff\n      and\n      dup2\n      mstore\n      0x20\n      add\n      swap1\n      dup2\n      mstore\n      0x20\n      add\n      0x00\n      keccak256\n        /* \"contracts/Cyberorcs.sol\":2454:2509  _allowance[from][msg.sender] = currentAllowance - value */\n      dup2\n      swap1\n      sstore\n      pop\n        /* \"contracts/Cyberorcs.sol\":2522:2548  _transfer(from, to, value) */\n      tag_97\n        /* \"contracts/Cyberorcs.sol\":2532:2536  from */\n      dup6\n        /* \"contracts/Cyberorcs.sol\":2538:2540  to */\n      dup6\n        /* \"contracts/Cyberorcs.sol\":2542:2547  value */\n      dup6\n        /* \"contracts/Cyberorcs.sol\":2522:2531  _transfer */\n      tag_98\n        /* \"contracts/Cyberorcs.sol\":2522:2548  _transfer(from, to, value) */\n      jump\t// in\n    tag_97:\n        /* \"contracts/Cyberorcs.sol\":2581:2583  to */\n      dup4\n        /* \"contracts/Cyberorcs.sol\":2566:2591  Transfer(from, to, value) */\n      0xffffffffffffffffffffffffffffffffffffffff\n      and\n        /* \"contracts/Cyberorcs.sol\":2575:2579  from */\n      dup6\n        /* \"contracts/Cyberorcs.sol\":2566:2591  Transfer(from, to, value) */\n      0xffffffffffffffffffffffffffffffffffffffff\n      and\n      0xddf252ad1be2c89b69c2b068fc378daa952ba7f163c4a11628f55a4df523b3ef\n        /* \"contracts/Cyberorcs.sol\":2585:2590  value */\n      dup6\n        /* \"contracts/Cyberorcs.sol\":2566:2591  Transfer(from, to, value) */\n      mload(0x40)\n      tag_99\n      swap2\n      swap1\n      tag_37\n      jump\t// in\n    tag_99:\n      mload(0x40)\n      dup1\n      swap2\n      sub\n      swap1\n      log3\n        /* \"contracts/Cyberorcs.sol\":2611:2615  true */\n      0x01\n        /* \"contracts/Cyberorcs.sol\":2604:2615  return true */\n      swap2\n      pop\n      pop\n        /* \"contracts/Cyberorcs.sol\":2219:2623  function transferFrom(address from, address to, uint256 value) public returns (bool) {... */\n      swap4\n      swap3\n      pop\n      pop\n      pop\n      jump\t// out\n        /* \"contracts/Cyberorcs.sol\":1449:1531  function decimals() public pure returns (uint8) {... */\n    tag_44:\n        /* \"contracts/Cyberorcs.sol\":1490:1495  uint8 */\n      0x00\n        /* \"contracts/Cyberorcs.sol\":260:262  18 */\n      0x12\n        /* \"contracts/Cyberorcs.sol\":1508:1523  return DECIMALS */\n      swap1\n      pop\n        /* \"contracts/Cyberorcs.sol\":1449:1531  function decimals() public pure returns (uint8) {... */\n      swap1\n      jump\t// out\n        /* \"contracts/Cyberorcs.sol\":293:328  uint256 public immutable MAX_SUPPLY */\n    tag_48:\n      immutable(\"0x789bcdf275fa270780a52ae3b79bb1ce0fda7e0aaad87b57b74bb99ac290714a\")\n      dup2\n      jump\t// out\n        /* \"contracts/Cyberorcs.sol\":2972:3397  function mint(address to, uint256 amount) public returns (bool) {... */\n    tag_52:\n        /* \"contracts/Cyberorcs.sol\":3030:3034  bool */\n      0x00\n        /* \"contracts/Cyberorcs.sol\":3069:3075  minter */\n      0x03\n      0x00\n      swap1\n      sload\n      swap1\n      0x0100\n      exp\n      swap1\n      div\n      0xffffffffffffffffffffffffffffffffffffffff\n      and\n        /* \"contracts/Cyberorcs.sol\":3055:3075  msg.sender == minter */\n      0xffffffffffffffffffffffffffffffffffffffff\n      and\n        /* \"contracts/Cyberorcs.sol\":3055:3065  msg.sender */\n      caller\n        /* \"contracts/Cyberorcs.sol\":3055:3075  msg.sender == minter */\n      0xffffffffffffffffffffffffffffffffffffffff\n      and\n      eq\n        /* \"contracts/Cyberorcs.sol\":3047:3104  require(msg.sender == minter, \"Cyberorcs: Access Denied\") */\n      tag_102\n      jumpi\n      mload(0x40)\n      0x08c379a000000000000000000000000000000000000000000000000000000000\n      dup2\n      mstore\n      0x04\n      add\n      tag_103\n      swap1\n      tag_104\n      jump\t// in\n    tag_103:\n      mload(0x40)\n      dup1\n      swap2\n      sub\n      swap1\n      revert\n    tag_102:\n        /* \"contracts/Cyberorcs.sol\":3137:3138  0 */\n      0x00\n        /* \"contracts/Cyberorcs.sol\":3123:3139  to != address(0) */\n      0xffffffffffffffffffffffffffffffffffffffff\n      and\n        /* \"contracts/Cyberorcs.sol\":3123:3125  to */\n      dup4\n        /* \"contracts/Cyberorcs.sol\":3123:3139  to != address(0) */\n      0xffffffffffffffffffffffffffffffffffffffff\n      and\n      sub\n        /* \"contracts/Cyberorcs.sol\":3115:3169  require(to != address(0), \"Cyberorcs: Zero recipient\") */\n      tag_105\n      jumpi\n      mload(0x40)\n      0x08c379a000000000000000000000000000000000000000000000000000000000\n      dup2\n      mstore\n      0x04\n      add\n      tag_106\n      swap1\n      tag_107\n      jump\t// in\n    tag_106:\n      mload(0x40)\n      dup1\n      swap2\n      sub\n      swap1\n      revert\n    tag_105:\n        /* \"contracts/Cyberorcs.sol\":3212:3222  MAX_SUPPLY */\n      immutable(\"0x789bcdf275fa270780a52ae3b79bb1ce0fda7e0aaad87b57b74bb99ac290714a\")\n        /* \"contracts/Cyberorcs.sol\":3202:3208  amount */\n      dup3\n        /* \"contracts/Cyberorcs.sol\":3188:3199  totalSupply */\n      sload(0x02)\n        /* \"contracts/Cyberorcs.sol\":3188:3208  totalSupply + amount */\n      tag_108\n      swap2\n      swap1\n      tag_109\n      jump\t// in\n    tag_108:\n        /* \"contracts/Cyberorcs.sol\":3188:3222  totalSupply + amount <= MAX_SUPPLY */\n      gt\n      iszero\n        /* \"contracts/Cyberorcs.sol\":3180:3248  require(totalSupply + amount <= MAX_SUPPLY, \"Cyberorcs: Max Supply\") */\n      tag_110\n      jumpi\n      mload(0x40)\n      0x08c379a000000000000000000000000000000000000000000000000000000000\n      dup2\n      mstore\n      0x04\n      add\n      tag_111\n      swap1\n      tag_112\n      jump\t// in\n    tag_111:\n      mload(0x40)\n      dup1\n      swap2\n      sub\n      swap1\n      revert\n    tag_110:\n        /* \"contracts/Cyberorcs.sol\":3277:3283  amount */\n      dup2\n        /* \"contracts/Cyberorcs.sol\":3261:3269  _balance */\n      0x04\n        /* \"contracts/Cyberorcs.sol\":3261:3273  _balance[to] */\n      0x00\n        /* \"contracts/Cyberorcs.sol\":3270:3272  to */\n      dup6\n        /* \"contracts/Cyberorcs.sol\":3261:3273  _balance[to] */\n      0xffffffffffffffffffffffffffffffffffffffff\n      and\n      0xffffffffffffffffffffffffffffffffffffffff\n      and\n      dup2\n      mstore\n      0x20\n      add\n      swap1\n      dup2\n      mstore\n      0x20\n      add\n      0x00\n      keccak256\n      0x00\n        /* \"contracts/Cyberorcs.sol\":3261:3283  _balance[to] += amount */\n      dup3\n      dup3\n      sload\n      tag_113\n      swap2\n      swap1\n      tag_109\n      jump\t// in\n    tag_113:\n      swap3\n      pop\n      pop\n      dup2\n      swap1\n      sstore\n      pop\n        /* \"contracts/Cyberorcs.sol\":3309:3315  amount */\n      dup2\n        /* \"contracts/Cyberorcs.sol\":3294:3305  totalSupply */\n      0x02\n      0x00\n        /* \"contracts/Cyberorcs.sol\":3294:3315  totalSupply += amount */\n      dup3\n      dup3\n      sload\n      tag_114\n      swap2\n      swap1\n      tag_109\n      jump\t// in\n    tag_114:\n      swap3\n      pop\n      pop\n      dup2\n      swap1\n      sstore\n      pop\n        /* \"contracts/Cyberorcs.sol\":3354:3356  to */\n      dup3\n        /* \"contracts/Cyberorcs.sol\":3333:3365  Transfer(address(0), to, amount) */\n      0xffffffffffffffffffffffffffffffffffffffff\n      and\n        /* \"contracts/Cyberorcs.sol\":3350:3351  0 */\n      0x00\n        /* \"contracts/Cyberorcs.sol\":3333:3365  Transfer(address(0), to, amount) */\n      0xffffffffffffffffffffffffffffffffffffffff\n      and\n      0xddf252ad1be2c89b69c2b068fc378daa952ba7f163c4a11628f55a4df523b3ef\n        /* \"contracts/Cyberorcs.sol\":3358:3364  amount */\n      dup5\n        /* \"contracts/Cyberorcs.sol\":3333:3365  Transfer(address(0), to, amount) */\n      mload(0x40)\n      tag_115\n      swap2\n      swap1\n      tag_37\n      jump\t// in\n    tag_115:\n      mload(0x40)\n      dup1\n      swap2\n      sub\n      swap1\n      log3\n        /* \"contracts/Cyberorcs.sol\":3385:3389  true */\n      0x01\n        /* \"contracts/Cyberorcs.sol\":3378:3389  return true */\n      swap1\n      pop\n        /* \"contracts/Cyberorcs.sol\":2972:3397  function mint(address to, uint256 amount) public returns (bool) {... */\n      swap3\n      swap2\n      pop\n      pop\n      jump\t// out\n        /* \"contracts/Cyberorcs.sol\":3405:3698  function burn(uint256 amount) public returns (bool) {... */\n    tag_57:\n        /* \"contracts/Cyberorcs.sol\":3451:3455  bool */\n      0x00\n        /* \"contracts/Cyberorcs.sol\":3500:3506  amount */\n      dup2\n        /* \"contracts/Cyberorcs.sol\":3476:3484  _balance */\n      0x04\n        /* \"contracts/Cyberorcs.sol\":3476:3496  _balance[msg.sender] */\n      0x00\n        /* \"contracts/Cyberorcs.sol\":3485:3495  msg.sender */\n      caller\n        /* \"contracts/Cyberorcs.sol\":3476:3496  _balance[msg.sender] */\n      0xffffffffffffffffffffffffffffffffffffffff\n      and\n      0xffffffffffffffffffffffffffffffffffffffff\n      and\n      dup2\n      mstore\n      0x20\n      add\n      swap1\n      dup2\n      mstore\n      0x20\n      add\n      0x00\n      keccak256\n      sload\n        /* \"contracts/Cyberorcs.sol\":3476:3506  _balance[msg.sender] >= amount */\n      lt\n      iszero\n        /* \"contracts/Cyberorcs.sol\":3468:3533  require(_balance[msg.sender] >= amount, \"Cyberorcs: Low Balance\") */\n      tag_117\n      jumpi\n      mload(0x40)\n      0x08c379a000000000000000000000000000000000000000000000000000000000\n      dup2\n      mstore\n      0x04\n      add\n      tag_118\n      swap1\n      tag_119\n      jump\t// in\n    tag_118:\n      mload(0x40)\n      dup1\n      swap2\n      sub\n      swap1\n      revert\n    tag_117:\n        /* \"contracts/Cyberorcs.sol\":3570:3576  amount */\n      dup2\n        /* \"contracts/Cyberorcs.sol\":3546:3554  _balance */\n      0x04\n        /* \"contracts/Cyberorcs.sol\":3546:3566  _balance[msg.sender] */\n      0x00\n        /* \"contracts/Cyberorcs.sol\":3555:3565  msg.sender */\n      caller\n        /* \"contracts/Cyberorcs.sol\":3546:3566  _balance[msg.sender] */\n      0xffffffffffffffffffffffffffffffffffffffff\n      and\n      0xffffffffffffffffffffffffffffffffffffffff\n      and\n      dup2\n      mstore\n      0x20\n      add\n      swap1\n      dup2\n      mstore\n      0x20\n      add\n      0x00\n      keccak256\n      0x00\n        /* \"contracts/Cyberorcs.sol\":3546:3576  _balance[msg.sender] -= amount */\n      dup3\n      dup3\n      sload\n      tag_120\n      swap2\n      swap1\n      tag_96\n      jump\t// in\n    tag_120:\n      swap3\n      pop\n      pop\n      dup2\n      swap1\n      sstore\n      pop\n        /* \"contracts/Cyberorcs.sol\":3602:3608  amount */\n      dup2\n        /* \"contracts/Cyberorcs.sol\":3587:3598  totalSupply */\n      0x02\n      0x00\n        /* \"contracts/Cyberorcs.sol\":3587:3608  totalSupply -= amount */\n      dup3\n      dup3\n      sload\n      tag_121\n      swap2\n      swap1\n      tag_96\n      jump\t// in\n    tag_121:\n      swap3\n      pop\n      pop\n      dup2\n      swap1\n      sstore\n      pop\n        /* \"contracts/Cyberorcs.sol\":3655:3656  0 */\n      0x00\n        /* \"contracts/Cyberorcs.sol\":3626:3666  Transfer(msg.sender, address(0), amount) */\n      0xffffffffffffffffffffffffffffffffffffffff\n      and\n        /* \"contracts/Cyberorcs.sol\":3635:3645  msg.sender */\n      caller\n        /* \"contracts/Cyberorcs.sol\":3626:3666  Transfer(msg.sender, address(0), amount) */\n      0xffffffffffffffffffffffffffffffffffffffff\n      and\n      0xddf252ad1be2c89b69c2b068fc378daa952ba7f163c4a11628f55a4df523b3ef\n        /* \"contracts/Cyberorcs.sol\":3659:3665  amount */\n      dup5\n        /* \"contracts/Cyberorcs.sol\":3626:3666  Transfer(msg.sender, address(0), amount) */\n      mload(0x40)\n      tag_122\n      swap2\n      swap1\n      tag_37\n      jump\t// in\n    tag_122:\n      mload(0x40)\n      dup1\n      swap2\n      sub\n      swap1\n      log3\n        /* \"contracts/Cyberorcs.sol\":3686:3690  true */\n      0x01\n        /* \"contracts/Cyberorcs.sol\":3679:3690  return true */\n      swap1\n      pop\n        /* \"contracts/Cyberorcs.sol\":3405:3698  function burn(uint256 amount) public returns (bool) {... */\n      swap2\n      swap1\n      pop\n      jump\t// out\n        /* \"contracts/Cyberorcs.sol\":1702:1807  function balanceOf(address owner) public view returns (uint256) {... */\n    tag_62:\n        /* \"contracts/Cyberorcs.sol\":1757:1764  uint256 */\n      0x00\n        /* \"contracts/Cyberorcs.sol\":1784:1792  _balance */\n      0x04\n        /* \"contracts/Cyberorcs.sol\":1784:1799  _balance[owner] */\n      0x00\n        /* \"contracts/Cyberorcs.sol\":1793:1798  owner */\n      dup4\n        /* \"contracts/Cyberorcs.sol\":1784:1799  _balance[owner] */\n      0xffffffffffffffffffffffffffffffffffffffff\n      and\n      0xffffffffffffffffffffffffffffffffffffffff\n      and\n      dup2\n      mstore\n      0x20\n      add\n      swap1\n      dup2\n      mstore\n      0x20\n      add\n      0x00\n      keccak256\n      sload\n        /* \"contracts/Cyberorcs.sol\":1777:1799  return _balance[owner] */\n      swap1\n      pop\n        /* \"contracts/Cyberorcs.sol\":1702:1807  function balanceOf(address owner) public view returns (uint256) {... */\n      swap2\n      swap1\n      pop\n      jump\t// out\n        /* \"contracts/Cyberorcs.sol\":1539:1633  function totalSupplyView() public view returns (uint256) {... */\n    tag_65:\n        /* \"contracts/Cyberorcs.sol\":1587:1594  uint256 */\n      0x00\n        /* \"contracts/Cyberorcs.sol\":1614:1625  totalSupply */\n      sload(0x02)\n        /* \"contracts/Cyberorcs.sol\":1607:1625  return totalSupply */\n      swap1\n      pop\n        /* \"contracts/Cyberorcs.sol\":1539:1633  function totalSupplyView() public view returns (uint256) {... */\n      swap1\n      jump\t// out\n        /* \"contracts/Cyberorcs.sol\":1355:1441  function symbol() public view returns (string memory) {... */\n    tag_68:\n        /* \"contracts/Cyberorcs.sol\":1394:1407  string memory */\n      0x60\n        /* \"contracts/Cyberorcs.sol\":1427:1433  SYMBOL */\n      0x01\n        /* \"contracts/Cyberorcs.sol\":1420:1433  return SYMBOL */\n      dup1\n      sload\n      tag_126\n      swap1\n      tag_81\n      jump\t// in\n    tag_126:\n      dup1\n      0x1f\n      add\n      0x20\n      dup1\n      swap2\n      div\n      mul\n      0x20\n      add\n      mload(0x40)\n      swap1\n      dup2\n      add\n      0x40\n      mstore\n      dup1\n      swap3\n      swap2\n      swap1\n      dup2\n      dup2\n      mstore\n      0x20\n      add\n      dup3\n      dup1\n      sload\n      tag_127\n      swap1\n      tag_81\n      jump\t// in\n    tag_127:\n      dup1\n      iszero\n      tag_128\n      jumpi\n      dup1\n      0x1f\n      lt\n      tag_129\n      jumpi\n      0x0100\n      dup1\n      dup4\n      sload\n      div\n      mul\n      dup4\n      mstore\n      swap2\n      0x20\n      add\n      swap2\n      jump(tag_128)\n    tag_129:\n      dup3\n      add\n      swap2\n      swap1\n      0x00\n      mstore\n      keccak256(0x00, 0x20)\n      swap1\n    tag_130:\n      dup2\n      sload\n      dup2\n      mstore\n      swap1\n      0x01\n      add\n      swap1\n      0x20\n      add\n      dup1\n      dup4\n      gt\n      tag_130\n      jumpi\n      dup3\n      swap1\n      sub\n      0x1f\n      and\n      dup3\n      add\n      swap2\n    tag_128:\n      pop\n      pop\n      pop\n      pop\n      pop\n      swap1\n      pop\n        /* \"contracts/Cyberorcs.sol\":1355:1441  function symbol() public view returns (string memory) {... */\n      swap1\n      jump\t// out\n        /* \"contracts/Cyberorcs.sol\":2017:2211  function transfer(address to, uint256 amount) public returns (bool) {... */\n    tag_72:\n        /* \"contracts/Cyberorcs.sol\":2079:2083  bool */\n      0x00\n        /* \"contracts/Cyberorcs.sol\":2096:2129  _transfer(msg.sender, to, amount) */\n      tag_132\n        /* \"contracts/Cyberorcs.sol\":2106:2116  msg.sender */\n      caller\n        /* \"contracts/Cyberorcs.sol\":2118:2120  to */\n      dup5\n        /* \"contracts/Cyberorcs.sol\":2122:2128  amount */\n      dup5\n        /* \"contracts/Cyberorcs.sol\":2096:2105  _transfer */\n      tag_98\n        /* \"contracts/Cyberorcs.sol\":2096:2129  _transfer(msg.sender, to, amount) */\n      jump\t// in\n    tag_132:\n        /* \"contracts/Cyberorcs.sol\":2168:2170  to */\n      dup3\n        /* \"contracts/Cyberorcs.sol\":2147:2179  Transfer(msg.sender, to, amount) */\n      0xffffffffffffffffffffffffffffffffffffffff\n      and\n        /* \"contracts/Cyberorcs.sol\":2156:2166  msg.sender */\n      caller\n        /* \"contracts/Cyberorcs.sol\":2147:2179  Transfer(msg.sender, to, amount) */\n      0xffffffffffffffffffffffffffffffffffffffff\n      and\n      0xddf252ad1be2c89b69c2b068fc378daa952ba7f163c4a11628f55a4df523b3ef\n        /* \"contracts/Cyberorcs.sol\":2172:2178  amount */\n      dup5\n        /* \"contracts/Cyberorcs.sol\":2147:2179  Transfer(msg.sender, to, amount) */\n      mload(0x40)\n      tag_133\n      swap2\n      swap1\n      tag_37\n      jump\t// in\n    tag_133:\n      mload(0x40)\n      dup1\n      swap2\n      sub\n      swap1\n      log3\n        /* \"contracts/Cyberorcs.sol\":2199:2203  true */\n      0x01\n        /* \"contracts/Cyberorcs.sol\":2192:2203  return true */\n      swap1\n      pop\n        /* \"contracts/Cyberorcs.sol\":2017:2211  function transfer(address to, uint256 amount) public returns (bool) {... */\n      swap3\n      swap2\n      pop\n      pop\n      jump\t// out\n        /* \"contracts/Cyberorcs.sol\":1815:1948  function allowance(address owner, address spender) public view returns (uint256) {... */\n    tag_77:\n        /* \"contracts/Cyberorcs.sol\":1887:1894  uint256 */\n      0x00\n        /* \"contracts/Cyberorcs.sol\":1914:1924  _allowance */\n      0x05\n        /* \"contracts/Cyberorcs.sol\":1914:1931  _allowance[owner] */\n      0x00\n        /* \"contracts/Cyberorcs.sol\":1925:1930  owner */\n      dup5\n        /* \"contracts/Cyberorcs.sol\":1914:1931  _allowance[owner] */\n      0xffffffffffffffffffffffffffffffffffffffff\n      and\n      0xffffffffffffffffffffffffffffffffffffffff\n      and\n      dup2\n      mstore\n      0x20\n      add\n      swap1\n      dup2\n      mstore\n      0x20\n      add\n      0x00\n      keccak256\n        /* \"contracts/Cyberorcs.sol\":1914:1940  _allowance[owner][spender] */\n      0x00\n        /* \"contracts/Cyberorcs.sol\":1932:1939  spender */\n      dup4\n        /* \"contracts/Cyberorcs.sol\":1914:1940  _allowance[owner][spender] */\n      0xffffffffffffffffffffffffffffffffffffffff\n      and\n      0xffffffffffffffffffffffffffffffffffffffff\n      and\n      dup2\n      mstore\n      0x20\n      add\n      swap1\n      dup2\n      mstore\n      0x20\n      add\n      0x00\n      keccak256\n      sload\n        /* \"contracts/Cyberorcs.sol\":1907:1940  return _allowance[owner][spender] */\n      swap1\n      pop\n        /* \"contracts/Cyberorcs.sol\":1815:1948  function allowance(address owner, address spender) public view returns (uint256) {... */\n      swap3\n      swap2\n      pop\n      pop\n      jump\t// out\n        /* \"contracts/Cyberorcs.sol\":3764:4089  function _transfer(address from, address to, uint256 amount) internal {... */\n    tag_98:\n        /* \"contracts/Cyberorcs.sol\":3867:3868  0 */\n      0x00\n        /* \"contracts/Cyberorcs.sol\":3853:3869  to != address(0) */\n      0xffffffffffffffffffffffffffffffffffffffff\n      and\n        /* \"contracts/Cyberorcs.sol\":3853:3855  to */\n      dup3\n        /* \"contracts/Cyberorcs.sol\":3853:3869  to != address(0) */\n      0xffffffffffffffffffffffffffffffffffffffff\n      and\n      sub\n        /* \"contracts/Cyberorcs.sol\":3845:3899  require(to != address(0), \"Cyberorcs: Zero recipient\") */\n      tag_136\n      jumpi\n      mload(0x40)\n      0x08c379a000000000000000000000000000000000000000000000000000000000\n      dup2\n      mstore\n      0x04\n      add\n      tag_137\n      swap1\n      tag_107\n      jump\t// in\n    tag_137:\n      mload(0x40)\n      dup1\n      swap2\n      sub\n      swap1\n      revert\n    tag_136:\n        /* \"contracts/Cyberorcs.sol\":3936:3942  amount */\n      dup1\n        /* \"contracts/Cyberorcs.sol\":3918:3926  _balance */\n      0x04\n        /* \"contracts/Cyberorcs.sol\":3918:3932  _balance[from] */\n      0x00\n        /* \"contracts/Cyberorcs.sol\":3927:3931  from */\n      dup6\n        /* \"contracts/Cyberorcs.sol\":3918:3932  _balance[from] */\n      0xffffffffffffffffffffffffffffffffffffffff\n      and\n      0xffffffffffffffffffffffffffffffffffffffff\n      and\n      dup2\n      mstore\n      0x20\n      add\n      swap1\n      dup2\n      mstore\n      0x20\n      add\n      0x00\n      keccak256\n      sload\n        /* \"contracts/Cyberorcs.sol\":3918:3942  _balance[from] >= amount */\n      lt\n      iszero\n        /* \"contracts/Cyberorcs.sol\":3910:3969  require(_balance[from] >= amount, \"Cyberorcs: Low Balance\") */\n      tag_138\n      jumpi\n      mload(0x40)\n      0x08c379a000000000000000000000000000000000000000000000000000000000\n      dup2\n      mstore\n      0x04\n      add\n      tag_139\n      swap1\n      tag_119\n      jump\t// in\n    tag_139:\n      mload(0x40)\n      dup1\n      swap2\n      sub\n      swap1\n      revert\n    tag_138:\n        /* \"contracts/Cyberorcs.sol\":4000:4006  amount */\n      dup1\n        /* \"contracts/Cyberorcs.sol\":3982:3990  _balance */\n      0x04\n        /* \"contracts/Cyberorcs.sol\":3982:3996  _balance[from] */\n      0x00\n        /* \"contracts/Cyberorcs.sol\":3991:3995  from */\n      dup6\n        /* \"contracts/Cyberorcs.sol\":3982:3996  _balance[from] */\n      0xffffffffffffffffffffffffffffffffffffffff\n      and\n      0xffffffffffffffffffffffffffffffffffffffff\n      and\n      dup2\n      mstore\n      0x20\n      add\n      swap1\n      dup2\n      mstore\n      0x20\n      add\n      0x00\n      keccak256\n      0x00\n        /* \"contracts/Cyberorcs.sol\":3982:4006  _balance[from] -= amount */\n      dup3\n      dup3\n      sload\n      tag_140\n      swap2\n      swap1\n      tag_96\n      jump\t// in\n    tag_140:\n      swap3\n      pop\n      pop\n      dup2\n      swap1\n      sstore\n      pop\n        /* \"contracts/Cyberorcs.sol\":4033:4039  amount */\n      dup1\n        /* \"contracts/Cyberorcs.sol\":4017:4025  _balance */\n      0x04\n        /* \"contracts/Cyberorcs.sol\":4017:4029  _balance[to] */\n      0x00\n        /* \"contracts/Cyberorcs.sol\":4026:4028  to */\n      dup5\n        /* \"contracts/Cyberorcs.sol\":4017:4029  _balance[to] */\n      0xffffffffffffffffffffffffffffffffffffffff\n      and\n      0xffffffffffffffffffffffffffffffffffffffff\n      and\n      dup2\n      mstore\n      0x20\n      add\n      swap1\n      dup2\n      mstore\n      0x20\n      add\n      0x00\n      keccak256\n      0x00\n        /* \"contracts/Cyberorcs.sol\":4017:4039  _balance[to] += amount */\n      dup3\n      dup3\n      sload\n      tag_141\n      swap2\n      swap1\n      tag_109\n      jump\t// in\n    tag_141:\n      swap3\n      pop\n      pop\n      dup2\n      swap1\n      sstore\n      pop\n        /* \"contracts/Cyberorcs.sol\":4070:4072  to */\n      dup2\n        /* \"contracts/Cyberorcs.sol\":4055:4081  Transfer(from, to, amount) */\n      0xffffffffffffffffffffffffffffffffffffffff\n      and\n        /* \"contracts/Cyberorcs.sol\":4064:4068  from */\n      dup4\n        /* \"contracts/Cyberorcs.sol\":4055:4081  Transfer(from, to, amount) */\n      0xffffffffffffffffffffffffffffffffffffffff\n      and\n      0xddf252ad1be2c89b69c2b068fc378daa952ba7f163c4a11628f55a4df523b3ef\n        /* \"contracts/Cyberorcs.sol\":4074:4080  amount */\n      dup4\n        /* \"contracts/Cyberorcs.sol\":4055:4081  Transfer(from, to, amount) */\n      mload(0x40)\n      tag_142\n      swap2\n      swap1\n      tag_37\n      jump\t// in\n    tag_142:\n      mload(0x40)\n      dup1\n      swap2\n      sub\n      swap1\n      log3\n        /* \"contracts/Cyberorcs.sol\":3764:4089  function _transfer(address from, address to, uint256 amount) internal {... */\n      pop\n      pop\n      pop\n      jump\t// out\n        /* \"#utility.yul\":7:106   */\n    tag_143:\n        /* \"#utility.yul\":59:65   */\n      0x00\n        /* \"#utility.yul\":93:98   */\n      dup2\n        /* \"#utility.yul\":87:99   */\n      mload\n        /* \"#utility.yul\":77:99   */\n      swap1\n      pop\n        /* \"#utility.yul\":7:106   */\n      swap2\n      swap1\n      pop\n      jump\t// out\n        /* \"#utility.yul\":112:281   */\n    tag_144:\n        /* \"#utility.yul\":196:207   */\n      0x00\n        /* \"#utility.yul\":230:236   */\n      dup3\n        /* \"#utility.yul\":225:228   */\n      dup3\n        /* \"#utility.yul\":218:237   */\n      mstore\n        /* \"#utility.yul\":270:274   */\n      0x20\n        /* \"#utility.yul\":265:268   */\n      dup3\n        /* \"#utility.yul\":261:275   */\n      add\n        /* \"#utility.yul\":246:275   */\n      swap1\n      pop\n        /* \"#utility.yul\":112:281   */\n      swap3\n      swap2\n      pop\n      pop\n      jump\t// out\n        /* \"#utility.yul\":287:426   */\n    tag_145:\n        /* \"#utility.yul\":376:382   */\n      dup3\n        /* \"#utility.yul\":371:374   */\n      dup2\n        /* \"#utility.yul\":366:369   */\n      dup4\n        /* \"#utility.yul\":360:383   */\n      mcopy\n        /* \"#utility.yul\":417:418   */\n      0x00\n        /* \"#utility.yul\":408:414   */\n      dup4\n        /* \"#utility.yul\":403:406   */\n      dup4\n        /* \"#utility.yul\":399:415   */\n      add\n        /* \"#utility.yul\":392:419   */\n      mstore\n        /* \"#utility.yul\":287:426   */\n      pop\n      pop\n      pop\n      jump\t// out\n        /* \"#utility.yul\":432:534   */\n    tag_146:\n        /* \"#utility.yul\":473:479   */\n      0x00\n        /* \"#utility.yul\":524:526   */\n      0x1f\n        /* \"#utility.yul\":520:527   */\n      not\n        /* \"#utility.yul\":515:517   */\n      0x1f\n        /* \"#utility.yul\":508:513   */\n      dup4\n        /* \"#utility.yul\":504:518   */\n      add\n        /* \"#utility.yul\":500:528   */\n      and\n        /* \"#utility.yul\":490:528   */\n      swap1\n      pop\n        /* \"#utility.yul\":432:534   */\n      swap2\n      swap1\n      pop\n      jump\t// out\n        /* \"#utility.yul\":540:917   */\n    tag_147:\n        /* \"#utility.yul\":628:631   */\n      0x00\n        /* \"#utility.yul\":656:695   */\n      tag_184\n        /* \"#utility.yul\":689:694   */\n      dup3\n        /* \"#utility.yul\":656:695   */\n      tag_143\n      jump\t// in\n    tag_184:\n        /* \"#utility.yul\":711:782   */\n      tag_185\n        /* \"#utility.yul\":775:781   */\n      dup2\n        /* \"#utility.yul\":770:773   */\n      dup6\n        /* \"#utility.yul\":711:782   */\n      tag_144\n      jump\t// in\n    tag_185:\n        /* \"#utility.yul\":704:782   */\n      swap4\n      pop\n        /* \"#utility.yul\":791:856   */\n      tag_186\n        /* \"#utility.yul\":849:855   */\n      dup2\n        /* \"#utility.yul\":844:847   */\n      dup6\n        /* \"#utility.yul\":837:841   */\n      0x20\n        /* \"#utility.yul\":830:835   */\n      dup7\n        /* \"#utility.yul\":826:842   */\n      add\n        /* \"#utility.yul\":791:856   */\n      tag_145\n      jump\t// in\n    tag_186:\n        /* \"#utility.yul\":881:910   */\n      tag_187\n        /* \"#utility.yul\":903:909   */\n      dup2\n        /* \"#utility.yul\":881:910   */\n      tag_146\n      jump\t// in\n    tag_187:\n        /* \"#utility.yul\":876:879   */\n      dup5\n        /* \"#utility.yul\":872:911   */\n      add\n        /* \"#utility.yul\":865:911   */\n      swap2\n      pop\n        /* \"#utility.yul\":632:917   */\n      pop\n        /* \"#utility.yul\":540:917   */\n      swap3\n      swap2\n      pop\n      pop\n      jump\t// out\n        /* \"#utility.yul\":923:1236   */\n    tag_23:\n        /* \"#utility.yul\":1036:1040   */\n      0x00\n        /* \"#utility.yul\":1074:1076   */\n      0x20\n        /* \"#utility.yul\":1063:1072   */\n      dup3\n        /* \"#utility.yul\":1059:1077   */\n      add\n        /* \"#utility.yul\":1051:1077   */\n      swap1\n      pop\n        /* \"#utility.yul\":1123:1132   */\n      dup2\n        /* \"#utility.yul\":1117:1121   */\n      dup2\n        /* \"#utility.yul\":1113:1133   */\n      sub\n        /* \"#utility.yul\":1109:1110   */\n      0x00\n        /* \"#utility.yul\":1098:1107   */\n      dup4\n        /* \"#utility.yul\":1094:1111   */\n      add\n        /* \"#utility.yul\":1087:1134   */\n      mstore\n        /* \"#utility.yul\":1151:1229   */\n      tag_189\n        /* \"#utility.yul\":1224:1228   */\n      dup2\n        /* \"#utility.yul\":1215:1221   */\n      dup5\n        /* \"#utility.yul\":1151:1229   */\n      tag_147\n      jump\t// in\n    tag_189:\n        /* \"#utility.yul\":1143:1229   */\n      swap1\n      pop\n        /* \"#utility.yul\":923:1236   */\n      swap3\n      swap2\n      pop\n      pop\n      jump\t// out\n        /* \"#utility.yul\":1242:1368   */\n    tag_148:\n        /* \"#utility.yul\":1279:1286   */\n      0x00\n        /* \"#utility.yul\":1319:1361   */\n      0xffffffffffffffffffffffffffffffffffffffff\n        /* \"#utility.yul\":1312:1317   */\n      dup3\n        /* \"#utility.yul\":1308:1362   */\n      and\n        /* \"#utility.yul\":1297:1362   */\n      swap1\n      pop\n        /* \"#utility.yul\":1242:1368   */\n      swap2\n      swap1\n      pop\n      jump\t// out\n        /* \"#utility.yul\":1374:1470   */\n    tag_149:\n        /* \"#utility.yul\":1411:1418   */\n      0x00\n        /* \"#utility.yul\":1440:1464   */\n      tag_192\n        /* \"#utility.yul\":1458:1463   */\n      dup3\n        /* \"#utility.yul\":1440:1464   */\n      tag_148\n      jump\t// in\n    tag_192:\n        /* \"#utility.yul\":1429:1464   */\n      swap1\n      pop\n        /* \"#utility.yul\":1374:1470   */\n      swap2\n      swap1\n      pop\n      jump\t// out\n        /* \"#utility.yul\":1476:1594   */\n    tag_150:\n        /* \"#utility.yul\":1563:1587   */\n      tag_194\n        /* \"#utility.yul\":1581:1586   */\n      dup2\n        /* \"#utility.yul\":1563:1587   */\n      tag_149\n      jump\t// in\n    tag_194:\n        /* \"#utility.yul\":1558:1561   */\n      dup3\n        /* \"#utility.yul\":1551:1588   */\n      mstore\n        /* \"#utility.yul\":1476:1594   */\n      pop\n      pop\n      jump\t// out\n        /* \"#utility.yul\":1600:1822   */\n    tag_27:\n        /* \"#utility.yul\":1693:1697   */\n      0x00\n        /* \"#utility.yul\":1731:1733   */\n      0x20\n        /* \"#utility.yul\":1720:1729   */\n      dup3\n        /* \"#utility.yul\":1716:1734   */\n      add\n        /* \"#utility.yul\":1708:1734   */\n      swap1\n      pop\n        /* \"#utility.yul\":1744:1815   */\n      tag_196\n        /* \"#utility.yul\":1812:1813   */\n      0x00\n        /* \"#utility.yul\":1801:1810   */\n      dup4\n        /* \"#utility.yul\":1797:1814   */\n      add\n        /* \"#utility.yul\":1788:1794   */\n      dup5\n        /* \"#utility.yul\":1744:1815   */\n      tag_150\n      jump\t// in\n    tag_196:\n        /* \"#utility.yul\":1600:1822   */\n      swap3\n      swap2\n      pop\n      pop\n      jump\t// out\n        /* \"#utility.yul\":1909:2026   */\n    tag_152:\n        /* \"#utility.yul\":2018:2019   */\n      0x00\n        /* \"#utility.yul\":2015:2016   */\n      0x00\n        /* \"#utility.yul\":2008:2020   */\n      revert\n        /* \"#utility.yul\":2155:2277   */\n    tag_154:\n        /* \"#utility.yul\":2228:2252   */\n      tag_201\n        /* \"#utility.yul\":2246:2251   */\n      dup2\n        /* \"#utility.yul\":2228:2252   */\n      tag_149\n      jump\t// in\n    tag_201:\n        /* \"#utility.yul\":2221:2226   */\n      dup2\n        /* \"#utility.yul\":2218:2253   */\n      eq\n        /* \"#utility.yul\":2208:2271   */\n      tag_202\n      jumpi\n        /* \"#utility.yul\":2267:2268   */\n      0x00\n        /* \"#utility.yul\":2264:2265   */\n      0x00\n        /* \"#utility.yul\":2257:2269   */\n      revert\n        /* \"#utility.yul\":2208:2271   */\n    tag_202:\n        /* \"#utility.yul\":2155:2277   */\n      pop\n      jump\t// out\n        /* \"#utility.yul\":2283:2422   */\n    tag_155:\n        /* \"#utility.yul\":2329:2334   */\n      0x00\n        /* \"#utility.yul\":2367:2373   */\n      dup2\n        /* \"#utility.yul\":2354:2374   */\n      calldataload\n        /* \"#utility.yul\":2345:2374   */\n      swap1\n      pop\n        /* \"#utility.yul\":2383:2416   */\n      tag_204\n        /* \"#utility.yul\":2410:2415   */\n      dup2\n        /* \"#utility.yul\":2383:2416   */\n      tag_154\n      jump\t// in\n    tag_204:\n        /* \"#utility.yul\":2283:2422   */\n      swap3\n      swap2\n      pop\n      pop\n      jump\t// out\n        /* \"#utility.yul\":2428:2505   */\n    tag_156:\n        /* \"#utility.yul\":2465:2472   */\n      0x00\n        /* \"#utility.yul\":2494:2499   */\n      dup2\n        /* \"#utility.yul\":2483:2499   */\n      swap1\n      pop\n        /* \"#utility.yul\":2428:2505   */\n      swap2\n      swap1\n      pop\n      jump\t// out\n        /* \"#utility.yul\":2511:2633   */\n    tag_157:\n        /* \"#utility.yul\":2584:2608   */\n      tag_207\n        /* \"#utility.yul\":2602:2607   */\n      dup2\n        /* \"#utility.yul\":2584:2608   */\n      tag_156\n      jump\t// in\n    tag_207:\n        /* \"#utility.yul\":2577:2582   */\n      dup2\n        /* \"#utility.yul\":2574:2609   */\n      eq\n        /* \"#utility.yul\":2564:2627   */\n      tag_208\n      jumpi\n        /* \"#utility.yul\":2623:2624   */\n      0x00\n        /* \"#utility.yul\":2620:2621   */\n      0x00\n        /* \"#utility.yul\":2613:2625   */\n      revert\n        /* \"#utility.yul\":2564:2627   */\n    tag_208:\n        /* \"#utility.yul\":2511:2633   */\n      pop\n      jump\t// out\n        /* \"#utility.yul\":2639:2778   */\n    tag_158:\n        /* \"#utility.yul\":2685:2690   */\n      0x00\n        /* \"#utility.yul\":2723:2729   */\n      dup2\n        /* \"#utility.yul\":2710:2730   */\n      calldataload\n        /* \"#utility.yul\":2701:2730   */\n      swap1\n      pop\n        /* \"#utility.yul\":2739:2772   */\n      tag_210\n        /* \"#utility.yul\":2766:2771   */\n      dup2\n        /* \"#utility.yul\":2739:2772   */\n      tag_157\n      jump\t// in\n    tag_210:\n        /* \"#utility.yul\":2639:2778   */\n      swap3\n      swap2\n      pop\n      pop\n      jump\t// out\n        /* \"#utility.yul\":2784:3258   */\n    tag_30:\n        /* \"#utility.yul\":2852:2858   */\n      0x00\n        /* \"#utility.yul\":2860:2866   */\n      0x00\n        /* \"#utility.yul\":2909:2911   */\n      0x40\n        /* \"#utility.yul\":2897:2906   */\n      dup4\n        /* \"#utility.yul\":2888:2895   */\n      dup6\n        /* \"#utility.yul\":2884:2907   */\n      sub\n        /* \"#utility.yul\":2880:2912   */\n      slt\n        /* \"#utility.yul\":2877:2996   */\n      iszero\n      tag_212\n      jumpi\n        /* \"#utility.yul\":2915:2994   */\n      tag_213\n      tag_152\n      jump\t// in\n    tag_213:\n        /* \"#utility.yul\":2877:2996   */\n    tag_212:\n        /* \"#utility.yul\":3035:3036   */\n      0x00\n        /* \"#utility.yul\":3060:3113   */\n      tag_214\n        /* \"#utility.yul\":3105:3112   */\n      dup6\n        /* \"#utility.yul\":3096:3102   */\n      dup3\n        /* \"#utility.yul\":3085:3094   */\n      dup7\n        /* \"#utility.yul\":3081:3103   */\n      add\n        /* \"#utility.yul\":3060:3113   */\n      tag_155\n      jump\t// in\n    tag_214:\n        /* \"#utility.yul\":3050:3113   */\n      swap3\n      pop\n        /* \"#utility.yul\":3006:3123   */\n      pop\n        /* \"#utility.yul\":3162:3164   */\n      0x20\n        /* \"#utility.yul\":3188:3241   */\n      tag_215\n        /* \"#utility.yul\":3233:3240   */\n      dup6\n        /* \"#utility.yul\":3224:3230   */\n      dup3\n        /* \"#utility.yul\":3213:3222   */\n      dup7\n        /* \"#utility.yul\":3209:3231   */\n      add\n        /* \"#utility.yul\":3188:3241   */\n      tag_158\n      jump\t// in\n    tag_215:\n        /* \"#utility.yul\":3178:3241   */\n      swap2\n      pop\n        /* \"#utility.yul\":3133:3251   */\n      pop\n        /* \"#utility.yul\":2784:3258   */\n      swap3\n      pop\n      swap3\n      swap1\n      pop\n      jump\t// out\n        /* \"#utility.yul\":3264:3354   */\n    tag_159:\n        /* \"#utility.yul\":3298:3305   */\n      0x00\n        /* \"#utility.yul\":3341:3346   */\n      dup2\n        /* \"#utility.yul\":3334:3347   */\n      iszero\n        /* \"#utility.yul\":3327:3348   */\n      iszero\n        /* \"#utility.yul\":3316:3348   */\n      swap1\n      pop\n        /* \"#utility.yul\":3264:3354   */\n      swap2\n      swap1\n      pop\n      jump\t// out\n        /* \"#utility.yul\":3360:3469   */\n    tag_160:\n        /* \"#utility.yul\":3441:3462   */\n      tag_218\n        /* \"#utility.yul\":3456:3461   */\n      dup2\n        /* \"#utility.yul\":3441:3462   */\n      tag_159\n      jump\t// in\n    tag_218:\n        /* \"#utility.yul\":3436:3439   */\n      dup3\n        /* \"#utility.yul\":3429:3463   */\n      mstore\n        /* \"#utility.yul\":3360:3469   */\n      pop\n      pop\n      jump\t// out\n        /* \"#utility.yul\":3475:3685   */\n    tag_33:\n        /* \"#utility.yul\":3562:3566   */\n      0x00\n        /* \"#utility.yul\":3600:3602   */\n      0x20\n        /* \"#utility.yul\":3589:3598   */\n      dup3\n        /* \"#utility.yul\":3585:3603   */\n      add\n        /* \"#utility.yul\":3577:3603   */\n      swap1\n      pop\n        /* \"#utility.yul\":3613:3678   */\n      tag_220\n        /* \"#utility.yul\":3675:3676   */\n      0x00\n        /* \"#utility.yul\":3664:3673   */\n      dup4\n        /* \"#utility.yul\":3660:3677   */\n      add\n        /* \"#utility.yul\":3651:3657   */\n      dup5\n        /* \"#utility.yul\":3613:3678   */\n      tag_160\n      jump\t// in\n    tag_220:\n        /* \"#utility.yul\":3475:3685   */\n      swap3\n      swap2\n      pop\n      pop\n      jump\t// out\n        /* \"#utility.yul\":3691:3809   */\n    tag_161:\n        /* \"#utility.yul\":3778:3802   */\n      tag_222\n        /* \"#utility.yul\":3796:3801   */\n      dup2\n        /* \"#utility.yul\":3778:3802   */\n      tag_156\n      jump\t// in\n    tag_222:\n        /* \"#utility.yul\":3773:3776   */\n      dup3\n        /* \"#utility.yul\":3766:3803   */\n      mstore\n        /* \"#utility.yul\":3691:3809   */\n      pop\n      pop\n      jump\t// out\n        /* \"#utility.yul\":3815:4037   */\n    tag_37:\n        /* \"#utility.yul\":3908:3912   */\n      0x00\n        /* \"#utility.yul\":3946:3948   */\n      0x20\n        /* \"#utility.yul\":3935:3944   */\n      dup3\n        /* \"#utility.yul\":3931:3949   */\n      add\n        /* \"#utility.yul\":3923:3949   */\n      swap1\n      pop\n        /* \"#utility.yul\":3959:4030   */\n      tag_224\n        /* \"#utility.yul\":4027:4028   */\n      0x00\n        /* \"#utility.yul\":4016:4025   */\n      dup4\n        /* \"#utility.yul\":4012:4029   */\n      add\n        /* \"#utility.yul\":4003:4009   */\n      dup5\n        /* \"#utility.yul\":3959:4030   */\n      tag_161\n      jump\t// in\n    tag_224:\n        /* \"#utility.yul\":3815:4037   */\n      swap3\n      swap2\n      pop\n      pop\n      jump\t// out\n        /* \"#utility.yul\":4043:4662   */\n    tag_40:\n        /* \"#utility.yul\":4120:4126   */\n      0x00\n        /* \"#utility.yul\":4128:4134   */\n      0x00\n        /* \"#utility.yul\":4136:4142   */\n      0x00\n        /* \"#utility.yul\":4185:4187   */\n      0x60\n        /* \"#utility.yul\":4173:4182   */\n      dup5\n        /* \"#utility.yul\":4164:4171   */\n      dup7\n        /* \"#utility.yul\":4160:4183   */\n      sub\n        /* \"#utility.yul\":4156:4188   */\n      slt\n        /* \"#utility.yul\":4153:4272   */\n      iszero\n      tag_226\n      jumpi\n        /* \"#utility.yul\":4191:4270   */\n      tag_227\n      tag_152\n      jump\t// in\n    tag_227:\n        /* \"#utility.yul\":4153:4272   */\n    tag_226:\n        /* \"#utility.yul\":4311:4312   */\n      0x00\n        /* \"#utility.yul\":4336:4389   */\n      tag_228\n        /* \"#utility.yul\":4381:4388   */\n      dup7\n        /* \"#utility.yul\":4372:4378   */\n      dup3\n        /* \"#utility.yul\":4361:4370   */\n      dup8\n        /* \"#utility.yul\":4357:4379   */\n      add\n        /* \"#utility.yul\":4336:4389   */\n      tag_155\n      jump\t// in\n    tag_228:\n        /* \"#utility.yul\":4326:4389   */\n      swap4\n      pop\n        /* \"#utility.yul\":4282:4399   */\n      pop\n        /* \"#utility.yul\":4438:4440   */\n      0x20\n        /* \"#utility.yul\":4464:4517   */\n      tag_229\n        /* \"#utility.yul\":4509:4516   */\n      dup7\n        /* \"#utility.yul\":4500:4506   */\n      dup3\n        /* \"#utility.yul\":4489:4498   */\n      dup8\n        /* \"#utility.yul\":4485:4507   */\n      add\n        /* \"#utility.yul\":4464:4517   */\n      tag_155\n      jump\t// in\n    tag_229:\n        /* \"#utility.yul\":4454:4517   */\n      swap3\n      pop\n        /* \"#utility.yul\":4409:4527   */\n      pop\n        /* \"#utility.yul\":4566:4568   */\n      0x40\n        /* \"#utility.yul\":4592:4645   */\n      tag_230\n        /* \"#utility.yul\":4637:4644   */\n      dup7\n        /* \"#utility.yul\":4628:4634   */\n      dup3\n        /* \"#utility.yul\":4617:4626   */\n      dup8\n        /* \"#utility.yul\":4613:4635   */\n      add\n        /* \"#utility.yul\":4592:4645   */\n      tag_158\n      jump\t// in\n    tag_230:\n        /* \"#utility.yul\":4582:4645   */\n      swap2\n      pop\n        /* \"#utility.yul\":4537:4655   */\n      pop\n        /* \"#utility.yul\":4043:4662   */\n      swap3\n      pop\n      swap3\n      pop\n      swap3\n      jump\t// out\n        /* \"#utility.yul\":4668:4754   */\n    tag_162:\n        /* \"#utility.yul\":4703:4710   */\n      0x00\n        /* \"#utility.yul\":4743:4747   */\n      0xff\n        /* \"#utility.yul\":4736:4741   */\n      dup3\n        /* \"#utility.yul\":4732:4748   */\n      and\n        /* \"#utility.yul\":4721:4748   */\n      swap1\n      pop\n        /* \"#utility.yul\":4668:4754   */\n      swap2\n      swap1\n      pop\n      jump\t// out\n        /* \"#utility.yul\":4760:4872   */\n    tag_163:\n        /* \"#utility.yul\":4843:4865   */\n      tag_233\n        /* \"#utility.yul\":4859:4864   */\n      dup2\n        /* \"#utility.yul\":4843:4865   */\n      tag_162\n      jump\t// in\n    tag_233:\n        /* \"#utility.yul\":4838:4841   */\n      dup3\n        /* \"#utility.yul\":4831:4866   */\n      mstore\n        /* \"#utility.yul\":4760:4872   */\n      pop\n      pop\n      jump\t// out\n        /* \"#utility.yul\":4878:5092   */\n    tag_46:\n        /* \"#utility.yul\":4967:4971   */\n      0x00\n        /* \"#utility.yul\":5005:5007   */\n      0x20\n        /* \"#utility.yul\":4994:5003   */\n      dup3\n        /* \"#utility.yul\":4990:5008   */\n      add\n        /* \"#utility.yul\":4982:5008   */\n      swap1\n      pop\n        /* \"#utility.yul\":5018:5085   */\n      tag_235\n        /* \"#utility.yul\":5082:5083   */\n      0x00\n        /* \"#utility.yul\":5071:5080   */\n      dup4\n        /* \"#utility.yul\":5067:5084   */\n      add\n        /* \"#utility.yul\":5058:5064   */\n      dup5\n        /* \"#utility.yul\":5018:5085   */\n      tag_163\n      jump\t// in\n    tag_235:\n        /* \"#utility.yul\":4878:5092   */\n      swap3\n      swap2\n      pop\n      pop\n      jump\t// out\n        /* \"#utility.yul\":5098:5427   */\n    tag_56:\n        /* \"#utility.yul\":5157:5163   */\n      0x00\n        /* \"#utility.yul\":5206:5208   */\n      0x20\n        /* \"#utility.yul\":5194:5203   */\n      dup3\n        /* \"#utility.yul\":5185:5192   */\n      dup5\n        /* \"#utility.yul\":5181:5204   */\n      sub\n        /* \"#utility.yul\":5177:5209   */\n      slt\n        /* \"#utility.yul\":5174:5293   */\n      iszero\n      tag_237\n      jumpi\n        /* \"#utility.yul\":5212:5291   */\n      tag_238\n      tag_152\n      jump\t// in\n    tag_238:\n        /* \"#utility.yul\":5174:5293   */\n    tag_237:\n        /* \"#utility.yul\":5332:5333   */\n      0x00\n        /* \"#utility.yul\":5357:5410   */\n      tag_239\n        /* \"#utility.yul\":5402:5409   */\n      dup5\n        /* \"#utility.yul\":5393:5399   */\n      dup3\n        /* \"#utility.yul\":5382:5391   */\n      dup6\n        /* \"#utility.yul\":5378:5400   */\n      add\n        /* \"#utility.yul\":5357:5410   */\n      tag_158\n      jump\t// in\n    tag_239:\n        /* \"#utility.yul\":5347:5410   */\n      swap2\n      pop\n        /* \"#utility.yul\":5303:5420   */\n      pop\n        /* \"#utility.yul\":5098:5427   */\n      swap3\n      swap2\n      pop\n      pop\n      jump\t// out\n        /* \"#utility.yul\":5433:5762   */\n    tag_61:\n        /* \"#utility.yul\":5492:5498   */\n      0x00\n        /* \"#utility.yul\":5541:5543   */\n      0x20\n        /* \"#utility.yul\":5529:5538   */\n      dup3\n        /* \"#utility.yul\":5520:5527   */\n      dup5\n        /* \"#utility.yul\":5516:5539   */\n      sub\n        /* \"#utility.yul\":5512:5544   */\n      slt\n        /* \"#utility.yul\":5509:5628   */\n      iszero\n      tag_241\n      jumpi\n        /* \"#utility.yul\":5547:5626   */\n      tag_242\n      tag_152\n      jump\t// in\n    tag_242:\n        /* \"#utility.yul\":5509:5628   */\n    tag_241:\n        /* \"#utility.yul\":5667:5668   */\n      0x00\n        /* \"#utility.yul\":5692:5745   */\n      tag_243\n        /* \"#utility.yul\":5737:5744   */\n      dup5\n        /* \"#utility.yul\":5728:5734   */\n      dup3\n        /* \"#utility.yul\":5717:5726   */\n      dup6\n        /* \"#utility.yul\":5713:5735   */\n      add\n        /* \"#utility.yul\":5692:5745   */\n      tag_155\n      jump\t// in\n    tag_243:\n        /* \"#utility.yul\":5682:5745   */\n      swap2\n      pop\n        /* \"#utility.yul\":5638:5755   */\n      pop\n        /* \"#utility.yul\":5433:5762   */\n      swap3\n      swap2\n      pop\n      pop\n      jump\t// out\n        /* \"#utility.yul\":5768:6242   */\n    tag_76:\n        /* \"#utility.yul\":5836:5842   */\n      0x00\n        /* \"#utility.yul\":5844:5850   */\n      0x00\n        /* \"#utility.yul\":5893:5895   */\n      0x40\n        /* \"#utility.yul\":5881:5890   */\n      dup4\n        /* \"#utility.yul\":5872:5879   */\n      dup6\n        /* \"#utility.yul\":5868:5891   */\n      sub\n        /* \"#utility.yul\":5864:5896   */\n      slt\n        /* \"#utility.yul\":5861:5980   */\n      iszero\n      tag_245\n      jumpi\n        /* \"#utility.yul\":5899:5978   */\n      tag_246\n      tag_152\n      jump\t// in\n    tag_246:\n        /* \"#utility.yul\":5861:5980   */\n    tag_245:\n        /* \"#utility.yul\":6019:6020   */\n      0x00\n        /* \"#utility.yul\":6044:6097   */\n      tag_247\n        /* \"#utility.yul\":6089:6096   */\n      dup6\n        /* \"#utility.yul\":6080:6086   */\n      dup3\n        /* \"#utility.yul\":6069:6078   */\n      dup7\n        /* \"#utility.yul\":6065:6087   */\n      add\n        /* \"#utility.yul\":6044:6097   */\n      tag_155\n      jump\t// in\n    tag_247:\n        /* \"#utility.yul\":6034:6097   */\n      swap3\n      pop\n        /* \"#utility.yul\":5990:6107   */\n      pop\n        /* \"#utility.yul\":6146:6148   */\n      0x20\n        /* \"#utility.yul\":6172:6225   */\n      tag_248\n        /* \"#utility.yul\":6217:6224   */\n      dup6\n        /* \"#utility.yul\":6208:6214   */\n      dup3\n        /* \"#utility.yul\":6197:6206   */\n      dup7\n        /* \"#utility.yul\":6193:6215   */\n      add\n        /* \"#utility.yul\":6172:6225   */\n      tag_155\n      jump\t// in\n    tag_248:\n        /* \"#utility.yul\":6162:6225   */\n      swap2\n      pop\n        /* \"#utility.yul\":6117:6235   */\n      pop\n        /* \"#utility.yul\":5768:6242   */\n      swap3\n      pop\n      swap3\n      swap1\n      pop\n      jump\t// out\n        /* \"#utility.yul\":6248:6428   */\n    tag_164:\n        /* \"#utility.yul\":6296:6373   */\n      0x4e487b7100000000000000000000000000000000000000000000000000000000\n        /* \"#utility.yul\":6293:6294   */\n      0x00\n        /* \"#utility.yul\":6286:6374   */\n      mstore\n        /* \"#utility.yul\":6393:6397   */\n      0x22\n        /* \"#utility.yul\":6390:6391   */\n      0x04\n        /* \"#utility.yul\":6383:6398   */\n      mstore\n        /* \"#utility.yul\":6417:6421   */\n      0x24\n        /* \"#utility.yul\":6414:6415   */\n      0x00\n        /* \"#utility.yul\":6407:6422   */\n      revert\n        /* \"#utility.yul\":6434:6754   */\n    tag_81:\n        /* \"#utility.yul\":6478:6484   */\n      0x00\n        /* \"#utility.yul\":6515:6516   */\n      0x02\n        /* \"#utility.yul\":6509:6513   */\n      dup3\n        /* \"#utility.yul\":6505:6517   */\n      div\n        /* \"#utility.yul\":6495:6517   */\n      swap1\n      pop\n        /* \"#utility.yul\":6562:6563   */\n      0x01\n        /* \"#utility.yul\":6556:6560   */\n      dup3\n        /* \"#utility.yul\":6552:6564   */\n      and\n        /* \"#utility.yul\":6583:6601   */\n      dup1\n        /* \"#utility.yul\":6573:6654   */\n      tag_251\n      jumpi\n        /* \"#utility.yul\":6639:6643   */\n      0x7f\n        /* \"#utility.yul\":6631:6637   */\n      dup3\n        /* \"#utility.yul\":6627:6644   */\n      and\n        /* \"#utility.yul\":6617:6644   */\n      swap2\n      pop\n        /* \"#utility.yul\":6573:6654   */\n    tag_251:\n        /* \"#utility.yul\":6701:6703   */\n      0x20\n        /* \"#utility.yul\":6693:6699   */\n      dup3\n        /* \"#utility.yul\":6690:6704   */\n      lt\n        /* \"#utility.yul\":6670:6688   */\n      dup2\n        /* \"#utility.yul\":6667:6705   */\n      sub\n        /* \"#utility.yul\":6664:6748   */\n      tag_252\n      jumpi\n        /* \"#utility.yul\":6720:6738   */\n      tag_253\n      tag_164\n      jump\t// in\n    tag_253:\n        /* \"#utility.yul\":6664:6748   */\n    tag_252:\n        /* \"#utility.yul\":6485:6754   */\n      pop\n        /* \"#utility.yul\":6434:6754   */\n      swap2\n      swap1\n      pop\n      jump\t// out\n        /* \"#utility.yul\":6760:6933   */\n    tag_165:\n        /* \"#utility.yul\":6900:6925   */\n      0x43796265724f7263733a205a65726f2041646472657373000000000000000000\n        /* \"#utility.yul\":6896:6897   */\n      0x00\n        /* \"#utility.yul\":6888:6894   */\n      dup3\n        /* \"#utility.yul\":6884:6898   */\n      add\n        /* \"#utility.yul\":6877:6926   */\n      mstore\n        /* \"#utility.yul\":6760:6933   */\n      pop\n      jump\t// out\n        /* \"#utility.yul\":6939:7305   */\n    tag_166:\n        /* \"#utility.yul\":7081:7084   */\n      0x00\n        /* \"#utility.yul\":7102:7169   */\n      tag_256\n        /* \"#utility.yul\":7166:7168   */\n      0x17\n        /* \"#utility.yul\":7161:7164   */\n      dup4\n        /* \"#utility.yul\":7102:7169   */\n      tag_144\n      jump\t// in\n    tag_256:\n        /* \"#utility.yul\":7095:7169   */\n      swap2\n      pop\n        /* \"#utility.yul\":7178:7271   */\n      tag_257\n        /* \"#utility.yul\":7267:7270   */\n      dup3\n        /* \"#utility.yul\":7178:7271   */\n      tag_165\n      jump\t// in\n    tag_257:\n        /* \"#utility.yul\":7296:7298   */\n      0x20\n        /* \"#utility.yul\":7291:7294   */\n      dup3\n        /* \"#utility.yul\":7287:7299   */\n      add\n        /* \"#utility.yul\":7280:7299   */\n      swap1\n      pop\n        /* \"#utility.yul\":6939:7305   */\n      swap2\n      swap1\n      pop\n      jump\t// out\n        /* \"#utility.yul\":7311:7730   */\n    tag_89:\n        /* \"#utility.yul\":7477:7481   */\n      0x00\n        /* \"#utility.yul\":7515:7517   */\n      0x20\n        /* \"#utility.yul\":7504:7513   */\n      dup3\n        /* \"#utility.yul\":7500:7518   */\n      add\n        /* \"#utility.yul\":7492:7518   */\n      swap1\n      pop\n        /* \"#utility.yul\":7564:7573   */\n      dup2\n        /* \"#utility.yul\":7558:7562   */\n      dup2\n        /* \"#utility.yul\":7554:7574   */\n      sub\n        /* \"#utility.yul\":7550:7551   */\n      0x00\n        /* \"#utility.yul\":7539:7548   */\n      dup4\n        /* \"#utility.yul\":7535:7552   */\n      add\n        /* \"#utility.yul\":7528:7575   */\n      mstore\n        /* \"#utility.yul\":7592:7723   */\n      tag_259\n        /* \"#utility.yul\":7718:7722   */\n      dup2\n        /* \"#utility.yul\":7592:7723   */\n      tag_166\n      jump\t// in\n    tag_259:\n        /* \"#utility.yul\":7584:7723   */\n      swap1\n      pop\n        /* \"#utility.yul\":7311:7730   */\n      swap2\n      swap1\n      pop\n      jump\t// out\n        /* \"#utility.yul\":7736:7910   */\n    tag_167:\n        /* \"#utility.yul\":7876:7902   */\n      0x43796265726f7263733a204c6f7720416c6c6f77616e63650000000000000000\n        /* \"#utility.yul\":7872:7873   */\n      0x00\n        /* \"#utility.yul\":7864:7870   */\n      dup3\n        /* \"#utility.yul\":7860:7874   */\n      add\n        /* \"#utility.yul\":7853:7903   */\n      mstore\n        /* \"#utility.yul\":7736:7910   */\n      pop\n      jump\t// out\n        /* \"#utility.yul\":7916:8282   */\n    tag_168:\n        /* \"#utility.yul\":8058:8061   */\n      0x00\n        /* \"#utility.yul\":8079:8146   */\n      tag_262\n        /* \"#utility.yul\":8143:8145   */\n      0x18\n        /* \"#utility.yul\":8138:8141   */\n      dup4\n        /* \"#utility.yul\":8079:8146   */\n      tag_144\n      jump\t// in\n    tag_262:\n        /* \"#utility.yul\":8072:8146   */\n      swap2\n      pop\n        /* \"#utility.yul\":8155:8248   */\n      tag_263\n        /* \"#utility.yul\":8244:8247   */\n      dup3\n        /* \"#utility.yul\":8155:8248   */\n      tag_167\n      jump\t// in\n    tag_263:\n        /* \"#utility.yul\":8273:8275   */\n      0x20\n        /* \"#utility.yul\":8268:8271   */\n      dup3\n        /* \"#utility.yul\":8264:8276   */\n      add\n        /* \"#utility.yul\":8257:8276   */\n      swap1\n      pop\n        /* \"#utility.yul\":7916:8282   */\n      swap2\n      swap1\n      pop\n      jump\t// out\n        /* \"#utility.yul\":8288:8707   */\n    tag_94:\n        /* \"#utility.yul\":8454:8458   */\n      0x00\n        /* \"#utility.yul\":8492:8494   */\n      0x20\n        /* \"#utility.yul\":8481:8490   */\n      dup3\n        /* \"#utility.yul\":8477:8495   */\n      add\n        /* \"#utility.yul\":8469:8495   */\n      swap1\n      pop\n        /* \"#utility.yul\":8541:8550   */\n      dup2\n        /* \"#utility.yul\":8535:8539   */\n      dup2\n        /* \"#utility.yul\":8531:8551   */\n      sub\n        /* \"#utility.yul\":8527:8528   */\n      0x00\n        /* \"#utility.yul\":8516:8525   */\n      dup4\n        /* \"#utility.yul\":8512:8529   */\n      add\n        /* \"#utility.yul\":8505:8552   */\n      mstore\n        /* \"#utility.yul\":8569:8700   */\n      tag_265\n        /* \"#utility.yul\":8695:8699   */\n      dup2\n        /* \"#utility.yul\":8569:8700   */\n      tag_168\n      jump\t// in\n    tag_265:\n        /* \"#utility.yul\":8561:8700   */\n      swap1\n      pop\n        /* \"#utility.yul\":8288:8707   */\n      swap2\n      swap1\n      pop\n      jump\t// out\n        /* \"#utility.yul\":8713:8893   */\n    tag_169:\n        /* \"#utility.yul\":8761:8838   */\n      0x4e487b7100000000000000000000000000000000000000000000000000000000\n        /* \"#utility.yul\":8758:8759   */\n      0x00\n        /* \"#utility.yul\":8751:8839   */\n      mstore\n        /* \"#utility.yul\":8858:8862   */\n      0x11\n        /* \"#utility.yul\":8855:8856   */\n      0x04\n        /* \"#utility.yul\":8848:8863   */\n      mstore\n        /* \"#utility.yul\":8882:8886   */\n      0x24\n        /* \"#utility.yul\":8879:8880   */\n      0x00\n        /* \"#utility.yul\":8872:8887   */\n      revert\n        /* \"#utility.yul\":8899:9093   */\n    tag_96:\n        /* \"#utility.yul\":8939:8943   */\n      0x00\n        /* \"#utility.yul\":8959:8979   */\n      tag_268\n        /* \"#utility.yul\":8977:8978   */\n      dup3\n        /* \"#utility.yul\":8959:8979   */\n      tag_156\n      jump\t// in\n    tag_268:\n        /* \"#utility.yul\":8954:8979   */\n      swap2\n      pop\n        /* \"#utility.yul\":8993:9013   */\n      tag_269\n        /* \"#utility.yul\":9011:9012   */\n      dup4\n        /* \"#utility.yul\":8993:9013   */\n      tag_156\n      jump\t// in\n    tag_269:\n        /* \"#utility.yul\":8988:9013   */\n      swap3\n      pop\n        /* \"#utility.yul\":9037:9038   */\n      dup3\n        /* \"#utility.yul\":9034:9035   */\n      dup3\n        /* \"#utility.yul\":9030:9039   */\n      sub\n        /* \"#utility.yul\":9022:9039   */\n      swap1\n      pop\n        /* \"#utility.yul\":9061:9062   */\n      dup2\n        /* \"#utility.yul\":9055:9059   */\n      dup2\n        /* \"#utility.yul\":9052:9063   */\n      gt\n        /* \"#utility.yul\":9049:9086   */\n      iszero\n      tag_270\n      jumpi\n        /* \"#utility.yul\":9066:9084   */\n      tag_271\n      tag_169\n      jump\t// in\n    tag_271:\n        /* \"#utility.yul\":9049:9086   */\n    tag_270:\n        /* \"#utility.yul\":8899:9093   */\n      swap3\n      swap2\n      pop\n      pop\n      jump\t// out\n        /* \"#utility.yul\":9099:9273   */\n    tag_170:\n        /* \"#utility.yul\":9239:9265   */\n      0x43796265726f7263733a204163636573732044656e6965640000000000000000\n        /* \"#utility.yul\":9235:9236   */\n      0x00\n        /* \"#utility.yul\":9227:9233   */\n      dup3\n        /* \"#utility.yul\":9223:9237   */\n      add\n        /* \"#utility.yul\":9216:9266   */\n      mstore\n        /* \"#utility.yul\":9099:9273   */\n      pop\n      jump\t// out\n        /* \"#utility.yul\":9279:9645   */\n    tag_171:\n        /* \"#utility.yul\":9421:9424   */\n      0x00\n        /* \"#utility.yul\":9442:9509   */\n      tag_274\n        /* \"#utility.yul\":9506:9508   */\n      0x18\n        /* \"#utility.yul\":9501:9504   */\n      dup4\n        /* \"#utility.yul\":9442:9509   */\n      tag_144\n      jump\t// in\n    tag_274:\n        /* \"#utility.yul\":9435:9509   */\n      swap2\n      pop\n        /* \"#utility.yul\":9518:9611   */\n      tag_275\n        /* \"#utility.yul\":9607:9610   */\n      dup3\n        /* \"#utility.yul\":9518:9611   */\n      tag_170\n      jump\t// in\n    tag_275:\n        /* \"#utility.yul\":9636:9638   */\n      0x20\n        /* \"#utility.yul\":9631:9634   */\n      dup3\n        /* \"#utility.yul\":9627:9639   */\n      add\n        /* \"#utility.yul\":9620:9639   */\n      swap1\n      pop\n        /* \"#utility.yul\":9279:9645   */\n      swap2\n      swap1\n      pop\n      jump\t// out\n        /* \"#utility.yul\":9651:10070   */\n    tag_104:\n        /* \"#utility.yul\":9817:9821   */\n      0x00\n        /* \"#utility.yul\":9855:9857   */\n      0x20\n        /* \"#utility.yul\":9844:9853   */\n      dup3\n        /* \"#utility.yul\":9840:9858   */\n      add\n        /* \"#utility.yul\":9832:9858   */\n      swap1\n      pop\n        /* \"#utility.yul\":9904:9913   */\n      dup2\n        /* \"#utility.yul\":9898:9902   */\n      dup2\n        /* \"#utility.yul\":9894:9914   */\n      sub\n        /* \"#utility.yul\":9890:9891   */\n      0x00\n        /* \"#utility.yul\":9879:9888   */\n      dup4\n        /* \"#utility.yul\":9875:9892   */\n      add\n        /* \"#utility.yul\":9868:9915   */\n      mstore\n        /* \"#utility.yul\":9932:10063   */\n      tag_277\n        /* \"#utility.yul\":10058:10062   */\n      dup2\n        /* \"#utility.yul\":9932:10063   */\n      tag_171\n      jump\t// in\n    tag_277:\n        /* \"#utility.yul\":9924:10063   */\n      swap1\n      pop\n        /* \"#utility.yul\":9651:10070   */\n      swap2\n      swap1\n      pop\n      jump\t// out\n        /* \"#utility.yul\":10076:10251   */\n    tag_172:\n        /* \"#utility.yul\":10216:10243   */\n      0x43796265726f7263733a205a65726f20726563697069656e7400000000000000\n        /* \"#utility.yul\":10212:10213   */\n      0x00\n        /* \"#utility.yul\":10204:10210   */\n      dup3\n        /* \"#utility.yul\":10200:10214   */\n      add\n        /* \"#utility.yul\":10193:10244   */\n      mstore\n        /* \"#utility.yul\":10076:10251   */\n      pop\n      jump\t// out\n        /* \"#utility.yul\":10257:10623   */\n    tag_173:\n        /* \"#utility.yul\":10399:10402   */\n      0x00\n        /* \"#utility.yul\":10420:10487   */\n      tag_280\n        /* \"#utility.yul\":10484:10486   */\n      0x19\n        /* \"#utility.yul\":10479:10482   */\n      dup4\n        /* \"#utility.yul\":10420:10487   */\n      tag_144\n      jump\t// in\n    tag_280:\n        /* \"#utility.yul\":10413:10487   */\n      swap2\n      pop\n        /* \"#utility.yul\":10496:10589   */\n      tag_281\n        /* \"#utility.yul\":10585:10588   */\n      dup3\n        /* \"#utility.yul\":10496:10589   */\n      tag_172\n      jump\t// in\n    tag_281:\n        /* \"#utility.yul\":10614:10616   */\n      0x20\n        /* \"#utility.yul\":10609:10612   */\n      dup3\n        /* \"#utility.yul\":10605:10617   */\n      add\n        /* \"#utility.yul\":10598:10617   */\n      swap1\n      pop\n        /* \"#utility.yul\":10257:10623   */\n      swap2\n      swap1\n      pop\n      jump\t// out\n        /* \"#utility.yul\":10629:11048   */\n    tag_107:\n        /* \"#utility.yul\":10795:10799   */\n      0x00\n        /* \"#utility.yul\":10833:10835   */\n      0x20\n        /* \"#utility.yul\":10822:10831   */\n      dup3\n        /* \"#utility.yul\":10818:10836   */\n      add\n        /* \"#utility.yul\":10810:10836   */\n      swap1\n      pop\n        /* \"#utility.yul\":10882:10891   */\n      dup2\n        /* \"#utility.yul\":10876:10880   */\n      dup2\n        /* \"#utility.yul\":10872:10892   */\n      sub\n        /* \"#utility.yul\":10868:10869   */\n      0x00\n        /* \"#utility.yul\":10857:10866   */\n      dup4\n        /* \"#utility.yul\":10853:10870   */\n      add\n        /* \"#utility.yul\":10846:10893   */\n      mstore\n        /* \"#utility.yul\":10910:11041   */\n      tag_283\n        /* \"#utility.yul\":11036:11040   */\n      dup2\n        /* \"#utility.yul\":10910:11041   */\n      tag_173\n      jump\t// in\n    tag_283:\n        /* \"#utility.yul\":10902:11041   */\n      swap1\n      pop\n        /* \"#utility.yul\":10629:11048   */\n      swap2\n      swap1\n      pop\n      jump\t// out\n        /* \"#utility.yul\":11054:11245   */\n    tag_109:\n        /* \"#utility.yul\":11094:11097   */\n      0x00\n        /* \"#utility.yul\":11113:11133   */\n      tag_285\n        /* \"#utility.yul\":11131:11132   */\n      dup3\n        /* \"#utility.yul\":11113:11133   */\n      tag_156\n      jump\t// in\n    tag_285:\n        /* \"#utility.yul\":11108:11133   */\n      swap2\n      pop\n        /* \"#utility.yul\":11147:11167   */\n      tag_286\n        /* \"#utility.yul\":11165:11166   */\n      dup4\n        /* \"#utility.yul\":11147:11167   */\n      tag_156\n      jump\t// in\n    tag_286:\n        /* \"#utility.yul\":11142:11167   */\n      swap3\n      pop\n        /* \"#utility.yul\":11190:11191   */\n      dup3\n        /* \"#utility.yul\":11187:11188   */\n      dup3\n        /* \"#utility.yul\":11183:11192   */\n      add\n        /* \"#utility.yul\":11176:11192   */\n      swap1\n      pop\n        /* \"#utility.yul\":11211:11214   */\n      dup1\n        /* \"#utility.yul\":11208:11209   */\n      dup3\n        /* \"#utility.yul\":11205:11215   */\n      gt\n        /* \"#utility.yul\":11202:11238   */\n      iszero\n      tag_287\n      jumpi\n        /* \"#utility.yul\":11218:11236   */\n      tag_288\n      tag_169\n      jump\t// in\n    tag_288:\n        /* \"#utility.yul\":11202:11238   */\n    tag_287:\n        /* \"#utility.yul\":11054:11245   */\n      swap3\n      swap2\n      pop\n      pop\n      jump\t// out\n        /* \"#utility.yul\":11251:11422   */\n    tag_174:\n        /* \"#utility.yul\":11391:11414   */\n      0x43796265726f7263733a204d617820537570706c790000000000000000000000\n        /* \"#utility.yul\":11387:11388   */\n      0x00\n        /* \"#utility.yul\":11379:11385   */\n      dup3\n        /* \"#utility.yul\":11375:11389   */\n      add\n        /* \"#utility.yul\":11368:11415   */\n      mstore\n        /* \"#utility.yul\":11251:11422   */\n      pop\n      jump\t// out\n        /* \"#utility.yul\":11428:11794   */\n    tag_175:\n        /* \"#utility.yul\":11570:11573   */\n      0x00\n        /* \"#utility.yul\":11591:11658   */\n      tag_291\n        /* \"#utility.yul\":11655:11657   */\n      0x15\n        /* \"#utility.yul\":11650:11653   */\n      dup4\n        /* \"#utility.yul\":11591:11658   */\n      tag_144\n      jump\t// in\n    tag_291:\n        /* \"#utility.yul\":11584:11658   */\n      swap2\n      pop\n        /* \"#utility.yul\":11667:11760   */\n      tag_292\n        /* \"#utility.yul\":11756:11759   */\n      dup3\n        /* \"#utility.yul\":11667:11760   */\n      tag_174\n      jump\t// in\n    tag_292:\n        /* \"#utility.yul\":11785:11787   */\n      0x20\n        /* \"#utility.yul\":11780:11783   */\n      dup3\n        /* \"#utility.yul\":11776:11788   */\n      add\n        /* \"#utility.yul\":11769:11788   */\n      swap1\n      pop\n        /* \"#utility.yul\":11428:11794   */\n      swap2\n      swap1\n      pop\n      jump\t// out\n        /* \"#utility.yul\":11800:12219   */\n    tag_112:\n        /* \"#utility.yul\":11966:11970   */\n      0x00\n        /* \"#utility.yul\":12004:12006   */\n      0x20\n        /* \"#utility.yul\":11993:12002   */\n      dup3\n        /* \"#utility.yul\":11989:12007   */\n      add\n        /* \"#utility.yul\":11981:12007   */\n      swap1\n      pop\n        /* \"#utility.yul\":12053:12062   */\n      dup2\n        /* \"#utility.yul\":12047:12051   */\n      dup2\n        /* \"#utility.yul\":12043:12063   */\n      sub\n        /* \"#utility.yul\":12039:12040   */\n      0x00\n        /* \"#utility.yul\":12028:12037   */\n      dup4\n        /* \"#utility.yul\":12024:12041   */\n      add\n        /* \"#utility.yul\":12017:12064   */\n      mstore\n        /* \"#utility.yul\":12081:12212   */\n      tag_294\n        /* \"#utility.yul\":12207:12211   */\n      dup2\n        /* \"#utility.yul\":12081:12212   */\n      tag_175\n      jump\t// in\n    tag_294:\n        /* \"#utility.yul\":12073:12212   */\n      swap1\n      pop\n        /* \"#utility.yul\":11800:12219   */\n      swap2\n      swap1\n      pop\n      jump\t// out\n        /* \"#utility.yul\":12225:12397   */\n    tag_176:\n        /* \"#utility.yul\":12365:12389   */\n      0x43796265726f7263733a204c6f772042616c616e636500000000000000000000\n        /* \"#utility.yul\":12361:12362   */\n      0x00\n        /* \"#utility.yul\":12353:12359   */\n      dup3\n        /* \"#utility.yul\":12349:12363   */\n      add\n        /* \"#utility.yul\":12342:12390   */\n      mstore\n        /* \"#utility.yul\":12225:12397   */\n      pop\n      jump\t// out\n        /* \"#utility.yul\":12403:12769   */\n    tag_177:\n        /* \"#utility.yul\":12545:12548   */\n      0x00\n        /* \"#utility.yul\":12566:12633   */\n      tag_297\n        /* \"#utility.yul\":12630:12632   */\n      0x16\n        /* \"#utility.yul\":12625:12628   */\n      dup4\n        /* \"#utility.yul\":12566:12633   */\n      tag_144\n      jump\t// in\n    tag_297:\n        /* \"#utility.yul\":12559:12633   */\n      swap2\n      pop\n        /* \"#utility.yul\":12642:12735   */\n      tag_298\n        /* \"#utility.yul\":12731:12734   */\n      dup3\n        /* \"#utility.yul\":12642:12735   */\n      tag_176\n      jump\t// in\n    tag_298:\n        /* \"#utility.yul\":12760:12762   */\n      0x20\n        /* \"#utility.yul\":12755:12758   */\n      dup3\n        /* \"#utility.yul\":12751:12763   */\n      add\n        /* \"#utility.yul\":12744:12763   */\n      swap1\n      pop\n        /* \"#utility.yul\":12403:12769   */\n      swap2\n      swap1\n      pop\n      jump\t// out\n        /* \"#utility.yul\":12775:13194   */\n    tag_119:\n        /* \"#utility.yul\":12941:12945   */\n      0x00\n        /* \"#utility.yul\":12979:12981   */\n      0x20\n        /* \"#utility.yul\":12968:12977   */\n      dup3\n        /* \"#utility.yul\":12964:12982   */\n      add\n        /* \"#utility.yul\":12956:12982   */\n      swap1\n      pop\n        /* \"#utility.yul\":13028:13037   */\n      dup2\n        /* \"#utility.yul\":13022:13026   */\n      dup2\n        /* \"#utility.yul\":13018:13038   */\n      sub\n        /* \"#utility.yul\":13014:13015   */\n      0x00\n        /* \"#utility.yul\":13003:13012   */\n      dup4\n        /* \"#utility.yul\":12999:13016   */\n      add\n        /* \"#utility.yul\":12992:13039   */\n      mstore\n        /* \"#utility.yul\":13056:13187   */\n      tag_300\n        /* \"#utility.yul\":13182:13186   */\n      dup2\n        /* \"#utility.yul\":13056:13187   */\n      tag_177\n      jump\t// in\n    tag_300:\n        /* \"#utility.yul\":13048:13187   */\n      swap1\n      pop\n        /* \"#utility.yul\":12775:13194   */\n      swap2\n      swap1\n      pop\n      jump\t// out\n\n    auxdata: 0xa264697066735822122024646c83f349965ed56d6286e290e1f39dececb6b9b6ad4c11092652663226b664736f6c634300081e0033\n}\n",
				"bytecode": {
					"linkReferences": {},
					"object": "60a060405234801561000f575f5ffd5b50604051611d55380380611d55833981810160405281019061003191906103a8565b5f73ffffffffffffffffffffffffffffffffffffffff168173ffffffffffffffffffffffffffffffffffffffff160361009f576040517f08c379a00000000000000000000000000000000000000000000000000000000081526004016100969061049e565b60405180910390fd5b835f90816100ad91906106c3565b5082600190816100bd91906106c3565b5081608081815250503360035f6101000a81548173ffffffffffffffffffffffffffffffffffffffff021916908373ffffffffffffffffffffffffffffffffffffffff1602179055505f60028361011491906107bf565b90508060045f8473ffffffffffffffffffffffffffffffffffffffff1673ffffffffffffffffffffffffffffffffffffffff1681526020019081526020015f2081905550806002819055508173ffffffffffffffffffffffffffffffffffffffff165f73ffffffffffffffffffffffffffffffffffffffff167fddf252ad1be2c89b69c2b068fc378daa952ba7f163c4a11628f55a4df523b3ef836040516101bc91906107fe565b60405180910390a35050505050610817565b5f604051905090565b5f5ffd5b5f5ffd5b5f5ffd5b5f5ffd5b5f601f19601f8301169050919050565b7f4e487b71000000000000000000000000000000000000000000000000000000005f52604160045260245ffd5b61022d826101e7565b810181811067ffffffffffffffff8211171561024c5761024b6101f7565b5b80604052505050565b5f61025e6101ce565b905061026a8282610224565b919050565b5f67ffffffffffffffff821115610289576102886101f7565b5b610292826101e7565b9050602081019050919050565b8281835e5f83830152505050565b5f6102bf6102ba8461026f565b610255565b9050828152602081018484840111156102db576102da6101e3565b5b6102e684828561029f565b509392505050565b5f82601f830112610302576103016101df565b5b81516103128482602086016102ad565b91505092915050565b5f819050919050565b61032d8161031b565b8114610337575f5ffd5b50565b5f8151905061034881610324565b92915050565b5f73ffffffffffffffffffffffffffffffffffffffff82169050919050565b5f6103778261034e565b9050919050565b6103878161036d565b8114610391575f5ffd5b50565b5f815190506103a28161037e565b92915050565b5f5f5f5f608085870312156103c0576103bf6101d7565b5b5f85015167ffffffffffffffff8111156103dd576103dc6101db565b5b6103e9878288016102ee565b945050602085015167ffffffffffffffff81111561040a576104096101db565b5b610416878288016102ee565b93505060406104278782880161033a565b925050606061043887828801610394565b91505092959194509250565b5f82825260208201905092915050565b7f5a65726f207472656173757279000000000000000000000000000000000000005f82015250565b5f610488600d83610444565b915061049382610454565b602082019050919050565b5f6020820190508181035f8301526104b58161047c565b9050919050565b5f81519050919050565b7f4e487b71000000000000000000000000000000000000000000000000000000005f52602260045260245ffd5b5f600282049050600182168061050a57607f821691505b60208210810361051d5761051c6104c6565b5b50919050565b5f819050815f5260205f209050919050565b5f6020601f8301049050919050565b5f82821b905092915050565b5f6008830261057f7fffffffffffffffffffffffffffffffffffffffffffffffffffffffffffffffff82610544565b6105898683610544565b95508019841693508086168417925050509392505050565b5f819050919050565b5f6105c46105bf6105ba8461031b565b6105a1565b61031b565b9050919050565b5f819050919050565b6105dd836105aa565b6105f16105e9826105cb565b848454610550565b825550505050565b5f5f905090565b6106086105f9565b6106138184846105d4565b505050565b5b818110156106365761062b5f82610600565b600181019050610619565b5050565b601f82111561067b5761064c81610523565b61065584610535565b81016020851015610664578190505b61067861067085610535565b830182610618565b50505b505050565b5f82821c905092915050565b5f61069b5f1984600802610680565b1980831691505092915050565b5f6106b3838361068c565b9150826002028217905092915050565b6106cc826104bc565b67ffffffffffffffff8111156106e5576106e46101f7565b5b6106ef82546104f3565b6106fa82828561063a565b5f60209050601f83116001811461072b575f8415610719578287015190505b61072385826106a8565b86555061078a565b601f19841661073986610523565b5f5b828110156107605784890151825560018201915060208501945060208101905061073b565b8683101561077d5784890151610779601f89168261068c565b8355505b6001600288020188555050505b505050505050565b7f4e487b71000000000000000000000000000000000000000000000000000000005f52601260045260245ffd5b5f6107c98261031b565b91506107d48361031b565b9250826107e4576107e3610792565b5b828204905092915050565b6107f88161031b565b82525050565b5f6020820190506108115f8301846107ef565b92915050565b60805161151f6108365f395f81816106f10152610813015261151f5ff3fe608060405234801561000f575f5ffd5b50600436106100e8575f3560e01c806340c10f191161008a5780637898cd18116100645780637898cd181461027257806395d89b4114610290578063a9059cbb146102ae578063dd62ed3e146102de576100e8565b806340c10f19146101e257806342966c681461021257806370a0823114610242576100e8565b806318160ddd116100c657806318160ddd1461015857806323b872dd14610176578063313ce567146101a657806332cb6b0c146101c4576100e8565b806306fdde03146100ec578063075461721461010a578063095ea7b314610128575b5f5ffd5b6100f461030e565b6040516101019190610eff565b60405180910390f35b61011261039d565b60405161011f9190610f5e565b60405180910390f35b610142600480360381019061013d9190610fd8565b6103c2565b60405161014f9190611030565b60405180910390f35b61016061051d565b60405161016d9190611058565b60405180910390f35b610190600480360381019061018b9190611071565b610523565b60405161019d9190611030565b60405180910390f35b6101ae6106e7565b6040516101bb91906110dc565b60405180910390f35b6101cc6106ef565b6040516101d99190611058565b60405180910390f35b6101fc60048036038101906101f79190610fd8565b610713565b6040516102099190611030565b60405180910390f35b61022c600480360381019061022791906110f5565b61095b565b6040516102399190611030565b60405180910390f35b61025c60048036038101906102579190611120565b610ab5565b6040516102699190611058565b60405180910390f35b61027a610afb565b6040516102879190611058565b60405180910390f35b610298610b04565b6040516102a59190610eff565b60405180910390f35b6102c860048036038101906102c39190610fd8565b610b94565b6040516102d59190611030565b60405180910390f35b6102f860048036038101906102f3919061114b565b610c0f565b6040516103059190611058565b60405180910390f35b60605f805461031c906111b6565b80601f0160208091040260200160405190810160405280929190818152602001828054610348906111b6565b80156103935780601f1061036a57610100808354040283529160200191610393565b820191905f5260205f20905b81548152906001019060200180831161037657829003601f168201915b5050505050905090565b60035f9054906101000a900473ffffffffffffffffffffffffffffffffffffffff1681565b5f5f73ffffffffffffffffffffffffffffffffffffffff168373ffffffffffffffffffffffffffffffffffffffff1603610431576040517f08c379a000000000000000000000000000000000000000000000000000000000815260040161042890611230565b60405180910390fd5b8160055f3373ffffffffffffffffffffffffffffffffffffffff1673ffffffffffffffffffffffffffffffffffffffff1681526020019081526020015f205f8573ffffffffffffffffffffffffffffffffffffffff1673ffffffffffffffffffffffffffffffffffffffff1681526020019081526020015f20819055508273ffffffffffffffffffffffffffffffffffffffff163373ffffffffffffffffffffffffffffffffffffffff167f8c5be1e5ebec7d5bd14f71427d1e84f3dd0314c0f7b2291e5b200ac8c7c3b9258460405161050b9190611058565b60405180910390a36001905092915050565b60025481565b5f5f60055f8673ffffffffffffffffffffffffffffffffffffffff1673ffffffffffffffffffffffffffffffffffffffff1681526020019081526020015f205f3373ffffffffffffffffffffffffffffffffffffffff1673ffffffffffffffffffffffffffffffffffffffff1681526020019081526020015f20549050828110156105e3576040517f08c379a00000000000000000000000000000000000000000000000000000000081526004016105da90611298565b60405180910390fd5b82816105ef91906112e3565b60055f8773ffffffffffffffffffffffffffffffffffffffff1673ffffffffffffffffffffffffffffffffffffffff1681526020019081526020015f205f3373ffffffffffffffffffffffffffffffffffffffff1673ffffffffffffffffffffffffffffffffffffffff1681526020019081526020015f2081905550610676858585610c91565b8373ffffffffffffffffffffffffffffffffffffffff168573ffffffffffffffffffffffffffffffffffffffff167fddf252ad1be2c89b69c2b068fc378daa952ba7f163c4a11628f55a4df523b3ef856040516106d39190611058565b60405180910390a360019150509392505050565b5f6012905090565b7f000000000000000000000000000000000000000000000000000000000000000081565b5f60035f9054906101000a900473ffffffffffffffffffffffffffffffffffffffff1673ffffffffffffffffffffffffffffffffffffffff163373ffffffffffffffffffffffffffffffffffffffff16146107a3576040517f08c379a000000000000000000000000000000000000000000000000000000000815260040161079a90611360565b60405180910390fd5b5f73ffffffffffffffffffffffffffffffffffffffff168373ffffffffffffffffffffffffffffffffffffffff1603610811576040517f08c379a0000000000000000000000000000000000000000000000000000000008152600401610808906113c8565b60405180910390fd5b7f00000000000000000000000000000000000000000000000000000000000000008260025461084091906113e6565b1115610881576040517f08c379a000000000000000000000000000000000000000000000000000000000815260040161087890611463565b60405180910390fd5b8160045f8573ffffffffffffffffffffffffffffffffffffffff1673ffffffffffffffffffffffffffffffffffffffff1681526020019081526020015f205f8282546108cd91906113e6565b925050819055508160025f8282546108e591906113e6565b925050819055508273ffffffffffffffffffffffffffffffffffffffff165f73ffffffffffffffffffffffffffffffffffffffff167fddf252ad1be2c89b69c2b068fc378daa952ba7f163c4a11628f55a4df523b3ef846040516109499190611058565b60405180910390a36001905092915050565b5f8160045f3373ffffffffffffffffffffffffffffffffffffffff1673ffffffffffffffffffffffffffffffffffffffff1681526020019081526020015f205410156109dc576040517f08c379a00000000000000000000000000000000000000000000000000000000081526004016109d3906114cb565b60405180910390fd5b8160045f3373ffffffffffffffffffffffffffffffffffffffff1673ffffffffffffffffffffffffffffffffffffffff1681526020019081526020015f205f828254610a2891906112e3565b925050819055508160025f828254610a4091906112e3565b925050819055505f73ffffffffffffffffffffffffffffffffffffffff163373ffffffffffffffffffffffffffffffffffffffff167fddf252ad1be2c89b69c2b068fc378daa952ba7f163c4a11628f55a4df523b3ef84604051610aa49190611058565b60405180910390a360019050919050565b5f60045f8373ffffffffffffffffffffffffffffffffffffffff1673ffffffffffffffffffffffffffffffffffffffff1681526020019081526020015f20549050919050565b5f600254905090565b606060018054610b13906111b6565b80601f0160208091040260200160405190810160405280929190818152602001828054610b3f906111b6565b8015610b8a5780601f10610b6157610100808354040283529160200191610b8a565b820191905f5260205f20905b815481529060010190602001808311610b6d57829003601f168201915b5050505050905090565b5f610ba0338484610c91565b8273ffffffffffffffffffffffffffffffffffffffff163373ffffffffffffffffffffffffffffffffffffffff167fddf252ad1be2c89b69c2b068fc378daa952ba7f163c4a11628f55a4df523b3ef84604051610bfd9190611058565b60405180910390a36001905092915050565b5f60055f8473ffffffffffffffffffffffffffffffffffffffff1673ffffffffffffffffffffffffffffffffffffffff1681526020019081526020015f205f8373ffffffffffffffffffffffffffffffffffffffff1673ffffffffffffffffffffffffffffffffffffffff1681526020019081526020015f2054905092915050565b5f73ffffffffffffffffffffffffffffffffffffffff168273ffffffffffffffffffffffffffffffffffffffff1603610cff576040517f08c379a0000000000000000000000000000000000000000000000000000000008152600401610cf6906113c8565b60405180910390fd5b8060045f8573ffffffffffffffffffffffffffffffffffffffff1673ffffffffffffffffffffffffffffffffffffffff1681526020019081526020015f20541015610d7f576040517f08c379a0000000000000000000000000000000000000000000000000000000008152600401610d76906114cb565b60405180910390fd5b8060045f8573ffffffffffffffffffffffffffffffffffffffff1673ffffffffffffffffffffffffffffffffffffffff1681526020019081526020015f205f828254610dcb91906112e3565b925050819055508060045f8473ffffffffffffffffffffffffffffffffffffffff1673ffffffffffffffffffffffffffffffffffffffff1681526020019081526020015f205f828254610e1e91906113e6565b925050819055508173ffffffffffffffffffffffffffffffffffffffff168373ffffffffffffffffffffffffffffffffffffffff167fddf252ad1be2c89b69c2b068fc378daa952ba7f163c4a11628f55a4df523b3ef83604051610e829190611058565b60405180910390a3505050565b5f81519050919050565b5f82825260208201905092915050565b8281835e5f83830152505050565b5f601f19601f8301169050919050565b5f610ed182610e8f565b610edb8185610e99565b9350610eeb818560208601610ea9565b610ef481610eb7565b840191505092915050565b5f6020820190508181035f830152610f178184610ec7565b905092915050565b5f73ffffffffffffffffffffffffffffffffffffffff82169050919050565b5f610f4882610f1f565b9050919050565b610f5881610f3e565b82525050565b5f602082019050610f715f830184610f4f565b92915050565b5f5ffd5b610f8481610f3e565b8114610f8e575f5ffd5b50565b5f81359050610f9f81610f7b565b92915050565b5f819050919050565b610fb781610fa5565b8114610fc1575f5ffd5b50565b5f81359050610fd281610fae565b92915050565b5f5f60408385031215610fee57610fed610f77565b5b5f610ffb85828601610f91565b925050602061100c85828601610fc4565b9150509250929050565b5f8115159050919050565b61102a81611016565b82525050565b5f6020820190506110435f830184611021565b92915050565b61105281610fa5565b82525050565b5f60208201905061106b5f830184611049565b92915050565b5f5f5f6060848603121561108857611087610f77565b5b5f61109586828701610f91565b93505060206110a686828701610f91565b92505060406110b786828701610fc4565b9150509250925092565b5f60ff82169050919050565b6110d6816110c1565b82525050565b5f6020820190506110ef5f8301846110cd565b92915050565b5f6020828403121561110a57611109610f77565b5b5f61111784828501610fc4565b91505092915050565b5f6020828403121561113557611134610f77565b5b5f61114284828501610f91565b91505092915050565b5f5f6040838503121561116157611160610f77565b5b5f61116e85828601610f91565b925050602061117f85828601610f91565b9150509250929050565b7f4e487b71000000000000000000000000000000000000000000000000000000005f52602260045260245ffd5b5f60028204905060018216806111cd57607f821691505b6020821081036111e0576111df611189565b5b50919050565b7f43796265724f7263733a205a65726f20416464726573730000000000000000005f82015250565b5f61121a601783610e99565b9150611225826111e6565b602082019050919050565b5f6020820190508181035f8301526112478161120e565b9050919050565b7f43796265726f7263733a204c6f7720416c6c6f77616e636500000000000000005f82015250565b5f611282601883610e99565b915061128d8261124e565b602082019050919050565b5f6020820190508181035f8301526112af81611276565b9050919050565b7f4e487b71000000000000000000000000000000000000000000000000000000005f52601160045260245ffd5b5f6112ed82610fa5565b91506112f883610fa5565b92508282039050818111156113105761130f6112b6565b5b92915050565b7f43796265726f7263733a204163636573732044656e69656400000000000000005f82015250565b5f61134a601883610e99565b915061135582611316565b602082019050919050565b5f6020820190508181035f8301526113778161133e565b9050919050565b7f43796265726f7263733a205a65726f20726563697069656e74000000000000005f82015250565b5f6113b2601983610e99565b91506113bd8261137e565b602082019050919050565b5f6020820190508181035f8301526113df816113a6565b9050919050565b5f6113f082610fa5565b91506113fb83610fa5565b9250828201905080821115611413576114126112b6565b5b92915050565b7f43796265726f7263733a204d617820537570706c7900000000000000000000005f82015250565b5f61144d601583610e99565b915061145882611419565b602082019050919050565b5f6020820190508181035f83015261147a81611441565b9050919050565b7f43796265726f7263733a204c6f772042616c616e6365000000000000000000005f82015250565b5f6114b5601683610e99565b91506114c082611481565b602082019050919050565b5f6020820190508181035f8301526114e2816114a9565b905091905056fea264697066735822122024646c83f349965ed56d6286e290e1f39dececb6b9b6ad4c11092652663226b664736f6c634300081e0033",
					"opcodes": "PUSH1 0xA0 PUSH1 0x40 MSTORE CALLVALUE DUP1 ISZERO PUSH2 0xF JUMPI PUSH0 PUSH0 REVERT JUMPDEST POP PUSH1 0x40 MLOAD PUSH2 0x1D55 CODESIZE SUB DUP1 PUSH2 0x1D55 DUP4 CODECOPY DUP2 DUP2 ADD PUSH1 0x40 MSTORE DUP2 ADD SWAP1 PUSH2 0x31 SWAP2 SWAP1 PUSH2 0x3A8 JUMP JUMPDEST PUSH0 PUSH20 0xFFFFFFFFFFFFFFFFFFFFFFFFFFFFFFFFFFFFFFFF AND DUP2 PUSH20 0xFFFFFFFFFFFFFFFFFFFFFFFFFFFFFFFFFFFFFFFF AND SUB PUSH2 0x9F JUMPI PUSH1 0x40 MLOAD PUSH32 0x8C379A000000000000000000000000000000000000000000000000000000000 DUP2 MSTORE PUSH1 0x4 ADD PUSH2 0x96 SWAP1 PUSH2 0x49E JUMP JUMPDEST PUSH1 0x40 MLOAD DUP1 SWAP2 SUB SWAP1 REVERT JUMPDEST DUP4 PUSH0 SWAP1 DUP2 PUSH2 0xAD SWAP2 SWAP1 PUSH2 0x6C3 JUMP JUMPDEST POP DUP3 PUSH1 0x1 SWAP1 DUP2 PUSH2 0xBD SWAP2 SWAP1 PUSH2 0x6C3 JUMP JUMPDEST POP DUP2 PUSH1 0x80 DUP2 DUP2 MSTORE POP POP CALLER PUSH1 0x3 PUSH0 PUSH2 0x100 EXP DUP2 SLOAD DUP2 PUSH20 0xFFFFFFFFFFFFFFFFFFFFFFFFFFFFFFFFFFFFFFFF MUL NOT AND SWAP1 DUP4 PUSH20 0xFFFFFFFFFFFFFFFFFFFFFFFFFFFFFFFFFFFFFFFF AND MUL OR SWAP1 SSTORE POP PUSH0 PUSH1 0x2 DUP4 PUSH2 0x114 SWAP2 SWAP1 PUSH2 0x7BF JUMP JUMPDEST SWAP1 POP DUP1 PUSH1 0x4 PUSH0 DUP5 PUSH20 0xFFFFFFFFFFFFFFFFFFFFFFFFFFFFFFFFFFFFFFFF AND PUSH20 0xFFFFFFFFFFFFFFFFFFFFFFFFFFFFFFFFFFFFFFFF AND DUP2 MSTORE PUSH1 0x20 ADD SWAP1 DUP2 MSTORE PUSH1 0x20 ADD PUSH0 KECCAK256 DUP2 SWAP1 SSTORE POP DUP1 PUSH1 0x2 DUP2 SWAP1 SSTORE POP DUP2 PUSH20 0xFFFFFFFFFFFFFFFFFFFFFFFFFFFFFFFFFFFFFFFF AND PUSH0 PUSH20 0xFFFFFFFFFFFFFFFFFFFFFFFFFFFFFFFFFFFFFFFF AND PUSH32 0xDDF252AD1BE2C89B69C2B068FC378DAA952BA7F163C4A11628F55A4DF523B3EF DUP4 PUSH1 0x40 MLOAD PUSH2 0x1BC SWAP2 SWAP1 PUSH2 0x7FE JUMP JUMPDEST PUSH1 0x40 MLOAD DUP1 SWAP2 SUB SWAP1 LOG3 POP POP POP POP POP PUSH2 0x817 JUMP JUMPDEST PUSH0 PUSH1 0x40 MLOAD SWAP1 POP SWAP1 JUMP JUMPDEST PUSH0 PUSH0 REVERT JUMPDEST PUSH0 PUSH0 REVERT JUMPDEST PUSH0 PUSH0 REVERT JUMPDEST PUSH0 PUSH0 REVERT JUMPDEST PUSH0 PUSH1 0x1F NOT PUSH1 0x1F DUP4 ADD AND SWAP1 POP SWAP2 SWAP1 POP JUMP JUMPDEST PUSH32 0x4E487B7100000000000000000000000000000000000000000000000000000000 PUSH0 MSTORE PUSH1 0x41 PUSH1 0x4 MSTORE PUSH1 0x24 PUSH0 REVERT JUMPDEST PUSH2 0x22D DUP3 PUSH2 0x1E7 JUMP JUMPDEST DUP2 ADD DUP2 DUP2 LT PUSH8 0xFFFFFFFFFFFFFFFF DUP3 GT OR ISZERO PUSH2 0x24C JUMPI PUSH2 0x24B PUSH2 0x1F7 JUMP JUMPDEST JUMPDEST DUP1 PUSH1 0x40 MSTORE POP POP POP JUMP JUMPDEST PUSH0 PUSH2 0x25E PUSH2 0x1CE JUMP JUMPDEST SWAP1 POP PUSH2 0x26A DUP3 DUP3 PUSH2 0x224 JUMP JUMPDEST SWAP2 SWAP1 POP JUMP JUMPDEST PUSH0 PUSH8 0xFFFFFFFFFFFFFFFF DUP3 GT ISZERO PUSH2 0x289 JUMPI PUSH2 0x288 PUSH2 0x1F7 JUMP JUMPDEST JUMPDEST PUSH2 0x292 DUP3 PUSH2 0x1E7 JUMP JUMPDEST SWAP1 POP PUSH1 0x20 DUP2 ADD SWAP1 POP SWAP2 SWAP1 POP JUMP JUMPDEST DUP3 DUP2 DUP4 MCOPY PUSH0 DUP4 DUP4 ADD MSTORE POP POP POP JUMP JUMPDEST PUSH0 PUSH2 0x2BF PUSH2 0x2BA DUP5 PUSH2 0x26F JUMP JUMPDEST PUSH2 0x255 JUMP JUMPDEST SWAP1 POP DUP3 DUP2 MSTORE PUSH1 0x20 DUP2 ADD DUP5 DUP5 DUP5 ADD GT ISZERO PUSH2 0x2DB JUMPI PUSH2 0x2DA PUSH2 0x1E3 JUMP JUMPDEST JUMPDEST PUSH2 0x2E6 DUP5 DUP3 DUP6 PUSH2 0x29F JUMP JUMPDEST POP SWAP4 SWAP3 POP POP POP JUMP JUMPDEST PUSH0 DUP3 PUSH1 0x1F DUP4 ADD SLT PUSH2 0x302 JUMPI PUSH2 0x301 PUSH2 0x1DF JUMP JUMPDEST JUMPDEST DUP2 MLOAD PUSH2 0x312 DUP5 DUP3 PUSH1 0x20 DUP7 ADD PUSH2 0x2AD JUMP JUMPDEST SWAP2 POP POP SWAP3 SWAP2 POP POP JUMP JUMPDEST PUSH0 DUP2 SWAP1 POP SWAP2 SWAP1 POP JUMP JUMPDEST PUSH2 0x32D DUP2 PUSH2 0x31B JUMP JUMPDEST DUP2 EQ PUSH2 0x337 JUMPI PUSH0 PUSH0 REVERT JUMPDEST POP JUMP JUMPDEST PUSH0 DUP2 MLOAD SWAP1 POP PUSH2 0x348 DUP2 PUSH2 0x324 JUMP JUMPDEST SWAP3 SWAP2 POP POP JUMP JUMPDEST PUSH0 PUSH20 0xFFFFFFFFFFFFFFFFFFFFFFFFFFFFFFFFFFFFFFFF DUP3 AND SWAP1 POP SWAP2 SWAP1 POP JUMP JUMPDEST PUSH0 PUSH2 0x377 DUP3 PUSH2 0x34E JUMP JUMPDEST SWAP1 POP SWAP2 SWAP1 POP JUMP JUMPDEST PUSH2 0x387 DUP2 PUSH2 0x36D JUMP JUMPDEST DUP2 EQ PUSH2 0x391 JUMPI PUSH0 PUSH0 REVERT JUMPDEST POP JUMP JUMPDEST PUSH0 DUP2 MLOAD SWAP1 POP PUSH2 0x3A2 DUP2 PUSH2 0x37E JUMP JUMPDEST SWAP3 SWAP2 POP POP JUMP JUMPDEST PUSH0 PUSH0 PUSH0 PUSH0 PUSH1 0x80 DUP6 DUP8 SUB SLT ISZERO PUSH2 0x3C0 JUMPI PUSH2 0x3BF PUSH2 0x1D7 JUMP JUMPDEST JUMPDEST PUSH0 DUP6 ADD MLOAD PUSH8 0xFFFFFFFFFFFFFFFF DUP2 GT ISZERO PUSH2 0x3DD JUMPI PUSH2 0x3DC PUSH2 0x1DB JUMP JUMPDEST JUMPDEST PUSH2 0x3E9 DUP8 DUP3 DUP9 ADD PUSH2 0x2EE JUMP JUMPDEST SWAP5 POP POP PUSH1 0x20 DUP6 ADD MLOAD PUSH8 0xFFFFFFFFFFFFFFFF DUP2 GT ISZERO PUSH2 0x40A JUMPI PUSH2 0x409 PUSH2 0x1DB JUMP JUMPDEST JUMPDEST PUSH2 0x416 DUP8 DUP3 DUP9 ADD PUSH2 0x2EE JUMP JUMPDEST SWAP4 POP POP PUSH1 0x40 PUSH2 0x427 DUP8 DUP3 DUP9 ADD PUSH2 0x33A JUMP JUMPDEST SWAP3 POP POP PUSH1 0x60 PUSH2 0x438 DUP8 DUP3 DUP9 ADD PUSH2 0x394 JUMP JUMPDEST SWAP2 POP POP SWAP3 SWAP6 SWAP2 SWAP5 POP SWAP3 POP JUMP JUMPDEST PUSH0 DUP3 DUP3 MSTORE PUSH1 0x20 DUP3 ADD SWAP1 POP SWAP3 SWAP2 POP POP JUMP JUMPDEST PUSH32 0x5A65726F20747265617375727900000000000000000000000000000000000000 PUSH0 DUP3 ADD MSTORE POP JUMP JUMPDEST PUSH0 PUSH2 0x488 PUSH1 0xD DUP4 PUSH2 0x444 JUMP JUMPDEST SWAP2 POP PUSH2 0x493 DUP3 PUSH2 0x454 JUMP JUMPDEST PUSH1 0x20 DUP3 ADD SWAP1 POP SWAP2 SWAP1 POP JUMP JUMPDEST PUSH0 PUSH1 0x20 DUP3 ADD SWAP1 POP DUP2 DUP2 SUB PUSH0 DUP4 ADD MSTORE PUSH2 0x4B5 DUP2 PUSH2 0x47C JUMP JUMPDEST SWAP1 POP SWAP2 SWAP1 POP JUMP JUMPDEST PUSH0 DUP2 MLOAD SWAP1 POP SWAP2 SWAP1 POP JUMP JUMPDEST PUSH32 0x4E487B7100000000000000000000000000000000000000000000000000000000 PUSH0 MSTORE PUSH1 0x22 PUSH1 0x4 MSTORE PUSH1 0x24 PUSH0 REVERT JUMPDEST PUSH0 PUSH1 0x2 DUP3 DIV SWAP1 POP PUSH1 0x1 DUP3 AND DUP1 PUSH2 0x50A JUMPI PUSH1 0x7F DUP3 AND SWAP2 POP JUMPDEST PUSH1 0x20 DUP3 LT DUP2 SUB PUSH2 0x51D JUMPI PUSH2 0x51C PUSH2 0x4C6 JUMP JUMPDEST JUMPDEST POP SWAP2 SWAP1 POP JUMP JUMPDEST PUSH0 DUP2 SWAP1 POP DUP2 PUSH0 MSTORE PUSH1 0x20 PUSH0 KECCAK256 SWAP1 POP SWAP2 SWAP1 POP JUMP JUMPDEST PUSH0 PUSH1 0x20 PUSH1 0x1F DUP4 ADD DIV SWAP1 POP SWAP2 SWAP1 POP JUMP JUMPDEST PUSH0 DUP3 DUP3 SHL SWAP1 POP SWAP3 SWAP2 POP POP JUMP JUMPDEST PUSH0 PUSH1 0x8 DUP4 MUL PUSH2 0x57F PUSH32 0xFFFFFFFFFFFFFFFFFFFFFFFFFFFFFFFFFFFFFFFFFFFFFFFFFFFFFFFFFFFFFFFF DUP3 PUSH2 0x544 JUMP JUMPDEST PUSH2 0x589 DUP7 DUP4 PUSH2 0x544 JUMP JUMPDEST SWAP6 POP DUP1 NOT DUP5 AND SWAP4 POP DUP1 DUP7 AND DUP5 OR SWAP3 POP POP POP SWAP4 SWAP3 POP POP POP JUMP JUMPDEST PUSH0 DUP2 SWAP1 POP SWAP2 SWAP1 POP JUMP JUMPDEST PUSH0 PUSH2 0x5C4 PUSH2 0x5BF PUSH2 0x5BA DUP5 PUSH2 0x31B JUMP JUMPDEST PUSH2 0x5A1 JUMP JUMPDEST PUSH2 0x31B JUMP JUMPDEST SWAP1 POP SWAP2 SWAP1 POP JUMP JUMPDEST PUSH0 DUP2 SWAP1 POP SWAP2 SWAP1 POP JUMP JUMPDEST PUSH2 0x5DD DUP4 PUSH2 0x5AA JUMP JUMPDEST PUSH2 0x5F1 PUSH2 0x5E9 DUP3 PUSH2 0x5CB JUMP JUMPDEST DUP5 DUP5 SLOAD PUSH2 0x550 JUMP JUMPDEST DUP3 SSTORE POP POP POP POP JUMP JUMPDEST PUSH0 PUSH0 SWAP1 POP SWAP1 JUMP JUMPDEST PUSH2 0x608 PUSH2 0x5F9 JUMP JUMPDEST PUSH2 0x613 DUP2 DUP5 DUP5 PUSH2 0x5D4 JUMP JUMPDEST POP POP POP JUMP JUMPDEST JUMPDEST DUP2 DUP2 LT ISZERO PUSH2 0x636 JUMPI PUSH2 0x62B PUSH0 DUP3 PUSH2 0x600 JUMP JUMPDEST PUSH1 0x1 DUP2 ADD SWAP1 POP PUSH2 0x619 JUMP JUMPDEST POP POP JUMP JUMPDEST PUSH1 0x1F DUP3 GT ISZERO PUSH2 0x67B JUMPI PUSH2 0x64C DUP2 PUSH2 0x523 JUMP JUMPDEST PUSH2 0x655 DUP5 PUSH2 0x535 JUMP JUMPDEST DUP2 ADD PUSH1 0x20 DUP6 LT ISZERO PUSH2 0x664 JUMPI DUP2 SWAP1 POP JUMPDEST PUSH2 0x678 PUSH2 0x670 DUP6 PUSH2 0x535 JUMP JUMPDEST DUP4 ADD DUP3 PUSH2 0x618 JUMP JUMPDEST POP POP JUMPDEST POP POP POP JUMP JUMPDEST PUSH0 DUP3 DUP3 SHR SWAP1 POP SWAP3 SWAP2 POP POP JUMP JUMPDEST PUSH0 PUSH2 0x69B PUSH0 NOT DUP5 PUSH1 0x8 MUL PUSH2 0x680 JUMP JUMPDEST NOT DUP1 DUP4 AND SWAP2 POP POP SWAP3 SWAP2 POP POP JUMP JUMPDEST PUSH0 PUSH2 0x6B3 DUP4 DUP4 PUSH2 0x68C JUMP JUMPDEST SWAP2 POP DUP3 PUSH1 0x2 MUL DUP3 OR SWAP1 POP SWAP3 SWAP2 POP POP JUMP JUMPDEST PUSH2 0x6CC DUP3 PUSH2 0x4BC JUMP JUMPDEST PUSH8 0xFFFFFFFFFFFFFFFF DUP2 GT ISZERO PUSH2 0x6E5 JUMPI PUSH2 0x6E4 PUSH2 0x1F7 JUMP JUMPDEST JUMPDEST PUSH2 0x6EF DUP3 SLOAD PUSH2 0x4F3 JUMP JUMPDEST PUSH2 0x6FA DUP3 DUP3 DUP6 PUSH2 0x63A JUMP JUMPDEST PUSH0 PUSH1 0x20 SWAP1 POP PUSH1 0x1F DUP4 GT PUSH1 0x1 DUP2 EQ PUSH2 0x72B JUMPI PUSH0 DUP5 ISZERO PUSH2 0x719 JUMPI DUP3 DUP8 ADD MLOAD SWAP1 POP JUMPDEST PUSH2 0x723 DUP6 DUP3 PUSH2 0x6A8 JUMP JUMPDEST DUP7 SSTORE POP PUSH2 0x78A JUMP JUMPDEST PUSH1 0x1F NOT DUP5 AND PUSH2 0x739 DUP7 PUSH2 0x523 JUMP JUMPDEST PUSH0 JUMPDEST DUP3 DUP2 LT ISZERO PUSH2 0x760 JUMPI DUP5 DUP10 ADD MLOAD DUP3 SSTORE PUSH1 0x1 DUP3 ADD SWAP2 POP PUSH1 0x20 DUP6 ADD SWAP5 POP PUSH1 0x20 DUP2 ADD SWAP1 POP PUSH2 0x73B JUMP JUMPDEST DUP7 DUP4 LT ISZERO PUSH2 0x77D JUMPI DUP5 DUP10 ADD MLOAD PUSH2 0x779 PUSH1 0x1F DUP10 AND DUP3 PUSH2 0x68C JUMP JUMPDEST DUP4 SSTORE POP JUMPDEST PUSH1 0x1 PUSH1 0x2 DUP9 MUL ADD DUP9 SSTORE POP POP POP JUMPDEST POP POP POP POP POP POP JUMP JUMPDEST PUSH32 0x4E487B7100000000000000000000000000000000000000000000000000000000 PUSH0 MSTORE PUSH1 0x12 PUSH1 0x4 MSTORE PUSH1 0x24 PUSH0 REVERT JUMPDEST PUSH0 PUSH2 0x7C9 DUP3 PUSH2 0x31B JUMP JUMPDEST SWAP2 POP PUSH2 0x7D4 DUP4 PUSH2 0x31B JUMP JUMPDEST SWAP3 POP DUP3 PUSH2 0x7E4 JUMPI PUSH2 0x7E3 PUSH2 0x792 JUMP JUMPDEST JUMPDEST DUP3 DUP3 DIV SWAP1 POP SWAP3 SWAP2 POP POP JUMP JUMPDEST PUSH2 0x7F8 DUP2 PUSH2 0x31B JUMP JUMPDEST DUP3 MSTORE POP POP JUMP JUMPDEST PUSH0 PUSH1 0x20 DUP3 ADD SWAP1 POP PUSH2 0x811 PUSH0 DUP4 ADD DUP5 PUSH2 0x7EF JUMP JUMPDEST SWAP3 SWAP2 POP POP JUMP JUMPDEST PUSH1 0x80 MLOAD PUSH2 0x151F PUSH2 0x836 PUSH0 CODECOPY PUSH0 DUP2 DUP2 PUSH2 0x6F1 ADD MSTORE PUSH2 0x813 ADD MSTORE PUSH2 0x151F PUSH0 RETURN INVALID PUSH1 0x80 PUSH1 0x40 MSTORE CALLVALUE DUP1 ISZERO PUSH2 0xF JUMPI PUSH0 PUSH0 REVERT JUMPDEST POP PUSH1 0x4 CALLDATASIZE LT PUSH2 0xE8 JUMPI PUSH0 CALLDATALOAD PUSH1 0xE0 SHR DUP1 PUSH4 0x40C10F19 GT PUSH2 0x8A JUMPI DUP1 PUSH4 0x7898CD18 GT PUSH2 0x64 JUMPI DUP1 PUSH4 0x7898CD18 EQ PUSH2 0x272 JUMPI DUP1 PUSH4 0x95D89B41 EQ PUSH2 0x290 JUMPI DUP1 PUSH4 0xA9059CBB EQ PUSH2 0x2AE JUMPI DUP1 PUSH4 0xDD62ED3E EQ PUSH2 0x2DE JUMPI PUSH2 0xE8 JUMP JUMPDEST DUP1 PUSH4 0x40C10F19 EQ PUSH2 0x1E2 JUMPI DUP1 PUSH4 0x42966C68 EQ PUSH2 0x212 JUMPI DUP1 PUSH4 0x70A08231 EQ PUSH2 0x242 JUMPI PUSH2 0xE8 JUMP JUMPDEST DUP1 PUSH4 0x18160DDD GT PUSH2 0xC6 JUMPI DUP1 PUSH4 0x18160DDD EQ PUSH2 0x158 JUMPI DUP1 PUSH4 0x23B872DD EQ PUSH2 0x176 JUMPI DUP1 PUSH4 0x313CE567 EQ PUSH2 0x1A6 JUMPI DUP1 PUSH4 0x32CB6B0C EQ PUSH2 0x1C4 JUMPI PUSH2 0xE8 JUMP JUMPDEST DUP1 PUSH4 0x6FDDE03 EQ PUSH2 0xEC JUMPI DUP1 PUSH4 0x7546172 EQ PUSH2 0x10A JUMPI DUP1 PUSH4 0x95EA7B3 EQ PUSH2 0x128 JUMPI JUMPDEST PUSH0 PUSH0 REVERT JUMPDEST PUSH2 0xF4 PUSH2 0x30E JUMP JUMPDEST PUSH1 0x40 MLOAD PUSH2 0x101 SWAP2 SWAP1 PUSH2 0xEFF JUMP JUMPDEST PUSH1 0x40 MLOAD DUP1 SWAP2 SUB SWAP1 RETURN JUMPDEST PUSH2 0x112 PUSH2 0x39D JUMP JUMPDEST PUSH1 0x40 MLOAD PUSH2 0x11F SWAP2 SWAP1 PUSH2 0xF5E JUMP JUMPDEST PUSH1 0x40 MLOAD DUP1 SWAP2 SUB SWAP1 RETURN JUMPDEST PUSH2 0x142 PUSH1 0x4 DUP1 CALLDATASIZE SUB DUP2 ADD SWAP1 PUSH2 0x13D SWAP2 SWAP1 PUSH2 0xFD8 JUMP JUMPDEST PUSH2 0x3C2 JUMP JUMPDEST PUSH1 0x40 MLOAD PUSH2 0x14F SWAP2 SWAP1 PUSH2 0x1030 JUMP JUMPDEST PUSH1 0x40 MLOAD DUP1 SWAP2 SUB SWAP1 RETURN JUMPDEST PUSH2 0x160 PUSH2 0x51D JUMP JUMPDEST PUSH1 0x40 MLOAD PUSH2 0x16D SWAP2 SWAP1 PUSH2 0x1058 JUMP JUMPDEST PUSH1 0x40 MLOAD DUP1 SWAP2 SUB SWAP1 RETURN JUMPDEST PUSH2 0x190 PUSH1 0x4 DUP1 CALLDATASIZE SUB DUP2 ADD SWAP1 PUSH2 0x18B SWAP2 SWAP1 PUSH2 0x1071 JUMP JUMPDEST PUSH2 0x523 JUMP JUMPDEST PUSH1 0x40 MLOAD PUSH2 0x19D SWAP2 SWAP1 PUSH2 0x1030 JUMP JUMPDEST PUSH1 0x40 MLOAD DUP1 SWAP2 SUB SWAP1 RETURN JUMPDEST PUSH2 0x1AE PUSH2 0x6E7 JUMP JUMPDEST PUSH1 0x40 MLOAD PUSH2 0x1BB SWAP2 SWAP1 PUSH2 0x10DC JUMP JUMPDEST PUSH1 0x40 MLOAD DUP1 SWAP2 SUB SWAP1 RETURN JUMPDEST PUSH2 0x1CC PUSH2 0x6EF JUMP JUMPDEST PUSH1 0x40 MLOAD PUSH2 0x1D9 SWAP2 SWAP1 PUSH2 0x1058 JUMP JUMPDEST PUSH1 0x40 MLOAD DUP1 SWAP2 SUB SWAP1 RETURN JUMPDEST PUSH2 0x1FC PUSH1 0x4 DUP1 CALLDATASIZE SUB DUP2 ADD SWAP1 PUSH2 0x1F7 SWAP2 SWAP1 PUSH2 0xFD8 JUMP JUMPDEST PUSH2 0x713 JUMP JUMPDEST PUSH1 0x40 MLOAD PUSH2 0x209 SWAP2 SWAP1 PUSH2 0x1030 JUMP JUMPDEST PUSH1 0x40 MLOAD DUP1 SWAP2 SUB SWAP1 RETURN JUMPDEST PUSH2 0x22C PUSH1 0x4 DUP1 CALLDATASIZE SUB DUP2 ADD SWAP1 PUSH2 0x227 SWAP2 SWAP1 PUSH2 0x10F5 JUMP JUMPDEST PUSH2 0x95B JUMP JUMPDEST PUSH1 0x40 MLOAD PUSH2 0x239 SWAP2 SWAP1 PUSH2 0x1030 JUMP JUMPDEST PUSH1 0x40 MLOAD DUP1 SWAP2 SUB SWAP1 RETURN JUMPDEST PUSH2 0x25C PUSH1 0x4 DUP1 CALLDATASIZE SUB DUP2 ADD SWAP1 PUSH2 0x257 SWAP2 SWAP1 PUSH2 0x1120 JUMP JUMPDEST PUSH2 0xAB5 JUMP JUMPDEST PUSH1 0x40 MLOAD PUSH2 0x269 SWAP2 SWAP1 PUSH2 0x1058 JUMP JUMPDEST PUSH1 0x40 MLOAD DUP1 SWAP2 SUB SWAP1 RETURN JUMPDEST PUSH2 0x27A PUSH2 0xAFB JUMP JUMPDEST PUSH1 0x40 MLOAD PUSH2 0x287 SWAP2 SWAP1 PUSH2 0x1058 JUMP JUMPDEST PUSH1 0x40 MLOAD DUP1 SWAP2 SUB SWAP1 RETURN JUMPDEST PUSH2 0x298 PUSH2 0xB04 JUMP JUMPDEST PUSH1 0x40 MLOAD PUSH2 0x2A5 SWAP2 SWAP1 PUSH2 0xEFF JUMP JUMPDEST PUSH1 0x40 MLOAD DUP1 SWAP2 SUB SWAP1 RETURN JUMPDEST PUSH2 0x2C8 PUSH1 0x4 DUP1 CALLDATASIZE SUB DUP2 ADD SWAP1 PUSH2 0x2C3 SWAP2 SWAP1 PUSH2 0xFD8 JUMP JUMPDEST PUSH2 0xB94 JUMP JUMPDEST PUSH1 0x40 MLOAD PUSH2 0x2D5 SWAP2 SWAP1 PUSH2 0x1030 JUMP JUMPDEST PUSH1 0x40 MLOAD DUP1 SWAP2 SUB SWAP1 RETURN JUMPDEST PUSH2 0x2F8 PUSH1 0x4 DUP1 CALLDATASIZE SUB DUP2 ADD SWAP1 PUSH2 0x2F3 SWAP2 SWAP1 PUSH2 0x114B JUMP JUMPDEST PUSH2 0xC0F JUMP JUMPDEST PUSH1 0x40 MLOAD PUSH2 0x305 SWAP2 SWAP1 PUSH2 0x1058 JUMP JUMPDEST PUSH1 0x40 MLOAD DUP1 SWAP2 SUB SWAP1 RETURN JUMPDEST PUSH1 0x60 PUSH0 DUP1 SLOAD PUSH2 0x31C SWAP1 PUSH2 0x11B6 JUMP JUMPDEST DUP1 PUSH1 0x1F ADD PUSH1 0x20 DUP1 SWAP2 DIV MUL PUSH1 0x20 ADD PUSH1 0x40 MLOAD SWAP1 DUP2 ADD PUSH1 0x40 MSTORE DUP1 SWAP3 SWAP2 SWAP1 DUP2 DUP2 MSTORE PUSH1 0x20 ADD DUP3 DUP1 SLOAD PUSH2 0x348 SWAP1 PUSH2 0x11B6 JUMP JUMPDEST DUP1 ISZERO PUSH2 0x393 JUMPI DUP1 PUSH1 0x1F LT PUSH2 0x36A JUMPI PUSH2 0x100 DUP1 DUP4 SLOAD DIV MUL DUP4 MSTORE SWAP2 PUSH1 0x20 ADD SWAP2 PUSH2 0x393 JUMP JUMPDEST DUP3 ADD SWAP2 SWAP1 PUSH0 MSTORE PUSH1 0x20 PUSH0 KECCAK256 SWAP1 JUMPDEST DUP2 SLOAD DUP2 MSTORE SWAP1 PUSH1 0x1 ADD SWAP1 PUSH1 0x20 ADD DUP1 DUP4 GT PUSH2 0x376 JUMPI DUP3 SWAP1 SUB PUSH1 0x1F AND DUP3 ADD SWAP2 JUMPDEST POP POP POP POP POP SWAP1 POP SWAP1 JUMP JUMPDEST PUSH1 0x3 PUSH0 SWAP1 SLOAD SWAP1 PUSH2 0x100 EXP SWAP1 DIV PUSH20 0xFFFFFFFFFFFFFFFFFFFFFFFFFFFFFFFFFFFFFFFF AND DUP2 JUMP JUMPDEST PUSH0 PUSH0 PUSH20 0xFFFFFFFFFFFFFFFFFFFFFFFFFFFFFFFFFFFFFFFF AND DUP4 PUSH20 0xFFFFFFFFFFFFFFFFFFFFFFFFFFFFFFFFFFFFFFFF AND SUB PUSH2 0x431 JUMPI PUSH1 0x40 MLOAD PUSH32 0x8C379A000000000000000000000000000000000000000000000000000000000 DUP2 MSTORE PUSH1 0x4 ADD PUSH2 0x428 SWAP1 PUSH2 0x1230 JUMP JUMPDEST PUSH1 0x40 MLOAD DUP1 SWAP2 SUB SWAP1 REVERT JUMPDEST DUP2 PUSH1 0x5 PUSH0 CALLER PUSH20 0xFFFFFFFFFFFFFFFFFFFFFFFFFFFFFFFFFFFFFFFF AND PUSH20 0xFFFFFFFFFFFFFFFFFFFFFFFFFFFFFFFFFFFFFFFF AND DUP2 MSTORE PUSH1 0x20 ADD SWAP1 DUP2 MSTORE PUSH1 0x20 ADD PUSH0 KECCAK256 PUSH0 DUP6 PUSH20 0xFFFFFFFFFFFFFFFFFFFFFFFFFFFFFFFFFFFFFFFF AND PUSH20 0xFFFFFFFFFFFFFFFFFFFFFFFFFFFFFFFFFFFFFFFF AND DUP2 MSTORE PUSH1 0x20 ADD SWAP1 DUP2 MSTORE PUSH1 0x20 ADD PUSH0 KECCAK256 DUP2 SWAP1 SSTORE POP DUP3 PUSH20 0xFFFFFFFFFFFFFFFFFFFFFFFFFFFFFFFFFFFFFFFF AND CALLER PUSH20 0xFFFFFFFFFFFFFFFFFFFFFFFFFFFFFFFFFFFFFFFF AND PUSH32 0x8C5BE1E5EBEC7D5BD14F71427D1E84F3DD0314C0F7B2291E5B200AC8C7C3B925 DUP5 PUSH1 0x40 MLOAD PUSH2 0x50B SWAP2 SWAP1 PUSH2 0x1058 JUMP JUMPDEST PUSH1 0x40 MLOAD DUP1 SWAP2 SUB SWAP1 LOG3 PUSH1 0x1 SWAP1 POP SWAP3 SWAP2 POP POP JUMP JUMPDEST PUSH1 0x2 SLOAD DUP2 JUMP JUMPDEST PUSH0 PUSH0 PUSH1 0x5 PUSH0 DUP7 PUSH20 0xFFFFFFFFFFFFFFFFFFFFFFFFFFFFFFFFFFFFFFFF AND PUSH20 0xFFFFFFFFFFFFFFFFFFFFFFFFFFFFFFFFFFFFFFFF AND DUP2 MSTORE PUSH1 0x20 ADD SWAP1 DUP2 MSTORE PUSH1 0x20 ADD PUSH0 KECCAK256 PUSH0 CALLER PUSH20 0xFFFFFFFFFFFFFFFFFFFFFFFFFFFFFFFFFFFFFFFF AND PUSH20 0xFFFFFFFFFFFFFFFFFFFFFFFFFFFFFFFFFFFFFFFF AND DUP2 MSTORE PUSH1 0x20 ADD SWAP1 DUP2 MSTORE PUSH1 0x20 ADD PUSH0 KECCAK256 SLOAD SWAP1 POP DUP3 DUP2 LT ISZERO PUSH2 0x5E3 JUMPI PUSH1 0x40 MLOAD PUSH32 0x8C379A000000000000000000000000000000000000000000000000000000000 DUP2 MSTORE PUSH1 0x4 ADD PUSH2 0x5DA SWAP1 PUSH2 0x1298 JUMP JUMPDEST PUSH1 0x40 MLOAD DUP1 SWAP2 SUB SWAP1 REVERT JUMPDEST DUP3 DUP2 PUSH2 0x5EF SWAP2 SWAP1 PUSH2 0x12E3 JUMP JUMPDEST PUSH1 0x5 PUSH0 DUP8 PUSH20 0xFFFFFFFFFFFFFFFFFFFFFFFFFFFFFFFFFFFFFFFF AND PUSH20 0xFFFFFFFFFFFFFFFFFFFFFFFFFFFFFFFFFFFFFFFF AND DUP2 MSTORE PUSH1 0x20 ADD SWAP1 DUP2 MSTORE PUSH1 0x20 ADD PUSH0 KECCAK256 PUSH0 CALLER PUSH20 0xFFFFFFFFFFFFFFFFFFFFFFFFFFFFFFFFFFFFFFFF AND PUSH20 0xFFFFFFFFFFFFFFFFFFFFFFFFFFFFFFFFFFFFFFFF AND DUP2 MSTORE PUSH1 0x20 ADD SWAP1 DUP2 MSTORE PUSH1 0x20 ADD PUSH0 KECCAK256 DUP2 SWAP1 SSTORE POP PUSH2 0x676 DUP6 DUP6 DUP6 PUSH2 0xC91 JUMP JUMPDEST DUP4 PUSH20 0xFFFFFFFFFFFFFFFFFFFFFFFFFFFFFFFFFFFFFFFF AND DUP6 PUSH20 0xFFFFFFFFFFFFFFFFFFFFFFFFFFFFFFFFFFFFFFFF AND PUSH32 0xDDF252AD1BE2C89B69C2B068FC378DAA952BA7F163C4A11628F55A4DF523B3EF DUP6 PUSH1 0x40 MLOAD PUSH2 0x6D3 SWAP2 SWAP1 PUSH2 0x1058 JUMP JUMPDEST PUSH1 0x40 MLOAD DUP1 SWAP2 SUB SWAP1 LOG3 PUSH1 0x1 SWAP2 POP POP SWAP4 SWAP3 POP POP POP JUMP JUMPDEST PUSH0 PUSH1 0x12 SWAP1 POP SWAP1 JUMP JUMPDEST PUSH32 0x0 DUP2 JUMP JUMPDEST PUSH0 PUSH1 0x3 PUSH0 SWAP1 SLOAD SWAP1 PUSH2 0x100 EXP SWAP1 DIV PUSH20 0xFFFFFFFFFFFFFFFFFFFFFFFFFFFFFFFFFFFFFFFF AND PUSH20 0xFFFFFFFFFFFFFFFFFFFFFFFFFFFFFFFFFFFFFFFF AND CALLER PUSH20 0xFFFFFFFFFFFFFFFFFFFFFFFFFFFFFFFFFFFFFFFF AND EQ PUSH2 0x7A3 JUMPI PUSH1 0x40 MLOAD PUSH32 0x8C379A000000000000000000000000000000000000000000000000000000000 DUP2 MSTORE PUSH1 0x4 ADD PUSH2 0x79A SWAP1 PUSH2 0x1360 JUMP JUMPDEST PUSH1 0x40 MLOAD DUP1 SWAP2 SUB SWAP1 REVERT JUMPDEST PUSH0 PUSH20 0xFFFFFFFFFFFFFFFFFFFFFFFFFFFFFFFFFFFFFFFF AND DUP4 PUSH20 0xFFFFFFFFFFFFFFFFFFFFFFFFFFFFFFFFFFFFFFFF AND SUB PUSH2 0x811 JUMPI PUSH1 0x40 MLOAD PUSH32 0x8C379A000000000000000000000000000000000000000000000000000000000 DUP2 MSTORE PUSH1 0x4 ADD PUSH2 0x808 SWAP1 PUSH2 0x13C8 JUMP JUMPDEST PUSH1 0x40 MLOAD DUP1 SWAP2 SUB SWAP1 REVERT JUMPDEST PUSH32 0x0 DUP3 PUSH1 0x2 SLOAD PUSH2 0x840 SWAP2 SWAP1 PUSH2 0x13E6 JUMP JUMPDEST GT ISZERO PUSH2 0x881 JUMPI PUSH1 0x40 MLOAD PUSH32 0x8C379A000000000000000000000000000000000000000000000000000000000 DUP2 MSTORE PUSH1 0x4 ADD PUSH2 0x878 SWAP1 PUSH2 0x1463 JUMP JUMPDEST PUSH1 0x40 MLOAD DUP1 SWAP2 SUB SWAP1 REVERT JUMPDEST DUP2 PUSH1 0x4 PUSH0 DUP6 PUSH20 0xFFFFFFFFFFFFFFFFFFFFFFFFFFFFFFFFFFFFFFFF AND PUSH20 0xFFFFFFFFFFFFFFFFFFFFFFFFFFFFFFFFFFFFFFFF AND DUP2 MSTORE PUSH1 0x20 ADD SWAP1 DUP2 MSTORE PUSH1 0x20 ADD PUSH0 KECCAK256 PUSH0 DUP3 DUP3 SLOAD PUSH2 0x8CD SWAP2 SWAP1 PUSH2 0x13E6 JUMP JUMPDEST SWAP3 POP POP DUP2 SWAP1 SSTORE POP DUP2 PUSH1 0x2 PUSH0 DUP3 DUP3 SLOAD PUSH2 0x8E5 SWAP2 SWAP1 PUSH2 0x13E6 JUMP JUMPDEST SWAP3 POP POP DUP2 SWAP1 SSTORE POP DUP3 PUSH20 0xFFFFFFFFFFFFFFFFFFFFFFFFFFFFFFFFFFFFFFFF AND PUSH0 PUSH20 0xFFFFFFFFFFFFFFFFFFFFFFFFFFFFFFFFFFFFFFFF AND PUSH32 0xDDF252AD1BE2C89B69C2B068FC378DAA952BA7F163C4A11628F55A4DF523B3EF DUP5 PUSH1 0x40 MLOAD PUSH2 0x949 SWAP2 SWAP1 PUSH2 0x1058 JUMP JUMPDEST PUSH1 0x40 MLOAD DUP1 SWAP2 SUB SWAP1 LOG3 PUSH1 0x1 SWAP1 POP SWAP3 SWAP2 POP POP JUMP JUMPDEST PUSH0 DUP2 PUSH1 0x4 PUSH0 CALLER PUSH20 0xFFFFFFFFFFFFFFFFFFFFFFFFFFFFFFFFFFFFFFFF AND PUSH20 0xFFFFFFFFFFFFFFFFFFFFFFFFFFFFFFFFFFFFFFFF AND DUP2 MSTORE PUSH1 0x20 ADD SWAP1 DUP2 MSTORE PUSH1 0x20 ADD PUSH0 KECCAK256 SLOAD LT ISZERO PUSH2 0x9DC JUMPI PUSH1 0x40 MLOAD PUSH32 0x8C379A000000000000000000000000000000000000000000000000000000000 DUP2 MSTORE PUSH1 0x4 ADD PUSH2 0x9D3 SWAP1 PUSH2 0x14CB JUMP JUMPDEST PUSH1 0x40 MLOAD DUP1 SWAP2 SUB SWAP1 REVERT JUMPDEST DUP2 PUSH1 0x4 PUSH0 CALLER PUSH20 0xFFFFFFFFFFFFFFFFFFFFFFFFFFFFFFFFFFFFFFFF AND PUSH20 0xFFFFFFFFFFFFFFFFFFFFFFFFFFFFFFFFFFFFFFFF AND DUP2 MSTORE PUSH1 0x20 ADD SWAP1 DUP2 MSTORE PUSH1 0x20 ADD PUSH0 KECCAK256 PUSH0 DUP3 DUP3 SLOAD PUSH2 0xA28 SWAP2 SWAP1 PUSH2 0x12E3 JUMP JUMPDEST SWAP3 POP POP DUP2 SWAP1 SSTORE POP DUP2 PUSH1 0x2 PUSH0 DUP3 DUP3 SLOAD PUSH2 0xA40 SWAP2 SWAP1 PUSH2 0x12E3 JUMP JUMPDEST SWAP3 POP POP DUP2 SWAP1 SSTORE POP PUSH0 PUSH20 0xFFFFFFFFFFFFFFFFFFFFFFFFFFFFFFFFFFFFFFFF AND CALLER PUSH20 0xFFFFFFFFFFFFFFFFFFFFFFFFFFFFFFFFFFFFFFFF AND PUSH32 0xDDF252AD1BE2C89B69C2B068FC378DAA952BA7F163C4A11628F55A4DF523B3EF DUP5 PUSH1 0x40 MLOAD PUSH2 0xAA4 SWAP2 SWAP1 PUSH2 0x1058 JUMP JUMPDEST PUSH1 0x40 MLOAD DUP1 SWAP2 SUB SWAP1 LOG3 PUSH1 0x1 SWAP1 POP SWAP2 SWAP1 POP JUMP JUMPDEST PUSH0 PUSH1 0x4 PUSH0 DUP4 PUSH20 0xFFFFFFFFFFFFFFFFFFFFFFFFFFFFFFFFFFFFFFFF AND PUSH20 0xFFFFFFFFFFFFFFFFFFFFFFFFFFFFFFFFFFFFFFFF AND DUP2 MSTORE PUSH1 0x20 ADD SWAP1 DUP2 MSTORE PUSH1 0x20 ADD PUSH0 KECCAK256 SLOAD SWAP1 POP SWAP2 SWAP1 POP JUMP JUMPDEST PUSH0 PUSH1 0x2 SLOAD SWAP1 POP SWAP1 JUMP JUMPDEST PUSH1 0x60 PUSH1 0x1 DUP1 SLOAD PUSH2 0xB13 SWAP1 PUSH2 0x11B6 JUMP JUMPDEST DUP1 PUSH1 0x1F ADD PUSH1 0x20 DUP1 SWAP2 DIV MUL PUSH1 0x20 ADD PUSH1 0x40 MLOAD SWAP1 DUP2 ADD PUSH1 0x40 MSTORE DUP1 SWAP3 SWAP2 SWAP1 DUP2 DUP2 MSTORE PUSH1 0x20 ADD DUP3 DUP1 SLOAD PUSH2 0xB3F SWAP1 PUSH2 0x11B6 JUMP JUMPDEST DUP1 ISZERO PUSH2 0xB8A JUMPI DUP1 PUSH1 0x1F LT PUSH2 0xB61 JUMPI PUSH2 0x100 DUP1 DUP4 SLOAD DIV MUL DUP4 MSTORE SWAP2 PUSH1 0x20 ADD SWAP2 PUSH2 0xB8A JUMP JUMPDEST DUP3 ADD SWAP2 SWAP1 PUSH0 MSTORE PUSH1 0x20 PUSH0 KECCAK256 SWAP1 JUMPDEST DUP2 SLOAD DUP2 MSTORE SWAP1 PUSH1 0x1 ADD SWAP1 PUSH1 0x20 ADD DUP1 DUP4 GT PUSH2 0xB6D JUMPI DUP3 SWAP1 SUB PUSH1 0x1F AND DUP3 ADD SWAP2 JUMPDEST POP POP POP POP POP SWAP1 POP SWAP1 JUMP JUMPDEST PUSH0 PUSH2 0xBA0 CALLER DUP5 DUP5 PUSH2 0xC91 JUMP JUMPDEST DUP3 PUSH20 0xFFFFFFFFFFFFFFFFFFFFFFFFFFFFFFFFFFFFFFFF AND CALLER PUSH20 0xFFFFFFFFFFFFFFFFFFFFFFFFFFFFFFFFFFFFFFFF AND PUSH32 0xDDF252AD1BE2C89B69C2B068FC378DAA952BA7F163C4A11628F55A4DF523B3EF DUP5 PUSH1 0x40 MLOAD PUSH2 0xBFD SWAP2 SWAP1 PUSH2 0x1058 JUMP JUMPDEST PUSH1 0x40 MLOAD DUP1 SWAP2 SUB SWAP1 LOG3 PUSH1 0x1 SWAP1 POP SWAP3 SWAP2 POP POP JUMP JUMPDEST PUSH0 PUSH1 0x5 PUSH0 DUP5 PUSH20 0xFFFFFFFFFFFFFFFFFFFFFFFFFFFFFFFFFFFFFFFF AND PUSH20 0xFFFFFFFFFFFFFFFFFFFFFFFFFFFFFFFFFFFFFFFF AND DUP2 MSTORE PUSH1 0x20 ADD SWAP1 DUP2 MSTORE PUSH1 0x20 ADD PUSH0 KECCAK256 PUSH0 DUP4 PUSH20 0xFFFFFFFFFFFFFFFFFFFFFFFFFFFFFFFFFFFFFFFF AND PUSH20 0xFFFFFFFFFFFFFFFFFFFFFFFFFFFFFFFFFFFFFFFF AND DUP2 MSTORE PUSH1 0x20 ADD SWAP1 DUP2 MSTORE PUSH1 0x20 ADD PUSH0 KECCAK256 SLOAD SWAP1 POP SWAP3 SWAP2 POP POP JUMP JUMPDEST PUSH0 PUSH20 0xFFFFFFFFFFFFFFFFFFFFFFFFFFFFFFFFFFFFFFFF AND DUP3 PUSH20 0xFFFFFFFFFFFFFFFFFFFFFFFFFFFFFFFFFFFFFFFF AND SUB PUSH2 0xCFF JUMPI PUSH1 0x40 MLOAD PUSH32 0x8C379A000000000000000000000000000000000000000000000000000000000 DUP2 MSTORE PUSH1 0x4 ADD PUSH2 0xCF6 SWAP1 PUSH2 0x13C8 JUMP JUMPDEST PUSH1 0x40 MLOAD DUP1 SWAP2 SUB SWAP1 REVERT JUMPDEST DUP1 PUSH1 0x4 PUSH0 DUP6 PUSH20 0xFFFFFFFFFFFFFFFFFFFFFFFFFFFFFFFFFFFFFFFF AND PUSH20 0xFFFFFFFFFFFFFFFFFFFFFFFFFFFFFFFFFFFFFFFF AND DUP2 MSTORE PUSH1 0x20 ADD SWAP1 DUP2 MSTORE PUSH1 0x20 ADD PUSH0 KECCAK256 SLOAD LT ISZERO PUSH2 0xD7F JUMPI PUSH1 0x40 MLOAD PUSH32 0x8C379A000000000000000000000000000000000000000000000000000000000 DUP2 MSTORE PUSH1 0x4 ADD PUSH2 0xD76 SWAP1 PUSH2 0x14CB JUMP JUMPDEST PUSH1 0x40 MLOAD DUP1 SWAP2 SUB SWAP1 REVERT JUMPDEST DUP1 PUSH1 0x4 PUSH0 DUP6 PUSH20 0xFFFFFFFFFFFFFFFFFFFFFFFFFFFFFFFFFFFFFFFF AND PUSH20 0xFFFFFFFFFFFFFFFFFFFFFFFFFFFFFFFFFFFFFFFF AND DUP2 MSTORE PUSH1 0x20 ADD SWAP1 DUP2 MSTORE PUSH1 0x20 ADD PUSH0 KECCAK256 PUSH0 DUP3 DUP3 SLOAD PUSH2 0xDCB SWAP2 SWAP1 PUSH2 0x12E3 JUMP JUMPDEST SWAP3 POP POP DUP2 SWAP1 SSTORE POP DUP1 PUSH1 0x4 PUSH0 DUP5 PUSH20 0xFFFFFFFFFFFFFFFFFFFFFFFFFFFFFFFFFFFFFFFF AND PUSH20 0xFFFFFFFFFFFFFFFFFFFFFFFFFFFFFFFFFFFFFFFF AND DUP2 MSTORE PUSH1 0x20 ADD SWAP1 DUP2 MSTORE PUSH1 0x20 ADD PUSH0 KECCAK256 PUSH0 DUP3 DUP3 SLOAD PUSH2 0xE1E SWAP2 SWAP1 PUSH2 0x13E6 JUMP JUMPDEST SWAP3 POP POP DUP2 SWAP1 SSTORE POP DUP2 PUSH20 0xFFFFFFFFFFFFFFFFFFFFFFFFFFFFFFFFFFFFFFFF AND DUP4 PUSH20 0xFFFFFFFFFFFFFFFFFFFFFFFFFFFFFFFFFFFFFFFF AND PUSH32 0xDDF252AD1BE2C89B69C2B068FC378DAA952BA7F163C4A11628F55A4DF523B3EF DUP4 PUSH1 0x40 MLOAD PUSH2 0xE82 SWAP2 SWAP1 PUSH2 0x1058 JUMP JUMPDEST PUSH1 0x40 MLOAD DUP1 SWAP2 SUB SWAP1 LOG3 POP POP POP JUMP JUMPDEST PUSH0 DUP2 MLOAD SWAP1 POP SWAP2 SWAP1 POP JUMP JUMPDEST PUSH0 DUP3 DUP3 MSTORE PUSH1 0x20 DUP3 ADD SWAP1 POP SWAP3 SWAP2 POP POP JUMP JUMPDEST DUP3 DUP2 DUP4 MCOPY PUSH0 DUP4 DUP4 ADD MSTORE POP POP POP JUMP JUMPDEST PUSH0 PUSH1 0x1F NOT PUSH1 0x1F DUP4 ADD AND SWAP1 POP SWAP2 SWAP1 POP JUMP JUMPDEST PUSH0 PUSH2 0xED1 DUP3 PUSH2 0xE8F JUMP JUMPDEST PUSH2 0xEDB DUP2 DUP6 PUSH2 0xE99 JUMP JUMPDEST SWAP4 POP PUSH2 0xEEB DUP2 DUP6 PUSH1 0x20 DUP7 ADD PUSH2 0xEA9 JUMP JUMPDEST PUSH2 0xEF4 DUP2 PUSH2 0xEB7 JUMP JUMPDEST DUP5 ADD SWAP2 POP POP SWAP3 SWAP2 POP POP JUMP JUMPDEST PUSH0 PUSH1 0x20 DUP3 ADD SWAP1 POP DUP2 DUP2 SUB PUSH0 DUP4 ADD MSTORE PUSH2 0xF17 DUP2 DUP5 PUSH2 0xEC7 JUMP JUMPDEST SWAP1 POP SWAP3 SWAP2 POP POP JUMP JUMPDEST PUSH0 PUSH20 0xFFFFFFFFFFFFFFFFFFFFFFFFFFFFFFFFFFFFFFFF DUP3 AND SWAP1 POP SWAP2 SWAP1 POP JUMP JUMPDEST PUSH0 PUSH2 0xF48 DUP3 PUSH2 0xF1F JUMP JUMPDEST SWAP1 POP SWAP2 SWAP1 POP JUMP JUMPDEST PUSH2 0xF58 DUP2 PUSH2 0xF3E JUMP JUMPDEST DUP3 MSTORE POP POP JUMP JUMPDEST PUSH0 PUSH1 0x20 DUP3 ADD SWAP1 POP PUSH2 0xF71 PUSH0 DUP4 ADD DUP5 PUSH2 0xF4F JUMP JUMPDEST SWAP3 SWAP2 POP POP JUMP JUMPDEST PUSH0 PUSH0 REVERT JUMPDEST PUSH2 0xF84 DUP2 PUSH2 0xF3E JUMP JUMPDEST DUP2 EQ PUSH2 0xF8E JUMPI PUSH0 PUSH0 REVERT JUMPDEST POP JUMP JUMPDEST PUSH0 DUP2 CALLDATALOAD SWAP1 POP PUSH2 0xF9F DUP2 PUSH2 0xF7B JUMP JUMPDEST SWAP3 SWAP2 POP POP JUMP JUMPDEST PUSH0 DUP2 SWAP1 POP SWAP2 SWAP1 POP JUMP JUMPDEST PUSH2 0xFB7 DUP2 PUSH2 0xFA5 JUMP JUMPDEST DUP2 EQ PUSH2 0xFC1 JUMPI PUSH0 PUSH0 REVERT JUMPDEST POP JUMP JUMPDEST PUSH0 DUP2 CALLDATALOAD SWAP1 POP PUSH2 0xFD2 DUP2 PUSH2 0xFAE JUMP JUMPDEST SWAP3 SWAP2 POP POP JUMP JUMPDEST PUSH0 PUSH0 PUSH1 0x40 DUP4 DUP6 SUB SLT ISZERO PUSH2 0xFEE JUMPI PUSH2 0xFED PUSH2 0xF77 JUMP JUMPDEST JUMPDEST PUSH0 PUSH2 0xFFB DUP6 DUP3 DUP7 ADD PUSH2 0xF91 JUMP JUMPDEST SWAP3 POP POP PUSH1 0x20 PUSH2 0x100C DUP6 DUP3 DUP7 ADD PUSH2 0xFC4 JUMP JUMPDEST SWAP2 POP POP SWAP3 POP SWAP3 SWAP1 POP JUMP JUMPDEST PUSH0 DUP2 ISZERO ISZERO SWAP1 POP SWAP2 SWAP1 POP JUMP JUMPDEST PUSH2 0x102A DUP2 PUSH2 0x1016 JUMP JUMPDEST DUP3 MSTORE POP POP JUMP JUMPDEST PUSH0 PUSH1 0x20 DUP3 ADD SWAP1 POP PUSH2 0x1043 PUSH0 DUP4 ADD DUP5 PUSH2 0x1021 JUMP JUMPDEST SWAP3 SWAP2 POP POP JUMP JUMPDEST PUSH2 0x1052 DUP2 PUSH2 0xFA5 JUMP JUMPDEST DUP3 MSTORE POP POP JUMP JUMPDEST PUSH0 PUSH1 0x20 DUP3 ADD SWAP1 POP PUSH2 0x106B PUSH0 DUP4 ADD DUP5 PUSH2 0x1049 JUMP JUMPDEST SWAP3 SWAP2 POP POP JUMP JUMPDEST PUSH0 PUSH0 PUSH0 PUSH1 0x60 DUP5 DUP7 SUB SLT ISZERO PUSH2 0x1088 JUMPI PUSH2 0x1087 PUSH2 0xF77 JUMP JUMPDEST JUMPDEST PUSH0 PUSH2 0x1095 DUP7 DUP3 DUP8 ADD PUSH2 0xF91 JUMP JUMPDEST SWAP4 POP POP PUSH1 0x20 PUSH2 0x10A6 DUP7 DUP3 DUP8 ADD PUSH2 0xF91 JUMP JUMPDEST SWAP3 POP POP PUSH1 0x40 PUSH2 0x10B7 DUP7 DUP3 DUP8 ADD PUSH2 0xFC4 JUMP JUMPDEST SWAP2 POP POP SWAP3 POP SWAP3 POP SWAP3 JUMP JUMPDEST PUSH0 PUSH1 0xFF DUP3 AND SWAP1 POP SWAP2 SWAP1 POP JUMP JUMPDEST PUSH2 0x10D6 DUP2 PUSH2 0x10C1 JUMP JUMPDEST DUP3 MSTORE POP POP JUMP JUMPDEST PUSH0 PUSH1 0x20 DUP3 ADD SWAP1 POP PUSH2 0x10EF PUSH0 DUP4 ADD DUP5 PUSH2 0x10CD JUMP JUMPDEST SWAP3 SWAP2 POP POP JUMP JUMPDEST PUSH0 PUSH1 0x20 DUP3 DUP5 SUB SLT ISZERO PUSH2 0x110A JUMPI PUSH2 0x1109 PUSH2 0xF77 JUMP JUMPDEST JUMPDEST PUSH0 PUSH2 0x1117 DUP5 DUP3 DUP6 ADD PUSH2 0xFC4 JUMP JUMPDEST SWAP2 POP POP SWAP3 SWAP2 POP POP JUMP JUMPDEST PUSH0 PUSH1 0x20 DUP3 DUP5 SUB SLT ISZERO PUSH2 0x1135 JUMPI PUSH2 0x1134 PUSH2 0xF77 JUMP JUMPDEST JUMPDEST PUSH0 PUSH2 0x1142 DUP5 DUP3 DUP6 ADD PUSH2 0xF91 JUMP JUMPDEST SWAP2 POP POP SWAP3 SWAP2 POP POP JUMP JUMPDEST PUSH0 PUSH0 PUSH1 0x40 DUP4 DUP6 SUB SLT ISZERO PUSH2 0x1161 JUMPI PUSH2 0x1160 PUSH2 0xF77 JUMP JUMPDEST JUMPDEST PUSH0 PUSH2 0x116E DUP6 DUP3 DUP7 ADD PUSH2 0xF91 JUMP JUMPDEST SWAP3 POP POP PUSH1 0x20 PUSH2 0x117F DUP6 DUP3 DUP7 ADD PUSH2 0xF91 JUMP JUMPDEST SWAP2 POP POP SWAP3 POP SWAP3 SWAP1 POP JUMP JUMPDEST PUSH32 0x4E487B7100000000000000000000000000000000000000000000000000000000 PUSH0 MSTORE PUSH1 0x22 PUSH1 0x4 MSTORE PUSH1 0x24 PUSH0 REVERT JUMPDEST PUSH0 PUSH1 0x2 DUP3 DIV SWAP1 POP PUSH1 0x1 DUP3 AND DUP1 PUSH2 0x11CD JUMPI PUSH1 0x7F DUP3 AND SWAP2 POP JUMPDEST PUSH1 0x20 DUP3 LT DUP2 SUB PUSH2 0x11E0 JUMPI PUSH2 0x11DF PUSH2 0x1189 JUMP JUMPDEST JUMPDEST POP SWAP2 SWAP1 POP JUMP JUMPDEST PUSH32 0x43796265724F7263733A205A65726F2041646472657373000000000000000000 PUSH0 DUP3 ADD MSTORE POP JUMP JUMPDEST PUSH0 PUSH2 0x121A PUSH1 0x17 DUP4 PUSH2 0xE99 JUMP JUMPDEST SWAP2 POP PUSH2 0x1225 DUP3 PUSH2 0x11E6 JUMP JUMPDEST PUSH1 0x20 DUP3 ADD SWAP1 POP SWAP2 SWAP1 POP JUMP JUMPDEST PUSH0 PUSH1 0x20 DUP3 ADD SWAP1 POP DUP2 DUP2 SUB PUSH0 DUP4 ADD MSTORE PUSH2 0x1247 DUP2 PUSH2 0x120E JUMP JUMPDEST SWAP1 POP SWAP2 SWAP1 POP JUMP JUMPDEST PUSH32 0x43796265726F7263733A204C6F7720416C6C6F77616E63650000000000000000 PUSH0 DUP3 ADD MSTORE POP JUMP JUMPDEST PUSH0 PUSH2 0x1282 PUSH1 0x18 DUP4 PUSH2 0xE99 JUMP JUMPDEST SWAP2 POP PUSH2 0x128D DUP3 PUSH2 0x124E JUMP JUMPDEST PUSH1 0x20 DUP3 ADD SWAP1 POP SWAP2 SWAP1 POP JUMP JUMPDEST PUSH0 PUSH1 0x20 DUP3 ADD SWAP1 POP DUP2 DUP2 SUB PUSH0 DUP4 ADD MSTORE PUSH2 0x12AF DUP2 PUSH2 0x1276 JUMP JUMPDEST SWAP1 POP SWAP2 SWAP1 POP JUMP JUMPDEST PUSH32 0x4E487B7100000000000000000000000000000000000000000000000000000000 PUSH0 MSTORE PUSH1 0x11 PUSH1 0x4 MSTORE PUSH1 0x24 PUSH0 REVERT JUMPDEST PUSH0 PUSH2 0x12ED DUP3 PUSH2 0xFA5 JUMP JUMPDEST SWAP2 POP PUSH2 0x12F8 DUP4 PUSH2 0xFA5 JUMP JUMPDEST SWAP3 POP DUP3 DUP3 SUB SWAP1 POP DUP2 DUP2 GT ISZERO PUSH2 0x1310 JUMPI PUSH2 0x130F PUSH2 0x12B6 JUMP JUMPDEST JUMPDEST SWAP3 SWAP2 POP POP JUMP JUMPDEST PUSH32 0x43796265726F7263733A204163636573732044656E6965640000000000000000 PUSH0 DUP3 ADD MSTORE POP JUMP JUMPDEST PUSH0 PUSH2 0x134A PUSH1 0x18 DUP4 PUSH2 0xE99 JUMP JUMPDEST SWAP2 POP PUSH2 0x1355 DUP3 PUSH2 0x1316 JUMP JUMPDEST PUSH1 0x20 DUP3 ADD SWAP1 POP SWAP2 SWAP1 POP JUMP JUMPDEST PUSH0 PUSH1 0x20 DUP3 ADD SWAP1 POP DUP2 DUP2 SUB PUSH0 DUP4 ADD MSTORE PUSH2 0x1377 DUP2 PUSH2 0x133E JUMP JUMPDEST SWAP1 POP SWAP2 SWAP1 POP JUMP JUMPDEST PUSH32 0x43796265726F7263733A205A65726F20726563697069656E7400000000000000 PUSH0 DUP3 ADD MSTORE POP JUMP JUMPDEST PUSH0 PUSH2 0x13B2 PUSH1 0x19 DUP4 PUSH2 0xE99 JUMP JUMPDEST SWAP2 POP PUSH2 0x13BD DUP3 PUSH2 0x137E JUMP JUMPDEST PUSH1 0x20 DUP3 ADD SWAP1 POP SWAP2 SWAP1 POP JUMP JUMPDEST PUSH0 PUSH1 0x20 DUP3 ADD SWAP1 POP DUP2 DUP2 SUB PUSH0 DUP4 ADD MSTORE PUSH2 0x13DF DUP2 PUSH2 0x13A6 JUMP JUMPDEST SWAP1 POP SWAP2 SWAP1 POP JUMP JUMPDEST PUSH0 PUSH2 0x13F0 DUP3 PUSH2 0xFA5 JUMP JUMPDEST SWAP2 POP PUSH2 0x13FB DUP4 PUSH2 0xFA5 JUMP JUMPDEST SWAP3 POP DUP3 DUP3 ADD SWAP1 POP DUP1 DUP3 GT ISZERO PUSH2 0x1413 JUMPI PUSH2 0x1412 PUSH2 0x12B6 JUMP JUMPDEST JUMPDEST SWAP3 SWAP2 POP POP JUMP JUMPDEST PUSH32 0x43796265726F7263733A204D617820537570706C790000000000000000000000 PUSH0 DUP3 ADD MSTORE POP JUMP JUMPDEST PUSH0 PUSH2 0x144D PUSH1 0x15 DUP4 PUSH2 0xE99 JUMP JUMPDEST SWAP2 POP PUSH2 0x1458 DUP3 PUSH2 0x1419 JUMP JUMPDEST PUSH1 0x20 DUP3 ADD SWAP1 POP SWAP2 SWAP1 POP JUMP JUMPDEST PUSH0 PUSH1 0x20 DUP3 ADD SWAP1 POP DUP2 DUP2 SUB PUSH0 DUP4 ADD MSTORE PUSH2 0x147A DUP2 PUSH2 0x1441 JUMP JUMPDEST SWAP1 POP SWAP2 SWAP1 POP JUMP JUMPDEST PUSH32 0x43796265726F7263733A204C6F772042616C616E636500000000000000000000 PUSH0 DUP3 ADD MSTORE POP JUMP JUMPDEST PUSH0 PUSH2 0x14B5 PUSH1 0x16 DUP4 PUSH2 0xE99 JUMP JUMPDEST SWAP2 POP PUSH2 0x14C0 DUP3 PUSH2 0x1481 JUMP JUMPDEST PUSH1 0x20 DUP3 ADD SWAP1 POP SWAP2 SWAP1 POP JUMP JUMPDEST PUSH0 PUSH1 0x20 DUP3 ADD SWAP1 POP DUP2 DUP2 SUB PUSH0 DUP4 ADD MSTORE PUSH2 0x14E2 DUP2 PUSH2 0x14A9 JUMP JUMPDEST SWAP1 POP SWAP2 SWAP1 POP JUMP INVALID LOG2 PUSH5 0x6970667358 0x22 SLT KECCAK256 0x24 PUSH5 0x6C83F34996 MCOPY 0xD5 PUSH14 0x6286E290E1F39DECECB6B9B6AD4C GT MULMOD 0x26 MSTORE PUSH7 0x3226B664736F6C PUSH4 0x4300081E STOP CALLER "
				},
				"gasEstimates": {
					"creation": {
						"codeDepositCost": "1081400",
						"executionCost": "infinite",
						"totalCost": "infinite"
					},
					"external": {
						"MAX_SUPPLY()": "infinite",
						"allowance(address,address)": "infinite",
						"approve(address,uint256)": "infinite",
						"balanceOf(address)": "2896",
						"burn(uint256)": "infinite",
						"decimals()": "405",
						"mint(address,uint256)": "infinite",
						"minter()": "2554",
						"name()": "infinite",
						"symbol()": "infinite",
						"totalSupply()": "2448",
						"totalSupplyView()": "2454",
						"transfer(address,uint256)": "infinite",
						"transferFrom(address,address,uint256)": "infinite"
					},
					"internal": {
						"_transfer(address,address,uint256)": "infinite"
					}
				},
				"methodIdentifiers": {
					"MAX_SUPPLY()": "32cb6b0c",
					"allowance(address,address)": "dd62ed3e",
					"approve(address,uint256)": "095ea7b3",
					"balanceOf(address)": "70a08231",
					"burn(uint256)": "42966c68",
					"decimals()": "313ce567",
					"mint(address,uint256)": "40c10f19",
					"minter()": "07546172",
					"name()": "06fdde03",
					"symbol()": "95d89b41",
					"totalSupply()": "18160ddd",
					"totalSupplyView()": "7898cd18",
					"transfer(address,uint256)": "a9059cbb",
					"transferFrom(address,address,uint256)": "23b872dd"
				}
			},
			"storageLayout": {
				"storage": [
					{
						"astId": 6,
						"contract": "contracts/Cyberorcs.sol:Cyberorcs",
						"label": "NAME",
						"offset": 0,
						"slot": "0",
						"type": "t_string_storage"
					},
					{
						"astId": 8,
						"contract": "contracts/Cyberorcs.sol:Cyberorcs",
						"label": "SYMBOL",
						"offset": 0,
						"slot": "1",
						"type": "t_string_storage"
					},
					{
						"astId": 15,
						"contract": "contracts/Cyberorcs.sol:Cyberorcs",
						"label": "totalSupply",
						"offset": 0,
						"slot": "2",
						"type": "t_uint256"
					},
					{
						"astId": 17,
						"contract": "contracts/Cyberorcs.sol:Cyberorcs",
						"label": "minter",
						"offset": 0,
						"slot": "3",
						"type": "t_address"
					},
					{
						"astId": 21,
						"contract": "contracts/Cyberorcs.sol:Cyberorcs",
						"label": "_balance",
						"offset": 0,
						"slot": "4",
						"type": "t_mapping(t_address,t_uint256)"
					},
					{
						"astId": 27,
						"contract": "contracts/Cyberorcs.sol:Cyberorcs",
						"label": "_allowance",
						"offset": 0,
						"slot": "5",
						"type": "t_mapping(t_address,t_mapping(t_address,t_uint256))"
					}
				],
				"types": {
					"t_address": {
						"encoding": "inplace",
						"label": "address",
						"numberOfBytes": "20"
					},
					"t_mapping(t_address,t_mapping(t_address,t_uint256))": {
						"encoding": "mapping",
						"key": "t_address",
						"label": "mapping(address => mapping(address => uint256))",
						"numberOfBytes": "32",
						"value": "t_mapping(t_address,t_uint256)"
					},
					"t_mapping(t_address,t_uint256)": {
						"encoding": "mapping",
						"key": "t_address",
						"label": "mapping(address => uint256)",
						"numberOfBytes": "32",
						"value": "t_uint256"
					},
					"t_string_storage": {
						"encoding": "bytes",
						"label": "string",
						"numberOfBytes": "32"
					},
					"t_uint256": {
						"encoding": "inplace",
						"label": "uint256",
						"numberOfBytes": "32"
					}
				}
			},
			"userdoc": {
				"kind": "user",
				"methods": {},
				"version": 1
			}
		}
	}
}