{
	"contracts/OrcsMarketplace.sol": {
		"OrcsMarketplace": {
			"abi": [
				{
					"inputs": [
						{
							"internalType": "address",
							"name": "_cyberOrcs",
							"type": "address"
						},
						{
							"internalType": "address",
							"name": "_orcsNFT",
							"type": "address"
						}
					],
					"stateMutability": "nonpayable",
					"type": "constructor"
				},
				{
					"anonymous": false,
					"inputs": [
						{
							"indexed": true,
							"internalType": "address",
							"name": "seller",
							"type": "address"
						},
						{
							"indexed": true,
							"internalType": "uint256",
							"name": "tokenId",
							"type": "uint256"
						}
					],
					"name": "Cancelled",
					"type": "event"
				},
				{
					"anonymous": false,
					"inputs": [
						{
							"indexed": true,
							"internalType": "address",
							"name": "seller",
							"type": "address"
						},
						{
							"indexed": true,
							"internalType": "uint256",
							"name": "tokenId",
							"type": "uint256"
						},
						{
							"indexed": false,
							"internalType": "uint256",
							"name": "price",
							"type": "uint256"
						}
					],
					"name": "Listed",
					"type": "event"
				},
				{
					"anonymous": false,
					"inputs": [
						{
							"indexed": true,
							"internalType": "address",
							"name": "buyer",
							"type": "address"
						},
						{
							"indexed": true,
							"internalType": "address",
							"name": "seller",
							"type": "address"
						},
						{
							"indexed": true,
							"internalType": "uint256",
							"name": "tokenId",
							"type": "uint256"
						},
						{
							"indexed": false,
							"internalType": "uint256",
							"name": "price",
							"type": "uint256"
						}
					],
					"name": "Sold",
					"type": "event"
				},
				{
					"inputs": [
						{
							"internalType": "uint256",
							"name": "tokenId",
							"type": "uint256"
						}
					],
					"name": "buy",
					"outputs": [],
					"stateMutability": "nonpayable",
					"type": "function"
				},
				{
					"inputs": [
						{
							"internalType": "uint256",
							"name": "tokenId",
							"type": "uint256"
						}
					],
					"name": "cancel",
					"outputs": [],
					"stateMutability": "nonpayable",
					"type": "function"
				},
				{
					"inputs": [],
					"name": "cyberOrcs",
					"outputs": [
						{
							"internalType": "contract ICyberorcs",
							"name": "",
							"type": "address"
						}
					],
					"stateMutability": "view",
					"type": "function"
				},
				{
					"inputs": [
						{
							"internalType": "uint256",
							"name": "tokenId",
							"type": "uint256"
						}
					],
					"name": "getListing",
					"outputs": [
						{
							"components": [
								{
									"internalType": "uint256",
									"name": "price",
									"type": "uint256"
								},
								{
									"internalType": "address",
									"name": "seller",
									"type": "address"
								},
								{
									"internalType": "enum IOrcsMarketplace.Status",
									"name": "status",
									"type": "uint8"
								}
							],
							"internalType": "struct IOrcsMarketplace.Listing",
							"name": "",
							"type": "tuple"
						}
					],
					"stateMutability": "view",
					"type": "function"
				},
				{
					"inputs": [
						{
							"internalType": "uint256",
							"name": "tokenId",
							"type": "uint256"
						},
						{
							"internalType": "uint256",
							"name": "price",
							"type": "uint256"
						}
					],
					"name": "list",
					"outputs": [],
					"stateMutability": "nonpayable",
					"type": "function"
				},
				{
					"inputs": [],
					"name": "orcsNFT",
					"outputs": [
						{
							"internalType": "contract IOrcsNFT",
							"name": "",
							"type": "address"
						}
					],
					"stateMutability": "view",
					"type": "function"
				}
			],
			"devdoc": {
				"kind": "dev",
				"methods": {},
				"version": 1
			},
			"evm": {
				"assembly": "    /* \"contracts/OrcsMarketplace.sol\":210:2858  contract OrcsMarketplace is IOrcsMarketplace {... */\n  mstore(0x40, 0xc0)\n    /* \"contracts/OrcsMarketplace.sol\":404:715  constructor (address _cyberOrcs, address _orcsNFT) {... */\n  callvalue\n  dup1\n  iszero\n  tag_1\n  jumpi\n  revert(0x00, 0x00)\ntag_1:\n  pop\n  mload(0x40)\n  sub(codesize, bytecodeSize)\n  dup1\n  bytecodeSize\n  dup4\n  codecopy\n  dup2\n  dup2\n  add\n  0x40\n  mstore\n  dup2\n  add\n  swap1\n  tag_2\n  swap2\n  swap1\n  tag_3\n  jump\t// in\ntag_2:\n    /* \"contracts/OrcsMarketplace.sol\":496:497  0 */\n  0x00\n    /* \"contracts/OrcsMarketplace.sol\":474:498  _cyberOrcs != address(0) */\n  0xffffffffffffffffffffffffffffffffffffffff\n  and\n    /* \"contracts/OrcsMarketplace.sol\":474:484  _cyberOrcs */\n  dup3\n    /* \"contracts/OrcsMarketplace.sol\":474:498  _cyberOrcs != address(0) */\n  0xffffffffffffffffffffffffffffffffffffffff\n  and\n  sub\n    /* \"contracts/OrcsMarketplace.sol\":466:541  require(_cyberOrcs != address(0), \"OrcsMarketplace: invalid Token address\") */\n  tag_6\n  jumpi\n  mload(0x40)\n  0x08c379a000000000000000000000000000000000000000000000000000000000\n  dup2\n  mstore\n  0x04\n  add\n  tag_7\n  swap1\n  tag_8\n  jump\t// in\ntag_7:\n  mload(0x40)\n  dup1\n  swap2\n  sub\n  swap1\n  revert\ntag_6:\n    /* \"contracts/OrcsMarketplace.sol\":580:581  0 */\n  0x00\n    /* \"contracts/OrcsMarketplace.sol\":560:582  _orcsNFT != address(0) */\n  0xffffffffffffffffffffffffffffffffffffffff\n  and\n    /* \"contracts/OrcsMarketplace.sol\":560:568  _orcsNFT */\n  dup2\n    /* \"contracts/OrcsMarketplace.sol\":560:582  _orcsNFT != address(0) */\n  0xffffffffffffffffffffffffffffffffffffffff\n  and\n  sub\n    /* \"contracts/OrcsMarketplace.sol\":552:623  require(_orcsNFT != address(0), \"OrcsMarketplace: invalid NFT address\") */\n  tag_9\n  jumpi\n  mload(0x40)\n  0x08c379a000000000000000000000000000000000000000000000000000000000\n  dup2\n  mstore\n  0x04\n  add\n  tag_10\n  swap1\n  tag_11\n  jump\t// in\ntag_10:\n  mload(0x40)\n  dup1\n  swap2\n  sub\n  swap1\n  revert\ntag_9:\n    /* \"contracts/OrcsMarketplace.sol\":657:667  _cyberOrcs */\n  dup2\n    /* \"contracts/OrcsMarketplace.sol\":634:668  cyberOrcs = ICyberorcs(_cyberOrcs) */\n  0xffffffffffffffffffffffffffffffffffffffff\n  and\n  0x80\n  dup2\n  0xffffffffffffffffffffffffffffffffffffffff\n  and\n  dup2\n  mstore\n  pop\n  pop\n    /* \"contracts/OrcsMarketplace.sol\":698:706  _orcsNFT */\n  dup1\n    /* \"contracts/OrcsMarketplace.sol\":679:707  orcsNFT = IOrcsNFT(_orcsNFT) */\n  0xffffffffffffffffffffffffffffffffffffffff\n  and\n  0xa0\n  dup2\n  0xffffffffffffffffffffffffffffffffffffffff\n  and\n  dup2\n  mstore\n  pop\n  pop\n    /* \"contracts/OrcsMarketplace.sol\":404:715  constructor (address _cyberOrcs, address _orcsNFT) {... */\n  pop\n  pop\n    /* \"contracts/OrcsMarketplace.sol\":210:2858  contract OrcsMarketplace is IOrcsMarketplace {... */\n  jump(tag_12)\n    /* \"#utility.yul\":88:205   */\ntag_14:\n    /* \"#utility.yul\":197:198   */\n  0x00\n    /* \"#utility.yul\":194:195   */\n  0x00\n    /* \"#utility.yul\":187:199   */\n  revert\n    /* \"#utility.yul\":334:460   */\ntag_16:\n    /* \"#utility.yul\":371:378   */\n  0x00\n    /* \"#utility.yul\":411:453   */\n  0xffffffffffffffffffffffffffffffffffffffff\n    /* \"#utility.yul\":404:409   */\n  dup3\n    /* \"#utility.yul\":400:454   */\n  and\n    /* \"#utility.yul\":389:454   */\n  swap1\n  pop\n    /* \"#utility.yul\":334:460   */\n  swap2\n  swap1\n  pop\n  jump\t// out\n    /* \"#utility.yul\":466:562   */\ntag_17:\n    /* \"#utility.yul\":503:510   */\n  0x00\n    /* \"#utility.yul\":532:556   */\n  tag_31\n    /* \"#utility.yul\":550:555   */\n  dup3\n    /* \"#utility.yul\":532:556   */\n  tag_16\n  jump\t// in\ntag_31:\n    /* \"#utility.yul\":521:556   */\n  swap1\n  pop\n    /* \"#utility.yul\":466:562   */\n  swap2\n  swap1\n  pop\n  jump\t// out\n    /* \"#utility.yul\":568:690   */\ntag_18:\n    /* \"#utility.yul\":641:665   */\n  tag_33\n    /* \"#utility.yul\":659:664   */\n  dup2\n    /* \"#utility.yul\":641:665   */\n  tag_17\n  jump\t// in\ntag_33:\n    /* \"#utility.yul\":634:639   */\n  dup2\n    /* \"#utility.yul\":631:666   */\n  eq\n    /* \"#utility.yul\":621:684   */\n  tag_34\n  jumpi\n    /* \"#utility.yul\":680:681   */\n  0x00\n    /* \"#utility.yul\":677:678   */\n  0x00\n    /* \"#utility.yul\":670:682   */\n  revert\n    /* \"#utility.yul\":621:684   */\ntag_34:\n    /* \"#utility.yul\":568:690   */\n  pop\n  jump\t// out\n    /* \"#utility.yul\":696:839   */\ntag_19:\n    /* \"#utility.yul\":753:758   */\n  0x00\n    /* \"#utility.yul\":784:790   */\n  dup2\n    /* \"#utility.yul\":778:791   */\n  mload\n    /* \"#utility.yul\":769:791   */\n  swap1\n  pop\n    /* \"#utility.yul\":800:833   */\n  tag_36\n    /* \"#utility.yul\":827:832   */\n  dup2\n    /* \"#utility.yul\":800:833   */\n  tag_18\n  jump\t// in\ntag_36:\n    /* \"#utility.yul\":696:839   */\n  swap3\n  swap2\n  pop\n  pop\n  jump\t// out\n    /* \"#utility.yul\":845:1352   */\ntag_3:\n    /* \"#utility.yul\":924:930   */\n  0x00\n    /* \"#utility.yul\":932:938   */\n  0x00\n    /* \"#utility.yul\":981:983   */\n  0x40\n    /* \"#utility.yul\":969:978   */\n  dup4\n    /* \"#utility.yul\":960:967   */\n  dup6\n    /* \"#utility.yul\":956:979   */\n  sub\n    /* \"#utility.yul\":952:984   */\n  slt\n    /* \"#utility.yul\":949:1068   */\n  iszero\n  tag_38\n  jumpi\n    /* \"#utility.yul\":987:1066   */\n  tag_39\n  tag_14\n  jump\t// in\ntag_39:\n    /* \"#utility.yul\":949:1068   */\ntag_38:\n    /* \"#utility.yul\":1107:1108   */\n  0x00\n    /* \"#utility.yul\":1132:1196   */\n  tag_40\n    /* \"#utility.yul\":1188:1195   */\n  dup6\n    /* \"#utility.yul\":1179:1185   */\n  dup3\n    /* \"#utility.yul\":1168:1177   */\n  dup7\n    /* \"#utility.yul\":1164:1186   */\n  add\n    /* \"#utility.yul\":1132:1196   */\n  tag_19\n  jump\t// in\ntag_40:\n    /* \"#utility.yul\":1122:1196   */\n  swap3\n  pop\n    /* \"#utility.yul\":1078:1206   */\n  pop\n    /* \"#utility.yul\":1245:1247   */\n  0x20\n    /* \"#utility.yul\":1271:1335   */\n  tag_41\n    /* \"#utility.yul\":1327:1334   */\n  dup6\n    /* \"#utility.yul\":1318:1324   */\n  dup3\n    /* \"#utility.yul\":1307:1316   */\n  dup7\n    /* \"#utility.yul\":1303:1325   */\n  add\n    /* \"#utility.yul\":1271:1335   */\n  tag_19\n  jump\t// in\ntag_41:\n    /* \"#utility.yul\":1261:1335   */\n  swap2\n  pop\n    /* \"#utility.yul\":1216:1345   */\n  pop\n    /* \"#utility.yul\":845:1352   */\n  swap3\n  pop\n  swap3\n  swap1\n  pop\n  jump\t// out\n    /* \"#utility.yul\":1358:1527   */\ntag_20:\n    /* \"#utility.yul\":1442:1453   */\n  0x00\n    /* \"#utility.yul\":1476:1482   */\n  dup3\n    /* \"#utility.yul\":1471:1474   */\n  dup3\n    /* \"#utility.yul\":1464:1483   */\n  mstore\n    /* \"#utility.yul\":1516:1520   */\n  0x20\n    /* \"#utility.yul\":1511:1514   */\n  dup3\n    /* \"#utility.yul\":1507:1521   */\n  add\n    /* \"#utility.yul\":1492:1521   */\n  swap1\n  pop\n    /* \"#utility.yul\":1358:1527   */\n  swap3\n  swap2\n  pop\n  pop\n  jump\t// out\n    /* \"#utility.yul\":1533:1758   */\ntag_21:\n    /* \"#utility.yul\":1673:1707   */\n  0x4f7263734d61726b6574706c6163653a20696e76616c696420546f6b656e2061\n    /* \"#utility.yul\":1669:1670   */\n  0x00\n    /* \"#utility.yul\":1661:1667   */\n  dup3\n    /* \"#utility.yul\":1657:1671   */\n  add\n    /* \"#utility.yul\":1650:1708   */\n  mstore\n    /* \"#utility.yul\":1742:1750   */\n  0x6464726573730000000000000000000000000000000000000000000000000000\n    /* \"#utility.yul\":1737:1739   */\n  0x20\n    /* \"#utility.yul\":1729:1735   */\n  dup3\n    /* \"#utility.yul\":1725:1740   */\n  add\n    /* \"#utility.yul\":1718:1751   */\n  mstore\n    /* \"#utility.yul\":1533:1758   */\n  pop\n  jump\t// out\n    /* \"#utility.yul\":1764:2130   */\ntag_22:\n    /* \"#utility.yul\":1906:1909   */\n  0x00\n    /* \"#utility.yul\":1927:1994   */\n  tag_45\n    /* \"#utility.yul\":1991:1993   */\n  0x26\n    /* \"#utility.yul\":1986:1989   */\n  dup4\n    /* \"#utility.yul\":1927:1994   */\n  tag_20\n  jump\t// in\ntag_45:\n    /* \"#utility.yul\":1920:1994   */\n  swap2\n  pop\n    /* \"#utility.yul\":2003:2096   */\n  tag_46\n    /* \"#utility.yul\":2092:2095   */\n  dup3\n    /* \"#utility.yul\":2003:2096   */\n  tag_21\n  jump\t// in\ntag_46:\n    /* \"#utility.yul\":2121:2123   */\n  0x40\n    /* \"#utility.yul\":2116:2119   */\n  dup3\n    /* \"#utility.yul\":2112:2124   */\n  add\n    /* \"#utility.yul\":2105:2124   */\n  swap1\n  pop\n    /* \"#utility.yul\":1764:2130   */\n  swap2\n  swap1\n  pop\n  jump\t// out\n    /* \"#utility.yul\":2136:2555   */\ntag_8:\n    /* \"#utility.yul\":2302:2306   */\n  0x00\n    /* \"#utility.yul\":2340:2342   */\n  0x20\n    /* \"#utility.yul\":2329:2338   */\n  dup3\n    /* \"#utility.yul\":2325:2343   */\n  add\n    /* \"#utility.yul\":2317:2343   */\n  swap1\n  pop\n    /* \"#utility.yul\":2389:2398   */\n  dup2\n    /* \"#utility.yul\":2383:2387   */\n  dup2\n    /* \"#utility.yul\":2379:2399   */\n  sub\n    /* \"#utility.yul\":2375:2376   */\n  0x00\n    /* \"#utility.yul\":2364:2373   */\n  dup4\n    /* \"#utility.yul\":2360:2377   */\n  add\n    /* \"#utility.yul\":2353:2400   */\n  mstore\n    /* \"#utility.yul\":2417:2548   */\n  tag_48\n    /* \"#utility.yul\":2543:2547   */\n  dup2\n    /* \"#utility.yul\":2417:2548   */\n  tag_22\n  jump\t// in\ntag_48:\n    /* \"#utility.yul\":2409:2548   */\n  swap1\n  pop\n    /* \"#utility.yul\":2136:2555   */\n  swap2\n  swap1\n  pop\n  jump\t// out\n    /* \"#utility.yul\":2561:2784   */\ntag_23:\n    /* \"#utility.yul\":2701:2735   */\n  0x4f7263734d61726b6574706c6163653a20696e76616c6964204e465420616464\n    /* \"#utility.yul\":2697:2698   */\n  0x00\n    /* \"#utility.yul\":2689:2695   */\n  dup3\n    /* \"#utility.yul\":2685:2699   */\n  add\n    /* \"#utility.yul\":2678:2736   */\n  mstore\n    /* \"#utility.yul\":2770:2776   */\n  0x7265737300000000000000000000000000000000000000000000000000000000\n    /* \"#utility.yul\":2765:2767   */\n  0x20\n    /* \"#utility.yul\":2757:2763   */\n  dup3\n    /* \"#utility.yul\":2753:2768   */\n  add\n    /* \"#utility.yul\":2746:2777   */\n  mstore\n    /* \"#utility.yul\":2561:2784   */\n  pop\n  jump\t// out\n    /* \"#utility.yul\":2790:3156   */\ntag_24:\n    /* \"#utility.yul\":2932:2935   */\n  0x00\n    /* \"#utility.yul\":2953:3020   */\n  tag_51\n    /* \"#utility.yul\":3017:3019   */\n  0x24\n    /* \"#utility.yul\":3012:3015   */\n  dup4\n    /* \"#utility.yul\":2953:3020   */\n  tag_20\n  jump\t// in\ntag_51:\n    /* \"#utility.yul\":2946:3020   */\n  swap2\n  pop\n    /* \"#utility.yul\":3029:3122   */\n  tag_52\n    /* \"#utility.yul\":3118:3121   */\n  dup3\n    /* \"#utility.yul\":3029:3122   */\n  tag_23\n  jump\t// in\ntag_52:\n    /* \"#utility.yul\":3147:3149   */\n  0x40\n    /* \"#utility.yul\":3142:3145   */\n  dup3\n    /* \"#utility.yul\":3138:3150   */\n  add\n    /* \"#utility.yul\":3131:3150   */\n  swap1\n  pop\n    /* \"#utility.yul\":2790:3156   */\n  swap2\n  swap1\n  pop\n  jump\t// out\n    /* \"#utility.yul\":3162:3581   */\ntag_11:\n    /* \"#utility.yul\":3328:3332   */\n  0x00\n    /* \"#utility.yul\":3366:3368   */\n  0x20\n    /* \"#utility.yul\":3355:3364   */\n  dup3\n    /* \"#utility.yul\":3351:3369   */\n  add\n    /* \"#utility.yul\":3343:3369   */\n  swap1\n  pop\n    /* \"#utility.yul\":3415:3424   */\n  dup2\n    /* \"#utility.yul\":3409:3413   */\n  dup2\n    /* \"#utility.yul\":3405:3425   */\n  sub\n    /* \"#utility.yul\":3401:3402   */\n  0x00\n    /* \"#utility.yul\":3390:3399   */\n  dup4\n    /* \"#utility.yul\":3386:3403   */\n  add\n    /* \"#utility.yul\":3379:3426   */\n  mstore\n    /* \"#utility.yul\":3443:3574   */\n  tag_54\n    /* \"#utility.yul\":3569:3573   */\n  dup2\n    /* \"#utility.yul\":3443:3574   */\n  tag_24\n  jump\t// in\ntag_54:\n    /* \"#utility.yul\":3435:3574   */\n  swap1\n  pop\n    /* \"#utility.yul\":3162:3581   */\n  swap2\n  swap1\n  pop\n  jump\t// out\n    /* \"contracts/OrcsMarketplace.sol\":210:2858  contract OrcsMarketplace is IOrcsMarketplace {... */\ntag_12:\n  mload(0x80)\n  mload(0xa0)\n  codecopy(0x00, dataOffset(sub_0), dataSize(sub_0))\n  0x00\n  assignImmutable(\"0x980c46aeb242fb2816eec3c43a568cdc6adda404b46e62cce4e3fe7d929881e3\")\n  0x00\n  assignImmutable(\"0x7d2d5796d747fbd89dfac5294d9ace4e9994102d54e76e822233a2e75d4144b1\")\n  return(0x00, dataSize(sub_0))\nstop\n\nsub_0: assembly {\n        /* \"contracts/OrcsMarketplace.sol\":210:2858  contract OrcsMarketplace is IOrcsMarketplace {... */\n      mstore(0x40, 0x80)\n      callvalue\n      dup1\n      iszero\n      tag_1\n      jumpi\n      revert(0x00, 0x00)\n    tag_1:\n      pop\n      jumpi(tag_2, lt(calldatasize, 0x04))\n      shr(0xe0, calldataload(0x00))\n      dup1\n      0x0d30caa9\n      eq\n      tag_3\n      jumpi\n      dup1\n      0x107a274a\n      eq\n      tag_4\n      jumpi\n      dup1\n      0x3ec6d6fa\n      eq\n      tag_5\n      jumpi\n      dup1\n      0x40e58ee5\n      eq\n      tag_6\n      jumpi\n      dup1\n      0x50fd7367\n      eq\n      tag_7\n      jumpi\n      dup1\n      0xd96a094a\n      eq\n      tag_8\n      jumpi\n    tag_2:\n      revert(0x00, 0x00)\n        /* \"contracts/OrcsMarketplace.sol\":308:341  IOrcsNFT public immutable orcsNFT */\n    tag_3:\n      tag_9\n      tag_10\n      jump\t// in\n    tag_9:\n      mload(0x40)\n      tag_11\n      swap2\n      swap1\n      tag_12\n      jump\t// in\n    tag_11:\n      mload(0x40)\n      dup1\n      swap2\n      sub\n      swap1\n      return\n        /* \"contracts/OrcsMarketplace.sol\":2700:2855  function getListing(uint256 tokenId) external view returns (Listing memory) {... */\n    tag_4:\n      tag_13\n      0x04\n      dup1\n      calldatasize\n      sub\n      dup2\n      add\n      swap1\n      tag_14\n      swap2\n      swap1\n      tag_15\n      jump\t// in\n    tag_14:\n      tag_16\n      jump\t// in\n    tag_13:\n      mload(0x40)\n      tag_17\n      swap2\n      swap1\n      tag_18\n      jump\t// in\n    tag_17:\n      mload(0x40)\n      dup1\n      swap2\n      sub\n      swap1\n      return\n        /* \"contracts/OrcsMarketplace.sol\":264:301  ICyberorcs public immutable cyberOrcs */\n    tag_5:\n      tag_19\n      tag_20\n      jump\t// in\n    tag_19:\n      mload(0x40)\n      tag_21\n      swap2\n      swap1\n      tag_22\n      jump\t// in\n    tag_21:\n      mload(0x40)\n      dup1\n      swap2\n      sub\n      swap1\n      return\n        /* \"contracts/OrcsMarketplace.sol\":1587:1950  function cancel(uint256 tokenId) public {... */\n    tag_6:\n      tag_23\n      0x04\n      dup1\n      calldatasize\n      sub\n      dup2\n      add\n      swap1\n      tag_24\n      swap2\n      swap1\n      tag_15\n      jump\t// in\n    tag_24:\n      tag_25\n      jump\t// in\n    tag_23:\n      stop\n        /* \"contracts/OrcsMarketplace.sol\":723:1579  function list(uint256 tokenId, uint256 price) public {... */\n    tag_7:\n      tag_26\n      0x04\n      dup1\n      calldatasize\n      sub\n      dup2\n      add\n      swap1\n      tag_27\n      swap2\n      swap1\n      tag_28\n      jump\t// in\n    tag_27:\n      tag_29\n      jump\t// in\n    tag_26:\n      stop\n        /* \"contracts/OrcsMarketplace.sol\":1958:2693  function buy(uint256 tokenId) public {... */\n    tag_8:\n      tag_30\n      0x04\n      dup1\n      calldatasize\n      sub\n      dup2\n      add\n      swap1\n      tag_31\n      swap2\n      swap1\n      tag_15\n      jump\t// in\n    tag_31:\n      tag_32\n      jump\t// in\n    tag_30:\n      stop\n        /* \"contracts/OrcsMarketplace.sol\":308:341  IOrcsNFT public immutable orcsNFT */\n    tag_10:\n      immutable(\"0x980c46aeb242fb2816eec3c43a568cdc6adda404b46e62cce4e3fe7d929881e3\")\n      dup2\n      jump\t// out\n        /* \"contracts/OrcsMarketplace.sol\":2700:2855  function getListing(uint256 tokenId) external view returns (Listing memory) {... */\n    tag_16:\n        /* \"contracts/OrcsMarketplace.sol\":2760:2774  Listing memory */\n      tag_33\n      tag_34\n      jump\t// in\n    tag_33:\n        /* \"contracts/OrcsMarketplace.sol\":2783:2805  Listing memory listing */\n      0x00\n        /* \"contracts/OrcsMarketplace.sol\":2808:2817  _listings */\n      0x00\n        /* \"contracts/OrcsMarketplace.sol\":2808:2826  _listings[tokenId] */\n      0x00\n        /* \"contracts/OrcsMarketplace.sol\":2818:2825  tokenId */\n      dup5\n        /* \"contracts/OrcsMarketplace.sol\":2808:2826  _listings[tokenId] */\n      dup2\n      mstore\n      0x20\n      add\n      swap1\n      dup2\n      mstore\n      0x20\n      add\n      0x00\n      keccak256\n        /* \"contracts/OrcsMarketplace.sol\":2783:2826  Listing memory listing = _listings[tokenId] */\n      mload(0x40)\n      dup1\n      0x60\n      add\n      0x40\n      mstore\n      swap1\n      dup2\n      0x00\n      dup3\n      add\n      sload\n      dup2\n      mstore\n      0x20\n      add\n      0x01\n      dup3\n      add\n      0x00\n      swap1\n      sload\n      swap1\n      0x0100\n      exp\n      swap1\n      div\n      0xffffffffffffffffffffffffffffffffffffffff\n      and\n      0xffffffffffffffffffffffffffffffffffffffff\n      and\n      0xffffffffffffffffffffffffffffffffffffffff\n      and\n      dup2\n      mstore\n      0x20\n      add\n      0x01\n      dup3\n      add\n      0x14\n      swap1\n      sload\n      swap1\n      0x0100\n      exp\n      swap1\n      div\n      0xff\n      and\n      0x03\n      dup2\n      gt\n      iszero\n      tag_36\n      jumpi\n      tag_37\n      tag_38\n      jump\t// in\n    tag_37:\n    tag_36:\n      0x03\n      dup2\n      gt\n      iszero\n      tag_39\n      jumpi\n      tag_40\n      tag_38\n      jump\t// in\n    tag_40:\n    tag_39:\n      dup2\n      mstore\n      pop\n      pop\n      swap1\n      pop\n        /* \"contracts/OrcsMarketplace.sol\":2840:2847  listing */\n      dup1\n        /* \"contracts/OrcsMarketplace.sol\":2833:2847  return listing */\n      swap2\n      pop\n      pop\n        /* \"contracts/OrcsMarketplace.sol\":2700:2855  function getListing(uint256 tokenId) external view returns (Listing memory) {... */\n      swap2\n      swap1\n      pop\n      jump\t// out\n        /* \"contracts/OrcsMarketplace.sol\":264:301  ICyberorcs public immutable cyberOrcs */\n    tag_20:\n      immutable(\"0x7d2d5796d747fbd89dfac5294d9ace4e9994102d54e76e822233a2e75d4144b1\")\n      dup2\n      jump\t// out\n        /* \"contracts/OrcsMarketplace.sol\":1587:1950  function cancel(uint256 tokenId) public {... */\n    tag_25:\n        /* \"contracts/OrcsMarketplace.sol\":1638:1660  Listing memory listing */\n      0x00\n        /* \"contracts/OrcsMarketplace.sol\":1663:1672  _listings */\n      0x00\n        /* \"contracts/OrcsMarketplace.sol\":1663:1681  _listings[tokenId] */\n      0x00\n        /* \"contracts/OrcsMarketplace.sol\":1673:1680  tokenId */\n      dup4\n        /* \"contracts/OrcsMarketplace.sol\":1663:1681  _listings[tokenId] */\n      dup2\n      mstore\n      0x20\n      add\n      swap1\n      dup2\n      mstore\n      0x20\n      add\n      0x00\n      keccak256\n        /* \"contracts/OrcsMarketplace.sol\":1638:1681  Listing memory listing = _listings[tokenId] */\n      mload(0x40)\n      dup1\n      0x60\n      add\n      0x40\n      mstore\n      swap1\n      dup2\n      0x00\n      dup3\n      add\n      sload\n      dup2\n      mstore\n      0x20\n      add\n      0x01\n      dup3\n      add\n      0x00\n      swap1\n      sload\n      swap1\n      0x0100\n      exp\n      swap1\n      div\n      0xffffffffffffffffffffffffffffffffffffffff\n      and\n      0xffffffffffffffffffffffffffffffffffffffff\n      and\n      0xffffffffffffffffffffffffffffffffffffffff\n      and\n      dup2\n      mstore\n      0x20\n      add\n      0x01\n      dup3\n      add\n      0x14\n      swap1\n      sload\n      swap1\n      0x0100\n      exp\n      swap1\n      div\n      0xff\n      and\n      0x03\n      dup2\n      gt\n      iszero\n      tag_42\n      jumpi\n      tag_43\n      tag_38\n      jump\t// in\n    tag_43:\n    tag_42:\n      0x03\n      dup2\n      gt\n      iszero\n      tag_44\n      jumpi\n      tag_45\n      tag_38\n      jump\t// in\n    tag_45:\n    tag_44:\n      dup2\n      mstore\n      pop\n      pop\n      swap1\n      pop\n        /* \"contracts/OrcsMarketplace.sol\":1718:1731  Status.LISTED */\n      0x01\n        /* \"contracts/OrcsMarketplace.sol\":1700:1731  listing.status == Status.LISTED */\n      0x03\n      dup2\n      gt\n      iszero\n      tag_46\n      jumpi\n      tag_47\n      tag_38\n      jump\t// in\n    tag_47:\n    tag_46:\n        /* \"contracts/OrcsMarketplace.sol\":1700:1707  listing */\n      dup2\n        /* \"contracts/OrcsMarketplace.sol\":1700:1714  listing.status */\n      0x40\n      add\n      mload\n        /* \"contracts/OrcsMarketplace.sol\":1700:1731  listing.status == Status.LISTED */\n      0x03\n      dup2\n      gt\n      iszero\n      tag_48\n      jumpi\n      tag_49\n      tag_38\n      jump\t// in\n    tag_49:\n    tag_48:\n      eq\n        /* \"contracts/OrcsMarketplace.sol\":1692:1763  require(listing.status == Status.LISTED, \"OrcsMarketplace: not listed\") */\n      tag_50\n      jumpi\n      mload(0x40)\n      0x08c379a000000000000000000000000000000000000000000000000000000000\n      dup2\n      mstore\n      0x04\n      add\n      tag_51\n      swap1\n      tag_52\n      jump\t// in\n    tag_51:\n      mload(0x40)\n      dup1\n      swap2\n      sub\n      swap1\n      revert\n    tag_50:\n        /* \"contracts/OrcsMarketplace.sol\":1800:1810  msg.sender */\n      caller\n        /* \"contracts/OrcsMarketplace.sol\":1782:1810  listing.seller == msg.sender */\n      0xffffffffffffffffffffffffffffffffffffffff\n      and\n        /* \"contracts/OrcsMarketplace.sol\":1782:1789  listing */\n      dup2\n        /* \"contracts/OrcsMarketplace.sol\":1782:1796  listing.seller */\n      0x20\n      add\n      mload\n        /* \"contracts/OrcsMarketplace.sol\":1782:1810  listing.seller == msg.sender */\n      0xffffffffffffffffffffffffffffffffffffffff\n      and\n      eq\n        /* \"contracts/OrcsMarketplace.sol\":1774:1856  require(listing.seller == msg.sender, \"OrcsMarketplace: caller is not the seller\") */\n      tag_53\n      jumpi\n      mload(0x40)\n      0x08c379a000000000000000000000000000000000000000000000000000000000\n      dup2\n      mstore\n      0x04\n      add\n      tag_54\n      swap1\n      tag_55\n      jump\t// in\n    tag_54:\n      mload(0x40)\n      dup1\n      swap2\n      sub\n      swap1\n      revert\n    tag_53:\n        /* \"contracts/OrcsMarketplace.sol\":1876:1885  _listings */\n      0x00\n        /* \"contracts/OrcsMarketplace.sol\":1876:1894  _listings[tokenId] */\n      0x00\n        /* \"contracts/OrcsMarketplace.sol\":1886:1893  tokenId */\n      dup4\n        /* \"contracts/OrcsMarketplace.sol\":1876:1894  _listings[tokenId] */\n      dup2\n      mstore\n      0x20\n      add\n      swap1\n      dup2\n      mstore\n      0x20\n      add\n      0x00\n      keccak256\n      0x00\n        /* \"contracts/OrcsMarketplace.sol\":1869:1894  delete _listings[tokenId] */\n      0x00\n      dup3\n      add\n      0x00\n      swap1\n      sstore\n      0x01\n      dup3\n      add\n      exp(0x0100, 0x00)\n      dup2\n      sload\n      swap1\n      0xffffffffffffffffffffffffffffffffffffffff\n      mul\n      not\n      and\n      swap1\n      sstore\n      0x01\n      dup3\n      add\n      exp(0x0100, 0x14)\n      dup2\n      sload\n      swap1\n      0xff\n      mul\n      not\n      and\n      swap1\n      sstore\n      pop\n      pop\n        /* \"contracts/OrcsMarketplace.sol\":1934:1941  tokenId */\n      dup2\n        /* \"contracts/OrcsMarketplace.sol\":1922:1932  msg.sender */\n      caller\n        /* \"contracts/OrcsMarketplace.sol\":1912:1942  Cancelled(msg.sender, tokenId) */\n      0xffffffffffffffffffffffffffffffffffffffff\n      and\n      0x36ea5cd5608625e789af0282eecdb4eae1cb7c1cf6d0ec3f9a84f35be850260b\n      mload(0x40)\n      mload(0x40)\n      dup1\n      swap2\n      sub\n      swap1\n      log3\n        /* \"contracts/OrcsMarketplace.sol\":1627:1950  {... */\n      pop\n        /* \"contracts/OrcsMarketplace.sol\":1587:1950  function cancel(uint256 tokenId) public {... */\n      pop\n      jump\t// out\n        /* \"contracts/OrcsMarketplace.sol\":723:1579  function list(uint256 tokenId, uint256 price) public {... */\n    tag_29:\n        /* \"contracts/OrcsMarketplace.sol\":836:837  0 */\n      0x00\n        /* \"contracts/OrcsMarketplace.sol\":828:833  price */\n      dup2\n        /* \"contracts/OrcsMarketplace.sol\":828:837  price > 0 */\n      gt\n        /* \"contracts/OrcsMarketplace.sol\":820:890  require(price > 0, \"OrcsMarketplace: price must be greater than zero\") */\n      tag_57\n      jumpi\n      mload(0x40)\n      0x08c379a000000000000000000000000000000000000000000000000000000000\n      dup2\n      mstore\n      0x04\n      add\n      tag_58\n      swap1\n      tag_59\n      jump\t// in\n    tag_58:\n      mload(0x40)\n      dup1\n      swap2\n      sub\n      swap1\n      revert\n    tag_57:\n        /* \"contracts/OrcsMarketplace.sol\":981:991  msg.sender */\n      caller\n        /* \"contracts/OrcsMarketplace.sol\":953:991  orcsNFT.ownerOf(tokenId) == msg.sender */\n      0xffffffffffffffffffffffffffffffffffffffff\n      and\n        /* \"contracts/OrcsMarketplace.sol\":953:960  orcsNFT */\n      immutable(\"0x980c46aeb242fb2816eec3c43a568cdc6adda404b46e62cce4e3fe7d929881e3\")\n        /* \"contracts/OrcsMarketplace.sol\":953:968  orcsNFT.ownerOf */\n      0xffffffffffffffffffffffffffffffffffffffff\n      and\n      0x6352211e\n        /* \"contracts/OrcsMarketplace.sol\":969:976  tokenId */\n      dup5\n        /* \"contracts/OrcsMarketplace.sol\":953:977  orcsNFT.ownerOf(tokenId) */\n      mload(0x40)\n      dup3\n      0xffffffff\n      and\n      0xe0\n      shl\n      dup2\n      mstore\n      0x04\n      add\n      tag_60\n      swap2\n      swap1\n      tag_61\n      jump\t// in\n    tag_60:\n      0x20\n      mload(0x40)\n      dup1\n      dup4\n      sub\n      dup2\n      dup7\n      gas\n      staticcall\n      iszero\n      dup1\n      iszero\n      tag_63\n      jumpi\n      returndatacopy(0x00, 0x00, returndatasize)\n      revert(0x00, returndatasize)\n    tag_63:\n      pop\n      pop\n      pop\n      pop\n      mload(0x40)\n      returndatasize\n      not(0x1f)\n      0x1f\n      dup3\n      add\n      and\n      dup3\n      add\n      dup1\n      0x40\n      mstore\n      pop\n      dup2\n      add\n      swap1\n      tag_64\n      swap2\n      swap1\n      tag_65\n      jump\t// in\n    tag_64:\n        /* \"contracts/OrcsMarketplace.sol\":953:991  orcsNFT.ownerOf(tokenId) == msg.sender */\n      0xffffffffffffffffffffffffffffffffffffffff\n      and\n      eq\n        /* \"contracts/OrcsMarketplace.sol\":945:1037  require(orcsNFT.ownerOf(tokenId) == msg.sender , \"OrcsMarketplace: caller is not the owner\") */\n      tag_66\n      jumpi\n      mload(0x40)\n      0x08c379a000000000000000000000000000000000000000000000000000000000\n      dup2\n      mstore\n      0x04\n      add\n      tag_67\n      swap1\n      tag_68\n      jump\t// in\n    tag_67:\n      mload(0x40)\n      dup1\n      swap2\n      sub\n      swap1\n      revert\n    tag_66:\n        /* \"contracts/OrcsMarketplace.sol\":1153:1157  this */\n      address\n        /* \"contracts/OrcsMarketplace.sol\":1113:1158  orcsNFT.getApproved(tokenId) == address(this) */\n      0xffffffffffffffffffffffffffffffffffffffff\n      and\n        /* \"contracts/OrcsMarketplace.sol\":1113:1120  orcsNFT */\n      immutable(\"0x980c46aeb242fb2816eec3c43a568cdc6adda404b46e62cce4e3fe7d929881e3\")\n        /* \"contracts/OrcsMarketplace.sol\":1113:1132  orcsNFT.getApproved */\n      0xffffffffffffffffffffffffffffffffffffffff\n      and\n      0x081812fc\n        /* \"contracts/OrcsMarketplace.sol\":1133:1140  tokenId */\n      dup5\n        /* \"contracts/OrcsMarketplace.sol\":1113:1141  orcsNFT.getApproved(tokenId) */\n      mload(0x40)\n      dup3\n      0xffffffff\n      and\n      0xe0\n      shl\n      dup2\n      mstore\n      0x04\n      add\n      tag_69\n      swap2\n      swap1\n      tag_61\n      jump\t// in\n    tag_69:\n      0x20\n      mload(0x40)\n      dup1\n      dup4\n      sub\n      dup2\n      dup7\n      gas\n      staticcall\n      iszero\n      dup1\n      iszero\n      tag_71\n      jumpi\n      returndatacopy(0x00, 0x00, returndatasize)\n      revert(0x00, returndatasize)\n    tag_71:\n      pop\n      pop\n      pop\n      pop\n      mload(0x40)\n      returndatasize\n      not(0x1f)\n      0x1f\n      dup3\n      add\n      and\n      dup3\n      add\n      dup1\n      0x40\n      mstore\n      pop\n      dup2\n      add\n      swap1\n      tag_72\n      swap2\n      swap1\n      tag_65\n      jump\t// in\n    tag_72:\n        /* \"contracts/OrcsMarketplace.sol\":1113:1158  orcsNFT.getApproved(tokenId) == address(this) */\n      0xffffffffffffffffffffffffffffffffffffffff\n      and\n      eq\n        /* \"contracts/OrcsMarketplace.sol\":1113:1225  orcsNFT.getApproved(tokenId) == address(this) ||... */\n      dup1\n      tag_73\n      jumpi\n      pop\n        /* \"contracts/OrcsMarketplace.sol\":1175:1182  orcsNFT */\n      immutable(\"0x980c46aeb242fb2816eec3c43a568cdc6adda404b46e62cce4e3fe7d929881e3\")\n        /* \"contracts/OrcsMarketplace.sol\":1175:1199  orcsNFT.isApprovedForAll */\n      0xffffffffffffffffffffffffffffffffffffffff\n      and\n      0xe985e9c5\n        /* \"contracts/OrcsMarketplace.sol\":1200:1210  msg.sender */\n      caller\n        /* \"contracts/OrcsMarketplace.sol\":1219:1223  this */\n      address\n        /* \"contracts/OrcsMarketplace.sol\":1175:1225  orcsNFT.isApprovedForAll(msg.sender,address(this)) */\n      mload(0x40)\n      dup4\n      0xffffffff\n      and\n      0xe0\n      shl\n      dup2\n      mstore\n      0x04\n      add\n      tag_74\n      swap3\n      swap2\n      swap1\n      tag_75\n      jump\t// in\n    tag_74:\n      0x20\n      mload(0x40)\n      dup1\n      dup4\n      sub\n      dup2\n      dup7\n      gas\n      staticcall\n      iszero\n      dup1\n      iszero\n      tag_77\n      jumpi\n      returndatacopy(0x00, 0x00, returndatasize)\n      revert(0x00, returndatasize)\n    tag_77:\n      pop\n      pop\n      pop\n      pop\n      mload(0x40)\n      returndatasize\n      not(0x1f)\n      0x1f\n      dup3\n      add\n      and\n      dup3\n      add\n      dup1\n      0x40\n      mstore\n      pop\n      dup2\n      add\n      swap1\n      tag_78\n      swap2\n      swap1\n      tag_79\n      jump\t// in\n    tag_78:\n        /* \"contracts/OrcsMarketplace.sol\":1113:1225  orcsNFT.getApproved(tokenId) == address(this) ||... */\n    tag_73:\n        /* \"contracts/OrcsMarketplace.sol\":1090:1281  require (... */\n      tag_80\n      jumpi\n      mload(0x40)\n      0x08c379a000000000000000000000000000000000000000000000000000000000\n      dup2\n      mstore\n      0x04\n      add\n      tag_81\n      swap1\n      tag_82\n      jump\t// in\n    tag_81:\n      mload(0x40)\n      dup1\n      swap2\n      sub\n      swap1\n      revert\n    tag_80:\n        /* \"contracts/OrcsMarketplace.sol\":1332:1333  0 */\n      0x00\n        /* \"contracts/OrcsMarketplace.sol\":1304:1313  _listings */\n      0x00\n        /* \"contracts/OrcsMarketplace.sol\":1304:1322  _listings[tokenId] */\n      0x00\n        /* \"contracts/OrcsMarketplace.sol\":1314:1321  tokenId */\n      dup5\n        /* \"contracts/OrcsMarketplace.sol\":1304:1322  _listings[tokenId] */\n      dup2\n      mstore\n      0x20\n      add\n      swap1\n      dup2\n      mstore\n      0x20\n      add\n      0x00\n      keccak256\n        /* \"contracts/OrcsMarketplace.sol\":1304:1328  _listings[tokenId].price */\n      0x00\n      add\n      sload\n        /* \"contracts/OrcsMarketplace.sol\":1304:1333  _listings[tokenId].price == 0 */\n      eq\n        /* \"contracts/OrcsMarketplace.sol\":1296:1369  require(_listings[tokenId].price == 0, \"OrcsMarketplace: already listed\") */\n      tag_83\n      jumpi\n      mload(0x40)\n      0x08c379a000000000000000000000000000000000000000000000000000000000\n      dup2\n      mstore\n      0x04\n      add\n      tag_84\n      swap1\n      tag_85\n      jump\t// in\n    tag_84:\n      mload(0x40)\n      dup1\n      swap2\n      sub\n      swap1\n      revert\n    tag_83:\n        /* \"contracts/OrcsMarketplace.sol\":1403:1519  Listing({... */\n      mload(0x40)\n      dup1\n      0x60\n      add\n      0x40\n      mstore\n      dup1\n        /* \"contracts/OrcsMarketplace.sol\":1433:1438  price */\n      dup3\n        /* \"contracts/OrcsMarketplace.sol\":1403:1519  Listing({... */\n      dup2\n      mstore\n      0x20\n      add\n        /* \"contracts/OrcsMarketplace.sol\":1461:1471  msg.sender */\n      caller\n        /* \"contracts/OrcsMarketplace.sol\":1403:1519  Listing({... */\n      0xffffffffffffffffffffffffffffffffffffffff\n      and\n      dup2\n      mstore\n      0x20\n      add\n        /* \"contracts/OrcsMarketplace.sol\":1494:1507  Status.LISTED */\n      0x01\n        /* \"contracts/OrcsMarketplace.sol\":1403:1519  Listing({... */\n      0x03\n      dup2\n      gt\n      iszero\n      tag_86\n      jumpi\n      tag_87\n      tag_38\n      jump\t// in\n    tag_87:\n    tag_86:\n      dup2\n      mstore\n      pop\n        /* \"contracts/OrcsMarketplace.sol\":1382:1391  _listings */\n      0x00\n        /* \"contracts/OrcsMarketplace.sol\":1382:1400  _listings[tokenId] */\n      0x00\n        /* \"contracts/OrcsMarketplace.sol\":1392:1399  tokenId */\n      dup5\n        /* \"contracts/OrcsMarketplace.sol\":1382:1400  _listings[tokenId] */\n      dup2\n      mstore\n      0x20\n      add\n      swap1\n      dup2\n      mstore\n      0x20\n      add\n      0x00\n      keccak256\n        /* \"contracts/OrcsMarketplace.sol\":1382:1519  _listings[tokenId] = Listing({... */\n      0x00\n      dup3\n      add\n      mload\n      dup2\n      0x00\n      add\n      sstore\n      0x20\n      dup3\n      add\n      mload\n      dup2\n      0x01\n      add\n      exp(0x0100, 0x00)\n      dup2\n      sload\n      dup2\n      0xffffffffffffffffffffffffffffffffffffffff\n      mul\n      not\n      and\n      swap1\n      dup4\n      0xffffffffffffffffffffffffffffffffffffffff\n      and\n      mul\n      or\n      swap1\n      sstore\n      pop\n      0x40\n      dup3\n      add\n      mload\n      dup2\n      0x01\n      add\n      exp(0x0100, 0x14)\n      dup2\n      sload\n      dup2\n      0xff\n      mul\n      not\n      and\n      swap1\n      dup4\n      0x03\n      dup2\n      gt\n      iszero\n      tag_88\n      jumpi\n      tag_89\n      tag_38\n      jump\t// in\n    tag_89:\n    tag_88:\n      mul\n      or\n      swap1\n      sstore\n      pop\n      swap1\n      pop\n      pop\n        /* \"contracts/OrcsMarketplace.sol\":1556:1563  tokenId */\n      dup2\n        /* \"contracts/OrcsMarketplace.sol\":1544:1554  msg.sender */\n      caller\n        /* \"contracts/OrcsMarketplace.sol\":1537:1571  Listed(msg.sender, tokenId, price) */\n      0xffffffffffffffffffffffffffffffffffffffff\n      and\n      0x6e16e8064e3c8254cef11e01e152416398602d7e8785f743f1c2f93a9a15ff35\n        /* \"contracts/OrcsMarketplace.sol\":1565:1570  price */\n      dup4\n        /* \"contracts/OrcsMarketplace.sol\":1537:1571  Listed(msg.sender, tokenId, price) */\n      mload(0x40)\n      tag_90\n      swap2\n      swap1\n      tag_61\n      jump\t// in\n    tag_90:\n      mload(0x40)\n      dup1\n      swap2\n      sub\n      swap1\n      log3\n        /* \"contracts/OrcsMarketplace.sol\":723:1579  function list(uint256 tokenId, uint256 price) public {... */\n      pop\n      pop\n      jump\t// out\n        /* \"contracts/OrcsMarketplace.sol\":1958:2693  function buy(uint256 tokenId) public {... */\n    tag_32:\n        /* \"contracts/OrcsMarketplace.sol\":2006:2029  Listing storage listing */\n      0x00\n        /* \"contracts/OrcsMarketplace.sol\":2032:2041  _listings */\n      0x00\n        /* \"contracts/OrcsMarketplace.sol\":2032:2050  _listings[tokenId] */\n      0x00\n        /* \"contracts/OrcsMarketplace.sol\":2042:2049  tokenId */\n      dup4\n        /* \"contracts/OrcsMarketplace.sol\":2032:2050  _listings[tokenId] */\n      dup2\n      mstore\n      0x20\n      add\n      swap1\n      dup2\n      mstore\n      0x20\n      add\n      0x00\n      keccak256\n        /* \"contracts/OrcsMarketplace.sol\":2006:2050  Listing storage listing = _listings[tokenId] */\n      swap1\n      pop\n        /* \"contracts/OrcsMarketplace.sol\":2087:2100  Status.LISTED */\n      0x01\n        /* \"contracts/OrcsMarketplace.sol\":2069:2100  listing.status == Status.LISTED */\n      0x03\n      dup2\n      gt\n      iszero\n      tag_92\n      jumpi\n      tag_93\n      tag_38\n      jump\t// in\n    tag_93:\n    tag_92:\n        /* \"contracts/OrcsMarketplace.sol\":2069:2076  listing */\n      dup2\n        /* \"contracts/OrcsMarketplace.sol\":2069:2083  listing.status */\n      0x01\n      add\n      0x14\n      swap1\n      sload\n      swap1\n      0x0100\n      exp\n      swap1\n      div\n      0xff\n      and\n        /* \"contracts/OrcsMarketplace.sol\":2069:2100  listing.status == Status.LISTED */\n      0x03\n      dup2\n      gt\n      iszero\n      tag_94\n      jumpi\n      tag_95\n      tag_38\n      jump\t// in\n    tag_95:\n    tag_94:\n      eq\n        /* \"contracts/OrcsMarketplace.sol\":2061:2132  require(listing.status == Status.LISTED, \"OrcsMarketplace: not listed\") */\n      tag_96\n      jumpi\n      mload(0x40)\n      0x08c379a000000000000000000000000000000000000000000000000000000000\n      dup2\n      mstore\n      0x04\n      add\n      tag_97\n      swap1\n      tag_52\n      jump\t// in\n    tag_97:\n      mload(0x40)\n      dup1\n      swap2\n      sub\n      swap1\n      revert\n    tag_96:\n        /* \"contracts/OrcsMarketplace.sol\":2169:2179  msg.sender */\n      caller\n        /* \"contracts/OrcsMarketplace.sol\":2151:2179  listing.seller != msg.sender */\n      0xffffffffffffffffffffffffffffffffffffffff\n      and\n        /* \"contracts/OrcsMarketplace.sol\":2151:2158  listing */\n      dup2\n        /* \"contracts/OrcsMarketplace.sol\":2151:2165  listing.seller */\n      0x01\n      add\n      0x00\n      swap1\n      sload\n      swap1\n      0x0100\n      exp\n      swap1\n      div\n      0xffffffffffffffffffffffffffffffffffffffff\n      and\n        /* \"contracts/OrcsMarketplace.sol\":2151:2179  listing.seller != msg.sender */\n      0xffffffffffffffffffffffffffffffffffffffff\n      and\n      sub\n        /* \"contracts/OrcsMarketplace.sol\":2143:2223  require(listing.seller != msg.sender, \"OrcsMarketplace: cannot buy Own Listing\") */\n      tag_98\n      jumpi\n      mload(0x40)\n      0x08c379a000000000000000000000000000000000000000000000000000000000\n      dup2\n      mstore\n      0x04\n      add\n      tag_99\n      swap1\n      tag_100\n      jump\t// in\n    tag_99:\n      mload(0x40)\n      dup1\n      swap2\n      sub\n      swap1\n      revert\n    tag_98:\n        /* \"contracts/OrcsMarketplace.sol\":2292:2299  listing */\n      dup1\n        /* \"contracts/OrcsMarketplace.sol\":2292:2305  listing.price */\n      0x00\n      add\n      sload\n        /* \"contracts/OrcsMarketplace.sol\":2242:2251  cyberOrcs */\n      immutable(\"0x7d2d5796d747fbd89dfac5294d9ace4e9994102d54e76e822233a2e75d4144b1\")\n        /* \"contracts/OrcsMarketplace.sol\":2242:2261  cyberOrcs.allowance */\n      0xffffffffffffffffffffffffffffffffffffffff\n      and\n      0xdd62ed3e\n        /* \"contracts/OrcsMarketplace.sol\":2262:2272  msg.sender */\n      caller\n        /* \"contracts/OrcsMarketplace.sol\":2282:2286  this */\n      address\n        /* \"contracts/OrcsMarketplace.sol\":2242:2288  cyberOrcs.allowance(msg.sender, address(this)) */\n      mload(0x40)\n      dup4\n      0xffffffff\n      and\n      0xe0\n      shl\n      dup2\n      mstore\n      0x04\n      add\n      tag_101\n      swap3\n      swap2\n      swap1\n      tag_75\n      jump\t// in\n    tag_101:\n      0x20\n      mload(0x40)\n      dup1\n      dup4\n      sub\n      dup2\n      dup7\n      gas\n      staticcall\n      iszero\n      dup1\n      iszero\n      tag_103\n      jumpi\n      returndatacopy(0x00, 0x00, returndatasize)\n      revert(0x00, returndatasize)\n    tag_103:\n      pop\n      pop\n      pop\n      pop\n      mload(0x40)\n      returndatasize\n      not(0x1f)\n      0x1f\n      dup3\n      add\n      and\n      dup3\n      add\n      dup1\n      0x40\n      mstore\n      pop\n      dup2\n      add\n      swap1\n      tag_104\n      swap2\n      swap1\n      tag_105\n      jump\t// in\n    tag_104:\n        /* \"contracts/OrcsMarketplace.sol\":2242:2305  cyberOrcs.allowance(msg.sender, address(this)) >= listing.price */\n      lt\n      iszero\n        /* \"contracts/OrcsMarketplace.sol\":2234:2347  require(cyberOrcs.allowance(msg.sender, address(this)) >= listing.price, \"OrcsMarketplace: not enough allowance\") */\n      tag_106\n      jumpi\n      mload(0x40)\n      0x08c379a000000000000000000000000000000000000000000000000000000000\n      dup2\n      mstore\n      0x04\n      add\n      tag_107\n      swap1\n      tag_108\n      jump\t// in\n    tag_107:\n      mload(0x40)\n      dup1\n      swap2\n      sub\n      swap1\n      revert\n    tag_106:\n        /* \"contracts/OrcsMarketplace.sol\":2377:2388  Status.SOLD */\n      0x03\n        /* \"contracts/OrcsMarketplace.sol\":2360:2367  listing */\n      dup2\n        /* \"contracts/OrcsMarketplace.sol\":2360:2374  listing.status */\n      0x01\n      add\n      0x14\n        /* \"contracts/OrcsMarketplace.sol\":2360:2388  listing.status = Status.SOLD */\n      0x0100\n      exp\n      dup2\n      sload\n      dup2\n      0xff\n      mul\n      not\n      and\n      swap1\n      dup4\n      0x03\n      dup2\n      gt\n      iszero\n      tag_109\n      jumpi\n      tag_110\n      tag_38\n      jump\t// in\n    tag_110:\n    tag_109:\n      mul\n      or\n      swap1\n      sstore\n      pop\n        /* \"contracts/OrcsMarketplace.sol\":2401:2408  orcsNFT */\n      immutable(\"0x980c46aeb242fb2816eec3c43a568cdc6adda404b46e62cce4e3fe7d929881e3\")\n        /* \"contracts/OrcsMarketplace.sol\":2401:2421  orcsNFT.transferFrom */\n      0xffffffffffffffffffffffffffffffffffffffff\n      and\n      0x23b872dd\n        /* \"contracts/OrcsMarketplace.sol\":2422:2429  listing */\n      dup3\n        /* \"contracts/OrcsMarketplace.sol\":2422:2436  listing.seller */\n      0x01\n      add\n      0x00\n      swap1\n      sload\n      swap1\n      0x0100\n      exp\n      swap1\n      div\n      0xffffffffffffffffffffffffffffffffffffffff\n      and\n        /* \"contracts/OrcsMarketplace.sol\":2438:2448  msg.sender */\n      caller\n        /* \"contracts/OrcsMarketplace.sol\":2450:2457  tokenId */\n      dup6\n        /* \"contracts/OrcsMarketplace.sol\":2401:2458  orcsNFT.transferFrom(listing.seller, msg.sender, tokenId) */\n      mload(0x40)\n      dup5\n      0xffffffff\n      and\n      0xe0\n      shl\n      dup2\n      mstore\n      0x04\n      add\n      tag_111\n      swap4\n      swap3\n      swap2\n      swap1\n      tag_112\n      jump\t// in\n    tag_111:\n      0x00\n      mload(0x40)\n      dup1\n      dup4\n      sub\n      dup2\n      0x00\n      dup8\n      dup1\n      extcodesize\n      iszero\n      dup1\n      iszero\n      tag_113\n      jumpi\n      revert(0x00, 0x00)\n    tag_113:\n      pop\n      gas\n      call\n      iszero\n      dup1\n      iszero\n      tag_115\n      jumpi\n      returndatacopy(0x00, 0x00, returndatasize)\n      revert(0x00, returndatasize)\n    tag_115:\n      pop\n      pop\n      pop\n      pop\n        /* \"contracts/OrcsMarketplace.sol\":2469:2481  bool success */\n      0x00\n        /* \"contracts/OrcsMarketplace.sol\":2484:2493  cyberOrcs */\n      immutable(\"0x7d2d5796d747fbd89dfac5294d9ace4e9994102d54e76e822233a2e75d4144b1\")\n        /* \"contracts/OrcsMarketplace.sol\":2484:2506  cyberOrcs.transferFrom */\n      0xffffffffffffffffffffffffffffffffffffffff\n      and\n      0x23b872dd\n        /* \"contracts/OrcsMarketplace.sol\":2507:2517  msg.sender */\n      caller\n        /* \"contracts/OrcsMarketplace.sol\":2519:2526  listing */\n      dup5\n        /* \"contracts/OrcsMarketplace.sol\":2519:2533  listing.seller */\n      0x01\n      add\n      0x00\n      swap1\n      sload\n      swap1\n      0x0100\n      exp\n      swap1\n      div\n      0xffffffffffffffffffffffffffffffffffffffff\n      and\n        /* \"contracts/OrcsMarketplace.sol\":2535:2542  listing */\n      dup6\n        /* \"contracts/OrcsMarketplace.sol\":2535:2548  listing.price */\n      0x00\n      add\n      sload\n        /* \"contracts/OrcsMarketplace.sol\":2484:2549  cyberOrcs.transferFrom(msg.sender, listing.seller, listing.price) */\n      mload(0x40)\n      dup5\n      0xffffffff\n      and\n      0xe0\n      shl\n      dup2\n      mstore\n      0x04\n      add\n      tag_116\n      swap4\n      swap3\n      swap2\n      swap1\n      tag_112\n      jump\t// in\n    tag_116:\n      0x20\n      mload(0x40)\n      dup1\n      dup4\n      sub\n      dup2\n      0x00\n      dup8\n      gas\n      call\n      iszero\n      dup1\n      iszero\n      tag_118\n      jumpi\n      returndatacopy(0x00, 0x00, returndatasize)\n      revert(0x00, returndatasize)\n    tag_118:\n      pop\n      pop\n      pop\n      pop\n      mload(0x40)\n      returndatasize\n      not(0x1f)\n      0x1f\n      dup3\n      add\n      and\n      dup3\n      add\n      dup1\n      0x40\n      mstore\n      pop\n      dup2\n      add\n      swap1\n      tag_119\n      swap2\n      swap1\n      tag_79\n      jump\t// in\n    tag_119:\n        /* \"contracts/OrcsMarketplace.sol\":2469:2549  bool success = cyberOrcs.transferFrom(msg.sender, listing.seller, listing.price) */\n      swap1\n      pop\n        /* \"contracts/OrcsMarketplace.sol\":2568:2575  success */\n      dup1\n        /* \"contracts/OrcsMarketplace.sol\":2560:2611  require(success, \"OrcsMarketplace: payment failed\") */\n      tag_120\n      jumpi\n      mload(0x40)\n      0x08c379a000000000000000000000000000000000000000000000000000000000\n      dup2\n      mstore\n      0x04\n      add\n      tag_121\n      swap1\n      tag_122\n      jump\t// in\n    tag_121:\n      mload(0x40)\n      dup1\n      swap2\n      sub\n      swap1\n      revert\n    tag_120:\n        /* \"contracts/OrcsMarketplace.sol\":2662:2669  tokenId */\n      dup3\n        /* \"contracts/OrcsMarketplace.sol\":2646:2653  listing */\n      dup3\n        /* \"contracts/OrcsMarketplace.sol\":2646:2660  listing.seller */\n      0x01\n      add\n      0x00\n      swap1\n      sload\n      swap1\n      0x0100\n      exp\n      swap1\n      div\n      0xffffffffffffffffffffffffffffffffffffffff\n      and\n        /* \"contracts/OrcsMarketplace.sol\":2629:2685  Sold(msg.sender, listing.seller, tokenId, listing.price) */\n      0xffffffffffffffffffffffffffffffffffffffff\n      and\n        /* \"contracts/OrcsMarketplace.sol\":2634:2644  msg.sender */\n      caller\n        /* \"contracts/OrcsMarketplace.sol\":2629:2685  Sold(msg.sender, listing.seller, tokenId, listing.price) */\n      0xffffffffffffffffffffffffffffffffffffffff\n      and\n      0x16dd16959a056953a63cf14bf427881e762e54f03d86b864efea8238dd3b822f\n        /* \"contracts/OrcsMarketplace.sol\":2671:2678  listing */\n      dup6\n        /* \"contracts/OrcsMarketplace.sol\":2671:2684  listing.price */\n      0x00\n      add\n      sload\n        /* \"contracts/OrcsMarketplace.sol\":2629:2685  Sold(msg.sender, listing.seller, tokenId, listing.price) */\n      mload(0x40)\n      tag_123\n      swap2\n      swap1\n      tag_61\n      jump\t// in\n    tag_123:\n      mload(0x40)\n      dup1\n      swap2\n      sub\n      swap1\n      log4\n        /* \"contracts/OrcsMarketplace.sol\":1995:2693  {... */\n      pop\n      pop\n        /* \"contracts/OrcsMarketplace.sol\":1958:2693  function buy(uint256 tokenId) public {... */\n      pop\n      jump\t// out\n    tag_34:\n      mload(0x40)\n      dup1\n      0x60\n      add\n      0x40\n      mstore\n      dup1\n      0x00\n      dup2\n      mstore\n      0x20\n      add\n      and(0xffffffffffffffffffffffffffffffffffffffff, 0x00)\n      dup2\n      mstore\n      0x20\n      add\n      0x00\n      0x03\n      dup2\n      gt\n      iszero\n      tag_124\n      jumpi\n      tag_125\n      tag_38\n      jump\t// in\n    tag_125:\n    tag_124:\n      dup2\n      mstore\n      pop\n      swap1\n      jump\t// out\n        /* \"#utility.yul\":7:133   */\n    tag_126:\n        /* \"#utility.yul\":44:51   */\n      0x00\n        /* \"#utility.yul\":84:126   */\n      0xffffffffffffffffffffffffffffffffffffffff\n        /* \"#utility.yul\":77:82   */\n      dup3\n        /* \"#utility.yul\":73:127   */\n      and\n        /* \"#utility.yul\":62:127   */\n      swap1\n      pop\n        /* \"#utility.yul\":7:133   */\n      swap2\n      swap1\n      pop\n      jump\t// out\n        /* \"#utility.yul\":139:199   */\n    tag_127:\n        /* \"#utility.yul\":167:170   */\n      0x00\n        /* \"#utility.yul\":188:193   */\n      dup2\n        /* \"#utility.yul\":181:193   */\n      swap1\n      pop\n        /* \"#utility.yul\":139:199   */\n      swap2\n      swap1\n      pop\n      jump\t// out\n        /* \"#utility.yul\":205:347   */\n    tag_128:\n        /* \"#utility.yul\":255:264   */\n      0x00\n        /* \"#utility.yul\":288:341   */\n      tag_179\n        /* \"#utility.yul\":306:340   */\n      tag_180\n        /* \"#utility.yul\":315:339   */\n      tag_181\n        /* \"#utility.yul\":333:338   */\n      dup5\n        /* \"#utility.yul\":315:339   */\n      tag_126\n      jump\t// in\n    tag_181:\n        /* \"#utility.yul\":306:340   */\n      tag_127\n      jump\t// in\n    tag_180:\n        /* \"#utility.yul\":288:341   */\n      tag_126\n      jump\t// in\n    tag_179:\n        /* \"#utility.yul\":275:341   */\n      swap1\n      pop\n        /* \"#utility.yul\":205:347   */\n      swap2\n      swap1\n      pop\n      jump\t// out\n        /* \"#utility.yul\":353:479   */\n    tag_129:\n        /* \"#utility.yul\":403:412   */\n      0x00\n        /* \"#utility.yul\":436:473   */\n      tag_183\n        /* \"#utility.yul\":467:472   */\n      dup3\n        /* \"#utility.yul\":436:473   */\n      tag_128\n      jump\t// in\n    tag_183:\n        /* \"#utility.yul\":423:473   */\n      swap1\n      pop\n        /* \"#utility.yul\":353:479   */\n      swap2\n      swap1\n      pop\n      jump\t// out\n        /* \"#utility.yul\":485:627   */\n    tag_130:\n        /* \"#utility.yul\":551:560   */\n      0x00\n        /* \"#utility.yul\":584:621   */\n      tag_185\n        /* \"#utility.yul\":615:620   */\n      dup3\n        /* \"#utility.yul\":584:621   */\n      tag_129\n      jump\t// in\n    tag_185:\n        /* \"#utility.yul\":571:621   */\n      swap1\n      pop\n        /* \"#utility.yul\":485:627   */\n      swap2\n      swap1\n      pop\n      jump\t// out\n        /* \"#utility.yul\":633:796   */\n    tag_131:\n        /* \"#utility.yul\":736:789   */\n      tag_187\n        /* \"#utility.yul\":783:788   */\n      dup2\n        /* \"#utility.yul\":736:789   */\n      tag_130\n      jump\t// in\n    tag_187:\n        /* \"#utility.yul\":731:734   */\n      dup3\n        /* \"#utility.yul\":724:790   */\n      mstore\n        /* \"#utility.yul\":633:796   */\n      pop\n      pop\n      jump\t// out\n        /* \"#utility.yul\":802:1056   */\n    tag_12:\n        /* \"#utility.yul\":911:915   */\n      0x00\n        /* \"#utility.yul\":949:951   */\n      0x20\n        /* \"#utility.yul\":938:947   */\n      dup3\n        /* \"#utility.yul\":934:952   */\n      add\n        /* \"#utility.yul\":926:952   */\n      swap1\n      pop\n        /* \"#utility.yul\":962:1049   */\n      tag_189\n        /* \"#utility.yul\":1046:1047   */\n      0x00\n        /* \"#utility.yul\":1035:1044   */\n      dup4\n        /* \"#utility.yul\":1031:1048   */\n      add\n        /* \"#utility.yul\":1022:1028   */\n      dup5\n        /* \"#utility.yul\":962:1049   */\n      tag_131\n      jump\t// in\n    tag_189:\n        /* \"#utility.yul\":802:1056   */\n      swap3\n      swap2\n      pop\n      pop\n      jump\t// out\n        /* \"#utility.yul\":1143:1260   */\n    tag_133:\n        /* \"#utility.yul\":1252:1253   */\n      0x00\n        /* \"#utility.yul\":1249:1250   */\n      0x00\n        /* \"#utility.yul\":1242:1254   */\n      revert\n        /* \"#utility.yul\":1389:1466   */\n    tag_135:\n        /* \"#utility.yul\":1426:1433   */\n      0x00\n        /* \"#utility.yul\":1455:1460   */\n      dup2\n        /* \"#utility.yul\":1444:1460   */\n      swap1\n      pop\n        /* \"#utility.yul\":1389:1466   */\n      swap2\n      swap1\n      pop\n      jump\t// out\n        /* \"#utility.yul\":1472:1594   */\n    tag_136:\n        /* \"#utility.yul\":1545:1569   */\n      tag_195\n        /* \"#utility.yul\":1563:1568   */\n      dup2\n        /* \"#utility.yul\":1545:1569   */\n      tag_135\n      jump\t// in\n    tag_195:\n        /* \"#utility.yul\":1538:1543   */\n      dup2\n        /* \"#utility.yul\":1535:1570   */\n      eq\n        /* \"#utility.yul\":1525:1588   */\n      tag_196\n      jumpi\n        /* \"#utility.yul\":1584:1585   */\n      0x00\n        /* \"#utility.yul\":1581:1582   */\n      0x00\n        /* \"#utility.yul\":1574:1586   */\n      revert\n        /* \"#utility.yul\":1525:1588   */\n    tag_196:\n        /* \"#utility.yul\":1472:1594   */\n      pop\n      jump\t// out\n        /* \"#utility.yul\":1600:1739   */\n    tag_137:\n        /* \"#utility.yul\":1646:1651   */\n      0x00\n        /* \"#utility.yul\":1684:1690   */\n      dup2\n        /* \"#utility.yul\":1671:1691   */\n      calldataload\n        /* \"#utility.yul\":1662:1691   */\n      swap1\n      pop\n        /* \"#utility.yul\":1700:1733   */\n      tag_198\n        /* \"#utility.yul\":1727:1732   */\n      dup2\n        /* \"#utility.yul\":1700:1733   */\n      tag_136\n      jump\t// in\n    tag_198:\n        /* \"#utility.yul\":1600:1739   */\n      swap3\n      swap2\n      pop\n      pop\n      jump\t// out\n        /* \"#utility.yul\":1745:2074   */\n    tag_15:\n        /* \"#utility.yul\":1804:1810   */\n      0x00\n        /* \"#utility.yul\":1853:1855   */\n      0x20\n        /* \"#utility.yul\":1841:1850   */\n      dup3\n        /* \"#utility.yul\":1832:1839   */\n      dup5\n        /* \"#utility.yul\":1828:1851   */\n      sub\n        /* \"#utility.yul\":1824:1856   */\n      slt\n        /* \"#utility.yul\":1821:1940   */\n      iszero\n      tag_200\n      jumpi\n        /* \"#utility.yul\":1859:1938   */\n      tag_201\n      tag_133\n      jump\t// in\n    tag_201:\n        /* \"#utility.yul\":1821:1940   */\n    tag_200:\n        /* \"#utility.yul\":1979:1980   */\n      0x00\n        /* \"#utility.yul\":2004:2057   */\n      tag_202\n        /* \"#utility.yul\":2049:2056   */\n      dup5\n        /* \"#utility.yul\":2040:2046   */\n      dup3\n        /* \"#utility.yul\":2029:2038   */\n      dup6\n        /* \"#utility.yul\":2025:2047   */\n      add\n        /* \"#utility.yul\":2004:2057   */\n      tag_137\n      jump\t// in\n    tag_202:\n        /* \"#utility.yul\":1994:2057   */\n      swap2\n      pop\n        /* \"#utility.yul\":1950:2067   */\n      pop\n        /* \"#utility.yul\":1745:2074   */\n      swap3\n      swap2\n      pop\n      pop\n      jump\t// out\n        /* \"#utility.yul\":2080:2188   */\n    tag_138:\n        /* \"#utility.yul\":2157:2181   */\n      tag_204\n        /* \"#utility.yul\":2175:2180   */\n      dup2\n        /* \"#utility.yul\":2157:2181   */\n      tag_135\n      jump\t// in\n    tag_204:\n        /* \"#utility.yul\":2152:2155   */\n      dup3\n        /* \"#utility.yul\":2145:2182   */\n      mstore\n        /* \"#utility.yul\":2080:2188   */\n      pop\n      pop\n      jump\t// out\n        /* \"#utility.yul\":2194:2290   */\n    tag_139:\n        /* \"#utility.yul\":2231:2238   */\n      0x00\n        /* \"#utility.yul\":2260:2284   */\n      tag_206\n        /* \"#utility.yul\":2278:2283   */\n      dup3\n        /* \"#utility.yul\":2260:2284   */\n      tag_126\n      jump\t// in\n    tag_206:\n        /* \"#utility.yul\":2249:2284   */\n      swap1\n      pop\n        /* \"#utility.yul\":2194:2290   */\n      swap2\n      swap1\n      pop\n      jump\t// out\n        /* \"#utility.yul\":2296:2404   */\n    tag_140:\n        /* \"#utility.yul\":2373:2397   */\n      tag_208\n        /* \"#utility.yul\":2391:2396   */\n      dup2\n        /* \"#utility.yul\":2373:2397   */\n      tag_139\n      jump\t// in\n    tag_208:\n        /* \"#utility.yul\":2368:2371   */\n      dup3\n        /* \"#utility.yul\":2361:2398   */\n      mstore\n        /* \"#utility.yul\":2296:2404   */\n      pop\n      pop\n      jump\t// out\n        /* \"#utility.yul\":2410:2590   */\n    tag_38:\n        /* \"#utility.yul\":2458:2535   */\n      0x4e487b7100000000000000000000000000000000000000000000000000000000\n        /* \"#utility.yul\":2455:2456   */\n      0x00\n        /* \"#utility.yul\":2448:2536   */\n      mstore\n        /* \"#utility.yul\":2555:2559   */\n      0x21\n        /* \"#utility.yul\":2552:2553   */\n      0x04\n        /* \"#utility.yul\":2545:2560   */\n      mstore\n        /* \"#utility.yul\":2579:2583   */\n      0x24\n        /* \"#utility.yul\":2576:2577   */\n      0x00\n        /* \"#utility.yul\":2569:2584   */\n      revert\n        /* \"#utility.yul\":2596:2710   */\n    tag_141:\n        /* \"#utility.yul\":2678:2679   */\n      0x04\n        /* \"#utility.yul\":2671:2676   */\n      dup2\n        /* \"#utility.yul\":2668:2680   */\n      lt\n        /* \"#utility.yul\":2658:2704   */\n      tag_211\n      jumpi\n        /* \"#utility.yul\":2684:2702   */\n      tag_212\n      tag_38\n      jump\t// in\n    tag_212:\n        /* \"#utility.yul\":2658:2704   */\n    tag_211:\n        /* \"#utility.yul\":2596:2710   */\n      pop\n      jump\t// out\n        /* \"#utility.yul\":2716:2845   */\n    tag_142:\n        /* \"#utility.yul\":2762:2769   */\n      0x00\n        /* \"#utility.yul\":2791:2796   */\n      dup2\n        /* \"#utility.yul\":2780:2796   */\n      swap1\n      pop\n        /* \"#utility.yul\":2797:2839   */\n      tag_214\n        /* \"#utility.yul\":2833:2838   */\n      dup3\n        /* \"#utility.yul\":2797:2839   */\n      tag_141\n      jump\t// in\n    tag_214:\n        /* \"#utility.yul\":2716:2845   */\n      swap2\n      swap1\n      pop\n      jump\t// out\n        /* \"#utility.yul\":2851:2980   */\n    tag_143:\n        /* \"#utility.yul\":2908:2917   */\n      0x00\n        /* \"#utility.yul\":2941:2974   */\n      tag_216\n        /* \"#utility.yul\":2968:2973   */\n      dup3\n        /* \"#utility.yul\":2941:2974   */\n      tag_142\n      jump\t// in\n    tag_216:\n        /* \"#utility.yul\":2928:2974   */\n      swap1\n      pop\n        /* \"#utility.yul\":2851:2980   */\n      swap2\n      swap1\n      pop\n      jump\t// out\n        /* \"#utility.yul\":2986:3121   */\n    tag_144:\n        /* \"#utility.yul\":3070:3114   */\n      tag_218\n        /* \"#utility.yul\":3108:3113   */\n      dup2\n        /* \"#utility.yul\":3070:3114   */\n      tag_143\n      jump\t// in\n    tag_218:\n        /* \"#utility.yul\":3065:3068   */\n      dup3\n        /* \"#utility.yul\":3058:3115   */\n      mstore\n        /* \"#utility.yul\":2986:3121   */\n      pop\n      pop\n      jump\t// out\n        /* \"#utility.yul\":3201:3890   */\n    tag_145:\n        /* \"#utility.yul\":3344:3348   */\n      0x60\n        /* \"#utility.yul\":3339:3342   */\n      dup3\n        /* \"#utility.yul\":3335:3349   */\n      add\n        /* \"#utility.yul\":3432:3436   */\n      0x00\n        /* \"#utility.yul\":3425:3430   */\n      dup3\n        /* \"#utility.yul\":3421:3437   */\n      add\n        /* \"#utility.yul\":3415:3438   */\n      mload\n        /* \"#utility.yul\":3451:3514   */\n      tag_220\n        /* \"#utility.yul\":3508:3512   */\n      0x00\n        /* \"#utility.yul\":3503:3506   */\n      dup6\n        /* \"#utility.yul\":3499:3513   */\n      add\n        /* \"#utility.yul\":3485:3497   */\n      dup3\n        /* \"#utility.yul\":3451:3514   */\n      tag_138\n      jump\t// in\n    tag_220:\n        /* \"#utility.yul\":3359:3524   */\n      pop\n        /* \"#utility.yul\":3608:3612   */\n      0x20\n        /* \"#utility.yul\":3601:3606   */\n      dup3\n        /* \"#utility.yul\":3597:3613   */\n      add\n        /* \"#utility.yul\":3591:3614   */\n      mload\n        /* \"#utility.yul\":3627:3690   */\n      tag_221\n        /* \"#utility.yul\":3684:3688   */\n      0x20\n        /* \"#utility.yul\":3679:3682   */\n      dup6\n        /* \"#utility.yul\":3675:3689   */\n      add\n        /* \"#utility.yul\":3661:3673   */\n      dup3\n        /* \"#utility.yul\":3627:3690   */\n      tag_140\n      jump\t// in\n    tag_221:\n        /* \"#utility.yul\":3534:3700   */\n      pop\n        /* \"#utility.yul\":3784:3788   */\n      0x40\n        /* \"#utility.yul\":3777:3782   */\n      dup3\n        /* \"#utility.yul\":3773:3789   */\n      add\n        /* \"#utility.yul\":3767:3790   */\n      mload\n        /* \"#utility.yul\":3803:3873   */\n      tag_222\n        /* \"#utility.yul\":3867:3871   */\n      0x40\n        /* \"#utility.yul\":3862:3865   */\n      dup6\n        /* \"#utility.yul\":3858:3872   */\n      add\n        /* \"#utility.yul\":3844:3856   */\n      dup3\n        /* \"#utility.yul\":3803:3873   */\n      tag_144\n      jump\t// in\n    tag_222:\n        /* \"#utility.yul\":3710:3883   */\n      pop\n        /* \"#utility.yul\":3313:3890   */\n      pop\n        /* \"#utility.yul\":3201:3890   */\n      pop\n      pop\n      jump\t// out\n        /* \"#utility.yul\":3896:4210   */\n    tag_18:\n        /* \"#utility.yul\":4035:4039   */\n      0x00\n        /* \"#utility.yul\":4073:4075   */\n      0x60\n        /* \"#utility.yul\":4062:4071   */\n      dup3\n        /* \"#utility.yul\":4058:4076   */\n      add\n        /* \"#utility.yul\":4050:4076   */\n      swap1\n      pop\n        /* \"#utility.yul\":4086:4203   */\n      tag_224\n        /* \"#utility.yul\":4200:4201   */\n      0x00\n        /* \"#utility.yul\":4189:4198   */\n      dup4\n        /* \"#utility.yul\":4185:4202   */\n      add\n        /* \"#utility.yul\":4176:4182   */\n      dup5\n        /* \"#utility.yul\":4086:4203   */\n      tag_145\n      jump\t// in\n    tag_224:\n        /* \"#utility.yul\":3896:4210   */\n      swap3\n      swap2\n      pop\n      pop\n      jump\t// out\n        /* \"#utility.yul\":4216:4359   */\n    tag_146:\n        /* \"#utility.yul\":4283:4292   */\n      0x00\n        /* \"#utility.yul\":4316:4353   */\n      tag_226\n        /* \"#utility.yul\":4347:4352   */\n      dup3\n        /* \"#utility.yul\":4316:4353   */\n      tag_129\n      jump\t// in\n    tag_226:\n        /* \"#utility.yul\":4303:4353   */\n      swap1\n      pop\n        /* \"#utility.yul\":4216:4359   */\n      swap2\n      swap1\n      pop\n      jump\t// out\n        /* \"#utility.yul\":4365:4530   */\n    tag_147:\n        /* \"#utility.yul\":4469:4523   */\n      tag_228\n        /* \"#utility.yul\":4517:4522   */\n      dup2\n        /* \"#utility.yul\":4469:4523   */\n      tag_146\n      jump\t// in\n    tag_228:\n        /* \"#utility.yul\":4464:4467   */\n      dup3\n        /* \"#utility.yul\":4457:4524   */\n      mstore\n        /* \"#utility.yul\":4365:4530   */\n      pop\n      pop\n      jump\t// out\n        /* \"#utility.yul\":4536:4792   */\n    tag_22:\n        /* \"#utility.yul\":4646:4650   */\n      0x00\n        /* \"#utility.yul\":4684:4686   */\n      0x20\n        /* \"#utility.yul\":4673:4682   */\n      dup3\n        /* \"#utility.yul\":4669:4687   */\n      add\n        /* \"#utility.yul\":4661:4687   */\n      swap1\n      pop\n        /* \"#utility.yul\":4697:4785   */\n      tag_230\n        /* \"#utility.yul\":4782:4783   */\n      0x00\n        /* \"#utility.yul\":4771:4780   */\n      dup4\n        /* \"#utility.yul\":4767:4784   */\n      add\n        /* \"#utility.yul\":4758:4764   */\n      dup5\n        /* \"#utility.yul\":4697:4785   */\n      tag_147\n      jump\t// in\n    tag_230:\n        /* \"#utility.yul\":4536:4792   */\n      swap3\n      swap2\n      pop\n      pop\n      jump\t// out\n        /* \"#utility.yul\":4798:5272   */\n    tag_28:\n        /* \"#utility.yul\":4866:4872   */\n      0x00\n        /* \"#utility.yul\":4874:4880   */\n      0x00\n        /* \"#utility.yul\":4923:4925   */\n      0x40\n        /* \"#utility.yul\":4911:4920   */\n      dup4\n        /* \"#utility.yul\":4902:4909   */\n      dup6\n        /* \"#utility.yul\":4898:4921   */\n      sub\n        /* \"#utility.yul\":4894:4926   */\n      slt\n        /* \"#utility.yul\":4891:5010   */\n      iszero\n      tag_232\n      jumpi\n        /* \"#utility.yul\":4929:5008   */\n      tag_233\n      tag_133\n      jump\t// in\n    tag_233:\n        /* \"#utility.yul\":4891:5010   */\n    tag_232:\n        /* \"#utility.yul\":5049:5050   */\n      0x00\n        /* \"#utility.yul\":5074:5127   */\n      tag_234\n        /* \"#utility.yul\":5119:5126   */\n      dup6\n        /* \"#utility.yul\":5110:5116   */\n      dup3\n        /* \"#utility.yul\":5099:5108   */\n      dup7\n        /* \"#utility.yul\":5095:5117   */\n      add\n        /* \"#utility.yul\":5074:5127   */\n      tag_137\n      jump\t// in\n    tag_234:\n        /* \"#utility.yul\":5064:5127   */\n      swap3\n      pop\n        /* \"#utility.yul\":5020:5137   */\n      pop\n        /* \"#utility.yul\":5176:5178   */\n      0x20\n        /* \"#utility.yul\":5202:5255   */\n      tag_235\n        /* \"#utility.yul\":5247:5254   */\n      dup6\n        /* \"#utility.yul\":5238:5244   */\n      dup3\n        /* \"#utility.yul\":5227:5236   */\n      dup7\n        /* \"#utility.yul\":5223:5245   */\n      add\n        /* \"#utility.yul\":5202:5255   */\n      tag_137\n      jump\t// in\n    tag_235:\n        /* \"#utility.yul\":5192:5255   */\n      swap2\n      pop\n        /* \"#utility.yul\":5147:5265   */\n      pop\n        /* \"#utility.yul\":4798:5272   */\n      swap3\n      pop\n      swap3\n      swap1\n      pop\n      jump\t// out\n        /* \"#utility.yul\":5278:5447   */\n    tag_148:\n        /* \"#utility.yul\":5362:5373   */\n      0x00\n        /* \"#utility.yul\":5396:5402   */\n      dup3\n        /* \"#utility.yul\":5391:5394   */\n      dup3\n        /* \"#utility.yul\":5384:5403   */\n      mstore\n        /* \"#utility.yul\":5436:5440   */\n      0x20\n        /* \"#utility.yul\":5431:5434   */\n      dup3\n        /* \"#utility.yul\":5427:5441   */\n      add\n        /* \"#utility.yul\":5412:5441   */\n      swap1\n      pop\n        /* \"#utility.yul\":5278:5447   */\n      swap3\n      swap2\n      pop\n      pop\n      jump\t// out\n        /* \"#utility.yul\":5453:5630   */\n    tag_149:\n        /* \"#utility.yul\":5593:5622   */\n      0x4f7263734d61726b6574706c6163653a206e6f74206c69737465640000000000\n        /* \"#utility.yul\":5589:5590   */\n      0x00\n        /* \"#utility.yul\":5581:5587   */\n      dup3\n        /* \"#utility.yul\":5577:5591   */\n      add\n        /* \"#utility.yul\":5570:5623   */\n      mstore\n        /* \"#utility.yul\":5453:5630   */\n      pop\n      jump\t// out\n        /* \"#utility.yul\":5636:6002   */\n    tag_150:\n        /* \"#utility.yul\":5778:5781   */\n      0x00\n        /* \"#utility.yul\":5799:5866   */\n      tag_239\n        /* \"#utility.yul\":5863:5865   */\n      0x1b\n        /* \"#utility.yul\":5858:5861   */\n      dup4\n        /* \"#utility.yul\":5799:5866   */\n      tag_148\n      jump\t// in\n    tag_239:\n        /* \"#utility.yul\":5792:5866   */\n      swap2\n      pop\n        /* \"#utility.yul\":5875:5968   */\n      tag_240\n        /* \"#utility.yul\":5964:5967   */\n      dup3\n        /* \"#utility.yul\":5875:5968   */\n      tag_149\n      jump\t// in\n    tag_240:\n        /* \"#utility.yul\":5993:5995   */\n      0x20\n        /* \"#utility.yul\":5988:5991   */\n      dup3\n        /* \"#utility.yul\":5984:5996   */\n      add\n        /* \"#utility.yul\":5977:5996   */\n      swap1\n      pop\n        /* \"#utility.yul\":5636:6002   */\n      swap2\n      swap1\n      pop\n      jump\t// out\n        /* \"#utility.yul\":6008:6427   */\n    tag_52:\n        /* \"#utility.yul\":6174:6178   */\n      0x00\n        /* \"#utility.yul\":6212:6214   */\n      0x20\n        /* \"#utility.yul\":6201:6210   */\n      dup3\n        /* \"#utility.yul\":6197:6215   */\n      add\n        /* \"#utility.yul\":6189:6215   */\n      swap1\n      pop\n        /* \"#utility.yul\":6261:6270   */\n      dup2\n        /* \"#utility.yul\":6255:6259   */\n      dup2\n        /* \"#utility.yul\":6251:6271   */\n      sub\n        /* \"#utility.yul\":6247:6248   */\n      0x00\n        /* \"#utility.yul\":6236:6245   */\n      dup4\n        /* \"#utility.yul\":6232:6249   */\n      add\n        /* \"#utility.yul\":6225:6272   */\n      mstore\n        /* \"#utility.yul\":6289:6420   */\n      tag_242\n        /* \"#utility.yul\":6415:6419   */\n      dup2\n        /* \"#utility.yul\":6289:6420   */\n      tag_150\n      jump\t// in\n    tag_242:\n        /* \"#utility.yul\":6281:6420   */\n      swap1\n      pop\n        /* \"#utility.yul\":6008:6427   */\n      swap2\n      swap1\n      pop\n      jump\t// out\n        /* \"#utility.yul\":6433:6661   */\n    tag_151:\n        /* \"#utility.yul\":6573:6607   */\n      0x4f7263734d61726b6574706c6163653a2063616c6c6572206973206e6f742074\n        /* \"#utility.yul\":6569:6570   */\n      0x00\n        /* \"#utility.yul\":6561:6567   */\n      dup3\n        /* \"#utility.yul\":6557:6571   */\n      add\n        /* \"#utility.yul\":6550:6608   */\n      mstore\n        /* \"#utility.yul\":6642:6653   */\n      0x68652073656c6c65720000000000000000000000000000000000000000000000\n        /* \"#utility.yul\":6637:6639   */\n      0x20\n        /* \"#utility.yul\":6629:6635   */\n      dup3\n        /* \"#utility.yul\":6625:6640   */\n      add\n        /* \"#utility.yul\":6618:6654   */\n      mstore\n        /* \"#utility.yul\":6433:6661   */\n      pop\n      jump\t// out\n        /* \"#utility.yul\":6667:7033   */\n    tag_152:\n        /* \"#utility.yul\":6809:6812   */\n      0x00\n        /* \"#utility.yul\":6830:6897   */\n      tag_245\n        /* \"#utility.yul\":6894:6896   */\n      0x29\n        /* \"#utility.yul\":6889:6892   */\n      dup4\n        /* \"#utility.yul\":6830:6897   */\n      tag_148\n      jump\t// in\n    tag_245:\n        /* \"#utility.yul\":6823:6897   */\n      swap2\n      pop\n        /* \"#utility.yul\":6906:6999   */\n      tag_246\n        /* \"#utility.yul\":6995:6998   */\n      dup3\n        /* \"#utility.yul\":6906:6999   */\n      tag_151\n      jump\t// in\n    tag_246:\n        /* \"#utility.yul\":7024:7026   */\n      0x40\n        /* \"#utility.yul\":7019:7022   */\n      dup3\n        /* \"#utility.yul\":7015:7027   */\n      add\n        /* \"#utility.yul\":7008:7027   */\n      swap1\n      pop\n        /* \"#utility.yul\":6667:7033   */\n      swap2\n      swap1\n      pop\n      jump\t// out\n        /* \"#utility.yul\":7039:7458   */\n    tag_55:\n        /* \"#utility.yul\":7205:7209   */\n      0x00\n        /* \"#utility.yul\":7243:7245   */\n      0x20\n        /* \"#utility.yul\":7232:7241   */\n      dup3\n        /* \"#utility.yul\":7228:7246   */\n      add\n        /* \"#utility.yul\":7220:7246   */\n      swap1\n      pop\n        /* \"#utility.yul\":7292:7301   */\n      dup2\n        /* \"#utility.yul\":7286:7290   */\n      dup2\n        /* \"#utility.yul\":7282:7302   */\n      sub\n        /* \"#utility.yul\":7278:7279   */\n      0x00\n        /* \"#utility.yul\":7267:7276   */\n      dup4\n        /* \"#utility.yul\":7263:7280   */\n      add\n        /* \"#utility.yul\":7256:7303   */\n      mstore\n        /* \"#utility.yul\":7320:7451   */\n      tag_248\n        /* \"#utility.yul\":7446:7450   */\n      dup2\n        /* \"#utility.yul\":7320:7451   */\n      tag_152\n      jump\t// in\n    tag_248:\n        /* \"#utility.yul\":7312:7451   */\n      swap1\n      pop\n        /* \"#utility.yul\":7039:7458   */\n      swap2\n      swap1\n      pop\n      jump\t// out\n        /* \"#utility.yul\":7464:7699   */\n    tag_153:\n        /* \"#utility.yul\":7604:7638   */\n      0x4f7263734d61726b6574706c6163653a207072696365206d7573742062652067\n        /* \"#utility.yul\":7600:7601   */\n      0x00\n        /* \"#utility.yul\":7592:7598   */\n      dup3\n        /* \"#utility.yul\":7588:7602   */\n      add\n        /* \"#utility.yul\":7581:7639   */\n      mstore\n        /* \"#utility.yul\":7673:7691   */\n      0x726561746572207468616e207a65726f00000000000000000000000000000000\n        /* \"#utility.yul\":7668:7670   */\n      0x20\n        /* \"#utility.yul\":7660:7666   */\n      dup3\n        /* \"#utility.yul\":7656:7671   */\n      add\n        /* \"#utility.yul\":7649:7692   */\n      mstore\n        /* \"#utility.yul\":7464:7699   */\n      pop\n      jump\t// out\n        /* \"#utility.yul\":7705:8071   */\n    tag_154:\n        /* \"#utility.yul\":7847:7850   */\n      0x00\n        /* \"#utility.yul\":7868:7935   */\n      tag_251\n        /* \"#utility.yul\":7932:7934   */\n      0x30\n        /* \"#utility.yul\":7927:7930   */\n      dup4\n        /* \"#utility.yul\":7868:7935   */\n      tag_148\n      jump\t// in\n    tag_251:\n        /* \"#utility.yul\":7861:7935   */\n      swap2\n      pop\n        /* \"#utility.yul\":7944:8037   */\n      tag_252\n        /* \"#utility.yul\":8033:8036   */\n      dup3\n        /* \"#utility.yul\":7944:8037   */\n      tag_153\n      jump\t// in\n    tag_252:\n        /* \"#utility.yul\":8062:8064   */\n      0x40\n        /* \"#utility.yul\":8057:8060   */\n      dup3\n        /* \"#utility.yul\":8053:8065   */\n      add\n        /* \"#utility.yul\":8046:8065   */\n      swap1\n      pop\n        /* \"#utility.yul\":7705:8071   */\n      swap2\n      swap1\n      pop\n      jump\t// out\n        /* \"#utility.yul\":8077:8496   */\n    tag_59:\n        /* \"#utility.yul\":8243:8247   */\n      0x00\n        /* \"#utility.yul\":8281:8283   */\n      0x20\n        /* \"#utility.yul\":8270:8279   */\n      dup3\n        /* \"#utility.yul\":8266:8284   */\n      add\n        /* \"#utility.yul\":8258:8284   */\n      swap1\n      pop\n        /* \"#utility.yul\":8330:8339   */\n      dup2\n        /* \"#utility.yul\":8324:8328   */\n      dup2\n        /* \"#utility.yul\":8320:8340   */\n      sub\n        /* \"#utility.yul\":8316:8317   */\n      0x00\n        /* \"#utility.yul\":8305:8314   */\n      dup4\n        /* \"#utility.yul\":8301:8318   */\n      add\n        /* \"#utility.yul\":8294:8341   */\n      mstore\n        /* \"#utility.yul\":8358:8489   */\n      tag_254\n        /* \"#utility.yul\":8484:8488   */\n      dup2\n        /* \"#utility.yul\":8358:8489   */\n      tag_154\n      jump\t// in\n    tag_254:\n        /* \"#utility.yul\":8350:8489   */\n      swap1\n      pop\n        /* \"#utility.yul\":8077:8496   */\n      swap2\n      swap1\n      pop\n      jump\t// out\n        /* \"#utility.yul\":8502:8620   */\n    tag_155:\n        /* \"#utility.yul\":8589:8613   */\n      tag_256\n        /* \"#utility.yul\":8607:8612   */\n      dup2\n        /* \"#utility.yul\":8589:8613   */\n      tag_135\n      jump\t// in\n    tag_256:\n        /* \"#utility.yul\":8584:8587   */\n      dup3\n        /* \"#utility.yul\":8577:8614   */\n      mstore\n        /* \"#utility.yul\":8502:8620   */\n      pop\n      pop\n      jump\t// out\n        /* \"#utility.yul\":8626:8848   */\n    tag_61:\n        /* \"#utility.yul\":8719:8723   */\n      0x00\n        /* \"#utility.yul\":8757:8759   */\n      0x20\n        /* \"#utility.yul\":8746:8755   */\n      dup3\n        /* \"#utility.yul\":8742:8760   */\n      add\n        /* \"#utility.yul\":8734:8760   */\n      swap1\n      pop\n        /* \"#utility.yul\":8770:8841   */\n      tag_258\n        /* \"#utility.yul\":8838:8839   */\n      0x00\n        /* \"#utility.yul\":8827:8836   */\n      dup4\n        /* \"#utility.yul\":8823:8840   */\n      add\n        /* \"#utility.yul\":8814:8820   */\n      dup5\n        /* \"#utility.yul\":8770:8841   */\n      tag_155\n      jump\t// in\n    tag_258:\n        /* \"#utility.yul\":8626:8848   */\n      swap3\n      swap2\n      pop\n      pop\n      jump\t// out\n        /* \"#utility.yul\":8854:8976   */\n    tag_156:\n        /* \"#utility.yul\":8927:8951   */\n      tag_260\n        /* \"#utility.yul\":8945:8950   */\n      dup2\n        /* \"#utility.yul\":8927:8951   */\n      tag_139\n      jump\t// in\n    tag_260:\n        /* \"#utility.yul\":8920:8925   */\n      dup2\n        /* \"#utility.yul\":8917:8952   */\n      eq\n        /* \"#utility.yul\":8907:8970   */\n      tag_261\n      jumpi\n        /* \"#utility.yul\":8966:8967   */\n      0x00\n        /* \"#utility.yul\":8963:8964   */\n      0x00\n        /* \"#utility.yul\":8956:8968   */\n      revert\n        /* \"#utility.yul\":8907:8970   */\n    tag_261:\n        /* \"#utility.yul\":8854:8976   */\n      pop\n      jump\t// out\n        /* \"#utility.yul\":8982:9125   */\n    tag_157:\n        /* \"#utility.yul\":9039:9044   */\n      0x00\n        /* \"#utility.yul\":9070:9076   */\n      dup2\n        /* \"#utility.yul\":9064:9077   */\n      mload\n        /* \"#utility.yul\":9055:9077   */\n      swap1\n      pop\n        /* \"#utility.yul\":9086:9119   */\n      tag_263\n        /* \"#utility.yul\":9113:9118   */\n      dup2\n        /* \"#utility.yul\":9086:9119   */\n      tag_156\n      jump\t// in\n    tag_263:\n        /* \"#utility.yul\":8982:9125   */\n      swap3\n      swap2\n      pop\n      pop\n      jump\t// out\n        /* \"#utility.yul\":9131:9482   */\n    tag_65:\n        /* \"#utility.yul\":9201:9207   */\n      0x00\n        /* \"#utility.yul\":9250:9252   */\n      0x20\n        /* \"#utility.yul\":9238:9247   */\n      dup3\n        /* \"#utility.yul\":9229:9236   */\n      dup5\n        /* \"#utility.yul\":9225:9248   */\n      sub\n        /* \"#utility.yul\":9221:9253   */\n      slt\n        /* \"#utility.yul\":9218:9337   */\n      iszero\n      tag_265\n      jumpi\n        /* \"#utility.yul\":9256:9335   */\n      tag_266\n      tag_133\n      jump\t// in\n    tag_266:\n        /* \"#utility.yul\":9218:9337   */\n    tag_265:\n        /* \"#utility.yul\":9376:9377   */\n      0x00\n        /* \"#utility.yul\":9401:9465   */\n      tag_267\n        /* \"#utility.yul\":9457:9464   */\n      dup5\n        /* \"#utility.yul\":9448:9454   */\n      dup3\n        /* \"#utility.yul\":9437:9446   */\n      dup6\n        /* \"#utility.yul\":9433:9455   */\n      add\n        /* \"#utility.yul\":9401:9465   */\n      tag_157\n      jump\t// in\n    tag_267:\n        /* \"#utility.yul\":9391:9465   */\n      swap2\n      pop\n        /* \"#utility.yul\":9347:9475   */\n      pop\n        /* \"#utility.yul\":9131:9482   */\n      swap3\n      swap2\n      pop\n      pop\n      jump\t// out\n        /* \"#utility.yul\":9488:9715   */\n    tag_158:\n        /* \"#utility.yul\":9628:9662   */\n      0x4f7263734d61726b6574706c6163653a2063616c6c6572206973206e6f742074\n        /* \"#utility.yul\":9624:9625   */\n      0x00\n        /* \"#utility.yul\":9616:9622   */\n      dup3\n        /* \"#utility.yul\":9612:9626   */\n      add\n        /* \"#utility.yul\":9605:9663   */\n      mstore\n        /* \"#utility.yul\":9697:9707   */\n      0x6865206f776e6572000000000000000000000000000000000000000000000000\n        /* \"#utility.yul\":9692:9694   */\n      0x20\n        /* \"#utility.yul\":9684:9690   */\n      dup3\n        /* \"#utility.yul\":9680:9695   */\n      add\n        /* \"#utility.yul\":9673:9708   */\n      mstore\n        /* \"#utility.yul\":9488:9715   */\n      pop\n      jump\t// out\n        /* \"#utility.yul\":9721:10087   */\n    tag_159:\n        /* \"#utility.yul\":9863:9866   */\n      0x00\n        /* \"#utility.yul\":9884:9951   */\n      tag_270\n        /* \"#utility.yul\":9948:9950   */\n      0x28\n        /* \"#utility.yul\":9943:9946   */\n      dup4\n        /* \"#utility.yul\":9884:9951   */\n      tag_148\n      jump\t// in\n    tag_270:\n        /* \"#utility.yul\":9877:9951   */\n      swap2\n      pop\n        /* \"#utility.yul\":9960:10053   */\n      tag_271\n        /* \"#utility.yul\":10049:10052   */\n      dup3\n        /* \"#utility.yul\":9960:10053   */\n      tag_158\n      jump\t// in\n    tag_271:\n        /* \"#utility.yul\":10078:10080   */\n      0x40\n        /* \"#utility.yul\":10073:10076   */\n      dup3\n        /* \"#utility.yul\":10069:10081   */\n      add\n        /* \"#utility.yul\":10062:10081   */\n      swap1\n      pop\n        /* \"#utility.yul\":9721:10087   */\n      swap2\n      swap1\n      pop\n      jump\t// out\n        /* \"#utility.yul\":10093:10512   */\n    tag_68:\n        /* \"#utility.yul\":10259:10263   */\n      0x00\n        /* \"#utility.yul\":10297:10299   */\n      0x20\n        /* \"#utility.yul\":10286:10295   */\n      dup3\n        /* \"#utility.yul\":10282:10300   */\n      add\n        /* \"#utility.yul\":10274:10300   */\n      swap1\n      pop\n        /* \"#utility.yul\":10346:10355   */\n      dup2\n        /* \"#utility.yul\":10340:10344   */\n      dup2\n        /* \"#utility.yul\":10336:10356   */\n      sub\n        /* \"#utility.yul\":10332:10333   */\n      0x00\n        /* \"#utility.yul\":10321:10330   */\n      dup4\n        /* \"#utility.yul\":10317:10334   */\n      add\n        /* \"#utility.yul\":10310:10357   */\n      mstore\n        /* \"#utility.yul\":10374:10505   */\n      tag_273\n        /* \"#utility.yul\":10500:10504   */\n      dup2\n        /* \"#utility.yul\":10374:10505   */\n      tag_159\n      jump\t// in\n    tag_273:\n        /* \"#utility.yul\":10366:10505   */\n      swap1\n      pop\n        /* \"#utility.yul\":10093:10512   */\n      swap2\n      swap1\n      pop\n      jump\t// out\n        /* \"#utility.yul\":10518:10636   */\n    tag_160:\n        /* \"#utility.yul\":10605:10629   */\n      tag_275\n        /* \"#utility.yul\":10623:10628   */\n      dup2\n        /* \"#utility.yul\":10605:10629   */\n      tag_139\n      jump\t// in\n    tag_275:\n        /* \"#utility.yul\":10600:10603   */\n      dup3\n        /* \"#utility.yul\":10593:10630   */\n      mstore\n        /* \"#utility.yul\":10518:10636   */\n      pop\n      pop\n      jump\t// out\n        /* \"#utility.yul\":10642:10974   */\n    tag_75:\n        /* \"#utility.yul\":10763:10767   */\n      0x00\n        /* \"#utility.yul\":10801:10803   */\n      0x40\n        /* \"#utility.yul\":10790:10799   */\n      dup3\n        /* \"#utility.yul\":10786:10804   */\n      add\n        /* \"#utility.yul\":10778:10804   */\n      swap1\n      pop\n        /* \"#utility.yul\":10814:10885   */\n      tag_277\n        /* \"#utility.yul\":10882:10883   */\n      0x00\n        /* \"#utility.yul\":10871:10880   */\n      dup4\n        /* \"#utility.yul\":10867:10884   */\n      add\n        /* \"#utility.yul\":10858:10864   */\n      dup6\n        /* \"#utility.yul\":10814:10885   */\n      tag_160\n      jump\t// in\n    tag_277:\n        /* \"#utility.yul\":10895:10967   */\n      tag_278\n        /* \"#utility.yul\":10963:10965   */\n      0x20\n        /* \"#utility.yul\":10952:10961   */\n      dup4\n        /* \"#utility.yul\":10948:10966   */\n      add\n        /* \"#utility.yul\":10939:10945   */\n      dup5\n        /* \"#utility.yul\":10895:10967   */\n      tag_160\n      jump\t// in\n    tag_278:\n        /* \"#utility.yul\":10642:10974   */\n      swap4\n      swap3\n      pop\n      pop\n      pop\n      jump\t// out\n        /* \"#utility.yul\":10980:11070   */\n    tag_161:\n        /* \"#utility.yul\":11014:11021   */\n      0x00\n        /* \"#utility.yul\":11057:11062   */\n      dup2\n        /* \"#utility.yul\":11050:11063   */\n      iszero\n        /* \"#utility.yul\":11043:11064   */\n      iszero\n        /* \"#utility.yul\":11032:11064   */\n      swap1\n      pop\n        /* \"#utility.yul\":10980:11070   */\n      swap2\n      swap1\n      pop\n      jump\t// out\n        /* \"#utility.yul\":11076:11192   */\n    tag_162:\n        /* \"#utility.yul\":11146:11167   */\n      tag_281\n        /* \"#utility.yul\":11161:11166   */\n      dup2\n        /* \"#utility.yul\":11146:11167   */\n      tag_161\n      jump\t// in\n    tag_281:\n        /* \"#utility.yul\":11139:11144   */\n      dup2\n        /* \"#utility.yul\":11136:11168   */\n      eq\n        /* \"#utility.yul\":11126:11186   */\n      tag_282\n      jumpi\n        /* \"#utility.yul\":11182:11183   */\n      0x00\n        /* \"#utility.yul\":11179:11180   */\n      0x00\n        /* \"#utility.yul\":11172:11184   */\n      revert\n        /* \"#utility.yul\":11126:11186   */\n    tag_282:\n        /* \"#utility.yul\":11076:11192   */\n      pop\n      jump\t// out\n        /* \"#utility.yul\":11198:11335   */\n    tag_163:\n        /* \"#utility.yul\":11252:11257   */\n      0x00\n        /* \"#utility.yul\":11283:11289   */\n      dup2\n        /* \"#utility.yul\":11277:11290   */\n      mload\n        /* \"#utility.yul\":11268:11290   */\n      swap1\n      pop\n        /* \"#utility.yul\":11299:11329   */\n      tag_284\n        /* \"#utility.yul\":11323:11328   */\n      dup2\n        /* \"#utility.yul\":11299:11329   */\n      tag_162\n      jump\t// in\n    tag_284:\n        /* \"#utility.yul\":11198:11335   */\n      swap3\n      swap2\n      pop\n      pop\n      jump\t// out\n        /* \"#utility.yul\":11341:11686   */\n    tag_79:\n        /* \"#utility.yul\":11408:11414   */\n      0x00\n        /* \"#utility.yul\":11457:11459   */\n      0x20\n        /* \"#utility.yul\":11445:11454   */\n      dup3\n        /* \"#utility.yul\":11436:11443   */\n      dup5\n        /* \"#utility.yul\":11432:11455   */\n      sub\n        /* \"#utility.yul\":11428:11460   */\n      slt\n        /* \"#utility.yul\":11425:11544   */\n      iszero\n      tag_286\n      jumpi\n        /* \"#utility.yul\":11463:11542   */\n      tag_287\n      tag_133\n      jump\t// in\n    tag_287:\n        /* \"#utility.yul\":11425:11544   */\n    tag_286:\n        /* \"#utility.yul\":11583:11584   */\n      0x00\n        /* \"#utility.yul\":11608:11669   */\n      tag_288\n        /* \"#utility.yul\":11661:11668   */\n      dup5\n        /* \"#utility.yul\":11652:11658   */\n      dup3\n        /* \"#utility.yul\":11641:11650   */\n      dup6\n        /* \"#utility.yul\":11637:11659   */\n      add\n        /* \"#utility.yul\":11608:11669   */\n      tag_163\n      jump\t// in\n    tag_288:\n        /* \"#utility.yul\":11598:11669   */\n      swap2\n      pop\n        /* \"#utility.yul\":11554:11679   */\n      pop\n        /* \"#utility.yul\":11341:11686   */\n      swap3\n      swap2\n      pop\n      pop\n      jump\t// out\n        /* \"#utility.yul\":11692:11920   */\n    tag_164:\n        /* \"#utility.yul\":11832:11866   */\n      0x4f7263734d61726b6574706c6163653a206d61726b6574706c616365206e6f74\n        /* \"#utility.yul\":11828:11829   */\n      0x00\n        /* \"#utility.yul\":11820:11826   */\n      dup3\n        /* \"#utility.yul\":11816:11830   */\n      add\n        /* \"#utility.yul\":11809:11867   */\n      mstore\n        /* \"#utility.yul\":11901:11912   */\n      0x20617070726f7665640000000000000000000000000000000000000000000000\n        /* \"#utility.yul\":11896:11898   */\n      0x20\n        /* \"#utility.yul\":11888:11894   */\n      dup3\n        /* \"#utility.yul\":11884:11899   */\n      add\n        /* \"#utility.yul\":11877:11913   */\n      mstore\n        /* \"#utility.yul\":11692:11920   */\n      pop\n      jump\t// out\n        /* \"#utility.yul\":11926:12292   */\n    tag_165:\n        /* \"#utility.yul\":12068:12071   */\n      0x00\n        /* \"#utility.yul\":12089:12156   */\n      tag_291\n        /* \"#utility.yul\":12153:12155   */\n      0x29\n        /* \"#utility.yul\":12148:12151   */\n      dup4\n        /* \"#utility.yul\":12089:12156   */\n      tag_148\n      jump\t// in\n    tag_291:\n        /* \"#utility.yul\":12082:12156   */\n      swap2\n      pop\n        /* \"#utility.yul\":12165:12258   */\n      tag_292\n        /* \"#utility.yul\":12254:12257   */\n      dup3\n        /* \"#utility.yul\":12165:12258   */\n      tag_164\n      jump\t// in\n    tag_292:\n        /* \"#utility.yul\":12283:12285   */\n      0x40\n        /* \"#utility.yul\":12278:12281   */\n      dup3\n        /* \"#utility.yul\":12274:12286   */\n      add\n        /* \"#utility.yul\":12267:12286   */\n      swap1\n      pop\n        /* \"#utility.yul\":11926:12292   */\n      swap2\n      swap1\n      pop\n      jump\t// out\n        /* \"#utility.yul\":12298:12717   */\n    tag_82:\n        /* \"#utility.yul\":12464:12468   */\n      0x00\n        /* \"#utility.yul\":12502:12504   */\n      0x20\n        /* \"#utility.yul\":12491:12500   */\n      dup3\n        /* \"#utility.yul\":12487:12505   */\n      add\n        /* \"#utility.yul\":12479:12505   */\n      swap1\n      pop\n        /* \"#utility.yul\":12551:12560   */\n      dup2\n        /* \"#utility.yul\":12545:12549   */\n      dup2\n        /* \"#utility.yul\":12541:12561   */\n      sub\n        /* \"#utility.yul\":12537:12538   */\n      0x00\n        /* \"#utility.yul\":12526:12535   */\n      dup4\n        /* \"#utility.yul\":12522:12539   */\n      add\n        /* \"#utility.yul\":12515:12562   */\n      mstore\n        /* \"#utility.yul\":12579:12710   */\n      tag_294\n        /* \"#utility.yul\":12705:12709   */\n      dup2\n        /* \"#utility.yul\":12579:12710   */\n      tag_165\n      jump\t// in\n    tag_294:\n        /* \"#utility.yul\":12571:12710   */\n      swap1\n      pop\n        /* \"#utility.yul\":12298:12717   */\n      swap2\n      swap1\n      pop\n      jump\t// out\n        /* \"#utility.yul\":12723:12904   */\n    tag_166:\n        /* \"#utility.yul\":12863:12896   */\n      0x4f7263734d61726b6574706c6163653a20616c7265616479206c697374656400\n        /* \"#utility.yul\":12859:12860   */\n      0x00\n        /* \"#utility.yul\":12851:12857   */\n      dup3\n        /* \"#utility.yul\":12847:12861   */\n      add\n        /* \"#utility.yul\":12840:12897   */\n      mstore\n        /* \"#utility.yul\":12723:12904   */\n      pop\n      jump\t// out\n        /* \"#utility.yul\":12910:13276   */\n    tag_167:\n        /* \"#utility.yul\":13052:13055   */\n      0x00\n        /* \"#utility.yul\":13073:13140   */\n      tag_297\n        /* \"#utility.yul\":13137:13139   */\n      0x1f\n        /* \"#utility.yul\":13132:13135   */\n      dup4\n        /* \"#utility.yul\":13073:13140   */\n      tag_148\n      jump\t// in\n    tag_297:\n        /* \"#utility.yul\":13066:13140   */\n      swap2\n      pop\n        /* \"#utility.yul\":13149:13242   */\n      tag_298\n        /* \"#utility.yul\":13238:13241   */\n      dup3\n        /* \"#utility.yul\":13149:13242   */\n      tag_166\n      jump\t// in\n    tag_298:\n        /* \"#utility.yul\":13267:13269   */\n      0x20\n        /* \"#utility.yul\":13262:13265   */\n      dup3\n        /* \"#utility.yul\":13258:13270   */\n      add\n        /* \"#utility.yul\":13251:13270   */\n      swap1\n      pop\n        /* \"#utility.yul\":12910:13276   */\n      swap2\n      swap1\n      pop\n      jump\t// out\n        /* \"#utility.yul\":13282:13701   */\n    tag_85:\n        /* \"#utility.yul\":13448:13452   */\n      0x00\n        /* \"#utility.yul\":13486:13488   */\n      0x20\n        /* \"#utility.yul\":13475:13484   */\n      dup3\n        /* \"#utility.yul\":13471:13489   */\n      add\n        /* \"#utility.yul\":13463:13489   */\n      swap1\n      pop\n        /* \"#utility.yul\":13535:13544   */\n      dup2\n        /* \"#utility.yul\":13529:13533   */\n      dup2\n        /* \"#utility.yul\":13525:13545   */\n      sub\n        /* \"#utility.yul\":13521:13522   */\n      0x00\n        /* \"#utility.yul\":13510:13519   */\n      dup4\n        /* \"#utility.yul\":13506:13523   */\n      add\n        /* \"#utility.yul\":13499:13546   */\n      mstore\n        /* \"#utility.yul\":13563:13694   */\n      tag_300\n        /* \"#utility.yul\":13689:13693   */\n      dup2\n        /* \"#utility.yul\":13563:13694   */\n      tag_167\n      jump\t// in\n    tag_300:\n        /* \"#utility.yul\":13555:13694   */\n      swap1\n      pop\n        /* \"#utility.yul\":13282:13701   */\n      swap2\n      swap1\n      pop\n      jump\t// out\n        /* \"#utility.yul\":13707:13933   */\n    tag_168:\n        /* \"#utility.yul\":13847:13881   */\n      0x4f7263734d61726b6574706c6163653a2063616e6e6f7420627579204f776e20\n        /* \"#utility.yul\":13843:13844   */\n      0x00\n        /* \"#utility.yul\":13835:13841   */\n      dup3\n        /* \"#utility.yul\":13831:13845   */\n      add\n        /* \"#utility.yul\":13824:13882   */\n      mstore\n        /* \"#utility.yul\":13916:13925   */\n      0x4c697374696e6700000000000000000000000000000000000000000000000000\n        /* \"#utility.yul\":13911:13913   */\n      0x20\n        /* \"#utility.yul\":13903:13909   */\n      dup3\n        /* \"#utility.yul\":13899:13914   */\n      add\n        /* \"#utility.yul\":13892:13926   */\n      mstore\n        /* \"#utility.yul\":13707:13933   */\n      pop\n      jump\t// out\n        /* \"#utility.yul\":13939:14305   */\n    tag_169:\n        /* \"#utility.yul\":14081:14084   */\n      0x00\n        /* \"#utility.yul\":14102:14169   */\n      tag_303\n        /* \"#utility.yul\":14166:14168   */\n      0x27\n        /* \"#utility.yul\":14161:14164   */\n      dup4\n        /* \"#utility.yul\":14102:14169   */\n      tag_148\n      jump\t// in\n    tag_303:\n        /* \"#utility.yul\":14095:14169   */\n      swap2\n      pop\n        /* \"#utility.yul\":14178:14271   */\n      tag_304\n        /* \"#utility.yul\":14267:14270   */\n      dup3\n        /* \"#utility.yul\":14178:14271   */\n      tag_168\n      jump\t// in\n    tag_304:\n        /* \"#utility.yul\":14296:14298   */\n      0x40\n        /* \"#utility.yul\":14291:14294   */\n      dup3\n        /* \"#utility.yul\":14287:14299   */\n      add\n        /* \"#utility.yul\":14280:14299   */\n      swap1\n      pop\n        /* \"#utility.yul\":13939:14305   */\n      swap2\n      swap1\n      pop\n      jump\t// out\n        /* \"#utility.yul\":14311:14730   */\n    tag_100:\n        /* \"#utility.yul\":14477:14481   */\n      0x00\n        /* \"#utility.yul\":14515:14517   */\n      0x20\n        /* \"#utility.yul\":14504:14513   */\n      dup3\n        /* \"#utility.yul\":14500:14518   */\n      add\n        /* \"#utility.yul\":14492:14518   */\n      swap1\n      pop\n        /* \"#utility.yul\":14564:14573   */\n      dup2\n        /* \"#utility.yul\":14558:14562   */\n      dup2\n        /* \"#utility.yul\":14554:14574   */\n      sub\n        /* \"#utility.yul\":14550:14551   */\n      0x00\n        /* \"#utility.yul\":14539:14548   */\n      dup4\n        /* \"#utility.yul\":14535:14552   */\n      add\n        /* \"#utility.yul\":14528:14575   */\n      mstore\n        /* \"#utility.yul\":14592:14723   */\n      tag_306\n        /* \"#utility.yul\":14718:14722   */\n      dup2\n        /* \"#utility.yul\":14592:14723   */\n      tag_169\n      jump\t// in\n    tag_306:\n        /* \"#utility.yul\":14584:14723   */\n      swap1\n      pop\n        /* \"#utility.yul\":14311:14730   */\n      swap2\n      swap1\n      pop\n      jump\t// out\n        /* \"#utility.yul\":14736:14879   */\n    tag_170:\n        /* \"#utility.yul\":14793:14798   */\n      0x00\n        /* \"#utility.yul\":14824:14830   */\n      dup2\n        /* \"#utility.yul\":14818:14831   */\n      mload\n        /* \"#utility.yul\":14809:14831   */\n      swap1\n      pop\n        /* \"#utility.yul\":14840:14873   */\n      tag_308\n        /* \"#utility.yul\":14867:14872   */\n      dup2\n        /* \"#utility.yul\":14840:14873   */\n      tag_136\n      jump\t// in\n    tag_308:\n        /* \"#utility.yul\":14736:14879   */\n      swap3\n      swap2\n      pop\n      pop\n      jump\t// out\n        /* \"#utility.yul\":14885:15236   */\n    tag_105:\n        /* \"#utility.yul\":14955:14961   */\n      0x00\n        /* \"#utility.yul\":15004:15006   */\n      0x20\n        /* \"#utility.yul\":14992:15001   */\n      dup3\n        /* \"#utility.yul\":14983:14990   */\n      dup5\n        /* \"#utility.yul\":14979:15002   */\n      sub\n        /* \"#utility.yul\":14975:15007   */\n      slt\n        /* \"#utility.yul\":14972:15091   */\n      iszero\n      tag_310\n      jumpi\n        /* \"#utility.yul\":15010:15089   */\n      tag_311\n      tag_133\n      jump\t// in\n    tag_311:\n        /* \"#utility.yul\":14972:15091   */\n    tag_310:\n        /* \"#utility.yul\":15130:15131   */\n      0x00\n        /* \"#utility.yul\":15155:15219   */\n      tag_312\n        /* \"#utility.yul\":15211:15218   */\n      dup5\n        /* \"#utility.yul\":15202:15208   */\n      dup3\n        /* \"#utility.yul\":15191:15200   */\n      dup6\n        /* \"#utility.yul\":15187:15209   */\n      add\n        /* \"#utility.yul\":15155:15219   */\n      tag_170\n      jump\t// in\n    tag_312:\n        /* \"#utility.yul\":15145:15219   */\n      swap2\n      pop\n        /* \"#utility.yul\":15101:15229   */\n      pop\n        /* \"#utility.yul\":14885:15236   */\n      swap3\n      swap2\n      pop\n      pop\n      jump\t// out\n        /* \"#utility.yul\":15242:15466   */\n    tag_171:\n        /* \"#utility.yul\":15382:15416   */\n      0x4f7263734d61726b6574706c6163653a206e6f7420656e6f75676820616c6c6f\n        /* \"#utility.yul\":15378:15379   */\n      0x00\n        /* \"#utility.yul\":15370:15376   */\n      dup3\n        /* \"#utility.yul\":15366:15380   */\n      add\n        /* \"#utility.yul\":15359:15417   */\n      mstore\n        /* \"#utility.yul\":15451:15458   */\n      0x77616e6365000000000000000000000000000000000000000000000000000000\n        /* \"#utility.yul\":15446:15448   */\n      0x20\n        /* \"#utility.yul\":15438:15444   */\n      dup3\n        /* \"#utility.yul\":15434:15449   */\n      add\n        /* \"#utility.yul\":15427:15459   */\n      mstore\n        /* \"#utility.yul\":15242:15466   */\n      pop\n      jump\t// out\n        /* \"#utility.yul\":15472:15838   */\n    tag_172:\n        /* \"#utility.yul\":15614:15617   */\n      0x00\n        /* \"#utility.yul\":15635:15702   */\n      tag_315\n        /* \"#utility.yul\":15699:15701   */\n      0x25\n        /* \"#utility.yul\":15694:15697   */\n      dup4\n        /* \"#utility.yul\":15635:15702   */\n      tag_148\n      jump\t// in\n    tag_315:\n        /* \"#utility.yul\":15628:15702   */\n      swap2\n      pop\n        /* \"#utility.yul\":15711:15804   */\n      tag_316\n        /* \"#utility.yul\":15800:15803   */\n      dup3\n        /* \"#utility.yul\":15711:15804   */\n      tag_171\n      jump\t// in\n    tag_316:\n        /* \"#utility.yul\":15829:15831   */\n      0x40\n        /* \"#utility.yul\":15824:15827   */\n      dup3\n        /* \"#utility.yul\":15820:15832   */\n      add\n        /* \"#utility.yul\":15813:15832   */\n      swap1\n      pop\n        /* \"#utility.yul\":15472:15838   */\n      swap2\n      swap1\n      pop\n      jump\t// out\n        /* \"#utility.yul\":15844:16263   */\n    tag_108:\n        /* \"#utility.yul\":16010:16014   */\n      0x00\n        /* \"#utility.yul\":16048:16050   */\n      0x20\n        /* \"#utility.yul\":16037:16046   */\n      dup3\n        /* \"#utility.yul\":16033:16051   */\n      add\n        /* \"#utility.yul\":16025:16051   */\n      swap1\n      pop\n        /* \"#utility.yul\":16097:16106   */\n      dup2\n        /* \"#utility.yul\":16091:16095   */\n      dup2\n        /* \"#utility.yul\":16087:16107   */\n      sub\n        /* \"#utility.yul\":16083:16084   */\n      0x00\n        /* \"#utility.yul\":16072:16081   */\n      dup4\n        /* \"#utility.yul\":16068:16085   */\n      add\n        /* \"#utility.yul\":16061:16108   */\n      mstore\n        /* \"#utility.yul\":16125:16256   */\n      tag_318\n        /* \"#utility.yul\":16251:16255   */\n      dup2\n        /* \"#utility.yul\":16125:16256   */\n      tag_172\n      jump\t// in\n    tag_318:\n        /* \"#utility.yul\":16117:16256   */\n      swap1\n      pop\n        /* \"#utility.yul\":15844:16263   */\n      swap2\n      swap1\n      pop\n      jump\t// out\n        /* \"#utility.yul\":16269:16711   */\n    tag_112:\n        /* \"#utility.yul\":16418:16422   */\n      0x00\n        /* \"#utility.yul\":16456:16458   */\n      0x60\n        /* \"#utility.yul\":16445:16454   */\n      dup3\n        /* \"#utility.yul\":16441:16459   */\n      add\n        /* \"#utility.yul\":16433:16459   */\n      swap1\n      pop\n        /* \"#utility.yul\":16469:16540   */\n      tag_320\n        /* \"#utility.yul\":16537:16538   */\n      0x00\n        /* \"#utility.yul\":16526:16535   */\n      dup4\n        /* \"#utility.yul\":16522:16539   */\n      add\n        /* \"#utility.yul\":16513:16519   */\n      dup7\n        /* \"#utility.yul\":16469:16540   */\n      tag_160\n      jump\t// in\n    tag_320:\n        /* \"#utility.yul\":16550:16622   */\n      tag_321\n        /* \"#utility.yul\":16618:16620   */\n      0x20\n        /* \"#utility.yul\":16607:16616   */\n      dup4\n        /* \"#utility.yul\":16603:16621   */\n      add\n        /* \"#utility.yul\":16594:16600   */\n      dup6\n        /* \"#utility.yul\":16550:16622   */\n      tag_160\n      jump\t// in\n    tag_321:\n        /* \"#utility.yul\":16632:16704   */\n      tag_322\n        /* \"#utility.yul\":16700:16702   */\n      0x40\n        /* \"#utility.yul\":16689:16698   */\n      dup4\n        /* \"#utility.yul\":16685:16703   */\n      add\n        /* \"#utility.yul\":16676:16682   */\n      dup5\n        /* \"#utility.yul\":16632:16704   */\n      tag_155\n      jump\t// in\n    tag_322:\n        /* \"#utility.yul\":16269:16711   */\n      swap5\n      swap4\n      pop\n      pop\n      pop\n      pop\n      jump\t// out\n        /* \"#utility.yul\":16717:16898   */\n    tag_173:\n        /* \"#utility.yul\":16857:16890   */\n      0x4f7263734d61726b6574706c6163653a207061796d656e74206661696c656400\n        /* \"#utility.yul\":16853:16854   */\n      0x00\n        /* \"#utility.yul\":16845:16851   */\n      dup3\n        /* \"#utility.yul\":16841:16855   */\n      add\n        /* \"#utility.yul\":16834:16891   */\n      mstore\n        /* \"#utility.yul\":16717:16898   */\n      pop\n      jump\t// out\n        /* \"#utility.yul\":16904:17270   */\n    tag_174:\n        /* \"#utility.yul\":17046:17049   */\n      0x00\n        /* \"#utility.yul\":17067:17134   */\n      tag_325\n        /* \"#utility.yul\":17131:17133   */\n      0x1f\n        /* \"#utility.yul\":17126:17129   */\n      dup4\n        /* \"#utility.yul\":17067:17134   */\n      tag_148\n      jump\t// in\n    tag_325:\n        /* \"#utility.yul\":17060:17134   */\n      swap2\n      pop\n        /* \"#utility.yul\":17143:17236   */\n      tag_326\n        /* \"#utility.yul\":17232:17235   */\n      dup3\n        /* \"#utility.yul\":17143:17236   */\n      tag_173\n      jump\t// in\n    tag_326:\n        /* \"#utility.yul\":17261:17263   */\n      0x20\n        /* \"#utility.yul\":17256:17259   */\n      dup3\n        /* \"#utility.yul\":17252:17264   */\n      add\n        /* \"#utility.yul\":17245:17264   */\n      swap1\n      pop\n        /* \"#utility.yul\":16904:17270   */\n      swap2\n      swap1\n      pop\n      jump\t// out\n        /* \"#utility.yul\":17276:17695   */\n    tag_122:\n        /* \"#utility.yul\":17442:17446   */\n      0x00\n        /* \"#utility.yul\":17480:17482   */\n      0x20\n        /* \"#utility.yul\":17469:17478   */\n      dup3\n        /* \"#utility.yul\":17465:17483   */\n      add\n        /* \"#utility.yul\":17457:17483   */\n      swap1\n      pop\n        /* \"#utility.yul\":17529:17538   */\n      dup2\n        /* \"#utility.yul\":17523:17527   */\n      dup2\n        /* \"#utility.yul\":17519:17539   */\n      sub\n        /* \"#utility.yul\":17515:17516   */\n      0x00\n        /* \"#utility.yul\":17504:17513   */\n      dup4\n        /* \"#utility.yul\":17500:17517   */\n      add\n        /* \"#utility.yul\":17493:17540   */\n      mstore\n        /* \"#utility.yul\":17557:17688   */\n      tag_328\n        /* \"#utility.yul\":17683:17687   */\n      dup2\n        /* \"#utility.yul\":17557:17688   */\n      tag_174\n      jump\t// in\n    tag_328:\n        /* \"#utility.yul\":17549:17688   */\n      swap1\n      pop\n        /* \"#utility.yul\":17276:17695   */\n      swap2\n      swap1\n      pop\n      jump\t// out\n\n    auxdata: 0xa26469706673582212208ada84b47c3431ccde4d3a58bc58ddf784c559474b1a9c4c7f4b4282707dc62864736f6c634300081e0033\n}\n",
				"bytecode": {
					"linkReferences": {},
					"object": "60c060405234801561000f575f5ffd5b506040516119cd3803806119cd833981810160405281019061003191906101da565b5f73ffffffffffffffffffffffffffffffffffffffff168273ffffffffffffffffffffffffffffffffffffffff160361009f576040517f08c379a000000000000000000000000000000000000000000000000000000000815260040161009690610298565b60405180910390fd5b5f73ffffffffffffffffffffffffffffffffffffffff168173ffffffffffffffffffffffffffffffffffffffff160361010d576040517f08c379a000000000000000000000000000000000000000000000000000000000815260040161010490610326565b60405180910390fd5b8173ffffffffffffffffffffffffffffffffffffffff1660808173ffffffffffffffffffffffffffffffffffffffff16815250508073ffffffffffffffffffffffffffffffffffffffff1660a08173ffffffffffffffffffffffffffffffffffffffff16815250505050610344565b5f5ffd5b5f73ffffffffffffffffffffffffffffffffffffffff82169050919050565b5f6101a982610180565b9050919050565b6101b98161019f565b81146101c3575f5ffd5b50565b5f815190506101d4816101b0565b92915050565b5f5f604083850312156101f0576101ef61017c565b5b5f6101fd858286016101c6565b925050602061020e858286016101c6565b9150509250929050565b5f82825260208201905092915050565b7f4f7263734d61726b6574706c6163653a20696e76616c696420546f6b656e20615f8201527f6464726573730000000000000000000000000000000000000000000000000000602082015250565b5f610282602683610218565b915061028d82610228565b604082019050919050565b5f6020820190508181035f8301526102af81610276565b9050919050565b7f4f7263734d61726b6574706c6163653a20696e76616c6964204e4654206164645f8201527f7265737300000000000000000000000000000000000000000000000000000000602082015250565b5f610310602483610218565b915061031b826102b6565b604082019050919050565b5f6020820190508181035f83015261033d81610304565b9050919050565b60805160a05161163e61038f5f395f8181610126015281816104be015281816105c3015281816106780152610af601525f8181610212015281816109ee0152610ba4015261163e5ff3fe608060405234801561000f575f5ffd5b5060043610610060575f3560e01c80630d30caa914610064578063107a274a146100825780633ec6d6fa146100b257806340e58ee5146100d057806350fd7367146100ec578063d96a094a14610108575b5f5ffd5b61006c610124565b6040516100799190610df8565b60405180910390f35b61009c60048036038101906100979190610e48565b610148565b6040516100a99190610f55565b60405180910390f35b6100ba610210565b6040516100c79190610f8e565b60405180910390f35b6100ea60048036038101906100e59190610e48565b610234565b005b61010660048036038101906101019190610fa7565b610463565b005b610122600480360381019061011d9190610e48565b6108cc565b005b7f000000000000000000000000000000000000000000000000000000000000000081565b610150610d38565b5f5f5f8481526020019081526020015f206040518060600160405290815f8201548152602001600182015f9054906101000a900473ffffffffffffffffffffffffffffffffffffffff1673ffffffffffffffffffffffffffffffffffffffff1673ffffffffffffffffffffffffffffffffffffffff1681526020016001820160149054906101000a900460ff1660038111156101ef576101ee610ea2565b5b600381111561020157610200610ea2565b5b81525050905080915050919050565b7f000000000000000000000000000000000000000000000000000000000000000081565b5f5f5f8381526020019081526020015f206040518060600160405290815f8201548152602001600182015f9054906101000a900473ffffffffffffffffffffffffffffffffffffffff1673ffffffffffffffffffffffffffffffffffffffff1673ffffffffffffffffffffffffffffffffffffffff1681526020016001820160149054906101000a900460ff1660038111156102d3576102d2610ea2565b5b60038111156102e5576102e4610ea2565b5b815250509050600160038111156102ff576102fe610ea2565b5b8160400151600381111561031657610315610ea2565b5b14610356576040517f08c379a000000000000000000000000000000000000000000000000000000000815260040161034d9061103f565b60405180910390fd5b3373ffffffffffffffffffffffffffffffffffffffff16816020015173ffffffffffffffffffffffffffffffffffffffff16146103c8576040517f08c379a00000000000000000000000000000000000000000000000000000000081526004016103bf906110cd565b60405180910390fd5b5f5f8381526020019081526020015f205f5f82015f9055600182015f6101000a81549073ffffffffffffffffffffffffffffffffffffffff02191690556001820160146101000a81549060ff02191690555050813373ffffffffffffffffffffffffffffffffffffffff167f36ea5cd5608625e789af0282eecdb4eae1cb7c1cf6d0ec3f9a84f35be850260b60405160405180910390a35050565b5f81116104a5576040517f08c379a000000000000000000000000000000000000000000000000000000000815260040161049c9061115b565b60405180910390fd5b3373ffffffffffffffffffffffffffffffffffffffff167f000000000000000000000000000000000000000000000000000000000000000073ffffffffffffffffffffffffffffffffffffffff16636352211e846040518263ffffffff1660e01b81526004016105159190611188565b602060405180830381865afa158015610530573d5f5f3e3d5ffd5b505050506040513d601f19601f8201168201806040525081019061055491906111cb565b73ffffffffffffffffffffffffffffffffffffffff16146105aa576040517f08c379a00000000000000000000000000000000000000000000000000000000081526004016105a190611266565b60405180910390fd5b3073ffffffffffffffffffffffffffffffffffffffff167f000000000000000000000000000000000000000000000000000000000000000073ffffffffffffffffffffffffffffffffffffffff1663081812fc846040518263ffffffff1660e01b815260040161061a9190611188565b602060405180830381865afa158015610635573d5f5f3e3d5ffd5b505050506040513d601f19601f8201168201806040525081019061065991906111cb565b73ffffffffffffffffffffffffffffffffffffffff16148061071157507f000000000000000000000000000000000000000000000000000000000000000073ffffffffffffffffffffffffffffffffffffffff1663e985e9c533306040518363ffffffff1660e01b81526004016106d1929190611293565b602060405180830381865afa1580156106ec573d5f5f3e3d5ffd5b505050506040513d601f19601f8201168201806040525081019061071091906112ef565b5b610750576040517f08c379a00000000000000000000000000000000000000000000000000000000081526004016107479061138a565b60405180910390fd5b5f5f5f8481526020019081526020015f205f0154146107a4576040517f08c379a000000000000000000000000000000000000000000000000000000000815260040161079b906113f2565b60405180910390fd5b60405180606001604052808281526020013373ffffffffffffffffffffffffffffffffffffffff168152602001600160038111156107e5576107e4610ea2565b5b8152505f5f8481526020019081526020015f205f820151815f01556020820151816001015f6101000a81548173ffffffffffffffffffffffffffffffffffffffff021916908373ffffffffffffffffffffffffffffffffffffffff16021790555060408201518160010160146101000a81548160ff0219169083600381111561087157610870610ea2565b5b0217905550905050813373ffffffffffffffffffffffffffffffffffffffff167f6e16e8064e3c8254cef11e01e152416398602d7e8785f743f1c2f93a9a15ff35836040516108c09190611188565b60405180910390a35050565b5f5f5f8381526020019081526020015f209050600160038111156108f3576108f2610ea2565b5b8160010160149054906101000a900460ff16600381111561091757610916610ea2565b5b14610957576040517f08c379a000000000000000000000000000000000000000000000000000000000815260040161094e9061103f565b60405180910390fd5b3373ffffffffffffffffffffffffffffffffffffffff16816001015f9054906101000a900473ffffffffffffffffffffffffffffffffffffffff1673ffffffffffffffffffffffffffffffffffffffff16036109e8576040517f08c379a00000000000000000000000000000000000000000000000000000000081526004016109df90611480565b60405180910390fd5b805f01547f000000000000000000000000000000000000000000000000000000000000000073ffffffffffffffffffffffffffffffffffffffff1663dd62ed3e33306040518363ffffffff1660e01b8152600401610a47929190611293565b602060405180830381865afa158015610a62573d5f5f3e3d5ffd5b505050506040513d601f19601f82011682018060405250810190610a8691906114b2565b1015610ac7576040517f08c379a0000000000000000000000000000000000000000000000000000000008152600401610abe9061154d565b60405180910390fd5b60038160010160146101000a81548160ff02191690836003811115610aef57610aee610ea2565b5b02179055507f000000000000000000000000000000000000000000000000000000000000000073ffffffffffffffffffffffffffffffffffffffff166323b872dd826001015f9054906101000a900473ffffffffffffffffffffffffffffffffffffffff1633856040518463ffffffff1660e01b8152600401610b749392919061156b565b5f604051808303815f87803b158015610b8b575f5ffd5b505af1158015610b9d573d5f5f3e3d5ffd5b505050505f7f000000000000000000000000000000000000000000000000000000000000000073ffffffffffffffffffffffffffffffffffffffff166323b872dd33846001015f9054906101000a900473ffffffffffffffffffffffffffffffffffffffff16855f01546040518463ffffffff1660e01b8152600401610c259392919061156b565b6020604051808303815f875af1158015610c41573d5f5f3e3d5ffd5b505050506040513d601f19601f82011682018060405250810190610c6591906112ef565b905080610ca7576040517f08c379a0000000000000000000000000000000000000000000000000000000008152600401610c9e906115ea565b60405180910390fd5b82826001015f9054906101000a900473ffffffffffffffffffffffffffffffffffffffff1673ffffffffffffffffffffffffffffffffffffffff163373ffffffffffffffffffffffffffffffffffffffff167f16dd16959a056953a63cf14bf427881e762e54f03d86b864efea8238dd3b822f855f0154604051610d2b9190611188565b60405180910390a4505050565b60405180606001604052805f81526020015f73ffffffffffffffffffffffffffffffffffffffff1681526020015f6003811115610d7857610d77610ea2565b5b81525090565b5f73ffffffffffffffffffffffffffffffffffffffff82169050919050565b5f819050919050565b5f610dc0610dbb610db684610d7e565b610d9d565b610d7e565b9050919050565b5f610dd182610da6565b9050919050565b5f610de282610dc7565b9050919050565b610df281610dd8565b82525050565b5f602082019050610e0b5f830184610de9565b92915050565b5f5ffd5b5f819050919050565b610e2781610e15565b8114610e31575f5ffd5b50565b5f81359050610e4281610e1e565b92915050565b5f60208284031215610e5d57610e5c610e11565b5b5f610e6a84828501610e34565b91505092915050565b610e7c81610e15565b82525050565b5f610e8c82610d7e565b9050919050565b610e9c81610e82565b82525050565b7f4e487b71000000000000000000000000000000000000000000000000000000005f52602160045260245ffd5b60048110610ee057610edf610ea2565b5b50565b5f819050610ef082610ecf565b919050565b5f610eff82610ee3565b9050919050565b610f0f81610ef5565b82525050565b606082015f820151610f295f850182610e73565b506020820151610f3c6020850182610e93565b506040820151610f4f6040850182610f06565b50505050565b5f606082019050610f685f830184610f15565b92915050565b5f610f7882610dc7565b9050919050565b610f8881610f6e565b82525050565b5f602082019050610fa15f830184610f7f565b92915050565b5f5f60408385031215610fbd57610fbc610e11565b5b5f610fca85828601610e34565b9250506020610fdb85828601610e34565b9150509250929050565b5f82825260208201905092915050565b7f4f7263734d61726b6574706c6163653a206e6f74206c697374656400000000005f82015250565b5f611029601b83610fe5565b915061103482610ff5565b602082019050919050565b5f6020820190508181035f8301526110568161101d565b9050919050565b7f4f7263734d61726b6574706c6163653a2063616c6c6572206973206e6f7420745f8201527f68652073656c6c65720000000000000000000000000000000000000000000000602082015250565b5f6110b7602983610fe5565b91506110c28261105d565b604082019050919050565b5f6020820190508181035f8301526110e4816110ab565b9050919050565b7f4f7263734d61726b6574706c6163653a207072696365206d75737420626520675f8201527f726561746572207468616e207a65726f00000000000000000000000000000000602082015250565b5f611145603083610fe5565b9150611150826110eb565b604082019050919050565b5f6020820190508181035f83015261117281611139565b9050919050565b61118281610e15565b82525050565b5f60208201905061119b5f830184611179565b92915050565b6111aa81610e82565b81146111b4575f5ffd5b50565b5f815190506111c5816111a1565b92915050565b5f602082840312156111e0576111df610e11565b5b5f6111ed848285016111b7565b91505092915050565b7f4f7263734d61726b6574706c6163653a2063616c6c6572206973206e6f7420745f8201527f6865206f776e6572000000000000000000000000000000000000000000000000602082015250565b5f611250602883610fe5565b915061125b826111f6565b604082019050919050565b5f6020820190508181035f83015261127d81611244565b9050919050565b61128d81610e82565b82525050565b5f6040820190506112a65f830185611284565b6112b36020830184611284565b9392505050565b5f8115159050919050565b6112ce816112ba565b81146112d8575f5ffd5b50565b5f815190506112e9816112c5565b92915050565b5f6020828403121561130457611303610e11565b5b5f611311848285016112db565b91505092915050565b7f4f7263734d61726b6574706c6163653a206d61726b6574706c616365206e6f745f8201527f20617070726f7665640000000000000000000000000000000000000000000000602082015250565b5f611374602983610fe5565b915061137f8261131a565b604082019050919050565b5f6020820190508181035f8301526113a181611368565b9050919050565b7f4f7263734d61726b6574706c6163653a20616c7265616479206c6973746564005f82015250565b5f6113dc601f83610fe5565b91506113e7826113a8565b602082019050919050565b5f6020820190508181035f830152611409816113d0565b9050919050565b7f4f7263734d61726b6574706c6163653a2063616e6e6f7420627579204f776e205f8201527f4c697374696e6700000000000000000000000000000000000000000000000000602082015250565b5f61146a602783610fe5565b915061147582611410565b604082019050919050565b5f6020820190508181035f8301526114978161145e565b9050919050565b5f815190506114ac81610e1e565b92915050565b5f602082840312156114c7576114c6610e11565b5b5f6114d48482850161149e565b91505092915050565b7f4f7263734d61726b6574706c6163653a206e6f7420656e6f75676820616c6c6f5f8201527f77616e6365000000000000000000000000000000000000000000000000000000602082015250565b5f611537602583610fe5565b9150611542826114dd565b604082019050919050565b5f6020820190508181035f8301526115648161152b565b9050919050565b5f60608201905061157e5f830186611284565b61158b6020830185611284565b6115986040830184611179565b949350505050565b7f4f7263734d61726b6574706c6163653a207061796d656e74206661696c6564005f82015250565b5f6115d4601f83610fe5565b91506115df826115a0565b602082019050919050565b5f6020820190508181035f830152611601816115c8565b905091905056fea26469706673582212208ada84b47c3431ccde4d3a58bc58ddf784c559474b1a9c4c7f4b4282707dc62864736f6c634300081e0033",
					"opcodes": "PUSH1 0xC0 PUSH1 0x40 MSTORE CALLVALUE DUP1 ISZERO PUSH2 0xF JUMPI PUSH0 PUSH0 REVERT JUMPDEST POP PUSH1 0x40 MLOAD PUSH2 0x19CD CODESIZE SUB DUP1 PUSH2 0x19CD DUP4 CODECOPY DUP2 DUP2 ADD PUSH1 0x40 MSTORE DUP2 ADD SWAP1 PUSH2 0x31 SWAP2 SWAP1 PUSH2 0x1DA JUMP JUMPDEST PUSH0 PUSH20 0xFFFFFFFFFFFFFFFFFFFFFFFFFFFFFFFFFFFFFFFF AND DUP3 PUSH20 0xFFFFFFFFFFFFFFFFFFFFFFFFFFFFFFFFFFFFFFFF AND SUB PUSH2 0x9F JUMPI PUSH1 0x40 MLOAD PUSH32 0x8C379A000000000000000000000000000000000000000000000000000000000 DUP2 MSTORE PUSH1 0x4 ADD PUSH2 0x96 SWAP1 PUSH2 0x298 JUMP JUMPDEST PUSH1 0x40 MLOAD DUP1 SWAP2 SUB SWAP1 REVERT JUMPDEST PUSH0 PUSH20 0xFFFFFFFFFFFFFFFFFFFFFFFFFFFFFFFFFFFFFFFF AND DUP2 PUSH20 0xFFFFFFFFFFFFFFFFFFFFFFFFFFFFFFFFFFFFFFFF AND SUB PUSH2 0x10D JUMPI PUSH1 0x40 MLOAD PUSH32 0x8C379A000000000000000000000000000000000000000000000000000000000 DUP2 MSTORE PUSH1 0x4 ADD PUSH2 0x104 SWAP1 PUSH2 0x326 JUMP JUMPDEST PUSH1 0x40 MLOAD DUP1 SWAP2 SUB SWAP1 REVERT JUMPDEST DUP2 PUSH20 0xFFFFFFFFFFFFFFFFFFFFFFFFFFFFFFFFFFFFFFFF AND PUSH1 0x80 DUP2 PUSH20 0xFFFFFFFFFFFFFFFFFFFFFFFFFFFFFFFFFFFFFFFF AND DUP2 MSTORE POP POP DUP1 PUSH20 0xFFFFFFFFFFFFFFFFFFFFFFFFFFFFFFFFFFFFFFFF AND PUSH1 0xA0 DUP2 PUSH20 0xFFFFFFFFFFFFFFFFFFFFFFFFFFFFFFFFFFFFFFFF AND DUP2 MSTORE POP POP POP POP PUSH2 0x344 JUMP JUMPDEST PUSH0 PUSH0 REVERT JUMPDEST PUSH0 PUSH20 0xFFFFFFFFFFFFFFFFFFFFFFFFFFFFFFFFFFFFFFFF DUP3 AND SWAP1 POP SWAP2 SWAP1 POP JUMP JUMPDEST PUSH0 PUSH2 0x1A9 DUP3 PUSH2 0x180 JUMP JUMPDEST SWAP1 POP SWAP2 SWAP1 POP JUMP JUMPDEST PUSH2 0x1B9 DUP2 PUSH2 0x19F JUMP JUMPDEST DUP2 EQ PUSH2 0x1C3 JUMPI PUSH0 PUSH0 REVERT JUMPDEST POP JUMP JUMPDEST PUSH0 DUP2 MLOAD SWAP1 POP PUSH2 0x1D4 DUP2 PUSH2 0x1B0 JUMP JUMPDEST SWAP3 SWAP2 POP POP JUMP JUMPDEST PUSH0 PUSH0 PUSH1 0x40 DUP4 DUP6 SUB SLT ISZERO PUSH2 0x1F0 JUMPI PUSH2 0x1EF PUSH2 0x17C JUMP JUMPDEST JUMPDEST PUSH0 PUSH2 0x1FD DUP6 DUP3 DUP7 ADD PUSH2 0x1C6 JUMP JUMPDEST SWAP3 POP POP PUSH1 0x20 PUSH2 0x20E DUP6 DUP3 DUP7 ADD PUSH2 0x1C6 JUMP JUMPDEST SWAP2 POP POP SWAP3 POP SWAP3 SWAP1 POP JUMP JUMPDEST PUSH0 DUP3 DUP3 MSTORE PUSH1 0x20 DUP3 ADD SWAP1 POP SWAP3 SWAP2 POP POP JUMP JUMPDEST PUSH32 0x4F7263734D61726B6574706C6163653A20696E76616C696420546F6B656E2061 PUSH0 DUP3 ADD MSTORE PUSH32 0x6464726573730000000000000000000000000000000000000000000000000000 PUSH1 0x20 DUP3 ADD MSTORE POP JUMP JUMPDEST PUSH0 PUSH2 0x282 PUSH1 0x26 DUP4 PUSH2 0x218 JUMP JUMPDEST SWAP2 POP PUSH2 0x28D DUP3 PUSH2 0x228 JUMP JUMPDEST PUSH1 0x40 DUP3 ADD SWAP1 POP SWAP2 SWAP1 POP JUMP JUMPDEST PUSH0 PUSH1 0x20 DUP3 ADD SWAP1 POP DUP2 DUP2 SUB PUSH0 DUP4 ADD MSTORE PUSH2 0x2AF DUP2 PUSH2 0x276 JUMP JUMPDEST SWAP1 POP SWAP2 SWAP1 POP JUMP JUMPDEST PUSH32 0x4F7263734D61726B6574706C6163653A20696E76616C6964204E465420616464 PUSH0 DUP3 ADD MSTORE PUSH32 0x7265737300000000000000000000000000000000000000000000000000000000 PUSH1 0x20 DUP3 ADD MSTORE POP JUMP JUMPDEST PUSH0 PUSH2 0x310 PUSH1 0x24 DUP4 PUSH2 0x218 JUMP JUMPDEST SWAP2 POP PUSH2 0x31B DUP3 PUSH2 0x2B6 JUMP JUMPDEST PUSH1 0x40 DUP3 ADD SWAP1 POP SWAP2 SWAP1 POP JUMP JUMPDEST PUSH0 PUSH1 0x20 DUP3 ADD SWAP1 POP DUP2 DUP2 SUB PUSH0 DUP4 ADD MSTORE PUSH2 0x33D DUP2 PUSH2 0x304 JUMP JUMPDEST SWAP1 POP SWAP2 SWAP1 POP JUMP JUMPDEST PUSH1 0x80 MLOAD PUSH1 0xA0 MLOAD PUSH2 0x163E PUSH2 0x38F PUSH0 CODECOPY PUSH0 DUP2 DUP2 PUSH2 0x126 ADD MSTORE DUP2 DUP2 PUSH2 0x4BE ADD MSTORE DUP2 DUP2 PUSH2 0x5C3 ADD MSTORE DUP2 DUP2 PUSH2 0x678 ADD MSTORE PUSH2 0xAF6 ADD MSTORE PUSH0 DUP2 DUP2 PUSH2 0x212 ADD MSTORE DUP2 DUP2 PUSH2 0x9EE ADD MSTORE PUSH2 0xBA4 ADD MSTORE PUSH2 0x163E PUSH0 RETURN INVALID PUSH1 0x80 PUSH1 0x40 MSTORE CALLVALUE DUP1 ISZERO PUSH2 0xF JUMPI PUSH0 PUSH0 REVERT JUMPDEST POP PUSH1 0x4 CALLDATASIZE LT PUSH2 0x60 JUMPI PUSH0 CALLDATALOAD PUSH1 0xE0 SHR DUP1 PUSH4 0xD30CAA9 EQ PUSH2 0x64 JUMPI DUP1 PUSH4 0x107A274A EQ PUSH2 0x82 JUMPI DUP1 PUSH4 0x3EC6D6FA EQ PUSH2 0xB2 JUMPI DUP1 PUSH4 0x40E58EE5 EQ PUSH2 0xD0 JUMPI DUP1 PUSH4 0x50FD7367 EQ PUSH2 0xEC JUMPI DUP1 PUSH4 0xD96A094A EQ PUSH2 0x108 JUMPI JUMPDEST PUSH0 PUSH0 REVERT JUMPDEST PUSH2 0x6C PUSH2 0x124 JUMP JUMPDEST PUSH1 0x40 MLOAD PUSH2 0x79 SWAP2 SWAP1 PUSH2 0xDF8 JUMP JUMPDEST PUSH1 0x40 MLOAD DUP1 SWAP2 SUB SWAP1 RETURN JUMPDEST PUSH2 0x9C PUSH1 0x4 DUP1 CALLDATASIZE SUB DUP2 ADD SWAP1 PUSH2 0x97 SWAP2 SWAP1 PUSH2 0xE48 JUMP JUMPDEST PUSH2 0x148 JUMP JUMPDEST PUSH1 0x40 MLOAD PUSH2 0xA9 SWAP2 SWAP1 PUSH2 0xF55 JUMP JUMPDEST PUSH1 0x40 MLOAD DUP1 SWAP2 SUB SWAP1 RETURN JUMPDEST PUSH2 0xBA PUSH2 0x210 JUMP JUMPDEST PUSH1 0x40 MLOAD PUSH2 0xC7 SWAP2 SWAP1 PUSH2 0xF8E JUMP JUMPDEST PUSH1 0x40 MLOAD DUP1 SWAP2 SUB SWAP1 RETURN JUMPDEST PUSH2 0xEA PUSH1 0x4 DUP1 CALLDATASIZE SUB DUP2 ADD SWAP1 PUSH2 0xE5 SWAP2 SWAP1 PUSH2 0xE48 JUMP JUMPDEST PUSH2 0x234 JUMP JUMPDEST STOP JUMPDEST PUSH2 0x106 PUSH1 0x4 DUP1 CALLDATASIZE SUB DUP2 ADD SWAP1 PUSH2 0x101 SWAP2 SWAP1 PUSH2 0xFA7 JUMP JUMPDEST PUSH2 0x463 JUMP JUMPDEST STOP JUMPDEST PUSH2 0x122 PUSH1 0x4 DUP1 CALLDATASIZE SUB DUP2 ADD SWAP1 PUSH2 0x11D SWAP2 SWAP1 PUSH2 0xE48 JUMP JUMPDEST PUSH2 0x8CC JUMP JUMPDEST STOP JUMPDEST PUSH32 0x0 DUP2 JUMP JUMPDEST PUSH2 0x150 PUSH2 0xD38 JUMP JUMPDEST PUSH0 PUSH0 PUSH0 DUP5 DUP2 MSTORE PUSH1 0x20 ADD SWAP1 DUP2 MSTORE PUSH1 0x20 ADD PUSH0 KECCAK256 PUSH1 0x40 MLOAD DUP1 PUSH1 0x60 ADD PUSH1 0x40 MSTORE SWAP1 DUP2 PUSH0 DUP3 ADD SLOAD DUP2 MSTORE PUSH1 0x20 ADD PUSH1 0x1 DUP3 ADD PUSH0 SWAP1 SLOAD SWAP1 PUSH2 0x100 EXP SWAP1 DIV PUSH20 0xFFFFFFFFFFFFFFFFFFFFFFFFFFFFFFFFFFFFFFFF AND PUSH20 0xFFFFFFFFFFFFFFFFFFFFFFFFFFFFFFFFFFFFFFFF AND PUSH20 0xFFFFFFFFFFFFFFFFFFFFFFFFFFFFFFFFFFFFFFFF AND DUP2 MSTORE PUSH1 0x20 ADD PUSH1 0x1 DUP3 ADD PUSH1 0x14 SWAP1 SLOAD SWAP1 PUSH2 0x100 EXP SWAP1 DIV PUSH1 0xFF AND PUSH1 0x3 DUP2 GT ISZERO PUSH2 0x1EF JUMPI PUSH2 0x1EE PUSH2 0xEA2 JUMP JUMPDEST JUMPDEST PUSH1 0x3 DUP2 GT ISZERO PUSH2 0x201 JUMPI PUSH2 0x200 PUSH2 0xEA2 JUMP JUMPDEST JUMPDEST DUP2 MSTORE POP POP SWAP1 POP DUP1 SWAP2 POP POP SWAP2 SWAP1 POP JUMP JUMPDEST PUSH32 0x0 DUP2 JUMP JUMPDEST PUSH0 PUSH0 PUSH0 DUP4 DUP2 MSTORE PUSH1 0x20 ADD SWAP1 DUP2 MSTORE PUSH1 0x20 ADD PUSH0 KECCAK256 PUSH1 0x40 MLOAD DUP1 PUSH1 0x60 ADD PUSH1 0x40 MSTORE SWAP1 DUP2 PUSH0 DUP3 ADD SLOAD DUP2 MSTORE PUSH1 0x20 ADD PUSH1 0x1 DUP3 ADD PUSH0 SWAP1 SLOAD SWAP1 PUSH2 0x100 EXP SWAP1 DIV PUSH20 0xFFFFFFFFFFFFFFFFFFFFFFFFFFFFFFFFFFFFFFFF AND PUSH20 0xFFFFFFFFFFFFFFFFFFFFFFFFFFFFFFFFFFFFFFFF AND PUSH20 0xFFFFFFFFFFFFFFFFFFFFFFFFFFFFFFFFFFFFFFFF AND DUP2 MSTORE PUSH1 0x20 ADD PUSH1 0x1 DUP3 ADD PUSH1 0x14 SWAP1 SLOAD SWAP1 PUSH2 0x100 EXP SWAP1 DIV PUSH1 0xFF AND PUSH1 0x3 DUP2 GT ISZERO PUSH2 0x2D3 JUMPI PUSH2 0x2D2 PUSH2 0xEA2 JUMP JUMPDEST JUMPDEST PUSH1 0x3 DUP2 GT ISZERO PUSH2 0x2E5 JUMPI PUSH2 0x2E4 PUSH2 0xEA2 JUMP JUMPDEST JUMPDEST DUP2 MSTORE POP POP SWAP1 POP PUSH1 0x1 PUSH1 0x3 DUP2 GT ISZERO PUSH2 0x2FF JUMPI PUSH2 0x2FE PUSH2 0xEA2 JUMP JUMPDEST JUMPDEST DUP2 PUSH1 0x40 ADD MLOAD PUSH1 0x3 DUP2 GT ISZERO PUSH2 0x316 JUMPI PUSH2 0x315 PUSH2 0xEA2 JUMP JUMPDEST JUMPDEST EQ PUSH2 0x356 JUMPI PUSH1 0x40 MLOAD PUSH32 0x8C379A000000000000000000000000000000000000000000000000000000000 DUP2 MSTORE PUSH1 0x4 ADD PUSH2 0x34D SWAP1 PUSH2 0x103F JUMP JUMPDEST PUSH1 0x40 MLOAD DUP1 SWAP2 SUB SWAP1 REVERT JUMPDEST CALLER PUSH20 0xFFFFFFFFFFFFFFFFFFFFFFFFFFFFFFFFFFFFFFFF AND DUP2 PUSH1 0x20 ADD MLOAD PUSH20 0xFFFFFFFFFFFFFFFFFFFFFFFFFFFFFFFFFFFFFFFF AND EQ PUSH2 0x3C8 JUMPI PUSH1 0x40 MLOAD PUSH32 0x8C379A000000000000000000000000000000000000000000000000000000000 DUP2 MSTORE PUSH1 0x4 ADD PUSH2 0x3BF SWAP1 PUSH2 0x10CD JUMP JUMPDEST PUSH1 0x40 MLOAD DUP1 SWAP2 SUB SWAP1 REVERT JUMPDEST PUSH0 PUSH0 DUP4 DUP2 MSTORE PUSH1 0x20 ADD SWAP1 DUP2 MSTORE PUSH1 0x20 ADD PUSH0 KECCAK256 PUSH0 PUSH0 DUP3 ADD PUSH0 SWAP1 SSTORE PUSH1 0x1 DUP3 ADD PUSH0 PUSH2 0x100 EXP DUP2 SLOAD SWAP1 PUSH20 0xFFFFFFFFFFFFFFFFFFFFFFFFFFFFFFFFFFFFFFFF MUL NOT AND SWAP1 SSTORE PUSH1 0x1 DUP3 ADD PUSH1 0x14 PUSH2 0x100 EXP DUP2 SLOAD SWAP1 PUSH1 0xFF MUL NOT AND SWAP1 SSTORE POP POP DUP2 CALLER PUSH20 0xFFFFFFFFFFFFFFFFFFFFFFFFFFFFFFFFFFFFFFFF AND PUSH32 0x36EA5CD5608625E789AF0282EECDB4EAE1CB7C1CF6D0EC3F9A84F35BE850260B PUSH1 0x40 MLOAD PUSH1 0x40 MLOAD DUP1 SWAP2 SUB SWAP1 LOG3 POP POP JUMP JUMPDEST PUSH0 DUP2 GT PUSH2 0x4A5 JUMPI PUSH1 0x40 MLOAD PUSH32 0x8C379A000000000000000000000000000000000000000000000000000000000 DUP2 MSTORE PUSH1 0x4 ADD PUSH2 0x49C SWAP1 PUSH2 0x115B JUMP JUMPDEST PUSH1 0x40 MLOAD DUP1 SWAP2 SUB SWAP1 REVERT JUMPDEST CALLER PUSH20 0xFFFFFFFFFFFFFFFFFFFFFFFFFFFFFFFFFFFFFFFF AND PUSH32 0x0 PUSH20 0xFFFFFFFFFFFFFFFFFFFFFFFFFFFFFFFFFFFFFFFF AND PUSH4 0x6352211E DUP5 PUSH1 0x40 MLOAD DUP3 PUSH4 0xFFFFFFFF AND PUSH1 0xE0 SHL DUP2 MSTORE PUSH1 0x4 ADD PUSH2 0x515 SWAP2 SWAP1 PUSH2 0x1188 JUMP JUMPDEST PUSH1 0x20 PUSH1 0x40 MLOAD DUP1 DUP4 SUB DUP2 DUP7 GAS STATICCALL ISZERO DUP1 ISZERO PUSH2 0x530 JUMPI RETURNDATASIZE PUSH0 PUSH0 RETURNDATACOPY RETURNDATASIZE PUSH0 REVERT JUMPDEST POP POP POP POP PUSH1 0x40 MLOAD RETURNDATASIZE PUSH1 0x1F NOT PUSH1 0x1F DUP3 ADD AND DUP3 ADD DUP1 PUSH1 0x40 MSTORE POP DUP2 ADD SWAP1 PUSH2 0x554 SWAP2 SWAP1 PUSH2 0x11CB JUMP JUMPDEST PUSH20 0xFFFFFFFFFFFFFFFFFFFFFFFFFFFFFFFFFFFFFFFF AND EQ PUSH2 0x5AA JUMPI PUSH1 0x40 MLOAD PUSH32 0x8C379A000000000000000000000000000000000000000000000000000000000 DUP2 MSTORE PUSH1 0x4 ADD PUSH2 0x5A1 SWAP1 PUSH2 0x1266 JUMP JUMPDEST PUSH1 0x40 MLOAD DUP1 SWAP2 SUB SWAP1 REVERT JUMPDEST ADDRESS PUSH20 0xFFFFFFFFFFFFFFFFFFFFFFFFFFFFFFFFFFFFFFFF AND PUSH32 0x0 PUSH20 0xFFFFFFFFFFFFFFFFFFFFFFFFFFFFFFFFFFFFFFFF AND PUSH4 0x81812FC DUP5 PUSH1 0x40 MLOAD DUP3 PUSH4 0xFFFFFFFF AND PUSH1 0xE0 SHL DUP2 MSTORE PUSH1 0x4 ADD PUSH2 0x61A SWAP2 SWAP1 PUSH2 0x1188 JUMP JUMPDEST PUSH1 0x20 PUSH1 0x40 MLOAD DUP1 DUP4 SUB DUP2 DUP7 GAS STATICCALL ISZERO DUP1 ISZERO PUSH2 0x635 JUMPI RETURNDATASIZE PUSH0 PUSH0 RETURNDATACOPY RETURNDATASIZE PUSH0 REVERT JUMPDEST POP POP POP POP PUSH1 0x40 MLOAD RETURNDATASIZE PUSH1 0x1F NOT PUSH1 0x1F DUP3 ADD AND DUP3 ADD DUP1 PUSH1 0x40 MSTORE POP DUP2 ADD SWAP1 PUSH2 0x659 SWAP2 SWAP1 PUSH2 0x11CB JUMP JUMPDEST PUSH20 0xFFFFFFFFFFFFFFFFFFFFFFFFFFFFFFFFFFFFFFFF AND EQ DUP1 PUSH2 0x711 JUMPI POP PUSH32 0x0 PUSH20 0xFFFFFFFFFFFFFFFFFFFFFFFFFFFFFFFFFFFFFFFF AND PUSH4 0xE985E9C5 CALLER ADDRESS PUSH1 0x40 MLOAD DUP4 PUSH4 0xFFFFFFFF AND PUSH1 0xE0 SHL DUP2 MSTORE PUSH1 0x4 ADD PUSH2 0x6D1 SWAP3 SWAP2 SWAP1 PUSH2 0x1293 JUMP JUMPDEST PUSH1 0x20 PUSH1 0x40 MLOAD DUP1 DUP4 SUB DUP2 DUP7 GAS STATICCALL ISZERO DUP1 ISZERO PUSH2 0x6EC JUMPI RETURNDATASIZE PUSH0 PUSH0 RETURNDATACOPY RETURNDATASIZE PUSH0 REVERT JUMPDEST POP POP POP POP PUSH1 0x40 MLOAD RETURNDATASIZE PUSH1 0x1F NOT PUSH1 0x1F DUP3 ADD AND DUP3 ADD DUP1 PUSH1 0x40 MSTORE POP DUP2 ADD SWAP1 PUSH2 0x710 SWAP2 SWAP1 PUSH2 0x12EF JUMP JUMPDEST JUMPDEST PUSH2 0x750 JUMPI PUSH1 0x40 MLOAD PUSH32 0x8C379A000000000000000000000000000000000000000000000000000000000 DUP2 MSTORE PUSH1 0x4 ADD PUSH2 0x747 SWAP1 PUSH2 0x138A JUMP JUMPDEST PUSH1 0x40 MLOAD DUP1 SWAP2 SUB SWAP1 REVERT JUMPDEST PUSH0 PUSH0 PUSH0 DUP5 DUP2 MSTORE PUSH1 0x20 ADD SWAP1 DUP2 MSTORE PUSH1 0x20 ADD PUSH0 KECCAK256 PUSH0 ADD SLOAD EQ PUSH2 0x7A4 JUMPI PUSH1 0x40 MLOAD PUSH32 0x8C379A000000000000000000000000000000000000000000000000000000000 DUP2 MSTORE PUSH1 0x4 ADD PUSH2 0x79B SWAP1 PUSH2 0x13F2 JUMP JUMPDEST PUSH1 0x40 MLOAD DUP1 SWAP2 SUB SWAP1 REVERT JUMPDEST PUSH1 0x40 MLOAD DUP1 PUSH1 0x60 ADD PUSH1 0x40 MSTORE DUP1 DUP3 DUP2 MSTORE PUSH1 0x20 ADD CALLER PUSH20 0xFFFFFFFFFFFFFFFFFFFFFFFFFFFFFFFFFFFFFFFF AND DUP2 MSTORE PUSH1 0x20 ADD PUSH1 0x1 PUSH1 0x3 DUP2 GT ISZERO PUSH2 0x7E5 JUMPI PUSH2 0x7E4 PUSH2 0xEA2 JUMP JUMPDEST JUMPDEST DUP2 MSTORE POP PUSH0 PUSH0 DUP5 DUP2 MSTORE PUSH1 0x20 ADD SWAP1 DUP2 MSTORE PUSH1 0x20 ADD PUSH0 KECCAK256 PUSH0 DUP3 ADD MLOAD DUP2 PUSH0 ADD SSTORE PUSH1 0x20 DUP3 ADD MLOAD DUP2 PUSH1 0x1 ADD PUSH0 PUSH2 0x100 EXP DUP2 SLOAD DUP2 PUSH20 0xFFFFFFFFFFFFFFFFFFFFFFFFFFFFFFFFFFFFFFFF MUL NOT AND SWAP1 DUP4 PUSH20 0xFFFFFFFFFFFFFFFFFFFFFFFFFFFFFFFFFFFFFFFF AND MUL OR SWAP1 SSTORE POP PUSH1 0x40 DUP3 ADD MLOAD DUP2 PUSH1 0x1 ADD PUSH1 0x14 PUSH2 0x100 EXP DUP2 SLOAD DUP2 PUSH1 0xFF MUL NOT AND SWAP1 DUP4 PUSH1 0x3 DUP2 GT ISZERO PUSH2 0x871 JUMPI PUSH2 0x870 PUSH2 0xEA2 JUMP JUMPDEST JUMPDEST MUL OR SWAP1 SSTORE POP SWAP1 POP POP DUP2 CALLER PUSH20 0xFFFFFFFFFFFFFFFFFFFFFFFFFFFFFFFFFFFFFFFF AND PUSH32 0x6E16E8064E3C8254CEF11E01E152416398602D7E8785F743F1C2F93A9A15FF35 DUP4 PUSH1 0x40 MLOAD PUSH2 0x8C0 SWAP2 SWAP1 PUSH2 0x1188 JUMP JUMPDEST PUSH1 0x40 MLOAD DUP1 SWAP2 SUB SWAP1 LOG3 POP POP JUMP JUMPDEST PUSH0 PUSH0 PUSH0 DUP4 DUP2 MSTORE PUSH1 0x20 ADD SWAP1 DUP2 MSTORE PUSH1 0x20 ADD PUSH0 KECCAK256 SWAP1 POP PUSH1 0x1 PUSH1 0x3 DUP2 GT ISZERO PUSH2 0x8F3 JUMPI PUSH2 0x8F2 PUSH2 0xEA2 JUMP JUMPDEST JUMPDEST DUP2 PUSH1 0x1 ADD PUSH1 0x14 SWAP1 SLOAD SWAP1 PUSH2 0x100 EXP SWAP1 DIV PUSH1 0xFF AND PUSH1 0x3 DUP2 GT ISZERO PUSH2 0x917 JUMPI PUSH2 0x916 PUSH2 0xEA2 JUMP JUMPDEST JUMPDEST EQ PUSH2 0x957 JUMPI PUSH1 0x40 MLOAD PUSH32 0x8C379A000000000000000000000000000000000000000000000000000000000 DUP2 MSTORE PUSH1 0x4 ADD PUSH2 0x94E SWAP1 PUSH2 0x103F JUMP JUMPDEST PUSH1 0x40 MLOAD DUP1 SWAP2 SUB SWAP1 REVERT JUMPDEST CALLER PUSH20 0xFFFFFFFFFFFFFFFFFFFFFFFFFFFFFFFFFFFFFFFF AND DUP2 PUSH1 0x1 ADD PUSH0 SWAP1 SLOAD SWAP1 PUSH2 0x100 EXP SWAP1 DIV PUSH20 0xFFFFFFFFFFFFFFFFFFFFFFFFFFFFFFFFFFFFFFFF AND PUSH20 0xFFFFFFFFFFFFFFFFFFFFFFFFFFFFFFFFFFFFFFFF AND SUB PUSH2 0x9E8 JUMPI PUSH1 0x40 MLOAD PUSH32 0x8C379A000000000000000000000000000000000000000000000000000000000 DUP2 MSTORE PUSH1 0x4 ADD PUSH2 0x9DF SWAP1 PUSH2 0x1480 JUMP JUMPDEST PUSH1 0x40 MLOAD DUP1 SWAP2 SUB SWAP1 REVERT JUMPDEST DUP1 PUSH0 ADD SLOAD PUSH32 0x0 PUSH20 0xFFFFFFFFFFFFFFFFFFFFFFFFFFFFFFFFFFFFFFFF AND PUSH4 0xDD62ED3E CALLER ADDRESS PUSH1 0x40 MLOAD DUP4 PUSH4 0xFFFFFFFF AND PUSH1 0xE0 SHL DUP2 MSTORE PUSH1 0x4 ADD PUSH2 0xA47 SWAP3 SWAP2 SWAP1 PUSH2 0x1293 JUMP JUMPDEST PUSH1 0x20 PUSH1 0x40 MLOAD DUP1 DUP4 SUB DUP2 DUP7 GAS STATICCALL ISZERO DUP1 ISZERO PUSH2 0xA62 JUMPI RETURNDATASIZE PUSH0 PUSH0 RETURNDATACOPY RETURNDATASIZE PUSH0 REVERT JUMPDEST POP POP POP POP PUSH1 0x40 MLOAD RETURNDATASIZE PUSH1 0x1F NOT PUSH1 0x1F DUP3 ADD AND DUP3 ADD DUP1 PUSH1 0x40 MSTORE POP DUP2 ADD SWAP1 PUSH2 0xA86 SWAP2 SWAP1 PUSH2 0x14B2 JUMP JUMPDEST LT ISZERO PUSH2 0xAC7 JUMPI PUSH1 0x40 MLOAD PUSH32 0x8C379A000000000000000000000000000000000000000000000000000000000 DUP2 MSTORE PUSH1 0x4 ADD PUSH2 0xABE SWAP1 PUSH2 0x154D JUMP JUMPDEST PUSH1 0x40 MLOAD DUP1 SWAP2 SUB SWAP1 REVERT JUMPDEST PUSH1 0x3 DUP2 PUSH1 0x1 ADD PUSH1 0x14 PUSH2 0x100 EXP DUP2 SLOAD DUP2 PUSH1 0xFF MUL NOT AND SWAP1 DUP4 PUSH1 0x3 DUP2 GT ISZERO PUSH2 0xAEF JUMPI PUSH2 0xAEE PUSH2 0xEA2 JUMP JUMPDEST JUMPDEST MUL OR SWAP1 SSTORE POP PUSH32 0x0 PUSH20 0xFFFFFFFFFFFFFFFFFFFFFFFFFFFFFFFFFFFFFFFF AND PUSH4 0x23B872DD DUP3 PUSH1 0x1 ADD PUSH0 SWAP1 SLOAD SWAP1 PUSH2 0x100 EXP SWAP1 DIV PUSH20 0xFFFFFFFFFFFFFFFFFFFFFFFFFFFFFFFFFFFFFFFF AND CALLER DUP6 PUSH1 0x40 MLOAD DUP5 PUSH4 0xFFFFFFFF AND PUSH1 0xE0 SHL DUP2 MSTORE PUSH1 0x4 ADD PUSH2 0xB74 SWAP4 SWAP3 SWAP2 SWAP1 PUSH2 0x156B JUMP JUMPDEST PUSH0 PUSH1 0x40 MLOAD DUP1 DUP4 SUB DUP2 PUSH0 DUP8 DUP1 EXTCODESIZE ISZERO DUP1 ISZERO PUSH2 0xB8B JUMPI PUSH0 PUSH0 REVERT JUMPDEST POP GAS CALL ISZERO DUP1 ISZERO PUSH2 0xB9D JUMPI RETURNDATASIZE PUSH0 PUSH0 RETURNDATACOPY RETURNDATASIZE PUSH0 REVERT JUMPDEST POP POP POP POP PUSH0 PUSH32 0x0 PUSH20 0xFFFFFFFFFFFFFFFFFFFFFFFFFFFFFFFFFFFFFFFF AND PUSH4 0x23B872DD CALLER DUP5 PUSH1 0x1 ADD PUSH0 SWAP1 SLOAD SWAP1 PUSH2 0x100 EXP SWAP1 DIV PUSH20 0xFFFFFFFFFFFFFFFFFFFFFFFFFFFFFFFFFFFFFFFF AND DUP6 PUSH0 ADD SLOAD PUSH1 0x40 MLOAD DUP5 PUSH4 0xFFFFFFFF AND PUSH1 0xE0 SHL DUP2 MSTORE PUSH1 0x4 ADD PUSH2 0xC25 SWAP4 SWAP3 SWAP2 SWAP1 PUSH2 0x156B JUMP JUMPDEST PUSH1 0x20 PUSH1 0x40 MLOAD DUP1 DUP4 SUB DUP2 PUSH0 DUP8 GAS CALL ISZERO DUP1 ISZERO PUSH2 0xC41 JUMPI RETURNDATASIZE PUSH0 PUSH0 RETURNDATACOPY RETURNDATASIZE PUSH0 REVERT JUMPDEST POP POP POP POP PUSH1 0x40 MLOAD RETURNDATASIZE PUSH1 0x1F NOT PUSH1 0x1F DUP3 ADD AND DUP3 ADD DUP1 PUSH1 0x40 MSTORE POP DUP2 ADD SWAP1 PUSH2 0xC65 SWAP2 SWAP1 PUSH2 0x12EF JUMP JUMPDEST SWAP1 POP DUP1 PUSH2 0xCA7 JUMPI PUSH1 0x40 MLOAD PUSH32 0x8C379A000000000000000000000000000000000000000000000000000000000 DUP2 MSTORE PUSH1 0x4 ADD PUSH2 0xC9E SWAP1 PUSH2 0x15EA JUMP JUMPDEST PUSH1 0x40 MLOAD DUP1 SWAP2 SUB SWAP1 REVERT JUMPDEST DUP3 DUP3 PUSH1 0x1 ADD PUSH0 SWAP1 SLOAD SWAP1 PUSH2 0x100 EXP SWAP1 DIV PUSH20 0xFFFFFFFFFFFFFFFFFFFFFFFFFFFFFFFFFFFFFFFF AND PUSH20 0xFFFFFFFFFFFFFFFFFFFFFFFFFFFFFFFFFFFFFFFF AND CALLER PUSH20 0xFFFFFFFFFFFFFFFFFFFFFFFFFFFFFFFFFFFFFFFF AND PUSH32 0x16DD16959A056953A63CF14BF427881E762E54F03D86B864EFEA8238DD3B822F DUP6 PUSH0 ADD SLOAD PUSH1 0x40 MLOAD PUSH2 0xD2B SWAP2 SWAP1 PUSH2 0x1188 JUMP JUMPDEST PUSH1 0x40 MLOAD DUP1 SWAP2 SUB SWAP1 LOG4 POP POP POP JUMP JUMPDEST PUSH1 0x40 MLOAD DUP1 PUSH1 0x60 ADD PUSH1 0x40 MSTORE DUP1 PUSH0 DUP2 MSTORE PUSH1 0x20 ADD PUSH0 PUSH20 0xFFFFFFFFFFFFFFFFFFFFFFFFFFFFFFFFFFFFFFFF AND DUP2 MSTORE PUSH1 0x20 ADD PUSH0 PUSH1 0x3 DUP2 GT ISZERO PUSH2 0xD78 JUMPI PUSH2 0xD77 PUSH2 0xEA2 JUMP JUMPDEST JUMPDEST DUP2 MSTORE POP SWAP1 JUMP JUMPDEST PUSH0 PUSH20 0xFFFFFFFFFFFFFFFFFFFFFFFFFFFFFFFFFFFFFFFF DUP3 AND SWAP1 POP SWAP2 SWAP1 POP JUMP JUMPDEST PUSH0 DUP2 SWAP1 POP SWAP2 SWAP1 POP JUMP JUMPDEST PUSH0 PUSH2 0xDC0 PUSH2 0xDBB PUSH2 0xDB6 DUP5 PUSH2 0xD7E JUMP JUMPDEST PUSH2 0xD9D JUMP JUMPDEST PUSH2 0xD7E JUMP JUMPDEST SWAP1 POP SWAP2 SWAP1 POP JUMP JUMPDEST PUSH0 PUSH2 0xDD1 DUP3 PUSH2 0xDA6 JUMP JUMPDEST SWAP1 POP SWAP2 SWAP1 POP JUMP JUMPDEST PUSH0 PUSH2 0xDE2 DUP3 PUSH2 0xDC7 JUMP JUMPDEST SWAP1 POP SWAP2 SWAP1 POP JUMP JUMPDEST PUSH2 0xDF2 DUP2 PUSH2 0xDD8 JUMP JUMPDEST DUP3 MSTORE POP POP JUMP JUMPDEST PUSH0 PUSH1 0x20 DUP3 ADD SWAP1 POP PUSH2 0xE0B PUSH0 DUP4 ADD DUP5 PUSH2 0xDE9 JUMP JUMPDEST SWAP3 SWAP2 POP POP JUMP JUMPDEST PUSH0 PUSH0 REVERT JUMPDEST PUSH0 DUP2 SWAP1 POP SWAP2 SWAP1 POP JUMP JUMPDEST PUSH2 0xE27 DUP2 PUSH2 0xE15 JUMP JUMPDEST DUP2 EQ PUSH2 0xE31 JUMPI PUSH0 PUSH0 REVERT JUMPDEST POP JUMP JUMPDEST PUSH0 DUP2 CALLDATALOAD SWAP1 POP PUSH2 0xE42 DUP2 PUSH2 0xE1E JUMP JUMPDEST SWAP3 SWAP2 POP POP JUMP JUMPDEST PUSH0 PUSH1 0x20 DUP3 DUP5 SUB SLT ISZERO PUSH2 0xE5D JUMPI PUSH2 0xE5C PUSH2 0xE11 JUMP JUMPDEST JUMPDEST PUSH0 PUSH2 0xE6A DUP5 DUP3 DUP6 ADD PUSH2 0xE34 JUMP JUMPDEST SWAP2 POP POP SWAP3 SWAP2 POP POP JUMP JUMPDEST PUSH2 0xE7C DUP2 PUSH2 0xE15 JUMP JUMPDEST DUP3 MSTORE POP POP JUMP JUMPDEST PUSH0 PUSH2 0xE8C DUP3 PUSH2 0xD7E JUMP JUMPDEST SWAP1 POP SWAP2 SWAP1 POP JUMP JUMPDEST PUSH2 0xE9C DUP2 PUSH2 0xE82 JUMP JUMPDEST DUP3 MSTORE POP POP JUMP JUMPDEST PUSH32 0x4E487B7100000000000000000000000000000000000000000000000000000000 PUSH0 MSTORE PUSH1 0x21 PUSH1 0x4 MSTORE PUSH1 0x24 PUSH0 REVERT JUMPDEST PUSH1 0x4 DUP2 LT PUSH2 0xEE0 JUMPI PUSH2 0xEDF PUSH2 0xEA2 JUMP JUMPDEST JUMPDEST POP JUMP JUMPDEST PUSH0 DUP2 SWAP1 POP PUSH2 0xEF0 DUP3 PUSH2 0xECF JUMP JUMPDEST SWAP2 SWAP1 POP JUMP JUMPDEST PUSH0 PUSH2 0xEFF DUP3 PUSH2 0xEE3 JUMP JUMPDEST SWAP1 POP SWAP2 SWAP1 POP JUMP JUMPDEST PUSH2 0xF0F DUP2 PUSH2 0xEF5 JUMP JUMPDEST DUP3 MSTORE POP POP JUMP JUMPDEST PUSH1 0x60 DUP3 ADD PUSH0 DUP3 ADD MLOAD PUSH2 0xF29 PUSH0 DUP6 ADD DUP3 PUSH2 0xE73 JUMP JUMPDEST POP PUSH1 0x20 DUP3 ADD MLOAD PUSH2 0xF3C PUSH1 0x20 DUP6 ADD DUP3 PUSH2 0xE93 JUMP JUMPDEST POP PUSH1 0x40 DUP3 ADD MLOAD PUSH2 0xF4F PUSH1 0x40 DUP6 ADD DUP3 PUSH2 0xF06 JUMP JUMPDEST POP POP POP POP JUMP JUMPDEST PUSH0 PUSH1 0x60 DUP3 ADD SWAP1 POP PUSH2 0xF68 PUSH0 DUP4 ADD DUP5 PUSH2 0xF15 JUMP JUMPDEST SWAP3 SWAP2 POP POP JUMP JUMPDEST PUSH0 PUSH2 0xF78 DUP3 PUSH2 0xDC7 JUMP JUMPDEST SWAP1 POP SWAP2 SWAP1 POP JUMP JUMPDEST PUSH2 0xF88 DUP2 PUSH2 0xF6E JUMP JUMPDEST DUP3 MSTORE POP POP JUMP JUMPDEST PUSH0 PUSH1 0x20 DUP3 ADD SWAP1 POP PUSH2 0xFA1 PUSH0 DUP4 ADD DUP5 PUSH2 0xF7F JUMP JUMPDEST SWAP3 SWAP2 POP POP JUMP JUMPDEST PUSH0 PUSH0 PUSH1 0x40 DUP4 DUP6 SUB SLT ISZERO PUSH2 0xFBD JUMPI PUSH2 0xFBC PUSH2 0xE11 JUMP JUMPDEST JUMPDEST PUSH0 PUSH2 0xFCA DUP6 DUP3 DUP7 ADD PUSH2 0xE34 JUMP JUMPDEST SWAP3 POP POP PUSH1 0x20 PUSH2 0xFDB DUP6 DUP3 DUP7 ADD PUSH2 0xE34 JUMP JUMPDEST SWAP2 POP POP SWAP3 POP SWAP3 SWAP1 POP JUMP JUMPDEST PUSH0 DUP3 DUP3 MSTORE PUSH1 0x20 DUP3 ADD SWAP1 POP SWAP3 SWAP2 POP POP JUMP JUMPDEST PUSH32 0x4F7263734D61726B6574706C6163653A206E6F74206C69737465640000000000 PUSH0 DUP3 ADD MSTORE POP JUMP JUMPDEST PUSH0 PUSH2 0x1029 PUSH1 0x1B DUP4 PUSH2 0xFE5 JUMP JUMPDEST SWAP2 POP PUSH2 0x1034 DUP3 PUSH2 0xFF5 JUMP JUMPDEST PUSH1 0x20 DUP3 ADD SWAP1 POP SWAP2 SWAP1 POP JUMP JUMPDEST PUSH0 PUSH1 0x20 DUP3 ADD SWAP1 POP DUP2 DUP2 SUB PUSH0 DUP4 ADD MSTORE PUSH2 0x1056 DUP2 PUSH2 0x101D JUMP JUMPDEST SWAP1 POP SWAP2 SWAP1 POP JUMP JUMPDEST PUSH32 0x4F7263734D61726B6574706C6163653A2063616C6C6572206973206E6F742074 PUSH0 DUP3 ADD MSTORE PUSH32 0x68652073656C6C65720000000000000000000000000000000000000000000000 PUSH1 0x20 DUP3 ADD MSTORE POP JUMP JUMPDEST PUSH0 PUSH2 0x10B7 PUSH1 0x29 DUP4 PUSH2 0xFE5 JUMP JUMPDEST SWAP2 POP PUSH2 0x10C2 DUP3 PUSH2 0x105D JUMP JUMPDEST PUSH1 0x40 DUP3 ADD SWAP1 POP SWAP2 SWAP1 POP JUMP JUMPDEST PUSH0 PUSH1 0x20 DUP3 ADD SWAP1 POP DUP2 DUP2 SUB PUSH0 DUP4 ADD MSTORE PUSH2 0x10E4 DUP2 PUSH2 0x10AB JUMP JUMPDEST SWAP1 POP SWAP2 SWAP1 POP JUMP JUMPDEST PUSH32 0x4F7263734D61726B6574706C6163653A207072696365206D7573742062652067 PUSH0 DUP3 ADD MSTORE PUSH32 0x726561746572207468616E207A65726F00000000000000000000000000000000 PUSH1 0x20 DUP3 ADD MSTORE POP JUMP JUMPDEST PUSH0 PUSH2 0x1145 PUSH1 0x30 DUP4 PUSH2 0xFE5 JUMP JUMPDEST SWAP2 POP PUSH2 0x1150 DUP3 PUSH2 0x10EB JUMP JUMPDEST PUSH1 0x40 DUP3 ADD SWAP1 POP SWAP2 SWAP1 POP JUMP JUMPDEST PUSH0 PUSH1 0x20 DUP3 ADD SWAP1 POP DUP2 DUP2 SUB PUSH0 DUP4 ADD MSTORE PUSH2 0x1172 DUP2 PUSH2 0x1139 JUMP JUMPDEST SWAP1 POP SWAP2 SWAP1 POP JUMP JUMPDEST PUSH2 0x1182 DUP2 PUSH2 0xE15 JUMP JUMPDEST DUP3 MSTORE POP POP JUMP JUMPDEST PUSH0 PUSH1 0x20 DUP3 ADD SWAP1 POP PUSH2 0x119B PUSH0 DUP4 ADD DUP5 PUSH2 0x1179 JUMP JUMPDEST SWAP3 SWAP2 POP POP JUMP JUMPDEST PUSH2 0x11AA DUP2 PUSH2 0xE82 JUMP JUMPDEST DUP2 EQ PUSH2 0x11B4 JUMPI PUSH0 PUSH0 REVERT JUMPDEST POP JUMP JUMPDEST PUSH0 DUP2 MLOAD SWAP1 POP PUSH2 0x11C5 DUP2 PUSH2 0x11A1 JUMP JUMPDEST SWAP3 SWAP2 POP POP JUMP JUMPDEST PUSH0 PUSH1 0x20 DUP3 DUP5 SUB SLT ISZERO PUSH2 0x11E0 JUMPI PUSH2 0x11DF PUSH2 0xE11 JUMP JUMPDEST JUMPDEST PUSH0 PUSH2 0x11ED DUP5 DUP3 DUP6 ADD PUSH2 0x11B7 JUMP JUMPDEST SWAP2 POP POP SWAP3 SWAP2 POP POP JUMP JUMPDEST PUSH32 0x4F7263734D61726B6574706C6163653A2063616C6C6572206973206E6F742074 PUSH0 DUP3 ADD MSTORE PUSH32 0x6865206F776E6572000000000000000000000000000000000000000000000000 PUSH1 0x20 DUP3 ADD MSTORE POP JUMP JUMPDEST PUSH0 PUSH2 0x1250 PUSH1 0x28 DUP4 PUSH2 0xFE5 JUMP JUMPDEST SWAP2 POP PUSH2 0x125B DUP3 PUSH2 0x11F6 JUMP JUMPDEST PUSH1 0x40 DUP3 ADD SWAP1 POP SWAP2 SWAP1 POP JUMP JUMPDEST PUSH0 PUSH1 0x20 DUP3 ADD SWAP1 POP DUP2 DUP2 SUB PUSH0 DUP4 ADD MSTORE PUSH2 0x127D DUP2 PUSH2 0x1244 JUMP JUMPDEST SWAP1 POP SWAP2 SWAP1 POP JUMP JUMPDEST PUSH2 0x128D DUP2 PUSH2 0xE82 JUMP JUMPDEST DUP3 MSTORE POP POP JUMP JUMPDEST PUSH0 PUSH1 0x40 DUP3 ADD SWAP1 POP PUSH2 0x12A6 PUSH0 DUP4 ADD DUP6 PUSH2 0x1284 JUMP JUMPDEST PUSH2 0x12B3 PUSH1 0x20 DUP4 ADD DUP5 PUSH2 0x1284 JUMP JUMPDEST SWAP4 SWAP3 POP POP POP JUMP JUMPDEST PUSH0 DUP2 ISZERO ISZERO SWAP1 POP SWAP2 SWAP1 POP JUMP JUMPDEST PUSH2 0x12CE DUP2 PUSH2 0x12BA JUMP JUMPDEST DUP2 EQ PUSH2 0x12D8 JUMPI PUSH0 PUSH0 REVERT JUMPDEST POP JUMP JUMPDEST PUSH0 DUP2 MLOAD SWAP1 POP PUSH2 0x12E9 DUP2 PUSH2 0x12C5 JUMP JUMPDEST SWAP3 SWAP2 POP POP JUMP JUMPDEST PUSH0 PUSH1 0x20 DUP3 DUP5 SUB SLT ISZERO PUSH2 0x1304 JUMPI PUSH2 0x1303 PUSH2 0xE11 JUMP JUMPDEST JUMPDEST PUSH0 PUSH2 0x1311 DUP5 DUP3 DUP6 ADD PUSH2 0x12DB JUMP JUMPDEST SWAP2 POP POP SWAP3 SWAP2 POP POP JUMP JUMPDEST PUSH32 0x4F7263734D61726B6574706C6163653A206D61726B6574706C616365206E6F74 PUSH0 DUP3 ADD MSTORE PUSH32 0x20617070726F7665640000000000000000000000000000000000000000000000 PUSH1 0x20 DUP3 ADD MSTORE POP JUMP JUMPDEST PUSH0 PUSH2 0x1374 PUSH1 0x29 DUP4 PUSH2 0xFE5 JUMP JUMPDEST SWAP2 POP PUSH2 0x137F DUP3 PUSH2 0x131A JUMP JUMPDEST PUSH1 0x40 DUP3 ADD SWAP1 POP SWAP2 SWAP1 POP JUMP JUMPDEST PUSH0 PUSH1 0x20 DUP3 ADD SWAP1 POP DUP2 DUP2 SUB PUSH0 DUP4 ADD MSTORE PUSH2 0x13A1 DUP2 PUSH2 0x1368 JUMP JUMPDEST SWAP1 POP SWAP2 SWAP1 POP JUMP JUMPDEST PUSH32 0x4F7263734D61726B6574706C6163653A20616C7265616479206C697374656400 PUSH0 DUP3 ADD MSTORE POP JUMP JUMPDEST PUSH0 PUSH2 0x13DC PUSH1 0x1F DUP4 PUSH2 0xFE5 JUMP JUMPDEST SWAP2 POP PUSH2 0x13E7 DUP3 PUSH2 0x13A8 JUMP JUMPDEST PUSH1 0x20 DUP3 ADD SWAP1 POP SWAP2 SWAP1 POP JUMP JUMPDEST PUSH0 PUSH1 0x20 DUP3 ADD SWAP1 POP DUP2 DUP2 SUB PUSH0 DUP4 ADD MSTORE PUSH2 0x1409 DUP2 PUSH2 0x13D0 JUMP JUMPDEST SWAP1 POP SWAP2 SWAP1 POP JUMP JUMPDEST PUSH32 0x4F7263734D61726B6574706C6163653A2063616E6E6F7420627579204F776E20 PUSH0 DUP3 ADD MSTORE PUSH32 0x4C697374696E6700000000000000000000000000000000000000000000000000 PUSH1 0x20 DUP3 ADD MSTORE POP JUMP JUMPDEST PUSH0 PUSH2 0x146A PUSH1 0x27 DUP4 PUSH2 0xFE5 JUMP JUMPDEST SWAP2 POP PUSH2 0x1475 DUP3 PUSH2 0x1410 JUMP JUMPDEST PUSH1 0x40 DUP3 ADD SWAP1 POP SWAP2 SWAP1 POP JUMP JUMPDEST PUSH0 PUSH1 0x20 DUP3 ADD SWAP1 POP DUP2 DUP2 SUB PUSH0 DUP4 ADD MSTORE PUSH2 0x1497 DUP2 PUSH2 0x145E JUMP JUMPDEST SWAP1 POP SWAP2 SWAP1 POP JUMP JUMPDEST PUSH0 DUP2 MLOAD SWAP1 POP PUSH2 0x14AC DUP2 PUSH2 0xE1E JUMP JUMPDEST SWAP3 SWAP2 POP POP JUMP JUMPDEST PUSH0 PUSH1 0x20 DUP3 DUP5 SUB SLT ISZERO PUSH2 0x14C7 JUMPI PUSH2 0x14C6 PUSH2 0xE11 JUMP JUMPDEST JUMPDEST PUSH0 PUSH2 0x14D4 DUP5 DUP3 DUP6 ADD PUSH2 0x149E JUMP JUMPDEST SWAP2 POP POP SWAP3 SWAP2 POP POP JUMP JUMPDEST PUSH32 0x4F7263734D61726B6574706C6163653A206E6F7420656E6F75676820616C6C6F PUSH0 DUP3 ADD MSTORE PUSH32 0x77616E6365000000000000000000000000000000000000000000000000000000 PUSH1 0x20 DUP3 ADD MSTORE POP JUMP JUMPDEST PUSH0 PUSH2 0x1537 PUSH1 0x25 DUP4 PUSH2 0xFE5 JUMP JUMPDEST SWAP2 POP PUSH2 0x1542 DUP3 PUSH2 0x14DD JUMP JUMPDEST PUSH1 0x40 DUP3 ADD SWAP1 POP SWAP2 SWAP1 POP JUMP JUMPDEST PUSH0 PUSH1 0x20 DUP3 ADD SWAP1 POP DUP2 DUP2 SUB PUSH0 DUP4 ADD MSTORE PUSH2 0x1564 DUP2 PUSH2 0x152B JUMP JUMPDEST SWAP1 POP SWAP2 SWAP1 POP JUMP JUMPDEST PUSH0 PUSH1 0x60 DUP3 ADD SWAP1 POP PUSH2 0x157E PUSH0 DUP4 ADD DUP7 PUSH2 0x1284 JUMP JUMPDEST PUSH2 0x158B PUSH1 0x20 DUP4 ADD DUP6 PUSH2 0x1284 JUMP JUMPDEST PUSH2 0x1598 PUSH1 0x40 DUP4 ADD DUP5 PUSH2 0x1179 JUMP JUMPDEST SWAP5 SWAP4 POP POP POP POP JUMP JUMPDEST PUSH32 0x4F7263734D61726B6574706C6163653A207061796D656E74206661696C656400 PUSH0 DUP3 ADD MSTORE POP JUMP JUMPDEST PUSH0 PUSH2 0x15D4 PUSH1 0x1F DUP4 PUSH2 0xFE5 JUMP JUMPDEST SWAP2 POP PUSH2 0x15DF DUP3 PUSH2 0x15A0 JUMP JUMPDEST PUSH1 0x20 DUP3 ADD SWAP1 POP SWAP2 SWAP1 POP JUMP JUMPDEST PUSH0 PUSH1 0x20 DUP3 ADD SWAP1 POP DUP2 DUP2 SUB PUSH0 DUP4 ADD MSTORE PUSH2 0x1601 DUP2 PUSH2 0x15C8 JUMP JUMPDEST SWAP1 POP SWAP2 SWAP1 POP JUMP INVALID LOG2 PUSH5 0x6970667358 0x22 SLT KECCAK256 DUP11 0xDA DUP5 0xB4 PUSH29 0x3431CCDE4D3A58BC58DDF784C559474B1A9C4C7F4B4282707DC6286473 PUSH16 0x6C634300081E00330000000000000000 "
				},
				"gasEstimates": {
					"creation": {
						"codeDepositCost": "1138800",
						"executionCost": "infinite",
						"totalCost": "infinite"
					},
					"external": {
						"buy(uint256)": "infinite",
						"cancel(uint256)": "62423",
						"cyberOrcs()": "infinite",
						"getListing(uint256)": "infinite",
						"list(uint256,uint256)": "infinite",
						"orcsNFT()": "infinite"
					}
				},
				"methodIdentifiers": {
					"buy(uint256)": "d96a094a",
					"cancel(uint256)": "40e58ee5",
					"cyberOrcs()": "3ec6d6fa",
					"getListing(uint256)": "107a274a",
					"list(uint256,uint256)": "50fd7367",
					"orcsNFT()": "0d30caa9"
				}
			},
			"storageLayout": {
				"storage": [
					{
						"astId": 278,
						"contract": "contracts/OrcsMarketplace.sol:OrcsMarketplace",
						"label": "_listings",
						"offset": 0,
						"slot": "0",
						"type": "t_mapping(t_uint256,t_struct(Listing)98_storage)"
					}
				],
				"types": {
					"t_address": {
						"encoding": "inplace",
						"label": "address",
						"numberOfBytes": "20"
					},
					"t_enum(Status)90": {
						"encoding": "inplace",
						"label": "enum IOrcsMarketplace.Status",
						"numberOfBytes": "1"
					},
					"t_mapping(t_uint256,t_struct(Listing)98_storage)": {
						"encoding": "mapping",
						"key": "t_uint256",
						"label": "mapping(uint256 => struct IOrcsMarketplace.Listing)",
						"numberOfBytes": "32",
						"value": "t_struct(Listing)98_storage"
					},
					"t_struct(Listing)98_storage": {
						"encoding": "inplace",
						"label": "struct IOrcsMarketplace.Listing",
						"members": [
							{
								"astId": 92,
								"contract": "contracts/OrcsMarketplace.sol:OrcsMarketplace",
								"label": "price",
								"offset": 0,
								"slot": "0",
								"type": "t_uint256"
							},
							{
								"astId": 94,
								"contract": "contracts/OrcsMarketplace.sol:OrcsMarketplace",
								"label": "seller",
								"offset": 0,
								"slot": "1",
								"type": "t_address"
							},
							{
								"astId": 97,
								"contract": "contracts/OrcsMarketplace.sol:OrcsMarketplace",
								"label": "status",
								"offset": 20,
								"slot": "1",
								"type": "t_enum(Status)90"
							}
						],
						"numberOfBytes": "64"
					},
					"t_uint256": {
						"encoding": "inplace",
						"label": "uint256",
						"numberOfBytes": "32"
					}
				}
			},
			"userdoc": {
				"kind": "user",
				"methods": {},
				"version": 1
			}
		}
	}
}