{
	"contracts/Cyberorcs.sol": {
		"Cyberorcs": {
			"abi": [
				{
					"inputs": [
						{
							"internalType": "string",
							"name": "name_",
							"type": "string"
						},
						{
							"internalType": "string",
							"name": "symbol_",
							"type": "string"
						},
						{
							"internalType": "uint256",
							"name": "maxSupply_",
							"type": "uint256"
						},
						{
							"internalType": "address",
							"name": "treasury",
							"type": "address"
						}
					],
					"stateMutability": "nonpayable",
					"type": "constructor"
				},
				{
					"anonymous": false,
					"inputs": [
						{
							"indexed": true,
							"internalType": "address",
							"name": "owner",
							"type": "address"
						},
						{
							"indexed": true,
							"internalType": "address",
							"name": "spender",
							"type": "address"
						},
						{
							"indexed": false,
							"internalType": "uint256",
							"name": "value",
							"type": "uint256"
						}
					],
					"name": "Approval",
					"type": "event"
				},
				{
					"anonymous": false,
					"inputs": [
						{
							"indexed": true,
							"internalType": "address",
							"name": "previousOwner",
							"type": "address"
						},
						{
							"indexed": true,
							"internalType": "address",
							"name": "newOwner",
							"type": "address"
						}
					],
					"name": "OwnershipTransferred",
					"type": "event"
				},
				{
					"anonymous": false,
					"inputs": [
						{
							"indexed": true,
							"internalType": "address",
							"name": "from",
							"type": "address"
						},
						{
							"indexed": true,
							"internalType": "address",
							"name": "to",
							"type": "address"
						},
						{
							"indexed": false,
							"internalType": "uint256",
							"name": "value",
							"type": "uint256"
						}
					],
					"name": "Transfer",
					"type": "event"
				},
				{
					"inputs": [],
					"name": "MAX_SUPPLY",
					"outputs": [
						{
							"internalType": "uint256",
							"name": "",
							"type": "uint256"
						}
					],
					"stateMutability": "view",
					"type": "function"
				},
				{
					"inputs": [
						{
							"internalType": "address",
							"name": "owner",
							"type": "address"
						},
						{
							"internalType": "address",
							"name": "spender",
							"type": "address"
						}
					],
					"name": "allowance",
					"outputs": [
						{
							"internalType": "uint256",
							"name": "",
							"type": "uint256"
						}
					],
					"stateMutability": "view",
					"type": "function"
				},
				{
					"inputs": [
						{
							"internalType": "address",
							"name": "spender",
							"type": "address"
						},
						{
							"internalType": "uint256",
							"name": "value",
							"type": "uint256"
						}
					],
					"name": "approve",
					"outputs": [
						{
							"internalType": "bool",
							"name": "",
							"type": "bool"
						}
					],
					"stateMutability": "nonpayable",
					"type": "function"
				},
				{
					"inputs": [
						{
							"internalType": "address",
							"name": "owner",
							"type": "address"
						}
					],
					"name": "balanceOf",
					"outputs": [
						{
							"internalType": "uint256",
							"name": "",
							"type": "uint256"
						}
					],
					"stateMutability": "view",
					"type": "function"
				},
				{
					"inputs": [
						{
							"internalType": "uint256",
							"name": "amount",
							"type": "uint256"
						}
					],
					"name": "burn",
					"outputs": [
						{
							"internalType": "bool",
							"name": "",
							"type": "bool"
						}
					],
					"stateMutability": "nonpayable",
					"type": "function"
				},
				{
					"inputs": [],
					"name": "decimals",
					"outputs": [
						{
							"internalType": "uint8",
							"name": "",
							"type": "uint8"
						}
					],
					"stateMutability": "pure",
					"type": "function"
				},
				{
					"inputs": [
						{
							"internalType": "address",
							"name": "to",
							"type": "address"
						},
						{
							"internalType": "uint256",
							"name": "amount",
							"type": "uint256"
						}
					],
					"name": "mint",
					"outputs": [
						{
							"internalType": "bool",
							"name": "sucess",
							"type": "bool"
						}
					],
					"stateMutability": "nonpayable",
					"type": "function"
				},
				{
					"inputs": [],
					"name": "minter",
					"outputs": [
						{
							"internalType": "address",
							"name": "",
							"type": "address"
						}
					],
					"stateMutability": "view",
					"type": "function"
				},
				{
					"inputs": [],
					"name": "name",
					"outputs": [
						{
							"internalType": "string",
							"name": "",
							"type": "string"
						}
					],
					"stateMutability": "view",
					"type": "function"
				},
				{
					"inputs": [],
					"name": "owner",
					"outputs": [
						{
							"internalType": "address",
							"name": "",
							"type": "address"
						}
					],
					"stateMutability": "view",
					"type": "function"
				},
				{
					"inputs": [],
					"name": "renounceOwnership",
					"outputs": [],
					"stateMutability": "nonpayable",
					"type": "function"
				},
				{
					"inputs": [],
					"name": "symbol",
					"outputs": [
						{
							"internalType": "string",
							"name": "",
							"type": "string"
						}
					],
					"stateMutability": "view",
					"type": "function"
				},
				{
					"inputs": [],
					"name": "totalSupply",
					"outputs": [
						{
							"internalType": "uint256",
							"name": "",
							"type": "uint256"
						}
					],
					"stateMutability": "view",
					"type": "function"
				},
				{
					"inputs": [],
					"name": "totalSupplyView",
					"outputs": [
						{
							"internalType": "uint256",
							"name": "",
							"type": "uint256"
						}
					],
					"stateMutability": "view",
					"type": "function"
				},
				{
					"inputs": [
						{
							"internalType": "address",
							"name": "to",
							"type": "address"
						},
						{
							"internalType": "uint256",
							"name": "amount",
							"type": "uint256"
						}
					],
					"name": "transfer",
					"outputs": [
						{
							"internalType": "bool",
							"name": "",
							"type": "bool"
						}
					],
					"stateMutability": "nonpayable",
					"type": "function"
				},
				{
					"inputs": [
						{
							"internalType": "address",
							"name": "from",
							"type": "address"
						},
						{
							"internalType": "address",
							"name": "to",
							"type": "address"
						},
						{
							"internalType": "uint256",
							"name": "value",
							"type": "uint256"
						}
					],
					"name": "transferFrom",
					"outputs": [
						{
							"internalType": "bool",
							"name": "",
							"type": "bool"
						}
					],
					"stateMutability": "nonpayable",
					"type": "function"
				},
				{
					"inputs": [
						{
							"internalType": "address",
							"name": "_newOwner",
							"type": "address"
						}
					],
					"name": "transferOwnership",
					"outputs": [],
					"stateMutability": "nonpayable",
					"type": "function"
				}
			],
			"devdoc": {
				"events": {
					"OwnershipTransferred(address,address)": {
						"details": "This emits when ownership of a contract changes.    "
					}
				},
				"kind": "dev",
				"methods": {
					"owner()": {
						"returns": {
							"_0": "The address of the owner."
						}
					},
					"transferOwnership(address)": {
						"details": "Set _newOwner to address(0) to renounce any ownership.",
						"params": {
							"_newOwner": "The address of the new owner of the contract    "
						}
					}
				},
				"version": 1
			},
			"evm": {
				"assembly": "    /* \"contracts/Cyberorcs.sol\":149:4173  contract Cyberorcs is ICyberorcs, Ownable {... */\n  mstore(0x40, 0xa0)\n    /* \"contracts/Cyberorcs.sol\":599:1258  constructor(string memory name_, string memory symbol_, uint256 maxSupply_, address treasury) Ownable(msg.sender) {... */\n  callvalue\n  dup1\n  iszero\n  tag_1\n  jumpi\n  revert(0x00, 0x00)\ntag_1:\n  pop\n  mload(0x40)\n  sub(codesize, bytecodeSize)\n  dup1\n  bytecodeSize\n  dup4\n  codecopy\n  dup2\n  dup2\n  add\n  0x40\n  mstore\n  dup2\n  add\n  swap1\n  tag_2\n  swap2\n  swap1\n  tag_3\n  jump\t// in\ntag_2:\n    /* \"contracts/Cyberorcs.sol\":701:711  msg.sender */\n  caller\n    /* \"contracts/Ownable.sol\":406:438  transferOwnership(_initialOwner) */\n  tag_7\n    /* \"contracts/Ownable.sol\":424:437  _initialOwner */\n  dup2\n    /* \"contracts/Ownable.sol\":406:423  transferOwnership */\n  shl(0x20, tag_8)\n    /* \"contracts/Ownable.sol\":406:438  transferOwnership(_initialOwner) */\n  0x20\n  shr\n  jump\t// in\ntag_7:\n    /* \"contracts/Ownable.sol\":271:446  constructor(address _initialOwner){... */\n  pop\n    /* \"contracts/Cyberorcs.sol\":752:753  0 */\n  0x00\n    /* \"contracts/Cyberorcs.sol\":732:754  treasury != address(0) */\n  0xffffffffffffffffffffffffffffffffffffffff\n  and\n    /* \"contracts/Cyberorcs.sol\":732:740  treasury */\n  dup2\n    /* \"contracts/Cyberorcs.sol\":732:754  treasury != address(0) */\n  0xffffffffffffffffffffffffffffffffffffffff\n  and\n  sub\n    /* \"contracts/Cyberorcs.sol\":724:772  require(treasury != address(0), \"Zero treasury\") */\n  tag_10\n  jumpi\n  mload(0x40)\n  0x08c379a000000000000000000000000000000000000000000000000000000000\n  dup2\n  mstore\n  0x04\n  add\n  tag_11\n  swap1\n  tag_12\n  jump\t// in\ntag_11:\n  mload(0x40)\n  dup1\n  swap2\n  sub\n  swap1\n  revert\ntag_10:\n    /* \"contracts/Cyberorcs.sol\":790:795  name_ */\n  dup4\n    /* \"contracts/Cyberorcs.sol\":783:787  NAME */\n  0x01\n    /* \"contracts/Cyberorcs.sol\":783:795  NAME = name_ */\n  swap1\n  dup2\n  tag_13\n  swap2\n  swap1\n  tag_14\n  jump\t// in\ntag_13:\n  pop\n    /* \"contracts/Cyberorcs.sol\":815:822  symbol_ */\n  dup3\n    /* \"contracts/Cyberorcs.sol\":806:812  SYMBOL */\n  0x02\n    /* \"contracts/Cyberorcs.sol\":806:822  SYMBOL = symbol_ */\n  swap1\n  dup2\n  tag_15\n  swap2\n  swap1\n  tag_14\n  jump\t// in\ntag_15:\n  pop\n    /* \"contracts/Cyberorcs.sol\":846:856  maxSupply_ */\n  dup2\n    /* \"contracts/Cyberorcs.sol\":833:856  MAX_SUPPLY = maxSupply_ */\n  0x80\n  dup2\n  dup2\n  mstore\n  pop\n  pop\n    /* \"contracts/Cyberorcs.sol\":878:888  msg.sender */\n  caller\n    /* \"contracts/Cyberorcs.sol\":869:875  minter */\n  0x04\n  0x00\n    /* \"contracts/Cyberorcs.sol\":869:888  minter = msg.sender */\n  0x0100\n  exp\n  dup2\n  sload\n  dup2\n  0xffffffffffffffffffffffffffffffffffffffff\n  mul\n  not\n  and\n  swap1\n  dup4\n  0xffffffffffffffffffffffffffffffffffffffff\n  and\n  mul\n  or\n  swap1\n  sstore\n  pop\n    /* \"contracts/Cyberorcs.sol\":1063:1082  uint256 initialMint */\n  0x00\n    /* \"contracts/Cyberorcs.sol\":1098:1099  2 */\n  0x02\n    /* \"contracts/Cyberorcs.sol\":1085:1095  maxSupply_ */\n  dup4\n    /* \"contracts/Cyberorcs.sol\":1085:1099  maxSupply_ / 2 */\n  tag_16\n  swap2\n  swap1\n  tag_17\n  jump\t// in\ntag_16:\n    /* \"contracts/Cyberorcs.sol\":1063:1099  uint256 initialMint = maxSupply_ / 2 */\n  swap1\n  pop\n    /* \"contracts/Cyberorcs.sol\":1142:1153  initialMint */\n  dup1\n    /* \"contracts/Cyberorcs.sol\":1121:1129  _balance */\n  0x05\n    /* \"contracts/Cyberorcs.sol\":1121:1139  _balance[treasury] */\n  0x00\n    /* \"contracts/Cyberorcs.sol\":1130:1138  treasury */\n  dup5\n    /* \"contracts/Cyberorcs.sol\":1121:1139  _balance[treasury] */\n  0xffffffffffffffffffffffffffffffffffffffff\n  and\n  0xffffffffffffffffffffffffffffffffffffffff\n  and\n  dup2\n  mstore\n  0x20\n  add\n  swap1\n  dup2\n  mstore\n  0x20\n  add\n  0x00\n  keccak256\n    /* \"contracts/Cyberorcs.sol\":1121:1153  _balance[treasury] = initialMint */\n  dup2\n  swap1\n  sstore\n  pop\n    /* \"contracts/Cyberorcs.sol\":1178:1189  initialMint */\n  dup1\n    /* \"contracts/Cyberorcs.sol\":1164:1175  totalSupply */\n  0x03\n    /* \"contracts/Cyberorcs.sol\":1164:1189  totalSupply = initialMint */\n  dup2\n  swap1\n  sstore\n  pop\n    /* \"contracts/Cyberorcs.sol\":1228:1236  treasury */\n  dup2\n    /* \"contracts/Cyberorcs.sol\":1207:1250  Transfer(address(0), treasury, initialMint) */\n  0xffffffffffffffffffffffffffffffffffffffff\n  and\n    /* \"contracts/Cyberorcs.sol\":1224:1225  0 */\n  0x00\n    /* \"contracts/Cyberorcs.sol\":1207:1250  Transfer(address(0), treasury, initialMint) */\n  0xffffffffffffffffffffffffffffffffffffffff\n  and\n  0xddf252ad1be2c89b69c2b068fc378daa952ba7f163c4a11628f55a4df523b3ef\n    /* \"contracts/Cyberorcs.sol\":1238:1249  initialMint */\n  dup4\n    /* \"contracts/Cyberorcs.sol\":1207:1250  Transfer(address(0), treasury, initialMint) */\n  mload(0x40)\n  tag_18\n  swap2\n  swap1\n  tag_19\n  jump\t// in\ntag_18:\n  mload(0x40)\n  dup1\n  swap2\n  sub\n  swap1\n  log3\n    /* \"contracts/Cyberorcs.sol\":713:1258  {... */\n  pop\n    /* \"contracts/Cyberorcs.sol\":599:1258  constructor(string memory name_, string memory symbol_, uint256 maxSupply_, address treasury) Ownable(msg.sender) {... */\n  pop\n  pop\n  pop\n  pop\n    /* \"contracts/Cyberorcs.sol\":149:4173  contract Cyberorcs is ICyberorcs, Ownable {... */\n  jump(tag_20)\n    /* \"contracts/Ownable.sol\":899:1091  function transferOwnership(address _newOwner) public onlyOwner {... */\ntag_8:\n    /* \"contracts/Ownable.sol\":634:641  owner() */\n  tag_22\n    /* \"contracts/Ownable.sol\":634:639  owner */\n  shl(0x20, tag_23)\n    /* \"contracts/Ownable.sol\":634:641  owner() */\n  0x20\n  shr\n  jump\t// in\ntag_22:\n    /* \"contracts/Ownable.sol\":620:641  msg.sender == owner() */\n  0xffffffffffffffffffffffffffffffffffffffff\n  and\n    /* \"contracts/Ownable.sol\":620:630  msg.sender */\n  caller\n    /* \"contracts/Ownable.sol\":620:641  msg.sender == owner() */\n  0xffffffffffffffffffffffffffffffffffffffff\n  and\n  eq\n    /* \"contracts/Ownable.sol\":612:678  require(msg.sender == owner(), \"Ownable: Caller is not the Owner\") */\n  tag_24\n  jumpi\n  mload(0x40)\n  0x08c379a000000000000000000000000000000000000000000000000000000000\n  dup2\n  mstore\n  0x04\n  add\n  tag_25\n  swap1\n  tag_26\n  jump\t// in\ntag_25:\n  mload(0x40)\n  dup1\n  swap2\n  sub\n  swap1\n  revert\ntag_24:\n    /* \"contracts/Ownable.sol\":1002:1003  0 */\n  0x00\n    /* \"contracts/Ownable.sol\":981:1004  _newOwner != address(0) */\n  0xffffffffffffffffffffffffffffffffffffffff\n  and\n    /* \"contracts/Ownable.sol\":981:990  _newOwner */\n  dup2\n    /* \"contracts/Ownable.sol\":981:1004  _newOwner != address(0) */\n  0xffffffffffffffffffffffffffffffffffffffff\n  and\n  sub\n    /* \"contracts/Ownable.sol\":973:1043  require(_newOwner != address(0), \"Ownable: new owner is zero address\") */\n  tag_28\n  jumpi\n  mload(0x40)\n  0x08c379a000000000000000000000000000000000000000000000000000000000\n  dup2\n  mstore\n  0x04\n  add\n  tag_29\n  swap1\n  tag_30\n  jump\t// in\ntag_29:\n  mload(0x40)\n  dup1\n  swap2\n  sub\n  swap1\n  revert\ntag_28:\n    /* \"contracts/Ownable.sol\":1054:1083  _transferOwnership(_newOwner) */\n  tag_31\n    /* \"contracts/Ownable.sol\":1073:1082  _newOwner */\n  dup2\n    /* \"contracts/Ownable.sol\":1054:1072  _transferOwnership */\n  shl(0x20, tag_32)\n    /* \"contracts/Ownable.sol\":1054:1083  _transferOwnership(_newOwner) */\n  0x20\n  shr\n  jump\t// in\ntag_31:\n    /* \"contracts/Ownable.sol\":899:1091  function transferOwnership(address _newOwner) public onlyOwner {... */\n  pop\n  jump\t// out\n    /* \"contracts/Ownable.sol\":454:532  function owner() public view returns (address){... */\ntag_23:\n    /* \"contracts/Ownable.sol\":492:499  address */\n  0x00\n    /* \"contracts/Ownable.sol\":518:524  _owner */\n  0x00\n  0x00\n  swap1\n  sload\n  swap1\n  0x0100\n  exp\n  swap1\n  div\n  0xffffffffffffffffffffffffffffffffffffffff\n  and\n    /* \"contracts/Ownable.sol\":511:524  return _owner */\n  swap1\n  pop\n    /* \"contracts/Ownable.sol\":454:532  function owner() public view returns (address){... */\n  swap1\n  jump\t// out\n    /* \"contracts/Ownable.sol\":706:891  function _transferOwnership(address _newOwner) internal {... */\ntag_32:\n    /* \"contracts/Ownable.sol\":773:789  address oldOwner */\n  0x00\n    /* \"contracts/Ownable.sol\":792:798  _owner */\n  0x00\n  0x00\n  swap1\n  sload\n  swap1\n  0x0100\n  exp\n  swap1\n  div\n  0xffffffffffffffffffffffffffffffffffffffff\n  and\n    /* \"contracts/Ownable.sol\":773:798  address oldOwner = _owner */\n  swap1\n  pop\n    /* \"contracts/Ownable.sol\":818:827  _newOwner */\n  dup2\n    /* \"contracts/Ownable.sol\":809:815  _owner */\n  0x00\n  0x00\n    /* \"contracts/Ownable.sol\":809:827  _owner = _newOwner */\n  0x0100\n  exp\n  dup2\n  sload\n  dup2\n  0xffffffffffffffffffffffffffffffffffffffff\n  mul\n  not\n  and\n  swap1\n  dup4\n  0xffffffffffffffffffffffffffffffffffffffff\n  and\n  mul\n  or\n  swap1\n  sstore\n  pop\n    /* \"contracts/Ownable.sol\":873:882  _newOwner */\n  dup2\n    /* \"contracts/Ownable.sol\":843:883  OwnershipTransferred(oldOwner,_newOwner) */\n  0xffffffffffffffffffffffffffffffffffffffff\n  and\n    /* \"contracts/Ownable.sol\":864:872  oldOwner */\n  dup2\n    /* \"contracts/Ownable.sol\":843:883  OwnershipTransferred(oldOwner,_newOwner) */\n  0xffffffffffffffffffffffffffffffffffffffff\n  and\n  0x8be0079c531659141344cd1fd0a4f28419497f9722a3daafe3b4186f6b6457e0\n  mload(0x40)\n  mload(0x40)\n  dup1\n  swap2\n  sub\n  swap1\n  log3\n    /* \"contracts/Ownable.sol\":762:891  {... */\n  pop\n    /* \"contracts/Ownable.sol\":706:891  function _transferOwnership(address _newOwner) internal {... */\n  pop\n  jump\t// out\n    /* \"#utility.yul\":7:82   */\ntag_35:\n    /* \"#utility.yul\":40:46   */\n  0x00\n    /* \"#utility.yul\":73:75   */\n  0x40\n    /* \"#utility.yul\":67:76   */\n  mload\n    /* \"#utility.yul\":57:76   */\n  swap1\n  pop\n    /* \"#utility.yul\":7:82   */\n  swap1\n  jump\t// out\n    /* \"#utility.yul\":88:205   */\ntag_36:\n    /* \"#utility.yul\":197:198   */\n  0x00\n    /* \"#utility.yul\":194:195   */\n  0x00\n    /* \"#utility.yul\":187:199   */\n  revert\n    /* \"#utility.yul\":211:328   */\ntag_37:\n    /* \"#utility.yul\":320:321   */\n  0x00\n    /* \"#utility.yul\":317:318   */\n  0x00\n    /* \"#utility.yul\":310:322   */\n  revert\n    /* \"#utility.yul\":334:451   */\ntag_38:\n    /* \"#utility.yul\":443:444   */\n  0x00\n    /* \"#utility.yul\":440:441   */\n  0x00\n    /* \"#utility.yul\":433:445   */\n  revert\n    /* \"#utility.yul\":457:574   */\ntag_39:\n    /* \"#utility.yul\":566:567   */\n  0x00\n    /* \"#utility.yul\":563:564   */\n  0x00\n    /* \"#utility.yul\":556:568   */\n  revert\n    /* \"#utility.yul\":580:682   */\ntag_40:\n    /* \"#utility.yul\":621:627   */\n  0x00\n    /* \"#utility.yul\":672:674   */\n  0x1f\n    /* \"#utility.yul\":668:675   */\n  not\n    /* \"#utility.yul\":663:665   */\n  0x1f\n    /* \"#utility.yul\":656:661   */\n  dup4\n    /* \"#utility.yul\":652:666   */\n  add\n    /* \"#utility.yul\":648:676   */\n  and\n    /* \"#utility.yul\":638:676   */\n  swap1\n  pop\n    /* \"#utility.yul\":580:682   */\n  swap2\n  swap1\n  pop\n  jump\t// out\n    /* \"#utility.yul\":688:868   */\ntag_41:\n    /* \"#utility.yul\":736:813   */\n  0x4e487b7100000000000000000000000000000000000000000000000000000000\n    /* \"#utility.yul\":733:734   */\n  0x00\n    /* \"#utility.yul\":726:814   */\n  mstore\n    /* \"#utility.yul\":833:837   */\n  0x41\n    /* \"#utility.yul\":830:831   */\n  0x04\n    /* \"#utility.yul\":823:838   */\n  mstore\n    /* \"#utility.yul\":857:861   */\n  0x24\n    /* \"#utility.yul\":854:855   */\n  0x00\n    /* \"#utility.yul\":847:862   */\n  revert\n    /* \"#utility.yul\":874:1155   */\ntag_42:\n    /* \"#utility.yul\":957:984   */\n  tag_92\n    /* \"#utility.yul\":979:983   */\n  dup3\n    /* \"#utility.yul\":957:984   */\n  tag_40\n  jump\t// in\ntag_92:\n    /* \"#utility.yul\":949:955   */\n  dup2\n    /* \"#utility.yul\":945:985   */\n  add\n    /* \"#utility.yul\":1087:1093   */\n  dup2\n    /* \"#utility.yul\":1075:1085   */\n  dup2\n    /* \"#utility.yul\":1072:1094   */\n  lt\n    /* \"#utility.yul\":1051:1069   */\n  0xffffffffffffffff\n    /* \"#utility.yul\":1039:1049   */\n  dup3\n    /* \"#utility.yul\":1036:1070   */\n  gt\n    /* \"#utility.yul\":1033:1095   */\n  or\n    /* \"#utility.yul\":1030:1118   */\n  iszero\n  tag_93\n  jumpi\n    /* \"#utility.yul\":1098:1116   */\n  tag_94\n  tag_41\n  jump\t// in\ntag_94:\n    /* \"#utility.yul\":1030:1118   */\ntag_93:\n    /* \"#utility.yul\":1138:1148   */\n  dup1\n    /* \"#utility.yul\":1134:1136   */\n  0x40\n    /* \"#utility.yul\":1127:1149   */\n  mstore\n    /* \"#utility.yul\":917:1155   */\n  pop\n    /* \"#utility.yul\":874:1155   */\n  pop\n  pop\n  jump\t// out\n    /* \"#utility.yul\":1161:1290   */\ntag_43:\n    /* \"#utility.yul\":1195:1201   */\n  0x00\n    /* \"#utility.yul\":1222:1242   */\n  tag_96\n  tag_35\n  jump\t// in\ntag_96:\n    /* \"#utility.yul\":1212:1242   */\n  swap1\n  pop\n    /* \"#utility.yul\":1251:1284   */\n  tag_97\n    /* \"#utility.yul\":1279:1283   */\n  dup3\n    /* \"#utility.yul\":1271:1277   */\n  dup3\n    /* \"#utility.yul\":1251:1284   */\n  tag_42\n  jump\t// in\ntag_97:\n    /* \"#utility.yul\":1161:1290   */\n  swap2\n  swap1\n  pop\n  jump\t// out\n    /* \"#utility.yul\":1296:1604   */\ntag_44:\n    /* \"#utility.yul\":1358:1362   */\n  0x00\n    /* \"#utility.yul\":1448:1466   */\n  0xffffffffffffffff\n    /* \"#utility.yul\":1440:1446   */\n  dup3\n    /* \"#utility.yul\":1437:1467   */\n  gt\n    /* \"#utility.yul\":1434:1490   */\n  iszero\n  tag_99\n  jumpi\n    /* \"#utility.yul\":1470:1488   */\n  tag_100\n  tag_41\n  jump\t// in\ntag_100:\n    /* \"#utility.yul\":1434:1490   */\ntag_99:\n    /* \"#utility.yul\":1508:1537   */\n  tag_101\n    /* \"#utility.yul\":1530:1536   */\n  dup3\n    /* \"#utility.yul\":1508:1537   */\n  tag_40\n  jump\t// in\ntag_101:\n    /* \"#utility.yul\":1500:1537   */\n  swap1\n  pop\n    /* \"#utility.yul\":1592:1596   */\n  0x20\n    /* \"#utility.yul\":1586:1590   */\n  dup2\n    /* \"#utility.yul\":1582:1597   */\n  add\n    /* \"#utility.yul\":1574:1597   */\n  swap1\n  pop\n    /* \"#utility.yul\":1296:1604   */\n  swap2\n  swap1\n  pop\n  jump\t// out\n    /* \"#utility.yul\":1610:1749   */\ntag_45:\n    /* \"#utility.yul\":1699:1705   */\n  dup3\n    /* \"#utility.yul\":1694:1697   */\n  dup2\n    /* \"#utility.yul\":1689:1692   */\n  dup4\n    /* \"#utility.yul\":1683:1706   */\n  mcopy\n    /* \"#utility.yul\":1740:1741   */\n  0x00\n    /* \"#utility.yul\":1731:1737   */\n  dup4\n    /* \"#utility.yul\":1726:1729   */\n  dup4\n    /* \"#utility.yul\":1722:1738   */\n  add\n    /* \"#utility.yul\":1715:1742   */\n  mstore\n    /* \"#utility.yul\":1610:1749   */\n  pop\n  pop\n  pop\n  jump\t// out\n    /* \"#utility.yul\":1755:2189   */\ntag_46:\n    /* \"#utility.yul\":1844:1849   */\n  0x00\n    /* \"#utility.yul\":1869:1935   */\n  tag_104\n    /* \"#utility.yul\":1885:1934   */\n  tag_105\n    /* \"#utility.yul\":1927:1933   */\n  dup5\n    /* \"#utility.yul\":1885:1934   */\n  tag_44\n  jump\t// in\ntag_105:\n    /* \"#utility.yul\":1869:1935   */\n  tag_43\n  jump\t// in\ntag_104:\n    /* \"#utility.yul\":1860:1935   */\n  swap1\n  pop\n    /* \"#utility.yul\":1958:1964   */\n  dup3\n    /* \"#utility.yul\":1951:1956   */\n  dup2\n    /* \"#utility.yul\":1944:1965   */\n  mstore\n    /* \"#utility.yul\":1996:2000   */\n  0x20\n    /* \"#utility.yul\":1989:1994   */\n  dup2\n    /* \"#utility.yul\":1985:2001   */\n  add\n    /* \"#utility.yul\":2034:2037   */\n  dup5\n    /* \"#utility.yul\":2025:2031   */\n  dup5\n    /* \"#utility.yul\":2020:2023   */\n  dup5\n    /* \"#utility.yul\":2016:2032   */\n  add\n    /* \"#utility.yul\":2013:2038   */\n  gt\n    /* \"#utility.yul\":2010:2122   */\n  iszero\n  tag_106\n  jumpi\n    /* \"#utility.yul\":2041:2120   */\n  tag_107\n  tag_39\n  jump\t// in\ntag_107:\n    /* \"#utility.yul\":2010:2122   */\ntag_106:\n    /* \"#utility.yul\":2131:2183   */\n  tag_108\n    /* \"#utility.yul\":2176:2182   */\n  dup5\n    /* \"#utility.yul\":2171:2174   */\n  dup3\n    /* \"#utility.yul\":2166:2169   */\n  dup6\n    /* \"#utility.yul\":2131:2183   */\n  tag_45\n  jump\t// in\ntag_108:\n    /* \"#utility.yul\":1850:2189   */\n  pop\n    /* \"#utility.yul\":1755:2189   */\n  swap4\n  swap3\n  pop\n  pop\n  pop\n  jump\t// out\n    /* \"#utility.yul\":2209:2564   */\ntag_47:\n    /* \"#utility.yul\":2276:2281   */\n  0x00\n    /* \"#utility.yul\":2325:2328   */\n  dup3\n    /* \"#utility.yul\":2318:2322   */\n  0x1f\n    /* \"#utility.yul\":2310:2316   */\n  dup4\n    /* \"#utility.yul\":2306:2323   */\n  add\n    /* \"#utility.yul\":2302:2329   */\n  slt\n    /* \"#utility.yul\":2292:2414   */\n  tag_110\n  jumpi\n    /* \"#utility.yul\":2333:2412   */\n  tag_111\n  tag_38\n  jump\t// in\ntag_111:\n    /* \"#utility.yul\":2292:2414   */\ntag_110:\n    /* \"#utility.yul\":2443:2449   */\n  dup2\n    /* \"#utility.yul\":2437:2450   */\n  mload\n    /* \"#utility.yul\":2468:2558   */\n  tag_112\n    /* \"#utility.yul\":2554:2557   */\n  dup5\n    /* \"#utility.yul\":2546:2552   */\n  dup3\n    /* \"#utility.yul\":2539:2543   */\n  0x20\n    /* \"#utility.yul\":2531:2537   */\n  dup7\n    /* \"#utility.yul\":2527:2544   */\n  add\n    /* \"#utility.yul\":2468:2558   */\n  tag_46\n  jump\t// in\ntag_112:\n    /* \"#utility.yul\":2459:2558   */\n  swap2\n  pop\n    /* \"#utility.yul\":2282:2564   */\n  pop\n    /* \"#utility.yul\":2209:2564   */\n  swap3\n  swap2\n  pop\n  pop\n  jump\t// out\n    /* \"#utility.yul\":2570:2647   */\ntag_48:\n    /* \"#utility.yul\":2607:2614   */\n  0x00\n    /* \"#utility.yul\":2636:2641   */\n  dup2\n    /* \"#utility.yul\":2625:2641   */\n  swap1\n  pop\n    /* \"#utility.yul\":2570:2647   */\n  swap2\n  swap1\n  pop\n  jump\t// out\n    /* \"#utility.yul\":2653:2775   */\ntag_49:\n    /* \"#utility.yul\":2726:2750   */\n  tag_115\n    /* \"#utility.yul\":2744:2749   */\n  dup2\n    /* \"#utility.yul\":2726:2750   */\n  tag_48\n  jump\t// in\ntag_115:\n    /* \"#utility.yul\":2719:2724   */\n  dup2\n    /* \"#utility.yul\":2716:2751   */\n  eq\n    /* \"#utility.yul\":2706:2769   */\n  tag_116\n  jumpi\n    /* \"#utility.yul\":2765:2766   */\n  0x00\n    /* \"#utility.yul\":2762:2763   */\n  0x00\n    /* \"#utility.yul\":2755:2767   */\n  revert\n    /* \"#utility.yul\":2706:2769   */\ntag_116:\n    /* \"#utility.yul\":2653:2775   */\n  pop\n  jump\t// out\n    /* \"#utility.yul\":2781:2924   */\ntag_50:\n    /* \"#utility.yul\":2838:2843   */\n  0x00\n    /* \"#utility.yul\":2869:2875   */\n  dup2\n    /* \"#utility.yul\":2863:2876   */\n  mload\n    /* \"#utility.yul\":2854:2876   */\n  swap1\n  pop\n    /* \"#utility.yul\":2885:2918   */\n  tag_118\n    /* \"#utility.yul\":2912:2917   */\n  dup2\n    /* \"#utility.yul\":2885:2918   */\n  tag_49\n  jump\t// in\ntag_118:\n    /* \"#utility.yul\":2781:2924   */\n  swap3\n  swap2\n  pop\n  pop\n  jump\t// out\n    /* \"#utility.yul\":2930:3056   */\ntag_51:\n    /* \"#utility.yul\":2967:2974   */\n  0x00\n    /* \"#utility.yul\":3007:3049   */\n  0xffffffffffffffffffffffffffffffffffffffff\n    /* \"#utility.yul\":3000:3005   */\n  dup3\n    /* \"#utility.yul\":2996:3050   */\n  and\n    /* \"#utility.yul\":2985:3050   */\n  swap1\n  pop\n    /* \"#utility.yul\":2930:3056   */\n  swap2\n  swap1\n  pop\n  jump\t// out\n    /* \"#utility.yul\":3062:3158   */\ntag_52:\n    /* \"#utility.yul\":3099:3106   */\n  0x00\n    /* \"#utility.yul\":3128:3152   */\n  tag_121\n    /* \"#utility.yul\":3146:3151   */\n  dup3\n    /* \"#utility.yul\":3128:3152   */\n  tag_51\n  jump\t// in\ntag_121:\n    /* \"#utility.yul\":3117:3152   */\n  swap1\n  pop\n    /* \"#utility.yul\":3062:3158   */\n  swap2\n  swap1\n  pop\n  jump\t// out\n    /* \"#utility.yul\":3164:3286   */\ntag_53:\n    /* \"#utility.yul\":3237:3261   */\n  tag_123\n    /* \"#utility.yul\":3255:3260   */\n  dup2\n    /* \"#utility.yul\":3237:3261   */\n  tag_52\n  jump\t// in\ntag_123:\n    /* \"#utility.yul\":3230:3235   */\n  dup2\n    /* \"#utility.yul\":3227:3262   */\n  eq\n    /* \"#utility.yul\":3217:3280   */\n  tag_124\n  jumpi\n    /* \"#utility.yul\":3276:3277   */\n  0x00\n    /* \"#utility.yul\":3273:3274   */\n  0x00\n    /* \"#utility.yul\":3266:3278   */\n  revert\n    /* \"#utility.yul\":3217:3280   */\ntag_124:\n    /* \"#utility.yul\":3164:3286   */\n  pop\n  jump\t// out\n    /* \"#utility.yul\":3292:3435   */\ntag_54:\n    /* \"#utility.yul\":3349:3354   */\n  0x00\n    /* \"#utility.yul\":3380:3386   */\n  dup2\n    /* \"#utility.yul\":3374:3387   */\n  mload\n    /* \"#utility.yul\":3365:3387   */\n  swap1\n  pop\n    /* \"#utility.yul\":3396:3429   */\n  tag_126\n    /* \"#utility.yul\":3423:3428   */\n  dup2\n    /* \"#utility.yul\":3396:3429   */\n  tag_53\n  jump\t// in\ntag_126:\n    /* \"#utility.yul\":3292:3435   */\n  swap3\n  swap2\n  pop\n  pop\n  jump\t// out\n    /* \"#utility.yul\":3441:4607   */\ntag_3:\n    /* \"#utility.yul\":3558:3564   */\n  0x00\n    /* \"#utility.yul\":3566:3572   */\n  0x00\n    /* \"#utility.yul\":3574:3580   */\n  0x00\n    /* \"#utility.yul\":3582:3588   */\n  0x00\n    /* \"#utility.yul\":3631:3634   */\n  0x80\n    /* \"#utility.yul\":3619:3628   */\n  dup6\n    /* \"#utility.yul\":3610:3617   */\n  dup8\n    /* \"#utility.yul\":3606:3629   */\n  sub\n    /* \"#utility.yul\":3602:3635   */\n  slt\n    /* \"#utility.yul\":3599:3719   */\n  iszero\n  tag_128\n  jumpi\n    /* \"#utility.yul\":3638:3717   */\n  tag_129\n  tag_36\n  jump\t// in\ntag_129:\n    /* \"#utility.yul\":3599:3719   */\ntag_128:\n    /* \"#utility.yul\":3779:3780   */\n  0x00\n    /* \"#utility.yul\":3768:3777   */\n  dup6\n    /* \"#utility.yul\":3764:3781   */\n  add\n    /* \"#utility.yul\":3758:3782   */\n  mload\n    /* \"#utility.yul\":3809:3827   */\n  0xffffffffffffffff\n    /* \"#utility.yul\":3801:3807   */\n  dup2\n    /* \"#utility.yul\":3798:3828   */\n  gt\n    /* \"#utility.yul\":3795:3912   */\n  iszero\n  tag_130\n  jumpi\n    /* \"#utility.yul\":3831:3910   */\n  tag_131\n  tag_37\n  jump\t// in\ntag_131:\n    /* \"#utility.yul\":3795:3912   */\ntag_130:\n    /* \"#utility.yul\":3936:4010   */\n  tag_132\n    /* \"#utility.yul\":4002:4009   */\n  dup8\n    /* \"#utility.yul\":3993:3999   */\n  dup3\n    /* \"#utility.yul\":3982:3991   */\n  dup9\n    /* \"#utility.yul\":3978:4000   */\n  add\n    /* \"#utility.yul\":3936:4010   */\n  tag_47\n  jump\t// in\ntag_132:\n    /* \"#utility.yul\":3926:4010   */\n  swap5\n  pop\n    /* \"#utility.yul\":3729:4020   */\n  pop\n    /* \"#utility.yul\":4080:4082   */\n  0x20\n    /* \"#utility.yul\":4069:4078   */\n  dup6\n    /* \"#utility.yul\":4065:4083   */\n  add\n    /* \"#utility.yul\":4059:4084   */\n  mload\n    /* \"#utility.yul\":4111:4129   */\n  0xffffffffffffffff\n    /* \"#utility.yul\":4103:4109   */\n  dup2\n    /* \"#utility.yul\":4100:4130   */\n  gt\n    /* \"#utility.yul\":4097:4214   */\n  iszero\n  tag_133\n  jumpi\n    /* \"#utility.yul\":4133:4212   */\n  tag_134\n  tag_37\n  jump\t// in\ntag_134:\n    /* \"#utility.yul\":4097:4214   */\ntag_133:\n    /* \"#utility.yul\":4238:4312   */\n  tag_135\n    /* \"#utility.yul\":4304:4311   */\n  dup8\n    /* \"#utility.yul\":4295:4301   */\n  dup3\n    /* \"#utility.yul\":4284:4293   */\n  dup9\n    /* \"#utility.yul\":4280:4302   */\n  add\n    /* \"#utility.yul\":4238:4312   */\n  tag_47\n  jump\t// in\ntag_135:\n    /* \"#utility.yul\":4228:4312   */\n  swap4\n  pop\n    /* \"#utility.yul\":4030:4322   */\n  pop\n    /* \"#utility.yul\":4361:4363   */\n  0x40\n    /* \"#utility.yul\":4387:4451   */\n  tag_136\n    /* \"#utility.yul\":4443:4450   */\n  dup8\n    /* \"#utility.yul\":4434:4440   */\n  dup3\n    /* \"#utility.yul\":4423:4432   */\n  dup9\n    /* \"#utility.yul\":4419:4441   */\n  add\n    /* \"#utility.yul\":4387:4451   */\n  tag_50\n  jump\t// in\ntag_136:\n    /* \"#utility.yul\":4377:4451   */\n  swap3\n  pop\n    /* \"#utility.yul\":4332:4461   */\n  pop\n    /* \"#utility.yul\":4500:4502   */\n  0x60\n    /* \"#utility.yul\":4526:4590   */\n  tag_137\n    /* \"#utility.yul\":4582:4589   */\n  dup8\n    /* \"#utility.yul\":4573:4579   */\n  dup3\n    /* \"#utility.yul\":4562:4571   */\n  dup9\n    /* \"#utility.yul\":4558:4580   */\n  add\n    /* \"#utility.yul\":4526:4590   */\n  tag_54\n  jump\t// in\ntag_137:\n    /* \"#utility.yul\":4516:4590   */\n  swap2\n  pop\n    /* \"#utility.yul\":4471:4600   */\n  pop\n    /* \"#utility.yul\":3441:4607   */\n  swap3\n  swap6\n  swap2\n  swap5\n  pop\n  swap3\n  pop\n  jump\t// out\n    /* \"#utility.yul\":4613:4782   */\ntag_55:\n    /* \"#utility.yul\":4697:4708   */\n  0x00\n    /* \"#utility.yul\":4731:4737   */\n  dup3\n    /* \"#utility.yul\":4726:4729   */\n  dup3\n    /* \"#utility.yul\":4719:4738   */\n  mstore\n    /* \"#utility.yul\":4771:4775   */\n  0x20\n    /* \"#utility.yul\":4766:4769   */\n  dup3\n    /* \"#utility.yul\":4762:4776   */\n  add\n    /* \"#utility.yul\":4747:4776   */\n  swap1\n  pop\n    /* \"#utility.yul\":4613:4782   */\n  swap3\n  swap2\n  pop\n  pop\n  jump\t// out\n    /* \"#utility.yul\":4788:4951   */\ntag_56:\n    /* \"#utility.yul\":4928:4943   */\n  0x5a65726f20747265617375727900000000000000000000000000000000000000\n    /* \"#utility.yul\":4924:4925   */\n  0x00\n    /* \"#utility.yul\":4916:4922   */\n  dup3\n    /* \"#utility.yul\":4912:4926   */\n  add\n    /* \"#utility.yul\":4905:4944   */\n  mstore\n    /* \"#utility.yul\":4788:4951   */\n  pop\n  jump\t// out\n    /* \"#utility.yul\":4957:5323   */\ntag_57:\n    /* \"#utility.yul\":5099:5102   */\n  0x00\n    /* \"#utility.yul\":5120:5187   */\n  tag_141\n    /* \"#utility.yul\":5184:5186   */\n  0x0d\n    /* \"#utility.yul\":5179:5182   */\n  dup4\n    /* \"#utility.yul\":5120:5187   */\n  tag_55\n  jump\t// in\ntag_141:\n    /* \"#utility.yul\":5113:5187   */\n  swap2\n  pop\n    /* \"#utility.yul\":5196:5289   */\n  tag_142\n    /* \"#utility.yul\":5285:5288   */\n  dup3\n    /* \"#utility.yul\":5196:5289   */\n  tag_56\n  jump\t// in\ntag_142:\n    /* \"#utility.yul\":5314:5316   */\n  0x20\n    /* \"#utility.yul\":5309:5312   */\n  dup3\n    /* \"#utility.yul\":5305:5317   */\n  add\n    /* \"#utility.yul\":5298:5317   */\n  swap1\n  pop\n    /* \"#utility.yul\":4957:5323   */\n  swap2\n  swap1\n  pop\n  jump\t// out\n    /* \"#utility.yul\":5329:5748   */\ntag_12:\n    /* \"#utility.yul\":5495:5499   */\n  0x00\n    /* \"#utility.yul\":5533:5535   */\n  0x20\n    /* \"#utility.yul\":5522:5531   */\n  dup3\n    /* \"#utility.yul\":5518:5536   */\n  add\n    /* \"#utility.yul\":5510:5536   */\n  swap1\n  pop\n    /* \"#utility.yul\":5582:5591   */\n  dup2\n    /* \"#utility.yul\":5576:5580   */\n  dup2\n    /* \"#utility.yul\":5572:5592   */\n  sub\n    /* \"#utility.yul\":5568:5569   */\n  0x00\n    /* \"#utility.yul\":5557:5566   */\n  dup4\n    /* \"#utility.yul\":5553:5570   */\n  add\n    /* \"#utility.yul\":5546:5593   */\n  mstore\n    /* \"#utility.yul\":5610:5741   */\n  tag_144\n    /* \"#utility.yul\":5736:5740   */\n  dup2\n    /* \"#utility.yul\":5610:5741   */\n  tag_57\n  jump\t// in\ntag_144:\n    /* \"#utility.yul\":5602:5741   */\n  swap1\n  pop\n    /* \"#utility.yul\":5329:5748   */\n  swap2\n  swap1\n  pop\n  jump\t// out\n    /* \"#utility.yul\":5754:5853   */\ntag_58:\n    /* \"#utility.yul\":5806:5812   */\n  0x00\n    /* \"#utility.yul\":5840:5845   */\n  dup2\n    /* \"#utility.yul\":5834:5846   */\n  mload\n    /* \"#utility.yul\":5824:5846   */\n  swap1\n  pop\n    /* \"#utility.yul\":5754:5853   */\n  swap2\n  swap1\n  pop\n  jump\t// out\n    /* \"#utility.yul\":5859:6039   */\ntag_59:\n    /* \"#utility.yul\":5907:5984   */\n  0x4e487b7100000000000000000000000000000000000000000000000000000000\n    /* \"#utility.yul\":5904:5905   */\n  0x00\n    /* \"#utility.yul\":5897:5985   */\n  mstore\n    /* \"#utility.yul\":6004:6008   */\n  0x22\n    /* \"#utility.yul\":6001:6002   */\n  0x04\n    /* \"#utility.yul\":5994:6009   */\n  mstore\n    /* \"#utility.yul\":6028:6032   */\n  0x24\n    /* \"#utility.yul\":6025:6026   */\n  0x00\n    /* \"#utility.yul\":6018:6033   */\n  revert\n    /* \"#utility.yul\":6045:6365   */\ntag_60:\n    /* \"#utility.yul\":6089:6095   */\n  0x00\n    /* \"#utility.yul\":6126:6127   */\n  0x02\n    /* \"#utility.yul\":6120:6124   */\n  dup3\n    /* \"#utility.yul\":6116:6128   */\n  div\n    /* \"#utility.yul\":6106:6128   */\n  swap1\n  pop\n    /* \"#utility.yul\":6173:6174   */\n  0x01\n    /* \"#utility.yul\":6167:6171   */\n  dup3\n    /* \"#utility.yul\":6163:6175   */\n  and\n    /* \"#utility.yul\":6194:6212   */\n  dup1\n    /* \"#utility.yul\":6184:6265   */\n  tag_148\n  jumpi\n    /* \"#utility.yul\":6250:6254   */\n  0x7f\n    /* \"#utility.yul\":6242:6248   */\n  dup3\n    /* \"#utility.yul\":6238:6255   */\n  and\n    /* \"#utility.yul\":6228:6255   */\n  swap2\n  pop\n    /* \"#utility.yul\":6184:6265   */\ntag_148:\n    /* \"#utility.yul\":6312:6314   */\n  0x20\n    /* \"#utility.yul\":6304:6310   */\n  dup3\n    /* \"#utility.yul\":6301:6315   */\n  lt\n    /* \"#utility.yul\":6281:6299   */\n  dup2\n    /* \"#utility.yul\":6278:6316   */\n  sub\n    /* \"#utility.yul\":6275:6359   */\n  tag_149\n  jumpi\n    /* \"#utility.yul\":6331:6349   */\n  tag_150\n  tag_59\n  jump\t// in\ntag_150:\n    /* \"#utility.yul\":6275:6359   */\ntag_149:\n    /* \"#utility.yul\":6096:6365   */\n  pop\n    /* \"#utility.yul\":6045:6365   */\n  swap2\n  swap1\n  pop\n  jump\t// out\n    /* \"#utility.yul\":6371:6512   */\ntag_61:\n    /* \"#utility.yul\":6420:6424   */\n  0x00\n    /* \"#utility.yul\":6443:6446   */\n  dup2\n    /* \"#utility.yul\":6435:6446   */\n  swap1\n  pop\n    /* \"#utility.yul\":6466:6469   */\n  dup2\n    /* \"#utility.yul\":6463:6464   */\n  0x00\n    /* \"#utility.yul\":6456:6470   */\n  mstore\n    /* \"#utility.yul\":6500:6504   */\n  0x20\n    /* \"#utility.yul\":6497:6498   */\n  0x00\n    /* \"#utility.yul\":6487:6505   */\n  keccak256\n    /* \"#utility.yul\":6479:6505   */\n  swap1\n  pop\n    /* \"#utility.yul\":6371:6512   */\n  swap2\n  swap1\n  pop\n  jump\t// out\n    /* \"#utility.yul\":6518:6611   */\ntag_62:\n    /* \"#utility.yul\":6555:6561   */\n  0x00\n    /* \"#utility.yul\":6602:6604   */\n  0x20\n    /* \"#utility.yul\":6597:6599   */\n  0x1f\n    /* \"#utility.yul\":6590:6595   */\n  dup4\n    /* \"#utility.yul\":6586:6600   */\n  add\n    /* \"#utility.yul\":6582:6605   */\n  div\n    /* \"#utility.yul\":6572:6605   */\n  swap1\n  pop\n    /* \"#utility.yul\":6518:6611   */\n  swap2\n  swap1\n  pop\n  jump\t// out\n    /* \"#utility.yul\":6617:6724   */\ntag_63:\n    /* \"#utility.yul\":6661:6669   */\n  0x00\n    /* \"#utility.yul\":6711:6716   */\n  dup3\n    /* \"#utility.yul\":6705:6709   */\n  dup3\n    /* \"#utility.yul\":6701:6717   */\n  shl\n    /* \"#utility.yul\":6680:6717   */\n  swap1\n  pop\n    /* \"#utility.yul\":6617:6724   */\n  swap3\n  swap2\n  pop\n  pop\n  jump\t// out\n    /* \"#utility.yul\":6730:7123   */\ntag_64:\n    /* \"#utility.yul\":6799:6805   */\n  0x00\n    /* \"#utility.yul\":6849:6850   */\n  0x08\n    /* \"#utility.yul\":6837:6847   */\n  dup4\n    /* \"#utility.yul\":6833:6851   */\n  mul\n    /* \"#utility.yul\":6872:6969   */\n  tag_155\n    /* \"#utility.yul\":6902:6968   */\n  0xffffffffffffffffffffffffffffffffffffffffffffffffffffffffffffffff\n    /* \"#utility.yul\":6891:6900   */\n  dup3\n    /* \"#utility.yul\":6872:6969   */\n  tag_63\n  jump\t// in\ntag_155:\n    /* \"#utility.yul\":6990:7029   */\n  tag_156\n    /* \"#utility.yul\":7020:7028   */\n  dup7\n    /* \"#utility.yul\":7009:7018   */\n  dup4\n    /* \"#utility.yul\":6990:7029   */\n  tag_63\n  jump\t// in\ntag_156:\n    /* \"#utility.yul\":6978:7029   */\n  swap6\n  pop\n    /* \"#utility.yul\":7062:7066   */\n  dup1\n    /* \"#utility.yul\":7058:7067   */\n  not\n    /* \"#utility.yul\":7051:7056   */\n  dup5\n    /* \"#utility.yul\":7047:7068   */\n  and\n    /* \"#utility.yul\":7038:7068   */\n  swap4\n  pop\n    /* \"#utility.yul\":7111:7115   */\n  dup1\n    /* \"#utility.yul\":7101:7109   */\n  dup7\n    /* \"#utility.yul\":7097:7116   */\n  and\n    /* \"#utility.yul\":7090:7095   */\n  dup5\n    /* \"#utility.yul\":7087:7117   */\n  or\n    /* \"#utility.yul\":7077:7117   */\n  swap3\n  pop\n    /* \"#utility.yul\":6806:7123   */\n  pop\n  pop\n    /* \"#utility.yul\":6730:7123   */\n  swap4\n  swap3\n  pop\n  pop\n  pop\n  jump\t// out\n    /* \"#utility.yul\":7129:7189   */\ntag_65:\n    /* \"#utility.yul\":7157:7160   */\n  0x00\n    /* \"#utility.yul\":7178:7183   */\n  dup2\n    /* \"#utility.yul\":7171:7183   */\n  swap1\n  pop\n    /* \"#utility.yul\":7129:7189   */\n  swap2\n  swap1\n  pop\n  jump\t// out\n    /* \"#utility.yul\":7195:7337   */\ntag_66:\n    /* \"#utility.yul\":7245:7254   */\n  0x00\n    /* \"#utility.yul\":7278:7331   */\n  tag_159\n    /* \"#utility.yul\":7296:7330   */\n  tag_160\n    /* \"#utility.yul\":7305:7329   */\n  tag_161\n    /* \"#utility.yul\":7323:7328   */\n  dup5\n    /* \"#utility.yul\":7305:7329   */\n  tag_48\n  jump\t// in\ntag_161:\n    /* \"#utility.yul\":7296:7330   */\n  tag_65\n  jump\t// in\ntag_160:\n    /* \"#utility.yul\":7278:7331   */\n  tag_48\n  jump\t// in\ntag_159:\n    /* \"#utility.yul\":7265:7331   */\n  swap1\n  pop\n    /* \"#utility.yul\":7195:7337   */\n  swap2\n  swap1\n  pop\n  jump\t// out\n    /* \"#utility.yul\":7343:7418   */\ntag_67:\n    /* \"#utility.yul\":7386:7389   */\n  0x00\n    /* \"#utility.yul\":7407:7412   */\n  dup2\n    /* \"#utility.yul\":7400:7412   */\n  swap1\n  pop\n    /* \"#utility.yul\":7343:7418   */\n  swap2\n  swap1\n  pop\n  jump\t// out\n    /* \"#utility.yul\":7424:7693   */\ntag_68:\n    /* \"#utility.yul\":7534:7573   */\n  tag_164\n    /* \"#utility.yul\":7565:7572   */\n  dup4\n    /* \"#utility.yul\":7534:7573   */\n  tag_66\n  jump\t// in\ntag_164:\n    /* \"#utility.yul\":7595:7686   */\n  tag_165\n    /* \"#utility.yul\":7644:7685   */\n  tag_166\n    /* \"#utility.yul\":7668:7684   */\n  dup3\n    /* \"#utility.yul\":7644:7685   */\n  tag_67\n  jump\t// in\ntag_166:\n    /* \"#utility.yul\":7636:7642   */\n  dup5\n    /* \"#utility.yul\":7629:7633   */\n  dup5\n    /* \"#utility.yul\":7623:7634   */\n  sload\n    /* \"#utility.yul\":7595:7686   */\n  tag_64\n  jump\t// in\ntag_165:\n    /* \"#utility.yul\":7589:7593   */\n  dup3\n    /* \"#utility.yul\":7582:7687   */\n  sstore\n    /* \"#utility.yul\":7500:7693   */\n  pop\n    /* \"#utility.yul\":7424:7693   */\n  pop\n  pop\n  pop\n  jump\t// out\n    /* \"#utility.yul\":7699:7772   */\ntag_69:\n    /* \"#utility.yul\":7744:7747   */\n  0x00\n    /* \"#utility.yul\":7765:7766   */\n  0x00\n    /* \"#utility.yul\":7758:7766   */\n  swap1\n  pop\n    /* \"#utility.yul\":7699:7772   */\n  swap1\n  jump\t// out\n    /* \"#utility.yul\":7778:7967   */\ntag_70:\n    /* \"#utility.yul\":7855:7887   */\n  tag_169\n  tag_69\n  jump\t// in\ntag_169:\n    /* \"#utility.yul\":7896:7961   */\n  tag_170\n    /* \"#utility.yul\":7954:7960   */\n  dup2\n    /* \"#utility.yul\":7946:7952   */\n  dup5\n    /* \"#utility.yul\":7940:7944   */\n  dup5\n    /* \"#utility.yul\":7896:7961   */\n  tag_68\n  jump\t// in\ntag_170:\n    /* \"#utility.yul\":7831:7967   */\n  pop\n    /* \"#utility.yul\":7778:7967   */\n  pop\n  pop\n  jump\t// out\n    /* \"#utility.yul\":7973:8159   */\ntag_71:\n    /* \"#utility.yul\":8033:8153   */\ntag_172:\n    /* \"#utility.yul\":8050:8053   */\n  dup2\n    /* \"#utility.yul\":8043:8048   */\n  dup2\n    /* \"#utility.yul\":8040:8054   */\n  lt\n    /* \"#utility.yul\":8033:8153   */\n  iszero\n  tag_174\n  jumpi\n    /* \"#utility.yul\":8104:8143   */\n  tag_175\n    /* \"#utility.yul\":8141:8142   */\n  0x00\n    /* \"#utility.yul\":8134:8139   */\n  dup3\n    /* \"#utility.yul\":8104:8143   */\n  tag_70\n  jump\t// in\ntag_175:\n    /* \"#utility.yul\":8077:8078   */\n  0x01\n    /* \"#utility.yul\":8070:8075   */\n  dup2\n    /* \"#utility.yul\":8066:8079   */\n  add\n    /* \"#utility.yul\":8057:8079   */\n  swap1\n  pop\n    /* \"#utility.yul\":8033:8153   */\n  jump(tag_172)\ntag_174:\n    /* \"#utility.yul\":7973:8159   */\n  pop\n  pop\n  jump\t// out\n    /* \"#utility.yul\":8165:8708   */\ntag_72:\n    /* \"#utility.yul\":8266:8268   */\n  0x1f\n    /* \"#utility.yul\":8261:8264   */\n  dup3\n    /* \"#utility.yul\":8258:8269   */\n  gt\n    /* \"#utility.yul\":8255:8701   */\n  iszero\n  tag_177\n  jumpi\n    /* \"#utility.yul\":8300:8338   */\n  tag_178\n    /* \"#utility.yul\":8332:8337   */\n  dup2\n    /* \"#utility.yul\":8300:8338   */\n  tag_61\n  jump\t// in\ntag_178:\n    /* \"#utility.yul\":8384:8413   */\n  tag_179\n    /* \"#utility.yul\":8402:8412   */\n  dup5\n    /* \"#utility.yul\":8384:8413   */\n  tag_62\n  jump\t// in\ntag_179:\n    /* \"#utility.yul\":8374:8382   */\n  dup2\n    /* \"#utility.yul\":8370:8414   */\n  add\n    /* \"#utility.yul\":8567:8569   */\n  0x20\n    /* \"#utility.yul\":8555:8565   */\n  dup6\n    /* \"#utility.yul\":8552:8570   */\n  lt\n    /* \"#utility.yul\":8549:8598   */\n  iszero\n  tag_180\n  jumpi\n    /* \"#utility.yul\":8588:8596   */\n  dup2\n    /* \"#utility.yul\":8573:8596   */\n  swap1\n  pop\n    /* \"#utility.yul\":8549:8598   */\ntag_180:\n    /* \"#utility.yul\":8611:8691   */\n  tag_181\n    /* \"#utility.yul\":8667:8689   */\n  tag_182\n    /* \"#utility.yul\":8685:8688   */\n  dup6\n    /* \"#utility.yul\":8667:8689   */\n  tag_62\n  jump\t// in\ntag_182:\n    /* \"#utility.yul\":8657:8665   */\n  dup4\n    /* \"#utility.yul\":8653:8690   */\n  add\n    /* \"#utility.yul\":8640:8651   */\n  dup3\n    /* \"#utility.yul\":8611:8691   */\n  tag_71\n  jump\t// in\ntag_181:\n    /* \"#utility.yul\":8270:8701   */\n  pop\n  pop\n    /* \"#utility.yul\":8255:8701   */\ntag_177:\n    /* \"#utility.yul\":8165:8708   */\n  pop\n  pop\n  pop\n  jump\t// out\n    /* \"#utility.yul\":8714:8831   */\ntag_73:\n    /* \"#utility.yul\":8768:8776   */\n  0x00\n    /* \"#utility.yul\":8818:8823   */\n  dup3\n    /* \"#utility.yul\":8812:8816   */\n  dup3\n    /* \"#utility.yul\":8808:8824   */\n  shr\n    /* \"#utility.yul\":8787:8824   */\n  swap1\n  pop\n    /* \"#utility.yul\":8714:8831   */\n  swap3\n  swap2\n  pop\n  pop\n  jump\t// out\n    /* \"#utility.yul\":8837:9006   */\ntag_74:\n    /* \"#utility.yul\":8881:8887   */\n  0x00\n    /* \"#utility.yul\":8914:8965   */\n  tag_185\n    /* \"#utility.yul\":8962:8963   */\n  0x00\n    /* \"#utility.yul\":8958:8964   */\n  not\n    /* \"#utility.yul\":8950:8955   */\n  dup5\n    /* \"#utility.yul\":8947:8948   */\n  0x08\n    /* \"#utility.yul\":8943:8956   */\n  mul\n    /* \"#utility.yul\":8914:8965   */\n  tag_73\n  jump\t// in\ntag_185:\n    /* \"#utility.yul\":8910:8966   */\n  not\n    /* \"#utility.yul\":8995:8999   */\n  dup1\n    /* \"#utility.yul\":8989:8993   */\n  dup4\n    /* \"#utility.yul\":8985:9000   */\n  and\n    /* \"#utility.yul\":8975:9000   */\n  swap2\n  pop\n    /* \"#utility.yul\":8888:9006   */\n  pop\n    /* \"#utility.yul\":8837:9006   */\n  swap3\n  swap2\n  pop\n  pop\n  jump\t// out\n    /* \"#utility.yul\":9011:9306   */\ntag_75:\n    /* \"#utility.yul\":9087:9091   */\n  0x00\n    /* \"#utility.yul\":9233:9262   */\n  tag_187\n    /* \"#utility.yul\":9258:9261   */\n  dup4\n    /* \"#utility.yul\":9252:9256   */\n  dup4\n    /* \"#utility.yul\":9233:9262   */\n  tag_74\n  jump\t// in\ntag_187:\n    /* \"#utility.yul\":9225:9262   */\n  swap2\n  pop\n    /* \"#utility.yul\":9295:9298   */\n  dup3\n    /* \"#utility.yul\":9292:9293   */\n  0x02\n    /* \"#utility.yul\":9288:9299   */\n  mul\n    /* \"#utility.yul\":9282:9286   */\n  dup3\n    /* \"#utility.yul\":9279:9300   */\n  or\n    /* \"#utility.yul\":9271:9300   */\n  swap1\n  pop\n    /* \"#utility.yul\":9011:9306   */\n  swap3\n  swap2\n  pop\n  pop\n  jump\t// out\n    /* \"#utility.yul\":9311:10706   */\ntag_14:\n    /* \"#utility.yul\":9428:9465   */\n  tag_189\n    /* \"#utility.yul\":9461:9464   */\n  dup3\n    /* \"#utility.yul\":9428:9465   */\n  tag_58\n  jump\t// in\ntag_189:\n    /* \"#utility.yul\":9530:9548   */\n  0xffffffffffffffff\n    /* \"#utility.yul\":9522:9528   */\n  dup2\n    /* \"#utility.yul\":9519:9549   */\n  gt\n    /* \"#utility.yul\":9516:9572   */\n  iszero\n  tag_190\n  jumpi\n    /* \"#utility.yul\":9552:9570   */\n  tag_191\n  tag_41\n  jump\t// in\ntag_191:\n    /* \"#utility.yul\":9516:9572   */\ntag_190:\n    /* \"#utility.yul\":9596:9634   */\n  tag_192\n    /* \"#utility.yul\":9628:9632   */\n  dup3\n    /* \"#utility.yul\":9622:9633   */\n  sload\n    /* \"#utility.yul\":9596:9634   */\n  tag_60\n  jump\t// in\ntag_192:\n    /* \"#utility.yul\":9681:9748   */\n  tag_193\n    /* \"#utility.yul\":9741:9747   */\n  dup3\n    /* \"#utility.yul\":9733:9739   */\n  dup3\n    /* \"#utility.yul\":9727:9731   */\n  dup6\n    /* \"#utility.yul\":9681:9748   */\n  tag_72\n  jump\t// in\ntag_193:\n    /* \"#utility.yul\":9775:9776   */\n  0x00\n    /* \"#utility.yul\":9799:9803   */\n  0x20\n    /* \"#utility.yul\":9786:9803   */\n  swap1\n  pop\n    /* \"#utility.yul\":9831:9833   */\n  0x1f\n    /* \"#utility.yul\":9823:9829   */\n  dup4\n    /* \"#utility.yul\":9820:9834   */\n  gt\n    /* \"#utility.yul\":9848:9849   */\n  0x01\n    /* \"#utility.yul\":9843:10461   */\n  dup2\n  eq\n  tag_195\n  jumpi\n    /* \"#utility.yul\":10505:10506   */\n  0x00\n    /* \"#utility.yul\":10522:10528   */\n  dup5\n    /* \"#utility.yul\":10519:10596   */\n  iszero\n  tag_196\n  jumpi\n    /* \"#utility.yul\":10571:10580   */\n  dup3\n    /* \"#utility.yul\":10566:10569   */\n  dup8\n    /* \"#utility.yul\":10562:10581   */\n  add\n    /* \"#utility.yul\":10556:10582   */\n  mload\n    /* \"#utility.yul\":10547:10582   */\n  swap1\n  pop\n    /* \"#utility.yul\":10519:10596   */\ntag_196:\n    /* \"#utility.yul\":10622:10689   */\n  tag_197\n    /* \"#utility.yul\":10682:10688   */\n  dup6\n    /* \"#utility.yul\":10675:10680   */\n  dup3\n    /* \"#utility.yul\":10622:10689   */\n  tag_75\n  jump\t// in\ntag_197:\n    /* \"#utility.yul\":10616:10620   */\n  dup7\n    /* \"#utility.yul\":10609:10690   */\n  sstore\n    /* \"#utility.yul\":10478:10700   */\n  pop\n    /* \"#utility.yul\":9813:10700   */\n  jump(tag_194)\n    /* \"#utility.yul\":9843:10461   */\ntag_195:\n    /* \"#utility.yul\":9895:9899   */\n  0x1f\n    /* \"#utility.yul\":9891:9900   */\n  not\n    /* \"#utility.yul\":9883:9889   */\n  dup5\n    /* \"#utility.yul\":9879:9901   */\n  and\n    /* \"#utility.yul\":9929:9966   */\n  tag_198\n    /* \"#utility.yul\":9961:9965   */\n  dup7\n    /* \"#utility.yul\":9929:9966   */\n  tag_61\n  jump\t// in\ntag_198:\n    /* \"#utility.yul\":9988:9989   */\n  0x00\n    /* \"#utility.yul\":10002:10210   */\ntag_199:\n    /* \"#utility.yul\":10016:10023   */\n  dup3\n    /* \"#utility.yul\":10013:10014   */\n  dup2\n    /* \"#utility.yul\":10010:10024   */\n  lt\n    /* \"#utility.yul\":10002:10210   */\n  iszero\n  tag_201\n  jumpi\n    /* \"#utility.yul\":10095:10104   */\n  dup5\n    /* \"#utility.yul\":10090:10093   */\n  dup10\n    /* \"#utility.yul\":10086:10105   */\n  add\n    /* \"#utility.yul\":10080:10106   */\n  mload\n    /* \"#utility.yul\":10072:10078   */\n  dup3\n    /* \"#utility.yul\":10065:10107   */\n  sstore\n    /* \"#utility.yul\":10146:10147   */\n  0x01\n    /* \"#utility.yul\":10138:10144   */\n  dup3\n    /* \"#utility.yul\":10134:10148   */\n  add\n    /* \"#utility.yul\":10124:10148   */\n  swap2\n  pop\n    /* \"#utility.yul\":10193:10195   */\n  0x20\n    /* \"#utility.yul\":10182:10191   */\n  dup6\n    /* \"#utility.yul\":10178:10196   */\n  add\n    /* \"#utility.yul\":10165:10196   */\n  swap5\n  pop\n    /* \"#utility.yul\":10039:10043   */\n  0x20\n    /* \"#utility.yul\":10036:10037   */\n  dup2\n    /* \"#utility.yul\":10032:10044   */\n  add\n    /* \"#utility.yul\":10027:10044   */\n  swap1\n  pop\n    /* \"#utility.yul\":10002:10210   */\n  jump(tag_199)\ntag_201:\n    /* \"#utility.yul\":10238:10244   */\n  dup7\n    /* \"#utility.yul\":10229:10236   */\n  dup4\n    /* \"#utility.yul\":10226:10245   */\n  lt\n    /* \"#utility.yul\":10223:10402   */\n  iszero\n  tag_202\n  jumpi\n    /* \"#utility.yul\":10296:10305   */\n  dup5\n    /* \"#utility.yul\":10291:10294   */\n  dup10\n    /* \"#utility.yul\":10287:10306   */\n  add\n    /* \"#utility.yul\":10281:10307   */\n  mload\n    /* \"#utility.yul\":10339:10387   */\n  tag_203\n    /* \"#utility.yul\":10381:10385   */\n  0x1f\n    /* \"#utility.yul\":10373:10379   */\n  dup10\n    /* \"#utility.yul\":10369:10386   */\n  and\n    /* \"#utility.yul\":10358:10367   */\n  dup3\n    /* \"#utility.yul\":10339:10387   */\n  tag_74\n  jump\t// in\ntag_203:\n    /* \"#utility.yul\":10331:10337   */\n  dup4\n    /* \"#utility.yul\":10324:10388   */\n  sstore\n    /* \"#utility.yul\":10246:10402   */\n  pop\n    /* \"#utility.yul\":10223:10402   */\ntag_202:\n    /* \"#utility.yul\":10448:10449   */\n  0x01\n    /* \"#utility.yul\":10444:10445   */\n  0x02\n    /* \"#utility.yul\":10436:10442   */\n  dup9\n    /* \"#utility.yul\":10432:10446   */\n  mul\n    /* \"#utility.yul\":10428:10450   */\n  add\n    /* \"#utility.yul\":10422:10426   */\n  dup9\n    /* \"#utility.yul\":10415:10451   */\n  sstore\n    /* \"#utility.yul\":9850:10461   */\n  pop\n  pop\n  pop\n    /* \"#utility.yul\":9813:10700   */\ntag_194:\n  pop\n    /* \"#utility.yul\":9403:10706   */\n  pop\n  pop\n  pop\n    /* \"#utility.yul\":9311:10706   */\n  pop\n  pop\n  jump\t// out\n    /* \"#utility.yul\":10712:10892   */\ntag_76:\n    /* \"#utility.yul\":10760:10837   */\n  0x4e487b7100000000000000000000000000000000000000000000000000000000\n    /* \"#utility.yul\":10757:10758   */\n  0x00\n    /* \"#utility.yul\":10750:10838   */\n  mstore\n    /* \"#utility.yul\":10857:10861   */\n  0x12\n    /* \"#utility.yul\":10854:10855   */\n  0x04\n    /* \"#utility.yul\":10847:10862   */\n  mstore\n    /* \"#utility.yul\":10881:10885   */\n  0x24\n    /* \"#utility.yul\":10878:10879   */\n  0x00\n    /* \"#utility.yul\":10871:10886   */\n  revert\n    /* \"#utility.yul\":11084:11269   */\ntag_17:\n    /* \"#utility.yul\":11124:11125   */\n  0x00\n    /* \"#utility.yul\":11141:11161   */\n  tag_207\n    /* \"#utility.yul\":11159:11160   */\n  dup3\n    /* \"#utility.yul\":11141:11161   */\n  tag_48\n  jump\t// in\ntag_207:\n    /* \"#utility.yul\":11136:11161   */\n  swap2\n  pop\n    /* \"#utility.yul\":11175:11195   */\n  tag_208\n    /* \"#utility.yul\":11193:11194   */\n  dup4\n    /* \"#utility.yul\":11175:11195   */\n  tag_48\n  jump\t// in\ntag_208:\n    /* \"#utility.yul\":11170:11195   */\n  swap3\n  pop\n    /* \"#utility.yul\":11214:11215   */\n  dup3\n    /* \"#utility.yul\":11204:11239   */\n  tag_209\n  jumpi\n    /* \"#utility.yul\":11219:11237   */\n  tag_210\n  tag_76\n  jump\t// in\ntag_210:\n    /* \"#utility.yul\":11204:11239   */\ntag_209:\n    /* \"#utility.yul\":11261:11262   */\n  dup3\n    /* \"#utility.yul\":11258:11259   */\n  dup3\n    /* \"#utility.yul\":11254:11263   */\n  div\n    /* \"#utility.yul\":11249:11263   */\n  swap1\n  pop\n    /* \"#utility.yul\":11084:11269   */\n  swap3\n  swap2\n  pop\n  pop\n  jump\t// out\n    /* \"#utility.yul\":11275:11393   */\ntag_78:\n    /* \"#utility.yul\":11362:11386   */\n  tag_212\n    /* \"#utility.yul\":11380:11385   */\n  dup2\n    /* \"#utility.yul\":11362:11386   */\n  tag_48\n  jump\t// in\ntag_212:\n    /* \"#utility.yul\":11357:11360   */\n  dup3\n    /* \"#utility.yul\":11350:11387   */\n  mstore\n    /* \"#utility.yul\":11275:11393   */\n  pop\n  pop\n  jump\t// out\n    /* \"#utility.yul\":11399:11621   */\ntag_19:\n    /* \"#utility.yul\":11492:11496   */\n  0x00\n    /* \"#utility.yul\":11530:11532   */\n  0x20\n    /* \"#utility.yul\":11519:11528   */\n  dup3\n    /* \"#utility.yul\":11515:11533   */\n  add\n    /* \"#utility.yul\":11507:11533   */\n  swap1\n  pop\n    /* \"#utility.yul\":11543:11614   */\n  tag_214\n    /* \"#utility.yul\":11611:11612   */\n  0x00\n    /* \"#utility.yul\":11600:11609   */\n  dup4\n    /* \"#utility.yul\":11596:11613   */\n  add\n    /* \"#utility.yul\":11587:11593   */\n  dup5\n    /* \"#utility.yul\":11543:11614   */\n  tag_78\n  jump\t// in\ntag_214:\n    /* \"#utility.yul\":11399:11621   */\n  swap3\n  swap2\n  pop\n  pop\n  jump\t// out\n    /* \"#utility.yul\":11627:11809   */\ntag_79:\n    /* \"#utility.yul\":11767:11801   */\n  0x4f776e61626c653a2043616c6c6572206973206e6f7420746865204f776e6572\n    /* \"#utility.yul\":11763:11764   */\n  0x00\n    /* \"#utility.yul\":11755:11761   */\n  dup3\n    /* \"#utility.yul\":11751:11765   */\n  add\n    /* \"#utility.yul\":11744:11802   */\n  mstore\n    /* \"#utility.yul\":11627:11809   */\n  pop\n  jump\t// out\n    /* \"#utility.yul\":11815:12181   */\ntag_80:\n    /* \"#utility.yul\":11957:11960   */\n  0x00\n    /* \"#utility.yul\":11978:12045   */\n  tag_217\n    /* \"#utility.yul\":12042:12044   */\n  0x20\n    /* \"#utility.yul\":12037:12040   */\n  dup4\n    /* \"#utility.yul\":11978:12045   */\n  tag_55\n  jump\t// in\ntag_217:\n    /* \"#utility.yul\":11971:12045   */\n  swap2\n  pop\n    /* \"#utility.yul\":12054:12147   */\n  tag_218\n    /* \"#utility.yul\":12143:12146   */\n  dup3\n    /* \"#utility.yul\":12054:12147   */\n  tag_79\n  jump\t// in\ntag_218:\n    /* \"#utility.yul\":12172:12174   */\n  0x20\n    /* \"#utility.yul\":12167:12170   */\n  dup3\n    /* \"#utility.yul\":12163:12175   */\n  add\n    /* \"#utility.yul\":12156:12175   */\n  swap1\n  pop\n    /* \"#utility.yul\":11815:12181   */\n  swap2\n  swap1\n  pop\n  jump\t// out\n    /* \"#utility.yul\":12187:12606   */\ntag_26:\n    /* \"#utility.yul\":12353:12357   */\n  0x00\n    /* \"#utility.yul\":12391:12393   */\n  0x20\n    /* \"#utility.yul\":12380:12389   */\n  dup3\n    /* \"#utility.yul\":12376:12394   */\n  add\n    /* \"#utility.yul\":12368:12394   */\n  swap1\n  pop\n    /* \"#utility.yul\":12440:12449   */\n  dup2\n    /* \"#utility.yul\":12434:12438   */\n  dup2\n    /* \"#utility.yul\":12430:12450   */\n  sub\n    /* \"#utility.yul\":12426:12427   */\n  0x00\n    /* \"#utility.yul\":12415:12424   */\n  dup4\n    /* \"#utility.yul\":12411:12428   */\n  add\n    /* \"#utility.yul\":12404:12451   */\n  mstore\n    /* \"#utility.yul\":12468:12599   */\n  tag_220\n    /* \"#utility.yul\":12594:12598   */\n  dup2\n    /* \"#utility.yul\":12468:12599   */\n  tag_80\n  jump\t// in\ntag_220:\n    /* \"#utility.yul\":12460:12599   */\n  swap1\n  pop\n    /* \"#utility.yul\":12187:12606   */\n  swap2\n  swap1\n  pop\n  jump\t// out\n    /* \"#utility.yul\":12612:12833   */\ntag_81:\n    /* \"#utility.yul\":12752:12786   */\n  0x4f776e61626c653a206e6577206f776e6572206973207a65726f206164647265\n    /* \"#utility.yul\":12748:12749   */\n  0x00\n    /* \"#utility.yul\":12740:12746   */\n  dup3\n    /* \"#utility.yul\":12736:12750   */\n  add\n    /* \"#utility.yul\":12729:12787   */\n  mstore\n    /* \"#utility.yul\":12821:12825   */\n  0x7373000000000000000000000000000000000000000000000000000000000000\n    /* \"#utility.yul\":12816:12818   */\n  0x20\n    /* \"#utility.yul\":12808:12814   */\n  dup3\n    /* \"#utility.yul\":12804:12819   */\n  add\n    /* \"#utility.yul\":12797:12826   */\n  mstore\n    /* \"#utility.yul\":12612:12833   */\n  pop\n  jump\t// out\n    /* \"#utility.yul\":12839:13205   */\ntag_82:\n    /* \"#utility.yul\":12981:12984   */\n  0x00\n    /* \"#utility.yul\":13002:13069   */\n  tag_223\n    /* \"#utility.yul\":13066:13068   */\n  0x22\n    /* \"#utility.yul\":13061:13064   */\n  dup4\n    /* \"#utility.yul\":13002:13069   */\n  tag_55\n  jump\t// in\ntag_223:\n    /* \"#utility.yul\":12995:13069   */\n  swap2\n  pop\n    /* \"#utility.yul\":13078:13171   */\n  tag_224\n    /* \"#utility.yul\":13167:13170   */\n  dup3\n    /* \"#utility.yul\":13078:13171   */\n  tag_81\n  jump\t// in\ntag_224:\n    /* \"#utility.yul\":13196:13198   */\n  0x40\n    /* \"#utility.yul\":13191:13194   */\n  dup3\n    /* \"#utility.yul\":13187:13199   */\n  add\n    /* \"#utility.yul\":13180:13199   */\n  swap1\n  pop\n    /* \"#utility.yul\":12839:13205   */\n  swap2\n  swap1\n  pop\n  jump\t// out\n    /* \"#utility.yul\":13211:13630   */\ntag_30:\n    /* \"#utility.yul\":13377:13381   */\n  0x00\n    /* \"#utility.yul\":13415:13417   */\n  0x20\n    /* \"#utility.yul\":13404:13413   */\n  dup3\n    /* \"#utility.yul\":13400:13418   */\n  add\n    /* \"#utility.yul\":13392:13418   */\n  swap1\n  pop\n    /* \"#utility.yul\":13464:13473   */\n  dup2\n    /* \"#utility.yul\":13458:13462   */\n  dup2\n    /* \"#utility.yul\":13454:13474   */\n  sub\n    /* \"#utility.yul\":13450:13451   */\n  0x00\n    /* \"#utility.yul\":13439:13448   */\n  dup4\n    /* \"#utility.yul\":13435:13452   */\n  add\n    /* \"#utility.yul\":13428:13475   */\n  mstore\n    /* \"#utility.yul\":13492:13623   */\n  tag_226\n    /* \"#utility.yul\":13618:13622   */\n  dup2\n    /* \"#utility.yul\":13492:13623   */\n  tag_82\n  jump\t// in\ntag_226:\n    /* \"#utility.yul\":13484:13623   */\n  swap1\n  pop\n    /* \"#utility.yul\":13211:13630   */\n  swap2\n  swap1\n  pop\n  jump\t// out\n    /* \"contracts/Cyberorcs.sol\":149:4173  contract Cyberorcs is ICyberorcs, Ownable {... */\ntag_20:\n  mload(0x80)\n  codecopy(0x00, dataOffset(sub_0), dataSize(sub_0))\n  0x00\n  assignImmutable(\"0x277ab82e5a4641341820a4a2933a62c1de997e42e92548657ae21b3728d580fe\")\n  return(0x00, dataSize(sub_0))\nstop\n\nsub_0: assembly {\n        /* \"contracts/Cyberorcs.sol\":149:4173  contract Cyberorcs is ICyberorcs, Ownable {... */\n      mstore(0x40, 0x80)\n      callvalue\n      dup1\n      iszero\n      tag_1\n      jumpi\n      revert(0x00, 0x00)\n    tag_1:\n      pop\n      jumpi(tag_2, lt(calldatasize, 0x04))\n      shr(0xe0, calldataload(0x00))\n      dup1\n      0x42966c68\n      gt\n      tag_20\n      jumpi\n      dup1\n      0x8da5cb5b\n      gt\n      tag_21\n      jumpi\n      dup1\n      0x8da5cb5b\n      eq\n      tag_15\n      jumpi\n      dup1\n      0x95d89b41\n      eq\n      tag_16\n      jumpi\n      dup1\n      0xa9059cbb\n      eq\n      tag_17\n      jumpi\n      dup1\n      0xdd62ed3e\n      eq\n      tag_18\n      jumpi\n      dup1\n      0xf2fde38b\n      eq\n      tag_19\n      jumpi\n      jump(tag_2)\n    tag_21:\n      dup1\n      0x42966c68\n      eq\n      tag_11\n      jumpi\n      dup1\n      0x70a08231\n      eq\n      tag_12\n      jumpi\n      dup1\n      0x715018a6\n      eq\n      tag_13\n      jumpi\n      dup1\n      0x7898cd18\n      eq\n      tag_14\n      jumpi\n      jump(tag_2)\n    tag_20:\n      dup1\n      0x23b872dd\n      gt\n      tag_22\n      jumpi\n      dup1\n      0x23b872dd\n      eq\n      tag_7\n      jumpi\n      dup1\n      0x313ce567\n      eq\n      tag_8\n      jumpi\n      dup1\n      0x32cb6b0c\n      eq\n      tag_9\n      jumpi\n      dup1\n      0x40c10f19\n      eq\n      tag_10\n      jumpi\n      jump(tag_2)\n    tag_22:\n      dup1\n      0x06fdde03\n      eq\n      tag_3\n      jumpi\n      dup1\n      0x07546172\n      eq\n      tag_4\n      jumpi\n      dup1\n      0x095ea7b3\n      eq\n      tag_5\n      jumpi\n      dup1\n      0x18160ddd\n      eq\n      tag_6\n      jumpi\n    tag_2:\n      revert(0x00, 0x00)\n        /* \"contracts/Cyberorcs.sol\":1327:1409  function name() public view returns (string memory) {... */\n    tag_3:\n      tag_23\n      tag_24\n      jump\t// in\n    tag_23:\n      mload(0x40)\n      tag_25\n      swap2\n      swap1\n      tag_26\n      jump\t// in\n    tag_25:\n      mload(0x40)\n      dup1\n      swap2\n      sub\n      swap1\n      return\n        /* \"contracts/Cyberorcs.sol\":410:431  address public minter */\n    tag_4:\n      tag_27\n      tag_28\n      jump\t// in\n    tag_27:\n      mload(0x40)\n      tag_29\n      swap2\n      swap1\n      tag_30\n      jump\t// in\n    tag_29:\n      mload(0x40)\n      dup1\n      swap2\n      sub\n      swap1\n      return\n        /* \"contracts/Cyberorcs.sol\":2693:2968  function approve(address spender, uint256 value) public returns (bool) {... */\n    tag_5:\n      tag_31\n      0x04\n      dup1\n      calldatasize\n      sub\n      dup2\n      add\n      swap1\n      tag_32\n      swap2\n      swap1\n      tag_33\n      jump\t// in\n    tag_32:\n      tag_34\n      jump\t// in\n    tag_31:\n      mload(0x40)\n      tag_35\n      swap2\n      swap1\n      tag_36\n      jump\t// in\n    tag_35:\n      mload(0x40)\n      dup1\n      swap2\n      sub\n      swap1\n      return\n        /* \"contracts/Cyberorcs.sol\":377:403  uint256 public totalSupply */\n    tag_6:\n      tag_37\n      tag_38\n      jump\t// in\n    tag_37:\n      mload(0x40)\n      tag_39\n      swap2\n      swap1\n      tag_40\n      jump\t// in\n    tag_39:\n      mload(0x40)\n      dup1\n      swap2\n      sub\n      swap1\n      return\n        /* \"contracts/Cyberorcs.sol\":2281:2685  function transferFrom(address from, address to, uint256 value) public returns (bool) {... */\n    tag_7:\n      tag_41\n      0x04\n      dup1\n      calldatasize\n      sub\n      dup2\n      add\n      swap1\n      tag_42\n      swap2\n      swap1\n      tag_43\n      jump\t// in\n    tag_42:\n      tag_44\n      jump\t// in\n    tag_41:\n      mload(0x40)\n      tag_45\n      swap2\n      swap1\n      tag_36\n      jump\t// in\n    tag_45:\n      mload(0x40)\n      dup1\n      swap2\n      sub\n      swap1\n      return\n        /* \"contracts/Cyberorcs.sol\":1511:1593  function decimals() public pure returns (uint8) {... */\n    tag_8:\n      tag_46\n      tag_47\n      jump\t// in\n    tag_46:\n      mload(0x40)\n      tag_48\n      swap2\n      swap1\n      tag_49\n      jump\t// in\n    tag_48:\n      mload(0x40)\n      dup1\n      swap2\n      sub\n      swap1\n      return\n        /* \"contracts/Cyberorcs.sol\":335:370  uint256 public immutable MAX_SUPPLY */\n    tag_9:\n      tag_50\n      tag_51\n      jump\t// in\n    tag_50:\n      mload(0x40)\n      tag_52\n      swap2\n      swap1\n      tag_40\n      jump\t// in\n    tag_52:\n      mload(0x40)\n      dup1\n      swap2\n      sub\n      swap1\n      return\n        /* \"contracts/Cyberorcs.sol\":3034:3478  function mint(address to, uint256 amount) public onlyOwner returns (bool sucess) {... */\n    tag_10:\n      tag_53\n      0x04\n      dup1\n      calldatasize\n      sub\n      dup2\n      add\n      swap1\n      tag_54\n      swap2\n      swap1\n      tag_33\n      jump\t// in\n    tag_54:\n      tag_55\n      jump\t// in\n    tag_53:\n      mload(0x40)\n      tag_56\n      swap2\n      swap1\n      tag_36\n      jump\t// in\n    tag_56:\n      mload(0x40)\n      dup1\n      swap2\n      sub\n      swap1\n      return\n        /* \"contracts/Cyberorcs.sol\":3486:3779  function burn(uint256 amount) public returns (bool) {... */\n    tag_11:\n      tag_57\n      0x04\n      dup1\n      calldatasize\n      sub\n      dup2\n      add\n      swap1\n      tag_58\n      swap2\n      swap1\n      tag_59\n      jump\t// in\n    tag_58:\n      tag_60\n      jump\t// in\n    tag_57:\n      mload(0x40)\n      tag_61\n      swap2\n      swap1\n      tag_36\n      jump\t// in\n    tag_61:\n      mload(0x40)\n      dup1\n      swap2\n      sub\n      swap1\n      return\n        /* \"contracts/Cyberorcs.sol\":1764:1869  function balanceOf(address owner) public view returns (uint256) {... */\n    tag_12:\n      tag_62\n      0x04\n      dup1\n      calldatasize\n      sub\n      dup2\n      add\n      swap1\n      tag_63\n      swap2\n      swap1\n      tag_64\n      jump\t// in\n    tag_63:\n      tag_65\n      jump\t// in\n    tag_62:\n      mload(0x40)\n      tag_66\n      swap2\n      swap1\n      tag_40\n      jump\t// in\n    tag_66:\n      mload(0x40)\n      dup1\n      swap2\n      sub\n      swap1\n      return\n        /* \"contracts/Ownable.sol\":1099:1194  function renounceOwnership() public onlyOwner {... */\n    tag_13:\n      tag_67\n      tag_68\n      jump\t// in\n    tag_67:\n      stop\n        /* \"contracts/Cyberorcs.sol\":1601:1695  function totalSupplyView() public view returns (uint256) {... */\n    tag_14:\n      tag_69\n      tag_70\n      jump\t// in\n    tag_69:\n      mload(0x40)\n      tag_71\n      swap2\n      swap1\n      tag_40\n      jump\t// in\n    tag_71:\n      mload(0x40)\n      dup1\n      swap2\n      sub\n      swap1\n      return\n        /* \"contracts/Ownable.sol\":454:532  function owner() public view returns (address){... */\n    tag_15:\n      tag_72\n      tag_73\n      jump\t// in\n    tag_72:\n      mload(0x40)\n      tag_74\n      swap2\n      swap1\n      tag_30\n      jump\t// in\n    tag_74:\n      mload(0x40)\n      dup1\n      swap2\n      sub\n      swap1\n      return\n        /* \"contracts/Cyberorcs.sol\":1417:1503  function symbol() public view returns (string memory) {... */\n    tag_16:\n      tag_75\n      tag_76\n      jump\t// in\n    tag_75:\n      mload(0x40)\n      tag_77\n      swap2\n      swap1\n      tag_26\n      jump\t// in\n    tag_77:\n      mload(0x40)\n      dup1\n      swap2\n      sub\n      swap1\n      return\n        /* \"contracts/Cyberorcs.sol\":2079:2273  function transfer(address to, uint256 amount) public returns (bool) {... */\n    tag_17:\n      tag_78\n      0x04\n      dup1\n      calldatasize\n      sub\n      dup2\n      add\n      swap1\n      tag_79\n      swap2\n      swap1\n      tag_33\n      jump\t// in\n    tag_79:\n      tag_80\n      jump\t// in\n    tag_78:\n      mload(0x40)\n      tag_81\n      swap2\n      swap1\n      tag_36\n      jump\t// in\n    tag_81:\n      mload(0x40)\n      dup1\n      swap2\n      sub\n      swap1\n      return\n        /* \"contracts/Cyberorcs.sol\":1877:2010  function allowance(address owner, address spender) public view returns (uint256) {... */\n    tag_18:\n      tag_82\n      0x04\n      dup1\n      calldatasize\n      sub\n      dup2\n      add\n      swap1\n      tag_83\n      swap2\n      swap1\n      tag_84\n      jump\t// in\n    tag_83:\n      tag_85\n      jump\t// in\n    tag_82:\n      mload(0x40)\n      tag_86\n      swap2\n      swap1\n      tag_40\n      jump\t// in\n    tag_86:\n      mload(0x40)\n      dup1\n      swap2\n      sub\n      swap1\n      return\n        /* \"contracts/Ownable.sol\":899:1091  function transferOwnership(address _newOwner) public onlyOwner {... */\n    tag_19:\n      tag_87\n      0x04\n      dup1\n      calldatasize\n      sub\n      dup2\n      add\n      swap1\n      tag_88\n      swap2\n      swap1\n      tag_64\n      jump\t// in\n    tag_88:\n      tag_89\n      jump\t// in\n    tag_87:\n      stop\n        /* \"contracts/Cyberorcs.sol\":1327:1409  function name() public view returns (string memory) {... */\n    tag_24:\n        /* \"contracts/Cyberorcs.sol\":1364:1377  string memory */\n      0x60\n        /* \"contracts/Cyberorcs.sol\":1397:1401  NAME */\n      0x01\n        /* \"contracts/Cyberorcs.sol\":1390:1401  return NAME */\n      dup1\n      sload\n      tag_91\n      swap1\n      tag_92\n      jump\t// in\n    tag_91:\n      dup1\n      0x1f\n      add\n      0x20\n      dup1\n      swap2\n      div\n      mul\n      0x20\n      add\n      mload(0x40)\n      swap1\n      dup2\n      add\n      0x40\n      mstore\n      dup1\n      swap3\n      swap2\n      swap1\n      dup2\n      dup2\n      mstore\n      0x20\n      add\n      dup3\n      dup1\n      sload\n      tag_93\n      swap1\n      tag_92\n      jump\t// in\n    tag_93:\n      dup1\n      iszero\n      tag_94\n      jumpi\n      dup1\n      0x1f\n      lt\n      tag_95\n      jumpi\n      0x0100\n      dup1\n      dup4\n      sload\n      div\n      mul\n      dup4\n      mstore\n      swap2\n      0x20\n      add\n      swap2\n      jump(tag_94)\n    tag_95:\n      dup3\n      add\n      swap2\n      swap1\n      0x00\n      mstore\n      keccak256(0x00, 0x20)\n      swap1\n    tag_96:\n      dup2\n      sload\n      dup2\n      mstore\n      swap1\n      0x01\n      add\n      swap1\n      0x20\n      add\n      dup1\n      dup4\n      gt\n      tag_96\n      jumpi\n      dup3\n      swap1\n      sub\n      0x1f\n      and\n      dup3\n      add\n      swap2\n    tag_94:\n      pop\n      pop\n      pop\n      pop\n      pop\n      swap1\n      pop\n        /* \"contracts/Cyberorcs.sol\":1327:1409  function name() public view returns (string memory) {... */\n      swap1\n      jump\t// out\n        /* \"contracts/Cyberorcs.sol\":410:431  address public minter */\n    tag_28:\n      0x04\n      0x00\n      swap1\n      sload\n      swap1\n      0x0100\n      exp\n      swap1\n      div\n      0xffffffffffffffffffffffffffffffffffffffff\n      and\n      dup2\n      jump\t// out\n        /* \"contracts/Cyberorcs.sol\":2693:2968  function approve(address spender, uint256 value) public returns (bool) {... */\n    tag_34:\n        /* \"contracts/Cyberorcs.sol\":2758:2762  bool */\n      0x00\n        /* \"contracts/Cyberorcs.sol\":2802:2803  0 */\n      0x00\n        /* \"contracts/Cyberorcs.sol\":2783:2804  spender != address(0) */\n      0xffffffffffffffffffffffffffffffffffffffff\n      and\n        /* \"contracts/Cyberorcs.sol\":2783:2790  spender */\n      dup4\n        /* \"contracts/Cyberorcs.sol\":2783:2804  spender != address(0) */\n      0xffffffffffffffffffffffffffffffffffffffff\n      and\n      sub\n        /* \"contracts/Cyberorcs.sol\":2775:2832  require(spender != address(0), \"CyberOrcs: Zero Address\") */\n      tag_98\n      jumpi\n      mload(0x40)\n      0x08c379a000000000000000000000000000000000000000000000000000000000\n      dup2\n      mstore\n      0x04\n      add\n      tag_99\n      swap1\n      tag_100\n      jump\t// in\n    tag_99:\n      mload(0x40)\n      dup1\n      swap2\n      sub\n      swap1\n      revert\n    tag_98:\n        /* \"contracts/Cyberorcs.sol\":2877:2882  value */\n      dup2\n        /* \"contracts/Cyberorcs.sol\":2843:2853  _allowance */\n      0x06\n        /* \"contracts/Cyberorcs.sol\":2843:2865  _allowance[msg.sender] */\n      0x00\n        /* \"contracts/Cyberorcs.sol\":2854:2864  msg.sender */\n      caller\n        /* \"contracts/Cyberorcs.sol\":2843:2865  _allowance[msg.sender] */\n      0xffffffffffffffffffffffffffffffffffffffff\n      and\n      0xffffffffffffffffffffffffffffffffffffffff\n      and\n      dup2\n      mstore\n      0x20\n      add\n      swap1\n      dup2\n      mstore\n      0x20\n      add\n      0x00\n      keccak256\n        /* \"contracts/Cyberorcs.sol\":2843:2874  _allowance[msg.sender][spender] */\n      0x00\n        /* \"contracts/Cyberorcs.sol\":2866:2873  spender */\n      dup6\n        /* \"contracts/Cyberorcs.sol\":2843:2874  _allowance[msg.sender][spender] */\n      0xffffffffffffffffffffffffffffffffffffffff\n      and\n      0xffffffffffffffffffffffffffffffffffffffff\n      and\n      dup2\n      mstore\n      0x20\n      add\n      swap1\n      dup2\n      mstore\n      0x20\n      add\n      0x00\n      keccak256\n        /* \"contracts/Cyberorcs.sol\":2843:2882  _allowance[msg.sender][spender] = value */\n      dup2\n      swap1\n      sstore\n      pop\n        /* \"contracts/Cyberorcs.sol\":2921:2928  spender */\n      dup3\n        /* \"contracts/Cyberorcs.sol\":2900:2936  Approval(msg.sender, spender, value) */\n      0xffffffffffffffffffffffffffffffffffffffff\n      and\n        /* \"contracts/Cyberorcs.sol\":2909:2919  msg.sender */\n      caller\n        /* \"contracts/Cyberorcs.sol\":2900:2936  Approval(msg.sender, spender, value) */\n      0xffffffffffffffffffffffffffffffffffffffff\n      and\n      0x8c5be1e5ebec7d5bd14f71427d1e84f3dd0314c0f7b2291e5b200ac8c7c3b925\n        /* \"contracts/Cyberorcs.sol\":2930:2935  value */\n      dup5\n        /* \"contracts/Cyberorcs.sol\":2900:2936  Approval(msg.sender, spender, value) */\n      mload(0x40)\n      tag_101\n      swap2\n      swap1\n      tag_40\n      jump\t// in\n    tag_101:\n      mload(0x40)\n      dup1\n      swap2\n      sub\n      swap1\n      log3\n        /* \"contracts/Cyberorcs.sol\":2956:2960  true */\n      0x01\n        /* \"contracts/Cyberorcs.sol\":2949:2960  return true */\n      swap1\n      pop\n        /* \"contracts/Cyberorcs.sol\":2693:2968  function approve(address spender, uint256 value) public returns (bool) {... */\n      swap3\n      swap2\n      pop\n      pop\n      jump\t// out\n        /* \"contracts/Cyberorcs.sol\":377:403  uint256 public totalSupply */\n    tag_38:\n      sload(0x03)\n      dup2\n      jump\t// out\n        /* \"contracts/Cyberorcs.sol\":2281:2685  function transferFrom(address from, address to, uint256 value) public returns (bool) {... */\n    tag_44:\n        /* \"contracts/Cyberorcs.sol\":2360:2364  bool */\n      0x00\n        /* \"contracts/Cyberorcs.sol\":2377:2401  uint256 currentAllowance */\n      0x00\n        /* \"contracts/Cyberorcs.sol\":2404:2414  _allowance */\n      0x06\n        /* \"contracts/Cyberorcs.sol\":2404:2420  _allowance[from] */\n      0x00\n        /* \"contracts/Cyberorcs.sol\":2415:2419  from */\n      dup7\n        /* \"contracts/Cyberorcs.sol\":2404:2420  _allowance[from] */\n      0xffffffffffffffffffffffffffffffffffffffff\n      and\n      0xffffffffffffffffffffffffffffffffffffffff\n      and\n      dup2\n      mstore\n      0x20\n      add\n      swap1\n      dup2\n      mstore\n      0x20\n      add\n      0x00\n      keccak256\n        /* \"contracts/Cyberorcs.sol\":2404:2432  _allowance[from][msg.sender] */\n      0x00\n        /* \"contracts/Cyberorcs.sol\":2421:2431  msg.sender */\n      caller\n        /* \"contracts/Cyberorcs.sol\":2404:2432  _allowance[from][msg.sender] */\n      0xffffffffffffffffffffffffffffffffffffffff\n      and\n      0xffffffffffffffffffffffffffffffffffffffff\n      and\n      dup2\n      mstore\n      0x20\n      add\n      swap1\n      dup2\n      mstore\n      0x20\n      add\n      0x00\n      keccak256\n      sload\n        /* \"contracts/Cyberorcs.sol\":2377:2432  uint256 currentAllowance = _allowance[from][msg.sender] */\n      swap1\n      pop\n        /* \"contracts/Cyberorcs.sol\":2471:2476  value */\n      dup3\n        /* \"contracts/Cyberorcs.sol\":2451:2467  currentAllowance */\n      dup2\n        /* \"contracts/Cyberorcs.sol\":2451:2476  currentAllowance >= value */\n      lt\n      iszero\n        /* \"contracts/Cyberorcs.sol\":2443:2505  require(currentAllowance >= value, \"Cyberorcs: Low Allowance\") */\n      tag_103\n      jumpi\n      mload(0x40)\n      0x08c379a000000000000000000000000000000000000000000000000000000000\n      dup2\n      mstore\n      0x04\n      add\n      tag_104\n      swap1\n      tag_105\n      jump\t// in\n    tag_104:\n      mload(0x40)\n      dup1\n      swap2\n      sub\n      swap1\n      revert\n    tag_103:\n        /* \"contracts/Cyberorcs.sol\":2566:2571  value */\n      dup3\n        /* \"contracts/Cyberorcs.sol\":2547:2563  currentAllowance */\n      dup2\n        /* \"contracts/Cyberorcs.sol\":2547:2571  currentAllowance - value */\n      tag_106\n      swap2\n      swap1\n      tag_107\n      jump\t// in\n    tag_106:\n        /* \"contracts/Cyberorcs.sol\":2516:2526  _allowance */\n      0x06\n        /* \"contracts/Cyberorcs.sol\":2516:2532  _allowance[from] */\n      0x00\n        /* \"contracts/Cyberorcs.sol\":2527:2531  from */\n      dup8\n        /* \"contracts/Cyberorcs.sol\":2516:2532  _allowance[from] */\n      0xffffffffffffffffffffffffffffffffffffffff\n      and\n      0xffffffffffffffffffffffffffffffffffffffff\n      and\n      dup2\n      mstore\n      0x20\n      add\n      swap1\n      dup2\n      mstore\n      0x20\n      add\n      0x00\n      keccak256\n        /* \"contracts/Cyberorcs.sol\":2516:2544  _allowance[from][msg.sender] */\n      0x00\n        /* \"contracts/Cyberorcs.sol\":2533:2543  msg.sender */\n      caller\n        /* \"contracts/Cyberorcs.sol\":2516:2544  _allowance[from][msg.sender] */\n      0xffffffffffffffffffffffffffffffffffffffff\n      and\n      0xffffffffffffffffffffffffffffffffffffffff\n      and\n      dup2\n      mstore\n      0x20\n      add\n      swap1\n      dup2\n      mstore\n      0x20\n      add\n      0x00\n      keccak256\n        /* \"contracts/Cyberorcs.sol\":2516:2571  _allowance[from][msg.sender] = currentAllowance - value */\n      dup2\n      swap1\n      sstore\n      pop\n        /* \"contracts/Cyberorcs.sol\":2584:2610  _transfer(from, to, value) */\n      tag_108\n        /* \"contracts/Cyberorcs.sol\":2594:2598  from */\n      dup6\n        /* \"contracts/Cyberorcs.sol\":2600:2602  to */\n      dup6\n        /* \"contracts/Cyberorcs.sol\":2604:2609  value */\n      dup6\n        /* \"contracts/Cyberorcs.sol\":2584:2593  _transfer */\n      tag_109\n        /* \"contracts/Cyberorcs.sol\":2584:2610  _transfer(from, to, value) */\n      jump\t// in\n    tag_108:\n        /* \"contracts/Cyberorcs.sol\":2643:2645  to */\n      dup4\n        /* \"contracts/Cyberorcs.sol\":2628:2653  Transfer(from, to, value) */\n      0xffffffffffffffffffffffffffffffffffffffff\n      and\n        /* \"contracts/Cyberorcs.sol\":2637:2641  from */\n      dup6\n        /* \"contracts/Cyberorcs.sol\":2628:2653  Transfer(from, to, value) */\n      0xffffffffffffffffffffffffffffffffffffffff\n      and\n      0xddf252ad1be2c89b69c2b068fc378daa952ba7f163c4a11628f55a4df523b3ef\n        /* \"contracts/Cyberorcs.sol\":2647:2652  value */\n      dup6\n        /* \"contracts/Cyberorcs.sol\":2628:2653  Transfer(from, to, value) */\n      mload(0x40)\n      tag_110\n      swap2\n      swap1\n      tag_40\n      jump\t// in\n    tag_110:\n      mload(0x40)\n      dup1\n      swap2\n      sub\n      swap1\n      log3\n        /* \"contracts/Cyberorcs.sol\":2673:2677  true */\n      0x01\n        /* \"contracts/Cyberorcs.sol\":2666:2677  return true */\n      swap2\n      pop\n      pop\n        /* \"contracts/Cyberorcs.sol\":2281:2685  function transferFrom(address from, address to, uint256 value) public returns (bool) {... */\n      swap4\n      swap3\n      pop\n      pop\n      pop\n      jump\t// out\n        /* \"contracts/Cyberorcs.sol\":1511:1593  function decimals() public pure returns (uint8) {... */\n    tag_47:\n        /* \"contracts/Cyberorcs.sol\":1552:1557  uint8 */\n      0x00\n        /* \"contracts/Cyberorcs.sol\":302:304  18 */\n      0x12\n        /* \"contracts/Cyberorcs.sol\":1570:1585  return DECIMALS */\n      swap1\n      pop\n        /* \"contracts/Cyberorcs.sol\":1511:1593  function decimals() public pure returns (uint8) {... */\n      swap1\n      jump\t// out\n        /* \"contracts/Cyberorcs.sol\":335:370  uint256 public immutable MAX_SUPPLY */\n    tag_51:\n      immutable(\"0x277ab82e5a4641341820a4a2933a62c1de997e42e92548657ae21b3728d580fe\")\n      dup2\n      jump\t// out\n        /* \"contracts/Cyberorcs.sol\":3034:3478  function mint(address to, uint256 amount) public onlyOwner returns (bool sucess) {... */\n    tag_55:\n        /* \"contracts/Cyberorcs.sol\":3102:3113  bool sucess */\n      0x00\n        /* \"contracts/Ownable.sol\":634:641  owner() */\n      tag_113\n        /* \"contracts/Ownable.sol\":634:639  owner */\n      tag_73\n        /* \"contracts/Ownable.sol\":634:641  owner() */\n      jump\t// in\n    tag_113:\n        /* \"contracts/Ownable.sol\":620:641  msg.sender == owner() */\n      0xffffffffffffffffffffffffffffffffffffffff\n      and\n        /* \"contracts/Ownable.sol\":620:630  msg.sender */\n      caller\n        /* \"contracts/Ownable.sol\":620:641  msg.sender == owner() */\n      0xffffffffffffffffffffffffffffffffffffffff\n      and\n      eq\n        /* \"contracts/Ownable.sol\":612:678  require(msg.sender == owner(), \"Ownable: Caller is not the Owner\") */\n      tag_114\n      jumpi\n      mload(0x40)\n      0x08c379a000000000000000000000000000000000000000000000000000000000\n      dup2\n      mstore\n      0x04\n      add\n      tag_115\n      swap1\n      tag_116\n      jump\t// in\n    tag_115:\n      mload(0x40)\n      dup1\n      swap2\n      sub\n      swap1\n      revert\n    tag_114:\n        /* \"contracts/Cyberorcs.sol\":3218:3219  0 */\n      0x00\n        /* \"contracts/Cyberorcs.sol\":3204:3220  to != address(0) */\n      0xffffffffffffffffffffffffffffffffffffffff\n      and\n        /* \"contracts/Cyberorcs.sol\":3204:3206  to */\n      dup4\n        /* \"contracts/Cyberorcs.sol\":3204:3220  to != address(0) */\n      0xffffffffffffffffffffffffffffffffffffffff\n      and\n      sub\n        /* \"contracts/Cyberorcs.sol\":3196:3250  require(to != address(0), \"Cyberorcs: Zero recipient\") */\n      tag_118\n      jumpi\n      mload(0x40)\n      0x08c379a000000000000000000000000000000000000000000000000000000000\n      dup2\n      mstore\n      0x04\n      add\n      tag_119\n      swap1\n      tag_120\n      jump\t// in\n    tag_119:\n      mload(0x40)\n      dup1\n      swap2\n      sub\n      swap1\n      revert\n    tag_118:\n        /* \"contracts/Cyberorcs.sol\":3293:3303  MAX_SUPPLY */\n      immutable(\"0x277ab82e5a4641341820a4a2933a62c1de997e42e92548657ae21b3728d580fe\")\n        /* \"contracts/Cyberorcs.sol\":3283:3289  amount */\n      dup3\n        /* \"contracts/Cyberorcs.sol\":3269:3280  totalSupply */\n      sload(0x03)\n        /* \"contracts/Cyberorcs.sol\":3269:3289  totalSupply + amount */\n      tag_121\n      swap2\n      swap1\n      tag_122\n      jump\t// in\n    tag_121:\n        /* \"contracts/Cyberorcs.sol\":3269:3303  totalSupply + amount <= MAX_SUPPLY */\n      gt\n      iszero\n        /* \"contracts/Cyberorcs.sol\":3261:3329  require(totalSupply + amount <= MAX_SUPPLY, \"Cyberorcs: Max Supply\") */\n      tag_123\n      jumpi\n      mload(0x40)\n      0x08c379a000000000000000000000000000000000000000000000000000000000\n      dup2\n      mstore\n      0x04\n      add\n      tag_124\n      swap1\n      tag_125\n      jump\t// in\n    tag_124:\n      mload(0x40)\n      dup1\n      swap2\n      sub\n      swap1\n      revert\n    tag_123:\n        /* \"contracts/Cyberorcs.sol\":3358:3364  amount */\n      dup2\n        /* \"contracts/Cyberorcs.sol\":3342:3350  _balance */\n      0x05\n        /* \"contracts/Cyberorcs.sol\":3342:3354  _balance[to] */\n      0x00\n        /* \"contracts/Cyberorcs.sol\":3351:3353  to */\n      dup6\n        /* \"contracts/Cyberorcs.sol\":3342:3354  _balance[to] */\n      0xffffffffffffffffffffffffffffffffffffffff\n      and\n      0xffffffffffffffffffffffffffffffffffffffff\n      and\n      dup2\n      mstore\n      0x20\n      add\n      swap1\n      dup2\n      mstore\n      0x20\n      add\n      0x00\n      keccak256\n      0x00\n        /* \"contracts/Cyberorcs.sol\":3342:3364  _balance[to] += amount */\n      dup3\n      dup3\n      sload\n      tag_126\n      swap2\n      swap1\n      tag_122\n      jump\t// in\n    tag_126:\n      swap3\n      pop\n      pop\n      dup2\n      swap1\n      sstore\n      pop\n        /* \"contracts/Cyberorcs.sol\":3390:3396  amount */\n      dup2\n        /* \"contracts/Cyberorcs.sol\":3375:3386  totalSupply */\n      0x03\n      0x00\n        /* \"contracts/Cyberorcs.sol\":3375:3396  totalSupply += amount */\n      dup3\n      dup3\n      sload\n      tag_127\n      swap2\n      swap1\n      tag_122\n      jump\t// in\n    tag_127:\n      swap3\n      pop\n      pop\n      dup2\n      swap1\n      sstore\n      pop\n        /* \"contracts/Cyberorcs.sol\":3435:3437  to */\n      dup3\n        /* \"contracts/Cyberorcs.sol\":3414:3446  Transfer(address(0), to, amount) */\n      0xffffffffffffffffffffffffffffffffffffffff\n      and\n        /* \"contracts/Cyberorcs.sol\":3431:3432  0 */\n      0x00\n        /* \"contracts/Cyberorcs.sol\":3414:3446  Transfer(address(0), to, amount) */\n      0xffffffffffffffffffffffffffffffffffffffff\n      and\n      0xddf252ad1be2c89b69c2b068fc378daa952ba7f163c4a11628f55a4df523b3ef\n        /* \"contracts/Cyberorcs.sol\":3439:3445  amount */\n      dup5\n        /* \"contracts/Cyberorcs.sol\":3414:3446  Transfer(address(0), to, amount) */\n      mload(0x40)\n      tag_128\n      swap2\n      swap1\n      tag_40\n      jump\t// in\n    tag_128:\n      mload(0x40)\n      dup1\n      swap2\n      sub\n      swap1\n      log3\n        /* \"contracts/Cyberorcs.sol\":3466:3470  true */\n      0x01\n        /* \"contracts/Cyberorcs.sol\":3459:3470  return true */\n      swap1\n      pop\n        /* \"contracts/Cyberorcs.sol\":3034:3478  function mint(address to, uint256 amount) public onlyOwner returns (bool sucess) {... */\n      swap3\n      swap2\n      pop\n      pop\n      jump\t// out\n        /* \"contracts/Cyberorcs.sol\":3486:3779  function burn(uint256 amount) public returns (bool) {... */\n    tag_60:\n        /* \"contracts/Cyberorcs.sol\":3532:3536  bool */\n      0x00\n        /* \"contracts/Cyberorcs.sol\":3581:3587  amount */\n      dup2\n        /* \"contracts/Cyberorcs.sol\":3557:3565  _balance */\n      0x05\n        /* \"contracts/Cyberorcs.sol\":3557:3577  _balance[msg.sender] */\n      0x00\n        /* \"contracts/Cyberorcs.sol\":3566:3576  msg.sender */\n      caller\n        /* \"contracts/Cyberorcs.sol\":3557:3577  _balance[msg.sender] */\n      0xffffffffffffffffffffffffffffffffffffffff\n      and\n      0xffffffffffffffffffffffffffffffffffffffff\n      and\n      dup2\n      mstore\n      0x20\n      add\n      swap1\n      dup2\n      mstore\n      0x20\n      add\n      0x00\n      keccak256\n      sload\n        /* \"contracts/Cyberorcs.sol\":3557:3587  _balance[msg.sender] >= amount */\n      lt\n      iszero\n        /* \"contracts/Cyberorcs.sol\":3549:3614  require(_balance[msg.sender] >= amount, \"Cyberorcs: Low Balance\") */\n      tag_130\n      jumpi\n      mload(0x40)\n      0x08c379a000000000000000000000000000000000000000000000000000000000\n      dup2\n      mstore\n      0x04\n      add\n      tag_131\n      swap1\n      tag_132\n      jump\t// in\n    tag_131:\n      mload(0x40)\n      dup1\n      swap2\n      sub\n      swap1\n      revert\n    tag_130:\n        /* \"contracts/Cyberorcs.sol\":3651:3657  amount */\n      dup2\n        /* \"contracts/Cyberorcs.sol\":3627:3635  _balance */\n      0x05\n        /* \"contracts/Cyberorcs.sol\":3627:3647  _balance[msg.sender] */\n      0x00\n        /* \"contracts/Cyberorcs.sol\":3636:3646  msg.sender */\n      caller\n        /* \"contracts/Cyberorcs.sol\":3627:3647  _balance[msg.sender] */\n      0xffffffffffffffffffffffffffffffffffffffff\n      and\n      0xffffffffffffffffffffffffffffffffffffffff\n      and\n      dup2\n      mstore\n      0x20\n      add\n      swap1\n      dup2\n      mstore\n      0x20\n      add\n      0x00\n      keccak256\n      0x00\n        /* \"contracts/Cyberorcs.sol\":3627:3657  _balance[msg.sender] -= amount */\n      dup3\n      dup3\n      sload\n      tag_133\n      swap2\n      swap1\n      tag_107\n      jump\t// in\n    tag_133:\n      swap3\n      pop\n      pop\n      dup2\n      swap1\n      sstore\n      pop\n        /* \"contracts/Cyberorcs.sol\":3683:3689  amount */\n      dup2\n        /* \"contracts/Cyberorcs.sol\":3668:3679  totalSupply */\n      0x03\n      0x00\n        /* \"contracts/Cyberorcs.sol\":3668:3689  totalSupply -= amount */\n      dup3\n      dup3\n      sload\n      tag_134\n      swap2\n      swap1\n      tag_107\n      jump\t// in\n    tag_134:\n      swap3\n      pop\n      pop\n      dup2\n      swap1\n      sstore\n      pop\n        /* \"contracts/Cyberorcs.sol\":3736:3737  0 */\n      0x00\n        /* \"contracts/Cyberorcs.sol\":3707:3747  Transfer(msg.sender, address(0), amount) */\n      0xffffffffffffffffffffffffffffffffffffffff\n      and\n        /* \"contracts/Cyberorcs.sol\":3716:3726  msg.sender */\n      caller\n        /* \"contracts/Cyberorcs.sol\":3707:3747  Transfer(msg.sender, address(0), amount) */\n      0xffffffffffffffffffffffffffffffffffffffff\n      and\n      0xddf252ad1be2c89b69c2b068fc378daa952ba7f163c4a11628f55a4df523b3ef\n        /* \"contracts/Cyberorcs.sol\":3740:3746  amount */\n      dup5\n        /* \"contracts/Cyberorcs.sol\":3707:3747  Transfer(msg.sender, address(0), amount) */\n      mload(0x40)\n      tag_135\n      swap2\n      swap1\n      tag_40\n      jump\t// in\n    tag_135:\n      mload(0x40)\n      dup1\n      swap2\n      sub\n      swap1\n      log3\n        /* \"contracts/Cyberorcs.sol\":3767:3771  true */\n      0x01\n        /* \"contracts/Cyberorcs.sol\":3760:3771  return true */\n      swap1\n      pop\n        /* \"contracts/Cyberorcs.sol\":3486:3779  function burn(uint256 amount) public returns (bool) {... */\n      swap2\n      swap1\n      pop\n      jump\t// out\n        /* \"contracts/Cyberorcs.sol\":1764:1869  function balanceOf(address owner) public view returns (uint256) {... */\n    tag_65:\n        /* \"contracts/Cyberorcs.sol\":1819:1826  uint256 */\n      0x00\n        /* \"contracts/Cyberorcs.sol\":1846:1854  _balance */\n      0x05\n        /* \"contracts/Cyberorcs.sol\":1846:1861  _balance[owner] */\n      0x00\n        /* \"contracts/Cyberorcs.sol\":1855:1860  owner */\n      dup4\n        /* \"contracts/Cyberorcs.sol\":1846:1861  _balance[owner] */\n      0xffffffffffffffffffffffffffffffffffffffff\n      and\n      0xffffffffffffffffffffffffffffffffffffffff\n      and\n      dup2\n      mstore\n      0x20\n      add\n      swap1\n      dup2\n      mstore\n      0x20\n      add\n      0x00\n      keccak256\n      sload\n        /* \"contracts/Cyberorcs.sol\":1839:1861  return _balance[owner] */\n      swap1\n      pop\n        /* \"contracts/Cyberorcs.sol\":1764:1869  function balanceOf(address owner) public view returns (uint256) {... */\n      swap2\n      swap1\n      pop\n      jump\t// out\n        /* \"contracts/Ownable.sol\":1099:1194  function renounceOwnership() public onlyOwner {... */\n    tag_68:\n        /* \"contracts/Ownable.sol\":634:641  owner() */\n      tag_138\n        /* \"contracts/Ownable.sol\":634:639  owner */\n      tag_73\n        /* \"contracts/Ownable.sol\":634:641  owner() */\n      jump\t// in\n    tag_138:\n        /* \"contracts/Ownable.sol\":620:641  msg.sender == owner() */\n      0xffffffffffffffffffffffffffffffffffffffff\n      and\n        /* \"contracts/Ownable.sol\":620:630  msg.sender */\n      caller\n        /* \"contracts/Ownable.sol\":620:641  msg.sender == owner() */\n      0xffffffffffffffffffffffffffffffffffffffff\n      and\n      eq\n        /* \"contracts/Ownable.sol\":612:678  require(msg.sender == owner(), \"Ownable: Caller is not the Owner\") */\n      tag_139\n      jumpi\n      mload(0x40)\n      0x08c379a000000000000000000000000000000000000000000000000000000000\n      dup2\n      mstore\n      0x04\n      add\n      tag_140\n      swap1\n      tag_116\n      jump\t// in\n    tag_140:\n      mload(0x40)\n      dup1\n      swap2\n      sub\n      swap1\n      revert\n    tag_139:\n        /* \"contracts/Ownable.sol\":1156:1186  _transferOwnership(address(0)) */\n      tag_142\n        /* \"contracts/Ownable.sol\":1183:1184  0 */\n      0x00\n        /* \"contracts/Ownable.sol\":1156:1174  _transferOwnership */\n      tag_143\n        /* \"contracts/Ownable.sol\":1156:1186  _transferOwnership(address(0)) */\n      jump\t// in\n    tag_142:\n        /* \"contracts/Ownable.sol\":1099:1194  function renounceOwnership() public onlyOwner {... */\n      jump\t// out\n        /* \"contracts/Cyberorcs.sol\":1601:1695  function totalSupplyView() public view returns (uint256) {... */\n    tag_70:\n        /* \"contracts/Cyberorcs.sol\":1649:1656  uint256 */\n      0x00\n        /* \"contracts/Cyberorcs.sol\":1676:1687  totalSupply */\n      sload(0x03)\n        /* \"contracts/Cyberorcs.sol\":1669:1687  return totalSupply */\n      swap1\n      pop\n        /* \"contracts/Cyberorcs.sol\":1601:1695  function totalSupplyView() public view returns (uint256) {... */\n      swap1\n      jump\t// out\n        /* \"contracts/Ownable.sol\":454:532  function owner() public view returns (address){... */\n    tag_73:\n        /* \"contracts/Ownable.sol\":492:499  address */\n      0x00\n        /* \"contracts/Ownable.sol\":518:524  _owner */\n      0x00\n      0x00\n      swap1\n      sload\n      swap1\n      0x0100\n      exp\n      swap1\n      div\n      0xffffffffffffffffffffffffffffffffffffffff\n      and\n        /* \"contracts/Ownable.sol\":511:524  return _owner */\n      swap1\n      pop\n        /* \"contracts/Ownable.sol\":454:532  function owner() public view returns (address){... */\n      swap1\n      jump\t// out\n        /* \"contracts/Cyberorcs.sol\":1417:1503  function symbol() public view returns (string memory) {... */\n    tag_76:\n        /* \"contracts/Cyberorcs.sol\":1456:1469  string memory */\n      0x60\n        /* \"contracts/Cyberorcs.sol\":1489:1495  SYMBOL */\n      0x02\n        /* \"contracts/Cyberorcs.sol\":1482:1495  return SYMBOL */\n      dup1\n      sload\n      tag_147\n      swap1\n      tag_92\n      jump\t// in\n    tag_147:\n      dup1\n      0x1f\n      add\n      0x20\n      dup1\n      swap2\n      div\n      mul\n      0x20\n      add\n      mload(0x40)\n      swap1\n      dup2\n      add\n      0x40\n      mstore\n      dup1\n      swap3\n      swap2\n      swap1\n      dup2\n      dup2\n      mstore\n      0x20\n      add\n      dup3\n      dup1\n      sload\n      tag_148\n      swap1\n      tag_92\n      jump\t// in\n    tag_148:\n      dup1\n      iszero\n      tag_149\n      jumpi\n      dup1\n      0x1f\n      lt\n      tag_150\n      jumpi\n      0x0100\n      dup1\n      dup4\n      sload\n      div\n      mul\n      dup4\n      mstore\n      swap2\n      0x20\n      add\n      swap2\n      jump(tag_149)\n    tag_150:\n      dup3\n      add\n      swap2\n      swap1\n      0x00\n      mstore\n      keccak256(0x00, 0x20)\n      swap1\n    tag_151:\n      dup2\n      sload\n      dup2\n      mstore\n      swap1\n      0x01\n      add\n      swap1\n      0x20\n      add\n      dup1\n      dup4\n      gt\n      tag_151\n      jumpi\n      dup3\n      swap1\n      sub\n      0x1f\n      and\n      dup3\n      add\n      swap2\n    tag_149:\n      pop\n      pop\n      pop\n      pop\n      pop\n      swap1\n      pop\n        /* \"contracts/Cyberorcs.sol\":1417:1503  function symbol() public view returns (string memory) {... */\n      swap1\n      jump\t// out\n        /* \"contracts/Cyberorcs.sol\":2079:2273  function transfer(address to, uint256 amount) public returns (bool) {... */\n    tag_80:\n        /* \"contracts/Cyberorcs.sol\":2141:2145  bool */\n      0x00\n        /* \"contracts/Cyberorcs.sol\":2158:2191  _transfer(msg.sender, to, amount) */\n      tag_153\n        /* \"contracts/Cyberorcs.sol\":2168:2178  msg.sender */\n      caller\n        /* \"contracts/Cyberorcs.sol\":2180:2182  to */\n      dup5\n        /* \"contracts/Cyberorcs.sol\":2184:2190  amount */\n      dup5\n        /* \"contracts/Cyberorcs.sol\":2158:2167  _transfer */\n      tag_109\n        /* \"contracts/Cyberorcs.sol\":2158:2191  _transfer(msg.sender, to, amount) */\n      jump\t// in\n    tag_153:\n        /* \"contracts/Cyberorcs.sol\":2230:2232  to */\n      dup3\n        /* \"contracts/Cyberorcs.sol\":2209:2241  Transfer(msg.sender, to, amount) */\n      0xffffffffffffffffffffffffffffffffffffffff\n      and\n        /* \"contracts/Cyberorcs.sol\":2218:2228  msg.sender */\n      caller\n        /* \"contracts/Cyberorcs.sol\":2209:2241  Transfer(msg.sender, to, amount) */\n      0xffffffffffffffffffffffffffffffffffffffff\n      and\n      0xddf252ad1be2c89b69c2b068fc378daa952ba7f163c4a11628f55a4df523b3ef\n        /* \"contracts/Cyberorcs.sol\":2234:2240  amount */\n      dup5\n        /* \"contracts/Cyberorcs.sol\":2209:2241  Transfer(msg.sender, to, amount) */\n      mload(0x40)\n      tag_154\n      swap2\n      swap1\n      tag_40\n      jump\t// in\n    tag_154:\n      mload(0x40)\n      dup1\n      swap2\n      sub\n      swap1\n      log3\n        /* \"contracts/Cyberorcs.sol\":2261:2265  true */\n      0x01\n        /* \"contracts/Cyberorcs.sol\":2254:2265  return true */\n      swap1\n      pop\n        /* \"contracts/Cyberorcs.sol\":2079:2273  function transfer(address to, uint256 amount) public returns (bool) {... */\n      swap3\n      swap2\n      pop\n      pop\n      jump\t// out\n        /* \"contracts/Cyberorcs.sol\":1877:2010  function allowance(address owner, address spender) public view returns (uint256) {... */\n    tag_85:\n        /* \"contracts/Cyberorcs.sol\":1949:1956  uint256 */\n      0x00\n        /* \"contracts/Cyberorcs.sol\":1976:1986  _allowance */\n      0x06\n        /* \"contracts/Cyberorcs.sol\":1976:1993  _allowance[owner] */\n      0x00\n        /* \"contracts/Cyberorcs.sol\":1987:1992  owner */\n      dup5\n        /* \"contracts/Cyberorcs.sol\":1976:1993  _allowance[owner] */\n      0xffffffffffffffffffffffffffffffffffffffff\n      and\n      0xffffffffffffffffffffffffffffffffffffffff\n      and\n      dup2\n      mstore\n      0x20\n      add\n      swap1\n      dup2\n      mstore\n      0x20\n      add\n      0x00\n      keccak256\n        /* \"contracts/Cyberorcs.sol\":1976:2002  _allowance[owner][spender] */\n      0x00\n        /* \"contracts/Cyberorcs.sol\":1994:2001  spender */\n      dup4\n        /* \"contracts/Cyberorcs.sol\":1976:2002  _allowance[owner][spender] */\n      0xffffffffffffffffffffffffffffffffffffffff\n      and\n      0xffffffffffffffffffffffffffffffffffffffff\n      and\n      dup2\n      mstore\n      0x20\n      add\n      swap1\n      dup2\n      mstore\n      0x20\n      add\n      0x00\n      keccak256\n      sload\n        /* \"contracts/Cyberorcs.sol\":1969:2002  return _allowance[owner][spender] */\n      swap1\n      pop\n        /* \"contracts/Cyberorcs.sol\":1877:2010  function allowance(address owner, address spender) public view returns (uint256) {... */\n      swap3\n      swap2\n      pop\n      pop\n      jump\t// out\n        /* \"contracts/Ownable.sol\":899:1091  function transferOwnership(address _newOwner) public onlyOwner {... */\n    tag_89:\n        /* \"contracts/Ownable.sol\":634:641  owner() */\n      tag_157\n        /* \"contracts/Ownable.sol\":634:639  owner */\n      tag_73\n        /* \"contracts/Ownable.sol\":634:641  owner() */\n      jump\t// in\n    tag_157:\n        /* \"contracts/Ownable.sol\":620:641  msg.sender == owner() */\n      0xffffffffffffffffffffffffffffffffffffffff\n      and\n        /* \"contracts/Ownable.sol\":620:630  msg.sender */\n      caller\n        /* \"contracts/Ownable.sol\":620:641  msg.sender == owner() */\n      0xffffffffffffffffffffffffffffffffffffffff\n      and\n      eq\n        /* \"contracts/Ownable.sol\":612:678  require(msg.sender == owner(), \"Ownable: Caller is not the Owner\") */\n      tag_158\n      jumpi\n      mload(0x40)\n      0x08c379a000000000000000000000000000000000000000000000000000000000\n      dup2\n      mstore\n      0x04\n      add\n      tag_159\n      swap1\n      tag_116\n      jump\t// in\n    tag_159:\n      mload(0x40)\n      dup1\n      swap2\n      sub\n      swap1\n      revert\n    tag_158:\n        /* \"contracts/Ownable.sol\":1002:1003  0 */\n      0x00\n        /* \"contracts/Ownable.sol\":981:1004  _newOwner != address(0) */\n      0xffffffffffffffffffffffffffffffffffffffff\n      and\n        /* \"contracts/Ownable.sol\":981:990  _newOwner */\n      dup2\n        /* \"contracts/Ownable.sol\":981:1004  _newOwner != address(0) */\n      0xffffffffffffffffffffffffffffffffffffffff\n      and\n      sub\n        /* \"contracts/Ownable.sol\":973:1043  require(_newOwner != address(0), \"Ownable: new owner is zero address\") */\n      tag_161\n      jumpi\n      mload(0x40)\n      0x08c379a000000000000000000000000000000000000000000000000000000000\n      dup2\n      mstore\n      0x04\n      add\n      tag_162\n      swap1\n      tag_163\n      jump\t// in\n    tag_162:\n      mload(0x40)\n      dup1\n      swap2\n      sub\n      swap1\n      revert\n    tag_161:\n        /* \"contracts/Ownable.sol\":1054:1083  _transferOwnership(_newOwner) */\n      tag_164\n        /* \"contracts/Ownable.sol\":1073:1082  _newOwner */\n      dup2\n        /* \"contracts/Ownable.sol\":1054:1072  _transferOwnership */\n      tag_143\n        /* \"contracts/Ownable.sol\":1054:1083  _transferOwnership(_newOwner) */\n      jump\t// in\n    tag_164:\n        /* \"contracts/Ownable.sol\":899:1091  function transferOwnership(address _newOwner) public onlyOwner {... */\n      pop\n      jump\t// out\n        /* \"contracts/Cyberorcs.sol\":3845:4170  function _transfer(address from, address to, uint256 amount) internal {... */\n    tag_109:\n        /* \"contracts/Cyberorcs.sol\":3948:3949  0 */\n      0x00\n        /* \"contracts/Cyberorcs.sol\":3934:3950  to != address(0) */\n      0xffffffffffffffffffffffffffffffffffffffff\n      and\n        /* \"contracts/Cyberorcs.sol\":3934:3936  to */\n      dup3\n        /* \"contracts/Cyberorcs.sol\":3934:3950  to != address(0) */\n      0xffffffffffffffffffffffffffffffffffffffff\n      and\n      sub\n        /* \"contracts/Cyberorcs.sol\":3926:3980  require(to != address(0), \"Cyberorcs: Zero recipient\") */\n      tag_166\n      jumpi\n      mload(0x40)\n      0x08c379a000000000000000000000000000000000000000000000000000000000\n      dup2\n      mstore\n      0x04\n      add\n      tag_167\n      swap1\n      tag_120\n      jump\t// in\n    tag_167:\n      mload(0x40)\n      dup1\n      swap2\n      sub\n      swap1\n      revert\n    tag_166:\n        /* \"contracts/Cyberorcs.sol\":4017:4023  amount */\n      dup1\n        /* \"contracts/Cyberorcs.sol\":3999:4007  _balance */\n      0x05\n        /* \"contracts/Cyberorcs.sol\":3999:4013  _balance[from] */\n      0x00\n        /* \"contracts/Cyberorcs.sol\":4008:4012  from */\n      dup6\n        /* \"contracts/Cyberorcs.sol\":3999:4013  _balance[from] */\n      0xffffffffffffffffffffffffffffffffffffffff\n      and\n      0xffffffffffffffffffffffffffffffffffffffff\n      and\n      dup2\n      mstore\n      0x20\n      add\n      swap1\n      dup2\n      mstore\n      0x20\n      add\n      0x00\n      keccak256\n      sload\n        /* \"contracts/Cyberorcs.sol\":3999:4023  _balance[from] >= amount */\n      lt\n      iszero\n        /* \"contracts/Cyberorcs.sol\":3991:4050  require(_balance[from] >= amount, \"Cyberorcs: Low Balance\") */\n      tag_168\n      jumpi\n      mload(0x40)\n      0x08c379a000000000000000000000000000000000000000000000000000000000\n      dup2\n      mstore\n      0x04\n      add\n      tag_169\n      swap1\n      tag_132\n      jump\t// in\n    tag_169:\n      mload(0x40)\n      dup1\n      swap2\n      sub\n      swap1\n      revert\n    tag_168:\n        /* \"contracts/Cyberorcs.sol\":4081:4087  amount */\n      dup1\n        /* \"contracts/Cyberorcs.sol\":4063:4071  _balance */\n      0x05\n        /* \"contracts/Cyberorcs.sol\":4063:4077  _balance[from] */\n      0x00\n        /* \"contracts/Cyberorcs.sol\":4072:4076  from */\n      dup6\n        /* \"contracts/Cyberorcs.sol\":4063:4077  _balance[from] */\n      0xffffffffffffffffffffffffffffffffffffffff\n      and\n      0xffffffffffffffffffffffffffffffffffffffff\n      and\n      dup2\n      mstore\n      0x20\n      add\n      swap1\n      dup2\n      mstore\n      0x20\n      add\n      0x00\n      keccak256\n      0x00\n        /* \"contracts/Cyberorcs.sol\":4063:4087  _balance[from] -= amount */\n      dup3\n      dup3\n      sload\n      tag_170\n      swap2\n      swap1\n      tag_107\n      jump\t// in\n    tag_170:\n      swap3\n      pop\n      pop\n      dup2\n      swap1\n      sstore\n      pop\n        /* \"contracts/Cyberorcs.sol\":4114:4120  amount */\n      dup1\n        /* \"contracts/Cyberorcs.sol\":4098:4106  _balance */\n      0x05\n        /* \"contracts/Cyberorcs.sol\":4098:4110  _balance[to] */\n      0x00\n        /* \"contracts/Cyberorcs.sol\":4107:4109  to */\n      dup5\n        /* \"contracts/Cyberorcs.sol\":4098:4110  _balance[to] */\n      0xffffffffffffffffffffffffffffffffffffffff\n      and\n      0xffffffffffffffffffffffffffffffffffffffff\n      and\n      dup2\n      mstore\n      0x20\n      add\n      swap1\n      dup2\n      mstore\n      0x20\n      add\n      0x00\n      keccak256\n      0x00\n        /* \"contracts/Cyberorcs.sol\":4098:4120  _balance[to] += amount */\n      dup3\n      dup3\n      sload\n      tag_171\n      swap2\n      swap1\n      tag_122\n      jump\t// in\n    tag_171:\n      swap3\n      pop\n      pop\n      dup2\n      swap1\n      sstore\n      pop\n        /* \"contracts/Cyberorcs.sol\":4151:4153  to */\n      dup2\n        /* \"contracts/Cyberorcs.sol\":4136:4162  Transfer(from, to, amount) */\n      0xffffffffffffffffffffffffffffffffffffffff\n      and\n        /* \"contracts/Cyberorcs.sol\":4145:4149  from */\n      dup4\n        /* \"contracts/Cyberorcs.sol\":4136:4162  Transfer(from, to, amount) */\n      0xffffffffffffffffffffffffffffffffffffffff\n      and\n      0xddf252ad1be2c89b69c2b068fc378daa952ba7f163c4a11628f55a4df523b3ef\n        /* \"contracts/Cyberorcs.sol\":4155:4161  amount */\n      dup4\n        /* \"contracts/Cyberorcs.sol\":4136:4162  Transfer(from, to, amount) */\n      mload(0x40)\n      tag_172\n      swap2\n      swap1\n      tag_40\n      jump\t// in\n    tag_172:\n      mload(0x40)\n      dup1\n      swap2\n      sub\n      swap1\n      log3\n        /* \"contracts/Cyberorcs.sol\":3845:4170  function _transfer(address from, address to, uint256 amount) internal {... */\n      pop\n      pop\n      pop\n      jump\t// out\n        /* \"contracts/Ownable.sol\":706:891  function _transferOwnership(address _newOwner) internal {... */\n    tag_143:\n        /* \"contracts/Ownable.sol\":773:789  address oldOwner */\n      0x00\n        /* \"contracts/Ownable.sol\":792:798  _owner */\n      0x00\n      0x00\n      swap1\n      sload\n      swap1\n      0x0100\n      exp\n      swap1\n      div\n      0xffffffffffffffffffffffffffffffffffffffff\n      and\n        /* \"contracts/Ownable.sol\":773:798  address oldOwner = _owner */\n      swap1\n      pop\n        /* \"contracts/Ownable.sol\":818:827  _newOwner */\n      dup2\n        /* \"contracts/Ownable.sol\":809:815  _owner */\n      0x00\n      0x00\n        /* \"contracts/Ownable.sol\":809:827  _owner = _newOwner */\n      0x0100\n      exp\n      dup2\n      sload\n      dup2\n      0xffffffffffffffffffffffffffffffffffffffff\n      mul\n      not\n      and\n      swap1\n      dup4\n      0xffffffffffffffffffffffffffffffffffffffff\n      and\n      mul\n      or\n      swap1\n      sstore\n      pop\n        /* \"contracts/Ownable.sol\":873:882  _newOwner */\n      dup2\n        /* \"contracts/Ownable.sol\":843:883  OwnershipTransferred(oldOwner,_newOwner) */\n      0xffffffffffffffffffffffffffffffffffffffff\n      and\n        /* \"contracts/Ownable.sol\":864:872  oldOwner */\n      dup2\n        /* \"contracts/Ownable.sol\":843:883  OwnershipTransferred(oldOwner,_newOwner) */\n      0xffffffffffffffffffffffffffffffffffffffff\n      and\n      0x8be0079c531659141344cd1fd0a4f28419497f9722a3daafe3b4186f6b6457e0\n      mload(0x40)\n      mload(0x40)\n      dup1\n      swap2\n      sub\n      swap1\n      log3\n        /* \"contracts/Ownable.sol\":762:891  {... */\n      pop\n        /* \"contracts/Ownable.sol\":706:891  function _transferOwnership(address _newOwner) internal {... */\n      pop\n      jump\t// out\n        /* \"#utility.yul\":7:106   */\n    tag_174:\n        /* \"#utility.yul\":59:65   */\n      0x00\n        /* \"#utility.yul\":93:98   */\n      dup2\n        /* \"#utility.yul\":87:99   */\n      mload\n        /* \"#utility.yul\":77:99   */\n      swap1\n      pop\n        /* \"#utility.yul\":7:106   */\n      swap2\n      swap1\n      pop\n      jump\t// out\n        /* \"#utility.yul\":112:281   */\n    tag_175:\n        /* \"#utility.yul\":196:207   */\n      0x00\n        /* \"#utility.yul\":230:236   */\n      dup3\n        /* \"#utility.yul\":225:228   */\n      dup3\n        /* \"#utility.yul\":218:237   */\n      mstore\n        /* \"#utility.yul\":270:274   */\n      0x20\n        /* \"#utility.yul\":265:268   */\n      dup3\n        /* \"#utility.yul\":261:275   */\n      add\n        /* \"#utility.yul\":246:275   */\n      swap1\n      pop\n        /* \"#utility.yul\":112:281   */\n      swap3\n      swap2\n      pop\n      pop\n      jump\t// out\n        /* \"#utility.yul\":287:426   */\n    tag_176:\n        /* \"#utility.yul\":376:382   */\n      dup3\n        /* \"#utility.yul\":371:374   */\n      dup2\n        /* \"#utility.yul\":366:369   */\n      dup4\n        /* \"#utility.yul\":360:383   */\n      mcopy\n        /* \"#utility.yul\":417:418   */\n      0x00\n        /* \"#utility.yul\":408:414   */\n      dup4\n        /* \"#utility.yul\":403:406   */\n      dup4\n        /* \"#utility.yul\":399:415   */\n      add\n        /* \"#utility.yul\":392:419   */\n      mstore\n        /* \"#utility.yul\":287:426   */\n      pop\n      pop\n      pop\n      jump\t// out\n        /* \"#utility.yul\":432:534   */\n    tag_177:\n        /* \"#utility.yul\":473:479   */\n      0x00\n        /* \"#utility.yul\":524:526   */\n      0x1f\n        /* \"#utility.yul\":520:527   */\n      not\n        /* \"#utility.yul\":515:517   */\n      0x1f\n        /* \"#utility.yul\":508:513   */\n      dup4\n        /* \"#utility.yul\":504:518   */\n      add\n        /* \"#utility.yul\":500:528   */\n      and\n        /* \"#utility.yul\":490:528   */\n      swap1\n      pop\n        /* \"#utility.yul\":432:534   */\n      swap2\n      swap1\n      pop\n      jump\t// out\n        /* \"#utility.yul\":540:917   */\n    tag_178:\n        /* \"#utility.yul\":628:631   */\n      0x00\n        /* \"#utility.yul\":656:695   */\n      tag_217\n        /* \"#utility.yul\":689:694   */\n      dup3\n        /* \"#utility.yul\":656:695   */\n      tag_174\n      jump\t// in\n    tag_217:\n        /* \"#utility.yul\":711:782   */\n      tag_218\n        /* \"#utility.yul\":775:781   */\n      dup2\n        /* \"#utility.yul\":770:773   */\n      dup6\n        /* \"#utility.yul\":711:782   */\n      tag_175\n      jump\t// in\n    tag_218:\n        /* \"#utility.yul\":704:782   */\n      swap4\n      pop\n        /* \"#utility.yul\":791:856   */\n      tag_219\n        /* \"#utility.yul\":849:855   */\n      dup2\n        /* \"#utility.yul\":844:847   */\n      dup6\n        /* \"#utility.yul\":837:841   */\n      0x20\n        /* \"#utility.yul\":830:835   */\n      dup7\n        /* \"#utility.yul\":826:842   */\n      add\n        /* \"#utility.yul\":791:856   */\n      tag_176\n      jump\t// in\n    tag_219:\n        /* \"#utility.yul\":881:910   */\n      tag_220\n        /* \"#utility.yul\":903:909   */\n      dup2\n        /* \"#utility.yul\":881:910   */\n      tag_177\n      jump\t// in\n    tag_220:\n        /* \"#utility.yul\":876:879   */\n      dup5\n        /* \"#utility.yul\":872:911   */\n      add\n        /* \"#utility.yul\":865:911   */\n      swap2\n      pop\n        /* \"#utility.yul\":632:917   */\n      pop\n        /* \"#utility.yul\":540:917   */\n      swap3\n      swap2\n      pop\n      pop\n      jump\t// out\n        /* \"#utility.yul\":923:1236   */\n    tag_26:\n        /* \"#utility.yul\":1036:1040   */\n      0x00\n        /* \"#utility.yul\":1074:1076   */\n      0x20\n        /* \"#utility.yul\":1063:1072   */\n      dup3\n        /* \"#utility.yul\":1059:1077   */\n      add\n        /* \"#utility.yul\":1051:1077   */\n      swap1\n      pop\n        /* \"#utility.yul\":1123:1132   */\n      dup2\n        /* \"#utility.yul\":1117:1121   */\n      dup2\n        /* \"#utility.yul\":1113:1133   */\n      sub\n        /* \"#utility.yul\":1109:1110   */\n      0x00\n        /* \"#utility.yul\":1098:1107   */\n      dup4\n        /* \"#utility.yul\":1094:1111   */\n      add\n        /* \"#utility.yul\":1087:1134   */\n      mstore\n        /* \"#utility.yul\":1151:1229   */\n      tag_222\n        /* \"#utility.yul\":1224:1228   */\n      dup2\n        /* \"#utility.yul\":1215:1221   */\n      dup5\n        /* \"#utility.yul\":1151:1229   */\n      tag_178\n      jump\t// in\n    tag_222:\n        /* \"#utility.yul\":1143:1229   */\n      swap1\n      pop\n        /* \"#utility.yul\":923:1236   */\n      swap3\n      swap2\n      pop\n      pop\n      jump\t// out\n        /* \"#utility.yul\":1242:1368   */\n    tag_179:\n        /* \"#utility.yul\":1279:1286   */\n      0x00\n        /* \"#utility.yul\":1319:1361   */\n      0xffffffffffffffffffffffffffffffffffffffff\n        /* \"#utility.yul\":1312:1317   */\n      dup3\n        /* \"#utility.yul\":1308:1362   */\n      and\n        /* \"#utility.yul\":1297:1362   */\n      swap1\n      pop\n        /* \"#utility.yul\":1242:1368   */\n      swap2\n      swap1\n      pop\n      jump\t// out\n        /* \"#utility.yul\":1374:1470   */\n    tag_180:\n        /* \"#utility.yul\":1411:1418   */\n      0x00\n        /* \"#utility.yul\":1440:1464   */\n      tag_225\n        /* \"#utility.yul\":1458:1463   */\n      dup3\n        /* \"#utility.yul\":1440:1464   */\n      tag_179\n      jump\t// in\n    tag_225:\n        /* \"#utility.yul\":1429:1464   */\n      swap1\n      pop\n        /* \"#utility.yul\":1374:1470   */\n      swap2\n      swap1\n      pop\n      jump\t// out\n        /* \"#utility.yul\":1476:1594   */\n    tag_181:\n        /* \"#utility.yul\":1563:1587   */\n      tag_227\n        /* \"#utility.yul\":1581:1586   */\n      dup2\n        /* \"#utility.yul\":1563:1587   */\n      tag_180\n      jump\t// in\n    tag_227:\n        /* \"#utility.yul\":1558:1561   */\n      dup3\n        /* \"#utility.yul\":1551:1588   */\n      mstore\n        /* \"#utility.yul\":1476:1594   */\n      pop\n      pop\n      jump\t// out\n        /* \"#utility.yul\":1600:1822   */\n    tag_30:\n        /* \"#utility.yul\":1693:1697   */\n      0x00\n        /* \"#utility.yul\":1731:1733   */\n      0x20\n        /* \"#utility.yul\":1720:1729   */\n      dup3\n        /* \"#utility.yul\":1716:1734   */\n      add\n        /* \"#utility.yul\":1708:1734   */\n      swap1\n      pop\n        /* \"#utility.yul\":1744:1815   */\n      tag_229\n        /* \"#utility.yul\":1812:1813   */\n      0x00\n        /* \"#utility.yul\":1801:1810   */\n      dup4\n        /* \"#utility.yul\":1797:1814   */\n      add\n        /* \"#utility.yul\":1788:1794   */\n      dup5\n        /* \"#utility.yul\":1744:1815   */\n      tag_181\n      jump\t// in\n    tag_229:\n        /* \"#utility.yul\":1600:1822   */\n      swap3\n      swap2\n      pop\n      pop\n      jump\t// out\n        /* \"#utility.yul\":1909:2026   */\n    tag_183:\n        /* \"#utility.yul\":2018:2019   */\n      0x00\n        /* \"#utility.yul\":2015:2016   */\n      0x00\n        /* \"#utility.yul\":2008:2020   */\n      revert\n        /* \"#utility.yul\":2155:2277   */\n    tag_185:\n        /* \"#utility.yul\":2228:2252   */\n      tag_234\n        /* \"#utility.yul\":2246:2251   */\n      dup2\n        /* \"#utility.yul\":2228:2252   */\n      tag_180\n      jump\t// in\n    tag_234:\n        /* \"#utility.yul\":2221:2226   */\n      dup2\n        /* \"#utility.yul\":2218:2253   */\n      eq\n        /* \"#utility.yul\":2208:2271   */\n      tag_235\n      jumpi\n        /* \"#utility.yul\":2267:2268   */\n      0x00\n        /* \"#utility.yul\":2264:2265   */\n      0x00\n        /* \"#utility.yul\":2257:2269   */\n      revert\n        /* \"#utility.yul\":2208:2271   */\n    tag_235:\n        /* \"#utility.yul\":2155:2277   */\n      pop\n      jump\t// out\n        /* \"#utility.yul\":2283:2422   */\n    tag_186:\n        /* \"#utility.yul\":2329:2334   */\n      0x00\n        /* \"#utility.yul\":2367:2373   */\n      dup2\n        /* \"#utility.yul\":2354:2374   */\n      calldataload\n        /* \"#utility.yul\":2345:2374   */\n      swap1\n      pop\n        /* \"#utility.yul\":2383:2416   */\n      tag_237\n        /* \"#utility.yul\":2410:2415   */\n      dup2\n        /* \"#utility.yul\":2383:2416   */\n      tag_185\n      jump\t// in\n    tag_237:\n        /* \"#utility.yul\":2283:2422   */\n      swap3\n      swap2\n      pop\n      pop\n      jump\t// out\n        /* \"#utility.yul\":2428:2505   */\n    tag_187:\n        /* \"#utility.yul\":2465:2472   */\n      0x00\n        /* \"#utility.yul\":2494:2499   */\n      dup2\n        /* \"#utility.yul\":2483:2499   */\n      swap1\n      pop\n        /* \"#utility.yul\":2428:2505   */\n      swap2\n      swap1\n      pop\n      jump\t// out\n        /* \"#utility.yul\":2511:2633   */\n    tag_188:\n        /* \"#utility.yul\":2584:2608   */\n      tag_240\n        /* \"#utility.yul\":2602:2607   */\n      dup2\n        /* \"#utility.yul\":2584:2608   */\n      tag_187\n      jump\t// in\n    tag_240:\n        /* \"#utility.yul\":2577:2582   */\n      dup2\n        /* \"#utility.yul\":2574:2609   */\n      eq\n        /* \"#utility.yul\":2564:2627   */\n      tag_241\n      jumpi\n        /* \"#utility.yul\":2623:2624   */\n      0x00\n        /* \"#utility.yul\":2620:2621   */\n      0x00\n        /* \"#utility.yul\":2613:2625   */\n      revert\n        /* \"#utility.yul\":2564:2627   */\n    tag_241:\n        /* \"#utility.yul\":2511:2633   */\n      pop\n      jump\t// out\n        /* \"#utility.yul\":2639:2778   */\n    tag_189:\n        /* \"#utility.yul\":2685:2690   */\n      0x00\n        /* \"#utility.yul\":2723:2729   */\n      dup2\n        /* \"#utility.yul\":2710:2730   */\n      calldataload\n        /* \"#utility.yul\":2701:2730   */\n      swap1\n      pop\n        /* \"#utility.yul\":2739:2772   */\n      tag_243\n        /* \"#utility.yul\":2766:2771   */\n      dup2\n        /* \"#utility.yul\":2739:2772   */\n      tag_188\n      jump\t// in\n    tag_243:\n        /* \"#utility.yul\":2639:2778   */\n      swap3\n      swap2\n      pop\n      pop\n      jump\t// out\n        /* \"#utility.yul\":2784:3258   */\n    tag_33:\n        /* \"#utility.yul\":2852:2858   */\n      0x00\n        /* \"#utility.yul\":2860:2866   */\n      0x00\n        /* \"#utility.yul\":2909:2911   */\n      0x40\n        /* \"#utility.yul\":2897:2906   */\n      dup4\n        /* \"#utility.yul\":2888:2895   */\n      dup6\n        /* \"#utility.yul\":2884:2907   */\n      sub\n        /* \"#utility.yul\":2880:2912   */\n      slt\n        /* \"#utility.yul\":2877:2996   */\n      iszero\n      tag_245\n      jumpi\n        /* \"#utility.yul\":2915:2994   */\n      tag_246\n      tag_183\n      jump\t// in\n    tag_246:\n        /* \"#utility.yul\":2877:2996   */\n    tag_245:\n        /* \"#utility.yul\":3035:3036   */\n      0x00\n        /* \"#utility.yul\":3060:3113   */\n      tag_247\n        /* \"#utility.yul\":3105:3112   */\n      dup6\n        /* \"#utility.yul\":3096:3102   */\n      dup3\n        /* \"#utility.yul\":3085:3094   */\n      dup7\n        /* \"#utility.yul\":3081:3103   */\n      add\n        /* \"#utility.yul\":3060:3113   */\n      tag_186\n      jump\t// in\n    tag_247:\n        /* \"#utility.yul\":3050:3113   */\n      swap3\n      pop\n        /* \"#utility.yul\":3006:3123   */\n      pop\n        /* \"#utility.yul\":3162:3164   */\n      0x20\n        /* \"#utility.yul\":3188:3241   */\n      tag_248\n        /* \"#utility.yul\":3233:3240   */\n      dup6\n        /* \"#utility.yul\":3224:3230   */\n      dup3\n        /* \"#utility.yul\":3213:3222   */\n      dup7\n        /* \"#utility.yul\":3209:3231   */\n      add\n        /* \"#utility.yul\":3188:3241   */\n      tag_189\n      jump\t// in\n    tag_248:\n        /* \"#utility.yul\":3178:3241   */\n      swap2\n      pop\n        /* \"#utility.yul\":3133:3251   */\n      pop\n        /* \"#utility.yul\":2784:3258   */\n      swap3\n      pop\n      swap3\n      swap1\n      pop\n      jump\t// out\n        /* \"#utility.yul\":3264:3354   */\n    tag_190:\n        /* \"#utility.yul\":3298:3305   */\n      0x00\n        /* \"#utility.yul\":3341:3346   */\n      dup2\n        /* \"#utility.yul\":3334:3347   */\n      iszero\n        /* \"#utility.yul\":3327:3348   */\n      iszero\n        /* \"#utility.yul\":3316:3348   */\n      swap1\n      pop\n        /* \"#utility.yul\":3264:3354   */\n      swap2\n      swap1\n      pop\n      jump\t// out\n        /* \"#utility.yul\":3360:3469   */\n    tag_191:\n        /* \"#utility.yul\":3441:3462   */\n      tag_251\n        /* \"#utility.yul\":3456:3461   */\n      dup2\n        /* \"#utility.yul\":3441:3462   */\n      tag_190\n      jump\t// in\n    tag_251:\n        /* \"#utility.yul\":3436:3439   */\n      dup3\n        /* \"#utility.yul\":3429:3463   */\n      mstore\n        /* \"#utility.yul\":3360:3469   */\n      pop\n      pop\n      jump\t// out\n        /* \"#utility.yul\":3475:3685   */\n    tag_36:\n        /* \"#utility.yul\":3562:3566   */\n      0x00\n        /* \"#utility.yul\":3600:3602   */\n      0x20\n        /* \"#utility.yul\":3589:3598   */\n      dup3\n        /* \"#utility.yul\":3585:3603   */\n      add\n        /* \"#utility.yul\":3577:3603   */\n      swap1\n      pop\n        /* \"#utility.yul\":3613:3678   */\n      tag_253\n        /* \"#utility.yul\":3675:3676   */\n      0x00\n        /* \"#utility.yul\":3664:3673   */\n      dup4\n        /* \"#utility.yul\":3660:3677   */\n      add\n        /* \"#utility.yul\":3651:3657   */\n      dup5\n        /* \"#utility.yul\":3613:3678   */\n      tag_191\n      jump\t// in\n    tag_253:\n        /* \"#utility.yul\":3475:3685   */\n      swap3\n      swap2\n      pop\n      pop\n      jump\t// out\n        /* \"#utility.yul\":3691:3809   */\n    tag_192:\n        /* \"#utility.yul\":3778:3802   */\n      tag_255\n        /* \"#utility.yul\":3796:3801   */\n      dup2\n        /* \"#utility.yul\":3778:3802   */\n      tag_187\n      jump\t// in\n    tag_255:\n        /* \"#utility.yul\":3773:3776   */\n      dup3\n        /* \"#utility.yul\":3766:3803   */\n      mstore\n        /* \"#utility.yul\":3691:3809   */\n      pop\n      pop\n      jump\t// out\n        /* \"#utility.yul\":3815:4037   */\n    tag_40:\n        /* \"#utility.yul\":3908:3912   */\n      0x00\n        /* \"#utility.yul\":3946:3948   */\n      0x20\n        /* \"#utility.yul\":3935:3944   */\n      dup3\n        /* \"#utility.yul\":3931:3949   */\n      add\n        /* \"#utility.yul\":3923:3949   */\n      swap1\n      pop\n        /* \"#utility.yul\":3959:4030   */\n      tag_257\n        /* \"#utility.yul\":4027:4028   */\n      0x00\n        /* \"#utility.yul\":4016:4025   */\n      dup4\n        /* \"#utility.yul\":4012:4029   */\n      add\n        /* \"#utility.yul\":4003:4009   */\n      dup5\n        /* \"#utility.yul\":3959:4030   */\n      tag_192\n      jump\t// in\n    tag_257:\n        /* \"#utility.yul\":3815:4037   */\n      swap3\n      swap2\n      pop\n      pop\n      jump\t// out\n        /* \"#utility.yul\":4043:4662   */\n    tag_43:\n        /* \"#utility.yul\":4120:4126   */\n      0x00\n        /* \"#utility.yul\":4128:4134   */\n      0x00\n        /* \"#utility.yul\":4136:4142   */\n      0x00\n        /* \"#utility.yul\":4185:4187   */\n      0x60\n        /* \"#utility.yul\":4173:4182   */\n      dup5\n        /* \"#utility.yul\":4164:4171   */\n      dup7\n        /* \"#utility.yul\":4160:4183   */\n      sub\n        /* \"#utility.yul\":4156:4188   */\n      slt\n        /* \"#utility.yul\":4153:4272   */\n      iszero\n      tag_259\n      jumpi\n        /* \"#utility.yul\":4191:4270   */\n      tag_260\n      tag_183\n      jump\t// in\n    tag_260:\n        /* \"#utility.yul\":4153:4272   */\n    tag_259:\n        /* \"#utility.yul\":4311:4312   */\n      0x00\n        /* \"#utility.yul\":4336:4389   */\n      tag_261\n        /* \"#utility.yul\":4381:4388   */\n      dup7\n        /* \"#utility.yul\":4372:4378   */\n      dup3\n        /* \"#utility.yul\":4361:4370   */\n      dup8\n        /* \"#utility.yul\":4357:4379   */\n      add\n        /* \"#utility.yul\":4336:4389   */\n      tag_186\n      jump\t// in\n    tag_261:\n        /* \"#utility.yul\":4326:4389   */\n      swap4\n      pop\n        /* \"#utility.yul\":4282:4399   */\n      pop\n        /* \"#utility.yul\":4438:4440   */\n      0x20\n        /* \"#utility.yul\":4464:4517   */\n      tag_262\n        /* \"#utility.yul\":4509:4516   */\n      dup7\n        /* \"#utility.yul\":4500:4506   */\n      dup3\n        /* \"#utility.yul\":4489:4498   */\n      dup8\n        /* \"#utility.yul\":4485:4507   */\n      add\n        /* \"#utility.yul\":4464:4517   */\n      tag_186\n      jump\t// in\n    tag_262:\n        /* \"#utility.yul\":4454:4517   */\n      swap3\n      pop\n        /* \"#utility.yul\":4409:4527   */\n      pop\n        /* \"#utility.yul\":4566:4568   */\n      0x40\n        /* \"#utility.yul\":4592:4645   */\n      tag_263\n        /* \"#utility.yul\":4637:4644   */\n      dup7\n        /* \"#utility.yul\":4628:4634   */\n      dup3\n        /* \"#utility.yul\":4617:4626   */\n      dup8\n        /* \"#utility.yul\":4613:4635   */\n      add\n        /* \"#utility.yul\":4592:4645   */\n      tag_189\n      jump\t// in\n    tag_263:\n        /* \"#utility.yul\":4582:4645   */\n      swap2\n      pop\n        /* \"#utility.yul\":4537:4655   */\n      pop\n        /* \"#utility.yul\":4043:4662   */\n      swap3\n      pop\n      swap3\n      pop\n      swap3\n      jump\t// out\n        /* \"#utility.yul\":4668:4754   */\n    tag_193:\n        /* \"#utility.yul\":4703:4710   */\n      0x00\n        /* \"#utility.yul\":4743:4747   */\n      0xff\n        /* \"#utility.yul\":4736:4741   */\n      dup3\n        /* \"#utility.yul\":4732:4748   */\n      and\n        /* \"#utility.yul\":4721:4748   */\n      swap1\n      pop\n        /* \"#utility.yul\":4668:4754   */\n      swap2\n      swap1\n      pop\n      jump\t// out\n        /* \"#utility.yul\":4760:4872   */\n    tag_194:\n        /* \"#utility.yul\":4843:4865   */\n      tag_266\n        /* \"#utility.yul\":4859:4864   */\n      dup2\n        /* \"#utility.yul\":4843:4865   */\n      tag_193\n      jump\t// in\n    tag_266:\n        /* \"#utility.yul\":4838:4841   */\n      dup3\n        /* \"#utility.yul\":4831:4866   */\n      mstore\n        /* \"#utility.yul\":4760:4872   */\n      pop\n      pop\n      jump\t// out\n        /* \"#utility.yul\":4878:5092   */\n    tag_49:\n        /* \"#utility.yul\":4967:4971   */\n      0x00\n        /* \"#utility.yul\":5005:5007   */\n      0x20\n        /* \"#utility.yul\":4994:5003   */\n      dup3\n        /* \"#utility.yul\":4990:5008   */\n      add\n        /* \"#utility.yul\":4982:5008   */\n      swap1\n      pop\n        /* \"#utility.yul\":5018:5085   */\n      tag_268\n        /* \"#utility.yul\":5082:5083   */\n      0x00\n        /* \"#utility.yul\":5071:5080   */\n      dup4\n        /* \"#utility.yul\":5067:5084   */\n      add\n        /* \"#utility.yul\":5058:5064   */\n      dup5\n        /* \"#utility.yul\":5018:5085   */\n      tag_194\n      jump\t// in\n    tag_268:\n        /* \"#utility.yul\":4878:5092   */\n      swap3\n      swap2\n      pop\n      pop\n      jump\t// out\n        /* \"#utility.yul\":5098:5427   */\n    tag_59:\n        /* \"#utility.yul\":5157:5163   */\n      0x00\n        /* \"#utility.yul\":5206:5208   */\n      0x20\n        /* \"#utility.yul\":5194:5203   */\n      dup3\n        /* \"#utility.yul\":5185:5192   */\n      dup5\n        /* \"#utility.yul\":5181:5204   */\n      sub\n        /* \"#utility.yul\":5177:5209   */\n      slt\n        /* \"#utility.yul\":5174:5293   */\n      iszero\n      tag_270\n      jumpi\n        /* \"#utility.yul\":5212:5291   */\n      tag_271\n      tag_183\n      jump\t// in\n    tag_271:\n        /* \"#utility.yul\":5174:5293   */\n    tag_270:\n        /* \"#utility.yul\":5332:5333   */\n      0x00\n        /* \"#utility.yul\":5357:5410   */\n      tag_272\n        /* \"#utility.yul\":5402:5409   */\n      dup5\n        /* \"#utility.yul\":5393:5399   */\n      dup3\n        /* \"#utility.yul\":5382:5391   */\n      dup6\n        /* \"#utility.yul\":5378:5400   */\n      add\n        /* \"#utility.yul\":5357:5410   */\n      tag_189\n      jump\t// in\n    tag_272:\n        /* \"#utility.yul\":5347:5410   */\n      swap2\n      pop\n        /* \"#utility.yul\":5303:5420   */\n      pop\n        /* \"#utility.yul\":5098:5427   */\n      swap3\n      swap2\n      pop\n      pop\n      jump\t// out\n        /* \"#utility.yul\":5433:5762   */\n    tag_64:\n        /* \"#utility.yul\":5492:5498   */\n      0x00\n        /* \"#utility.yul\":5541:5543   */\n      0x20\n        /* \"#utility.yul\":5529:5538   */\n      dup3\n        /* \"#utility.yul\":5520:5527   */\n      dup5\n        /* \"#utility.yul\":5516:5539   */\n      sub\n        /* \"#utility.yul\":5512:5544   */\n      slt\n        /* \"#utility.yul\":5509:5628   */\n      iszero\n      tag_274\n      jumpi\n        /* \"#utility.yul\":5547:5626   */\n      tag_275\n      tag_183\n      jump\t// in\n    tag_275:\n        /* \"#utility.yul\":5509:5628   */\n    tag_274:\n        /* \"#utility.yul\":5667:5668   */\n      0x00\n        /* \"#utility.yul\":5692:5745   */\n      tag_276\n        /* \"#utility.yul\":5737:5744   */\n      dup5\n        /* \"#utility.yul\":5728:5734   */\n      dup3\n        /* \"#utility.yul\":5717:5726   */\n      dup6\n        /* \"#utility.yul\":5713:5735   */\n      add\n        /* \"#utility.yul\":5692:5745   */\n      tag_186\n      jump\t// in\n    tag_276:\n        /* \"#utility.yul\":5682:5745   */\n      swap2\n      pop\n        /* \"#utility.yul\":5638:5755   */\n      pop\n        /* \"#utility.yul\":5433:5762   */\n      swap3\n      swap2\n      pop\n      pop\n      jump\t// out\n        /* \"#utility.yul\":5768:6242   */\n    tag_84:\n        /* \"#utility.yul\":5836:5842   */\n      0x00\n        /* \"#utility.yul\":5844:5850   */\n      0x00\n        /* \"#utility.yul\":5893:5895   */\n      0x40\n        /* \"#utility.yul\":5881:5890   */\n      dup4\n        /* \"#utility.yul\":5872:5879   */\n      dup6\n        /* \"#utility.yul\":5868:5891   */\n      sub\n        /* \"#utility.yul\":5864:5896   */\n      slt\n        /* \"#utility.yul\":5861:5980   */\n      iszero\n      tag_278\n      jumpi\n        /* \"#utility.yul\":5899:5978   */\n      tag_279\n      tag_183\n      jump\t// in\n    tag_279:\n        /* \"#utility.yul\":5861:5980   */\n    tag_278:\n        /* \"#utility.yul\":6019:6020   */\n      0x00\n        /* \"#utility.yul\":6044:6097   */\n      tag_280\n        /* \"#utility.yul\":6089:6096   */\n      dup6\n        /* \"#utility.yul\":6080:6086   */\n      dup3\n        /* \"#utility.yul\":6069:6078   */\n      dup7\n        /* \"#utility.yul\":6065:6087   */\n      add\n        /* \"#utility.yul\":6044:6097   */\n      tag_186\n      jump\t// in\n    tag_280:\n        /* \"#utility.yul\":6034:6097   */\n      swap3\n      pop\n        /* \"#utility.yul\":5990:6107   */\n      pop\n        /* \"#utility.yul\":6146:6148   */\n      0x20\n        /* \"#utility.yul\":6172:6225   */\n      tag_281\n        /* \"#utility.yul\":6217:6224   */\n      dup6\n        /* \"#utility.yul\":6208:6214   */\n      dup3\n        /* \"#utility.yul\":6197:6206   */\n      dup7\n        /* \"#utility.yul\":6193:6215   */\n      add\n        /* \"#utility.yul\":6172:6225   */\n      tag_186\n      jump\t// in\n    tag_281:\n        /* \"#utility.yul\":6162:6225   */\n      swap2\n      pop\n        /* \"#utility.yul\":6117:6235   */\n      pop\n        /* \"#utility.yul\":5768:6242   */\n      swap3\n      pop\n      swap3\n      swap1\n      pop\n      jump\t// out\n        /* \"#utility.yul\":6248:6428   */\n    tag_195:\n        /* \"#utility.yul\":6296:6373   */\n      0x4e487b7100000000000000000000000000000000000000000000000000000000\n        /* \"#utility.yul\":6293:6294   */\n      0x00\n        /* \"#utility.yul\":6286:6374   */\n      mstore\n        /* \"#utility.yul\":6393:6397   */\n      0x22\n        /* \"#utility.yul\":6390:6391   */\n      0x04\n        /* \"#utility.yul\":6383:6398   */\n      mstore\n        /* \"#utility.yul\":6417:6421   */\n      0x24\n        /* \"#utility.yul\":6414:6415   */\n      0x00\n        /* \"#utility.yul\":6407:6422   */\n      revert\n        /* \"#utility.yul\":6434:6754   */\n    tag_92:\n        /* \"#utility.yul\":6478:6484   */\n      0x00\n        /* \"#utility.yul\":6515:6516   */\n      0x02\n        /* \"#utility.yul\":6509:6513   */\n      dup3\n        /* \"#utility.yul\":6505:6517   */\n      div\n        /* \"#utility.yul\":6495:6517   */\n      swap1\n      pop\n        /* \"#utility.yul\":6562:6563   */\n      0x01\n        /* \"#utility.yul\":6556:6560   */\n      dup3\n        /* \"#utility.yul\":6552:6564   */\n      and\n        /* \"#utility.yul\":6583:6601   */\n      dup1\n        /* \"#utility.yul\":6573:6654   */\n      tag_284\n      jumpi\n        /* \"#utility.yul\":6639:6643   */\n      0x7f\n        /* \"#utility.yul\":6631:6637   */\n      dup3\n        /* \"#utility.yul\":6627:6644   */\n      and\n        /* \"#utility.yul\":6617:6644   */\n      swap2\n      pop\n        /* \"#utility.yul\":6573:6654   */\n    tag_284:\n        /* \"#utility.yul\":6701:6703   */\n      0x20\n        /* \"#utility.yul\":6693:6699   */\n      dup3\n        /* \"#utility.yul\":6690:6704   */\n      lt\n        /* \"#utility.yul\":6670:6688   */\n      dup2\n        /* \"#utility.yul\":6667:6705   */\n      sub\n        /* \"#utility.yul\":6664:6748   */\n      tag_285\n      jumpi\n        /* \"#utility.yul\":6720:6738   */\n      tag_286\n      tag_195\n      jump\t// in\n    tag_286:\n        /* \"#utility.yul\":6664:6748   */\n    tag_285:\n        /* \"#utility.yul\":6485:6754   */\n      pop\n        /* \"#utility.yul\":6434:6754   */\n      swap2\n      swap1\n      pop\n      jump\t// out\n        /* \"#utility.yul\":6760:6933   */\n    tag_196:\n        /* \"#utility.yul\":6900:6925   */\n      0x43796265724f7263733a205a65726f2041646472657373000000000000000000\n        /* \"#utility.yul\":6896:6897   */\n      0x00\n        /* \"#utility.yul\":6888:6894   */\n      dup3\n        /* \"#utility.yul\":6884:6898   */\n      add\n        /* \"#utility.yul\":6877:6926   */\n      mstore\n        /* \"#utility.yul\":6760:6933   */\n      pop\n      jump\t// out\n        /* \"#utility.yul\":6939:7305   */\n    tag_197:\n        /* \"#utility.yul\":7081:7084   */\n      0x00\n        /* \"#utility.yul\":7102:7169   */\n      tag_289\n        /* \"#utility.yul\":7166:7168   */\n      0x17\n        /* \"#utility.yul\":7161:7164   */\n      dup4\n        /* \"#utility.yul\":7102:7169   */\n      tag_175\n      jump\t// in\n    tag_289:\n        /* \"#utility.yul\":7095:7169   */\n      swap2\n      pop\n        /* \"#utility.yul\":7178:7271   */\n      tag_290\n        /* \"#utility.yul\":7267:7270   */\n      dup3\n        /* \"#utility.yul\":7178:7271   */\n      tag_196\n      jump\t// in\n    tag_290:\n        /* \"#utility.yul\":7296:7298   */\n      0x20\n        /* \"#utility.yul\":7291:7294   */\n      dup3\n        /* \"#utility.yul\":7287:7299   */\n      add\n        /* \"#utility.yul\":7280:7299   */\n      swap1\n      pop\n        /* \"#utility.yul\":6939:7305   */\n      swap2\n      swap1\n      pop\n      jump\t// out\n        /* \"#utility.yul\":7311:7730   */\n    tag_100:\n        /* \"#utility.yul\":7477:7481   */\n      0x00\n        /* \"#utility.yul\":7515:7517   */\n      0x20\n        /* \"#utility.yul\":7504:7513   */\n      dup3\n        /* \"#utility.yul\":7500:7518   */\n      add\n        /* \"#utility.yul\":7492:7518   */\n      swap1\n      pop\n        /* \"#utility.yul\":7564:7573   */\n      dup2\n        /* \"#utility.yul\":7558:7562   */\n      dup2\n        /* \"#utility.yul\":7554:7574   */\n      sub\n        /* \"#utility.yul\":7550:7551   */\n      0x00\n        /* \"#utility.yul\":7539:7548   */\n      dup4\n        /* \"#utility.yul\":7535:7552   */\n      add\n        /* \"#utility.yul\":7528:7575   */\n      mstore\n        /* \"#utility.yul\":7592:7723   */\n      tag_292\n        /* \"#utility.yul\":7718:7722   */\n      dup2\n        /* \"#utility.yul\":7592:7723   */\n      tag_197\n      jump\t// in\n    tag_292:\n        /* \"#utility.yul\":7584:7723   */\n      swap1\n      pop\n        /* \"#utility.yul\":7311:7730   */\n      swap2\n      swap1\n      pop\n      jump\t// out\n        /* \"#utility.yul\":7736:7910   */\n    tag_198:\n        /* \"#utility.yul\":7876:7902   */\n      0x43796265726f7263733a204c6f7720416c6c6f77616e63650000000000000000\n        /* \"#utility.yul\":7872:7873   */\n      0x00\n        /* \"#utility.yul\":7864:7870   */\n      dup3\n        /* \"#utility.yul\":7860:7874   */\n      add\n        /* \"#utility.yul\":7853:7903   */\n      mstore\n        /* \"#utility.yul\":7736:7910   */\n      pop\n      jump\t// out\n        /* \"#utility.yul\":7916:8282   */\n    tag_199:\n        /* \"#utility.yul\":8058:8061   */\n      0x00\n        /* \"#utility.yul\":8079:8146   */\n      tag_295\n        /* \"#utility.yul\":8143:8145   */\n      0x18\n        /* \"#utility.yul\":8138:8141   */\n      dup4\n        /* \"#utility.yul\":8079:8146   */\n      tag_175\n      jump\t// in\n    tag_295:\n        /* \"#utility.yul\":8072:8146   */\n      swap2\n      pop\n        /* \"#utility.yul\":8155:8248   */\n      tag_296\n        /* \"#utility.yul\":8244:8247   */\n      dup3\n        /* \"#utility.yul\":8155:8248   */\n      tag_198\n      jump\t// in\n    tag_296:\n        /* \"#utility.yul\":8273:8275   */\n      0x20\n        /* \"#utility.yul\":8268:8271   */\n      dup3\n        /* \"#utility.yul\":8264:8276   */\n      add\n        /* \"#utility.yul\":8257:8276   */\n      swap1\n      pop\n        /* \"#utility.yul\":7916:8282   */\n      swap2\n      swap1\n      pop\n      jump\t// out\n        /* \"#utility.yul\":8288:8707   */\n    tag_105:\n        /* \"#utility.yul\":8454:8458   */\n      0x00\n        /* \"#utility.yul\":8492:8494   */\n      0x20\n        /* \"#utility.yul\":8481:8490   */\n      dup3\n        /* \"#utility.yul\":8477:8495   */\n      add\n        /* \"#utility.yul\":8469:8495   */\n      swap1\n      pop\n        /* \"#utility.yul\":8541:8550   */\n      dup2\n        /* \"#utility.yul\":8535:8539   */\n      dup2\n        /* \"#utility.yul\":8531:8551   */\n      sub\n        /* \"#utility.yul\":8527:8528   */\n      0x00\n        /* \"#utility.yul\":8516:8525   */\n      dup4\n        /* \"#utility.yul\":8512:8529   */\n      add\n        /* \"#utility.yul\":8505:8552   */\n      mstore\n        /* \"#utility.yul\":8569:8700   */\n      tag_298\n        /* \"#utility.yul\":8695:8699   */\n      dup2\n        /* \"#utility.yul\":8569:8700   */\n      tag_199\n      jump\t// in\n    tag_298:\n        /* \"#utility.yul\":8561:8700   */\n      swap1\n      pop\n        /* \"#utility.yul\":8288:8707   */\n      swap2\n      swap1\n      pop\n      jump\t// out\n        /* \"#utility.yul\":8713:8893   */\n    tag_200:\n        /* \"#utility.yul\":8761:8838   */\n      0x4e487b7100000000000000000000000000000000000000000000000000000000\n        /* \"#utility.yul\":8758:8759   */\n      0x00\n        /* \"#utility.yul\":8751:8839   */\n      mstore\n        /* \"#utility.yul\":8858:8862   */\n      0x11\n        /* \"#utility.yul\":8855:8856   */\n      0x04\n        /* \"#utility.yul\":8848:8863   */\n      mstore\n        /* \"#utility.yul\":8882:8886   */\n      0x24\n        /* \"#utility.yul\":8879:8880   */\n      0x00\n        /* \"#utility.yul\":8872:8887   */\n      revert\n        /* \"#utility.yul\":8899:9093   */\n    tag_107:\n        /* \"#utility.yul\":8939:8943   */\n      0x00\n        /* \"#utility.yul\":8959:8979   */\n      tag_301\n        /* \"#utility.yul\":8977:8978   */\n      dup3\n        /* \"#utility.yul\":8959:8979   */\n      tag_187\n      jump\t// in\n    tag_301:\n        /* \"#utility.yul\":8954:8979   */\n      swap2\n      pop\n        /* \"#utility.yul\":8993:9013   */\n      tag_302\n        /* \"#utility.yul\":9011:9012   */\n      dup4\n        /* \"#utility.yul\":8993:9013   */\n      tag_187\n      jump\t// in\n    tag_302:\n        /* \"#utility.yul\":8988:9013   */\n      swap3\n      pop\n        /* \"#utility.yul\":9037:9038   */\n      dup3\n        /* \"#utility.yul\":9034:9035   */\n      dup3\n        /* \"#utility.yul\":9030:9039   */\n      sub\n        /* \"#utility.yul\":9022:9039   */\n      swap1\n      pop\n        /* \"#utility.yul\":9061:9062   */\n      dup2\n        /* \"#utility.yul\":9055:9059   */\n      dup2\n        /* \"#utility.yul\":9052:9063   */\n      gt\n        /* \"#utility.yul\":9049:9086   */\n      iszero\n      tag_303\n      jumpi\n        /* \"#utility.yul\":9066:9084   */\n      tag_304\n      tag_200\n      jump\t// in\n    tag_304:\n        /* \"#utility.yul\":9049:9086   */\n    tag_303:\n        /* \"#utility.yul\":8899:9093   */\n      swap3\n      swap2\n      pop\n      pop\n      jump\t// out\n        /* \"#utility.yul\":9099:9281   */\n    tag_201:\n        /* \"#utility.yul\":9239:9273   */\n      0x4f776e61626c653a2043616c6c6572206973206e6f7420746865204f776e6572\n        /* \"#utility.yul\":9235:9236   */\n      0x00\n        /* \"#utility.yul\":9227:9233   */\n      dup3\n        /* \"#utility.yul\":9223:9237   */\n      add\n        /* \"#utility.yul\":9216:9274   */\n      mstore\n        /* \"#utility.yul\":9099:9281   */\n      pop\n      jump\t// out\n        /* \"#utility.yul\":9287:9653   */\n    tag_202:\n        /* \"#utility.yul\":9429:9432   */\n      0x00\n        /* \"#utility.yul\":9450:9517   */\n      tag_307\n        /* \"#utility.yul\":9514:9516   */\n      0x20\n        /* \"#utility.yul\":9509:9512   */\n      dup4\n        /* \"#utility.yul\":9450:9517   */\n      tag_175\n      jump\t// in\n    tag_307:\n        /* \"#utility.yul\":9443:9517   */\n      swap2\n      pop\n        /* \"#utility.yul\":9526:9619   */\n      tag_308\n        /* \"#utility.yul\":9615:9618   */\n      dup3\n        /* \"#utility.yul\":9526:9619   */\n      tag_201\n      jump\t// in\n    tag_308:\n        /* \"#utility.yul\":9644:9646   */\n      0x20\n        /* \"#utility.yul\":9639:9642   */\n      dup3\n        /* \"#utility.yul\":9635:9647   */\n      add\n        /* \"#utility.yul\":9628:9647   */\n      swap1\n      pop\n        /* \"#utility.yul\":9287:9653   */\n      swap2\n      swap1\n      pop\n      jump\t// out\n        /* \"#utility.yul\":9659:10078   */\n    tag_116:\n        /* \"#utility.yul\":9825:9829   */\n      0x00\n        /* \"#utility.yul\":9863:9865   */\n      0x20\n        /* \"#utility.yul\":9852:9861   */\n      dup3\n        /* \"#utility.yul\":9848:9866   */\n      add\n        /* \"#utility.yul\":9840:9866   */\n      swap1\n      pop\n        /* \"#utility.yul\":9912:9921   */\n      dup2\n        /* \"#utility.yul\":9906:9910   */\n      dup2\n        /* \"#utility.yul\":9902:9922   */\n      sub\n        /* \"#utility.yul\":9898:9899   */\n      0x00\n        /* \"#utility.yul\":9887:9896   */\n      dup4\n        /* \"#utility.yul\":9883:9900   */\n      add\n        /* \"#utility.yul\":9876:9923   */\n      mstore\n        /* \"#utility.yul\":9940:10071   */\n      tag_310\n        /* \"#utility.yul\":10066:10070   */\n      dup2\n        /* \"#utility.yul\":9940:10071   */\n      tag_202\n      jump\t// in\n    tag_310:\n        /* \"#utility.yul\":9932:10071   */\n      swap1\n      pop\n        /* \"#utility.yul\":9659:10078   */\n      swap2\n      swap1\n      pop\n      jump\t// out\n        /* \"#utility.yul\":10084:10259   */\n    tag_203:\n        /* \"#utility.yul\":10224:10251   */\n      0x43796265726f7263733a205a65726f20726563697069656e7400000000000000\n        /* \"#utility.yul\":10220:10221   */\n      0x00\n        /* \"#utility.yul\":10212:10218   */\n      dup3\n        /* \"#utility.yul\":10208:10222   */\n      add\n        /* \"#utility.yul\":10201:10252   */\n      mstore\n        /* \"#utility.yul\":10084:10259   */\n      pop\n      jump\t// out\n        /* \"#utility.yul\":10265:10631   */\n    tag_204:\n        /* \"#utility.yul\":10407:10410   */\n      0x00\n        /* \"#utility.yul\":10428:10495   */\n      tag_313\n        /* \"#utility.yul\":10492:10494   */\n      0x19\n        /* \"#utility.yul\":10487:10490   */\n      dup4\n        /* \"#utility.yul\":10428:10495   */\n      tag_175\n      jump\t// in\n    tag_313:\n        /* \"#utility.yul\":10421:10495   */\n      swap2\n      pop\n        /* \"#utility.yul\":10504:10597   */\n      tag_314\n        /* \"#utility.yul\":10593:10596   */\n      dup3\n        /* \"#utility.yul\":10504:10597   */\n      tag_203\n      jump\t// in\n    tag_314:\n        /* \"#utility.yul\":10622:10624   */\n      0x20\n        /* \"#utility.yul\":10617:10620   */\n      dup3\n        /* \"#utility.yul\":10613:10625   */\n      add\n        /* \"#utility.yul\":10606:10625   */\n      swap1\n      pop\n        /* \"#utility.yul\":10265:10631   */\n      swap2\n      swap1\n      pop\n      jump\t// out\n        /* \"#utility.yul\":10637:11056   */\n    tag_120:\n        /* \"#utility.yul\":10803:10807   */\n      0x00\n        /* \"#utility.yul\":10841:10843   */\n      0x20\n        /* \"#utility.yul\":10830:10839   */\n      dup3\n        /* \"#utility.yul\":10826:10844   */\n      add\n        /* \"#utility.yul\":10818:10844   */\n      swap1\n      pop\n        /* \"#utility.yul\":10890:10899   */\n      dup2\n        /* \"#utility.yul\":10884:10888   */\n      dup2\n        /* \"#utility.yul\":10880:10900   */\n      sub\n        /* \"#utility.yul\":10876:10877   */\n      0x00\n        /* \"#utility.yul\":10865:10874   */\n      dup4\n        /* \"#utility.yul\":10861:10878   */\n      add\n        /* \"#utility.yul\":10854:10901   */\n      mstore\n        /* \"#utility.yul\":10918:11049   */\n      tag_316\n        /* \"#utility.yul\":11044:11048   */\n      dup2\n        /* \"#utility.yul\":10918:11049   */\n      tag_204\n      jump\t// in\n    tag_316:\n        /* \"#utility.yul\":10910:11049   */\n      swap1\n      pop\n        /* \"#utility.yul\":10637:11056   */\n      swap2\n      swap1\n      pop\n      jump\t// out\n        /* \"#utility.yul\":11062:11253   */\n    tag_122:\n        /* \"#utility.yul\":11102:11105   */\n      0x00\n        /* \"#utility.yul\":11121:11141   */\n      tag_318\n        /* \"#utility.yul\":11139:11140   */\n      dup3\n        /* \"#utility.yul\":11121:11141   */\n      tag_187\n      jump\t// in\n    tag_318:\n        /* \"#utility.yul\":11116:11141   */\n      swap2\n      pop\n        /* \"#utility.yul\":11155:11175   */\n      tag_319\n        /* \"#utility.yul\":11173:11174   */\n      dup4\n        /* \"#utility.yul\":11155:11175   */\n      tag_187\n      jump\t// in\n    tag_319:\n        /* \"#utility.yul\":11150:11175   */\n      swap3\n      pop\n        /* \"#utility.yul\":11198:11199   */\n      dup3\n        /* \"#utility.yul\":11195:11196   */\n      dup3\n        /* \"#utility.yul\":11191:11200   */\n      add\n        /* \"#utility.yul\":11184:11200   */\n      swap1\n      pop\n        /* \"#utility.yul\":11219:11222   */\n      dup1\n        /* \"#utility.yul\":11216:11217   */\n      dup3\n        /* \"#utility.yul\":11213:11223   */\n      gt\n        /* \"#utility.yul\":11210:11246   */\n      iszero\n      tag_320\n      jumpi\n        /* \"#utility.yul\":11226:11244   */\n      tag_321\n      tag_200\n      jump\t// in\n    tag_321:\n        /* \"#utility.yul\":11210:11246   */\n    tag_320:\n        /* \"#utility.yul\":11062:11253   */\n      swap3\n      swap2\n      pop\n      pop\n      jump\t// out\n        /* \"#utility.yul\":11259:11430   */\n    tag_205:\n        /* \"#utility.yul\":11399:11422   */\n      0x43796265726f7263733a204d617820537570706c790000000000000000000000\n        /* \"#utility.yul\":11395:11396   */\n      0x00\n        /* \"#utility.yul\":11387:11393   */\n      dup3\n        /* \"#utility.yul\":11383:11397   */\n      add\n        /* \"#utility.yul\":11376:11423   */\n      mstore\n        /* \"#utility.yul\":11259:11430   */\n      pop\n      jump\t// out\n        /* \"#utility.yul\":11436:11802   */\n    tag_206:\n        /* \"#utility.yul\":11578:11581   */\n      0x00\n        /* \"#utility.yul\":11599:11666   */\n      tag_324\n        /* \"#utility.yul\":11663:11665   */\n      0x15\n        /* \"#utility.yul\":11658:11661   */\n      dup4\n        /* \"#utility.yul\":11599:11666   */\n      tag_175\n      jump\t// in\n    tag_324:\n        /* \"#utility.yul\":11592:11666   */\n      swap2\n      pop\n        /* \"#utility.yul\":11675:11768   */\n      tag_325\n        /* \"#utility.yul\":11764:11767   */\n      dup3\n        /* \"#utility.yul\":11675:11768   */\n      tag_205\n      jump\t// in\n    tag_325:\n        /* \"#utility.yul\":11793:11795   */\n      0x20\n        /* \"#utility.yul\":11788:11791   */\n      dup3\n        /* \"#utility.yul\":11784:11796   */\n      add\n        /* \"#utility.yul\":11777:11796   */\n      swap1\n      pop\n        /* \"#utility.yul\":11436:11802   */\n      swap2\n      swap1\n      pop\n      jump\t// out\n        /* \"#utility.yul\":11808:12227   */\n    tag_125:\n        /* \"#utility.yul\":11974:11978   */\n      0x00\n        /* \"#utility.yul\":12012:12014   */\n      0x20\n        /* \"#utility.yul\":12001:12010   */\n      dup3\n        /* \"#utility.yul\":11997:12015   */\n      add\n        /* \"#utility.yul\":11989:12015   */\n      swap1\n      pop\n        /* \"#utility.yul\":12061:12070   */\n      dup2\n        /* \"#utility.yul\":12055:12059   */\n      dup2\n        /* \"#utility.yul\":12051:12071   */\n      sub\n        /* \"#utility.yul\":12047:12048   */\n      0x00\n        /* \"#utility.yul\":12036:12045   */\n      dup4\n        /* \"#utility.yul\":12032:12049   */\n      add\n        /* \"#utility.yul\":12025:12072   */\n      mstore\n        /* \"#utility.yul\":12089:12220   */\n      tag_327\n        /* \"#utility.yul\":12215:12219   */\n      dup2\n        /* \"#utility.yul\":12089:12220   */\n      tag_206\n      jump\t// in\n    tag_327:\n        /* \"#utility.yul\":12081:12220   */\n      swap1\n      pop\n        /* \"#utility.yul\":11808:12227   */\n      swap2\n      swap1\n      pop\n      jump\t// out\n        /* \"#utility.yul\":12233:12405   */\n    tag_207:\n        /* \"#utility.yul\":12373:12397   */\n      0x43796265726f7263733a204c6f772042616c616e636500000000000000000000\n        /* \"#utility.yul\":12369:12370   */\n      0x00\n        /* \"#utility.yul\":12361:12367   */\n      dup3\n        /* \"#utility.yul\":12357:12371   */\n      add\n        /* \"#utility.yul\":12350:12398   */\n      mstore\n        /* \"#utility.yul\":12233:12405   */\n      pop\n      jump\t// out\n        /* \"#utility.yul\":12411:12777   */\n    tag_208:\n        /* \"#utility.yul\":12553:12556   */\n      0x00\n        /* \"#utility.yul\":12574:12641   */\n      tag_330\n        /* \"#utility.yul\":12638:12640   */\n      0x16\n        /* \"#utility.yul\":12633:12636   */\n      dup4\n        /* \"#utility.yul\":12574:12641   */\n      tag_175\n      jump\t// in\n    tag_330:\n        /* \"#utility.yul\":12567:12641   */\n      swap2\n      pop\n        /* \"#utility.yul\":12650:12743   */\n      tag_331\n        /* \"#utility.yul\":12739:12742   */\n      dup3\n        /* \"#utility.yul\":12650:12743   */\n      tag_207\n      jump\t// in\n    tag_331:\n        /* \"#utility.yul\":12768:12770   */\n      0x20\n        /* \"#utility.yul\":12763:12766   */\n      dup3\n        /* \"#utility.yul\":12759:12771   */\n      add\n        /* \"#utility.yul\":12752:12771   */\n      swap1\n      pop\n        /* \"#utility.yul\":12411:12777   */\n      swap2\n      swap1\n      pop\n      jump\t// out\n        /* \"#utility.yul\":12783:13202   */\n    tag_132:\n        /* \"#utility.yul\":12949:12953   */\n      0x00\n        /* \"#utility.yul\":12987:12989   */\n      0x20\n        /* \"#utility.yul\":12976:12985   */\n      dup3\n        /* \"#utility.yul\":12972:12990   */\n      add\n        /* \"#utility.yul\":12964:12990   */\n      swap1\n      pop\n        /* \"#utility.yul\":13036:13045   */\n      dup2\n        /* \"#utility.yul\":13030:13034   */\n      dup2\n        /* \"#utility.yul\":13026:13046   */\n      sub\n        /* \"#utility.yul\":13022:13023   */\n      0x00\n        /* \"#utility.yul\":13011:13020   */\n      dup4\n        /* \"#utility.yul\":13007:13024   */\n      add\n        /* \"#utility.yul\":13000:13047   */\n      mstore\n        /* \"#utility.yul\":13064:13195   */\n      tag_333\n        /* \"#utility.yul\":13190:13194   */\n      dup2\n        /* \"#utility.yul\":13064:13195   */\n      tag_208\n      jump\t// in\n    tag_333:\n        /* \"#utility.yul\":13056:13195   */\n      swap1\n      pop\n        /* \"#utility.yul\":12783:13202   */\n      swap2\n      swap1\n      pop\n      jump\t// out\n        /* \"#utility.yul\":13208:13429   */\n    tag_209:\n        /* \"#utility.yul\":13348:13382   */\n      0x4f776e61626c653a206e6577206f776e6572206973207a65726f206164647265\n        /* \"#utility.yul\":13344:13345   */\n      0x00\n        /* \"#utility.yul\":13336:13342   */\n      dup3\n        /* \"#utility.yul\":13332:13346   */\n      add\n        /* \"#utility.yul\":13325:13383   */\n      mstore\n        /* \"#utility.yul\":13417:13421   */\n      0x7373000000000000000000000000000000000000000000000000000000000000\n        /* \"#utility.yul\":13412:13414   */\n      0x20\n        /* \"#utility.yul\":13404:13410   */\n      dup3\n        /* \"#utility.yul\":13400:13415   */\n      add\n        /* \"#utility.yul\":13393:13422   */\n      mstore\n        /* \"#utility.yul\":13208:13429   */\n      pop\n      jump\t// out\n        /* \"#utility.yul\":13435:13801   */\n    tag_210:\n        /* \"#utility.yul\":13577:13580   */\n      0x00\n        /* \"#utility.yul\":13598:13665   */\n      tag_336\n        /* \"#utility.yul\":13662:13664   */\n      0x22\n        /* \"#utility.yul\":13657:13660   */\n      dup4\n        /* \"#utility.yul\":13598:13665   */\n      tag_175\n      jump\t// in\n    tag_336:\n        /* \"#utility.yul\":13591:13665   */\n      swap2\n      pop\n        /* \"#utility.yul\":13674:13767   */\n      tag_337\n        /* \"#utility.yul\":13763:13766   */\n      dup3\n        /* \"#utility.yul\":13674:13767   */\n      tag_209\n      jump\t// in\n    tag_337:\n        /* \"#utility.yul\":13792:13794   */\n      0x40\n        /* \"#utility.yul\":13787:13790   */\n      dup3\n        /* \"#utility.yul\":13783:13795   */\n      add\n        /* \"#utility.yul\":13776:13795   */\n      swap1\n      pop\n        /* \"#utility.yul\":13435:13801   */\n      swap2\n      swap1\n      pop\n      jump\t// out\n        /* \"#utility.yul\":13807:14226   */\n    tag_163:\n        /* \"#utility.yul\":13973:13977   */\n      0x00\n        /* \"#utility.yul\":14011:14013   */\n      0x20\n        /* \"#utility.yul\":14000:14009   */\n      dup3\n        /* \"#utility.yul\":13996:14014   */\n      add\n        /* \"#utility.yul\":13988:14014   */\n      swap1\n      pop\n        /* \"#utility.yul\":14060:14069   */\n      dup2\n        /* \"#utility.yul\":14054:14058   */\n      dup2\n        /* \"#utility.yul\":14050:14070   */\n      sub\n        /* \"#utility.yul\":14046:14047   */\n      0x00\n        /* \"#utility.yul\":14035:14044   */\n      dup4\n        /* \"#utility.yul\":14031:14048   */\n      add\n        /* \"#utility.yul\":14024:14071   */\n      mstore\n        /* \"#utility.yul\":14088:14219   */\n      tag_339\n        /* \"#utility.yul\":14214:14218   */\n      dup2\n        /* \"#utility.yul\":14088:14219   */\n      tag_210\n      jump\t// in\n    tag_339:\n        /* \"#utility.yul\":14080:14219   */\n      swap1\n      pop\n        /* \"#utility.yul\":13807:14226   */\n      swap2\n      swap1\n      pop\n      jump\t// out\n\n    auxdata: 0xa26469706673582212203e384043f316470df5b418de5800bb8c59abfa9b7d8ea7fde1d252a8d0cf26eb64736f6c634300081e0033\n}\n",
				"bytecode": {
					"linkReferences": {},
					"object": "60a060405234801561000f575f5ffd5b506040516123713803806123718339818101604052810190610031919061059d565b33610041816101e060201b60201c565b505f73ffffffffffffffffffffffffffffffffffffffff168173ffffffffffffffffffffffffffffffffffffffff16036100b0576040517f08c379a00000000000000000000000000000000000000000000000000000000081526004016100a790610693565b60405180910390fd5b83600190816100bf91906108b8565b5082600290816100cf91906108b8565b5081608081815250503360045f6101000a81548173ffffffffffffffffffffffffffffffffffffffff021916908373ffffffffffffffffffffffffffffffffffffffff1602179055505f60028361012691906109b4565b90508060055f8473ffffffffffffffffffffffffffffffffffffffff1673ffffffffffffffffffffffffffffffffffffffff1681526020019081526020015f2081905550806003819055508173ffffffffffffffffffffffffffffffffffffffff165f73ffffffffffffffffffffffffffffffffffffffff167fddf252ad1be2c89b69c2b068fc378daa952ba7f163c4a11628f55a4df523b3ef836040516101ce91906109f3565b60405180910390a35050505050610b02565b6101ee6102db60201b60201c565b73ffffffffffffffffffffffffffffffffffffffff163373ffffffffffffffffffffffffffffffffffffffff161461025b576040517f08c379a000000000000000000000000000000000000000000000000000000000815260040161025290610a56565b60405180910390fd5b5f73ffffffffffffffffffffffffffffffffffffffff168173ffffffffffffffffffffffffffffffffffffffff16036102c9576040517f08c379a00000000000000000000000000000000000000000000000000000000081526004016102c090610ae4565b60405180910390fd5b6102d88161030260201b60201c565b50565b5f5f5f9054906101000a900473ffffffffffffffffffffffffffffffffffffffff16905090565b5f5f5f9054906101000a900473ffffffffffffffffffffffffffffffffffffffff169050815f5f6101000a81548173ffffffffffffffffffffffffffffffffffffffff021916908373ffffffffffffffffffffffffffffffffffffffff1602179055508173ffffffffffffffffffffffffffffffffffffffff168173ffffffffffffffffffffffffffffffffffffffff167f8be0079c531659141344cd1fd0a4f28419497f9722a3daafe3b4186f6b6457e060405160405180910390a35050565b5f604051905090565b5f5ffd5b5f5ffd5b5f5ffd5b5f5ffd5b5f601f19601f8301169050919050565b7f4e487b71000000000000000000000000000000000000000000000000000000005f52604160045260245ffd5b610422826103dc565b810181811067ffffffffffffffff82111715610441576104406103ec565b5b80604052505050565b5f6104536103c3565b905061045f8282610419565b919050565b5f67ffffffffffffffff82111561047e5761047d6103ec565b5b610487826103dc565b9050602081019050919050565b8281835e5f83830152505050565b5f6104b46104af84610464565b61044a565b9050828152602081018484840111156104d0576104cf6103d8565b5b6104db848285610494565b509392505050565b5f82601f8301126104f7576104f66103d4565b5b81516105078482602086016104a2565b91505092915050565b5f819050919050565b61052281610510565b811461052c575f5ffd5b50565b5f8151905061053d81610519565b92915050565b5f73ffffffffffffffffffffffffffffffffffffffff82169050919050565b5f61056c82610543565b9050919050565b61057c81610562565b8114610586575f5ffd5b50565b5f8151905061059781610573565b92915050565b5f5f5f5f608085870312156105b5576105b46103cc565b5b5f85015167ffffffffffffffff8111156105d2576105d16103d0565b5b6105de878288016104e3565b945050602085015167ffffffffffffffff8111156105ff576105fe6103d0565b5b61060b878288016104e3565b935050604061061c8782880161052f565b925050606061062d87828801610589565b91505092959194509250565b5f82825260208201905092915050565b7f5a65726f207472656173757279000000000000000000000000000000000000005f82015250565b5f61067d600d83610639565b915061068882610649565b602082019050919050565b5f6020820190508181035f8301526106aa81610671565b9050919050565b5f81519050919050565b7f4e487b71000000000000000000000000000000000000000000000000000000005f52602260045260245ffd5b5f60028204905060018216806106ff57607f821691505b602082108103610712576107116106bb565b5b50919050565b5f819050815f5260205f209050919050565b5f6020601f8301049050919050565b5f82821b905092915050565b5f600883026107747fffffffffffffffffffffffffffffffffffffffffffffffffffffffffffffffff82610739565b61077e8683610739565b95508019841693508086168417925050509392505050565b5f819050919050565b5f6107b96107b46107af84610510565b610796565b610510565b9050919050565b5f819050919050565b6107d28361079f565b6107e66107de826107c0565b848454610745565b825550505050565b5f5f905090565b6107fd6107ee565b6108088184846107c9565b505050565b5b8181101561082b576108205f826107f5565b60018101905061080e565b5050565b601f8211156108705761084181610718565b61084a8461072a565b81016020851015610859578190505b61086d6108658561072a565b83018261080d565b50505b505050565b5f82821c905092915050565b5f6108905f1984600802610875565b1980831691505092915050565b5f6108a88383610881565b9150826002028217905092915050565b6108c1826106b1565b67ffffffffffffffff8111156108da576108d96103ec565b5b6108e482546106e8565b6108ef82828561082f565b5f60209050601f831160018114610920575f841561090e578287015190505b610918858261089d565b86555061097f565b601f19841661092e86610718565b5f5b8281101561095557848901518255600182019150602085019450602081019050610930565b86831015610972578489015161096e601f891682610881565b8355505b6001600288020188555050505b505050505050565b7f4e487b71000000000000000000000000000000000000000000000000000000005f52601260045260245ffd5b5f6109be82610510565b91506109c983610510565b9250826109d9576109d8610987565b5b828204905092915050565b6109ed81610510565b82525050565b5f602082019050610a065f8301846109e4565b92915050565b7f4f776e61626c653a2043616c6c6572206973206e6f7420746865204f776e65725f82015250565b5f610a40602083610639565b9150610a4b82610a0c565b602082019050919050565b5f6020820190508181035f830152610a6d81610a34565b9050919050565b7f4f776e61626c653a206e6577206f776e6572206973207a65726f2061646472655f8201527f7373000000000000000000000000000000000000000000000000000000000000602082015250565b5f610ace602283610639565b9150610ad982610a74565b604082019050919050565b5f6020820190508181035f830152610afb81610ac2565b9050919050565b608051611850610b215f395f8181610757015261085f01526118505ff3fe608060405234801561000f575f5ffd5b5060043610610109575f3560e01c806342966c68116100a05780638da5cb5b1161006f5780638da5cb5b146102bb57806395d89b41146102d9578063a9059cbb146102f7578063dd62ed3e14610327578063f2fde38b1461035757610109565b806342966c681461023357806370a0823114610263578063715018a6146102935780637898cd181461029d57610109565b806323b872dd116100dc57806323b872dd14610197578063313ce567146101c757806332cb6b0c146101e557806340c10f191461020357610109565b806306fdde031461010d578063075461721461012b578063095ea7b31461014957806318160ddd14610179575b5f5ffd5b610115610373565b60405161012291906111a2565b60405180910390f35b610133610403565b6040516101409190611201565b60405180910390f35b610163600480360381019061015e919061127b565b610428565b60405161017091906112d3565b60405180910390f35b610181610583565b60405161018e91906112fb565b60405180910390f35b6101b160048036038101906101ac9190611314565b610589565b6040516101be91906112d3565b60405180910390f35b6101cf61074d565b6040516101dc919061137f565b60405180910390f35b6101ed610755565b6040516101fa91906112fb565b60405180910390f35b61021d6004803603810190610218919061127b565b610779565b60405161022a91906112d3565b60405180910390f35b61024d60048036038101906102489190611398565b6109a7565b60405161025a91906112d3565b60405180910390f35b61027d600480360381019061027891906113c3565b610b01565b60405161028a91906112fb565b60405180910390f35b61029b610b47565b005b6102a5610bc7565b6040516102b291906112fb565b60405180910390f35b6102c3610bd0565b6040516102d09190611201565b60405180910390f35b6102e1610bf7565b6040516102ee91906111a2565b60405180910390f35b610311600480360381019061030c919061127b565b610c87565b60405161031e91906112d3565b60405180910390f35b610341600480360381019061033c91906113ee565b610d02565b60405161034e91906112fb565b60405180910390f35b610371600480360381019061036c91906113c3565b610d84565b005b60606001805461038290611459565b80601f01602080910402602001604051908101604052809291908181526020018280546103ae90611459565b80156103f95780601f106103d0576101008083540402835291602001916103f9565b820191905f5260205f20905b8154815290600101906020018083116103dc57829003601f168201915b5050505050905090565b60045f9054906101000a900473ffffffffffffffffffffffffffffffffffffffff1681565b5f5f73ffffffffffffffffffffffffffffffffffffffff168373ffffffffffffffffffffffffffffffffffffffff1603610497576040517f08c379a000000000000000000000000000000000000000000000000000000000815260040161048e906114d3565b60405180910390fd5b8160065f3373ffffffffffffffffffffffffffffffffffffffff1673ffffffffffffffffffffffffffffffffffffffff1681526020019081526020015f205f8573ffffffffffffffffffffffffffffffffffffffff1673ffffffffffffffffffffffffffffffffffffffff1681526020019081526020015f20819055508273ffffffffffffffffffffffffffffffffffffffff163373ffffffffffffffffffffffffffffffffffffffff167f8c5be1e5ebec7d5bd14f71427d1e84f3dd0314c0f7b2291e5b200ac8c7c3b9258460405161057191906112fb565b60405180910390a36001905092915050565b60035481565b5f5f60065f8673ffffffffffffffffffffffffffffffffffffffff1673ffffffffffffffffffffffffffffffffffffffff1681526020019081526020015f205f3373ffffffffffffffffffffffffffffffffffffffff1673ffffffffffffffffffffffffffffffffffffffff1681526020019081526020015f2054905082811015610649576040517f08c379a00000000000000000000000000000000000000000000000000000000081526004016106409061153b565b60405180910390fd5b82816106559190611586565b60065f8773ffffffffffffffffffffffffffffffffffffffff1673ffffffffffffffffffffffffffffffffffffffff1681526020019081526020015f205f3373ffffffffffffffffffffffffffffffffffffffff1673ffffffffffffffffffffffffffffffffffffffff1681526020019081526020015f20819055506106dc858585610e73565b8373ffffffffffffffffffffffffffffffffffffffff168573ffffffffffffffffffffffffffffffffffffffff167fddf252ad1be2c89b69c2b068fc378daa952ba7f163c4a11628f55a4df523b3ef8560405161073991906112fb565b60405180910390a360019150509392505050565b5f6012905090565b7f000000000000000000000000000000000000000000000000000000000000000081565b5f610782610bd0565b73ffffffffffffffffffffffffffffffffffffffff163373ffffffffffffffffffffffffffffffffffffffff16146107ef576040517f08c379a00000000000000000000000000000000000000000000000000000000081526004016107e690611603565b60405180910390fd5b5f73ffffffffffffffffffffffffffffffffffffffff168373ffffffffffffffffffffffffffffffffffffffff160361085d576040517f08c379a00000000000000000000000000000000000000000000000000000000081526004016108549061166b565b60405180910390fd5b7f00000000000000000000000000000000000000000000000000000000000000008260035461088c9190611689565b11156108cd576040517f08c379a00000000000000000000000000000000000000000000000000000000081526004016108c490611706565b60405180910390fd5b8160055f8573ffffffffffffffffffffffffffffffffffffffff1673ffffffffffffffffffffffffffffffffffffffff1681526020019081526020015f205f8282546109199190611689565b925050819055508160035f8282546109319190611689565b925050819055508273ffffffffffffffffffffffffffffffffffffffff165f73ffffffffffffffffffffffffffffffffffffffff167fddf252ad1be2c89b69c2b068fc378daa952ba7f163c4a11628f55a4df523b3ef8460405161099591906112fb565b60405180910390a36001905092915050565b5f8160055f3373ffffffffffffffffffffffffffffffffffffffff1673ffffffffffffffffffffffffffffffffffffffff1681526020019081526020015f20541015610a28576040517f08c379a0000000000000000000000000000000000000000000000000000000008152600401610a1f9061176e565b60405180910390fd5b8160055f3373ffffffffffffffffffffffffffffffffffffffff1673ffffffffffffffffffffffffffffffffffffffff1681526020019081526020015f205f828254610a749190611586565b925050819055508160035f828254610a8c9190611586565b925050819055505f73ffffffffffffffffffffffffffffffffffffffff163373ffffffffffffffffffffffffffffffffffffffff167fddf252ad1be2c89b69c2b068fc378daa952ba7f163c4a11628f55a4df523b3ef84604051610af091906112fb565b60405180910390a360019050919050565b5f60055f8373ffffffffffffffffffffffffffffffffffffffff1673ffffffffffffffffffffffffffffffffffffffff1681526020019081526020015f20549050919050565b610b4f610bd0565b73ffffffffffffffffffffffffffffffffffffffff163373ffffffffffffffffffffffffffffffffffffffff1614610bbc576040517f08c379a0000000000000000000000000000000000000000000000000000000008152600401610bb390611603565b60405180910390fd5b610bc55f611071565b565b5f600354905090565b5f5f5f9054906101000a900473ffffffffffffffffffffffffffffffffffffffff16905090565b606060028054610c0690611459565b80601f0160208091040260200160405190810160405280929190818152602001828054610c3290611459565b8015610c7d5780601f10610c5457610100808354040283529160200191610c7d565b820191905f5260205f20905b815481529060010190602001808311610c6057829003601f168201915b5050505050905090565b5f610c93338484610e73565b8273ffffffffffffffffffffffffffffffffffffffff163373ffffffffffffffffffffffffffffffffffffffff167fddf252ad1be2c89b69c2b068fc378daa952ba7f163c4a11628f55a4df523b3ef84604051610cf091906112fb565b60405180910390a36001905092915050565b5f60065f8473ffffffffffffffffffffffffffffffffffffffff1673ffffffffffffffffffffffffffffffffffffffff1681526020019081526020015f205f8373ffffffffffffffffffffffffffffffffffffffff1673ffffffffffffffffffffffffffffffffffffffff1681526020019081526020015f2054905092915050565b610d8c610bd0565b73ffffffffffffffffffffffffffffffffffffffff163373ffffffffffffffffffffffffffffffffffffffff1614610df9576040517f08c379a0000000000000000000000000000000000000000000000000000000008152600401610df090611603565b60405180910390fd5b5f73ffffffffffffffffffffffffffffffffffffffff168173ffffffffffffffffffffffffffffffffffffffff1603610e67576040517f08c379a0000000000000000000000000000000000000000000000000000000008152600401610e5e906117fc565b60405180910390fd5b610e7081611071565b50565b5f73ffffffffffffffffffffffffffffffffffffffff168273ffffffffffffffffffffffffffffffffffffffff1603610ee1576040517f08c379a0000000000000000000000000000000000000000000000000000000008152600401610ed89061166b565b60405180910390fd5b8060055f8573ffffffffffffffffffffffffffffffffffffffff1673ffffffffffffffffffffffffffffffffffffffff1681526020019081526020015f20541015610f61576040517f08c379a0000000000000000000000000000000000000000000000000000000008152600401610f589061176e565b60405180910390fd5b8060055f8573ffffffffffffffffffffffffffffffffffffffff1673ffffffffffffffffffffffffffffffffffffffff1681526020019081526020015f205f828254610fad9190611586565b925050819055508060055f8473ffffffffffffffffffffffffffffffffffffffff1673ffffffffffffffffffffffffffffffffffffffff1681526020019081526020015f205f8282546110009190611689565b925050819055508173ffffffffffffffffffffffffffffffffffffffff168373ffffffffffffffffffffffffffffffffffffffff167fddf252ad1be2c89b69c2b068fc378daa952ba7f163c4a11628f55a4df523b3ef8360405161106491906112fb565b60405180910390a3505050565b5f5f5f9054906101000a900473ffffffffffffffffffffffffffffffffffffffff169050815f5f6101000a81548173ffffffffffffffffffffffffffffffffffffffff021916908373ffffffffffffffffffffffffffffffffffffffff1602179055508173ffffffffffffffffffffffffffffffffffffffff168173ffffffffffffffffffffffffffffffffffffffff167f8be0079c531659141344cd1fd0a4f28419497f9722a3daafe3b4186f6b6457e060405160405180910390a35050565b5f81519050919050565b5f82825260208201905092915050565b8281835e5f83830152505050565b5f601f19601f8301169050919050565b5f61117482611132565b61117e818561113c565b935061118e81856020860161114c565b6111978161115a565b840191505092915050565b5f6020820190508181035f8301526111ba818461116a565b905092915050565b5f73ffffffffffffffffffffffffffffffffffffffff82169050919050565b5f6111eb826111c2565b9050919050565b6111fb816111e1565b82525050565b5f6020820190506112145f8301846111f2565b92915050565b5f5ffd5b611227816111e1565b8114611231575f5ffd5b50565b5f813590506112428161121e565b92915050565b5f819050919050565b61125a81611248565b8114611264575f5ffd5b50565b5f8135905061127581611251565b92915050565b5f5f604083850312156112915761129061121a565b5b5f61129e85828601611234565b92505060206112af85828601611267565b9150509250929050565b5f8115159050919050565b6112cd816112b9565b82525050565b5f6020820190506112e65f8301846112c4565b92915050565b6112f581611248565b82525050565b5f60208201905061130e5f8301846112ec565b92915050565b5f5f5f6060848603121561132b5761132a61121a565b5b5f61133886828701611234565b935050602061134986828701611234565b925050604061135a86828701611267565b9150509250925092565b5f60ff82169050919050565b61137981611364565b82525050565b5f6020820190506113925f830184611370565b92915050565b5f602082840312156113ad576113ac61121a565b5b5f6113ba84828501611267565b91505092915050565b5f602082840312156113d8576113d761121a565b5b5f6113e584828501611234565b91505092915050565b5f5f604083850312156114045761140361121a565b5b5f61141185828601611234565b925050602061142285828601611234565b9150509250929050565b7f4e487b71000000000000000000000000000000000000000000000000000000005f52602260045260245ffd5b5f600282049050600182168061147057607f821691505b6020821081036114835761148261142c565b5b50919050565b7f43796265724f7263733a205a65726f20416464726573730000000000000000005f82015250565b5f6114bd60178361113c565b91506114c882611489565b602082019050919050565b5f6020820190508181035f8301526114ea816114b1565b9050919050565b7f43796265726f7263733a204c6f7720416c6c6f77616e636500000000000000005f82015250565b5f61152560188361113c565b9150611530826114f1565b602082019050919050565b5f6020820190508181035f83015261155281611519565b9050919050565b7f4e487b71000000000000000000000000000000000000000000000000000000005f52601160045260245ffd5b5f61159082611248565b915061159b83611248565b92508282039050818111156115b3576115b2611559565b5b92915050565b7f4f776e61626c653a2043616c6c6572206973206e6f7420746865204f776e65725f82015250565b5f6115ed60208361113c565b91506115f8826115b9565b602082019050919050565b5f6020820190508181035f83015261161a816115e1565b9050919050565b7f43796265726f7263733a205a65726f20726563697069656e74000000000000005f82015250565b5f61165560198361113c565b915061166082611621565b602082019050919050565b5f6020820190508181035f83015261168281611649565b9050919050565b5f61169382611248565b915061169e83611248565b92508282019050808211156116b6576116b5611559565b5b92915050565b7f43796265726f7263733a204d617820537570706c7900000000000000000000005f82015250565b5f6116f060158361113c565b91506116fb826116bc565b602082019050919050565b5f6020820190508181035f83015261171d816116e4565b9050919050565b7f43796265726f7263733a204c6f772042616c616e6365000000000000000000005f82015250565b5f61175860168361113c565b915061176382611724565b602082019050919050565b5f6020820190508181035f8301526117858161174c565b9050919050565b7f4f776e61626c653a206e6577206f776e6572206973207a65726f2061646472655f8201527f7373000000000000000000000000000000000000000000000000000000000000602082015250565b5f6117e660228361113c565b91506117f18261178c565b604082019050919050565b5f6020820190508181035f830152611813816117da565b905091905056fea26469706673582212203e384043f316470df5b418de5800bb8c59abfa9b7d8ea7fde1d252a8d0cf26eb64736f6c634300081e0033",
					"opcodes": "PUSH1 0xA0 PUSH1 0x40 MSTORE CALLVALUE DUP1 ISZERO PUSH2 0xF JUMPI PUSH0 PUSH0 REVERT JUMPDEST POP PUSH1 0x40 MLOAD PUSH2 0x2371 CODESIZE SUB DUP1 PUSH2 0x2371 DUP4 CODECOPY DUP2 DUP2 ADD PUSH1 0x40 MSTORE DUP2 ADD SWAP1 PUSH2 0x31 SWAP2 SWAP1 PUSH2 0x59D JUMP JUMPDEST CALLER PUSH2 0x41 DUP2 PUSH2 0x1E0 PUSH1 0x20 SHL PUSH1 0x20 SHR JUMP JUMPDEST POP PUSH0 PUSH20 0xFFFFFFFFFFFFFFFFFFFFFFFFFFFFFFFFFFFFFFFF AND DUP2 PUSH20 0xFFFFFFFFFFFFFFFFFFFFFFFFFFFFFFFFFFFFFFFF AND SUB PUSH2 0xB0 JUMPI PUSH1 0x40 MLOAD PUSH32 0x8C379A000000000000000000000000000000000000000000000000000000000 DUP2 MSTORE PUSH1 0x4 ADD PUSH2 0xA7 SWAP1 PUSH2 0x693 JUMP JUMPDEST PUSH1 0x40 MLOAD DUP1 SWAP2 SUB SWAP1 REVERT JUMPDEST DUP4 PUSH1 0x1 SWAP1 DUP2 PUSH2 0xBF SWAP2 SWAP1 PUSH2 0x8B8 JUMP JUMPDEST POP DUP3 PUSH1 0x2 SWAP1 DUP2 PUSH2 0xCF SWAP2 SWAP1 PUSH2 0x8B8 JUMP JUMPDEST POP DUP2 PUSH1 0x80 DUP2 DUP2 MSTORE POP POP CALLER PUSH1 0x4 PUSH0 PUSH2 0x100 EXP DUP2 SLOAD DUP2 PUSH20 0xFFFFFFFFFFFFFFFFFFFFFFFFFFFFFFFFFFFFFFFF MUL NOT AND SWAP1 DUP4 PUSH20 0xFFFFFFFFFFFFFFFFFFFFFFFFFFFFFFFFFFFFFFFF AND MUL OR SWAP1 SSTORE POP PUSH0 PUSH1 0x2 DUP4 PUSH2 0x126 SWAP2 SWAP1 PUSH2 0x9B4 JUMP JUMPDEST SWAP1 POP DUP1 PUSH1 0x5 PUSH0 DUP5 PUSH20 0xFFFFFFFFFFFFFFFFFFFFFFFFFFFFFFFFFFFFFFFF AND PUSH20 0xFFFFFFFFFFFFFFFFFFFFFFFFFFFFFFFFFFFFFFFF AND DUP2 MSTORE PUSH1 0x20 ADD SWAP1 DUP2 MSTORE PUSH1 0x20 ADD PUSH0 KECCAK256 DUP2 SWAP1 SSTORE POP DUP1 PUSH1 0x3 DUP2 SWAP1 SSTORE POP DUP2 PUSH20 0xFFFFFFFFFFFFFFFFFFFFFFFFFFFFFFFFFFFFFFFF AND PUSH0 PUSH20 0xFFFFFFFFFFFFFFFFFFFFFFFFFFFFFFFFFFFFFFFF AND PUSH32 0xDDF252AD1BE2C89B69C2B068FC378DAA952BA7F163C4A11628F55A4DF523B3EF DUP4 PUSH1 0x40 MLOAD PUSH2 0x1CE SWAP2 SWAP1 PUSH2 0x9F3 JUMP JUMPDEST PUSH1 0x40 MLOAD DUP1 SWAP2 SUB SWAP1 LOG3 POP POP POP POP POP PUSH2 0xB02 JUMP JUMPDEST PUSH2 0x1EE PUSH2 0x2DB PUSH1 0x20 SHL PUSH1 0x20 SHR JUMP JUMPDEST PUSH20 0xFFFFFFFFFFFFFFFFFFFFFFFFFFFFFFFFFFFFFFFF AND CALLER PUSH20 0xFFFFFFFFFFFFFFFFFFFFFFFFFFFFFFFFFFFFFFFF AND EQ PUSH2 0x25B JUMPI PUSH1 0x40 MLOAD PUSH32 0x8C379A000000000000000000000000000000000000000000000000000000000 DUP2 MSTORE PUSH1 0x4 ADD PUSH2 0x252 SWAP1 PUSH2 0xA56 JUMP JUMPDEST PUSH1 0x40 MLOAD DUP1 SWAP2 SUB SWAP1 REVERT JUMPDEST PUSH0 PUSH20 0xFFFFFFFFFFFFFFFFFFFFFFFFFFFFFFFFFFFFFFFF AND DUP2 PUSH20 0xFFFFFFFFFFFFFFFFFFFFFFFFFFFFFFFFFFFFFFFF AND SUB PUSH2 0x2C9 JUMPI PUSH1 0x40 MLOAD PUSH32 0x8C379A000000000000000000000000000000000000000000000000000000000 DUP2 MSTORE PUSH1 0x4 ADD PUSH2 0x2C0 SWAP1 PUSH2 0xAE4 JUMP JUMPDEST PUSH1 0x40 MLOAD DUP1 SWAP2 SUB SWAP1 REVERT JUMPDEST PUSH2 0x2D8 DUP2 PUSH2 0x302 PUSH1 0x20 SHL PUSH1 0x20 SHR JUMP JUMPDEST POP JUMP JUMPDEST PUSH0 PUSH0 PUSH0 SWAP1 SLOAD SWAP1 PUSH2 0x100 EXP SWAP1 DIV PUSH20 0xFFFFFFFFFFFFFFFFFFFFFFFFFFFFFFFFFFFFFFFF AND SWAP1 POP SWAP1 JUMP JUMPDEST PUSH0 PUSH0 PUSH0 SWAP1 SLOAD SWAP1 PUSH2 0x100 EXP SWAP1 DIV PUSH20 0xFFFFFFFFFFFFFFFFFFFFFFFFFFFFFFFFFFFFFFFF AND SWAP1 POP DUP2 PUSH0 PUSH0 PUSH2 0x100 EXP DUP2 SLOAD DUP2 PUSH20 0xFFFFFFFFFFFFFFFFFFFFFFFFFFFFFFFFFFFFFFFF MUL NOT AND SWAP1 DUP4 PUSH20 0xFFFFFFFFFFFFFFFFFFFFFFFFFFFFFFFFFFFFFFFF AND MUL OR SWAP1 SSTORE POP DUP2 PUSH20 0xFFFFFFFFFFFFFFFFFFFFFFFFFFFFFFFFFFFFFFFF AND DUP2 PUSH20 0xFFFFFFFFFFFFFFFFFFFFFFFFFFFFFFFFFFFFFFFF AND PUSH32 0x8BE0079C531659141344CD1FD0A4F28419497F9722A3DAAFE3B4186F6B6457E0 PUSH1 0x40 MLOAD PUSH1 0x40 MLOAD DUP1 SWAP2 SUB SWAP1 LOG3 POP POP JUMP JUMPDEST PUSH0 PUSH1 0x40 MLOAD SWAP1 POP SWAP1 JUMP JUMPDEST PUSH0 PUSH0 REVERT JUMPDEST PUSH0 PUSH0 REVERT JUMPDEST PUSH0 PUSH0 REVERT JUMPDEST PUSH0 PUSH0 REVERT JUMPDEST PUSH0 PUSH1 0x1F NOT PUSH1 0x1F DUP4 ADD AND SWAP1 POP SWAP2 SWAP1 POP JUMP JUMPDEST PUSH32 0x4E487B7100000000000000000000000000000000000000000000000000000000 PUSH0 MSTORE PUSH1 0x41 PUSH1 0x4 MSTORE PUSH1 0x24 PUSH0 REVERT JUMPDEST PUSH2 0x422 DUP3 PUSH2 0x3DC JUMP JUMPDEST DUP2 ADD DUP2 DUP2 LT PUSH8 0xFFFFFFFFFFFFFFFF DUP3 GT OR ISZERO PUSH2 0x441 JUMPI PUSH2 0x440 PUSH2 0x3EC JUMP JUMPDEST JUMPDEST DUP1 PUSH1 0x40 MSTORE POP POP POP JUMP JUMPDEST PUSH0 PUSH2 0x453 PUSH2 0x3C3 JUMP JUMPDEST SWAP1 POP PUSH2 0x45F DUP3 DUP3 PUSH2 0x419 JUMP JUMPDEST SWAP2 SWAP1 POP JUMP JUMPDEST PUSH0 PUSH8 0xFFFFFFFFFFFFFFFF DUP3 GT ISZERO PUSH2 0x47E JUMPI PUSH2 0x47D PUSH2 0x3EC JUMP JUMPDEST JUMPDEST PUSH2 0x487 DUP3 PUSH2 0x3DC JUMP JUMPDEST SWAP1 POP PUSH1 0x20 DUP2 ADD SWAP1 POP SWAP2 SWAP1 POP JUMP JUMPDEST DUP3 DUP2 DUP4 MCOPY PUSH0 DUP4 DUP4 ADD MSTORE POP POP POP JUMP JUMPDEST PUSH0 PUSH2 0x4B4 PUSH2 0x4AF DUP5 PUSH2 0x464 JUMP JUMPDEST PUSH2 0x44A JUMP JUMPDEST SWAP1 POP DUP3 DUP2 MSTORE PUSH1 0x20 DUP2 ADD DUP5 DUP5 DUP5 ADD GT ISZERO PUSH2 0x4D0 JUMPI PUSH2 0x4CF PUSH2 0x3D8 JUMP JUMPDEST JUMPDEST PUSH2 0x4DB DUP5 DUP3 DUP6 PUSH2 0x494 JUMP JUMPDEST POP SWAP4 SWAP3 POP POP POP JUMP JUMPDEST PUSH0 DUP3 PUSH1 0x1F DUP4 ADD SLT PUSH2 0x4F7 JUMPI PUSH2 0x4F6 PUSH2 0x3D4 JUMP JUMPDEST JUMPDEST DUP2 MLOAD PUSH2 0x507 DUP5 DUP3 PUSH1 0x20 DUP7 ADD PUSH2 0x4A2 JUMP JUMPDEST SWAP2 POP POP SWAP3 SWAP2 POP POP JUMP JUMPDEST PUSH0 DUP2 SWAP1 POP SWAP2 SWAP1 POP JUMP JUMPDEST PUSH2 0x522 DUP2 PUSH2 0x510 JUMP JUMPDEST DUP2 EQ PUSH2 0x52C JUMPI PUSH0 PUSH0 REVERT JUMPDEST POP JUMP JUMPDEST PUSH0 DUP2 MLOAD SWAP1 POP PUSH2 0x53D DUP2 PUSH2 0x519 JUMP JUMPDEST SWAP3 SWAP2 POP POP JUMP JUMPDEST PUSH0 PUSH20 0xFFFFFFFFFFFFFFFFFFFFFFFFFFFFFFFFFFFFFFFF DUP3 AND SWAP1 POP SWAP2 SWAP1 POP JUMP JUMPDEST PUSH0 PUSH2 0x56C DUP3 PUSH2 0x543 JUMP JUMPDEST SWAP1 POP SWAP2 SWAP1 POP JUMP JUMPDEST PUSH2 0x57C DUP2 PUSH2 0x562 JUMP JUMPDEST DUP2 EQ PUSH2 0x586 JUMPI PUSH0 PUSH0 REVERT JUMPDEST POP JUMP JUMPDEST PUSH0 DUP2 MLOAD SWAP1 POP PUSH2 0x597 DUP2 PUSH2 0x573 JUMP JUMPDEST SWAP3 SWAP2 POP POP JUMP JUMPDEST PUSH0 PUSH0 PUSH0 PUSH0 PUSH1 0x80 DUP6 DUP8 SUB SLT ISZERO PUSH2 0x5B5 JUMPI PUSH2 0x5B4 PUSH2 0x3CC JUMP JUMPDEST JUMPDEST PUSH0 DUP6 ADD MLOAD PUSH8 0xFFFFFFFFFFFFFFFF DUP2 GT ISZERO PUSH2 0x5D2 JUMPI PUSH2 0x5D1 PUSH2 0x3D0 JUMP JUMPDEST JUMPDEST PUSH2 0x5DE DUP8 DUP3 DUP9 ADD PUSH2 0x4E3 JUMP JUMPDEST SWAP5 POP POP PUSH1 0x20 DUP6 ADD MLOAD PUSH8 0xFFFFFFFFFFFFFFFF DUP2 GT ISZERO PUSH2 0x5FF JUMPI PUSH2 0x5FE PUSH2 0x3D0 JUMP JUMPDEST JUMPDEST PUSH2 0x60B DUP8 DUP3 DUP9 ADD PUSH2 0x4E3 JUMP JUMPDEST SWAP4 POP POP PUSH1 0x40 PUSH2 0x61C DUP8 DUP3 DUP9 ADD PUSH2 0x52F JUMP JUMPDEST SWAP3 POP POP PUSH1 0x60 PUSH2 0x62D DUP8 DUP3 DUP9 ADD PUSH2 0x589 JUMP JUMPDEST SWAP2 POP POP SWAP3 SWAP6 SWAP2 SWAP5 POP SWAP3 POP JUMP JUMPDEST PUSH0 DUP3 DUP3 MSTORE PUSH1 0x20 DUP3 ADD SWAP1 POP SWAP3 SWAP2 POP POP JUMP JUMPDEST PUSH32 0x5A65726F20747265617375727900000000000000000000000000000000000000 PUSH0 DUP3 ADD MSTORE POP JUMP JUMPDEST PUSH0 PUSH2 0x67D PUSH1 0xD DUP4 PUSH2 0x639 JUMP JUMPDEST SWAP2 POP PUSH2 0x688 DUP3 PUSH2 0x649 JUMP JUMPDEST PUSH1 0x20 DUP3 ADD SWAP1 POP SWAP2 SWAP1 POP JUMP JUMPDEST PUSH0 PUSH1 0x20 DUP3 ADD SWAP1 POP DUP2 DUP2 SUB PUSH0 DUP4 ADD MSTORE PUSH2 0x6AA DUP2 PUSH2 0x671 JUMP JUMPDEST SWAP1 POP SWAP2 SWAP1 POP JUMP JUMPDEST PUSH0 DUP2 MLOAD SWAP1 POP SWAP2 SWAP1 POP JUMP JUMPDEST PUSH32 0x4E487B7100000000000000000000000000000000000000000000000000000000 PUSH0 MSTORE PUSH1 0x22 PUSH1 0x4 MSTORE PUSH1 0x24 PUSH0 REVERT JUMPDEST PUSH0 PUSH1 0x2 DUP3 DIV SWAP1 POP PUSH1 0x1 DUP3 AND DUP1 PUSH2 0x6FF JUMPI PUSH1 0x7F DUP3 AND SWAP2 POP JUMPDEST PUSH1 0x20 DUP3 LT DUP2 SUB PUSH2 0x712 JUMPI PUSH2 0x711 PUSH2 0x6BB JUMP JUMPDEST JUMPDEST POP SWAP2 SWAP1 POP JUMP JUMPDEST PUSH0 DUP2 SWAP1 POP DUP2 PUSH0 MSTORE PUSH1 0x20 PUSH0 KECCAK256 SWAP1 POP SWAP2 SWAP1 POP JUMP JUMPDEST PUSH0 PUSH1 0x20 PUSH1 0x1F DUP4 ADD DIV SWAP1 POP SWAP2 SWAP1 POP JUMP JUMPDEST PUSH0 DUP3 DUP3 SHL SWAP1 POP SWAP3 SWAP2 POP POP JUMP JUMPDEST PUSH0 PUSH1 0x8 DUP4 MUL PUSH2 0x774 PUSH32 0xFFFFFFFFFFFFFFFFFFFFFFFFFFFFFFFFFFFFFFFFFFFFFFFFFFFFFFFFFFFFFFFF DUP3 PUSH2 0x739 JUMP JUMPDEST PUSH2 0x77E DUP7 DUP4 PUSH2 0x739 JUMP JUMPDEST SWAP6 POP DUP1 NOT DUP5 AND SWAP4 POP DUP1 DUP7 AND DUP5 OR SWAP3 POP POP POP SWAP4 SWAP3 POP POP POP JUMP JUMPDEST PUSH0 DUP2 SWAP1 POP SWAP2 SWAP1 POP JUMP JUMPDEST PUSH0 PUSH2 0x7B9 PUSH2 0x7B4 PUSH2 0x7AF DUP5 PUSH2 0x510 JUMP JUMPDEST PUSH2 0x796 JUMP JUMPDEST PUSH2 0x510 JUMP JUMPDEST SWAP1 POP SWAP2 SWAP1 POP JUMP JUMPDEST PUSH0 DUP2 SWAP1 POP SWAP2 SWAP1 POP JUMP JUMPDEST PUSH2 0x7D2 DUP4 PUSH2 0x79F JUMP JUMPDEST PUSH2 0x7E6 PUSH2 0x7DE DUP3 PUSH2 0x7C0 JUMP JUMPDEST DUP5 DUP5 SLOAD PUSH2 0x745 JUMP JUMPDEST DUP3 SSTORE POP POP POP POP JUMP JUMPDEST PUSH0 PUSH0 SWAP1 POP SWAP1 JUMP JUMPDEST PUSH2 0x7FD PUSH2 0x7EE JUMP JUMPDEST PUSH2 0x808 DUP2 DUP5 DUP5 PUSH2 0x7C9 JUMP JUMPDEST POP POP POP JUMP JUMPDEST JUMPDEST DUP2 DUP2 LT ISZERO PUSH2 0x82B JUMPI PUSH2 0x820 PUSH0 DUP3 PUSH2 0x7F5 JUMP JUMPDEST PUSH1 0x1 DUP2 ADD SWAP1 POP PUSH2 0x80E JUMP JUMPDEST POP POP JUMP JUMPDEST PUSH1 0x1F DUP3 GT ISZERO PUSH2 0x870 JUMPI PUSH2 0x841 DUP2 PUSH2 0x718 JUMP JUMPDEST PUSH2 0x84A DUP5 PUSH2 0x72A JUMP JUMPDEST DUP2 ADD PUSH1 0x20 DUP6 LT ISZERO PUSH2 0x859 JUMPI DUP2 SWAP1 POP JUMPDEST PUSH2 0x86D PUSH2 0x865 DUP6 PUSH2 0x72A JUMP JUMPDEST DUP4 ADD DUP3 PUSH2 0x80D JUMP JUMPDEST POP POP JUMPDEST POP POP POP JUMP JUMPDEST PUSH0 DUP3 DUP3 SHR SWAP1 POP SWAP3 SWAP2 POP POP JUMP JUMPDEST PUSH0 PUSH2 0x890 PUSH0 NOT DUP5 PUSH1 0x8 MUL PUSH2 0x875 JUMP JUMPDEST NOT DUP1 DUP4 AND SWAP2 POP POP SWAP3 SWAP2 POP POP JUMP JUMPDEST PUSH0 PUSH2 0x8A8 DUP4 DUP4 PUSH2 0x881 JUMP JUMPDEST SWAP2 POP DUP3 PUSH1 0x2 MUL DUP3 OR SWAP1 POP SWAP3 SWAP2 POP POP JUMP JUMPDEST PUSH2 0x8C1 DUP3 PUSH2 0x6B1 JUMP JUMPDEST PUSH8 0xFFFFFFFFFFFFFFFF DUP2 GT ISZERO PUSH2 0x8DA JUMPI PUSH2 0x8D9 PUSH2 0x3EC JUMP JUMPDEST JUMPDEST PUSH2 0x8E4 DUP3 SLOAD PUSH2 0x6E8 JUMP JUMPDEST PUSH2 0x8EF DUP3 DUP3 DUP6 PUSH2 0x82F JUMP JUMPDEST PUSH0 PUSH1 0x20 SWAP1 POP PUSH1 0x1F DUP4 GT PUSH1 0x1 DUP2 EQ PUSH2 0x920 JUMPI PUSH0 DUP5 ISZERO PUSH2 0x90E JUMPI DUP3 DUP8 ADD MLOAD SWAP1 POP JUMPDEST PUSH2 0x918 DUP6 DUP3 PUSH2 0x89D JUMP JUMPDEST DUP7 SSTORE POP PUSH2 0x97F JUMP JUMPDEST PUSH1 0x1F NOT DUP5 AND PUSH2 0x92E DUP7 PUSH2 0x718 JUMP JUMPDEST PUSH0 JUMPDEST DUP3 DUP2 LT ISZERO PUSH2 0x955 JUMPI DUP5 DUP10 ADD MLOAD DUP3 SSTORE PUSH1 0x1 DUP3 ADD SWAP2 POP PUSH1 0x20 DUP6 ADD SWAP5 POP PUSH1 0x20 DUP2 ADD SWAP1 POP PUSH2 0x930 JUMP JUMPDEST DUP7 DUP4 LT ISZERO PUSH2 0x972 JUMPI DUP5 DUP10 ADD MLOAD PUSH2 0x96E PUSH1 0x1F DUP10 AND DUP3 PUSH2 0x881 JUMP JUMPDEST DUP4 SSTORE POP JUMPDEST PUSH1 0x1 PUSH1 0x2 DUP9 MUL ADD DUP9 SSTORE POP POP POP JUMPDEST POP POP POP POP POP POP JUMP JUMPDEST PUSH32 0x4E487B7100000000000000000000000000000000000000000000000000000000 PUSH0 MSTORE PUSH1 0x12 PUSH1 0x4 MSTORE PUSH1 0x24 PUSH0 REVERT JUMPDEST PUSH0 PUSH2 0x9BE DUP3 PUSH2 0x510 JUMP JUMPDEST SWAP2 POP PUSH2 0x9C9 DUP4 PUSH2 0x510 JUMP JUMPDEST SWAP3 POP DUP3 PUSH2 0x9D9 JUMPI PUSH2 0x9D8 PUSH2 0x987 JUMP JUMPDEST JUMPDEST DUP3 DUP3 DIV SWAP1 POP SWAP3 SWAP2 POP POP JUMP JUMPDEST PUSH2 0x9ED DUP2 PUSH2 0x510 JUMP JUMPDEST DUP3 MSTORE POP POP JUMP JUMPDEST PUSH0 PUSH1 0x20 DUP3 ADD SWAP1 POP PUSH2 0xA06 PUSH0 DUP4 ADD DUP5 PUSH2 0x9E4 JUMP JUMPDEST SWAP3 SWAP2 POP POP JUMP JUMPDEST PUSH32 0x4F776E61626C653A2043616C6C6572206973206E6F7420746865204F776E6572 PUSH0 DUP3 ADD MSTORE POP JUMP JUMPDEST PUSH0 PUSH2 0xA40 PUSH1 0x20 DUP4 PUSH2 0x639 JUMP JUMPDEST SWAP2 POP PUSH2 0xA4B DUP3 PUSH2 0xA0C JUMP JUMPDEST PUSH1 0x20 DUP3 ADD SWAP1 POP SWAP2 SWAP1 POP JUMP JUMPDEST PUSH0 PUSH1 0x20 DUP3 ADD SWAP1 POP DUP2 DUP2 SUB PUSH0 DUP4 ADD MSTORE PUSH2 0xA6D DUP2 PUSH2 0xA34 JUMP JUMPDEST SWAP1 POP SWAP2 SWAP1 POP JUMP JUMPDEST PUSH32 0x4F776E61626C653A206E6577206F776E6572206973207A65726F206164647265 PUSH0 DUP3 ADD MSTORE PUSH32 0x7373000000000000000000000000000000000000000000000000000000000000 PUSH1 0x20 DUP3 ADD MSTORE POP JUMP JUMPDEST PUSH0 PUSH2 0xACE PUSH1 0x22 DUP4 PUSH2 0x639 JUMP JUMPDEST SWAP2 POP PUSH2 0xAD9 DUP3 PUSH2 0xA74 JUMP JUMPDEST PUSH1 0x40 DUP3 ADD SWAP1 POP SWAP2 SWAP1 POP JUMP JUMPDEST PUSH0 PUSH1 0x20 DUP3 ADD SWAP1 POP DUP2 DUP2 SUB PUSH0 DUP4 ADD MSTORE PUSH2 0xAFB DUP2 PUSH2 0xAC2 JUMP JUMPDEST SWAP1 POP SWAP2 SWAP1 POP JUMP JUMPDEST PUSH1 0x80 MLOAD PUSH2 0x1850 PUSH2 0xB21 PUSH0 CODECOPY PUSH0 DUP2 DUP2 PUSH2 0x757 ADD MSTORE PUSH2 0x85F ADD MSTORE PUSH2 0x1850 PUSH0 RETURN INVALID PUSH1 0x80 PUSH1 0x40 MSTORE CALLVALUE DUP1 ISZERO PUSH2 0xF JUMPI PUSH0 PUSH0 REVERT JUMPDEST POP PUSH1 0x4 CALLDATASIZE LT PUSH2 0x109 JUMPI PUSH0 CALLDATALOAD PUSH1 0xE0 SHR DUP1 PUSH4 0x42966C68 GT PUSH2 0xA0 JUMPI DUP1 PUSH4 0x8DA5CB5B GT PUSH2 0x6F JUMPI DUP1 PUSH4 0x8DA5CB5B EQ PUSH2 0x2BB JUMPI DUP1 PUSH4 0x95D89B41 EQ PUSH2 0x2D9 JUMPI DUP1 PUSH4 0xA9059CBB EQ PUSH2 0x2F7 JUMPI DUP1 PUSH4 0xDD62ED3E EQ PUSH2 0x327 JUMPI DUP1 PUSH4 0xF2FDE38B EQ PUSH2 0x357 JUMPI PUSH2 0x109 JUMP JUMPDEST DUP1 PUSH4 0x42966C68 EQ PUSH2 0x233 JUMPI DUP1 PUSH4 0x70A08231 EQ PUSH2 0x263 JUMPI DUP1 PUSH4 0x715018A6 EQ PUSH2 0x293 JUMPI DUP1 PUSH4 0x7898CD18 EQ PUSH2 0x29D JUMPI PUSH2 0x109 JUMP JUMPDEST DUP1 PUSH4 0x23B872DD GT PUSH2 0xDC JUMPI DUP1 PUSH4 0x23B872DD EQ PUSH2 0x197 JUMPI DUP1 PUSH4 0x313CE567 EQ PUSH2 0x1C7 JUMPI DUP1 PUSH4 0x32CB6B0C EQ PUSH2 0x1E5 JUMPI DUP1 PUSH4 0x40C10F19 EQ PUSH2 0x203 JUMPI PUSH2 0x109 JUMP JUMPDEST DUP1 PUSH4 0x6FDDE03 EQ PUSH2 0x10D JUMPI DUP1 PUSH4 0x7546172 EQ PUSH2 0x12B JUMPI DUP1 PUSH4 0x95EA7B3 EQ PUSH2 0x149 JUMPI DUP1 PUSH4 0x18160DDD EQ PUSH2 0x179 JUMPI JUMPDEST PUSH0 PUSH0 REVERT JUMPDEST PUSH2 0x115 PUSH2 0x373 JUMP JUMPDEST PUSH1 0x40 MLOAD PUSH2 0x122 SWAP2 SWAP1 PUSH2 0x11A2 JUMP JUMPDEST PUSH1 0x40 MLOAD DUP1 SWAP2 SUB SWAP1 RETURN JUMPDEST PUSH2 0x133 PUSH2 0x403 JUMP JUMPDEST PUSH1 0x40 MLOAD PUSH2 0x140 SWAP2 SWAP1 PUSH2 0x1201 JUMP JUMPDEST PUSH1 0x40 MLOAD DUP1 SWAP2 SUB SWAP1 RETURN JUMPDEST PUSH2 0x163 PUSH1 0x4 DUP1 CALLDATASIZE SUB DUP2 ADD SWAP1 PUSH2 0x15E SWAP2 SWAP1 PUSH2 0x127B JUMP JUMPDEST PUSH2 0x428 JUMP JUMPDEST PUSH1 0x40 MLOAD PUSH2 0x170 SWAP2 SWAP1 PUSH2 0x12D3 JUMP JUMPDEST PUSH1 0x40 MLOAD DUP1 SWAP2 SUB SWAP1 RETURN JUMPDEST PUSH2 0x181 PUSH2 0x583 JUMP JUMPDEST PUSH1 0x40 MLOAD PUSH2 0x18E SWAP2 SWAP1 PUSH2 0x12FB JUMP JUMPDEST PUSH1 0x40 MLOAD DUP1 SWAP2 SUB SWAP1 RETURN JUMPDEST PUSH2 0x1B1 PUSH1 0x4 DUP1 CALLDATASIZE SUB DUP2 ADD SWAP1 PUSH2 0x1AC SWAP2 SWAP1 PUSH2 0x1314 JUMP JUMPDEST PUSH2 0x589 JUMP JUMPDEST PUSH1 0x40 MLOAD PUSH2 0x1BE SWAP2 SWAP1 PUSH2 0x12D3 JUMP JUMPDEST PUSH1 0x40 MLOAD DUP1 SWAP2 SUB SWAP1 RETURN JUMPDEST PUSH2 0x1CF PUSH2 0x74D JUMP JUMPDEST PUSH1 0x40 MLOAD PUSH2 0x1DC SWAP2 SWAP1 PUSH2 0x137F JUMP JUMPDEST PUSH1 0x40 MLOAD DUP1 SWAP2 SUB SWAP1 RETURN JUMPDEST PUSH2 0x1ED PUSH2 0x755 JUMP JUMPDEST PUSH1 0x40 MLOAD PUSH2 0x1FA SWAP2 SWAP1 PUSH2 0x12FB JUMP JUMPDEST PUSH1 0x40 MLOAD DUP1 SWAP2 SUB SWAP1 RETURN JUMPDEST PUSH2 0x21D PUSH1 0x4 DUP1 CALLDATASIZE SUB DUP2 ADD SWAP1 PUSH2 0x218 SWAP2 SWAP1 PUSH2 0x127B JUMP JUMPDEST PUSH2 0x779 JUMP JUMPDEST PUSH1 0x40 MLOAD PUSH2 0x22A SWAP2 SWAP1 PUSH2 0x12D3 JUMP JUMPDEST PUSH1 0x40 MLOAD DUP1 SWAP2 SUB SWAP1 RETURN JUMPDEST PUSH2 0x24D PUSH1 0x4 DUP1 CALLDATASIZE SUB DUP2 ADD SWAP1 PUSH2 0x248 SWAP2 SWAP1 PUSH2 0x1398 JUMP JUMPDEST PUSH2 0x9A7 JUMP JUMPDEST PUSH1 0x40 MLOAD PUSH2 0x25A SWAP2 SWAP1 PUSH2 0x12D3 JUMP JUMPDEST PUSH1 0x40 MLOAD DUP1 SWAP2 SUB SWAP1 RETURN JUMPDEST PUSH2 0x27D PUSH1 0x4 DUP1 CALLDATASIZE SUB DUP2 ADD SWAP1 PUSH2 0x278 SWAP2 SWAP1 PUSH2 0x13C3 JUMP JUMPDEST PUSH2 0xB01 JUMP JUMPDEST PUSH1 0x40 MLOAD PUSH2 0x28A SWAP2 SWAP1 PUSH2 0x12FB JUMP JUMPDEST PUSH1 0x40 MLOAD DUP1 SWAP2 SUB SWAP1 RETURN JUMPDEST PUSH2 0x29B PUSH2 0xB47 JUMP JUMPDEST STOP JUMPDEST PUSH2 0x2A5 PUSH2 0xBC7 JUMP JUMPDEST PUSH1 0x40 MLOAD PUSH2 0x2B2 SWAP2 SWAP1 PUSH2 0x12FB JUMP JUMPDEST PUSH1 0x40 MLOAD DUP1 SWAP2 SUB SWAP1 RETURN JUMPDEST PUSH2 0x2C3 PUSH2 0xBD0 JUMP JUMPDEST PUSH1 0x40 MLOAD PUSH2 0x2D0 SWAP2 SWAP1 PUSH2 0x1201 JUMP JUMPDEST PUSH1 0x40 MLOAD DUP1 SWAP2 SUB SWAP1 RETURN JUMPDEST PUSH2 0x2E1 PUSH2 0xBF7 JUMP JUMPDEST PUSH1 0x40 MLOAD PUSH2 0x2EE SWAP2 SWAP1 PUSH2 0x11A2 JUMP JUMPDEST PUSH1 0x40 MLOAD DUP1 SWAP2 SUB SWAP1 RETURN JUMPDEST PUSH2 0x311 PUSH1 0x4 DUP1 CALLDATASIZE SUB DUP2 ADD SWAP1 PUSH2 0x30C SWAP2 SWAP1 PUSH2 0x127B JUMP JUMPDEST PUSH2 0xC87 JUMP JUMPDEST PUSH1 0x40 MLOAD PUSH2 0x31E SWAP2 SWAP1 PUSH2 0x12D3 JUMP JUMPDEST PUSH1 0x40 MLOAD DUP1 SWAP2 SUB SWAP1 RETURN JUMPDEST PUSH2 0x341 PUSH1 0x4 DUP1 CALLDATASIZE SUB DUP2 ADD SWAP1 PUSH2 0x33C SWAP2 SWAP1 PUSH2 0x13EE JUMP JUMPDEST PUSH2 0xD02 JUMP JUMPDEST PUSH1 0x40 MLOAD PUSH2 0x34E SWAP2 SWAP1 PUSH2 0x12FB JUMP JUMPDEST PUSH1 0x40 MLOAD DUP1 SWAP2 SUB SWAP1 RETURN JUMPDEST PUSH2 0x371 PUSH1 0x4 DUP1 CALLDATASIZE SUB DUP2 ADD SWAP1 PUSH2 0x36C SWAP2 SWAP1 PUSH2 0x13C3 JUMP JUMPDEST PUSH2 0xD84 JUMP JUMPDEST STOP JUMPDEST PUSH1 0x60 PUSH1 0x1 DUP1 SLOAD PUSH2 0x382 SWAP1 PUSH2 0x1459 JUMP JUMPDEST DUP1 PUSH1 0x1F ADD PUSH1 0x20 DUP1 SWAP2 DIV MUL PUSH1 0x20 ADD PUSH1 0x40 MLOAD SWAP1 DUP2 ADD PUSH1 0x40 MSTORE DUP1 SWAP3 SWAP2 SWAP1 DUP2 DUP2 MSTORE PUSH1 0x20 ADD DUP3 DUP1 SLOAD PUSH2 0x3AE SWAP1 PUSH2 0x1459 JUMP JUMPDEST DUP1 ISZERO PUSH2 0x3F9 JUMPI DUP1 PUSH1 0x1F LT PUSH2 0x3D0 JUMPI PUSH2 0x100 DUP1 DUP4 SLOAD DIV MUL DUP4 MSTORE SWAP2 PUSH1 0x20 ADD SWAP2 PUSH2 0x3F9 JUMP JUMPDEST DUP3 ADD SWAP2 SWAP1 PUSH0 MSTORE PUSH1 0x20 PUSH0 KECCAK256 SWAP1 JUMPDEST DUP2 SLOAD DUP2 MSTORE SWAP1 PUSH1 0x1 ADD SWAP1 PUSH1 0x20 ADD DUP1 DUP4 GT PUSH2 0x3DC JUMPI DUP3 SWAP1 SUB PUSH1 0x1F AND DUP3 ADD SWAP2 JUMPDEST POP POP POP POP POP SWAP1 POP SWAP1 JUMP JUMPDEST PUSH1 0x4 PUSH0 SWAP1 SLOAD SWAP1 PUSH2 0x100 EXP SWAP1 DIV PUSH20 0xFFFFFFFFFFFFFFFFFFFFFFFFFFFFFFFFFFFFFFFF AND DUP2 JUMP JUMPDEST PUSH0 PUSH0 PUSH20 0xFFFFFFFFFFFFFFFFFFFFFFFFFFFFFFFFFFFFFFFF AND DUP4 PUSH20 0xFFFFFFFFFFFFFFFFFFFFFFFFFFFFFFFFFFFFFFFF AND SUB PUSH2 0x497 JUMPI PUSH1 0x40 MLOAD PUSH32 0x8C379A000000000000000000000000000000000000000000000000000000000 DUP2 MSTORE PUSH1 0x4 ADD PUSH2 0x48E SWAP1 PUSH2 0x14D3 JUMP JUMPDEST PUSH1 0x40 MLOAD DUP1 SWAP2 SUB SWAP1 REVERT JUMPDEST DUP2 PUSH1 0x6 PUSH0 CALLER PUSH20 0xFFFFFFFFFFFFFFFFFFFFFFFFFFFFFFFFFFFFFFFF AND PUSH20 0xFFFFFFFFFFFFFFFFFFFFFFFFFFFFFFFFFFFFFFFF AND DUP2 MSTORE PUSH1 0x20 ADD SWAP1 DUP2 MSTORE PUSH1 0x20 ADD PUSH0 KECCAK256 PUSH0 DUP6 PUSH20 0xFFFFFFFFFFFFFFFFFFFFFFFFFFFFFFFFFFFFFFFF AND PUSH20 0xFFFFFFFFFFFFFFFFFFFFFFFFFFFFFFFFFFFFFFFF AND DUP2 MSTORE PUSH1 0x20 ADD SWAP1 DUP2 MSTORE PUSH1 0x20 ADD PUSH0 KECCAK256 DUP2 SWAP1 SSTORE POP DUP3 PUSH20 0xFFFFFFFFFFFFFFFFFFFFFFFFFFFFFFFFFFFFFFFF AND CALLER PUSH20 0xFFFFFFFFFFFFFFFFFFFFFFFFFFFFFFFFFFFFFFFF AND PUSH32 0x8C5BE1E5EBEC7D5BD14F71427D1E84F3DD0314C0F7B2291E5B200AC8C7C3B925 DUP5 PUSH1 0x40 MLOAD PUSH2 0x571 SWAP2 SWAP1 PUSH2 0x12FB JUMP JUMPDEST PUSH1 0x40 MLOAD DUP1 SWAP2 SUB SWAP1 LOG3 PUSH1 0x1 SWAP1 POP SWAP3 SWAP2 POP POP JUMP JUMPDEST PUSH1 0x3 SLOAD DUP2 JUMP JUMPDEST PUSH0 PUSH0 PUSH1 0x6 PUSH0 DUP7 PUSH20 0xFFFFFFFFFFFFFFFFFFFFFFFFFFFFFFFFFFFFFFFF AND PUSH20 0xFFFFFFFFFFFFFFFFFFFFFFFFFFFFFFFFFFFFFFFF AND DUP2 MSTORE PUSH1 0x20 ADD SWAP1 DUP2 MSTORE PUSH1 0x20 ADD PUSH0 KECCAK256 PUSH0 CALLER PUSH20 0xFFFFFFFFFFFFFFFFFFFFFFFFFFFFFFFFFFFFFFFF AND PUSH20 0xFFFFFFFFFFFFFFFFFFFFFFFFFFFFFFFFFFFFFFFF AND DUP2 MSTORE PUSH1 0x20 ADD SWAP1 DUP2 MSTORE PUSH1 0x20 ADD PUSH0 KECCAK256 SLOAD SWAP1 POP DUP3 DUP2 LT ISZERO PUSH2 0x649 JUMPI PUSH1 0x40 MLOAD PUSH32 0x8C379A000000000000000000000000000000000000000000000000000000000 DUP2 MSTORE PUSH1 0x4 ADD PUSH2 0x640 SWAP1 PUSH2 0x153B JUMP JUMPDEST PUSH1 0x40 MLOAD DUP1 SWAP2 SUB SWAP1 REVERT JUMPDEST DUP3 DUP2 PUSH2 0x655 SWAP2 SWAP1 PUSH2 0x1586 JUMP JUMPDEST PUSH1 0x6 PUSH0 DUP8 PUSH20 0xFFFFFFFFFFFFFFFFFFFFFFFFFFFFFFFFFFFFFFFF AND PUSH20 0xFFFFFFFFFFFFFFFFFFFFFFFFFFFFFFFFFFFFFFFF AND DUP2 MSTORE PUSH1 0x20 ADD SWAP1 DUP2 MSTORE PUSH1 0x20 ADD PUSH0 KECCAK256 PUSH0 CALLER PUSH20 0xFFFFFFFFFFFFFFFFFFFFFFFFFFFFFFFFFFFFFFFF AND PUSH20 0xFFFFFFFFFFFFFFFFFFFFFFFFFFFFFFFFFFFFFFFF AND DUP2 MSTORE PUSH1 0x20 ADD SWAP1 DUP2 MSTORE PUSH1 0x20 ADD PUSH0 KECCAK256 DUP2 SWAP1 SSTORE POP PUSH2 0x6DC DUP6 DUP6 DUP6 PUSH2 0xE73 JUMP JUMPDEST DUP4 PUSH20 0xFFFFFFFFFFFFFFFFFFFFFFFFFFFFFFFFFFFFFFFF AND DUP6 PUSH20 0xFFFFFFFFFFFFFFFFFFFFFFFFFFFFFFFFFFFFFFFF AND PUSH32 0xDDF252AD1BE2C89B69C2B068FC378DAA952BA7F163C4A11628F55A4DF523B3EF DUP6 PUSH1 0x40 MLOAD PUSH2 0x739 SWAP2 SWAP1 PUSH2 0x12FB JUMP JUMPDEST PUSH1 0x40 MLOAD DUP1 SWAP2 SUB SWAP1 LOG3 PUSH1 0x1 SWAP2 POP POP SWAP4 SWAP3 POP POP POP JUMP JUMPDEST PUSH0 PUSH1 0x12 SWAP1 POP SWAP1 JUMP JUMPDEST PUSH32 0x0 DUP2 JUMP JUMPDEST PUSH0 PUSH2 0x782 PUSH2 0xBD0 JUMP JUMPDEST PUSH20 0xFFFFFFFFFFFFFFFFFFFFFFFFFFFFFFFFFFFFFFFF AND CALLER PUSH20 0xFFFFFFFFFFFFFFFFFFFFFFFFFFFFFFFFFFFFFFFF AND EQ PUSH2 0x7EF JUMPI PUSH1 0x40 MLOAD PUSH32 0x8C379A000000000000000000000000000000000000000000000000000000000 DUP2 MSTORE PUSH1 0x4 ADD PUSH2 0x7E6 SWAP1 PUSH2 0x1603 JUMP JUMPDEST PUSH1 0x40 MLOAD DUP1 SWAP2 SUB SWAP1 REVERT JUMPDEST PUSH0 PUSH20 0xFFFFFFFFFFFFFFFFFFFFFFFFFFFFFFFFFFFFFFFF AND DUP4 PUSH20 0xFFFFFFFFFFFFFFFFFFFFFFFFFFFFFFFFFFFFFFFF AND SUB PUSH2 0x85D JUMPI PUSH1 0x40 MLOAD PUSH32 0x8C379A000000000000000000000000000000000000000000000000000000000 DUP2 MSTORE PUSH1 0x4 ADD PUSH2 0x854 SWAP1 PUSH2 0x166B JUMP JUMPDEST PUSH1 0x40 MLOAD DUP1 SWAP2 SUB SWAP1 REVERT JUMPDEST PUSH32 0x0 DUP3 PUSH1 0x3 SLOAD PUSH2 0x88C SWAP2 SWAP1 PUSH2 0x1689 JUMP JUMPDEST GT ISZERO PUSH2 0x8CD JUMPI PUSH1 0x40 MLOAD PUSH32 0x8C379A000000000000000000000000000000000000000000000000000000000 DUP2 MSTORE PUSH1 0x4 ADD PUSH2 0x8C4 SWAP1 PUSH2 0x1706 JUMP JUMPDEST PUSH1 0x40 MLOAD DUP1 SWAP2 SUB SWAP1 REVERT JUMPDEST DUP2 PUSH1 0x5 PUSH0 DUP6 PUSH20 0xFFFFFFFFFFFFFFFFFFFFFFFFFFFFFFFFFFFFFFFF AND PUSH20 0xFFFFFFFFFFFFFFFFFFFFFFFFFFFFFFFFFFFFFFFF AND DUP2 MSTORE PUSH1 0x20 ADD SWAP1 DUP2 MSTORE PUSH1 0x20 ADD PUSH0 KECCAK256 PUSH0 DUP3 DUP3 SLOAD PUSH2 0x919 SWAP2 SWAP1 PUSH2 0x1689 JUMP JUMPDEST SWAP3 POP POP DUP2 SWAP1 SSTORE POP DUP2 PUSH1 0x3 PUSH0 DUP3 DUP3 SLOAD PUSH2 0x931 SWAP2 SWAP1 PUSH2 0x1689 JUMP JUMPDEST SWAP3 POP POP DUP2 SWAP1 SSTORE POP DUP3 PUSH20 0xFFFFFFFFFFFFFFFFFFFFFFFFFFFFFFFFFFFFFFFF AND PUSH0 PUSH20 0xFFFFFFFFFFFFFFFFFFFFFFFFFFFFFFFFFFFFFFFF AND PUSH32 0xDDF252AD1BE2C89B69C2B068FC378DAA952BA7F163C4A11628F55A4DF523B3EF DUP5 PUSH1 0x40 MLOAD PUSH2 0x995 SWAP2 SWAP1 PUSH2 0x12FB JUMP JUMPDEST PUSH1 0x40 MLOAD DUP1 SWAP2 SUB SWAP1 LOG3 PUSH1 0x1 SWAP1 POP SWAP3 SWAP2 POP POP JUMP JUMPDEST PUSH0 DUP2 PUSH1 0x5 PUSH0 CALLER PUSH20 0xFFFFFFFFFFFFFFFFFFFFFFFFFFFFFFFFFFFFFFFF AND PUSH20 0xFFFFFFFFFFFFFFFFFFFFFFFFFFFFFFFFFFFFFFFF AND DUP2 MSTORE PUSH1 0x20 ADD SWAP1 DUP2 MSTORE PUSH1 0x20 ADD PUSH0 KECCAK256 SLOAD LT ISZERO PUSH2 0xA28 JUMPI PUSH1 0x40 MLOAD PUSH32 0x8C379A000000000000000000000000000000000000000000000000000000000 DUP2 MSTORE PUSH1 0x4 ADD PUSH2 0xA1F SWAP1 PUSH2 0x176E JUMP JUMPDEST PUSH1 0x40 MLOAD DUP1 SWAP2 SUB SWAP1 REVERT JUMPDEST DUP2 PUSH1 0x5 PUSH0 CALLER PUSH20 0xFFFFFFFFFFFFFFFFFFFFFFFFFFFFFFFFFFFFFFFF AND PUSH20 0xFFFFFFFFFFFFFFFFFFFFFFFFFFFFFFFFFFFFFFFF AND DUP2 MSTORE PUSH1 0x20 ADD SWAP1 DUP2 MSTORE PUSH1 0x20 ADD PUSH0 KECCAK256 PUSH0 DUP3 DUP3 SLOAD PUSH2 0xA74 SWAP2 SWAP1 PUSH2 0x1586 JUMP JUMPDEST SWAP3 POP POP DUP2 SWAP1 SSTORE POP DUP2 PUSH1 0x3 PUSH0 DUP3 DUP3 SLOAD PUSH2 0xA8C SWAP2 SWAP1 PUSH2 0x1586 JUMP JUMPDEST SWAP3 POP POP DUP2 SWAP1 SSTORE POP PUSH0 PUSH20 0xFFFFFFFFFFFFFFFFFFFFFFFFFFFFFFFFFFFFFFFF AND CALLER PUSH20 0xFFFFFFFFFFFFFFFFFFFFFFFFFFFFFFFFFFFFFFFF AND PUSH32 0xDDF252AD1BE2C89B69C2B068FC378DAA952BA7F163C4A11628F55A4DF523B3EF DUP5 PUSH1 0x40 MLOAD PUSH2 0xAF0 SWAP2 SWAP1 PUSH2 0x12FB JUMP JUMPDEST PUSH1 0x40 MLOAD DUP1 SWAP2 SUB SWAP1 LOG3 PUSH1 0x1 SWAP1 POP SWAP2 SWAP1 POP JUMP JUMPDEST PUSH0 PUSH1 0x5 PUSH0 DUP4 PUSH20 0xFFFFFFFFFFFFFFFFFFFFFFFFFFFFFFFFFFFFFFFF AND PUSH20 0xFFFFFFFFFFFFFFFFFFFFFFFFFFFFFFFFFFFFFFFF AND DUP2 MSTORE PUSH1 0x20 ADD SWAP1 DUP2 MSTORE PUSH1 0x20 ADD PUSH0 KECCAK256 SLOAD SWAP1 POP SWAP2 SWAP1 POP JUMP JUMPDEST PUSH2 0xB4F PUSH2 0xBD0 JUMP JUMPDEST PUSH20 0xFFFFFFFFFFFFFFFFFFFFFFFFFFFFFFFFFFFFFFFF AND CALLER PUSH20 0xFFFFFFFFFFFFFFFFFFFFFFFFFFFFFFFFFFFFFFFF AND EQ PUSH2 0xBBC JUMPI PUSH1 0x40 MLOAD PUSH32 0x8C379A000000000000000000000000000000000000000000000000000000000 DUP2 MSTORE PUSH1 0x4 ADD PUSH2 0xBB3 SWAP1 PUSH2 0x1603 JUMP JUMPDEST PUSH1 0x40 MLOAD DUP1 SWAP2 SUB SWAP1 REVERT JUMPDEST PUSH2 0xBC5 PUSH0 PUSH2 0x1071 JUMP JUMPDEST JUMP JUMPDEST PUSH0 PUSH1 0x3 SLOAD SWAP1 POP SWAP1 JUMP JUMPDEST PUSH0 PUSH0 PUSH0 SWAP1 SLOAD SWAP1 PUSH2 0x100 EXP SWAP1 DIV PUSH20 0xFFFFFFFFFFFFFFFFFFFFFFFFFFFFFFFFFFFFFFFF AND SWAP1 POP SWAP1 JUMP JUMPDEST PUSH1 0x60 PUSH1 0x2 DUP1 SLOAD PUSH2 0xC06 SWAP1 PUSH2 0x1459 JUMP JUMPDEST DUP1 PUSH1 0x1F ADD PUSH1 0x20 DUP1 SWAP2 DIV MUL PUSH1 0x20 ADD PUSH1 0x40 MLOAD SWAP1 DUP2 ADD PUSH1 0x40 MSTORE DUP1 SWAP3 SWAP2 SWAP1 DUP2 DUP2 MSTORE PUSH1 0x20 ADD DUP3 DUP1 SLOAD PUSH2 0xC32 SWAP1 PUSH2 0x1459 JUMP JUMPDEST DUP1 ISZERO PUSH2 0xC7D JUMPI DUP1 PUSH1 0x1F LT PUSH2 0xC54 JUMPI PUSH2 0x100 DUP1 DUP4 SLOAD DIV MUL DUP4 MSTORE SWAP2 PUSH1 0x20 ADD SWAP2 PUSH2 0xC7D JUMP JUMPDEST DUP3 ADD SWAP2 SWAP1 PUSH0 MSTORE PUSH1 0x20 PUSH0 KECCAK256 SWAP1 JUMPDEST DUP2 SLOAD DUP2 MSTORE SWAP1 PUSH1 0x1 ADD SWAP1 PUSH1 0x20 ADD DUP1 DUP4 GT PUSH2 0xC60 JUMPI DUP3 SWAP1 SUB PUSH1 0x1F AND DUP3 ADD SWAP2 JUMPDEST POP POP POP POP POP SWAP1 POP SWAP1 JUMP JUMPDEST PUSH0 PUSH2 0xC93 CALLER DUP5 DUP5 PUSH2 0xE73 JUMP JUMPDEST DUP3 PUSH20 0xFFFFFFFFFFFFFFFFFFFFFFFFFFFFFFFFFFFFFFFF AND CALLER PUSH20 0xFFFFFFFFFFFFFFFFFFFFFFFFFFFFFFFFFFFFFFFF AND PUSH32 0xDDF252AD1BE2C89B69C2B068FC378DAA952BA7F163C4A11628F55A4DF523B3EF DUP5 PUSH1 0x40 MLOAD PUSH2 0xCF0 SWAP2 SWAP1 PUSH2 0x12FB JUMP JUMPDEST PUSH1 0x40 MLOAD DUP1 SWAP2 SUB SWAP1 LOG3 PUSH1 0x1 SWAP1 POP SWAP3 SWAP2 POP POP JUMP JUMPDEST PUSH0 PUSH1 0x6 PUSH0 DUP5 PUSH20 0xFFFFFFFFFFFFFFFFFFFFFFFFFFFFFFFFFFFFFFFF AND PUSH20 0xFFFFFFFFFFFFFFFFFFFFFFFFFFFFFFFFFFFFFFFF AND DUP2 MSTORE PUSH1 0x20 ADD SWAP1 DUP2 MSTORE PUSH1 0x20 ADD PUSH0 KECCAK256 PUSH0 DUP4 PUSH20 0xFFFFFFFFFFFFFFFFFFFFFFFFFFFFFFFFFFFFFFFF AND PUSH20 0xFFFFFFFFFFFFFFFFFFFFFFFFFFFFFFFFFFFFFFFF AND DUP2 MSTORE PUSH1 0x20 ADD SWAP1 DUP2 MSTORE PUSH1 0x20 ADD PUSH0 KECCAK256 SLOAD SWAP1 POP SWAP3 SWAP2 POP POP JUMP JUMPDEST PUSH2 0xD8C PUSH2 0xBD0 JUMP JUMPDEST PUSH20 0xFFFFFFFFFFFFFFFFFFFFFFFFFFFFFFFFFFFFFFFF AND CALLER PUSH20 0xFFFFFFFFFFFFFFFFFFFFFFFFFFFFFFFFFFFFFFFF AND EQ PUSH2 0xDF9 JUMPI PUSH1 0x40 MLOAD PUSH32 0x8C379A000000000000000000000000000000000000000000000000000000000 DUP2 MSTORE PUSH1 0x4 ADD PUSH2 0xDF0 SWAP1 PUSH2 0x1603 JUMP JUMPDEST PUSH1 0x40 MLOAD DUP1 SWAP2 SUB SWAP1 REVERT JUMPDEST PUSH0 PUSH20 0xFFFFFFFFFFFFFFFFFFFFFFFFFFFFFFFFFFFFFFFF AND DUP2 PUSH20 0xFFFFFFFFFFFFFFFFFFFFFFFFFFFFFFFFFFFFFFFF AND SUB PUSH2 0xE67 JUMPI PUSH1 0x40 MLOAD PUSH32 0x8C379A000000000000000000000000000000000000000000000000000000000 DUP2 MSTORE PUSH1 0x4 ADD PUSH2 0xE5E SWAP1 PUSH2 0x17FC JUMP JUMPDEST PUSH1 0x40 MLOAD DUP1 SWAP2 SUB SWAP1 REVERT JUMPDEST PUSH2 0xE70 DUP2 PUSH2 0x1071 JUMP JUMPDEST POP JUMP JUMPDEST PUSH0 PUSH20 0xFFFFFFFFFFFFFFFFFFFFFFFFFFFFFFFFFFFFFFFF AND DUP3 PUSH20 0xFFFFFFFFFFFFFFFFFFFFFFFFFFFFFFFFFFFFFFFF AND SUB PUSH2 0xEE1 JUMPI PUSH1 0x40 MLOAD PUSH32 0x8C379A000000000000000000000000000000000000000000000000000000000 DUP2 MSTORE PUSH1 0x4 ADD PUSH2 0xED8 SWAP1 PUSH2 0x166B JUMP JUMPDEST PUSH1 0x40 MLOAD DUP1 SWAP2 SUB SWAP1 REVERT JUMPDEST DUP1 PUSH1 0x5 PUSH0 DUP6 PUSH20 0xFFFFFFFFFFFFFFFFFFFFFFFFFFFFFFFFFFFFFFFF AND PUSH20 0xFFFFFFFFFFFFFFFFFFFFFFFFFFFFFFFFFFFFFFFF AND DUP2 MSTORE PUSH1 0x20 ADD SWAP1 DUP2 MSTORE PUSH1 0x20 ADD PUSH0 KECCAK256 SLOAD LT ISZERO PUSH2 0xF61 JUMPI PUSH1 0x40 MLOAD PUSH32 0x8C379A000000000000000000000000000000000000000000000000000000000 DUP2 MSTORE PUSH1 0x4 ADD PUSH2 0xF58 SWAP1 PUSH2 0x176E JUMP JUMPDEST PUSH1 0x40 MLOAD DUP1 SWAP2 SUB SWAP1 REVERT JUMPDEST DUP1 PUSH1 0x5 PUSH0 DUP6 PUSH20 0xFFFFFFFFFFFFFFFFFFFFFFFFFFFFFFFFFFFFFFFF AND PUSH20 0xFFFFFFFFFFFFFFFFFFFFFFFFFFFFFFFFFFFFFFFF AND DUP2 MSTORE PUSH1 0x20 ADD SWAP1 DUP2 MSTORE PUSH1 0x20 ADD PUSH0 KECCAK256 PUSH0 DUP3 DUP3 SLOAD PUSH2 0xFAD SWAP2 SWAP1 PUSH2 0x1586 JUMP JUMPDEST SWAP3 POP POP DUP2 SWAP1 SSTORE POP DUP1 PUSH1 0x5 PUSH0 DUP5 PUSH20 0xFFFFFFFFFFFFFFFFFFFFFFFFFFFFFFFFFFFFFFFF AND PUSH20 0xFFFFFFFFFFFFFFFFFFFFFFFFFFFFFFFFFFFFFFFF AND DUP2 MSTORE PUSH1 0x20 ADD SWAP1 DUP2 MSTORE PUSH1 0x20 ADD PUSH0 KECCAK256 PUSH0 DUP3 DUP3 SLOAD PUSH2 0x1000 SWAP2 SWAP1 PUSH2 0x1689 JUMP JUMPDEST SWAP3 POP POP DUP2 SWAP1 SSTORE POP DUP2 PUSH20 0xFFFFFFFFFFFFFFFFFFFFFFFFFFFFFFFFFFFFFFFF AND DUP4 PUSH20 0xFFFFFFFFFFFFFFFFFFFFFFFFFFFFFFFFFFFFFFFF AND PUSH32 0xDDF252AD1BE2C89B69C2B068FC378DAA952BA7F163C4A11628F55A4DF523B3EF DUP4 PUSH1 0x40 MLOAD PUSH2 0x1064 SWAP2 SWAP1 PUSH2 0x12FB JUMP JUMPDEST PUSH1 0x40 MLOAD DUP1 SWAP2 SUB SWAP1 LOG3 POP POP POP JUMP JUMPDEST PUSH0 PUSH0 PUSH0 SWAP1 SLOAD SWAP1 PUSH2 0x100 EXP SWAP1 DIV PUSH20 0xFFFFFFFFFFFFFFFFFFFFFFFFFFFFFFFFFFFFFFFF AND SWAP1 POP DUP2 PUSH0 PUSH0 PUSH2 0x100 EXP DUP2 SLOAD DUP2 PUSH20 0xFFFFFFFFFFFFFFFFFFFFFFFFFFFFFFFFFFFFFFFF MUL NOT AND SWAP1 DUP4 PUSH20 0xFFFFFFFFFFFFFFFFFFFFFFFFFFFFFFFFFFFFFFFF AND MUL OR SWAP1 SSTORE POP DUP2 PUSH20 0xFFFFFFFFFFFFFFFFFFFFFFFFFFFFFFFFFFFFFFFF AND DUP2 PUSH20 0xFFFFFFFFFFFFFFFFFFFFFFFFFFFFFFFFFFFFFFFF AND PUSH32 0x8BE0079C531659141344CD1FD0A4F28419497F9722A3DAAFE3B4186F6B6457E0 PUSH1 0x40 MLOAD PUSH1 0x40 MLOAD DUP1 SWAP2 SUB SWAP1 LOG3 POP POP JUMP JUMPDEST PUSH0 DUP2 MLOAD SWAP1 POP SWAP2 SWAP1 POP JUMP JUMPDEST PUSH0 DUP3 DUP3 MSTORE PUSH1 0x20 DUP3 ADD SWAP1 POP SWAP3 SWAP2 POP POP JUMP JUMPDEST DUP3 DUP2 DUP4 MCOPY PUSH0 DUP4 DUP4 ADD MSTORE POP POP POP JUMP JUMPDEST PUSH0 PUSH1 0x1F NOT PUSH1 0x1F DUP4 ADD AND SWAP1 POP SWAP2 SWAP1 POP JUMP JUMPDEST PUSH0 PUSH2 0x1174 DUP3 PUSH2 0x1132 JUMP JUMPDEST PUSH2 0x117E DUP2 DUP6 PUSH2 0x113C JUMP JUMPDEST SWAP4 POP PUSH2 0x118E DUP2 DUP6 PUSH1 0x20 DUP7 ADD PUSH2 0x114C JUMP JUMPDEST PUSH2 0x1197 DUP2 PUSH2 0x115A JUMP JUMPDEST DUP5 ADD SWAP2 POP POP SWAP3 SWAP2 POP POP JUMP JUMPDEST PUSH0 PUSH1 0x20 DUP3 ADD SWAP1 POP DUP2 DUP2 SUB PUSH0 DUP4 ADD MSTORE PUSH2 0x11BA DUP2 DUP5 PUSH2 0x116A JUMP JUMPDEST SWAP1 POP SWAP3 SWAP2 POP POP JUMP JUMPDEST PUSH0 PUSH20 0xFFFFFFFFFFFFFFFFFFFFFFFFFFFFFFFFFFFFFFFF DUP3 AND SWAP1 POP SWAP2 SWAP1 POP JUMP JUMPDEST PUSH0 PUSH2 0x11EB DUP3 PUSH2 0x11C2 JUMP JUMPDEST SWAP1 POP SWAP2 SWAP1 POP JUMP JUMPDEST PUSH2 0x11FB DUP2 PUSH2 0x11E1 JUMP JUMPDEST DUP3 MSTORE POP POP JUMP JUMPDEST PUSH0 PUSH1 0x20 DUP3 ADD SWAP1 POP PUSH2 0x1214 PUSH0 DUP4 ADD DUP5 PUSH2 0x11F2 JUMP JUMPDEST SWAP3 SWAP2 POP POP JUMP JUMPDEST PUSH0 PUSH0 REVERT JUMPDEST PUSH2 0x1227 DUP2 PUSH2 0x11E1 JUMP JUMPDEST DUP2 EQ PUSH2 0x1231 JUMPI PUSH0 PUSH0 REVERT JUMPDEST POP JUMP JUMPDEST PUSH0 DUP2 CALLDATALOAD SWAP1 POP PUSH2 0x1242 DUP2 PUSH2 0x121E JUMP JUMPDEST SWAP3 SWAP2 POP POP JUMP JUMPDEST PUSH0 DUP2 SWAP1 POP SWAP2 SWAP1 POP JUMP JUMPDEST PUSH2 0x125A DUP2 PUSH2 0x1248 JUMP JUMPDEST DUP2 EQ PUSH2 0x1264 JUMPI PUSH0 PUSH0 REVERT JUMPDEST POP JUMP JUMPDEST PUSH0 DUP2 CALLDATALOAD SWAP1 POP PUSH2 0x1275 DUP2 PUSH2 0x1251 JUMP JUMPDEST SWAP3 SWAP2 POP POP JUMP JUMPDEST PUSH0 PUSH0 PUSH1 0x40 DUP4 DUP6 SUB SLT ISZERO PUSH2 0x1291 JUMPI PUSH2 0x1290 PUSH2 0x121A JUMP JUMPDEST JUMPDEST PUSH0 PUSH2 0x129E DUP6 DUP3 DUP7 ADD PUSH2 0x1234 JUMP JUMPDEST SWAP3 POP POP PUSH1 0x20 PUSH2 0x12AF DUP6 DUP3 DUP7 ADD PUSH2 0x1267 JUMP JUMPDEST SWAP2 POP POP SWAP3 POP SWAP3 SWAP1 POP JUMP JUMPDEST PUSH0 DUP2 ISZERO ISZERO SWAP1 POP SWAP2 SWAP1 POP JUMP JUMPDEST PUSH2 0x12CD DUP2 PUSH2 0x12B9 JUMP JUMPDEST DUP3 MSTORE POP POP JUMP JUMPDEST PUSH0 PUSH1 0x20 DUP3 ADD SWAP1 POP PUSH2 0x12E6 PUSH0 DUP4 ADD DUP5 PUSH2 0x12C4 JUMP JUMPDEST SWAP3 SWAP2 POP POP JUMP JUMPDEST PUSH2 0x12F5 DUP2 PUSH2 0x1248 JUMP JUMPDEST DUP3 MSTORE POP POP JUMP JUMPDEST PUSH0 PUSH1 0x20 DUP3 ADD SWAP1 POP PUSH2 0x130E PUSH0 DUP4 ADD DUP5 PUSH2 0x12EC JUMP JUMPDEST SWAP3 SWAP2 POP POP JUMP JUMPDEST PUSH0 PUSH0 PUSH0 PUSH1 0x60 DUP5 DUP7 SUB SLT ISZERO PUSH2 0x132B JUMPI PUSH2 0x132A PUSH2 0x121A JUMP JUMPDEST JUMPDEST PUSH0 PUSH2 0x1338 DUP7 DUP3 DUP8 ADD PUSH2 0x1234 JUMP JUMPDEST SWAP4 POP POP PUSH1 0x20 PUSH2 0x1349 DUP7 DUP3 DUP8 ADD PUSH2 0x1234 JUMP JUMPDEST SWAP3 POP POP PUSH1 0x40 PUSH2 0x135A DUP7 DUP3 DUP8 ADD PUSH2 0x1267 JUMP JUMPDEST SWAP2 POP POP SWAP3 POP SWAP3 POP SWAP3 JUMP JUMPDEST PUSH0 PUSH1 0xFF DUP3 AND SWAP1 POP SWAP2 SWAP1 POP JUMP JUMPDEST PUSH2 0x1379 DUP2 PUSH2 0x1364 JUMP JUMPDEST DUP3 MSTORE POP POP JUMP JUMPDEST PUSH0 PUSH1 0x20 DUP3 ADD SWAP1 POP PUSH2 0x1392 PUSH0 DUP4 ADD DUP5 PUSH2 0x1370 JUMP JUMPDEST SWAP3 SWAP2 POP POP JUMP JUMPDEST PUSH0 PUSH1 0x20 DUP3 DUP5 SUB SLT ISZERO PUSH2 0x13AD JUMPI PUSH2 0x13AC PUSH2 0x121A JUMP JUMPDEST JUMPDEST PUSH0 PUSH2 0x13BA DUP5 DUP3 DUP6 ADD PUSH2 0x1267 JUMP JUMPDEST SWAP2 POP POP SWAP3 SWAP2 POP POP JUMP JUMPDEST PUSH0 PUSH1 0x20 DUP3 DUP5 SUB SLT ISZERO PUSH2 0x13D8 JUMPI PUSH2 0x13D7 PUSH2 0x121A JUMP JUMPDEST JUMPDEST PUSH0 PUSH2 0x13E5 DUP5 DUP3 DUP6 ADD PUSH2 0x1234 JUMP JUMPDEST SWAP2 POP POP SWAP3 SWAP2 POP POP JUMP JUMPDEST PUSH0 PUSH0 PUSH1 0x40 DUP4 DUP6 SUB SLT ISZERO PUSH2 0x1404 JUMPI PUSH2 0x1403 PUSH2 0x121A JUMP JUMPDEST JUMPDEST PUSH0 PUSH2 0x1411 DUP6 DUP3 DUP7 ADD PUSH2 0x1234 JUMP JUMPDEST SWAP3 POP POP PUSH1 0x20 PUSH2 0x1422 DUP6 DUP3 DUP7 ADD PUSH2 0x1234 JUMP JUMPDEST SWAP2 POP POP SWAP3 POP SWAP3 SWAP1 POP JUMP JUMPDEST PUSH32 0x4E487B7100000000000000000000000000000000000000000000000000000000 PUSH0 MSTORE PUSH1 0x22 PUSH1 0x4 MSTORE PUSH1 0x24 PUSH0 REVERT JUMPDEST PUSH0 PUSH1 0x2 DUP3 DIV SWAP1 POP PUSH1 0x1 DUP3 AND DUP1 PUSH2 0x1470 JUMPI PUSH1 0x7F DUP3 AND SWAP2 POP JUMPDEST PUSH1 0x20 DUP3 LT DUP2 SUB PUSH2 0x1483 JUMPI PUSH2 0x1482 PUSH2 0x142C JUMP JUMPDEST JUMPDEST POP SWAP2 SWAP1 POP JUMP JUMPDEST PUSH32 0x43796265724F7263733A205A65726F2041646472657373000000000000000000 PUSH0 DUP3 ADD MSTORE POP JUMP JUMPDEST PUSH0 PUSH2 0x14BD PUSH1 0x17 DUP4 PUSH2 0x113C JUMP JUMPDEST SWAP2 POP PUSH2 0x14C8 DUP3 PUSH2 0x1489 JUMP JUMPDEST PUSH1 0x20 DUP3 ADD SWAP1 POP SWAP2 SWAP1 POP JUMP JUMPDEST PUSH0 PUSH1 0x20 DUP3 ADD SWAP1 POP DUP2 DUP2 SUB PUSH0 DUP4 ADD MSTORE PUSH2 0x14EA DUP2 PUSH2 0x14B1 JUMP JUMPDEST SWAP1 POP SWAP2 SWAP1 POP JUMP JUMPDEST PUSH32 0x43796265726F7263733A204C6F7720416C6C6F77616E63650000000000000000 PUSH0 DUP3 ADD MSTORE POP JUMP JUMPDEST PUSH0 PUSH2 0x1525 PUSH1 0x18 DUP4 PUSH2 0x113C JUMP JUMPDEST SWAP2 POP PUSH2 0x1530 DUP3 PUSH2 0x14F1 JUMP JUMPDEST PUSH1 0x20 DUP3 ADD SWAP1 POP SWAP2 SWAP1 POP JUMP JUMPDEST PUSH0 PUSH1 0x20 DUP3 ADD SWAP1 POP DUP2 DUP2 SUB PUSH0 DUP4 ADD MSTORE PUSH2 0x1552 DUP2 PUSH2 0x1519 JUMP JUMPDEST SWAP1 POP SWAP2 SWAP1 POP JUMP JUMPDEST PUSH32 0x4E487B7100000000000000000000000000000000000000000000000000000000 PUSH0 MSTORE PUSH1 0x11 PUSH1 0x4 MSTORE PUSH1 0x24 PUSH0 REVERT JUMPDEST PUSH0 PUSH2 0x1590 DUP3 PUSH2 0x1248 JUMP JUMPDEST SWAP2 POP PUSH2 0x159B DUP4 PUSH2 0x1248 JUMP JUMPDEST SWAP3 POP DUP3 DUP3 SUB SWAP1 POP DUP2 DUP2 GT ISZERO PUSH2 0x15B3 JUMPI PUSH2 0x15B2 PUSH2 0x1559 JUMP JUMPDEST JUMPDEST SWAP3 SWAP2 POP POP JUMP JUMPDEST PUSH32 0x4F776E61626C653A2043616C6C6572206973206E6F7420746865204F776E6572 PUSH0 DUP3 ADD MSTORE POP JUMP JUMPDEST PUSH0 PUSH2 0x15ED PUSH1 0x20 DUP4 PUSH2 0x113C JUMP JUMPDEST SWAP2 POP PUSH2 0x15F8 DUP3 PUSH2 0x15B9 JUMP JUMPDEST PUSH1 0x20 DUP3 ADD SWAP1 POP SWAP2 SWAP1 POP JUMP JUMPDEST PUSH0 PUSH1 0x20 DUP3 ADD SWAP1 POP DUP2 DUP2 SUB PUSH0 DUP4 ADD MSTORE PUSH2 0x161A DUP2 PUSH2 0x15E1 JUMP JUMPDEST SWAP1 POP SWAP2 SWAP1 POP JUMP JUMPDEST PUSH32 0x43796265726F7263733A205A65726F20726563697069656E7400000000000000 PUSH0 DUP3 ADD MSTORE POP JUMP JUMPDEST PUSH0 PUSH2 0x1655 PUSH1 0x19 DUP4 PUSH2 0x113C JUMP JUMPDEST SWAP2 POP PUSH2 0x1660 DUP3 PUSH2 0x1621 JUMP JUMPDEST PUSH1 0x20 DUP3 ADD SWAP1 POP SWAP2 SWAP1 POP JUMP JUMPDEST PUSH0 PUSH1 0x20 DUP3 ADD SWAP1 POP DUP2 DUP2 SUB PUSH0 DUP4 ADD MSTORE PUSH2 0x1682 DUP2 PUSH2 0x1649 JUMP JUMPDEST SWAP1 POP SWAP2 SWAP1 POP JUMP JUMPDEST PUSH0 PUSH2 0x1693 DUP3 PUSH2 0x1248 JUMP JUMPDEST SWAP2 POP PUSH2 0x169E DUP4 PUSH2 0x1248 JUMP JUMPDEST SWAP3 POP DUP3 DUP3 ADD SWAP1 POP DUP1 DUP3 GT ISZERO PUSH2 0x16B6 JUMPI PUSH2 0x16B5 PUSH2 0x1559 JUMP JUMPDEST JUMPDEST SWAP3 SWAP2 POP POP JUMP JUMPDEST PUSH32 0x43796265726F7263733A204D617820537570706C790000000000000000000000 PUSH0 DUP3 ADD MSTORE POP JUMP JUMPDEST PUSH0 PUSH2 0x16F0 PUSH1 0x15 DUP4 PUSH2 0x113C JUMP JUMPDEST SWAP2 POP PUSH2 0x16FB DUP3 PUSH2 0x16BC JUMP JUMPDEST PUSH1 0x20 DUP3 ADD SWAP1 POP SWAP2 SWAP1 POP JUMP JUMPDEST PUSH0 PUSH1 0x20 DUP3 ADD SWAP1 POP DUP2 DUP2 SUB PUSH0 DUP4 ADD MSTORE PUSH2 0x171D DUP2 PUSH2 0x16E4 JUMP JUMPDEST SWAP1 POP SWAP2 SWAP1 POP JUMP JUMPDEST PUSH32 0x43796265726F7263733A204C6F772042616C616E636500000000000000000000 PUSH0 DUP3 ADD MSTORE POP JUMP JUMPDEST PUSH0 PUSH2 0x1758 PUSH1 0x16 DUP4 PUSH2 0x113C JUMP JUMPDEST SWAP2 POP PUSH2 0x1763 DUP3 PUSH2 0x1724 JUMP JUMPDEST PUSH1 0x20 DUP3 ADD SWAP1 POP SWAP2 SWAP1 POP JUMP JUMPDEST PUSH0 PUSH1 0x20 DUP3 ADD SWAP1 POP DUP2 DUP2 SUB PUSH0 DUP4 ADD MSTORE PUSH2 0x1785 DUP2 PUSH2 0x174C JUMP JUMPDEST SWAP1 POP SWAP2 SWAP1 POP JUMP JUMPDEST PUSH32 0x4F776E61626C653A206E6577206F776E6572206973207A65726F206164647265 PUSH0 DUP3 ADD MSTORE PUSH32 0x7373000000000000000000000000000000000000000000000000000000000000 PUSH1 0x20 DUP3 ADD MSTORE POP JUMP JUMPDEST PUSH0 PUSH2 0x17E6 PUSH1 0x22 DUP4 PUSH2 0x113C JUMP JUMPDEST SWAP2 POP PUSH2 0x17F1 DUP3 PUSH2 0x178C JUMP JUMPDEST PUSH1 0x40 DUP3 ADD SWAP1 POP SWAP2 SWAP1 POP JUMP JUMPDEST PUSH0 PUSH1 0x20 DUP3 ADD SWAP1 POP DUP2 DUP2 SUB PUSH0 DUP4 ADD MSTORE PUSH2 0x1813 DUP2 PUSH2 0x17DA JUMP JUMPDEST SWAP1 POP SWAP2 SWAP1 POP JUMP INVALID LOG2 PUSH5 0x6970667358 0x22 SLT KECCAK256 RETURNDATACOPY CODESIZE BLOCKHASH NUMBER RETURN AND SELFBALANCE 0xD CREATE2 0xB4 XOR 0xDE PC STOP 0xBB DUP13 MSIZE 0xAB STATICCALL SWAP12 PUSH30 0x8EA7FDE1D252A8D0CF26EB64736F6C634300081E00330000000000000000 "
				},
				"gasEstimates": {
					"creation": {
						"codeDepositCost": "1244800",
						"executionCost": "infinite",
						"totalCost": "infinite"
					},
					"external": {
						"MAX_SUPPLY()": "infinite",
						"allowance(address,address)": "infinite",
						"approve(address,uint256)": "infinite",
						"balanceOf(address)": "2874",
						"burn(uint256)": "infinite",
						"decimals()": "383",
						"mint(address,uint256)": "infinite",
						"minter()": "2554",
						"name()": "infinite",
						"owner()": "2536",
						"renounceOwnership()": "30396",
						"symbol()": "infinite",
						"totalSupply()": "2515",
						"totalSupplyView()": "2521",
						"transfer(address,uint256)": "infinite",
						"transferFrom(address,address,uint256)": "infinite",
						"transferOwnership(address)": "30780"
					},
					"internal": {
						"_transfer(address,address,uint256)": "infinite"
					}
				},
				"methodIdentifiers": {
					"MAX_SUPPLY()": "32cb6b0c",
					"allowance(address,address)": "dd62ed3e",
					"approve(address,uint256)": "095ea7b3",
					"balanceOf(address)": "70a08231",
					"burn(uint256)": "42966c68",
					"decimals()": "313ce567",
					"mint(address,uint256)": "40c10f19",
					"minter()": "07546172",
					"name()": "06fdde03",
					"owner()": "8da5cb5b",
					"renounceOwnership()": "715018a6",
					"symbol()": "95d89b41",
					"totalSupply()": "18160ddd",
					"totalSupplyView()": "7898cd18",
					"transfer(address,uint256)": "a9059cbb",
					"transferFrom(address,address,uint256)": "23b872dd",
					"transferOwnership(address)": "f2fde38b"
				}
			},
			"storageLayout": {
				"storage": [
					{
						"astId": 539,
						"contract": "contracts/Cyberorcs.sol:Cyberorcs",
						"label": "_owner",
						"offset": 0,
						"slot": "0",
						"type": "t_address"
					},
					{
						"astId": 9,
						"contract": "contracts/Cyberorcs.sol:Cyberorcs",
						"label": "NAME",
						"offset": 0,
						"slot": "1",
						"type": "t_string_storage"
					},
					{
						"astId": 11,
						"contract": "contracts/Cyberorcs.sol:Cyberorcs",
						"label": "SYMBOL",
						"offset": 0,
						"slot": "2",
						"type": "t_string_storage"
					},
					{
						"astId": 18,
						"contract": "contracts/Cyberorcs.sol:Cyberorcs",
						"label": "totalSupply",
						"offset": 0,
						"slot": "3",
						"type": "t_uint256"
					},
					{
						"astId": 20,
						"contract": "contracts/Cyberorcs.sol:Cyberorcs",
						"label": "minter",
						"offset": 0,
						"slot": "4",
						"type": "t_address"
					},
					{
						"astId": 24,
						"contract": "contracts/Cyberorcs.sol:Cyberorcs",
						"label": "_balance",
						"offset": 0,
						"slot": "5",
						"type": "t_mapping(t_address,t_uint256)"
					},
					{
						"astId": 30,
						"contract": "contracts/Cyberorcs.sol:Cyberorcs",
						"label": "_allowance",
						"offset": 0,
						"slot": "6",
						"type": "t_mapping(t_address,t_mapping(t_address,t_uint256))"
					}
				],
				"types": {
					"t_address": {
						"encoding": "inplace",
						"label": "address",
						"numberOfBytes": "20"
					},
					"t_mapping(t_address,t_mapping(t_address,t_uint256))": {
						"encoding": "mapping",
						"key": "t_address",
						"label": "mapping(address => mapping(address => uint256))",
						"numberOfBytes": "32",
						"value": "t_mapping(t_address,t_uint256)"
					},
					"t_mapping(t_address,t_uint256)": {
						"encoding": "mapping",
						"key": "t_address",
						"label": "mapping(address => uint256)",
						"numberOfBytes": "32",
						"value": "t_uint256"
					},
					"t_string_storage": {
						"encoding": "bytes",
						"label": "string",
						"numberOfBytes": "32"
					},
					"t_uint256": {
						"encoding": "inplace",
						"label": "uint256",
						"numberOfBytes": "32"
					}
				}
			},
			"userdoc": {
				"kind": "user",
				"methods": {
					"owner()": {
						"notice": "Get the address of the owner    "
					},
					"transferOwnership(address)": {
						"notice": "Set the address of the new owner of the contract"
					}
				},
				"version": 1
			}
		}
	}
}