{
	"contracts/OrcsNFT.sol": {
		"OrcsNFT": {
			"abi": [
				{
					"anonymous": false,
					"inputs": [
						{
							"indexed": true,
							"internalType": "address",
							"name": "_owner",
							"type": "address"
						},
						{
							"indexed": true,
							"internalType": "address",
							"name": "_approved",
							"type": "address"
						},
						{
							"indexed": true,
							"internalType": "uint256",
							"name": "_tokenId",
							"type": "uint256"
						}
					],
					"name": "Approval",
					"type": "event"
				},
				{
					"anonymous": false,
					"inputs": [
						{
							"indexed": true,
							"internalType": "address",
							"name": "_owner",
							"type": "address"
						},
						{
							"indexed": true,
							"internalType": "address",
							"name": "_operator",
							"type": "address"
						},
						{
							"indexed": false,
							"internalType": "bool",
							"name": "_approved",
							"type": "bool"
						}
					],
					"name": "ApprovalForAll",
					"type": "event"
				},
				{
					"anonymous": false,
					"inputs": [
						{
							"indexed": true,
							"internalType": "address",
							"name": "_from",
							"type": "address"
						},
						{
							"indexed": true,
							"internalType": "address",
							"name": "_to",
							"type": "address"
						},
						{
							"indexed": true,
							"internalType": "uint256",
							"name": "_tokenId",
							"type": "uint256"
						}
					],
					"name": "Transfer",
					"type": "event"
				},
				{
					"inputs": [
						{
							"internalType": "address",
							"name": "_approved",
							"type": "address"
						},
						{
							"internalType": "uint256",
							"name": "_tokenId",
							"type": "uint256"
						}
					],
					"name": "approve",
					"outputs": [],
					"stateMutability": "payable",
					"type": "function"
				},
				{
					"inputs": [
						{
							"internalType": "address",
							"name": "_owner",
							"type": "address"
						}
					],
					"name": "balanceOf",
					"outputs": [
						{
							"internalType": "uint256",
							"name": "",
							"type": "uint256"
						}
					],
					"stateMutability": "view",
					"type": "function"
				},
				{
					"inputs": [
						{
							"internalType": "uint256",
							"name": "_tokenId",
							"type": "uint256"
						}
					],
					"name": "getApproved",
					"outputs": [
						{
							"internalType": "address",
							"name": "",
							"type": "address"
						}
					],
					"stateMutability": "view",
					"type": "function"
				},
				{
					"inputs": [
						{
							"internalType": "address",
							"name": "_owner",
							"type": "address"
						},
						{
							"internalType": "address",
							"name": "_operator",
							"type": "address"
						}
					],
					"name": "isApprovedForAll",
					"outputs": [
						{
							"internalType": "bool",
							"name": "",
							"type": "bool"
						}
					],
					"stateMutability": "view",
					"type": "function"
				},
				{
					"inputs": [],
					"name": "name",
					"outputs": [
						{
							"internalType": "string",
							"name": "",
							"type": "string"
						}
					],
					"stateMutability": "view",
					"type": "function"
				},
				{
					"inputs": [
						{
							"internalType": "uint256",
							"name": "_tokenId",
							"type": "uint256"
						}
					],
					"name": "ownerOf",
					"outputs": [
						{
							"internalType": "address",
							"name": "",
							"type": "address"
						}
					],
					"stateMutability": "view",
					"type": "function"
				},
				{
					"inputs": [
						{
							"internalType": "address",
							"name": "_from",
							"type": "address"
						},
						{
							"internalType": "address",
							"name": "_to",
							"type": "address"
						},
						{
							"internalType": "uint256",
							"name": "_tokenId",
							"type": "uint256"
						}
					],
					"name": "safeTransferFrom",
					"outputs": [],
					"stateMutability": "payable",
					"type": "function"
				},
				{
					"inputs": [
						{
							"internalType": "address",
							"name": "_from",
							"type": "address"
						},
						{
							"internalType": "address",
							"name": "_to",
							"type": "address"
						},
						{
							"internalType": "uint256",
							"name": "_tokenId",
							"type": "uint256"
						},
						{
							"internalType": "bytes",
							"name": "_data",
							"type": "bytes"
						}
					],
					"name": "safeTransferFrom",
					"outputs": [],
					"stateMutability": "payable",
					"type": "function"
				},
				{
					"inputs": [
						{
							"internalType": "address",
							"name": "_operator",
							"type": "address"
						},
						{
							"internalType": "bool",
							"name": "_approved",
							"type": "bool"
						}
					],
					"name": "setApprovalForAll",
					"outputs": [],
					"stateMutability": "nonpayable",
					"type": "function"
				},
				{
					"inputs": [],
					"name": "symbol",
					"outputs": [
						{
							"internalType": "string",
							"name": "",
							"type": "string"
						}
					],
					"stateMutability": "view",
					"type": "function"
				},
				{
					"inputs": [
						{
							"internalType": "address",
							"name": "_from",
							"type": "address"
						},
						{
							"internalType": "address",
							"name": "_to",
							"type": "address"
						},
						{
							"internalType": "uint256",
							"name": "_tokenId",
							"type": "uint256"
						}
					],
					"name": "transferFrom",
					"outputs": [],
					"stateMutability": "payable",
					"type": "function"
				}
			],
			"devdoc": {
				"events": {
					"Approval(address,address,uint256)": {
						"details": "This emits when the approved address for an NFT is changed or  reaffirmed. The zero address indicates there is no approved address.  When a Transfer event emits, this also indicates that the approved  address for that NFT (if any) is reset to none."
					},
					"ApprovalForAll(address,address,bool)": {
						"details": "This emits when an operator is enabled or disabled for an owner.  The operator can manage all NFTs of the owner."
					},
					"Transfer(address,address,uint256)": {
						"details": "This emits when ownership of any NFT changes by any mechanism.  This event emits when NFTs are created (`from` == 0) and destroyed  (`to` == 0). Exception: during contract creation, any number of NFTs  may be created and assigned without emitting Transfer. At the time of  any transfer, the approved address for that NFT (if any) is reset to none."
					}
				},
				"kind": "dev",
				"methods": {
					"approve(address,uint256)": {
						"details": "The zero address indicates there is no approved address.  Throws unless `msg.sender` is the current NFT owner, or an authorized  operator of the current owner.",
						"params": {
							"_approved": "The new approved NFT controller",
							"_tokenId": "The NFT to approve"
						}
					},
					"balanceOf(address)": {
						"details": "NFTs assigned to the zero address are considered invalid, and this  function throws for queries about the zero address.",
						"params": {
							"_owner": "An address for whom to query the balance"
						},
						"returns": {
							"_0": "The number of NFTs owned by `_owner`, possibly zero"
						}
					},
					"getApproved(uint256)": {
						"details": "Throws if `_tokenId` is not a valid NFT.",
						"params": {
							"_tokenId": "The NFT to find the approved address for"
						},
						"returns": {
							"_0": "The approved address for this NFT, or the zero address if there is none"
						}
					},
					"isApprovedForAll(address,address)": {
						"params": {
							"_operator": "The address that acts on behalf of the owner",
							"_owner": "The address that owns the NFTs"
						},
						"returns": {
							"_0": "True if `_operator` is an approved operator for `_owner`, false otherwise"
						}
					},
					"ownerOf(uint256)": {
						"details": "NFTs assigned to zero address are considered invalid, and queries  about them do throw.",
						"params": {
							"_tokenId": "The identifier for an NFT"
						},
						"returns": {
							"_0": "The address of the owner of the NFT"
						}
					},
					"safeTransferFrom(address,address,uint256)": {
						"details": "This works identically to the other function with an extra data parameter,  except this function just sets data to \"\".",
						"params": {
							"_from": "The current owner of the NFT",
							"_to": "The new owner",
							"_tokenId": "The NFT to transfer"
						}
					},
					"setApprovalForAll(address,bool)": {
						"details": "Emits the ApprovalForAll event. The contract MUST allow  multiple operators per owner.",
						"params": {
							"_approved": "True if the operator is approved, false to revoke approval",
							"_operator": "Address to add to the set of authorized operators"
						}
					},
					"transferFrom(address,address,uint256)": {
						"details": "Throws unless `msg.sender` is the current owner, an authorized  operator, or the approved address for this NFT. Throws if `_from` is  not the current owner. Throws if `_to` is the zero address. Throws if  `_tokenId` is not a valid NFT.",
						"params": {
							"_from": "The current owner of the NFT",
							"_to": "The new owner",
							"_tokenId": "The NFT to transfer"
						}
					}
				},
				"version": 1
			},
			"evm": {
				"assembly": "    /* \"contracts/OrcsNFT.sol\":190:2951  contract OrcsNFT is IOrcsNFT {... */\n  mstore(0x40, 0x80)\n  callvalue\n  dup1\n  iszero\n  tag_1\n  jumpi\n  revert(0x00, 0x00)\ntag_1:\n  pop\n  dataSize(sub_0)\n  dup1\n  dataOffset(sub_0)\n  0x00\n  codecopy\n  0x00\n  return\nstop\n\nsub_0: assembly {\n        /* \"contracts/OrcsNFT.sol\":190:2951  contract OrcsNFT is IOrcsNFT {... */\n      mstore(0x40, 0x80)\n      jumpi(tag_1, lt(calldatasize, 0x04))\n      shr(0xe0, calldataload(0x00))\n      dup1\n      0x6352211e\n      gt\n      tag_13\n      jumpi\n      dup1\n      0x6352211e\n      eq\n      tag_7\n      jumpi\n      dup1\n      0x70a08231\n      eq\n      tag_8\n      jumpi\n      dup1\n      0x95d89b41\n      eq\n      tag_9\n      jumpi\n      dup1\n      0xa22cb465\n      eq\n      tag_10\n      jumpi\n      dup1\n      0xb88d4fde\n      eq\n      tag_11\n      jumpi\n      dup1\n      0xe985e9c5\n      eq\n      tag_12\n      jumpi\n      jump(tag_1)\n    tag_13:\n      dup1\n      0x06fdde03\n      eq\n      tag_2\n      jumpi\n      dup1\n      0x081812fc\n      eq\n      tag_3\n      jumpi\n      dup1\n      0x095ea7b3\n      eq\n      tag_4\n      jumpi\n      dup1\n      0x23b872dd\n      eq\n      tag_5\n      jumpi\n      dup1\n      0x42842e0e\n      eq\n      tag_6\n      jumpi\n    tag_1:\n      revert(0x00, 0x00)\n        /* \"contracts/OrcsNFT.sol\":228:246  string public name */\n    tag_2:\n      callvalue\n      dup1\n      iszero\n      tag_14\n      jumpi\n      revert(0x00, 0x00)\n    tag_14:\n      pop\n      tag_15\n      tag_16\n      jump\t// in\n    tag_15:\n      mload(0x40)\n      tag_17\n      swap2\n      swap1\n      tag_18\n      jump\t// in\n    tag_17:\n      mload(0x40)\n      dup1\n      swap2\n      sub\n      swap1\n      return\n        /* \"contracts/OrcsNFT.sol\":749:863  function getApproved(uint256 _tokenId) public view returns (address){... */\n    tag_3:\n      callvalue\n      dup1\n      iszero\n      tag_19\n      jumpi\n      revert(0x00, 0x00)\n    tag_19:\n      pop\n      tag_20\n      0x04\n      dup1\n      calldatasize\n      sub\n      dup2\n      add\n      swap1\n      tag_21\n      swap2\n      swap1\n      tag_22\n      jump\t// in\n    tag_21:\n      tag_23\n      jump\t// in\n    tag_20:\n      mload(0x40)\n      tag_24\n      swap2\n      swap1\n      tag_25\n      jump\t// in\n    tag_24:\n      mload(0x40)\n      dup1\n      swap2\n      sub\n      swap1\n      return\n        /* \"contracts/OrcsNFT.sol\":1026:1318  function approve(address _approved, uint256 _tokenId) external payable{... */\n    tag_4:\n      tag_26\n      0x04\n      dup1\n      calldatasize\n      sub\n      dup2\n      add\n      swap1\n      tag_27\n      swap2\n      swap1\n      tag_28\n      jump\t// in\n    tag_27:\n      tag_29\n      jump\t// in\n    tag_26:\n      stop\n        /* \"contracts/OrcsNFT.sol\":2182:2316  function transferFrom(address _from, address _to, uint256 _tokenId) external payable{... */\n    tag_5:\n      tag_30\n      0x04\n      dup1\n      calldatasize\n      sub\n      dup2\n      add\n      swap1\n      tag_31\n      swap2\n      swap1\n      tag_32\n      jump\t// in\n    tag_31:\n      tag_33\n      jump\t// in\n    tag_30:\n      stop\n        /* \"contracts/OrcsNFT.sol\":2795:2944  function safeTransferFrom(address _from, address _to, uint256 _tokenId) public payable{... */\n    tag_6:\n      tag_34\n      0x04\n      dup1\n      calldatasize\n      sub\n      dup2\n      add\n      swap1\n      tag_35\n      swap2\n      swap1\n      tag_32\n      jump\t// in\n    tag_35:\n      tag_36\n      jump\t// in\n    tag_34:\n      stop\n        /* \"contracts/OrcsNFT.sol\":634:741  function ownerOf(uint256 _tokenId) public view returns (address){... */\n    tag_7:\n      callvalue\n      dup1\n      iszero\n      tag_37\n      jumpi\n      revert(0x00, 0x00)\n    tag_37:\n      pop\n      tag_38\n      0x04\n      dup1\n      calldatasize\n      sub\n      dup2\n      add\n      swap1\n      tag_39\n      swap2\n      swap1\n      tag_22\n      jump\t// in\n    tag_39:\n      tag_40\n      jump\t// in\n    tag_38:\n      mload(0x40)\n      tag_41\n      swap2\n      swap1\n      tag_25\n      jump\t// in\n    tag_41:\n      mload(0x40)\n      dup1\n      swap2\n      sub\n      swap1\n      return\n        /* \"contracts/OrcsNFT.sol\":519:626  function balanceOf(address _owner) public view returns (uint256){... */\n    tag_8:\n      callvalue\n      dup1\n      iszero\n      tag_42\n      jumpi\n      revert(0x00, 0x00)\n    tag_42:\n      pop\n      tag_43\n      0x04\n      dup1\n      calldatasize\n      sub\n      dup2\n      add\n      swap1\n      tag_44\n      swap2\n      swap1\n      tag_45\n      jump\t// in\n    tag_44:\n      tag_46\n      jump\t// in\n    tag_43:\n      mload(0x40)\n      tag_47\n      swap2\n      swap1\n      tag_48\n      jump\t// in\n    tag_47:\n      mload(0x40)\n      dup1\n      swap2\n      sub\n      swap1\n      return\n        /* \"contracts/OrcsNFT.sol\":253:273  string public symbol */\n    tag_9:\n      callvalue\n      dup1\n      iszero\n      tag_49\n      jumpi\n      revert(0x00, 0x00)\n    tag_49:\n      pop\n      tag_50\n      tag_51\n      jump\t// in\n    tag_50:\n      mload(0x40)\n      tag_52\n      swap2\n      swap1\n      tag_18\n      jump\t// in\n    tag_52:\n      mload(0x40)\n      dup1\n      swap2\n      sub\n      swap1\n      return\n        /* \"contracts/OrcsNFT.sol\":1326:1597  function setApprovalForAll(address _operator, bool _approved) external{... */\n    tag_10:\n      callvalue\n      dup1\n      iszero\n      tag_53\n      jumpi\n      revert(0x00, 0x00)\n    tag_53:\n      pop\n      tag_54\n      0x04\n      dup1\n      calldatasize\n      sub\n      dup2\n      add\n      swap1\n      tag_55\n      swap2\n      swap1\n      tag_56\n      jump\t// in\n    tag_55:\n      tag_57\n      jump\t// in\n    tag_54:\n      stop\n        /* \"contracts/OrcsNFT.sol\":2324:2787  function safeTransferFrom(address _from, address _to, uint256 _tokenId, bytes memory _data) public payable{... */\n    tag_11:\n      tag_58\n      0x04\n      dup1\n      calldatasize\n      sub\n      dup2\n      add\n      swap1\n      tag_59\n      swap2\n      swap1\n      tag_60\n      jump\t// in\n    tag_59:\n      tag_61\n      jump\t// in\n    tag_58:\n      stop\n        /* \"contracts/OrcsNFT.sol\":871:1018  function isApprovedForAll(address _owner, address _operator) public view returns (bool){... */\n    tag_12:\n      callvalue\n      dup1\n      iszero\n      tag_62\n      jumpi\n      revert(0x00, 0x00)\n    tag_62:\n      pop\n      tag_63\n      0x04\n      dup1\n      calldatasize\n      sub\n      dup2\n      add\n      swap1\n      tag_64\n      swap2\n      swap1\n      tag_65\n      jump\t// in\n    tag_64:\n      tag_66\n      jump\t// in\n    tag_63:\n      mload(0x40)\n      tag_67\n      swap2\n      swap1\n      tag_68\n      jump\t// in\n    tag_67:\n      mload(0x40)\n      dup1\n      swap2\n      sub\n      swap1\n      return\n        /* \"contracts/OrcsNFT.sol\":228:246  string public name */\n    tag_16:\n      0x00\n      dup1\n      sload\n      tag_69\n      swap1\n      tag_70\n      jump\t// in\n    tag_69:\n      dup1\n      0x1f\n      add\n      0x20\n      dup1\n      swap2\n      div\n      mul\n      0x20\n      add\n      mload(0x40)\n      swap1\n      dup2\n      add\n      0x40\n      mstore\n      dup1\n      swap3\n      swap2\n      swap1\n      dup2\n      dup2\n      mstore\n      0x20\n      add\n      dup3\n      dup1\n      sload\n      tag_71\n      swap1\n      tag_70\n      jump\t// in\n    tag_71:\n      dup1\n      iszero\n      tag_72\n      jumpi\n      dup1\n      0x1f\n      lt\n      tag_73\n      jumpi\n      0x0100\n      dup1\n      dup4\n      sload\n      div\n      mul\n      dup4\n      mstore\n      swap2\n      0x20\n      add\n      swap2\n      jump(tag_72)\n    tag_73:\n      dup3\n      add\n      swap2\n      swap1\n      0x00\n      mstore\n      keccak256(0x00, 0x20)\n      swap1\n    tag_74:\n      dup2\n      sload\n      dup2\n      mstore\n      swap1\n      0x01\n      add\n      swap1\n      0x20\n      add\n      dup1\n      dup4\n      gt\n      tag_74\n      jumpi\n      dup3\n      swap1\n      sub\n      0x1f\n      and\n      dup3\n      add\n      swap2\n    tag_72:\n      pop\n      pop\n      pop\n      pop\n      pop\n      dup2\n      jump\t// out\n        /* \"contracts/OrcsNFT.sol\":749:863  function getApproved(uint256 _tokenId) public view returns (address){... */\n    tag_23:\n        /* \"contracts/OrcsNFT.sol\":809:816  address */\n      0x00\n        /* \"contracts/OrcsNFT.sol\":835:845  _operators */\n      0x04\n        /* \"contracts/OrcsNFT.sol\":835:855  _operators[_tokenId] */\n      0x00\n        /* \"contracts/OrcsNFT.sol\":846:854  _tokenId */\n      dup4\n        /* \"contracts/OrcsNFT.sol\":835:855  _operators[_tokenId] */\n      dup2\n      mstore\n      0x20\n      add\n      swap1\n      dup2\n      mstore\n      0x20\n      add\n      0x00\n      keccak256\n      0x00\n      swap1\n      sload\n      swap1\n      0x0100\n      exp\n      swap1\n      div\n      0xffffffffffffffffffffffffffffffffffffffff\n      and\n        /* \"contracts/OrcsNFT.sol\":828:855  return _operators[_tokenId] */\n      swap1\n      pop\n        /* \"contracts/OrcsNFT.sol\":749:863  function getApproved(uint256 _tokenId) public view returns (address){... */\n      swap2\n      swap1\n      pop\n      jump\t// out\n        /* \"contracts/OrcsNFT.sol\":1026:1318  function approve(address _approved, uint256 _tokenId) external payable{... */\n    tag_29:\n        /* \"contracts/OrcsNFT.sol\":1107:1121  address _owner */\n      0x00\n        /* \"contracts/OrcsNFT.sol\":1124:1141  ownerOf(_tokenId) */\n      tag_77\n        /* \"contracts/OrcsNFT.sol\":1132:1140  _tokenId */\n      dup3\n        /* \"contracts/OrcsNFT.sol\":1124:1131  ownerOf */\n      tag_40\n        /* \"contracts/OrcsNFT.sol\":1124:1141  ownerOf(_tokenId) */\n      jump\t// in\n    tag_77:\n        /* \"contracts/OrcsNFT.sol\":1107:1141  address _owner = ownerOf(_tokenId) */\n      swap1\n      pop\n        /* \"contracts/OrcsNFT.sol\":1181:1191  msg.sender */\n      caller\n        /* \"contracts/OrcsNFT.sol\":1160:1191  ownerOf(_tokenId) == msg.sender */\n      0xffffffffffffffffffffffffffffffffffffffff\n      and\n        /* \"contracts/OrcsNFT.sol\":1160:1177  ownerOf(_tokenId) */\n      tag_78\n        /* \"contracts/OrcsNFT.sol\":1168:1176  _tokenId */\n      dup4\n        /* \"contracts/OrcsNFT.sol\":1160:1167  ownerOf */\n      tag_40\n        /* \"contracts/OrcsNFT.sol\":1160:1177  ownerOf(_tokenId) */\n      jump\t// in\n    tag_78:\n        /* \"contracts/OrcsNFT.sol\":1160:1191  ownerOf(_tokenId) == msg.sender */\n      0xffffffffffffffffffffffffffffffffffffffff\n      and\n      eq\n        /* \"contracts/OrcsNFT.sol\":1152:1214  require(ownerOf(_tokenId) == msg.sender, \"OrcsNFT: Not Owner\") */\n      tag_79\n      jumpi\n      mload(0x40)\n      0x08c379a000000000000000000000000000000000000000000000000000000000\n      dup2\n      mstore\n      0x04\n      add\n      tag_80\n      swap1\n      tag_81\n      jump\t// in\n    tag_80:\n      mload(0x40)\n      dup1\n      swap2\n      sub\n      swap1\n      revert\n    tag_79:\n        /* \"contracts/OrcsNFT.sol\":1248:1257  _approved */\n      dup3\n        /* \"contracts/OrcsNFT.sol\":1225:1235  _operators */\n      0x04\n        /* \"contracts/OrcsNFT.sol\":1225:1245  _operators[_tokenId] */\n      0x00\n        /* \"contracts/OrcsNFT.sol\":1236:1244  _tokenId */\n      dup5\n        /* \"contracts/OrcsNFT.sol\":1225:1245  _operators[_tokenId] */\n      dup2\n      mstore\n      0x20\n      add\n      swap1\n      dup2\n      mstore\n      0x20\n      add\n      0x00\n      keccak256\n      0x00\n        /* \"contracts/OrcsNFT.sol\":1225:1257  _operators[_tokenId] = _approved */\n      0x0100\n      exp\n      dup2\n      sload\n      dup2\n      0xffffffffffffffffffffffffffffffffffffffff\n      mul\n      not\n      and\n      swap1\n      dup4\n      0xffffffffffffffffffffffffffffffffffffffff\n      and\n      mul\n      or\n      swap1\n      sstore\n      pop\n        /* \"contracts/OrcsNFT.sol\":1301:1309  _tokenId */\n      dup2\n        /* \"contracts/OrcsNFT.sol\":1290:1299  _approved */\n      dup4\n        /* \"contracts/OrcsNFT.sol\":1273:1310  Approval(_owner, _approved, _tokenId) */\n      0xffffffffffffffffffffffffffffffffffffffff\n      and\n        /* \"contracts/OrcsNFT.sol\":1282:1288  _owner */\n      dup3\n        /* \"contracts/OrcsNFT.sol\":1273:1310  Approval(_owner, _approved, _tokenId) */\n      0xffffffffffffffffffffffffffffffffffffffff\n      and\n      0x8c5be1e5ebec7d5bd14f71427d1e84f3dd0314c0f7b2291e5b200ac8c7c3b925\n      mload(0x40)\n      mload(0x40)\n      dup1\n      swap2\n      sub\n      swap1\n      log4\n        /* \"contracts/OrcsNFT.sol\":1096:1318  {... */\n      pop\n        /* \"contracts/OrcsNFT.sol\":1026:1318  function approve(address _approved, uint256 _tokenId) external payable{... */\n      pop\n      pop\n      jump\t// out\n        /* \"contracts/OrcsNFT.sol\":2182:2316  function transferFrom(address _from, address _to, uint256 _tokenId) external payable{... */\n    tag_33:\n        /* \"contracts/OrcsNFT.sol\":2277:2308  _transfer(_from, _to, _tokenId) */\n      tag_83\n        /* \"contracts/OrcsNFT.sol\":2287:2292  _from */\n      dup4\n        /* \"contracts/OrcsNFT.sol\":2294:2297  _to */\n      dup4\n        /* \"contracts/OrcsNFT.sol\":2299:2307  _tokenId */\n      dup4\n        /* \"contracts/OrcsNFT.sol\":2277:2286  _transfer */\n      tag_84\n        /* \"contracts/OrcsNFT.sol\":2277:2308  _transfer(_from, _to, _tokenId) */\n      jump\t// in\n    tag_83:\n        /* \"contracts/OrcsNFT.sol\":2182:2316  function transferFrom(address _from, address _to, uint256 _tokenId) external payable{... */\n      pop\n      pop\n      pop\n      jump\t// out\n        /* \"contracts/OrcsNFT.sol\":2795:2944  function safeTransferFrom(address _from, address _to, uint256 _tokenId) public payable{... */\n    tag_36:\n        /* \"contracts/OrcsNFT.sol\":2892:2936  safeTransferFrom(_from, _to, _tokenId, \"0x\") */\n      tag_86\n        /* \"contracts/OrcsNFT.sol\":2909:2914  _from */\n      dup4\n        /* \"contracts/OrcsNFT.sol\":2916:2919  _to */\n      dup4\n        /* \"contracts/OrcsNFT.sol\":2921:2929  _tokenId */\n      dup4\n        /* \"contracts/OrcsNFT.sol\":2892:2936  safeTransferFrom(_from, _to, _tokenId, \"0x\") */\n      mload(0x40)\n      dup1\n      0x40\n      add\n      0x40\n      mstore\n      dup1\n      0x02\n      dup2\n      mstore\n      0x20\n      add\n      0x3078000000000000000000000000000000000000000000000000000000000000\n      dup2\n      mstore\n      pop\n        /* \"contracts/OrcsNFT.sol\":2892:2908  safeTransferFrom */\n      tag_61\n        /* \"contracts/OrcsNFT.sol\":2892:2936  safeTransferFrom(_from, _to, _tokenId, \"0x\") */\n      jump\t// in\n    tag_86:\n        /* \"contracts/OrcsNFT.sol\":2795:2944  function safeTransferFrom(address _from, address _to, uint256 _tokenId) public payable{... */\n      pop\n      pop\n      pop\n      jump\t// out\n        /* \"contracts/OrcsNFT.sol\":634:741  function ownerOf(uint256 _tokenId) public view returns (address){... */\n    tag_40:\n        /* \"contracts/OrcsNFT.sol\":690:697  address */\n      0x00\n        /* \"contracts/OrcsNFT.sol\":716:723  _owners */\n      0x03\n        /* \"contracts/OrcsNFT.sol\":716:733  _owners[_tokenId] */\n      0x00\n        /* \"contracts/OrcsNFT.sol\":724:732  _tokenId */\n      dup4\n        /* \"contracts/OrcsNFT.sol\":716:733  _owners[_tokenId] */\n      dup2\n      mstore\n      0x20\n      add\n      swap1\n      dup2\n      mstore\n      0x20\n      add\n      0x00\n      keccak256\n      0x00\n      swap1\n      sload\n      swap1\n      0x0100\n      exp\n      swap1\n      div\n      0xffffffffffffffffffffffffffffffffffffffff\n      and\n        /* \"contracts/OrcsNFT.sol\":709:733  return _owners[_tokenId] */\n      swap1\n      pop\n        /* \"contracts/OrcsNFT.sol\":634:741  function ownerOf(uint256 _tokenId) public view returns (address){... */\n      swap2\n      swap1\n      pop\n      jump\t// out\n        /* \"contracts/OrcsNFT.sol\":519:626  function balanceOf(address _owner) public view returns (uint256){... */\n    tag_46:\n        /* \"contracts/OrcsNFT.sol\":575:582  uint256 */\n      0x00\n        /* \"contracts/OrcsNFT.sol\":601:610  _balances */\n      0x02\n        /* \"contracts/OrcsNFT.sol\":601:618  _balances[_owner] */\n      0x00\n        /* \"contracts/OrcsNFT.sol\":611:617  _owner */\n      dup4\n        /* \"contracts/OrcsNFT.sol\":601:618  _balances[_owner] */\n      0xffffffffffffffffffffffffffffffffffffffff\n      and\n      0xffffffffffffffffffffffffffffffffffffffff\n      and\n      dup2\n      mstore\n      0x20\n      add\n      swap1\n      dup2\n      mstore\n      0x20\n      add\n      0x00\n      keccak256\n      sload\n        /* \"contracts/OrcsNFT.sol\":594:618  return _balances[_owner] */\n      swap1\n      pop\n        /* \"contracts/OrcsNFT.sol\":519:626  function balanceOf(address _owner) public view returns (uint256){... */\n      swap2\n      swap1\n      pop\n      jump\t// out\n        /* \"contracts/OrcsNFT.sol\":253:273  string public symbol */\n    tag_51:\n      0x01\n      dup1\n      sload\n      tag_89\n      swap1\n      tag_70\n      jump\t// in\n    tag_89:\n      dup1\n      0x1f\n      add\n      0x20\n      dup1\n      swap2\n      div\n      mul\n      0x20\n      add\n      mload(0x40)\n      swap1\n      dup2\n      add\n      0x40\n      mstore\n      dup1\n      swap3\n      swap2\n      swap1\n      dup2\n      dup2\n      mstore\n      0x20\n      add\n      dup3\n      dup1\n      sload\n      tag_90\n      swap1\n      tag_70\n      jump\t// in\n    tag_90:\n      dup1\n      iszero\n      tag_91\n      jumpi\n      dup1\n      0x1f\n      lt\n      tag_92\n      jumpi\n      0x0100\n      dup1\n      dup4\n      sload\n      div\n      mul\n      dup4\n      mstore\n      swap2\n      0x20\n      add\n      swap2\n      jump(tag_91)\n    tag_92:\n      dup3\n      add\n      swap2\n      swap1\n      0x00\n      mstore\n      keccak256(0x00, 0x20)\n      swap1\n    tag_93:\n      dup2\n      sload\n      dup2\n      mstore\n      swap1\n      0x01\n      add\n      swap1\n      0x20\n      add\n      dup1\n      dup4\n      gt\n      tag_93\n      jumpi\n      dup3\n      swap1\n      sub\n      0x1f\n      and\n      dup3\n      add\n      swap2\n    tag_91:\n      pop\n      pop\n      pop\n      pop\n      pop\n      dup2\n      jump\t// out\n        /* \"contracts/OrcsNFT.sol\":1326:1597  function setApprovalForAll(address _operator, bool _approved) external{... */\n    tag_57:\n        /* \"contracts/OrcsNFT.sol\":1439:1440  0 */\n      0x00\n        /* \"contracts/OrcsNFT.sol\":1415:1436  balanceOf(msg.sender) */\n      tag_95\n        /* \"contracts/OrcsNFT.sol\":1425:1435  msg.sender */\n      caller\n        /* \"contracts/OrcsNFT.sol\":1415:1424  balanceOf */\n      tag_46\n        /* \"contracts/OrcsNFT.sol\":1415:1436  balanceOf(msg.sender) */\n      jump\t// in\n    tag_95:\n        /* \"contracts/OrcsNFT.sol\":1415:1440  balanceOf(msg.sender) > 0 */\n      gt\n        /* \"contracts/OrcsNFT.sol\":1407:1464  require(balanceOf(msg.sender) > 0, \"OrcsNFT: No Balance\") */\n      tag_96\n      jumpi\n      mload(0x40)\n      0x08c379a000000000000000000000000000000000000000000000000000000000\n      dup2\n      mstore\n      0x04\n      add\n      tag_97\n      swap1\n      tag_98\n      jump\t// in\n    tag_97:\n      mload(0x40)\n      dup1\n      swap2\n      sub\n      swap1\n      revert\n    tag_96:\n        /* \"contracts/OrcsNFT.sol\":1516:1525  _approved */\n      dup1\n        /* \"contracts/OrcsNFT.sol\":1475:1490  _approvedForAll */\n      0x05\n        /* \"contracts/OrcsNFT.sol\":1475:1502  _approvedForAll[msg.sender] */\n      0x00\n        /* \"contracts/OrcsNFT.sol\":1491:1501  msg.sender */\n      caller\n        /* \"contracts/OrcsNFT.sol\":1475:1502  _approvedForAll[msg.sender] */\n      0xffffffffffffffffffffffffffffffffffffffff\n      and\n      0xffffffffffffffffffffffffffffffffffffffff\n      and\n      dup2\n      mstore\n      0x20\n      add\n      swap1\n      dup2\n      mstore\n      0x20\n      add\n      0x00\n      keccak256\n        /* \"contracts/OrcsNFT.sol\":1475:1513  _approvedForAll[msg.sender][_operator] */\n      0x00\n        /* \"contracts/OrcsNFT.sol\":1503:1512  _operator */\n      dup5\n        /* \"contracts/OrcsNFT.sol\":1475:1513  _approvedForAll[msg.sender][_operator] */\n      0xffffffffffffffffffffffffffffffffffffffff\n      and\n      0xffffffffffffffffffffffffffffffffffffffff\n      and\n      dup2\n      mstore\n      0x20\n      add\n      swap1\n      dup2\n      mstore\n      0x20\n      add\n      0x00\n      keccak256\n      0x00\n        /* \"contracts/OrcsNFT.sol\":1475:1525  _approvedForAll[msg.sender][_operator] = _approved */\n      0x0100\n      exp\n      dup2\n      sload\n      dup2\n      0xff\n      mul\n      not\n      and\n      swap1\n      dup4\n      iszero\n      iszero\n      mul\n      or\n      swap1\n      sstore\n      pop\n        /* \"contracts/OrcsNFT.sol\":1568:1577  _operator */\n      dup2\n        /* \"contracts/OrcsNFT.sol\":1541:1589  ApprovalForAll(msg.sender, _operator, _approved) */\n      0xffffffffffffffffffffffffffffffffffffffff\n      and\n        /* \"contracts/OrcsNFT.sol\":1556:1566  msg.sender */\n      caller\n        /* \"contracts/OrcsNFT.sol\":1541:1589  ApprovalForAll(msg.sender, _operator, _approved) */\n      0xffffffffffffffffffffffffffffffffffffffff\n      and\n      0x17307eab39ab6107e8899845ad3d59bd9653f200f220920489ca2b5937696c31\n        /* \"contracts/OrcsNFT.sol\":1579:1588  _approved */\n      dup4\n        /* \"contracts/OrcsNFT.sol\":1541:1589  ApprovalForAll(msg.sender, _operator, _approved) */\n      mload(0x40)\n      tag_99\n      swap2\n      swap1\n      tag_68\n      jump\t// in\n    tag_99:\n      mload(0x40)\n      dup1\n      swap2\n      sub\n      swap1\n      log3\n        /* \"contracts/OrcsNFT.sol\":1326:1597  function setApprovalForAll(address _operator, bool _approved) external{... */\n      pop\n      pop\n      jump\t// out\n        /* \"contracts/OrcsNFT.sol\":2324:2787  function safeTransferFrom(address _from, address _to, uint256 _tokenId, bytes memory _data) public payable{... */\n    tag_61:\n        /* \"contracts/OrcsNFT.sol\":2441:2472  _transfer(_from, _to, _tokenId) */\n      tag_101\n        /* \"contracts/OrcsNFT.sol\":2451:2456  _from */\n      dup5\n        /* \"contracts/OrcsNFT.sol\":2458:2461  _to */\n      dup5\n        /* \"contracts/OrcsNFT.sol\":2463:2471  _tokenId */\n      dup5\n        /* \"contracts/OrcsNFT.sol\":2441:2450  _transfer */\n      tag_84\n        /* \"contracts/OrcsNFT.sol\":2441:2472  _transfer(_from, _to, _tokenId) */\n      jump\t// in\n    tag_101:\n        /* \"contracts/OrcsNFT.sol\":2506:2507  0 */\n      0x00\n        /* \"contracts/OrcsNFT.sol\":2488:2491  _to */\n      dup4\n        /* \"contracts/OrcsNFT.sol\":2488:2503  _to.code.length */\n      0xffffffffffffffffffffffffffffffffffffffff\n      and\n      extcodesize\n        /* \"contracts/OrcsNFT.sol\":2488:2507  _to.code.length > 0 */\n      gt\n        /* \"contracts/OrcsNFT.sol\":2485:2780  if(_to.code.length > 0 ){... */\n      iszero\n      tag_102\n      jumpi\n        /* \"contracts/OrcsNFT.sol\":2524:2551  IERC721Receiver nftReceiver */\n      0x00\n        /* \"contracts/OrcsNFT.sol\":2570:2573  _to */\n      dup4\n        /* \"contracts/OrcsNFT.sol\":2524:2574  IERC721Receiver nftReceiver = IERC721Receiver(_to) */\n      swap1\n      pop\n        /* \"contracts/OrcsNFT.sol\":2589:2600  bytes4 resp */\n      0x00\n        /* \"contracts/OrcsNFT.sol\":2603:2614  nftReceiver */\n      dup2\n        /* \"contracts/OrcsNFT.sol\":2603:2631  nftReceiver.onERC721Received */\n      0xffffffffffffffffffffffffffffffffffffffff\n      and\n      0x150b7a02\n        /* \"contracts/OrcsNFT.sol\":2632:2642  msg.sender */\n      caller\n        /* \"contracts/OrcsNFT.sol\":2644:2649  _from */\n      dup9\n        /* \"contracts/OrcsNFT.sol\":2651:2659  _tokenId */\n      dup8\n        /* \"contracts/OrcsNFT.sol\":2661:2666  _data */\n      dup8\n        /* \"contracts/OrcsNFT.sol\":2603:2667  nftReceiver.onERC721Received(msg.sender, _from, _tokenId, _data) */\n      mload(0x40)\n      dup6\n      0xffffffff\n      and\n      0xe0\n      shl\n      dup2\n      mstore\n      0x04\n      add\n      tag_103\n      swap5\n      swap4\n      swap3\n      swap2\n      swap1\n      tag_104\n      jump\t// in\n    tag_103:\n      0x20\n      mload(0x40)\n      dup1\n      dup4\n      sub\n      dup2\n      0x00\n      dup8\n      gas\n      call\n      iszero\n      dup1\n      iszero\n      tag_106\n      jumpi\n      returndatacopy(0x00, 0x00, returndatasize)\n      revert(0x00, returndatasize)\n    tag_106:\n      pop\n      pop\n      pop\n      pop\n      mload(0x40)\n      returndatasize\n      not(0x1f)\n      0x1f\n      dup3\n      add\n      and\n      dup3\n      add\n      dup1\n      0x40\n      mstore\n      pop\n      dup2\n      add\n      swap1\n      tag_107\n      swap2\n      swap1\n      tag_108\n      jump\t// in\n    tag_107:\n        /* \"contracts/OrcsNFT.sol\":2589:2667  bytes4 resp = nftReceiver.onERC721Received(msg.sender, _from, _tokenId, _data) */\n      swap1\n      pop\n        /* \"contracts/OrcsNFT.sol\":2706:2766  keccak256(\"onERC721Received(address,address,uint256,bytes)\") */\n      0x150b7a023d4804d13e8c85fb27262cb750cf6ba9f9dd3bb30d90f482ceeb4b1f\n        /* \"contracts/OrcsNFT.sol\":2691:2767  resp == bytes4(keccak256(\"onERC721Received(address,address,uint256,bytes)\")) */\n      not(0xffffffffffffffffffffffffffffffffffffffffffffffffffffffff)\n      and\n        /* \"contracts/OrcsNFT.sol\":2691:2695  resp */\n      dup2\n        /* \"contracts/OrcsNFT.sol\":2691:2767  resp == bytes4(keccak256(\"onERC721Received(address,address,uint256,bytes)\")) */\n      not(0xffffffffffffffffffffffffffffffffffffffffffffffffffffffff)\n      and\n      eq\n        /* \"contracts/OrcsNFT.sol\":2682:2768  require( resp == bytes4(keccak256(\"onERC721Received(address,address,uint256,bytes)\"))) */\n      tag_109\n      jumpi\n      revert(0x00, 0x00)\n    tag_109:\n        /* \"contracts/OrcsNFT.sol\":2509:2780  {... */\n      pop\n      pop\n        /* \"contracts/OrcsNFT.sol\":2485:2780  if(_to.code.length > 0 ){... */\n    tag_102:\n        /* \"contracts/OrcsNFT.sol\":2324:2787  function safeTransferFrom(address _from, address _to, uint256 _tokenId, bytes memory _data) public payable{... */\n      pop\n      pop\n      pop\n      pop\n      jump\t// out\n        /* \"contracts/OrcsNFT.sol\":871:1018  function isApprovedForAll(address _owner, address _operator) public view returns (bool){... */\n    tag_66:\n        /* \"contracts/OrcsNFT.sol\":953:957  bool */\n      0x00\n        /* \"contracts/OrcsNFT.sol\":976:991  _approvedForAll */\n      0x05\n        /* \"contracts/OrcsNFT.sol\":976:999  _approvedForAll[_owner] */\n      0x00\n        /* \"contracts/OrcsNFT.sol\":992:998  _owner */\n      dup5\n        /* \"contracts/OrcsNFT.sol\":976:999  _approvedForAll[_owner] */\n      0xffffffffffffffffffffffffffffffffffffffff\n      and\n      0xffffffffffffffffffffffffffffffffffffffff\n      and\n      dup2\n      mstore\n      0x20\n      add\n      swap1\n      dup2\n      mstore\n      0x20\n      add\n      0x00\n      keccak256\n        /* \"contracts/OrcsNFT.sol\":976:1010  _approvedForAll[_owner][_operator] */\n      0x00\n        /* \"contracts/OrcsNFT.sol\":1000:1009  _operator */\n      dup4\n        /* \"contracts/OrcsNFT.sol\":976:1010  _approvedForAll[_owner][_operator] */\n      0xffffffffffffffffffffffffffffffffffffffff\n      and\n      0xffffffffffffffffffffffffffffffffffffffff\n      and\n      dup2\n      mstore\n      0x20\n      add\n      swap1\n      dup2\n      mstore\n      0x20\n      add\n      0x00\n      keccak256\n      0x00\n      swap1\n      sload\n      swap1\n      0x0100\n      exp\n      swap1\n      div\n      0xff\n      and\n        /* \"contracts/OrcsNFT.sol\":969:1010  return _approvedForAll[_owner][_operator] */\n      swap1\n      pop\n        /* \"contracts/OrcsNFT.sol\":871:1018  function isApprovedForAll(address _owner, address _operator) public view returns (bool){... */\n      swap3\n      swap2\n      pop\n      pop\n      jump\t// out\n        /* \"contracts/OrcsNFT.sol\":1605:2174  function _transfer(address _from, address _to, uint256 _tokenId) internal {... */\n    tag_84:\n        /* \"contracts/OrcsNFT.sol\":1690:1704  address _owner */\n      0x00\n        /* \"contracts/OrcsNFT.sol\":1707:1724  ownerOf(_tokenId) */\n      tag_112\n        /* \"contracts/OrcsNFT.sol\":1715:1723  _tokenId */\n      dup3\n        /* \"contracts/OrcsNFT.sol\":1707:1714  ownerOf */\n      tag_40\n        /* \"contracts/OrcsNFT.sol\":1707:1724  ownerOf(_tokenId) */\n      jump\t// in\n    tag_112:\n        /* \"contracts/OrcsNFT.sol\":1690:1724  address _owner = ownerOf(_tokenId) */\n      swap1\n      pop\n        /* \"contracts/OrcsNFT.sol\":1752:1758  _owner */\n      dup1\n        /* \"contracts/OrcsNFT.sol\":1743:1758  _from == _owner */\n      0xffffffffffffffffffffffffffffffffffffffff\n      and\n        /* \"contracts/OrcsNFT.sol\":1743:1748  _from */\n      dup5\n        /* \"contracts/OrcsNFT.sol\":1743:1758  _from == _owner */\n      0xffffffffffffffffffffffffffffffffffffffff\n      and\n      eq\n        /* \"contracts/OrcsNFT.sol\":1735:1786  require(_from == _owner, \"OrcsNFT: From not Owner\") */\n      tag_113\n      jumpi\n      mload(0x40)\n      0x08c379a000000000000000000000000000000000000000000000000000000000\n      dup2\n      mstore\n      0x04\n      add\n      tag_114\n      swap1\n      tag_115\n      jump\t// in\n    tag_114:\n      mload(0x40)\n      dup1\n      swap2\n      sub\n      swap1\n      revert\n    tag_113:\n        /* \"contracts/OrcsNFT.sol\":1797:1814  address _approved */\n      0x00\n        /* \"contracts/OrcsNFT.sol\":1817:1838  getApproved(_tokenId) */\n      tag_116\n        /* \"contracts/OrcsNFT.sol\":1829:1837  _tokenId */\n      dup4\n        /* \"contracts/OrcsNFT.sol\":1817:1828  getApproved */\n      tag_23\n        /* \"contracts/OrcsNFT.sol\":1817:1838  getApproved(_tokenId) */\n      jump\t// in\n    tag_116:\n        /* \"contracts/OrcsNFT.sol\":1797:1838  address _approved = getApproved(_tokenId) */\n      swap1\n      pop\n        /* \"contracts/OrcsNFT.sol\":1871:1877  _owner */\n      dup2\n        /* \"contracts/OrcsNFT.sol\":1857:1877  msg.sender == _owner */\n      0xffffffffffffffffffffffffffffffffffffffff\n      and\n        /* \"contracts/OrcsNFT.sol\":1857:1867  msg.sender */\n      caller\n        /* \"contracts/OrcsNFT.sol\":1857:1877  msg.sender == _owner */\n      0xffffffffffffffffffffffffffffffffffffffff\n      and\n      eq\n        /* \"contracts/OrcsNFT.sol\":1857:1904  msg.sender == _owner || msg.sender == _approved */\n      dup1\n      tag_117\n      jumpi\n      pop\n        /* \"contracts/OrcsNFT.sol\":1895:1904  _approved */\n      dup1\n        /* \"contracts/OrcsNFT.sol\":1881:1904  msg.sender == _approved */\n      0xffffffffffffffffffffffffffffffffffffffff\n      and\n        /* \"contracts/OrcsNFT.sol\":1881:1891  msg.sender */\n      caller\n        /* \"contracts/OrcsNFT.sol\":1881:1904  msg.sender == _approved */\n      0xffffffffffffffffffffffffffffffffffffffff\n      and\n      eq\n        /* \"contracts/OrcsNFT.sol\":1857:1904  msg.sender == _owner || msg.sender == _approved */\n    tag_117:\n        /* \"contracts/OrcsNFT.sol\":1857:1943  msg.sender == _owner || msg.sender == _approved || isApprovedForAll(_from, msg.sender) */\n      dup1\n      tag_118\n      jumpi\n      pop\n        /* \"contracts/OrcsNFT.sol\":1908:1943  isApprovedForAll(_from, msg.sender) */\n      tag_119\n        /* \"contracts/OrcsNFT.sol\":1925:1930  _from */\n      dup6\n        /* \"contracts/OrcsNFT.sol\":1932:1942  msg.sender */\n      caller\n        /* \"contracts/OrcsNFT.sol\":1908:1924  isApprovedForAll */\n      tag_66\n        /* \"contracts/OrcsNFT.sol\":1908:1943  isApprovedForAll(_from, msg.sender) */\n      jump\t// in\n    tag_119:\n        /* \"contracts/OrcsNFT.sol\":1857:1943  msg.sender == _owner || msg.sender == _approved || isApprovedForAll(_from, msg.sender) */\n    tag_118:\n        /* \"contracts/OrcsNFT.sol\":1849:1976  require(msg.sender == _owner || msg.sender == _approved || isApprovedForAll(_from, msg.sender), \"OrcsNFT: From not authorized\") */\n      tag_120\n      jumpi\n      mload(0x40)\n      0x08c379a000000000000000000000000000000000000000000000000000000000\n      dup2\n      mstore\n      0x04\n      add\n      tag_121\n      swap1\n      tag_122\n      jump\t// in\n    tag_121:\n      mload(0x40)\n      dup1\n      swap2\n      sub\n      swap1\n      revert\n    tag_120:\n        /* \"contracts/OrcsNFT.sol\":2007:2008  1 */\n      0x01\n        /* \"contracts/OrcsNFT.sol\":1987:1996  _balances */\n      0x02\n        /* \"contracts/OrcsNFT.sol\":1987:2003  _balances[_from] */\n      0x00\n        /* \"contracts/OrcsNFT.sol\":1997:2002  _from */\n      dup8\n        /* \"contracts/OrcsNFT.sol\":1987:2003  _balances[_from] */\n      0xffffffffffffffffffffffffffffffffffffffff\n      and\n      0xffffffffffffffffffffffffffffffffffffffff\n      and\n      dup2\n      mstore\n      0x20\n      add\n      swap1\n      dup2\n      mstore\n      0x20\n      add\n      0x00\n      keccak256\n      0x00\n        /* \"contracts/OrcsNFT.sol\":1987:2008  _balances[_from] -= 1 */\n      dup3\n      dup3\n      sload\n      tag_123\n      swap2\n      swap1\n      tag_124\n      jump\t// in\n    tag_123:\n      swap3\n      pop\n      pop\n      dup2\n      swap1\n      sstore\n      pop\n        /* \"contracts/OrcsNFT.sol\":2037:2038  1 */\n      0x01\n        /* \"contracts/OrcsNFT.sol\":2019:2028  _balances */\n      0x02\n        /* \"contracts/OrcsNFT.sol\":2019:2033  _balances[_to] */\n      0x00\n        /* \"contracts/OrcsNFT.sol\":2029:2032  _to */\n      dup7\n        /* \"contracts/OrcsNFT.sol\":2019:2033  _balances[_to] */\n      0xffffffffffffffffffffffffffffffffffffffff\n      and\n      0xffffffffffffffffffffffffffffffffffffffff\n      and\n      dup2\n      mstore\n      0x20\n      add\n      swap1\n      dup2\n      mstore\n      0x20\n      add\n      0x00\n      keccak256\n      0x00\n        /* \"contracts/OrcsNFT.sol\":2019:2038  _balances[_to] += 1 */\n      dup3\n      dup3\n      sload\n      tag_125\n      swap2\n      swap1\n      tag_126\n      jump\t// in\n    tag_125:\n      swap3\n      pop\n      pop\n      dup2\n      swap1\n      sstore\n      pop\n        /* \"contracts/OrcsNFT.sol\":2069:2072  _to */\n      dup4\n        /* \"contracts/OrcsNFT.sol\":2049:2056  _owners */\n      0x03\n        /* \"contracts/OrcsNFT.sol\":2049:2066  _owners[_tokenId] */\n      0x00\n        /* \"contracts/OrcsNFT.sol\":2057:2065  _tokenId */\n      dup6\n        /* \"contracts/OrcsNFT.sol\":2049:2066  _owners[_tokenId] */\n      dup2\n      mstore\n      0x20\n      add\n      swap1\n      dup2\n      mstore\n      0x20\n      add\n      0x00\n      keccak256\n      0x00\n        /* \"contracts/OrcsNFT.sol\":2049:2072  _owners[_tokenId] = _to */\n      0x0100\n      exp\n      dup2\n      sload\n      dup2\n      0xffffffffffffffffffffffffffffffffffffffff\n      mul\n      not\n      and\n      swap1\n      dup4\n      0xffffffffffffffffffffffffffffffffffffffff\n      and\n      mul\n      or\n      swap1\n      sstore\n      pop\n        /* \"contracts/OrcsNFT.sol\":2114:2115  0 */\n      0x00\n        /* \"contracts/OrcsNFT.sol\":2083:2093  _operators */\n      0x04\n        /* \"contracts/OrcsNFT.sol\":2083:2103  _operators[_tokenId] */\n      0x00\n        /* \"contracts/OrcsNFT.sol\":2094:2102  _tokenId */\n      dup6\n        /* \"contracts/OrcsNFT.sol\":2083:2103  _operators[_tokenId] */\n      dup2\n      mstore\n      0x20\n      add\n      swap1\n      dup2\n      mstore\n      0x20\n      add\n      0x00\n      keccak256\n      0x00\n        /* \"contracts/OrcsNFT.sol\":2083:2116  _operators[_tokenId] = address(0) */\n      0x0100\n      exp\n      dup2\n      sload\n      dup2\n      0xffffffffffffffffffffffffffffffffffffffff\n      mul\n      not\n      and\n      swap1\n      dup4\n      0xffffffffffffffffffffffffffffffffffffffff\n      and\n      mul\n      or\n      swap1\n      sstore\n      pop\n        /* \"contracts/OrcsNFT.sol\":2155:2163  _tokenId */\n      dup3\n        /* \"contracts/OrcsNFT.sol\":2150:2153  _to */\n      dup5\n        /* \"contracts/OrcsNFT.sol\":2134:2164  Transfer(_from, _to, _tokenId) */\n      0xffffffffffffffffffffffffffffffffffffffff\n      and\n        /* \"contracts/OrcsNFT.sol\":2143:2148  _from */\n      dup7\n        /* \"contracts/OrcsNFT.sol\":2134:2164  Transfer(_from, _to, _tokenId) */\n      0xffffffffffffffffffffffffffffffffffffffff\n      and\n      0xddf252ad1be2c89b69c2b068fc378daa952ba7f163c4a11628f55a4df523b3ef\n      mload(0x40)\n      mload(0x40)\n      dup1\n      swap2\n      sub\n      swap1\n      log4\n        /* \"contracts/OrcsNFT.sol\":1679:2174  {... */\n      pop\n      pop\n        /* \"contracts/OrcsNFT.sol\":1605:2174  function _transfer(address _from, address _to, uint256 _tokenId) internal {... */\n      pop\n      pop\n      pop\n      jump\t// out\n        /* \"#utility.yul\":7:106   */\n    tag_127:\n        /* \"#utility.yul\":59:65   */\n      0x00\n        /* \"#utility.yul\":93:98   */\n      dup2\n        /* \"#utility.yul\":87:99   */\n      mload\n        /* \"#utility.yul\":77:99   */\n      swap1\n      pop\n        /* \"#utility.yul\":7:106   */\n      swap2\n      swap1\n      pop\n      jump\t// out\n        /* \"#utility.yul\":112:281   */\n    tag_128:\n        /* \"#utility.yul\":196:207   */\n      0x00\n        /* \"#utility.yul\":230:236   */\n      dup3\n        /* \"#utility.yul\":225:228   */\n      dup3\n        /* \"#utility.yul\":218:237   */\n      mstore\n        /* \"#utility.yul\":270:274   */\n      0x20\n        /* \"#utility.yul\":265:268   */\n      dup3\n        /* \"#utility.yul\":261:275   */\n      add\n        /* \"#utility.yul\":246:275   */\n      swap1\n      pop\n        /* \"#utility.yul\":112:281   */\n      swap3\n      swap2\n      pop\n      pop\n      jump\t// out\n        /* \"#utility.yul\":287:426   */\n    tag_129:\n        /* \"#utility.yul\":376:382   */\n      dup3\n        /* \"#utility.yul\":371:374   */\n      dup2\n        /* \"#utility.yul\":366:369   */\n      dup4\n        /* \"#utility.yul\":360:383   */\n      mcopy\n        /* \"#utility.yul\":417:418   */\n      0x00\n        /* \"#utility.yul\":408:414   */\n      dup4\n        /* \"#utility.yul\":403:406   */\n      dup4\n        /* \"#utility.yul\":399:415   */\n      add\n        /* \"#utility.yul\":392:419   */\n      mstore\n        /* \"#utility.yul\":287:426   */\n      pop\n      pop\n      pop\n      jump\t// out\n        /* \"#utility.yul\":432:534   */\n    tag_130:\n        /* \"#utility.yul\":473:479   */\n      0x00\n        /* \"#utility.yul\":524:526   */\n      0x1f\n        /* \"#utility.yul\":520:527   */\n      not\n        /* \"#utility.yul\":515:517   */\n      0x1f\n        /* \"#utility.yul\":508:513   */\n      dup4\n        /* \"#utility.yul\":504:518   */\n      add\n        /* \"#utility.yul\":500:528   */\n      and\n        /* \"#utility.yul\":490:528   */\n      swap1\n      pop\n        /* \"#utility.yul\":432:534   */\n      swap2\n      swap1\n      pop\n      jump\t// out\n        /* \"#utility.yul\":540:917   */\n    tag_131:\n        /* \"#utility.yul\":628:631   */\n      0x00\n        /* \"#utility.yul\":656:695   */\n      tag_179\n        /* \"#utility.yul\":689:694   */\n      dup3\n        /* \"#utility.yul\":656:695   */\n      tag_127\n      jump\t// in\n    tag_179:\n        /* \"#utility.yul\":711:782   */\n      tag_180\n        /* \"#utility.yul\":775:781   */\n      dup2\n        /* \"#utility.yul\":770:773   */\n      dup6\n        /* \"#utility.yul\":711:782   */\n      tag_128\n      jump\t// in\n    tag_180:\n        /* \"#utility.yul\":704:782   */\n      swap4\n      pop\n        /* \"#utility.yul\":791:856   */\n      tag_181\n        /* \"#utility.yul\":849:855   */\n      dup2\n        /* \"#utility.yul\":844:847   */\n      dup6\n        /* \"#utility.yul\":837:841   */\n      0x20\n        /* \"#utility.yul\":830:835   */\n      dup7\n        /* \"#utility.yul\":826:842   */\n      add\n        /* \"#utility.yul\":791:856   */\n      tag_129\n      jump\t// in\n    tag_181:\n        /* \"#utility.yul\":881:910   */\n      tag_182\n        /* \"#utility.yul\":903:909   */\n      dup2\n        /* \"#utility.yul\":881:910   */\n      tag_130\n      jump\t// in\n    tag_182:\n        /* \"#utility.yul\":876:879   */\n      dup5\n        /* \"#utility.yul\":872:911   */\n      add\n        /* \"#utility.yul\":865:911   */\n      swap2\n      pop\n        /* \"#utility.yul\":632:917   */\n      pop\n        /* \"#utility.yul\":540:917   */\n      swap3\n      swap2\n      pop\n      pop\n      jump\t// out\n        /* \"#utility.yul\":923:1236   */\n    tag_18:\n        /* \"#utility.yul\":1036:1040   */\n      0x00\n        /* \"#utility.yul\":1074:1076   */\n      0x20\n        /* \"#utility.yul\":1063:1072   */\n      dup3\n        /* \"#utility.yul\":1059:1077   */\n      add\n        /* \"#utility.yul\":1051:1077   */\n      swap1\n      pop\n        /* \"#utility.yul\":1123:1132   */\n      dup2\n        /* \"#utility.yul\":1117:1121   */\n      dup2\n        /* \"#utility.yul\":1113:1133   */\n      sub\n        /* \"#utility.yul\":1109:1110   */\n      0x00\n        /* \"#utility.yul\":1098:1107   */\n      dup4\n        /* \"#utility.yul\":1094:1111   */\n      add\n        /* \"#utility.yul\":1087:1134   */\n      mstore\n        /* \"#utility.yul\":1151:1229   */\n      tag_184\n        /* \"#utility.yul\":1224:1228   */\n      dup2\n        /* \"#utility.yul\":1215:1221   */\n      dup5\n        /* \"#utility.yul\":1151:1229   */\n      tag_131\n      jump\t// in\n    tag_184:\n        /* \"#utility.yul\":1143:1229   */\n      swap1\n      pop\n        /* \"#utility.yul\":923:1236   */\n      swap3\n      swap2\n      pop\n      pop\n      jump\t// out\n        /* \"#utility.yul\":1242:1317   */\n    tag_132:\n        /* \"#utility.yul\":1275:1281   */\n      0x00\n        /* \"#utility.yul\":1308:1310   */\n      0x40\n        /* \"#utility.yul\":1302:1311   */\n      mload\n        /* \"#utility.yul\":1292:1311   */\n      swap1\n      pop\n        /* \"#utility.yul\":1242:1317   */\n      swap1\n      jump\t// out\n        /* \"#utility.yul\":1323:1440   */\n    tag_133:\n        /* \"#utility.yul\":1432:1433   */\n      0x00\n        /* \"#utility.yul\":1429:1430   */\n      0x00\n        /* \"#utility.yul\":1422:1434   */\n      revert\n        /* \"#utility.yul\":1446:1563   */\n    tag_134:\n        /* \"#utility.yul\":1555:1556   */\n      0x00\n        /* \"#utility.yul\":1552:1553   */\n      0x00\n        /* \"#utility.yul\":1545:1557   */\n      revert\n        /* \"#utility.yul\":1569:1646   */\n    tag_135:\n        /* \"#utility.yul\":1606:1613   */\n      0x00\n        /* \"#utility.yul\":1635:1640   */\n      dup2\n        /* \"#utility.yul\":1624:1640   */\n      swap1\n      pop\n        /* \"#utility.yul\":1569:1646   */\n      swap2\n      swap1\n      pop\n      jump\t// out\n        /* \"#utility.yul\":1652:1774   */\n    tag_136:\n        /* \"#utility.yul\":1725:1749   */\n      tag_190\n        /* \"#utility.yul\":1743:1748   */\n      dup2\n        /* \"#utility.yul\":1725:1749   */\n      tag_135\n      jump\t// in\n    tag_190:\n        /* \"#utility.yul\":1718:1723   */\n      dup2\n        /* \"#utility.yul\":1715:1750   */\n      eq\n        /* \"#utility.yul\":1705:1768   */\n      tag_191\n      jumpi\n        /* \"#utility.yul\":1764:1765   */\n      0x00\n        /* \"#utility.yul\":1761:1762   */\n      0x00\n        /* \"#utility.yul\":1754:1766   */\n      revert\n        /* \"#utility.yul\":1705:1768   */\n    tag_191:\n        /* \"#utility.yul\":1652:1774   */\n      pop\n      jump\t// out\n        /* \"#utility.yul\":1780:1919   */\n    tag_137:\n        /* \"#utility.yul\":1826:1831   */\n      0x00\n        /* \"#utility.yul\":1864:1870   */\n      dup2\n        /* \"#utility.yul\":1851:1871   */\n      calldataload\n        /* \"#utility.yul\":1842:1871   */\n      swap1\n      pop\n        /* \"#utility.yul\":1880:1913   */\n      tag_193\n        /* \"#utility.yul\":1907:1912   */\n      dup2\n        /* \"#utility.yul\":1880:1913   */\n      tag_136\n      jump\t// in\n    tag_193:\n        /* \"#utility.yul\":1780:1919   */\n      swap3\n      swap2\n      pop\n      pop\n      jump\t// out\n        /* \"#utility.yul\":1925:2254   */\n    tag_22:\n        /* \"#utility.yul\":1984:1990   */\n      0x00\n        /* \"#utility.yul\":2033:2035   */\n      0x20\n        /* \"#utility.yul\":2021:2030   */\n      dup3\n        /* \"#utility.yul\":2012:2019   */\n      dup5\n        /* \"#utility.yul\":2008:2031   */\n      sub\n        /* \"#utility.yul\":2004:2036   */\n      slt\n        /* \"#utility.yul\":2001:2120   */\n      iszero\n      tag_195\n      jumpi\n        /* \"#utility.yul\":2039:2118   */\n      tag_196\n      tag_133\n      jump\t// in\n    tag_196:\n        /* \"#utility.yul\":2001:2120   */\n    tag_195:\n        /* \"#utility.yul\":2159:2160   */\n      0x00\n        /* \"#utility.yul\":2184:2237   */\n      tag_197\n        /* \"#utility.yul\":2229:2236   */\n      dup5\n        /* \"#utility.yul\":2220:2226   */\n      dup3\n        /* \"#utility.yul\":2209:2218   */\n      dup6\n        /* \"#utility.yul\":2205:2227   */\n      add\n        /* \"#utility.yul\":2184:2237   */\n      tag_137\n      jump\t// in\n    tag_197:\n        /* \"#utility.yul\":2174:2237   */\n      swap2\n      pop\n        /* \"#utility.yul\":2130:2247   */\n      pop\n        /* \"#utility.yul\":1925:2254   */\n      swap3\n      swap2\n      pop\n      pop\n      jump\t// out\n        /* \"#utility.yul\":2260:2386   */\n    tag_138:\n        /* \"#utility.yul\":2297:2304   */\n      0x00\n        /* \"#utility.yul\":2337:2379   */\n      0xffffffffffffffffffffffffffffffffffffffff\n        /* \"#utility.yul\":2330:2335   */\n      dup3\n        /* \"#utility.yul\":2326:2380   */\n      and\n        /* \"#utility.yul\":2315:2380   */\n      swap1\n      pop\n        /* \"#utility.yul\":2260:2386   */\n      swap2\n      swap1\n      pop\n      jump\t// out\n        /* \"#utility.yul\":2392:2488   */\n    tag_139:\n        /* \"#utility.yul\":2429:2436   */\n      0x00\n        /* \"#utility.yul\":2458:2482   */\n      tag_200\n        /* \"#utility.yul\":2476:2481   */\n      dup3\n        /* \"#utility.yul\":2458:2482   */\n      tag_138\n      jump\t// in\n    tag_200:\n        /* \"#utility.yul\":2447:2482   */\n      swap1\n      pop\n        /* \"#utility.yul\":2392:2488   */\n      swap2\n      swap1\n      pop\n      jump\t// out\n        /* \"#utility.yul\":2494:2612   */\n    tag_140:\n        /* \"#utility.yul\":2581:2605   */\n      tag_202\n        /* \"#utility.yul\":2599:2604   */\n      dup2\n        /* \"#utility.yul\":2581:2605   */\n      tag_139\n      jump\t// in\n    tag_202:\n        /* \"#utility.yul\":2576:2579   */\n      dup3\n        /* \"#utility.yul\":2569:2606   */\n      mstore\n        /* \"#utility.yul\":2494:2612   */\n      pop\n      pop\n      jump\t// out\n        /* \"#utility.yul\":2618:2840   */\n    tag_25:\n        /* \"#utility.yul\":2711:2715   */\n      0x00\n        /* \"#utility.yul\":2749:2751   */\n      0x20\n        /* \"#utility.yul\":2738:2747   */\n      dup3\n        /* \"#utility.yul\":2734:2752   */\n      add\n        /* \"#utility.yul\":2726:2752   */\n      swap1\n      pop\n        /* \"#utility.yul\":2762:2833   */\n      tag_204\n        /* \"#utility.yul\":2830:2831   */\n      0x00\n        /* \"#utility.yul\":2819:2828   */\n      dup4\n        /* \"#utility.yul\":2815:2832   */\n      add\n        /* \"#utility.yul\":2806:2812   */\n      dup5\n        /* \"#utility.yul\":2762:2833   */\n      tag_140\n      jump\t// in\n    tag_204:\n        /* \"#utility.yul\":2618:2840   */\n      swap3\n      swap2\n      pop\n      pop\n      jump\t// out\n        /* \"#utility.yul\":2846:2968   */\n    tag_141:\n        /* \"#utility.yul\":2919:2943   */\n      tag_206\n        /* \"#utility.yul\":2937:2942   */\n      dup2\n        /* \"#utility.yul\":2919:2943   */\n      tag_139\n      jump\t// in\n    tag_206:\n        /* \"#utility.yul\":2912:2917   */\n      dup2\n        /* \"#utility.yul\":2909:2944   */\n      eq\n        /* \"#utility.yul\":2899:2962   */\n      tag_207\n      jumpi\n        /* \"#utility.yul\":2958:2959   */\n      0x00\n        /* \"#utility.yul\":2955:2956   */\n      0x00\n        /* \"#utility.yul\":2948:2960   */\n      revert\n        /* \"#utility.yul\":2899:2962   */\n    tag_207:\n        /* \"#utility.yul\":2846:2968   */\n      pop\n      jump\t// out\n        /* \"#utility.yul\":2974:3113   */\n    tag_142:\n        /* \"#utility.yul\":3020:3025   */\n      0x00\n        /* \"#utility.yul\":3058:3064   */\n      dup2\n        /* \"#utility.yul\":3045:3065   */\n      calldataload\n        /* \"#utility.yul\":3036:3065   */\n      swap1\n      pop\n        /* \"#utility.yul\":3074:3107   */\n      tag_209\n        /* \"#utility.yul\":3101:3106   */\n      dup2\n        /* \"#utility.yul\":3074:3107   */\n      tag_141\n      jump\t// in\n    tag_209:\n        /* \"#utility.yul\":2974:3113   */\n      swap3\n      swap2\n      pop\n      pop\n      jump\t// out\n        /* \"#utility.yul\":3119:3593   */\n    tag_28:\n        /* \"#utility.yul\":3187:3193   */\n      0x00\n        /* \"#utility.yul\":3195:3201   */\n      0x00\n        /* \"#utility.yul\":3244:3246   */\n      0x40\n        /* \"#utility.yul\":3232:3241   */\n      dup4\n        /* \"#utility.yul\":3223:3230   */\n      dup6\n        /* \"#utility.yul\":3219:3242   */\n      sub\n        /* \"#utility.yul\":3215:3247   */\n      slt\n        /* \"#utility.yul\":3212:3331   */\n      iszero\n      tag_211\n      jumpi\n        /* \"#utility.yul\":3250:3329   */\n      tag_212\n      tag_133\n      jump\t// in\n    tag_212:\n        /* \"#utility.yul\":3212:3331   */\n    tag_211:\n        /* \"#utility.yul\":3370:3371   */\n      0x00\n        /* \"#utility.yul\":3395:3448   */\n      tag_213\n        /* \"#utility.yul\":3440:3447   */\n      dup6\n        /* \"#utility.yul\":3431:3437   */\n      dup3\n        /* \"#utility.yul\":3420:3429   */\n      dup7\n        /* \"#utility.yul\":3416:3438   */\n      add\n        /* \"#utility.yul\":3395:3448   */\n      tag_142\n      jump\t// in\n    tag_213:\n        /* \"#utility.yul\":3385:3448   */\n      swap3\n      pop\n        /* \"#utility.yul\":3341:3458   */\n      pop\n        /* \"#utility.yul\":3497:3499   */\n      0x20\n        /* \"#utility.yul\":3523:3576   */\n      tag_214\n        /* \"#utility.yul\":3568:3575   */\n      dup6\n        /* \"#utility.yul\":3559:3565   */\n      dup3\n        /* \"#utility.yul\":3548:3557   */\n      dup7\n        /* \"#utility.yul\":3544:3566   */\n      add\n        /* \"#utility.yul\":3523:3576   */\n      tag_137\n      jump\t// in\n    tag_214:\n        /* \"#utility.yul\":3513:3576   */\n      swap2\n      pop\n        /* \"#utility.yul\":3468:3586   */\n      pop\n        /* \"#utility.yul\":3119:3593   */\n      swap3\n      pop\n      swap3\n      swap1\n      pop\n      jump\t// out\n        /* \"#utility.yul\":3599:4218   */\n    tag_32:\n        /* \"#utility.yul\":3676:3682   */\n      0x00\n        /* \"#utility.yul\":3684:3690   */\n      0x00\n        /* \"#utility.yul\":3692:3698   */\n      0x00\n        /* \"#utility.yul\":3741:3743   */\n      0x60\n        /* \"#utility.yul\":3729:3738   */\n      dup5\n        /* \"#utility.yul\":3720:3727   */\n      dup7\n        /* \"#utility.yul\":3716:3739   */\n      sub\n        /* \"#utility.yul\":3712:3744   */\n      slt\n        /* \"#utility.yul\":3709:3828   */\n      iszero\n      tag_216\n      jumpi\n        /* \"#utility.yul\":3747:3826   */\n      tag_217\n      tag_133\n      jump\t// in\n    tag_217:\n        /* \"#utility.yul\":3709:3828   */\n    tag_216:\n        /* \"#utility.yul\":3867:3868   */\n      0x00\n        /* \"#utility.yul\":3892:3945   */\n      tag_218\n        /* \"#utility.yul\":3937:3944   */\n      dup7\n        /* \"#utility.yul\":3928:3934   */\n      dup3\n        /* \"#utility.yul\":3917:3926   */\n      dup8\n        /* \"#utility.yul\":3913:3935   */\n      add\n        /* \"#utility.yul\":3892:3945   */\n      tag_142\n      jump\t// in\n    tag_218:\n        /* \"#utility.yul\":3882:3945   */\n      swap4\n      pop\n        /* \"#utility.yul\":3838:3955   */\n      pop\n        /* \"#utility.yul\":3994:3996   */\n      0x20\n        /* \"#utility.yul\":4020:4073   */\n      tag_219\n        /* \"#utility.yul\":4065:4072   */\n      dup7\n        /* \"#utility.yul\":4056:4062   */\n      dup3\n        /* \"#utility.yul\":4045:4054   */\n      dup8\n        /* \"#utility.yul\":4041:4063   */\n      add\n        /* \"#utility.yul\":4020:4073   */\n      tag_142\n      jump\t// in\n    tag_219:\n        /* \"#utility.yul\":4010:4073   */\n      swap3\n      pop\n        /* \"#utility.yul\":3965:4083   */\n      pop\n        /* \"#utility.yul\":4122:4124   */\n      0x40\n        /* \"#utility.yul\":4148:4201   */\n      tag_220\n        /* \"#utility.yul\":4193:4200   */\n      dup7\n        /* \"#utility.yul\":4184:4190   */\n      dup3\n        /* \"#utility.yul\":4173:4182   */\n      dup8\n        /* \"#utility.yul\":4169:4191   */\n      add\n        /* \"#utility.yul\":4148:4201   */\n      tag_137\n      jump\t// in\n    tag_220:\n        /* \"#utility.yul\":4138:4201   */\n      swap2\n      pop\n        /* \"#utility.yul\":4093:4211   */\n      pop\n        /* \"#utility.yul\":3599:4218   */\n      swap3\n      pop\n      swap3\n      pop\n      swap3\n      jump\t// out\n        /* \"#utility.yul\":4224:4553   */\n    tag_45:\n        /* \"#utility.yul\":4283:4289   */\n      0x00\n        /* \"#utility.yul\":4332:4334   */\n      0x20\n        /* \"#utility.yul\":4320:4329   */\n      dup3\n        /* \"#utility.yul\":4311:4318   */\n      dup5\n        /* \"#utility.yul\":4307:4330   */\n      sub\n        /* \"#utility.yul\":4303:4335   */\n      slt\n        /* \"#utility.yul\":4300:4419   */\n      iszero\n      tag_222\n      jumpi\n        /* \"#utility.yul\":4338:4417   */\n      tag_223\n      tag_133\n      jump\t// in\n    tag_223:\n        /* \"#utility.yul\":4300:4419   */\n    tag_222:\n        /* \"#utility.yul\":4458:4459   */\n      0x00\n        /* \"#utility.yul\":4483:4536   */\n      tag_224\n        /* \"#utility.yul\":4528:4535   */\n      dup5\n        /* \"#utility.yul\":4519:4525   */\n      dup3\n        /* \"#utility.yul\":4508:4517   */\n      dup6\n        /* \"#utility.yul\":4504:4526   */\n      add\n        /* \"#utility.yul\":4483:4536   */\n      tag_142\n      jump\t// in\n    tag_224:\n        /* \"#utility.yul\":4473:4536   */\n      swap2\n      pop\n        /* \"#utility.yul\":4429:4546   */\n      pop\n        /* \"#utility.yul\":4224:4553   */\n      swap3\n      swap2\n      pop\n      pop\n      jump\t// out\n        /* \"#utility.yul\":4559:4677   */\n    tag_143:\n        /* \"#utility.yul\":4646:4670   */\n      tag_226\n        /* \"#utility.yul\":4664:4669   */\n      dup2\n        /* \"#utility.yul\":4646:4670   */\n      tag_135\n      jump\t// in\n    tag_226:\n        /* \"#utility.yul\":4641:4644   */\n      dup3\n        /* \"#utility.yul\":4634:4671   */\n      mstore\n        /* \"#utility.yul\":4559:4677   */\n      pop\n      pop\n      jump\t// out\n        /* \"#utility.yul\":4683:4905   */\n    tag_48:\n        /* \"#utility.yul\":4776:4780   */\n      0x00\n        /* \"#utility.yul\":4814:4816   */\n      0x20\n        /* \"#utility.yul\":4803:4812   */\n      dup3\n        /* \"#utility.yul\":4799:4817   */\n      add\n        /* \"#utility.yul\":4791:4817   */\n      swap1\n      pop\n        /* \"#utility.yul\":4827:4898   */\n      tag_228\n        /* \"#utility.yul\":4895:4896   */\n      0x00\n        /* \"#utility.yul\":4884:4893   */\n      dup4\n        /* \"#utility.yul\":4880:4897   */\n      add\n        /* \"#utility.yul\":4871:4877   */\n      dup5\n        /* \"#utility.yul\":4827:4898   */\n      tag_143\n      jump\t// in\n    tag_228:\n        /* \"#utility.yul\":4683:4905   */\n      swap3\n      swap2\n      pop\n      pop\n      jump\t// out\n        /* \"#utility.yul\":4911:5001   */\n    tag_144:\n        /* \"#utility.yul\":4945:4952   */\n      0x00\n        /* \"#utility.yul\":4988:4993   */\n      dup2\n        /* \"#utility.yul\":4981:4994   */\n      iszero\n        /* \"#utility.yul\":4974:4995   */\n      iszero\n        /* \"#utility.yul\":4963:4995   */\n      swap1\n      pop\n        /* \"#utility.yul\":4911:5001   */\n      swap2\n      swap1\n      pop\n      jump\t// out\n        /* \"#utility.yul\":5007:5123   */\n    tag_145:\n        /* \"#utility.yul\":5077:5098   */\n      tag_231\n        /* \"#utility.yul\":5092:5097   */\n      dup2\n        /* \"#utility.yul\":5077:5098   */\n      tag_144\n      jump\t// in\n    tag_231:\n        /* \"#utility.yul\":5070:5075   */\n      dup2\n        /* \"#utility.yul\":5067:5099   */\n      eq\n        /* \"#utility.yul\":5057:5117   */\n      tag_232\n      jumpi\n        /* \"#utility.yul\":5113:5114   */\n      0x00\n        /* \"#utility.yul\":5110:5111   */\n      0x00\n        /* \"#utility.yul\":5103:5115   */\n      revert\n        /* \"#utility.yul\":5057:5117   */\n    tag_232:\n        /* \"#utility.yul\":5007:5123   */\n      pop\n      jump\t// out\n        /* \"#utility.yul\":5129:5262   */\n    tag_146:\n        /* \"#utility.yul\":5172:5177   */\n      0x00\n        /* \"#utility.yul\":5210:5216   */\n      dup2\n        /* \"#utility.yul\":5197:5217   */\n      calldataload\n        /* \"#utility.yul\":5188:5217   */\n      swap1\n      pop\n        /* \"#utility.yul\":5226:5256   */\n      tag_234\n        /* \"#utility.yul\":5250:5255   */\n      dup2\n        /* \"#utility.yul\":5226:5256   */\n      tag_145\n      jump\t// in\n    tag_234:\n        /* \"#utility.yul\":5129:5262   */\n      swap3\n      swap2\n      pop\n      pop\n      jump\t// out\n        /* \"#utility.yul\":5268:5736   */\n    tag_56:\n        /* \"#utility.yul\":5333:5339   */\n      0x00\n        /* \"#utility.yul\":5341:5347   */\n      0x00\n        /* \"#utility.yul\":5390:5392   */\n      0x40\n        /* \"#utility.yul\":5378:5387   */\n      dup4\n        /* \"#utility.yul\":5369:5376   */\n      dup6\n        /* \"#utility.yul\":5365:5388   */\n      sub\n        /* \"#utility.yul\":5361:5393   */\n      slt\n        /* \"#utility.yul\":5358:5477   */\n      iszero\n      tag_236\n      jumpi\n        /* \"#utility.yul\":5396:5475   */\n      tag_237\n      tag_133\n      jump\t// in\n    tag_237:\n        /* \"#utility.yul\":5358:5477   */\n    tag_236:\n        /* \"#utility.yul\":5516:5517   */\n      0x00\n        /* \"#utility.yul\":5541:5594   */\n      tag_238\n        /* \"#utility.yul\":5586:5593   */\n      dup6\n        /* \"#utility.yul\":5577:5583   */\n      dup3\n        /* \"#utility.yul\":5566:5575   */\n      dup7\n        /* \"#utility.yul\":5562:5584   */\n      add\n        /* \"#utility.yul\":5541:5594   */\n      tag_142\n      jump\t// in\n    tag_238:\n        /* \"#utility.yul\":5531:5594   */\n      swap3\n      pop\n        /* \"#utility.yul\":5487:5604   */\n      pop\n        /* \"#utility.yul\":5643:5645   */\n      0x20\n        /* \"#utility.yul\":5669:5719   */\n      tag_239\n        /* \"#utility.yul\":5711:5718   */\n      dup6\n        /* \"#utility.yul\":5702:5708   */\n      dup3\n        /* \"#utility.yul\":5691:5700   */\n      dup7\n        /* \"#utility.yul\":5687:5709   */\n      add\n        /* \"#utility.yul\":5669:5719   */\n      tag_146\n      jump\t// in\n    tag_239:\n        /* \"#utility.yul\":5659:5719   */\n      swap2\n      pop\n        /* \"#utility.yul\":5614:5729   */\n      pop\n        /* \"#utility.yul\":5268:5736   */\n      swap3\n      pop\n      swap3\n      swap1\n      pop\n      jump\t// out\n        /* \"#utility.yul\":5742:5859   */\n    tag_147:\n        /* \"#utility.yul\":5851:5852   */\n      0x00\n        /* \"#utility.yul\":5848:5849   */\n      0x00\n        /* \"#utility.yul\":5841:5853   */\n      revert\n        /* \"#utility.yul\":5865:5982   */\n    tag_148:\n        /* \"#utility.yul\":5974:5975   */\n      0x00\n        /* \"#utility.yul\":5971:5972   */\n      0x00\n        /* \"#utility.yul\":5964:5976   */\n      revert\n        /* \"#utility.yul\":5988:6168   */\n    tag_149:\n        /* \"#utility.yul\":6036:6113   */\n      0x4e487b7100000000000000000000000000000000000000000000000000000000\n        /* \"#utility.yul\":6033:6034   */\n      0x00\n        /* \"#utility.yul\":6026:6114   */\n      mstore\n        /* \"#utility.yul\":6133:6137   */\n      0x41\n        /* \"#utility.yul\":6130:6131   */\n      0x04\n        /* \"#utility.yul\":6123:6138   */\n      mstore\n        /* \"#utility.yul\":6157:6161   */\n      0x24\n        /* \"#utility.yul\":6154:6155   */\n      0x00\n        /* \"#utility.yul\":6147:6162   */\n      revert\n        /* \"#utility.yul\":6174:6455   */\n    tag_150:\n        /* \"#utility.yul\":6257:6284   */\n      tag_244\n        /* \"#utility.yul\":6279:6283   */\n      dup3\n        /* \"#utility.yul\":6257:6284   */\n      tag_130\n      jump\t// in\n    tag_244:\n        /* \"#utility.yul\":6249:6255   */\n      dup2\n        /* \"#utility.yul\":6245:6285   */\n      add\n        /* \"#utility.yul\":6387:6393   */\n      dup2\n        /* \"#utility.yul\":6375:6385   */\n      dup2\n        /* \"#utility.yul\":6372:6394   */\n      lt\n        /* \"#utility.yul\":6351:6369   */\n      0xffffffffffffffff\n        /* \"#utility.yul\":6339:6349   */\n      dup3\n        /* \"#utility.yul\":6336:6370   */\n      gt\n        /* \"#utility.yul\":6333:6395   */\n      or\n        /* \"#utility.yul\":6330:6418   */\n      iszero\n      tag_245\n      jumpi\n        /* \"#utility.yul\":6398:6416   */\n      tag_246\n      tag_149\n      jump\t// in\n    tag_246:\n        /* \"#utility.yul\":6330:6418   */\n    tag_245:\n        /* \"#utility.yul\":6438:6448   */\n      dup1\n        /* \"#utility.yul\":6434:6436   */\n      0x40\n        /* \"#utility.yul\":6427:6449   */\n      mstore\n        /* \"#utility.yul\":6217:6455   */\n      pop\n        /* \"#utility.yul\":6174:6455   */\n      pop\n      pop\n      jump\t// out\n        /* \"#utility.yul\":6461:6590   */\n    tag_151:\n        /* \"#utility.yul\":6495:6501   */\n      0x00\n        /* \"#utility.yul\":6522:6542   */\n      tag_248\n      tag_132\n      jump\t// in\n    tag_248:\n        /* \"#utility.yul\":6512:6542   */\n      swap1\n      pop\n        /* \"#utility.yul\":6551:6584   */\n      tag_249\n        /* \"#utility.yul\":6579:6583   */\n      dup3\n        /* \"#utility.yul\":6571:6577   */\n      dup3\n        /* \"#utility.yul\":6551:6584   */\n      tag_150\n      jump\t// in\n    tag_249:\n        /* \"#utility.yul\":6461:6590   */\n      swap2\n      swap1\n      pop\n      jump\t// out\n        /* \"#utility.yul\":6596:6903   */\n    tag_152:\n        /* \"#utility.yul\":6657:6661   */\n      0x00\n        /* \"#utility.yul\":6747:6765   */\n      0xffffffffffffffff\n        /* \"#utility.yul\":6739:6745   */\n      dup3\n        /* \"#utility.yul\":6736:6766   */\n      gt\n        /* \"#utility.yul\":6733:6789   */\n      iszero\n      tag_251\n      jumpi\n        /* \"#utility.yul\":6769:6787   */\n      tag_252\n      tag_149\n      jump\t// in\n    tag_252:\n        /* \"#utility.yul\":6733:6789   */\n    tag_251:\n        /* \"#utility.yul\":6807:6836   */\n      tag_253\n        /* \"#utility.yul\":6829:6835   */\n      dup3\n        /* \"#utility.yul\":6807:6836   */\n      tag_130\n      jump\t// in\n    tag_253:\n        /* \"#utility.yul\":6799:6836   */\n      swap1\n      pop\n        /* \"#utility.yul\":6891:6895   */\n      0x20\n        /* \"#utility.yul\":6885:6889   */\n      dup2\n        /* \"#utility.yul\":6881:6896   */\n      add\n        /* \"#utility.yul\":6873:6896   */\n      swap1\n      pop\n        /* \"#utility.yul\":6596:6903   */\n      swap2\n      swap1\n      pop\n      jump\t// out\n        /* \"#utility.yul\":6909:7057   */\n    tag_153:\n        /* \"#utility.yul\":7007:7013   */\n      dup3\n        /* \"#utility.yul\":7002:7005   */\n      dup2\n        /* \"#utility.yul\":6997:7000   */\n      dup4\n        /* \"#utility.yul\":6984:7014   */\n      calldatacopy\n        /* \"#utility.yul\":7048:7049   */\n      0x00\n        /* \"#utility.yul\":7039:7045   */\n      dup4\n        /* \"#utility.yul\":7034:7037   */\n      dup4\n        /* \"#utility.yul\":7030:7046   */\n      add\n        /* \"#utility.yul\":7023:7050   */\n      mstore\n        /* \"#utility.yul\":6909:7057   */\n      pop\n      pop\n      pop\n      jump\t// out\n        /* \"#utility.yul\":7063:7486   */\n    tag_154:\n        /* \"#utility.yul\":7140:7145   */\n      0x00\n        /* \"#utility.yul\":7165:7230   */\n      tag_256\n        /* \"#utility.yul\":7181:7229   */\n      tag_257\n        /* \"#utility.yul\":7222:7228   */\n      dup5\n        /* \"#utility.yul\":7181:7229   */\n      tag_152\n      jump\t// in\n    tag_257:\n        /* \"#utility.yul\":7165:7230   */\n      tag_151\n      jump\t// in\n    tag_256:\n        /* \"#utility.yul\":7156:7230   */\n      swap1\n      pop\n        /* \"#utility.yul\":7253:7259   */\n      dup3\n        /* \"#utility.yul\":7246:7251   */\n      dup2\n        /* \"#utility.yul\":7239:7260   */\n      mstore\n        /* \"#utility.yul\":7291:7295   */\n      0x20\n        /* \"#utility.yul\":7284:7289   */\n      dup2\n        /* \"#utility.yul\":7280:7296   */\n      add\n        /* \"#utility.yul\":7329:7332   */\n      dup5\n        /* \"#utility.yul\":7320:7326   */\n      dup5\n        /* \"#utility.yul\":7315:7318   */\n      dup5\n        /* \"#utility.yul\":7311:7327   */\n      add\n        /* \"#utility.yul\":7308:7333   */\n      gt\n        /* \"#utility.yul\":7305:7417   */\n      iszero\n      tag_258\n      jumpi\n        /* \"#utility.yul\":7336:7415   */\n      tag_259\n      tag_148\n      jump\t// in\n    tag_259:\n        /* \"#utility.yul\":7305:7417   */\n    tag_258:\n        /* \"#utility.yul\":7426:7480   */\n      tag_260\n        /* \"#utility.yul\":7473:7479   */\n      dup5\n        /* \"#utility.yul\":7468:7471   */\n      dup3\n        /* \"#utility.yul\":7463:7466   */\n      dup6\n        /* \"#utility.yul\":7426:7480   */\n      tag_153\n      jump\t// in\n    tag_260:\n        /* \"#utility.yul\":7146:7486   */\n      pop\n        /* \"#utility.yul\":7063:7486   */\n      swap4\n      swap3\n      pop\n      pop\n      pop\n      jump\t// out\n        /* \"#utility.yul\":7505:7843   */\n    tag_155:\n        /* \"#utility.yul\":7560:7565   */\n      0x00\n        /* \"#utility.yul\":7609:7612   */\n      dup3\n        /* \"#utility.yul\":7602:7606   */\n      0x1f\n        /* \"#utility.yul\":7594:7600   */\n      dup4\n        /* \"#utility.yul\":7590:7607   */\n      add\n        /* \"#utility.yul\":7586:7613   */\n      slt\n        /* \"#utility.yul\":7576:7698   */\n      tag_262\n      jumpi\n        /* \"#utility.yul\":7617:7696   */\n      tag_263\n      tag_147\n      jump\t// in\n    tag_263:\n        /* \"#utility.yul\":7576:7698   */\n    tag_262:\n        /* \"#utility.yul\":7734:7740   */\n      dup2\n        /* \"#utility.yul\":7721:7741   */\n      calldataload\n        /* \"#utility.yul\":7759:7837   */\n      tag_264\n        /* \"#utility.yul\":7833:7836   */\n      dup5\n        /* \"#utility.yul\":7825:7831   */\n      dup3\n        /* \"#utility.yul\":7818:7822   */\n      0x20\n        /* \"#utility.yul\":7810:7816   */\n      dup7\n        /* \"#utility.yul\":7806:7823   */\n      add\n        /* \"#utility.yul\":7759:7837   */\n      tag_154\n      jump\t// in\n    tag_264:\n        /* \"#utility.yul\":7750:7837   */\n      swap2\n      pop\n        /* \"#utility.yul\":7566:7843   */\n      pop\n        /* \"#utility.yul\":7505:7843   */\n      swap3\n      swap2\n      pop\n      pop\n      jump\t// out\n        /* \"#utility.yul\":7849:8792   */\n    tag_60:\n        /* \"#utility.yul\":7944:7950   */\n      0x00\n        /* \"#utility.yul\":7952:7958   */\n      0x00\n        /* \"#utility.yul\":7960:7966   */\n      0x00\n        /* \"#utility.yul\":7968:7974   */\n      0x00\n        /* \"#utility.yul\":8017:8020   */\n      0x80\n        /* \"#utility.yul\":8005:8014   */\n      dup6\n        /* \"#utility.yul\":7996:8003   */\n      dup8\n        /* \"#utility.yul\":7992:8015   */\n      sub\n        /* \"#utility.yul\":7988:8021   */\n      slt\n        /* \"#utility.yul\":7985:8105   */\n      iszero\n      tag_266\n      jumpi\n        /* \"#utility.yul\":8024:8103   */\n      tag_267\n      tag_133\n      jump\t// in\n    tag_267:\n        /* \"#utility.yul\":7985:8105   */\n    tag_266:\n        /* \"#utility.yul\":8144:8145   */\n      0x00\n        /* \"#utility.yul\":8169:8222   */\n      tag_268\n        /* \"#utility.yul\":8214:8221   */\n      dup8\n        /* \"#utility.yul\":8205:8211   */\n      dup3\n        /* \"#utility.yul\":8194:8203   */\n      dup9\n        /* \"#utility.yul\":8190:8212   */\n      add\n        /* \"#utility.yul\":8169:8222   */\n      tag_142\n      jump\t// in\n    tag_268:\n        /* \"#utility.yul\":8159:8222   */\n      swap5\n      pop\n        /* \"#utility.yul\":8115:8232   */\n      pop\n        /* \"#utility.yul\":8271:8273   */\n      0x20\n        /* \"#utility.yul\":8297:8350   */\n      tag_269\n        /* \"#utility.yul\":8342:8349   */\n      dup8\n        /* \"#utility.yul\":8333:8339   */\n      dup3\n        /* \"#utility.yul\":8322:8331   */\n      dup9\n        /* \"#utility.yul\":8318:8340   */\n      add\n        /* \"#utility.yul\":8297:8350   */\n      tag_142\n      jump\t// in\n    tag_269:\n        /* \"#utility.yul\":8287:8350   */\n      swap4\n      pop\n        /* \"#utility.yul\":8242:8360   */\n      pop\n        /* \"#utility.yul\":8399:8401   */\n      0x40\n        /* \"#utility.yul\":8425:8478   */\n      tag_270\n        /* \"#utility.yul\":8470:8477   */\n      dup8\n        /* \"#utility.yul\":8461:8467   */\n      dup3\n        /* \"#utility.yul\":8450:8459   */\n      dup9\n        /* \"#utility.yul\":8446:8468   */\n      add\n        /* \"#utility.yul\":8425:8478   */\n      tag_137\n      jump\t// in\n    tag_270:\n        /* \"#utility.yul\":8415:8478   */\n      swap3\n      pop\n        /* \"#utility.yul\":8370:8488   */\n      pop\n        /* \"#utility.yul\":8555:8557   */\n      0x60\n        /* \"#utility.yul\":8544:8553   */\n      dup6\n        /* \"#utility.yul\":8540:8558   */\n      add\n        /* \"#utility.yul\":8527:8559   */\n      calldataload\n        /* \"#utility.yul\":8586:8604   */\n      0xffffffffffffffff\n        /* \"#utility.yul\":8578:8584   */\n      dup2\n        /* \"#utility.yul\":8575:8605   */\n      gt\n        /* \"#utility.yul\":8572:8689   */\n      iszero\n      tag_271\n      jumpi\n        /* \"#utility.yul\":8608:8687   */\n      tag_272\n      tag_134\n      jump\t// in\n    tag_272:\n        /* \"#utility.yul\":8572:8689   */\n    tag_271:\n        /* \"#utility.yul\":8713:8775   */\n      tag_273\n        /* \"#utility.yul\":8767:8774   */\n      dup8\n        /* \"#utility.yul\":8758:8764   */\n      dup3\n        /* \"#utility.yul\":8747:8756   */\n      dup9\n        /* \"#utility.yul\":8743:8765   */\n      add\n        /* \"#utility.yul\":8713:8775   */\n      tag_155\n      jump\t// in\n    tag_273:\n        /* \"#utility.yul\":8703:8775   */\n      swap2\n      pop\n        /* \"#utility.yul\":8498:8785   */\n      pop\n        /* \"#utility.yul\":7849:8792   */\n      swap3\n      swap6\n      swap2\n      swap5\n      pop\n      swap3\n      pop\n      jump\t// out\n        /* \"#utility.yul\":8798:9272   */\n    tag_65:\n        /* \"#utility.yul\":8866:8872   */\n      0x00\n        /* \"#utility.yul\":8874:8880   */\n      0x00\n        /* \"#utility.yul\":8923:8925   */\n      0x40\n        /* \"#utility.yul\":8911:8920   */\n      dup4\n        /* \"#utility.yul\":8902:8909   */\n      dup6\n        /* \"#utility.yul\":8898:8921   */\n      sub\n        /* \"#utility.yul\":8894:8926   */\n      slt\n        /* \"#utility.yul\":8891:9010   */\n      iszero\n      tag_275\n      jumpi\n        /* \"#utility.yul\":8929:9008   */\n      tag_276\n      tag_133\n      jump\t// in\n    tag_276:\n        /* \"#utility.yul\":8891:9010   */\n    tag_275:\n        /* \"#utility.yul\":9049:9050   */\n      0x00\n        /* \"#utility.yul\":9074:9127   */\n      tag_277\n        /* \"#utility.yul\":9119:9126   */\n      dup6\n        /* \"#utility.yul\":9110:9116   */\n      dup3\n        /* \"#utility.yul\":9099:9108   */\n      dup7\n        /* \"#utility.yul\":9095:9117   */\n      add\n        /* \"#utility.yul\":9074:9127   */\n      tag_142\n      jump\t// in\n    tag_277:\n        /* \"#utility.yul\":9064:9127   */\n      swap3\n      pop\n        /* \"#utility.yul\":9020:9137   */\n      pop\n        /* \"#utility.yul\":9176:9178   */\n      0x20\n        /* \"#utility.yul\":9202:9255   */\n      tag_278\n        /* \"#utility.yul\":9247:9254   */\n      dup6\n        /* \"#utility.yul\":9238:9244   */\n      dup3\n        /* \"#utility.yul\":9227:9236   */\n      dup7\n        /* \"#utility.yul\":9223:9245   */\n      add\n        /* \"#utility.yul\":9202:9255   */\n      tag_142\n      jump\t// in\n    tag_278:\n        /* \"#utility.yul\":9192:9255   */\n      swap2\n      pop\n        /* \"#utility.yul\":9147:9265   */\n      pop\n        /* \"#utility.yul\":8798:9272   */\n      swap3\n      pop\n      swap3\n      swap1\n      pop\n      jump\t// out\n        /* \"#utility.yul\":9278:9387   */\n    tag_156:\n        /* \"#utility.yul\":9359:9380   */\n      tag_280\n        /* \"#utility.yul\":9374:9379   */\n      dup2\n        /* \"#utility.yul\":9359:9380   */\n      tag_144\n      jump\t// in\n    tag_280:\n        /* \"#utility.yul\":9354:9357   */\n      dup3\n        /* \"#utility.yul\":9347:9381   */\n      mstore\n        /* \"#utility.yul\":9278:9387   */\n      pop\n      pop\n      jump\t// out\n        /* \"#utility.yul\":9393:9603   */\n    tag_68:\n        /* \"#utility.yul\":9480:9484   */\n      0x00\n        /* \"#utility.yul\":9518:9520   */\n      0x20\n        /* \"#utility.yul\":9507:9516   */\n      dup3\n        /* \"#utility.yul\":9503:9521   */\n      add\n        /* \"#utility.yul\":9495:9521   */\n      swap1\n      pop\n        /* \"#utility.yul\":9531:9596   */\n      tag_282\n        /* \"#utility.yul\":9593:9594   */\n      0x00\n        /* \"#utility.yul\":9582:9591   */\n      dup4\n        /* \"#utility.yul\":9578:9595   */\n      add\n        /* \"#utility.yul\":9569:9575   */\n      dup5\n        /* \"#utility.yul\":9531:9596   */\n      tag_156\n      jump\t// in\n    tag_282:\n        /* \"#utility.yul\":9393:9603   */\n      swap3\n      swap2\n      pop\n      pop\n      jump\t// out\n        /* \"#utility.yul\":9609:9789   */\n    tag_157:\n        /* \"#utility.yul\":9657:9734   */\n      0x4e487b7100000000000000000000000000000000000000000000000000000000\n        /* \"#utility.yul\":9654:9655   */\n      0x00\n        /* \"#utility.yul\":9647:9735   */\n      mstore\n        /* \"#utility.yul\":9754:9758   */\n      0x22\n        /* \"#utility.yul\":9751:9752   */\n      0x04\n        /* \"#utility.yul\":9744:9759   */\n      mstore\n        /* \"#utility.yul\":9778:9782   */\n      0x24\n        /* \"#utility.yul\":9775:9776   */\n      0x00\n        /* \"#utility.yul\":9768:9783   */\n      revert\n        /* \"#utility.yul\":9795:10115   */\n    tag_70:\n        /* \"#utility.yul\":9839:9845   */\n      0x00\n        /* \"#utility.yul\":9876:9877   */\n      0x02\n        /* \"#utility.yul\":9870:9874   */\n      dup3\n        /* \"#utility.yul\":9866:9878   */\n      div\n        /* \"#utility.yul\":9856:9878   */\n      swap1\n      pop\n        /* \"#utility.yul\":9923:9924   */\n      0x01\n        /* \"#utility.yul\":9917:9921   */\n      dup3\n        /* \"#utility.yul\":9913:9925   */\n      and\n        /* \"#utility.yul\":9944:9962   */\n      dup1\n        /* \"#utility.yul\":9934:10015   */\n      tag_285\n      jumpi\n        /* \"#utility.yul\":10000:10004   */\n      0x7f\n        /* \"#utility.yul\":9992:9998   */\n      dup3\n        /* \"#utility.yul\":9988:10005   */\n      and\n        /* \"#utility.yul\":9978:10005   */\n      swap2\n      pop\n        /* \"#utility.yul\":9934:10015   */\n    tag_285:\n        /* \"#utility.yul\":10062:10064   */\n      0x20\n        /* \"#utility.yul\":10054:10060   */\n      dup3\n        /* \"#utility.yul\":10051:10065   */\n      lt\n        /* \"#utility.yul\":10031:10049   */\n      dup2\n        /* \"#utility.yul\":10028:10066   */\n      sub\n        /* \"#utility.yul\":10025:10109   */\n      tag_286\n      jumpi\n        /* \"#utility.yul\":10081:10099   */\n      tag_287\n      tag_157\n      jump\t// in\n    tag_287:\n        /* \"#utility.yul\":10025:10109   */\n    tag_286:\n        /* \"#utility.yul\":9846:10115   */\n      pop\n        /* \"#utility.yul\":9795:10115   */\n      swap2\n      swap1\n      pop\n      jump\t// out\n        /* \"#utility.yul\":10121:10289   */\n    tag_158:\n        /* \"#utility.yul\":10261:10281   */\n      0x4f7263734e46543a204e6f74204f776e65720000000000000000000000000000\n        /* \"#utility.yul\":10257:10258   */\n      0x00\n        /* \"#utility.yul\":10249:10255   */\n      dup3\n        /* \"#utility.yul\":10245:10259   */\n      add\n        /* \"#utility.yul\":10238:10282   */\n      mstore\n        /* \"#utility.yul\":10121:10289   */\n      pop\n      jump\t// out\n        /* \"#utility.yul\":10295:10661   */\n    tag_159:\n        /* \"#utility.yul\":10437:10440   */\n      0x00\n        /* \"#utility.yul\":10458:10525   */\n      tag_290\n        /* \"#utility.yul\":10522:10524   */\n      0x12\n        /* \"#utility.yul\":10517:10520   */\n      dup4\n        /* \"#utility.yul\":10458:10525   */\n      tag_128\n      jump\t// in\n    tag_290:\n        /* \"#utility.yul\":10451:10525   */\n      swap2\n      pop\n        /* \"#utility.yul\":10534:10627   */\n      tag_291\n        /* \"#utility.yul\":10623:10626   */\n      dup3\n        /* \"#utility.yul\":10534:10627   */\n      tag_158\n      jump\t// in\n    tag_291:\n        /* \"#utility.yul\":10652:10654   */\n      0x20\n        /* \"#utility.yul\":10647:10650   */\n      dup3\n        /* \"#utility.yul\":10643:10655   */\n      add\n        /* \"#utility.yul\":10636:10655   */\n      swap1\n      pop\n        /* \"#utility.yul\":10295:10661   */\n      swap2\n      swap1\n      pop\n      jump\t// out\n        /* \"#utility.yul\":10667:11086   */\n    tag_81:\n        /* \"#utility.yul\":10833:10837   */\n      0x00\n        /* \"#utility.yul\":10871:10873   */\n      0x20\n        /* \"#utility.yul\":10860:10869   */\n      dup3\n        /* \"#utility.yul\":10856:10874   */\n      add\n        /* \"#utility.yul\":10848:10874   */\n      swap1\n      pop\n        /* \"#utility.yul\":10920:10929   */\n      dup2\n        /* \"#utility.yul\":10914:10918   */\n      dup2\n        /* \"#utility.yul\":10910:10930   */\n      sub\n        /* \"#utility.yul\":10906:10907   */\n      0x00\n        /* \"#utility.yul\":10895:10904   */\n      dup4\n        /* \"#utility.yul\":10891:10908   */\n      add\n        /* \"#utility.yul\":10884:10931   */\n      mstore\n        /* \"#utility.yul\":10948:11079   */\n      tag_293\n        /* \"#utility.yul\":11074:11078   */\n      dup2\n        /* \"#utility.yul\":10948:11079   */\n      tag_159\n      jump\t// in\n    tag_293:\n        /* \"#utility.yul\":10940:11079   */\n      swap1\n      pop\n        /* \"#utility.yul\":10667:11086   */\n      swap2\n      swap1\n      pop\n      jump\t// out\n        /* \"#utility.yul\":11092:11261   */\n    tag_160:\n        /* \"#utility.yul\":11232:11253   */\n      0x4f7263734e46543a204e6f2042616c616e636500000000000000000000000000\n        /* \"#utility.yul\":11228:11229   */\n      0x00\n        /* \"#utility.yul\":11220:11226   */\n      dup3\n        /* \"#utility.yul\":11216:11230   */\n      add\n        /* \"#utility.yul\":11209:11254   */\n      mstore\n        /* \"#utility.yul\":11092:11261   */\n      pop\n      jump\t// out\n        /* \"#utility.yul\":11267:11633   */\n    tag_161:\n        /* \"#utility.yul\":11409:11412   */\n      0x00\n        /* \"#utility.yul\":11430:11497   */\n      tag_296\n        /* \"#utility.yul\":11494:11496   */\n      0x13\n        /* \"#utility.yul\":11489:11492   */\n      dup4\n        /* \"#utility.yul\":11430:11497   */\n      tag_128\n      jump\t// in\n    tag_296:\n        /* \"#utility.yul\":11423:11497   */\n      swap2\n      pop\n        /* \"#utility.yul\":11506:11599   */\n      tag_297\n        /* \"#utility.yul\":11595:11598   */\n      dup3\n        /* \"#utility.yul\":11506:11599   */\n      tag_160\n      jump\t// in\n    tag_297:\n        /* \"#utility.yul\":11624:11626   */\n      0x20\n        /* \"#utility.yul\":11619:11622   */\n      dup3\n        /* \"#utility.yul\":11615:11627   */\n      add\n        /* \"#utility.yul\":11608:11627   */\n      swap1\n      pop\n        /* \"#utility.yul\":11267:11633   */\n      swap2\n      swap1\n      pop\n      jump\t// out\n        /* \"#utility.yul\":11639:12058   */\n    tag_98:\n        /* \"#utility.yul\":11805:11809   */\n      0x00\n        /* \"#utility.yul\":11843:11845   */\n      0x20\n        /* \"#utility.yul\":11832:11841   */\n      dup3\n        /* \"#utility.yul\":11828:11846   */\n      add\n        /* \"#utility.yul\":11820:11846   */\n      swap1\n      pop\n        /* \"#utility.yul\":11892:11901   */\n      dup2\n        /* \"#utility.yul\":11886:11890   */\n      dup2\n        /* \"#utility.yul\":11882:11902   */\n      sub\n        /* \"#utility.yul\":11878:11879   */\n      0x00\n        /* \"#utility.yul\":11867:11876   */\n      dup4\n        /* \"#utility.yul\":11863:11880   */\n      add\n        /* \"#utility.yul\":11856:11903   */\n      mstore\n        /* \"#utility.yul\":11920:12051   */\n      tag_299\n        /* \"#utility.yul\":12046:12050   */\n      dup2\n        /* \"#utility.yul\":11920:12051   */\n      tag_161\n      jump\t// in\n    tag_299:\n        /* \"#utility.yul\":11912:12051   */\n      swap1\n      pop\n        /* \"#utility.yul\":11639:12058   */\n      swap2\n      swap1\n      pop\n      jump\t// out\n        /* \"#utility.yul\":12064:12162   */\n    tag_162:\n        /* \"#utility.yul\":12115:12121   */\n      0x00\n        /* \"#utility.yul\":12149:12154   */\n      dup2\n        /* \"#utility.yul\":12143:12155   */\n      mload\n        /* \"#utility.yul\":12133:12155   */\n      swap1\n      pop\n        /* \"#utility.yul\":12064:12162   */\n      swap2\n      swap1\n      pop\n      jump\t// out\n        /* \"#utility.yul\":12168:12336   */\n    tag_163:\n        /* \"#utility.yul\":12251:12262   */\n      0x00\n        /* \"#utility.yul\":12285:12291   */\n      dup3\n        /* \"#utility.yul\":12280:12283   */\n      dup3\n        /* \"#utility.yul\":12273:12292   */\n      mstore\n        /* \"#utility.yul\":12325:12329   */\n      0x20\n        /* \"#utility.yul\":12320:12323   */\n      dup3\n        /* \"#utility.yul\":12316:12330   */\n      add\n        /* \"#utility.yul\":12301:12330   */\n      swap1\n      pop\n        /* \"#utility.yul\":12168:12336   */\n      swap3\n      swap2\n      pop\n      pop\n      jump\t// out\n        /* \"#utility.yul\":12342:12715   */\n    tag_164:\n        /* \"#utility.yul\":12428:12431   */\n      0x00\n        /* \"#utility.yul\":12456:12494   */\n      tag_303\n        /* \"#utility.yul\":12488:12493   */\n      dup3\n        /* \"#utility.yul\":12456:12494   */\n      tag_162\n      jump\t// in\n    tag_303:\n        /* \"#utility.yul\":12510:12580   */\n      tag_304\n        /* \"#utility.yul\":12573:12579   */\n      dup2\n        /* \"#utility.yul\":12568:12571   */\n      dup6\n        /* \"#utility.yul\":12510:12580   */\n      tag_163\n      jump\t// in\n    tag_304:\n        /* \"#utility.yul\":12503:12580   */\n      swap4\n      pop\n        /* \"#utility.yul\":12589:12654   */\n      tag_305\n        /* \"#utility.yul\":12647:12653   */\n      dup2\n        /* \"#utility.yul\":12642:12645   */\n      dup6\n        /* \"#utility.yul\":12635:12639   */\n      0x20\n        /* \"#utility.yul\":12628:12633   */\n      dup7\n        /* \"#utility.yul\":12624:12640   */\n      add\n        /* \"#utility.yul\":12589:12654   */\n      tag_129\n      jump\t// in\n    tag_305:\n        /* \"#utility.yul\":12679:12708   */\n      tag_306\n        /* \"#utility.yul\":12701:12707   */\n      dup2\n        /* \"#utility.yul\":12679:12708   */\n      tag_130\n      jump\t// in\n    tag_306:\n        /* \"#utility.yul\":12674:12677   */\n      dup5\n        /* \"#utility.yul\":12670:12709   */\n      add\n        /* \"#utility.yul\":12663:12709   */\n      swap2\n      pop\n        /* \"#utility.yul\":12432:12715   */\n      pop\n        /* \"#utility.yul\":12342:12715   */\n      swap3\n      swap2\n      pop\n      pop\n      jump\t// out\n        /* \"#utility.yul\":12721:13361   */\n    tag_104:\n        /* \"#utility.yul\":12916:12920   */\n      0x00\n        /* \"#utility.yul\":12954:12957   */\n      0x80\n        /* \"#utility.yul\":12943:12952   */\n      dup3\n        /* \"#utility.yul\":12939:12958   */\n      add\n        /* \"#utility.yul\":12931:12958   */\n      swap1\n      pop\n        /* \"#utility.yul\":12968:13039   */\n      tag_308\n        /* \"#utility.yul\":13036:13037   */\n      0x00\n        /* \"#utility.yul\":13025:13034   */\n      dup4\n        /* \"#utility.yul\":13021:13038   */\n      add\n        /* \"#utility.yul\":13012:13018   */\n      dup8\n        /* \"#utility.yul\":12968:13039   */\n      tag_140\n      jump\t// in\n    tag_308:\n        /* \"#utility.yul\":13049:13121   */\n      tag_309\n        /* \"#utility.yul\":13117:13119   */\n      0x20\n        /* \"#utility.yul\":13106:13115   */\n      dup4\n        /* \"#utility.yul\":13102:13120   */\n      add\n        /* \"#utility.yul\":13093:13099   */\n      dup7\n        /* \"#utility.yul\":13049:13121   */\n      tag_140\n      jump\t// in\n    tag_309:\n        /* \"#utility.yul\":13131:13203   */\n      tag_310\n        /* \"#utility.yul\":13199:13201   */\n      0x40\n        /* \"#utility.yul\":13188:13197   */\n      dup4\n        /* \"#utility.yul\":13184:13202   */\n      add\n        /* \"#utility.yul\":13175:13181   */\n      dup6\n        /* \"#utility.yul\":13131:13203   */\n      tag_143\n      jump\t// in\n    tag_310:\n        /* \"#utility.yul\":13250:13259   */\n      dup2\n        /* \"#utility.yul\":13244:13248   */\n      dup2\n        /* \"#utility.yul\":13240:13260   */\n      sub\n        /* \"#utility.yul\":13235:13237   */\n      0x60\n        /* \"#utility.yul\":13224:13233   */\n      dup4\n        /* \"#utility.yul\":13220:13238   */\n      add\n        /* \"#utility.yul\":13213:13261   */\n      mstore\n        /* \"#utility.yul\":13278:13354   */\n      tag_311\n        /* \"#utility.yul\":13349:13353   */\n      dup2\n        /* \"#utility.yul\":13340:13346   */\n      dup5\n        /* \"#utility.yul\":13278:13354   */\n      tag_164\n      jump\t// in\n    tag_311:\n        /* \"#utility.yul\":13270:13354   */\n      swap1\n      pop\n        /* \"#utility.yul\":12721:13361   */\n      swap6\n      swap5\n      pop\n      pop\n      pop\n      pop\n      pop\n      jump\t// out\n        /* \"#utility.yul\":13367:13516   */\n    tag_165:\n        /* \"#utility.yul\":13403:13410   */\n      0x00\n        /* \"#utility.yul\":13443:13509   */\n      0xffffffff00000000000000000000000000000000000000000000000000000000\n        /* \"#utility.yul\":13436:13441   */\n      dup3\n        /* \"#utility.yul\":13432:13510   */\n      and\n        /* \"#utility.yul\":13421:13510   */\n      swap1\n      pop\n        /* \"#utility.yul\":13367:13516   */\n      swap2\n      swap1\n      pop\n      jump\t// out\n        /* \"#utility.yul\":13522:13642   */\n    tag_166:\n        /* \"#utility.yul\":13594:13617   */\n      tag_314\n        /* \"#utility.yul\":13611:13616   */\n      dup2\n        /* \"#utility.yul\":13594:13617   */\n      tag_165\n      jump\t// in\n    tag_314:\n        /* \"#utility.yul\":13587:13592   */\n      dup2\n        /* \"#utility.yul\":13584:13618   */\n      eq\n        /* \"#utility.yul\":13574:13636   */\n      tag_315\n      jumpi\n        /* \"#utility.yul\":13632:13633   */\n      0x00\n        /* \"#utility.yul\":13629:13630   */\n      0x00\n        /* \"#utility.yul\":13622:13634   */\n      revert\n        /* \"#utility.yul\":13574:13636   */\n    tag_315:\n        /* \"#utility.yul\":13522:13642   */\n      pop\n      jump\t// out\n        /* \"#utility.yul\":13648:13789   */\n    tag_167:\n        /* \"#utility.yul\":13704:13709   */\n      0x00\n        /* \"#utility.yul\":13735:13741   */\n      dup2\n        /* \"#utility.yul\":13729:13742   */\n      mload\n        /* \"#utility.yul\":13720:13742   */\n      swap1\n      pop\n        /* \"#utility.yul\":13751:13783   */\n      tag_317\n        /* \"#utility.yul\":13777:13782   */\n      dup2\n        /* \"#utility.yul\":13751:13783   */\n      tag_166\n      jump\t// in\n    tag_317:\n        /* \"#utility.yul\":13648:13789   */\n      swap3\n      swap2\n      pop\n      pop\n      jump\t// out\n        /* \"#utility.yul\":13795:14144   */\n    tag_108:\n        /* \"#utility.yul\":13864:13870   */\n      0x00\n        /* \"#utility.yul\":13913:13915   */\n      0x20\n        /* \"#utility.yul\":13901:13910   */\n      dup3\n        /* \"#utility.yul\":13892:13899   */\n      dup5\n        /* \"#utility.yul\":13888:13911   */\n      sub\n        /* \"#utility.yul\":13884:13916   */\n      slt\n        /* \"#utility.yul\":13881:14000   */\n      iszero\n      tag_319\n      jumpi\n        /* \"#utility.yul\":13919:13998   */\n      tag_320\n      tag_133\n      jump\t// in\n    tag_320:\n        /* \"#utility.yul\":13881:14000   */\n    tag_319:\n        /* \"#utility.yul\":14039:14040   */\n      0x00\n        /* \"#utility.yul\":14064:14127   */\n      tag_321\n        /* \"#utility.yul\":14119:14126   */\n      dup5\n        /* \"#utility.yul\":14110:14116   */\n      dup3\n        /* \"#utility.yul\":14099:14108   */\n      dup6\n        /* \"#utility.yul\":14095:14117   */\n      add\n        /* \"#utility.yul\":14064:14127   */\n      tag_167\n      jump\t// in\n    tag_321:\n        /* \"#utility.yul\":14054:14127   */\n      swap2\n      pop\n        /* \"#utility.yul\":14010:14137   */\n      pop\n        /* \"#utility.yul\":13795:14144   */\n      swap3\n      swap2\n      pop\n      pop\n      jump\t// out\n        /* \"#utility.yul\":14150:14323   */\n    tag_168:\n        /* \"#utility.yul\":14290:14315   */\n      0x4f7263734e46543a2046726f6d206e6f74204f776e6572000000000000000000\n        /* \"#utility.yul\":14286:14287   */\n      0x00\n        /* \"#utility.yul\":14278:14284   */\n      dup3\n        /* \"#utility.yul\":14274:14288   */\n      add\n        /* \"#utility.yul\":14267:14316   */\n      mstore\n        /* \"#utility.yul\":14150:14323   */\n      pop\n      jump\t// out\n        /* \"#utility.yul\":14329:14695   */\n    tag_169:\n        /* \"#utility.yul\":14471:14474   */\n      0x00\n        /* \"#utility.yul\":14492:14559   */\n      tag_324\n        /* \"#utility.yul\":14556:14558   */\n      0x17\n        /* \"#utility.yul\":14551:14554   */\n      dup4\n        /* \"#utility.yul\":14492:14559   */\n      tag_128\n      jump\t// in\n    tag_324:\n        /* \"#utility.yul\":14485:14559   */\n      swap2\n      pop\n        /* \"#utility.yul\":14568:14661   */\n      tag_325\n        /* \"#utility.yul\":14657:14660   */\n      dup3\n        /* \"#utility.yul\":14568:14661   */\n      tag_168\n      jump\t// in\n    tag_325:\n        /* \"#utility.yul\":14686:14688   */\n      0x20\n        /* \"#utility.yul\":14681:14684   */\n      dup3\n        /* \"#utility.yul\":14677:14689   */\n      add\n        /* \"#utility.yul\":14670:14689   */\n      swap1\n      pop\n        /* \"#utility.yul\":14329:14695   */\n      swap2\n      swap1\n      pop\n      jump\t// out\n        /* \"#utility.yul\":14701:15120   */\n    tag_115:\n        /* \"#utility.yul\":14867:14871   */\n      0x00\n        /* \"#utility.yul\":14905:14907   */\n      0x20\n        /* \"#utility.yul\":14894:14903   */\n      dup3\n        /* \"#utility.yul\":14890:14908   */\n      add\n        /* \"#utility.yul\":14882:14908   */\n      swap1\n      pop\n        /* \"#utility.yul\":14954:14963   */\n      dup2\n        /* \"#utility.yul\":14948:14952   */\n      dup2\n        /* \"#utility.yul\":14944:14964   */\n      sub\n        /* \"#utility.yul\":14940:14941   */\n      0x00\n        /* \"#utility.yul\":14929:14938   */\n      dup4\n        /* \"#utility.yul\":14925:14942   */\n      add\n        /* \"#utility.yul\":14918:14965   */\n      mstore\n        /* \"#utility.yul\":14982:15113   */\n      tag_327\n        /* \"#utility.yul\":15108:15112   */\n      dup2\n        /* \"#utility.yul\":14982:15113   */\n      tag_169\n      jump\t// in\n    tag_327:\n        /* \"#utility.yul\":14974:15113   */\n      swap1\n      pop\n        /* \"#utility.yul\":14701:15120   */\n      swap2\n      swap1\n      pop\n      jump\t// out\n        /* \"#utility.yul\":15126:15304   */\n    tag_170:\n        /* \"#utility.yul\":15266:15296   */\n      0x4f7263734e46543a2046726f6d206e6f7420617574686f72697a656400000000\n        /* \"#utility.yul\":15262:15263   */\n      0x00\n        /* \"#utility.yul\":15254:15260   */\n      dup3\n        /* \"#utility.yul\":15250:15264   */\n      add\n        /* \"#utility.yul\":15243:15297   */\n      mstore\n        /* \"#utility.yul\":15126:15304   */\n      pop\n      jump\t// out\n        /* \"#utility.yul\":15310:15676   */\n    tag_171:\n        /* \"#utility.yul\":15452:15455   */\n      0x00\n        /* \"#utility.yul\":15473:15540   */\n      tag_330\n        /* \"#utility.yul\":15537:15539   */\n      0x1c\n        /* \"#utility.yul\":15532:15535   */\n      dup4\n        /* \"#utility.yul\":15473:15540   */\n      tag_128\n      jump\t// in\n    tag_330:\n        /* \"#utility.yul\":15466:15540   */\n      swap2\n      pop\n        /* \"#utility.yul\":15549:15642   */\n      tag_331\n        /* \"#utility.yul\":15638:15641   */\n      dup3\n        /* \"#utility.yul\":15549:15642   */\n      tag_170\n      jump\t// in\n    tag_331:\n        /* \"#utility.yul\":15667:15669   */\n      0x20\n        /* \"#utility.yul\":15662:15665   */\n      dup3\n        /* \"#utility.yul\":15658:15670   */\n      add\n        /* \"#utility.yul\":15651:15670   */\n      swap1\n      pop\n        /* \"#utility.yul\":15310:15676   */\n      swap2\n      swap1\n      pop\n      jump\t// out\n        /* \"#utility.yul\":15682:16101   */\n    tag_122:\n        /* \"#utility.yul\":15848:15852   */\n      0x00\n        /* \"#utility.yul\":15886:15888   */\n      0x20\n        /* \"#utility.yul\":15875:15884   */\n      dup3\n        /* \"#utility.yul\":15871:15889   */\n      add\n        /* \"#utility.yul\":15863:15889   */\n      swap1\n      pop\n        /* \"#utility.yul\":15935:15944   */\n      dup2\n        /* \"#utility.yul\":15929:15933   */\n      dup2\n        /* \"#utility.yul\":15925:15945   */\n      sub\n        /* \"#utility.yul\":15921:15922   */\n      0x00\n        /* \"#utility.yul\":15910:15919   */\n      dup4\n        /* \"#utility.yul\":15906:15923   */\n      add\n        /* \"#utility.yul\":15899:15946   */\n      mstore\n        /* \"#utility.yul\":15963:16094   */\n      tag_333\n        /* \"#utility.yul\":16089:16093   */\n      dup2\n        /* \"#utility.yul\":15963:16094   */\n      tag_171\n      jump\t// in\n    tag_333:\n        /* \"#utility.yul\":15955:16094   */\n      swap1\n      pop\n        /* \"#utility.yul\":15682:16101   */\n      swap2\n      swap1\n      pop\n      jump\t// out\n        /* \"#utility.yul\":16107:16287   */\n    tag_172:\n        /* \"#utility.yul\":16155:16232   */\n      0x4e487b7100000000000000000000000000000000000000000000000000000000\n        /* \"#utility.yul\":16152:16153   */\n      0x00\n        /* \"#utility.yul\":16145:16233   */\n      mstore\n        /* \"#utility.yul\":16252:16256   */\n      0x11\n        /* \"#utility.yul\":16249:16250   */\n      0x04\n        /* \"#utility.yul\":16242:16257   */\n      mstore\n        /* \"#utility.yul\":16276:16280   */\n      0x24\n        /* \"#utility.yul\":16273:16274   */\n      0x00\n        /* \"#utility.yul\":16266:16281   */\n      revert\n        /* \"#utility.yul\":16293:16487   */\n    tag_124:\n        /* \"#utility.yul\":16333:16337   */\n      0x00\n        /* \"#utility.yul\":16353:16373   */\n      tag_336\n        /* \"#utility.yul\":16371:16372   */\n      dup3\n        /* \"#utility.yul\":16353:16373   */\n      tag_135\n      jump\t// in\n    tag_336:\n        /* \"#utility.yul\":16348:16373   */\n      swap2\n      pop\n        /* \"#utility.yul\":16387:16407   */\n      tag_337\n        /* \"#utility.yul\":16405:16406   */\n      dup4\n        /* \"#utility.yul\":16387:16407   */\n      tag_135\n      jump\t// in\n    tag_337:\n        /* \"#utility.yul\":16382:16407   */\n      swap3\n      pop\n        /* \"#utility.yul\":16431:16432   */\n      dup3\n        /* \"#utility.yul\":16428:16429   */\n      dup3\n        /* \"#utility.yul\":16424:16433   */\n      sub\n        /* \"#utility.yul\":16416:16433   */\n      swap1\n      pop\n        /* \"#utility.yul\":16455:16456   */\n      dup2\n        /* \"#utility.yul\":16449:16453   */\n      dup2\n        /* \"#utility.yul\":16446:16457   */\n      gt\n        /* \"#utility.yul\":16443:16480   */\n      iszero\n      tag_338\n      jumpi\n        /* \"#utility.yul\":16460:16478   */\n      tag_339\n      tag_172\n      jump\t// in\n    tag_339:\n        /* \"#utility.yul\":16443:16480   */\n    tag_338:\n        /* \"#utility.yul\":16293:16487   */\n      swap3\n      swap2\n      pop\n      pop\n      jump\t// out\n        /* \"#utility.yul\":16493:16684   */\n    tag_126:\n        /* \"#utility.yul\":16533:16536   */\n      0x00\n        /* \"#utility.yul\":16552:16572   */\n      tag_341\n        /* \"#utility.yul\":16570:16571   */\n      dup3\n        /* \"#utility.yul\":16552:16572   */\n      tag_135\n      jump\t// in\n    tag_341:\n        /* \"#utility.yul\":16547:16572   */\n      swap2\n      pop\n        /* \"#utility.yul\":16586:16606   */\n      tag_342\n        /* \"#utility.yul\":16604:16605   */\n      dup4\n        /* \"#utility.yul\":16586:16606   */\n      tag_135\n      jump\t// in\n    tag_342:\n        /* \"#utility.yul\":16581:16606   */\n      swap3\n      pop\n        /* \"#utility.yul\":16629:16630   */\n      dup3\n        /* \"#utility.yul\":16626:16627   */\n      dup3\n        /* \"#utility.yul\":16622:16631   */\n      add\n        /* \"#utility.yul\":16615:16631   */\n      swap1\n      pop\n        /* \"#utility.yul\":16650:16653   */\n      dup1\n        /* \"#utility.yul\":16647:16648   */\n      dup3\n        /* \"#utility.yul\":16644:16654   */\n      gt\n        /* \"#utility.yul\":16641:16677   */\n      iszero\n      tag_343\n      jumpi\n        /* \"#utility.yul\":16657:16675   */\n      tag_344\n      tag_172\n      jump\t// in\n    tag_344:\n        /* \"#utility.yul\":16641:16677   */\n    tag_343:\n        /* \"#utility.yul\":16493:16684   */\n      swap3\n      swap2\n      pop\n      pop\n      jump\t// out\n\n    auxdata: 0xa26469706673582212203633418b3d66d27d822e7cb6d99ef7d2821e44271a83c439452c1f3bc52745a164736f6c634300081e0033\n}\n",
				"bytecode": {
					"linkReferences": {},
					"object": "6080604052348015600e575f5ffd5b5061146f8061001c5f395ff3fe60806040526004361061009b575f3560e01c80636352211e116100635780636352211e1461015957806370a082311461019557806395d89b41146101d1578063a22cb465146101fb578063b88d4fde14610223578063e985e9c51461023f5761009b565b806306fdde031461009f578063081812fc146100c9578063095ea7b31461010557806323b872dd1461012157806342842e0e1461013d575b5f5ffd5b3480156100aa575f5ffd5b506100b361027b565b6040516100c09190610c16565b60405180910390f35b3480156100d4575f5ffd5b506100ef60048036038101906100ea9190610c7a565b610306565b6040516100fc9190610ce4565b60405180910390f35b61011f600480360381019061011a9190610d27565b61033f565b005b61013b60048036038101906101369190610d65565b610470565b005b61015760048036038101906101529190610d65565b610480565b005b348015610164575f5ffd5b5061017f600480360381019061017a9190610c7a565b6104c6565b60405161018c9190610ce4565b60405180910390f35b3480156101a0575f5ffd5b506101bb60048036038101906101b69190610db5565b6104ff565b6040516101c89190610def565b60405180910390f35b3480156101dc575f5ffd5b506101e5610545565b6040516101f29190610c16565b60405180910390f35b348015610206575f5ffd5b50610221600480360381019061021c9190610e3d565b6105d1565b005b61023d60048036038101906102389190610fa7565b610713565b005b34801561024a575f5ffd5b5061026560048036038101906102609190611027565b610835565b6040516102729190611074565b60405180910390f35b5f8054610287906110ba565b80601f01602080910402602001604051908101604052809291908181526020018280546102b3906110ba565b80156102fe5780601f106102d5576101008083540402835291602001916102fe565b820191905f5260205f20905b8154815290600101906020018083116102e157829003601f168201915b505050505081565b5f60045f8381526020019081526020015f205f9054906101000a900473ffffffffffffffffffffffffffffffffffffffff169050919050565b5f610349826104c6565b90503373ffffffffffffffffffffffffffffffffffffffff1661036b836104c6565b73ffffffffffffffffffffffffffffffffffffffff16146103c1576040517f08c379a00000000000000000000000000000000000000000000000000000000081526004016103b890611134565b60405180910390fd5b8260045f8481526020019081526020015f205f6101000a81548173ffffffffffffffffffffffffffffffffffffffff021916908373ffffffffffffffffffffffffffffffffffffffff160217905550818373ffffffffffffffffffffffffffffffffffffffff168273ffffffffffffffffffffffffffffffffffffffff167f8c5be1e5ebec7d5bd14f71427d1e84f3dd0314c0f7b2291e5b200ac8c7c3b92560405160405180910390a4505050565b61047b8383836108c3565b505050565b6104c18383836040518060400160405280600281526020017f3078000000000000000000000000000000000000000000000000000000000000815250610713565b505050565b5f60035f8381526020019081526020015f205f9054906101000a900473ffffffffffffffffffffffffffffffffffffffff169050919050565b5f60025f8373ffffffffffffffffffffffffffffffffffffffff1673ffffffffffffffffffffffffffffffffffffffff1681526020019081526020015f20549050919050565b60018054610552906110ba565b80601f016020809104026020016040519081016040528092919081815260200182805461057e906110ba565b80156105c95780601f106105a0576101008083540402835291602001916105c9565b820191905f5260205f20905b8154815290600101906020018083116105ac57829003601f168201915b505050505081565b5f6105db336104ff565b1161061b576040517f08c379a00000000000000000000000000000000000000000000000000000000081526004016106129061119c565b60405180910390fd5b8060055f3373ffffffffffffffffffffffffffffffffffffffff1673ffffffffffffffffffffffffffffffffffffffff1681526020019081526020015f205f8473ffffffffffffffffffffffffffffffffffffffff1673ffffffffffffffffffffffffffffffffffffffff1681526020019081526020015f205f6101000a81548160ff0219169083151502179055508173ffffffffffffffffffffffffffffffffffffffff163373ffffffffffffffffffffffffffffffffffffffff167f17307eab39ab6107e8899845ad3d59bd9653f200f220920489ca2b5937696c31836040516107079190611074565b60405180910390a35050565b61071e8484846108c3565b5f8373ffffffffffffffffffffffffffffffffffffffff163b111561082f575f8390505f8173ffffffffffffffffffffffffffffffffffffffff1663150b7a02338887876040518563ffffffff1660e01b8152600401610781949392919061120c565b6020604051808303815f875af115801561079d573d5f5f3e3d5ffd5b505050506040513d601f19601f820116820180604052508101906107c191906112ab565b90507f150b7a023d4804d13e8c85fb27262cb750cf6ba9f9dd3bb30d90f482ceeb4b1f7bffffffffffffffffffffffffffffffffffffffffffffffffffffffff1916817bffffffffffffffffffffffffffffffffffffffffffffffffffffffff19161461082c575f5ffd5b50505b50505050565b5f60055f8473ffffffffffffffffffffffffffffffffffffffff1673ffffffffffffffffffffffffffffffffffffffff1681526020019081526020015f205f8373ffffffffffffffffffffffffffffffffffffffff1673ffffffffffffffffffffffffffffffffffffffff1681526020019081526020015f205f9054906101000a900460ff16905092915050565b5f6108cd826104c6565b90508073ffffffffffffffffffffffffffffffffffffffff168473ffffffffffffffffffffffffffffffffffffffff161461093d576040517f08c379a000000000000000000000000000000000000000000000000000000000815260040161093490611320565b60405180910390fd5b5f61094783610306565b90508173ffffffffffffffffffffffffffffffffffffffff163373ffffffffffffffffffffffffffffffffffffffff1614806109ae57508073ffffffffffffffffffffffffffffffffffffffff163373ffffffffffffffffffffffffffffffffffffffff16145b806109bf57506109be8533610835565b5b6109fe576040517f08c379a00000000000000000000000000000000000000000000000000000000081526004016109f590611388565b60405180910390fd5b600160025f8773ffffffffffffffffffffffffffffffffffffffff1673ffffffffffffffffffffffffffffffffffffffff1681526020019081526020015f205f828254610a4b91906113d3565b92505081905550600160025f8673ffffffffffffffffffffffffffffffffffffffff1673ffffffffffffffffffffffffffffffffffffffff1681526020019081526020015f205f828254610a9f9190611406565b925050819055508360035f8581526020019081526020015f205f6101000a81548173ffffffffffffffffffffffffffffffffffffffff021916908373ffffffffffffffffffffffffffffffffffffffff1602179055505f60045f8581526020019081526020015f205f6101000a81548173ffffffffffffffffffffffffffffffffffffffff021916908373ffffffffffffffffffffffffffffffffffffffff160217905550828473ffffffffffffffffffffffffffffffffffffffff168673ffffffffffffffffffffffffffffffffffffffff167fddf252ad1be2c89b69c2b068fc378daa952ba7f163c4a11628f55a4df523b3ef60405160405180910390a45050505050565b5f81519050919050565b5f82825260208201905092915050565b8281835e5f83830152505050565b5f601f19601f8301169050919050565b5f610be882610ba6565b610bf28185610bb0565b9350610c02818560208601610bc0565b610c0b81610bce565b840191505092915050565b5f6020820190508181035f830152610c2e8184610bde565b905092915050565b5f604051905090565b5f5ffd5b5f5ffd5b5f819050919050565b610c5981610c47565b8114610c63575f5ffd5b50565b5f81359050610c7481610c50565b92915050565b5f60208284031215610c8f57610c8e610c3f565b5b5f610c9c84828501610c66565b91505092915050565b5f73ffffffffffffffffffffffffffffffffffffffff82169050919050565b5f610cce82610ca5565b9050919050565b610cde81610cc4565b82525050565b5f602082019050610cf75f830184610cd5565b92915050565b610d0681610cc4565b8114610d10575f5ffd5b50565b5f81359050610d2181610cfd565b92915050565b5f5f60408385031215610d3d57610d3c610c3f565b5b5f610d4a85828601610d13565b9250506020610d5b85828601610c66565b9150509250929050565b5f5f5f60608486031215610d7c57610d7b610c3f565b5b5f610d8986828701610d13565b9350506020610d9a86828701610d13565b9250506040610dab86828701610c66565b9150509250925092565b5f60208284031215610dca57610dc9610c3f565b5b5f610dd784828501610d13565b91505092915050565b610de981610c47565b82525050565b5f602082019050610e025f830184610de0565b92915050565b5f8115159050919050565b610e1c81610e08565b8114610e26575f5ffd5b50565b5f81359050610e3781610e13565b92915050565b5f5f60408385031215610e5357610e52610c3f565b5b5f610e6085828601610d13565b9250506020610e7185828601610e29565b9150509250929050565b5f5ffd5b5f5ffd5b7f4e487b71000000000000000000000000000000000000000000000000000000005f52604160045260245ffd5b610eb982610bce565b810181811067ffffffffffffffff82111715610ed857610ed7610e83565b5b80604052505050565b5f610eea610c36565b9050610ef68282610eb0565b919050565b5f67ffffffffffffffff821115610f1557610f14610e83565b5b610f1e82610bce565b9050602081019050919050565b828183375f83830152505050565b5f610f4b610f4684610efb565b610ee1565b905082815260208101848484011115610f6757610f66610e7f565b5b610f72848285610f2b565b509392505050565b5f82601f830112610f8e57610f8d610e7b565b5b8135610f9e848260208601610f39565b91505092915050565b5f5f5f5f60808587031215610fbf57610fbe610c3f565b5b5f610fcc87828801610d13565b9450506020610fdd87828801610d13565b9350506040610fee87828801610c66565b925050606085013567ffffffffffffffff81111561100f5761100e610c43565b5b61101b87828801610f7a565b91505092959194509250565b5f5f6040838503121561103d5761103c610c3f565b5b5f61104a85828601610d13565b925050602061105b85828601610d13565b9150509250929050565b61106e81610e08565b82525050565b5f6020820190506110875f830184611065565b92915050565b7f4e487b71000000000000000000000000000000000000000000000000000000005f52602260045260245ffd5b5f60028204905060018216806110d157607f821691505b6020821081036110e4576110e361108d565b5b50919050565b7f4f7263734e46543a204e6f74204f776e657200000000000000000000000000005f82015250565b5f61111e601283610bb0565b9150611129826110ea565b602082019050919050565b5f6020820190508181035f83015261114b81611112565b9050919050565b7f4f7263734e46543a204e6f2042616c616e6365000000000000000000000000005f82015250565b5f611186601383610bb0565b915061119182611152565b602082019050919050565b5f6020820190508181035f8301526111b38161117a565b9050919050565b5f81519050919050565b5f82825260208201905092915050565b5f6111de826111ba565b6111e881856111c4565b93506111f8818560208601610bc0565b61120181610bce565b840191505092915050565b5f60808201905061121f5f830187610cd5565b61122c6020830186610cd5565b6112396040830185610de0565b818103606083015261124b81846111d4565b905095945050505050565b5f7fffffffff0000000000000000000000000000000000000000000000000000000082169050919050565b61128a81611256565b8114611294575f5ffd5b50565b5f815190506112a581611281565b92915050565b5f602082840312156112c0576112bf610c3f565b5b5f6112cd84828501611297565b91505092915050565b7f4f7263734e46543a2046726f6d206e6f74204f776e65720000000000000000005f82015250565b5f61130a601783610bb0565b9150611315826112d6565b602082019050919050565b5f6020820190508181035f830152611337816112fe565b9050919050565b7f4f7263734e46543a2046726f6d206e6f7420617574686f72697a6564000000005f82015250565b5f611372601c83610bb0565b915061137d8261133e565b602082019050919050565b5f6020820190508181035f83015261139f81611366565b9050919050565b7f4e487b71000000000000000000000000000000000000000000000000000000005f52601160045260245ffd5b5f6113dd82610c47565b91506113e883610c47565b9250828203905081811115611400576113ff6113a6565b5b92915050565b5f61141082610c47565b915061141b83610c47565b9250828201905080821115611433576114326113a6565b5b9291505056fea26469706673582212203633418b3d66d27d822e7cb6d99ef7d2821e44271a83c439452c1f3bc52745a164736f6c634300081e0033",
					"opcodes": "PUSH1 0x80 PUSH1 0x40 MSTORE CALLVALUE DUP1 ISZERO PUSH1 0xE JUMPI PUSH0 PUSH0 REVERT JUMPDEST POP PUSH2 0x146F DUP1 PUSH2 0x1C PUSH0 CODECOPY PUSH0 RETURN INVALID PUSH1 0x80 PUSH1 0x40 MSTORE PUSH1 0x4 CALLDATASIZE LT PUSH2 0x9B JUMPI PUSH0 CALLDATALOAD PUSH1 0xE0 SHR DUP1 PUSH4 0x6352211E GT PUSH2 0x63 JUMPI DUP1 PUSH4 0x6352211E EQ PUSH2 0x159 JUMPI DUP1 PUSH4 0x70A08231 EQ PUSH2 0x195 JUMPI DUP1 PUSH4 0x95D89B41 EQ PUSH2 0x1D1 JUMPI DUP1 PUSH4 0xA22CB465 EQ PUSH2 0x1FB JUMPI DUP1 PUSH4 0xB88D4FDE EQ PUSH2 0x223 JUMPI DUP1 PUSH4 0xE985E9C5 EQ PUSH2 0x23F JUMPI PUSH2 0x9B JUMP JUMPDEST DUP1 PUSH4 0x6FDDE03 EQ PUSH2 0x9F JUMPI DUP1 PUSH4 0x81812FC EQ PUSH2 0xC9 JUMPI DUP1 PUSH4 0x95EA7B3 EQ PUSH2 0x105 JUMPI DUP1 PUSH4 0x23B872DD EQ PUSH2 0x121 JUMPI DUP1 PUSH4 0x42842E0E EQ PUSH2 0x13D JUMPI JUMPDEST PUSH0 PUSH0 REVERT JUMPDEST CALLVALUE DUP1 ISZERO PUSH2 0xAA JUMPI PUSH0 PUSH0 REVERT JUMPDEST POP PUSH2 0xB3 PUSH2 0x27B JUMP JUMPDEST PUSH1 0x40 MLOAD PUSH2 0xC0 SWAP2 SWAP1 PUSH2 0xC16 JUMP JUMPDEST PUSH1 0x40 MLOAD DUP1 SWAP2 SUB SWAP1 RETURN JUMPDEST CALLVALUE DUP1 ISZERO PUSH2 0xD4 JUMPI PUSH0 PUSH0 REVERT JUMPDEST POP PUSH2 0xEF PUSH1 0x4 DUP1 CALLDATASIZE SUB DUP2 ADD SWAP1 PUSH2 0xEA SWAP2 SWAP1 PUSH2 0xC7A JUMP JUMPDEST PUSH2 0x306 JUMP JUMPDEST PUSH1 0x40 MLOAD PUSH2 0xFC SWAP2 SWAP1 PUSH2 0xCE4 JUMP JUMPDEST PUSH1 0x40 MLOAD DUP1 SWAP2 SUB SWAP1 RETURN JUMPDEST PUSH2 0x11F PUSH1 0x4 DUP1 CALLDATASIZE SUB DUP2 ADD SWAP1 PUSH2 0x11A SWAP2 SWAP1 PUSH2 0xD27 JUMP JUMPDEST PUSH2 0x33F JUMP JUMPDEST STOP JUMPDEST PUSH2 0x13B PUSH1 0x4 DUP1 CALLDATASIZE SUB DUP2 ADD SWAP1 PUSH2 0x136 SWAP2 SWAP1 PUSH2 0xD65 JUMP JUMPDEST PUSH2 0x470 JUMP JUMPDEST STOP JUMPDEST PUSH2 0x157 PUSH1 0x4 DUP1 CALLDATASIZE SUB DUP2 ADD SWAP1 PUSH2 0x152 SWAP2 SWAP1 PUSH2 0xD65 JUMP JUMPDEST PUSH2 0x480 JUMP JUMPDEST STOP JUMPDEST CALLVALUE DUP1 ISZERO PUSH2 0x164 JUMPI PUSH0 PUSH0 REVERT JUMPDEST POP PUSH2 0x17F PUSH1 0x4 DUP1 CALLDATASIZE SUB DUP2 ADD SWAP1 PUSH2 0x17A SWAP2 SWAP1 PUSH2 0xC7A JUMP JUMPDEST PUSH2 0x4C6 JUMP JUMPDEST PUSH1 0x40 MLOAD PUSH2 0x18C SWAP2 SWAP1 PUSH2 0xCE4 JUMP JUMPDEST PUSH1 0x40 MLOAD DUP1 SWAP2 SUB SWAP1 RETURN JUMPDEST CALLVALUE DUP1 ISZERO PUSH2 0x1A0 JUMPI PUSH0 PUSH0 REVERT JUMPDEST POP PUSH2 0x1BB PUSH1 0x4 DUP1 CALLDATASIZE SUB DUP2 ADD SWAP1 PUSH2 0x1B6 SWAP2 SWAP1 PUSH2 0xDB5 JUMP JUMPDEST PUSH2 0x4FF JUMP JUMPDEST PUSH1 0x40 MLOAD PUSH2 0x1C8 SWAP2 SWAP1 PUSH2 0xDEF JUMP JUMPDEST PUSH1 0x40 MLOAD DUP1 SWAP2 SUB SWAP1 RETURN JUMPDEST CALLVALUE DUP1 ISZERO PUSH2 0x1DC JUMPI PUSH0 PUSH0 REVERT JUMPDEST POP PUSH2 0x1E5 PUSH2 0x545 JUMP JUMPDEST PUSH1 0x40 MLOAD PUSH2 0x1F2 SWAP2 SWAP1 PUSH2 0xC16 JUMP JUMPDEST PUSH1 0x40 MLOAD DUP1 SWAP2 SUB SWAP1 RETURN JUMPDEST CALLVALUE DUP1 ISZERO PUSH2 0x206 JUMPI PUSH0 PUSH0 REVERT JUMPDEST POP PUSH2 0x221 PUSH1 0x4 DUP1 CALLDATASIZE SUB DUP2 ADD SWAP1 PUSH2 0x21C SWAP2 SWAP1 PUSH2 0xE3D JUMP JUMPDEST PUSH2 0x5D1 JUMP JUMPDEST STOP JUMPDEST PUSH2 0x23D PUSH1 0x4 DUP1 CALLDATASIZE SUB DUP2 ADD SWAP1 PUSH2 0x238 SWAP2 SWAP1 PUSH2 0xFA7 JUMP JUMPDEST PUSH2 0x713 JUMP JUMPDEST STOP JUMPDEST CALLVALUE DUP1 ISZERO PUSH2 0x24A JUMPI PUSH0 PUSH0 REVERT JUMPDEST POP PUSH2 0x265 PUSH1 0x4 DUP1 CALLDATASIZE SUB DUP2 ADD SWAP1 PUSH2 0x260 SWAP2 SWAP1 PUSH2 0x1027 JUMP JUMPDEST PUSH2 0x835 JUMP JUMPDEST PUSH1 0x40 MLOAD PUSH2 0x272 SWAP2 SWAP1 PUSH2 0x1074 JUMP JUMPDEST PUSH1 0x40 MLOAD DUP1 SWAP2 SUB SWAP1 RETURN JUMPDEST PUSH0 DUP1 SLOAD PUSH2 0x287 SWAP1 PUSH2 0x10BA JUMP JUMPDEST DUP1 PUSH1 0x1F ADD PUSH1 0x20 DUP1 SWAP2 DIV MUL PUSH1 0x20 ADD PUSH1 0x40 MLOAD SWAP1 DUP2 ADD PUSH1 0x40 MSTORE DUP1 SWAP3 SWAP2 SWAP1 DUP2 DUP2 MSTORE PUSH1 0x20 ADD DUP3 DUP1 SLOAD PUSH2 0x2B3 SWAP1 PUSH2 0x10BA JUMP JUMPDEST DUP1 ISZERO PUSH2 0x2FE JUMPI DUP1 PUSH1 0x1F LT PUSH2 0x2D5 JUMPI PUSH2 0x100 DUP1 DUP4 SLOAD DIV MUL DUP4 MSTORE SWAP2 PUSH1 0x20 ADD SWAP2 PUSH2 0x2FE JUMP JUMPDEST DUP3 ADD SWAP2 SWAP1 PUSH0 MSTORE PUSH1 0x20 PUSH0 KECCAK256 SWAP1 JUMPDEST DUP2 SLOAD DUP2 MSTORE SWAP1 PUSH1 0x1 ADD SWAP1 PUSH1 0x20 ADD DUP1 DUP4 GT PUSH2 0x2E1 JUMPI DUP3 SWAP1 SUB PUSH1 0x1F AND DUP3 ADD SWAP2 JUMPDEST POP POP POP POP POP DUP2 JUMP JUMPDEST PUSH0 PUSH1 0x4 PUSH0 DUP4 DUP2 MSTORE PUSH1 0x20 ADD SWAP1 DUP2 MSTORE PUSH1 0x20 ADD PUSH0 KECCAK256 PUSH0 SWAP1 SLOAD SWAP1 PUSH2 0x100 EXP SWAP1 DIV PUSH20 0xFFFFFFFFFFFFFFFFFFFFFFFFFFFFFFFFFFFFFFFF AND SWAP1 POP SWAP2 SWAP1 POP JUMP JUMPDEST PUSH0 PUSH2 0x349 DUP3 PUSH2 0x4C6 JUMP JUMPDEST SWAP1 POP CALLER PUSH20 0xFFFFFFFFFFFFFFFFFFFFFFFFFFFFFFFFFFFFFFFF AND PUSH2 0x36B DUP4 PUSH2 0x4C6 JUMP JUMPDEST PUSH20 0xFFFFFFFFFFFFFFFFFFFFFFFFFFFFFFFFFFFFFFFF AND EQ PUSH2 0x3C1 JUMPI PUSH1 0x40 MLOAD PUSH32 0x8C379A000000000000000000000000000000000000000000000000000000000 DUP2 MSTORE PUSH1 0x4 ADD PUSH2 0x3B8 SWAP1 PUSH2 0x1134 JUMP JUMPDEST PUSH1 0x40 MLOAD DUP1 SWAP2 SUB SWAP1 REVERT JUMPDEST DUP3 PUSH1 0x4 PUSH0 DUP5 DUP2 MSTORE PUSH1 0x20 ADD SWAP1 DUP2 MSTORE PUSH1 0x20 ADD PUSH0 KECCAK256 PUSH0 PUSH2 0x100 EXP DUP2 SLOAD DUP2 PUSH20 0xFFFFFFFFFFFFFFFFFFFFFFFFFFFFFFFFFFFFFFFF MUL NOT AND SWAP1 DUP4 PUSH20 0xFFFFFFFFFFFFFFFFFFFFFFFFFFFFFFFFFFFFFFFF AND MUL OR SWAP1 SSTORE POP DUP2 DUP4 PUSH20 0xFFFFFFFFFFFFFFFFFFFFFFFFFFFFFFFFFFFFFFFF AND DUP3 PUSH20 0xFFFFFFFFFFFFFFFFFFFFFFFFFFFFFFFFFFFFFFFF AND PUSH32 0x8C5BE1E5EBEC7D5BD14F71427D1E84F3DD0314C0F7B2291E5B200AC8C7C3B925 PUSH1 0x40 MLOAD PUSH1 0x40 MLOAD DUP1 SWAP2 SUB SWAP1 LOG4 POP POP POP JUMP JUMPDEST PUSH2 0x47B DUP4 DUP4 DUP4 PUSH2 0x8C3 JUMP JUMPDEST POP POP POP JUMP JUMPDEST PUSH2 0x4C1 DUP4 DUP4 DUP4 PUSH1 0x40 MLOAD DUP1 PUSH1 0x40 ADD PUSH1 0x40 MSTORE DUP1 PUSH1 0x2 DUP2 MSTORE PUSH1 0x20 ADD PUSH32 0x3078000000000000000000000000000000000000000000000000000000000000 DUP2 MSTORE POP PUSH2 0x713 JUMP JUMPDEST POP POP POP JUMP JUMPDEST PUSH0 PUSH1 0x3 PUSH0 DUP4 DUP2 MSTORE PUSH1 0x20 ADD SWAP1 DUP2 MSTORE PUSH1 0x20 ADD PUSH0 KECCAK256 PUSH0 SWAP1 SLOAD SWAP1 PUSH2 0x100 EXP SWAP1 DIV PUSH20 0xFFFFFFFFFFFFFFFFFFFFFFFFFFFFFFFFFFFFFFFF AND SWAP1 POP SWAP2 SWAP1 POP JUMP JUMPDEST PUSH0 PUSH1 0x2 PUSH0 DUP4 PUSH20 0xFFFFFFFFFFFFFFFFFFFFFFFFFFFFFFFFFFFFFFFF AND PUSH20 0xFFFFFFFFFFFFFFFFFFFFFFFFFFFFFFFFFFFFFFFF AND DUP2 MSTORE PUSH1 0x20 ADD SWAP1 DUP2 MSTORE PUSH1 0x20 ADD PUSH0 KECCAK256 SLOAD SWAP1 POP SWAP2 SWAP1 POP JUMP JUMPDEST PUSH1 0x1 DUP1 SLOAD PUSH2 0x552 SWAP1 PUSH2 0x10BA JUMP JUMPDEST DUP1 PUSH1 0x1F ADD PUSH1 0x20 DUP1 SWAP2 DIV MUL PUSH1 0x20 ADD PUSH1 0x40 MLOAD SWAP1 DUP2 ADD PUSH1 0x40 MSTORE DUP1 SWAP3 SWAP2 SWAP1 DUP2 DUP2 MSTORE PUSH1 0x20 ADD DUP3 DUP1 SLOAD PUSH2 0x57E SWAP1 PUSH2 0x10BA JUMP JUMPDEST DUP1 ISZERO PUSH2 0x5C9 JUMPI DUP1 PUSH1 0x1F LT PUSH2 0x5A0 JUMPI PUSH2 0x100 DUP1 DUP4 SLOAD DIV MUL DUP4 MSTORE SWAP2 PUSH1 0x20 ADD SWAP2 PUSH2 0x5C9 JUMP JUMPDEST DUP3 ADD SWAP2 SWAP1 PUSH0 MSTORE PUSH1 0x20 PUSH0 KECCAK256 SWAP1 JUMPDEST DUP2 SLOAD DUP2 MSTORE SWAP1 PUSH1 0x1 ADD SWAP1 PUSH1 0x20 ADD DUP1 DUP4 GT PUSH2 0x5AC JUMPI DUP3 SWAP1 SUB PUSH1 0x1F AND DUP3 ADD SWAP2 JUMPDEST POP POP POP POP POP DUP2 JUMP JUMPDEST PUSH0 PUSH2 0x5DB CALLER PUSH2 0x4FF JUMP JUMPDEST GT PUSH2 0x61B JUMPI PUSH1 0x40 MLOAD PUSH32 0x8C379A000000000000000000000000000000000000000000000000000000000 DUP2 MSTORE PUSH1 0x4 ADD PUSH2 0x612 SWAP1 PUSH2 0x119C JUMP JUMPDEST PUSH1 0x40 MLOAD DUP1 SWAP2 SUB SWAP1 REVERT JUMPDEST DUP1 PUSH1 0x5 PUSH0 CALLER PUSH20 0xFFFFFFFFFFFFFFFFFFFFFFFFFFFFFFFFFFFFFFFF AND PUSH20 0xFFFFFFFFFFFFFFFFFFFFFFFFFFFFFFFFFFFFFFFF AND DUP2 MSTORE PUSH1 0x20 ADD SWAP1 DUP2 MSTORE PUSH1 0x20 ADD PUSH0 KECCAK256 PUSH0 DUP5 PUSH20 0xFFFFFFFFFFFFFFFFFFFFFFFFFFFFFFFFFFFFFFFF AND PUSH20 0xFFFFFFFFFFFFFFFFFFFFFFFFFFFFFFFFFFFFFFFF AND DUP2 MSTORE PUSH1 0x20 ADD SWAP1 DUP2 MSTORE PUSH1 0x20 ADD PUSH0 KECCAK256 PUSH0 PUSH2 0x100 EXP DUP2 SLOAD DUP2 PUSH1 0xFF MUL NOT AND SWAP1 DUP4 ISZERO ISZERO MUL OR SWAP1 SSTORE POP DUP2 PUSH20 0xFFFFFFFFFFFFFFFFFFFFFFFFFFFFFFFFFFFFFFFF AND CALLER PUSH20 0xFFFFFFFFFFFFFFFFFFFFFFFFFFFFFFFFFFFFFFFF AND PUSH32 0x17307EAB39AB6107E8899845AD3D59BD9653F200F220920489CA2B5937696C31 DUP4 PUSH1 0x40 MLOAD PUSH2 0x707 SWAP2 SWAP1 PUSH2 0x1074 JUMP JUMPDEST PUSH1 0x40 MLOAD DUP1 SWAP2 SUB SWAP1 LOG3 POP POP JUMP JUMPDEST PUSH2 0x71E DUP5 DUP5 DUP5 PUSH2 0x8C3 JUMP JUMPDEST PUSH0 DUP4 PUSH20 0xFFFFFFFFFFFFFFFFFFFFFFFFFFFFFFFFFFFFFFFF AND EXTCODESIZE GT ISZERO PUSH2 0x82F JUMPI PUSH0 DUP4 SWAP1 POP PUSH0 DUP2 PUSH20 0xFFFFFFFFFFFFFFFFFFFFFFFFFFFFFFFFFFFFFFFF AND PUSH4 0x150B7A02 CALLER DUP9 DUP8 DUP8 PUSH1 0x40 MLOAD DUP6 PUSH4 0xFFFFFFFF AND PUSH1 0xE0 SHL DUP2 MSTORE PUSH1 0x4 ADD PUSH2 0x781 SWAP5 SWAP4 SWAP3 SWAP2 SWAP1 PUSH2 0x120C JUMP JUMPDEST PUSH1 0x20 PUSH1 0x40 MLOAD DUP1 DUP4 SUB DUP2 PUSH0 DUP8 GAS CALL ISZERO DUP1 ISZERO PUSH2 0x79D JUMPI RETURNDATASIZE PUSH0 PUSH0 RETURNDATACOPY RETURNDATASIZE PUSH0 REVERT JUMPDEST POP POP POP POP PUSH1 0x40 MLOAD RETURNDATASIZE PUSH1 0x1F NOT PUSH1 0x1F DUP3 ADD AND DUP3 ADD DUP1 PUSH1 0x40 MSTORE POP DUP2 ADD SWAP1 PUSH2 0x7C1 SWAP2 SWAP1 PUSH2 0x12AB JUMP JUMPDEST SWAP1 POP PUSH32 0x150B7A023D4804D13E8C85FB27262CB750CF6BA9F9DD3BB30D90F482CEEB4B1F PUSH28 0xFFFFFFFFFFFFFFFFFFFFFFFFFFFFFFFFFFFFFFFFFFFFFFFFFFFFFFFF NOT AND DUP2 PUSH28 0xFFFFFFFFFFFFFFFFFFFFFFFFFFFFFFFFFFFFFFFFFFFFFFFFFFFFFFFF NOT AND EQ PUSH2 0x82C JUMPI PUSH0 PUSH0 REVERT JUMPDEST POP POP JUMPDEST POP POP POP POP JUMP JUMPDEST PUSH0 PUSH1 0x5 PUSH0 DUP5 PUSH20 0xFFFFFFFFFFFFFFFFFFFFFFFFFFFFFFFFFFFFFFFF AND PUSH20 0xFFFFFFFFFFFFFFFFFFFFFFFFFFFFFFFFFFFFFFFF AND DUP2 MSTORE PUSH1 0x20 ADD SWAP1 DUP2 MSTORE PUSH1 0x20 ADD PUSH0 KECCAK256 PUSH0 DUP4 PUSH20 0xFFFFFFFFFFFFFFFFFFFFFFFFFFFFFFFFFFFFFFFF AND PUSH20 0xFFFFFFFFFFFFFFFFFFFFFFFFFFFFFFFFFFFFFFFF AND DUP2 MSTORE PUSH1 0x20 ADD SWAP1 DUP2 MSTORE PUSH1 0x20 ADD PUSH0 KECCAK256 PUSH0 SWAP1 SLOAD SWAP1 PUSH2 0x100 EXP SWAP1 DIV PUSH1 0xFF AND SWAP1 POP SWAP3 SWAP2 POP POP JUMP JUMPDEST PUSH0 PUSH2 0x8CD DUP3 PUSH2 0x4C6 JUMP JUMPDEST SWAP1 POP DUP1 PUSH20 0xFFFFFFFFFFFFFFFFFFFFFFFFFFFFFFFFFFFFFFFF AND DUP5 PUSH20 0xFFFFFFFFFFFFFFFFFFFFFFFFFFFFFFFFFFFFFFFF AND EQ PUSH2 0x93D JUMPI PUSH1 0x40 MLOAD PUSH32 0x8C379A000000000000000000000000000000000000000000000000000000000 DUP2 MSTORE PUSH1 0x4 ADD PUSH2 0x934 SWAP1 PUSH2 0x1320 JUMP JUMPDEST PUSH1 0x40 MLOAD DUP1 SWAP2 SUB SWAP1 REVERT JUMPDEST PUSH0 PUSH2 0x947 DUP4 PUSH2 0x306 JUMP JUMPDEST SWAP1 POP DUP2 PUSH20 0xFFFFFFFFFFFFFFFFFFFFFFFFFFFFFFFFFFFFFFFF AND CALLER PUSH20 0xFFFFFFFFFFFFFFFFFFFFFFFFFFFFFFFFFFFFFFFF AND EQ DUP1 PUSH2 0x9AE JUMPI POP DUP1 PUSH20 0xFFFFFFFFFFFFFFFFFFFFFFFFFFFFFFFFFFFFFFFF AND CALLER PUSH20 0xFFFFFFFFFFFFFFFFFFFFFFFFFFFFFFFFFFFFFFFF AND EQ JUMPDEST DUP1 PUSH2 0x9BF JUMPI POP PUSH2 0x9BE DUP6 CALLER PUSH2 0x835 JUMP JUMPDEST JUMPDEST PUSH2 0x9FE JUMPI PUSH1 0x40 MLOAD PUSH32 0x8C379A000000000000000000000000000000000000000000000000000000000 DUP2 MSTORE PUSH1 0x4 ADD PUSH2 0x9F5 SWAP1 PUSH2 0x1388 JUMP JUMPDEST PUSH1 0x40 MLOAD DUP1 SWAP2 SUB SWAP1 REVERT JUMPDEST PUSH1 0x1 PUSH1 0x2 PUSH0 DUP8 PUSH20 0xFFFFFFFFFFFFFFFFFFFFFFFFFFFFFFFFFFFFFFFF AND PUSH20 0xFFFFFFFFFFFFFFFFFFFFFFFFFFFFFFFFFFFFFFFF AND DUP2 MSTORE PUSH1 0x20 ADD SWAP1 DUP2 MSTORE PUSH1 0x20 ADD PUSH0 KECCAK256 PUSH0 DUP3 DUP3 SLOAD PUSH2 0xA4B SWAP2 SWAP1 PUSH2 0x13D3 JUMP JUMPDEST SWAP3 POP POP DUP2 SWAP1 SSTORE POP PUSH1 0x1 PUSH1 0x2 PUSH0 DUP7 PUSH20 0xFFFFFFFFFFFFFFFFFFFFFFFFFFFFFFFFFFFFFFFF AND PUSH20 0xFFFFFFFFFFFFFFFFFFFFFFFFFFFFFFFFFFFFFFFF AND DUP2 MSTORE PUSH1 0x20 ADD SWAP1 DUP2 MSTORE PUSH1 0x20 ADD PUSH0 KECCAK256 PUSH0 DUP3 DUP3 SLOAD PUSH2 0xA9F SWAP2 SWAP1 PUSH2 0x1406 JUMP JUMPDEST SWAP3 POP POP DUP2 SWAP1 SSTORE POP DUP4 PUSH1 0x3 PUSH0 DUP6 DUP2 MSTORE PUSH1 0x20 ADD SWAP1 DUP2 MSTORE PUSH1 0x20 ADD PUSH0 KECCAK256 PUSH0 PUSH2 0x100 EXP DUP2 SLOAD DUP2 PUSH20 0xFFFFFFFFFFFFFFFFFFFFFFFFFFFFFFFFFFFFFFFF MUL NOT AND SWAP1 DUP4 PUSH20 0xFFFFFFFFFFFFFFFFFFFFFFFFFFFFFFFFFFFFFFFF AND MUL OR SWAP1 SSTORE POP PUSH0 PUSH1 0x4 PUSH0 DUP6 DUP2 MSTORE PUSH1 0x20 ADD SWAP1 DUP2 MSTORE PUSH1 0x20 ADD PUSH0 KECCAK256 PUSH0 PUSH2 0x100 EXP DUP2 SLOAD DUP2 PUSH20 0xFFFFFFFFFFFFFFFFFFFFFFFFFFFFFFFFFFFFFFFF MUL NOT AND SWAP1 DUP4 PUSH20 0xFFFFFFFFFFFFFFFFFFFFFFFFFFFFFFFFFFFFFFFF AND MUL OR SWAP1 SSTORE POP DUP3 DUP5 PUSH20 0xFFFFFFFFFFFFFFFFFFFFFFFFFFFFFFFFFFFFFFFF AND DUP7 PUSH20 0xFFFFFFFFFFFFFFFFFFFFFFFFFFFFFFFFFFFFFFFF AND PUSH32 0xDDF252AD1BE2C89B69C2B068FC378DAA952BA7F163C4A11628F55A4DF523B3EF PUSH1 0x40 MLOAD PUSH1 0x40 MLOAD DUP1 SWAP2 SUB SWAP1 LOG4 POP POP POP POP POP JUMP JUMPDEST PUSH0 DUP2 MLOAD SWAP1 POP SWAP2 SWAP1 POP JUMP JUMPDEST PUSH0 DUP3 DUP3 MSTORE PUSH1 0x20 DUP3 ADD SWAP1 POP SWAP3 SWAP2 POP POP JUMP JUMPDEST DUP3 DUP2 DUP4 MCOPY PUSH0 DUP4 DUP4 ADD MSTORE POP POP POP JUMP JUMPDEST PUSH0 PUSH1 0x1F NOT PUSH1 0x1F DUP4 ADD AND SWAP1 POP SWAP2 SWAP1 POP JUMP JUMPDEST PUSH0 PUSH2 0xBE8 DUP3 PUSH2 0xBA6 JUMP JUMPDEST PUSH2 0xBF2 DUP2 DUP6 PUSH2 0xBB0 JUMP JUMPDEST SWAP4 POP PUSH2 0xC02 DUP2 DUP6 PUSH1 0x20 DUP7 ADD PUSH2 0xBC0 JUMP JUMPDEST PUSH2 0xC0B DUP2 PUSH2 0xBCE JUMP JUMPDEST DUP5 ADD SWAP2 POP POP SWAP3 SWAP2 POP POP JUMP JUMPDEST PUSH0 PUSH1 0x20 DUP3 ADD SWAP1 POP DUP2 DUP2 SUB PUSH0 DUP4 ADD MSTORE PUSH2 0xC2E DUP2 DUP5 PUSH2 0xBDE JUMP JUMPDEST SWAP1 POP SWAP3 SWAP2 POP POP JUMP JUMPDEST PUSH0 PUSH1 0x40 MLOAD SWAP1 POP SWAP1 JUMP JUMPDEST PUSH0 PUSH0 REVERT JUMPDEST PUSH0 PUSH0 REVERT JUMPDEST PUSH0 DUP2 SWAP1 POP SWAP2 SWAP1 POP JUMP JUMPDEST PUSH2 0xC59 DUP2 PUSH2 0xC47 JUMP JUMPDEST DUP2 EQ PUSH2 0xC63 JUMPI PUSH0 PUSH0 REVERT JUMPDEST POP JUMP JUMPDEST PUSH0 DUP2 CALLDATALOAD SWAP1 POP PUSH2 0xC74 DUP2 PUSH2 0xC50 JUMP JUMPDEST SWAP3 SWAP2 POP POP JUMP JUMPDEST PUSH0 PUSH1 0x20 DUP3 DUP5 SUB SLT ISZERO PUSH2 0xC8F JUMPI PUSH2 0xC8E PUSH2 0xC3F JUMP JUMPDEST JUMPDEST PUSH0 PUSH2 0xC9C DUP5 DUP3 DUP6 ADD PUSH2 0xC66 JUMP JUMPDEST SWAP2 POP POP SWAP3 SWAP2 POP POP JUMP JUMPDEST PUSH0 PUSH20 0xFFFFFFFFFFFFFFFFFFFFFFFFFFFFFFFFFFFFFFFF DUP3 AND SWAP1 POP SWAP2 SWAP1 POP JUMP JUMPDEST PUSH0 PUSH2 0xCCE DUP3 PUSH2 0xCA5 JUMP JUMPDEST SWAP1 POP SWAP2 SWAP1 POP JUMP JUMPDEST PUSH2 0xCDE DUP2 PUSH2 0xCC4 JUMP JUMPDEST DUP3 MSTORE POP POP JUMP JUMPDEST PUSH0 PUSH1 0x20 DUP3 ADD SWAP1 POP PUSH2 0xCF7 PUSH0 DUP4 ADD DUP5 PUSH2 0xCD5 JUMP JUMPDEST SWAP3 SWAP2 POP POP JUMP JUMPDEST PUSH2 0xD06 DUP2 PUSH2 0xCC4 JUMP JUMPDEST DUP2 EQ PUSH2 0xD10 JUMPI PUSH0 PUSH0 REVERT JUMPDEST POP JUMP JUMPDEST PUSH0 DUP2 CALLDATALOAD SWAP1 POP PUSH2 0xD21 DUP2 PUSH2 0xCFD JUMP JUMPDEST SWAP3 SWAP2 POP POP JUMP JUMPDEST PUSH0 PUSH0 PUSH1 0x40 DUP4 DUP6 SUB SLT ISZERO PUSH2 0xD3D JUMPI PUSH2 0xD3C PUSH2 0xC3F JUMP JUMPDEST JUMPDEST PUSH0 PUSH2 0xD4A DUP6 DUP3 DUP7 ADD PUSH2 0xD13 JUMP JUMPDEST SWAP3 POP POP PUSH1 0x20 PUSH2 0xD5B DUP6 DUP3 DUP7 ADD PUSH2 0xC66 JUMP JUMPDEST SWAP2 POP POP SWAP3 POP SWAP3 SWAP1 POP JUMP JUMPDEST PUSH0 PUSH0 PUSH0 PUSH1 0x60 DUP5 DUP7 SUB SLT ISZERO PUSH2 0xD7C JUMPI PUSH2 0xD7B PUSH2 0xC3F JUMP JUMPDEST JUMPDEST PUSH0 PUSH2 0xD89 DUP7 DUP3 DUP8 ADD PUSH2 0xD13 JUMP JUMPDEST SWAP4 POP POP PUSH1 0x20 PUSH2 0xD9A DUP7 DUP3 DUP8 ADD PUSH2 0xD13 JUMP JUMPDEST SWAP3 POP POP PUSH1 0x40 PUSH2 0xDAB DUP7 DUP3 DUP8 ADD PUSH2 0xC66 JUMP JUMPDEST SWAP2 POP POP SWAP3 POP SWAP3 POP SWAP3 JUMP JUMPDEST PUSH0 PUSH1 0x20 DUP3 DUP5 SUB SLT ISZERO PUSH2 0xDCA JUMPI PUSH2 0xDC9 PUSH2 0xC3F JUMP JUMPDEST JUMPDEST PUSH0 PUSH2 0xDD7 DUP5 DUP3 DUP6 ADD PUSH2 0xD13 JUMP JUMPDEST SWAP2 POP POP SWAP3 SWAP2 POP POP JUMP JUMPDEST PUSH2 0xDE9 DUP2 PUSH2 0xC47 JUMP JUMPDEST DUP3 MSTORE POP POP JUMP JUMPDEST PUSH0 PUSH1 0x20 DUP3 ADD SWAP1 POP PUSH2 0xE02 PUSH0 DUP4 ADD DUP5 PUSH2 0xDE0 JUMP JUMPDEST SWAP3 SWAP2 POP POP JUMP JUMPDEST PUSH0 DUP2 ISZERO ISZERO SWAP1 POP SWAP2 SWAP1 POP JUMP JUMPDEST PUSH2 0xE1C DUP2 PUSH2 0xE08 JUMP JUMPDEST DUP2 EQ PUSH2 0xE26 JUMPI PUSH0 PUSH0 REVERT JUMPDEST POP JUMP JUMPDEST PUSH0 DUP2 CALLDATALOAD SWAP1 POP PUSH2 0xE37 DUP2 PUSH2 0xE13 JUMP JUMPDEST SWAP3 SWAP2 POP POP JUMP JUMPDEST PUSH0 PUSH0 PUSH1 0x40 DUP4 DUP6 SUB SLT ISZERO PUSH2 0xE53 JUMPI PUSH2 0xE52 PUSH2 0xC3F JUMP JUMPDEST JUMPDEST PUSH0 PUSH2 0xE60 DUP6 DUP3 DUP7 ADD PUSH2 0xD13 JUMP JUMPDEST SWAP3 POP POP PUSH1 0x20 PUSH2 0xE71 DUP6 DUP3 DUP7 ADD PUSH2 0xE29 JUMP JUMPDEST SWAP2 POP POP SWAP3 POP SWAP3 SWAP1 POP JUMP JUMPDEST PUSH0 PUSH0 REVERT JUMPDEST PUSH0 PUSH0 REVERT JUMPDEST PUSH32 0x4E487B7100000000000000000000000000000000000000000000000000000000 PUSH0 MSTORE PUSH1 0x41 PUSH1 0x4 MSTORE PUSH1 0x24 PUSH0 REVERT JUMPDEST PUSH2 0xEB9 DUP3 PUSH2 0xBCE JUMP JUMPDEST DUP2 ADD DUP2 DUP2 LT PUSH8 0xFFFFFFFFFFFFFFFF DUP3 GT OR ISZERO PUSH2 0xED8 JUMPI PUSH2 0xED7 PUSH2 0xE83 JUMP JUMPDEST JUMPDEST DUP1 PUSH1 0x40 MSTORE POP POP POP JUMP JUMPDEST PUSH0 PUSH2 0xEEA PUSH2 0xC36 JUMP JUMPDEST SWAP1 POP PUSH2 0xEF6 DUP3 DUP3 PUSH2 0xEB0 JUMP JUMPDEST SWAP2 SWAP1 POP JUMP JUMPDEST PUSH0 PUSH8 0xFFFFFFFFFFFFFFFF DUP3 GT ISZERO PUSH2 0xF15 JUMPI PUSH2 0xF14 PUSH2 0xE83 JUMP JUMPDEST JUMPDEST PUSH2 0xF1E DUP3 PUSH2 0xBCE JUMP JUMPDEST SWAP1 POP PUSH1 0x20 DUP2 ADD SWAP1 POP SWAP2 SWAP1 POP JUMP JUMPDEST DUP3 DUP2 DUP4 CALLDATACOPY PUSH0 DUP4 DUP4 ADD MSTORE POP POP POP JUMP JUMPDEST PUSH0 PUSH2 0xF4B PUSH2 0xF46 DUP5 PUSH2 0xEFB JUMP JUMPDEST PUSH2 0xEE1 JUMP JUMPDEST SWAP1 POP DUP3 DUP2 MSTORE PUSH1 0x20 DUP2 ADD DUP5 DUP5 DUP5 ADD GT ISZERO PUSH2 0xF67 JUMPI PUSH2 0xF66 PUSH2 0xE7F JUMP JUMPDEST JUMPDEST PUSH2 0xF72 DUP5 DUP3 DUP6 PUSH2 0xF2B JUMP JUMPDEST POP SWAP4 SWAP3 POP POP POP JUMP JUMPDEST PUSH0 DUP3 PUSH1 0x1F DUP4 ADD SLT PUSH2 0xF8E JUMPI PUSH2 0xF8D PUSH2 0xE7B JUMP JUMPDEST JUMPDEST DUP2 CALLDATALOAD PUSH2 0xF9E DUP5 DUP3 PUSH1 0x20 DUP7 ADD PUSH2 0xF39 JUMP JUMPDEST SWAP2 POP POP SWAP3 SWAP2 POP POP JUMP JUMPDEST PUSH0 PUSH0 PUSH0 PUSH0 PUSH1 0x80 DUP6 DUP8 SUB SLT ISZERO PUSH2 0xFBF JUMPI PUSH2 0xFBE PUSH2 0xC3F JUMP JUMPDEST JUMPDEST PUSH0 PUSH2 0xFCC DUP8 DUP3 DUP9 ADD PUSH2 0xD13 JUMP JUMPDEST SWAP5 POP POP PUSH1 0x20 PUSH2 0xFDD DUP8 DUP3 DUP9 ADD PUSH2 0xD13 JUMP JUMPDEST SWAP4 POP POP PUSH1 0x40 PUSH2 0xFEE DUP8 DUP3 DUP9 ADD PUSH2 0xC66 JUMP JUMPDEST SWAP3 POP POP PUSH1 0x60 DUP6 ADD CALLDATALOAD PUSH8 0xFFFFFFFFFFFFFFFF DUP2 GT ISZERO PUSH2 0x100F JUMPI PUSH2 0x100E PUSH2 0xC43 JUMP JUMPDEST JUMPDEST PUSH2 0x101B DUP8 DUP3 DUP9 ADD PUSH2 0xF7A JUMP JUMPDEST SWAP2 POP POP SWAP3 SWAP6 SWAP2 SWAP5 POP SWAP3 POP JUMP JUMPDEST PUSH0 PUSH0 PUSH1 0x40 DUP4 DUP6 SUB SLT ISZERO PUSH2 0x103D JUMPI PUSH2 0x103C PUSH2 0xC3F JUMP JUMPDEST JUMPDEST PUSH0 PUSH2 0x104A DUP6 DUP3 DUP7 ADD PUSH2 0xD13 JUMP JUMPDEST SWAP3 POP POP PUSH1 0x20 PUSH2 0x105B DUP6 DUP3 DUP7 ADD PUSH2 0xD13 JUMP JUMPDEST SWAP2 POP POP SWAP3 POP SWAP3 SWAP1 POP JUMP JUMPDEST PUSH2 0x106E DUP2 PUSH2 0xE08 JUMP JUMPDEST DUP3 MSTORE POP POP JUMP JUMPDEST PUSH0 PUSH1 0x20 DUP3 ADD SWAP1 POP PUSH2 0x1087 PUSH0 DUP4 ADD DUP5 PUSH2 0x1065 JUMP JUMPDEST SWAP3 SWAP2 POP POP JUMP JUMPDEST PUSH32 0x4E487B7100000000000000000000000000000000000000000000000000000000 PUSH0 MSTORE PUSH1 0x22 PUSH1 0x4 MSTORE PUSH1 0x24 PUSH0 REVERT JUMPDEST PUSH0 PUSH1 0x2 DUP3 DIV SWAP1 POP PUSH1 0x1 DUP3 AND DUP1 PUSH2 0x10D1 JUMPI PUSH1 0x7F DUP3 AND SWAP2 POP JUMPDEST PUSH1 0x20 DUP3 LT DUP2 SUB PUSH2 0x10E4 JUMPI PUSH2 0x10E3 PUSH2 0x108D JUMP JUMPDEST JUMPDEST POP SWAP2 SWAP1 POP JUMP JUMPDEST PUSH32 0x4F7263734E46543A204E6F74204F776E65720000000000000000000000000000 PUSH0 DUP3 ADD MSTORE POP JUMP JUMPDEST PUSH0 PUSH2 0x111E PUSH1 0x12 DUP4 PUSH2 0xBB0 JUMP JUMPDEST SWAP2 POP PUSH2 0x1129 DUP3 PUSH2 0x10EA JUMP JUMPDEST PUSH1 0x20 DUP3 ADD SWAP1 POP SWAP2 SWAP1 POP JUMP JUMPDEST PUSH0 PUSH1 0x20 DUP3 ADD SWAP1 POP DUP2 DUP2 SUB PUSH0 DUP4 ADD MSTORE PUSH2 0x114B DUP2 PUSH2 0x1112 JUMP JUMPDEST SWAP1 POP SWAP2 SWAP1 POP JUMP JUMPDEST PUSH32 0x4F7263734E46543A204E6F2042616C616E636500000000000000000000000000 PUSH0 DUP3 ADD MSTORE POP JUMP JUMPDEST PUSH0 PUSH2 0x1186 PUSH1 0x13 DUP4 PUSH2 0xBB0 JUMP JUMPDEST SWAP2 POP PUSH2 0x1191 DUP3 PUSH2 0x1152 JUMP JUMPDEST PUSH1 0x20 DUP3 ADD SWAP1 POP SWAP2 SWAP1 POP JUMP JUMPDEST PUSH0 PUSH1 0x20 DUP3 ADD SWAP1 POP DUP2 DUP2 SUB PUSH0 DUP4 ADD MSTORE PUSH2 0x11B3 DUP2 PUSH2 0x117A JUMP JUMPDEST SWAP1 POP SWAP2 SWAP1 POP JUMP JUMPDEST PUSH0 DUP2 MLOAD SWAP1 POP SWAP2 SWAP1 POP JUMP JUMPDEST PUSH0 DUP3 DUP3 MSTORE PUSH1 0x20 DUP3 ADD SWAP1 POP SWAP3 SWAP2 POP POP JUMP JUMPDEST PUSH0 PUSH2 0x11DE DUP3 PUSH2 0x11BA JUMP JUMPDEST PUSH2 0x11E8 DUP2 DUP6 PUSH2 0x11C4 JUMP JUMPDEST SWAP4 POP PUSH2 0x11F8 DUP2 DUP6 PUSH1 0x20 DUP7 ADD PUSH2 0xBC0 JUMP JUMPDEST PUSH2 0x1201 DUP2 PUSH2 0xBCE JUMP JUMPDEST DUP5 ADD SWAP2 POP POP SWAP3 SWAP2 POP POP JUMP JUMPDEST PUSH0 PUSH1 0x80 DUP3 ADD SWAP1 POP PUSH2 0x121F PUSH0 DUP4 ADD DUP8 PUSH2 0xCD5 JUMP JUMPDEST PUSH2 0x122C PUSH1 0x20 DUP4 ADD DUP7 PUSH2 0xCD5 JUMP JUMPDEST PUSH2 0x1239 PUSH1 0x40 DUP4 ADD DUP6 PUSH2 0xDE0 JUMP JUMPDEST DUP2 DUP2 SUB PUSH1 0x60 DUP4 ADD MSTORE PUSH2 0x124B DUP2 DUP5 PUSH2 0x11D4 JUMP JUMPDEST SWAP1 POP SWAP6 SWAP5 POP POP POP POP POP JUMP JUMPDEST PUSH0 PUSH32 0xFFFFFFFF00000000000000000000000000000000000000000000000000000000 DUP3 AND SWAP1 POP SWAP2 SWAP1 POP JUMP JUMPDEST PUSH2 0x128A DUP2 PUSH2 0x1256 JUMP JUMPDEST DUP2 EQ PUSH2 0x1294 JUMPI PUSH0 PUSH0 REVERT JUMPDEST POP JUMP JUMPDEST PUSH0 DUP2 MLOAD SWAP1 POP PUSH2 0x12A5 DUP2 PUSH2 0x1281 JUMP JUMPDEST SWAP3 SWAP2 POP POP JUMP JUMPDEST PUSH0 PUSH1 0x20 DUP3 DUP5 SUB SLT ISZERO PUSH2 0x12C0 JUMPI PUSH2 0x12BF PUSH2 0xC3F JUMP JUMPDEST JUMPDEST PUSH0 PUSH2 0x12CD DUP5 DUP3 DUP6 ADD PUSH2 0x1297 JUMP JUMPDEST SWAP2 POP POP SWAP3 SWAP2 POP POP JUMP JUMPDEST PUSH32 0x4F7263734E46543A2046726F6D206E6F74204F776E6572000000000000000000 PUSH0 DUP3 ADD MSTORE POP JUMP JUMPDEST PUSH0 PUSH2 0x130A PUSH1 0x17 DUP4 PUSH2 0xBB0 JUMP JUMPDEST SWAP2 POP PUSH2 0x1315 DUP3 PUSH2 0x12D6 JUMP JUMPDEST PUSH1 0x20 DUP3 ADD SWAP1 POP SWAP2 SWAP1 POP JUMP JUMPDEST PUSH0 PUSH1 0x20 DUP3 ADD SWAP1 POP DUP2 DUP2 SUB PUSH0 DUP4 ADD MSTORE PUSH2 0x1337 DUP2 PUSH2 0x12FE JUMP JUMPDEST SWAP1 POP SWAP2 SWAP1 POP JUMP JUMPDEST PUSH32 0x4F7263734E46543A2046726F6D206E6F7420617574686F72697A656400000000 PUSH0 DUP3 ADD MSTORE POP JUMP JUMPDEST PUSH0 PUSH2 0x1372 PUSH1 0x1C DUP4 PUSH2 0xBB0 JUMP JUMPDEST SWAP2 POP PUSH2 0x137D DUP3 PUSH2 0x133E JUMP JUMPDEST PUSH1 0x20 DUP3 ADD SWAP1 POP SWAP2 SWAP1 POP JUMP JUMPDEST PUSH0 PUSH1 0x20 DUP3 ADD SWAP1 POP DUP2 DUP2 SUB PUSH0 DUP4 ADD MSTORE PUSH2 0x139F DUP2 PUSH2 0x1366 JUMP JUMPDEST SWAP1 POP SWAP2 SWAP1 POP JUMP JUMPDEST PUSH32 0x4E487B7100000000000000000000000000000000000000000000000000000000 PUSH0 MSTORE PUSH1 0x11 PUSH1 0x4 MSTORE PUSH1 0x24 PUSH0 REVERT JUMPDEST PUSH0 PUSH2 0x13DD DUP3 PUSH2 0xC47 JUMP JUMPDEST SWAP2 POP PUSH2 0x13E8 DUP4 PUSH2 0xC47 JUMP JUMPDEST SWAP3 POP DUP3 DUP3 SUB SWAP1 POP DUP2 DUP2 GT ISZERO PUSH2 0x1400 JUMPI PUSH2 0x13FF PUSH2 0x13A6 JUMP JUMPDEST JUMPDEST SWAP3 SWAP2 POP POP JUMP JUMPDEST PUSH0 PUSH2 0x1410 DUP3 PUSH2 0xC47 JUMP JUMPDEST SWAP2 POP PUSH2 0x141B DUP4 PUSH2 0xC47 JUMP JUMPDEST SWAP3 POP DUP3 DUP3 ADD SWAP1 POP DUP1 DUP3 GT ISZERO PUSH2 0x1433 JUMPI PUSH2 0x1432 PUSH2 0x13A6 JUMP JUMPDEST JUMPDEST SWAP3 SWAP2 POP POP JUMP INVALID LOG2 PUSH5 0x6970667358 0x22 SLT KECCAK256 CALLDATASIZE CALLER COINBASE DUP12 RETURNDATASIZE PUSH7 0xD27D822E7CB6D9 SWAP15 0xF7 0xD2 DUP3 0x1E PREVRANDAO 0x27 BYTE DUP4 0xC4 CODECOPY GASLIMIT 0x2C 0x1F EXTCODESIZE 0xC5 0x27 GASLIMIT LOG1 PUSH5 0x736F6C6343 STOP ADDMOD 0x1E STOP CALLER "
				},
				"gasEstimates": {
					"creation": {
						"codeDepositCost": "1046200",
						"executionCost": "1085",
						"totalCost": "1047285"
					},
					"external": {
						"approve(address,uint256)": "infinite",
						"balanceOf(address)": "2851",
						"getApproved(uint256)": "2875",
						"isApprovedForAll(address,address)": "infinite",
						"name()": "infinite",
						"ownerOf(uint256)": "2852",
						"safeTransferFrom(address,address,uint256)": "infinite",
						"safeTransferFrom(address,address,uint256,bytes)": "infinite",
						"setApprovalForAll(address,bool)": "infinite",
						"symbol()": "infinite",
						"transferFrom(address,address,uint256)": "infinite"
					},
					"internal": {
						"_transfer(address,address,uint256)": "infinite"
					}
				},
				"methodIdentifiers": {
					"approve(address,uint256)": "095ea7b3",
					"balanceOf(address)": "70a08231",
					"getApproved(uint256)": "081812fc",
					"isApprovedForAll(address,address)": "e985e9c5",
					"name()": "06fdde03",
					"ownerOf(uint256)": "6352211e",
					"safeTransferFrom(address,address,uint256)": "42842e0e",
					"safeTransferFrom(address,address,uint256,bytes)": "b88d4fde",
					"setApprovalForAll(address,bool)": "a22cb465",
					"symbol()": "95d89b41",
					"transferFrom(address,address,uint256)": "23b872dd"
				}
			},
			"storageLayout": {
				"storage": [
					{
						"astId": 137,
						"contract": "contracts/OrcsNFT.sol:OrcsNFT",
						"label": "name",
						"offset": 0,
						"slot": "0",
						"type": "t_string_storage"
					},
					{
						"astId": 139,
						"contract": "contracts/OrcsNFT.sol:OrcsNFT",
						"label": "symbol",
						"offset": 0,
						"slot": "1",
						"type": "t_string_storage"
					},
					{
						"astId": 143,
						"contract": "contracts/OrcsNFT.sol:OrcsNFT",
						"label": "_balances",
						"offset": 0,
						"slot": "2",
						"type": "t_mapping(t_address,t_uint256)"
					},
					{
						"astId": 147,
						"contract": "contracts/OrcsNFT.sol:OrcsNFT",
						"label": "_owners",
						"offset": 0,
						"slot": "3",
						"type": "t_mapping(t_uint256,t_address)"
					},
					{
						"astId": 151,
						"contract": "contracts/OrcsNFT.sol:OrcsNFT",
						"label": "_operators",
						"offset": 0,
						"slot": "4",
						"type": "t_mapping(t_uint256,t_address)"
					},
					{
						"astId": 157,
						"contract": "contracts/OrcsNFT.sol:OrcsNFT",
						"label": "_approvedForAll",
						"offset": 0,
						"slot": "5",
						"type": "t_mapping(t_address,t_mapping(t_address,t_bool))"
					}
				],
				"types": {
					"t_address": {
						"encoding": "inplace",
						"label": "address",
						"numberOfBytes": "20"
					},
					"t_bool": {
						"encoding": "inplace",
						"label": "bool",
						"numberOfBytes": "1"
					},
					"t_mapping(t_address,t_bool)": {
						"encoding": "mapping",
						"key": "t_address",
						"label": "mapping(address => bool)",
						"numberOfBytes": "32",
						"value": "t_bool"
					},
					"t_mapping(t_address,t_mapping(t_address,t_bool))": {
						"encoding": "mapping",
						"key": "t_address",
						"label": "mapping(address => mapping(address => bool))",
						"numberOfBytes": "32",
						"value": "t_mapping(t_address,t_bool)"
					},
					"t_mapping(t_address,t_uint256)": {
						"encoding": "mapping",
						"key": "t_address",
						"label": "mapping(address => uint256)",
						"numberOfBytes": "32",
						"value": "t_uint256"
					},
					"t_mapping(t_uint256,t_address)": {
						"encoding": "mapping",
						"key": "t_uint256",
						"label": "mapping(uint256 => address)",
						"numberOfBytes": "32",
						"value": "t_address"
					},
					"t_string_storage": {
						"encoding": "bytes",
						"label": "string",
						"numberOfBytes": "32"
					},
					"t_uint256": {
						"encoding": "inplace",
						"label": "uint256",
						"numberOfBytes": "32"
					}
				}
			},
			"userdoc": {
				"kind": "user",
				"methods": {
					"approve(address,uint256)": {
						"notice": "Change or reaffirm the approved address for an NFT"
					},
					"balanceOf(address)": {
						"notice": "Count all NFTs assigned to an owner"
					},
					"getApproved(uint256)": {
						"notice": "Get the approved address for a single NFT"
					},
					"isApprovedForAll(address,address)": {
						"notice": "Query if an address is an authorized operator for another address"
					},
					"ownerOf(uint256)": {
						"notice": "Find the owner of an NFT"
					},
					"safeTransferFrom(address,address,uint256)": {
						"notice": "Transfers the ownership of an NFT from one address to another address"
					},
					"setApprovalForAll(address,bool)": {
						"notice": "Enable or disable approval for a third party (\"operator\") to manage  all of `msg.sender`'s assets"
					},
					"transferFrom(address,address,uint256)": {
						"notice": "Transfer ownership of an NFT -- THE CALLER IS RESPONSIBLE  TO CONFIRM THAT `_to` IS CAPABLE OF RECEIVING NFTS OR ELSE  THEY MAY BE PERMANENTLY LOST"
					}
				},
				"version": 1
			}
		}
	}
}